{
	"data": {
		"bytecode": {
			"linkReferences": {},
			"object": "608060405234801561001057600080fd5b506100203361002560201b60201c565b610212565b600073ffffffffffffffffffffffffffffffffffffffff168173ffffffffffffffffffffffffffffffffffffffff1603610094576040517f08c379a000000000000000000000000000000000000000000000000000000000815260040161008b90610185565b60405180910390fd5b806100da60017fb53127684a568b3173ae13b9f8a6016e243e63b6e8ee1178d6a717850b5d610460001c6100c891906101de565b60001b61011e60201b6103981760201c565b60000160006101000a81548173ffffffffffffffffffffffffffffffffffffffff021916908373ffffffffffffffffffffffffffffffffffffffff16021790555050565b6000819050919050565b600082825260208201905092915050565b7f61646d696e206973207a65726f20616464726573730000000000000000000000600082015250565b600061016f601583610128565b915061017a82610139565b602082019050919050565b6000602082019050818103600083015261019e81610162565b9050919050565b6000819050919050565b7f4e487b7100000000000000000000000000000000000000000000000000000000600052601160045260246000fd5b60006101e9826101a5565b91506101f4836101a5565b925082820390508181111561020c5761020b6101af565b5b92915050565b610923806102216000396000f3fe6080604052600436106100595760003560e01c8063086fc0c7146100825780633659cfe6146100ad5780635c60da1b146100d65780638f283970146101015780639c4b32be1461012a578063f851a4401461015557610070565b366100705761006e610069610180565b6101e6565b005b61008061007b610180565b6101e6565b005b34801561008e57600080fd5b5061009761020c565b6040516100a491906105ea565b60405180910390f35b3480156100b957600080fd5b506100d460048036038101906100cf9190610668565b610242565b005b3480156100e257600080fd5b506100eb6102c3565b6040516100f891906106a4565b60405180910390f35b34801561010d57600080fd5b5061012860048036038101906101239190610668565b6102d2565b005b34801561013657600080fd5b5061013f610353565b60405161014c91906105ea565b60405180910390f35b34801561016157600080fd5b5061016a610389565b60405161017791906106a4565b60405180910390f35b60006101bd60017fcf0fd1661cc2da5e58358a9905e3d718a4eb32831616a3b85e4df1ce9fe6316e60001c6101b591906106f8565b60001b610398565b60000160009054906101000a900473ffffffffffffffffffffffffffffffffffffffff16905090565b3660008037600080366000845af43d6000803e8060008114610207573d6000f35b3d6000fd5b60017fcf0fd1661cc2da5e58358a9905e3d718a4eb32831616a3b85e4df1ce9fe6316e60001c61023c91906106f8565b60001b81565b61024a6103a2565b73ffffffffffffffffffffffffffffffffffffffff163373ffffffffffffffffffffffffffffffffffffffff16146102b7576040517f08c379a00000000000000000000000000000000000000000000000000000000081526004016102ae90610789565b60405180910390fd5b6102c081610408565b50565b60006102cd610180565b905090565b3373ffffffffffffffffffffffffffffffffffffffff166102f16103a2565b73ffffffffffffffffffffffffffffffffffffffff1614610347576040517f08c379a000000000000000000000000000000000000000000000000000000000815260040161033e906107f5565b60405180910390fd5b610350816104e2565b50565b60017fb53127684a568b3173ae13b9f8a6016e243e63b6e8ee1178d6a717850b5d610460001c61038391906106f8565b60001b81565b60006103936103a2565b905090565b6000819050919050565b60006103df60017fb53127684a568b3173ae13b9f8a6016e243e63b6e8ee1178d6a717850b5d610460001c6103d791906106f8565b60001b610398565b60000160009054906101000a900473ffffffffffffffffffffffffffffffffffffffff16905090565b60008173ffffffffffffffffffffffffffffffffffffffff163b11610462576040517f08c379a000000000000000000000000000000000000000000000000000000000815260040161045990610861565b60405180910390fd5b8061049e60017fcf0fd1661cc2da5e58358a9905e3d718a4eb32831616a3b85e4df1ce9fe6316e60001c61049691906106f8565b60001b610398565b60000160006101000a81548173ffffffffffffffffffffffffffffffffffffffff021916908373ffffffffffffffffffffffffffffffffffffffff16021790555050565b600073ffffffffffffffffffffffffffffffffffffffff168173ffffffffffffffffffffffffffffffffffffffff1603610551576040517f08c379a0000000000000000000000000000000000000000000000000000000008152600401610548906108cd565b60405180910390fd5b8061058d60017fb53127684a568b3173ae13b9f8a6016e243e63b6e8ee1178d6a717850b5d610460001c61058591906106f8565b60001b610398565b60000160006101000a81548173ffffffffffffffffffffffffffffffffffffffff021916908373ffffffffffffffffffffffffffffffffffffffff16021790555050565b6000819050919050565b6105e4816105d1565b82525050565b60006020820190506105ff60008301846105db565b92915050565b600080fd5b600073ffffffffffffffffffffffffffffffffffffffff82169050919050565b60006106358261060a565b9050919050565b6106458161062a565b811461065057600080fd5b50565b6000813590506106628161063c565b92915050565b60006020828403121561067e5761067d610605565b5b600061068c84828501610653565b91505092915050565b61069e8161062a565b82525050565b60006020820190506106b96000830184610695565b92915050565b6000819050919050565b7f4e487b7100000000000000000000000000000000000000000000000000000000600052601160045260246000fd5b6000610703826106bf565b915061070e836106bf565b9250828203905081811115610726576107256106c9565b5b92915050565b600082825260208201905092915050565b7f6e6f7420617574686f72697a6564000000000000000000000000000000000000600082015250565b6000610773600e8361072c565b915061077e8261073d565b602082019050919050565b600060208201905081810360008301526107a281610766565b9050919050565b7f6e6f742061646d696e0000000000000000000000000000000000000000000000600082015250565b60006107df60098361072c565b91506107ea826107a9565b602082019050919050565b6000602082019050818103600083015261080e816107d2565b9050919050565b7f6e6f74206120636f6e7472616374000000000000000000000000000000000000600082015250565b600061084b600e8361072c565b915061085682610815565b602082019050919050565b6000602082019050818103600083015261087a8161083e565b9050919050565b7f61646d696e206973207a65726f20616464726573730000000000000000000000600082015250565b60006108b760158361072c565b91506108c282610881565b602082019050919050565b600060208201905081810360008301526108e6816108aa565b905091905056fea2646970667358221220e6c20fc5576f18a3978bbde4178e7fe594aa7c2bcbe380078848280c2ca4ce6664736f6c63430008120033",
			"opcodes": "PUSH1 0x80 PUSH1 0x40 MSTORE CALLVALUE DUP1 ISZERO PUSH2 0x10 JUMPI PUSH1 0x0 DUP1 REVERT JUMPDEST POP PUSH2 0x20 CALLER PUSH2 0x25 PUSH1 0x20 SHL PUSH1 0x20 SHR JUMP JUMPDEST PUSH2 0x212 JUMP JUMPDEST PUSH1 0x0 PUSH20 0xFFFFFFFFFFFFFFFFFFFFFFFFFFFFFFFFFFFFFFFF AND DUP2 PUSH20 0xFFFFFFFFFFFFFFFFFFFFFFFFFFFFFFFFFFFFFFFF AND SUB PUSH2 0x94 JUMPI PUSH1 0x40 MLOAD PUSH32 0x8C379A000000000000000000000000000000000000000000000000000000000 DUP2 MSTORE PUSH1 0x4 ADD PUSH2 0x8B SWAP1 PUSH2 0x185 JUMP JUMPDEST PUSH1 0x40 MLOAD DUP1 SWAP2 SUB SWAP1 REVERT JUMPDEST DUP1 PUSH2 0xDA PUSH1 0x1 PUSH32 0xB53127684A568B3173AE13B9F8A6016E243E63B6E8EE1178D6A717850B5D6104 PUSH1 0x0 SHR PUSH2 0xC8 SWAP2 SWAP1 PUSH2 0x1DE JUMP JUMPDEST PUSH1 0x0 SHL PUSH2 0x11E PUSH1 0x20 SHL PUSH2 0x398 OR PUSH1 0x20 SHR JUMP JUMPDEST PUSH1 0x0 ADD PUSH1 0x0 PUSH2 0x100 EXP DUP2 SLOAD DUP2 PUSH20 0xFFFFFFFFFFFFFFFFFFFFFFFFFFFFFFFFFFFFFFFF MUL NOT AND SWAP1 DUP4 PUSH20 0xFFFFFFFFFFFFFFFFFFFFFFFFFFFFFFFFFFFFFFFF AND MUL OR SWAP1 SSTORE POP POP JUMP JUMPDEST PUSH1 0x0 DUP2 SWAP1 POP SWAP2 SWAP1 POP JUMP JUMPDEST PUSH1 0x0 DUP3 DUP3 MSTORE PUSH1 0x20 DUP3 ADD SWAP1 POP SWAP3 SWAP2 POP POP JUMP JUMPDEST PUSH32 0x61646D696E206973207A65726F20616464726573730000000000000000000000 PUSH1 0x0 DUP3 ADD MSTORE POP JUMP JUMPDEST PUSH1 0x0 PUSH2 0x16F PUSH1 0x15 DUP4 PUSH2 0x128 JUMP JUMPDEST SWAP2 POP PUSH2 0x17A DUP3 PUSH2 0x139 JUMP JUMPDEST PUSH1 0x20 DUP3 ADD SWAP1 POP SWAP2 SWAP1 POP JUMP JUMPDEST PUSH1 0x0 PUSH1 0x20 DUP3 ADD SWAP1 POP DUP2 DUP2 SUB PUSH1 0x0 DUP4 ADD MSTORE PUSH2 0x19E DUP2 PUSH2 0x162 JUMP JUMPDEST SWAP1 POP SWAP2 SWAP1 POP JUMP JUMPDEST PUSH1 0x0 DUP2 SWAP1 POP SWAP2 SWAP1 POP JUMP JUMPDEST PUSH32 0x4E487B7100000000000000000000000000000000000000000000000000000000 PUSH1 0x0 MSTORE PUSH1 0x11 PUSH1 0x4 MSTORE PUSH1 0x24 PUSH1 0x0 REVERT JUMPDEST PUSH1 0x0 PUSH2 0x1E9 DUP3 PUSH2 0x1A5 JUMP JUMPDEST SWAP2 POP PUSH2 0x1F4 DUP4 PUSH2 0x1A5 JUMP JUMPDEST SWAP3 POP DUP3 DUP3 SUB SWAP1 POP DUP2 DUP2 GT ISZERO PUSH2 0x20C JUMPI PUSH2 0x20B PUSH2 0x1AF JUMP JUMPDEST JUMPDEST SWAP3 SWAP2 POP POP JUMP JUMPDEST PUSH2 0x923 DUP1 PUSH2 0x221 PUSH1 0x0 CODECOPY PUSH1 0x0 RETURN INVALID PUSH1 0x80 PUSH1 0x40 MSTORE PUSH1 0x4 CALLDATASIZE LT PUSH2 0x59 JUMPI PUSH1 0x0 CALLDATALOAD PUSH1 0xE0 SHR DUP1 PUSH4 0x86FC0C7 EQ PUSH2 0x82 JUMPI DUP1 PUSH4 0x3659CFE6 EQ PUSH2 0xAD JUMPI DUP1 PUSH4 0x5C60DA1B EQ PUSH2 0xD6 JUMPI DUP1 PUSH4 0x8F283970 EQ PUSH2 0x101 JUMPI DUP1 PUSH4 0x9C4B32BE EQ PUSH2 0x12A JUMPI DUP1 PUSH4 0xF851A440 EQ PUSH2 0x155 JUMPI PUSH2 0x70 JUMP JUMPDEST CALLDATASIZE PUSH2 0x70 JUMPI PUSH2 0x6E PUSH2 0x69 PUSH2 0x180 JUMP JUMPDEST PUSH2 0x1E6 JUMP JUMPDEST STOP JUMPDEST PUSH2 0x80 PUSH2 0x7B PUSH2 0x180 JUMP JUMPDEST PUSH2 0x1E6 JUMP JUMPDEST STOP JUMPDEST CALLVALUE DUP1 ISZERO PUSH2 0x8E JUMPI PUSH1 0x0 DUP1 REVERT JUMPDEST POP PUSH2 0x97 PUSH2 0x20C JUMP JUMPDEST PUSH1 0x40 MLOAD PUSH2 0xA4 SWAP2 SWAP1 PUSH2 0x5EA JUMP JUMPDEST PUSH1 0x40 MLOAD DUP1 SWAP2 SUB SWAP1 RETURN JUMPDEST CALLVALUE DUP1 ISZERO PUSH2 0xB9 JUMPI PUSH1 0x0 DUP1 REVERT JUMPDEST POP PUSH2 0xD4 PUSH1 0x4 DUP1 CALLDATASIZE SUB DUP2 ADD SWAP1 PUSH2 0xCF SWAP2 SWAP1 PUSH2 0x668 JUMP JUMPDEST PUSH2 0x242 JUMP JUMPDEST STOP JUMPDEST CALLVALUE DUP1 ISZERO PUSH2 0xE2 JUMPI PUSH1 0x0 DUP1 REVERT JUMPDEST POP PUSH2 0xEB PUSH2 0x2C3 JUMP JUMPDEST PUSH1 0x40 MLOAD PUSH2 0xF8 SWAP2 SWAP1 PUSH2 0x6A4 JUMP JUMPDEST PUSH1 0x40 MLOAD DUP1 SWAP2 SUB SWAP1 RETURN JUMPDEST CALLVALUE DUP1 ISZERO PUSH2 0x10D JUMPI PUSH1 0x0 DUP1 REVERT JUMPDEST POP PUSH2 0x128 PUSH1 0x4 DUP1 CALLDATASIZE SUB DUP2 ADD SWAP1 PUSH2 0x123 SWAP2 SWAP1 PUSH2 0x668 JUMP JUMPDEST PUSH2 0x2D2 JUMP JUMPDEST STOP JUMPDEST CALLVALUE DUP1 ISZERO PUSH2 0x136 JUMPI PUSH1 0x0 DUP1 REVERT JUMPDEST POP PUSH2 0x13F PUSH2 0x353 JUMP JUMPDEST PUSH1 0x40 MLOAD PUSH2 0x14C SWAP2 SWAP1 PUSH2 0x5EA JUMP JUMPDEST PUSH1 0x40 MLOAD DUP1 SWAP2 SUB SWAP1 RETURN JUMPDEST CALLVALUE DUP1 ISZERO PUSH2 0x161 JUMPI PUSH1 0x0 DUP1 REVERT JUMPDEST POP PUSH2 0x16A PUSH2 0x389 JUMP JUMPDEST PUSH1 0x40 MLOAD PUSH2 0x177 SWAP2 SWAP1 PUSH2 0x6A4 JUMP JUMPDEST PUSH1 0x40 MLOAD DUP1 SWAP2 SUB SWAP1 RETURN JUMPDEST PUSH1 0x0 PUSH2 0x1BD PUSH1 0x1 PUSH32 0xCF0FD1661CC2DA5E58358A9905E3D718A4EB32831616A3B85E4DF1CE9FE6316E PUSH1 0x0 SHR PUSH2 0x1B5 SWAP2 SWAP1 PUSH2 0x6F8 JUMP JUMPDEST PUSH1 0x0 SHL PUSH2 0x398 JUMP JUMPDEST PUSH1 0x0 ADD PUSH1 0x0 SWAP1 SLOAD SWAP1 PUSH2 0x100 EXP SWAP1 DIV PUSH20 0xFFFFFFFFFFFFFFFFFFFFFFFFFFFFFFFFFFFFFFFF AND SWAP1 POP SWAP1 JUMP JUMPDEST CALLDATASIZE PUSH1 0x0 DUP1 CALLDATACOPY PUSH1 0x0 DUP1 CALLDATASIZE PUSH1 0x0 DUP5 GAS DELEGATECALL RETURNDATASIZE PUSH1 0x0 DUP1 RETURNDATACOPY DUP1 PUSH1 0x0 DUP2 EQ PUSH2 0x207 JUMPI RETURNDATASIZE PUSH1 0x0 RETURN JUMPDEST RETURNDATASIZE PUSH1 0x0 REVERT JUMPDEST PUSH1 0x1 PUSH32 0xCF0FD1661CC2DA5E58358A9905E3D718A4EB32831616A3B85E4DF1CE9FE6316E PUSH1 0x0 SHR PUSH2 0x23C SWAP2 SWAP1 PUSH2 0x6F8 JUMP JUMPDEST PUSH1 0x0 SHL DUP2 JUMP JUMPDEST PUSH2 0x24A PUSH2 0x3A2 JUMP JUMPDEST PUSH20 0xFFFFFFFFFFFFFFFFFFFFFFFFFFFFFFFFFFFFFFFF AND CALLER PUSH20 0xFFFFFFFFFFFFFFFFFFFFFFFFFFFFFFFFFFFFFFFF AND EQ PUSH2 0x2B7 JUMPI PUSH1 0x40 MLOAD PUSH32 0x8C379A000000000000000000000000000000000000000000000000000000000 DUP2 MSTORE PUSH1 0x4 ADD PUSH2 0x2AE SWAP1 PUSH2 0x789 JUMP JUMPDEST PUSH1 0x40 MLOAD DUP1 SWAP2 SUB SWAP1 REVERT JUMPDEST PUSH2 0x2C0 DUP2 PUSH2 0x408 JUMP JUMPDEST POP JUMP JUMPDEST PUSH1 0x0 PUSH2 0x2CD PUSH2 0x180 JUMP JUMPDEST SWAP1 POP SWAP1 JUMP JUMPDEST CALLER PUSH20 0xFFFFFFFFFFFFFFFFFFFFFFFFFFFFFFFFFFFFFFFF AND PUSH2 0x2F1 PUSH2 0x3A2 JUMP JUMPDEST PUSH20 0xFFFFFFFFFFFFFFFFFFFFFFFFFFFFFFFFFFFFFFFF AND EQ PUSH2 0x347 JUMPI PUSH1 0x40 MLOAD PUSH32 0x8C379A000000000000000000000000000000000000000000000000000000000 DUP2 MSTORE PUSH1 0x4 ADD PUSH2 0x33E SWAP1 PUSH2 0x7F5 JUMP JUMPDEST PUSH1 0x40 MLOAD DUP1 SWAP2 SUB SWAP1 REVERT JUMPDEST PUSH2 0x350 DUP2 PUSH2 0x4E2 JUMP JUMPDEST POP JUMP JUMPDEST PUSH1 0x1 PUSH32 0xB53127684A568B3173AE13B9F8A6016E243E63B6E8EE1178D6A717850B5D6104 PUSH1 0x0 SHR PUSH2 0x383 SWAP2 SWAP1 PUSH2 0x6F8 JUMP JUMPDEST PUSH1 0x0 SHL DUP2 JUMP JUMPDEST PUSH1 0x0 PUSH2 0x393 PUSH2 0x3A2 JUMP JUMPDEST SWAP1 POP SWAP1 JUMP JUMPDEST PUSH1 0x0 DUP2 SWAP1 POP SWAP2 SWAP1 POP JUMP JUMPDEST PUSH1 0x0 PUSH2 0x3DF PUSH1 0x1 PUSH32 0xB53127684A568B3173AE13B9F8A6016E243E63B6E8EE1178D6A717850B5D6104 PUSH1 0x0 SHR PUSH2 0x3D7 SWAP2 SWAP1 PUSH2 0x6F8 JUMP JUMPDEST PUSH1 0x0 SHL PUSH2 0x398 JUMP JUMPDEST PUSH1 0x0 ADD PUSH1 0x0 SWAP1 SLOAD SWAP1 PUSH2 0x100 EXP SWAP1 DIV PUSH20 0xFFFFFFFFFFFFFFFFFFFFFFFFFFFFFFFFFFFFFFFF AND SWAP1 POP SWAP1 JUMP JUMPDEST PUSH1 0x0 DUP2 PUSH20 0xFFFFFFFFFFFFFFFFFFFFFFFFFFFFFFFFFFFFFFFF AND EXTCODESIZE GT PUSH2 0x462 JUMPI PUSH1 0x40 MLOAD PUSH32 0x8C379A000000000000000000000000000000000000000000000000000000000 DUP2 MSTORE PUSH1 0x4 ADD PUSH2 0x459 SWAP1 PUSH2 0x861 JUMP JUMPDEST PUSH1 0x40 MLOAD DUP1 SWAP2 SUB SWAP1 REVERT JUMPDEST DUP1 PUSH2 0x49E PUSH1 0x1 PUSH32 0xCF0FD1661CC2DA5E58358A9905E3D718A4EB32831616A3B85E4DF1CE9FE6316E PUSH1 0x0 SHR PUSH2 0x496 SWAP2 SWAP1 PUSH2 0x6F8 JUMP JUMPDEST PUSH1 0x0 SHL PUSH2 0x398 JUMP JUMPDEST PUSH1 0x0 ADD PUSH1 0x0 PUSH2 0x100 EXP DUP2 SLOAD DUP2 PUSH20 0xFFFFFFFFFFFFFFFFFFFFFFFFFFFFFFFFFFFFFFFF MUL NOT AND SWAP1 DUP4 PUSH20 0xFFFFFFFFFFFFFFFFFFFFFFFFFFFFFFFFFFFFFFFF AND MUL OR SWAP1 SSTORE POP POP JUMP JUMPDEST PUSH1 0x0 PUSH20 0xFFFFFFFFFFFFFFFFFFFFFFFFFFFFFFFFFFFFFFFF AND DUP2 PUSH20 0xFFFFFFFFFFFFFFFFFFFFFFFFFFFFFFFFFFFFFFFF AND SUB PUSH2 0x551 JUMPI PUSH1 0x40 MLOAD PUSH32 0x8C379A000000000000000000000000000000000000000000000000000000000 DUP2 MSTORE PUSH1 0x4 ADD PUSH2 0x548 SWAP1 PUSH2 0x8CD JUMP JUMPDEST PUSH1 0x40 MLOAD DUP1 SWAP2 SUB SWAP1 REVERT JUMPDEST DUP1 PUSH2 0x58D PUSH1 0x1 PUSH32 0xB53127684A568B3173AE13B9F8A6016E243E63B6E8EE1178D6A717850B5D6104 PUSH1 0x0 SHR PUSH2 0x585 SWAP2 SWAP1 PUSH2 0x6F8 JUMP JUMPDEST PUSH1 0x0 SHL PUSH2 0x398 JUMP JUMPDEST PUSH1 0x0 ADD PUSH1 0x0 PUSH2 0x100 EXP DUP2 SLOAD DUP2 PUSH20 0xFFFFFFFFFFFFFFFFFFFFFFFFFFFFFFFFFFFFFFFF MUL NOT AND SWAP1 DUP4 PUSH20 0xFFFFFFFFFFFFFFFFFFFFFFFFFFFFFFFFFFFFFFFF AND MUL OR SWAP1 SSTORE POP POP JUMP JUMPDEST PUSH1 0x0 DUP2 SWAP1 POP SWAP2 SWAP1 POP JUMP JUMPDEST PUSH2 0x5E4 DUP2 PUSH2 0x5D1 JUMP JUMPDEST DUP3 MSTORE POP POP JUMP JUMPDEST PUSH1 0x0 PUSH1 0x20 DUP3 ADD SWAP1 POP PUSH2 0x5FF PUSH1 0x0 DUP4 ADD DUP5 PUSH2 0x5DB JUMP JUMPDEST SWAP3 SWAP2 POP POP JUMP JUMPDEST PUSH1 0x0 DUP1 REVERT JUMPDEST PUSH1 0x0 PUSH20 0xFFFFFFFFFFFFFFFFFFFFFFFFFFFFFFFFFFFFFFFF DUP3 AND SWAP1 POP SWAP2 SWAP1 POP JUMP JUMPDEST PUSH1 0x0 PUSH2 0x635 DUP3 PUSH2 0x60A JUMP JUMPDEST SWAP1 POP SWAP2 SWAP1 POP JUMP JUMPDEST PUSH2 0x645 DUP2 PUSH2 0x62A JUMP JUMPDEST DUP2 EQ PUSH2 0x650 JUMPI PUSH1 0x0 DUP1 REVERT JUMPDEST POP JUMP JUMPDEST PUSH1 0x0 DUP2 CALLDATALOAD SWAP1 POP PUSH2 0x662 DUP2 PUSH2 0x63C JUMP JUMPDEST SWAP3 SWAP2 POP POP JUMP JUMPDEST PUSH1 0x0 PUSH1 0x20 DUP3 DUP5 SUB SLT ISZERO PUSH2 0x67E JUMPI PUSH2 0x67D PUSH2 0x605 JUMP JUMPDEST JUMPDEST PUSH1 0x0 PUSH2 0x68C DUP5 DUP3 DUP6 ADD PUSH2 0x653 JUMP JUMPDEST SWAP2 POP POP SWAP3 SWAP2 POP POP JUMP JUMPDEST PUSH2 0x69E DUP2 PUSH2 0x62A JUMP JUMPDEST DUP3 MSTORE POP POP JUMP JUMPDEST PUSH1 0x0 PUSH1 0x20 DUP3 ADD SWAP1 POP PUSH2 0x6B9 PUSH1 0x0 DUP4 ADD DUP5 PUSH2 0x695 JUMP JUMPDEST SWAP3 SWAP2 POP POP JUMP JUMPDEST PUSH1 0x0 DUP2 SWAP1 POP SWAP2 SWAP1 POP JUMP JUMPDEST PUSH32 0x4E487B7100000000000000000000000000000000000000000000000000000000 PUSH1 0x0 MSTORE PUSH1 0x11 PUSH1 0x4 MSTORE PUSH1 0x24 PUSH1 0x0 REVERT JUMPDEST PUSH1 0x0 PUSH2 0x703 DUP3 PUSH2 0x6BF JUMP JUMPDEST SWAP2 POP PUSH2 0x70E DUP4 PUSH2 0x6BF JUMP JUMPDEST SWAP3 POP DUP3 DUP3 SUB SWAP1 POP DUP2 DUP2 GT ISZERO PUSH2 0x726 JUMPI PUSH2 0x725 PUSH2 0x6C9 JUMP JUMPDEST JUMPDEST SWAP3 SWAP2 POP POP JUMP JUMPDEST PUSH1 0x0 DUP3 DUP3 MSTORE PUSH1 0x20 DUP3 ADD SWAP1 POP SWAP3 SWAP2 POP POP JUMP JUMPDEST PUSH32 0x6E6F7420617574686F72697A6564000000000000000000000000000000000000 PUSH1 0x0 DUP3 ADD MSTORE POP JUMP JUMPDEST PUSH1 0x0 PUSH2 0x773 PUSH1 0xE DUP4 PUSH2 0x72C JUMP JUMPDEST SWAP2 POP PUSH2 0x77E DUP3 PUSH2 0x73D JUMP JUMPDEST PUSH1 0x20 DUP3 ADD SWAP1 POP SWAP2 SWAP1 POP JUMP JUMPDEST PUSH1 0x0 PUSH1 0x20 DUP3 ADD SWAP1 POP DUP2 DUP2 SUB PUSH1 0x0 DUP4 ADD MSTORE PUSH2 0x7A2 DUP2 PUSH2 0x766 JUMP JUMPDEST SWAP1 POP SWAP2 SWAP1 POP JUMP JUMPDEST PUSH32 0x6E6F742061646D696E0000000000000000000000000000000000000000000000 PUSH1 0x0 DUP3 ADD MSTORE POP JUMP JUMPDEST PUSH1 0x0 PUSH2 0x7DF PUSH1 0x9 DUP4 PUSH2 0x72C JUMP JUMPDEST SWAP2 POP PUSH2 0x7EA DUP3 PUSH2 0x7A9 JUMP JUMPDEST PUSH1 0x20 DUP3 ADD SWAP1 POP SWAP2 SWAP1 POP JUMP JUMPDEST PUSH1 0x0 PUSH1 0x20 DUP3 ADD SWAP1 POP DUP2 DUP2 SUB PUSH1 0x0 DUP4 ADD MSTORE PUSH2 0x80E DUP2 PUSH2 0x7D2 JUMP JUMPDEST SWAP1 POP SWAP2 SWAP1 POP JUMP JUMPDEST PUSH32 0x6E6F74206120636F6E7472616374000000000000000000000000000000000000 PUSH1 0x0 DUP3 ADD MSTORE POP JUMP JUMPDEST PUSH1 0x0 PUSH2 0x84B PUSH1 0xE DUP4 PUSH2 0x72C JUMP JUMPDEST SWAP2 POP PUSH2 0x856 DUP3 PUSH2 0x815 JUMP JUMPDEST PUSH1 0x20 DUP3 ADD SWAP1 POP SWAP2 SWAP1 POP JUMP JUMPDEST PUSH1 0x0 PUSH1 0x20 DUP3 ADD SWAP1 POP DUP2 DUP2 SUB PUSH1 0x0 DUP4 ADD MSTORE PUSH2 0x87A DUP2 PUSH2 0x83E JUMP JUMPDEST SWAP1 POP SWAP2 SWAP1 POP JUMP JUMPDEST PUSH32 0x61646D696E206973207A65726F20616464726573730000000000000000000000 PUSH1 0x0 DUP3 ADD MSTORE POP JUMP JUMPDEST PUSH1 0x0 PUSH2 0x8B7 PUSH1 0x15 DUP4 PUSH2 0x72C JUMP JUMPDEST SWAP2 POP PUSH2 0x8C2 DUP3 PUSH2 0x881 JUMP JUMPDEST PUSH1 0x20 DUP3 ADD SWAP1 POP SWAP2 SWAP1 POP JUMP JUMPDEST PUSH1 0x0 PUSH1 0x20 DUP3 ADD SWAP1 POP DUP2 DUP2 SUB PUSH1 0x0 DUP4 ADD MSTORE PUSH2 0x8E6 DUP2 PUSH2 0x8AA JUMP JUMPDEST SWAP1 POP SWAP2 SWAP1 POP JUMP INVALID LOG2 PUSH5 0x6970667358 0x22 SLT KECCAK256 0xE6 0xC2 0xF 0xC5 JUMPI PUSH16 0x18A3978BBDE4178E7FE594AA7C2BCBE3 DUP1 SMOD DUP9 BASEFEE 0x28 0xC 0x2C LOG4 0xCE PUSH7 0x64736F6C634300 ADDMOD SLT STOP CALLER "
		},
		"gasEstimates": {
			"creation": {
				"codeDepositCost": "467800",
				"executionCost": "infinite",
				"totalCost": "infinite"
			},
			"external": {
				"": "infinite",
				"ADMIN_SLOT()": "infinite",
				"IMPLEMENTATION_SLOT()": "infinite",
				"admin()": "infinite",
				"changeAdmin(address)": "infinite",
				"implementation()": "infinite",
				"upgradeTo(address)": "infinite"
			},
			"internal": {
				"_delegate(address)": "infinite",
				"_fallback()": "infinite",
				"getAdmin()": "infinite",
				"getImplementation()": "infinite",
				"setAdmin(address)": "infinite",
				"setImplementation(address)": "infinite"
			}
		},
		"methodIdentifiers": {
			"ADMIN_SLOT()": "9c4b32be",
			"IMPLEMENTATION_SLOT()": "086fc0c7",
			"admin()": "f851a440",
			"changeAdmin(address)": "8f283970",
			"implementation()": "5c60da1b",
			"upgradeTo(address)": "3659cfe6"
		}
	},
	"abi": [
		{
			"inputs": [],
			"stateMutability": "nonpayable",
			"type": "constructor"
		},
		{
			"stateMutability": "payable",
			"type": "fallback"
		},
		{
			"inputs": [],
			"name": "ADMIN_SLOT",
			"outputs": [
				{
					"internalType": "bytes32",
					"name": "",
					"type": "bytes32"
				}
			],
			"stateMutability": "view",
			"type": "function"
		},
		{
			"inputs": [],
			"name": "IMPLEMENTATION_SLOT",
			"outputs": [
				{
					"internalType": "bytes32",
					"name": "",
					"type": "bytes32"
				}
			],
			"stateMutability": "view",
			"type": "function"
		},
		{
			"inputs": [],
			"name": "admin",
			"outputs": [
				{
					"internalType": "address",
					"name": "",
					"type": "address"
				}
			],
			"stateMutability": "view",
			"type": "function"
		},
		{
			"inputs": [
				{
					"internalType": "address",
					"name": "_admin",
					"type": "address"
				}
			],
			"name": "changeAdmin",
			"outputs": [],
			"stateMutability": "nonpayable",
			"type": "function"
		},
		{
			"inputs": [],
			"name": "implementation",
			"outputs": [
				{
					"internalType": "address",
					"name": "",
					"type": "address"
				}
			],
			"stateMutability": "view",
			"type": "function"
		},
		{
			"inputs": [
				{
					"internalType": "address",
					"name": "_implementation",
					"type": "address"
				}
			],
			"name": "upgradeTo",
			"outputs": [],
			"stateMutability": "nonpayable",
			"type": "function"
		},
		{
			"stateMutability": "payable",
			"type": "receive"
		}
	]
}