{
	"TimeLock.sol": {
		"TimeLock": {
			"abi": [
				{
					"inputs": [],
					"stateMutability": "nonpayable",
					"type": "constructor"
				},
				{
					"inputs": [
						{
							"internalType": "bytes32",
							"name": "txId",
							"type": "bytes32"
						}
					],
					"name": "AlreadyQueuedError",
					"type": "error"
				},
				{
					"inputs": [],
					"name": "NotOwnerError",
					"type": "error"
				},
				{
					"inputs": [
						{
							"internalType": "bytes32",
							"name": "txId",
							"type": "bytes32"
						}
					],
					"name": "NotQueuedError",
					"type": "error"
				},
				{
					"inputs": [
						{
							"internalType": "uint256",
							"name": "blocktimestamp",
							"type": "uint256"
						},
						{
							"internalType": "uint256",
							"name": "expiresAt",
							"type": "uint256"
						}
					],
					"name": "timestampExpiredError",
					"type": "error"
				},
				{
					"inputs": [
						{
							"internalType": "uint256",
							"name": "blocktimestamp",
							"type": "uint256"
						},
						{
							"internalType": "uint256",
							"name": "timestamp",
							"type": "uint256"
						}
					],
					"name": "timestampNotPassedError",
					"type": "error"
				},
				{
					"inputs": [
						{
							"internalType": "uint256",
							"name": "blocktimestamp",
							"type": "uint256"
						},
						{
							"internalType": "uint256",
							"name": "timestamp",
							"type": "uint256"
						}
					],
					"name": "timestampNotinRangeError",
					"type": "error"
				},
				{
					"anonymous": false,
					"inputs": [
						{
							"indexed": true,
							"internalType": "bytes32",
							"name": "txId",
							"type": "bytes32"
						}
					],
					"name": "Cancel",
					"type": "event"
				},
				{
					"anonymous": false,
					"inputs": [
						{
							"indexed": true,
							"internalType": "bytes32",
							"name": "txId",
							"type": "bytes32"
						},
						{
							"indexed": true,
							"internalType": "address",
							"name": "target",
							"type": "address"
						},
						{
							"indexed": false,
							"internalType": "uint256",
							"name": "value",
							"type": "uint256"
						},
						{
							"indexed": false,
							"internalType": "string",
							"name": "func",
							"type": "string"
						},
						{
							"indexed": false,
							"internalType": "bytes",
							"name": "data",
							"type": "bytes"
						},
						{
							"indexed": false,
							"internalType": "uint256",
							"name": "timestamp",
							"type": "uint256"
						}
					],
					"name": "Execute",
					"type": "event"
				},
				{
					"anonymous": false,
					"inputs": [
						{
							"indexed": true,
							"internalType": "bytes32",
							"name": "txId",
							"type": "bytes32"
						},
						{
							"indexed": true,
							"internalType": "address",
							"name": "target",
							"type": "address"
						},
						{
							"indexed": false,
							"internalType": "uint256",
							"name": "value",
							"type": "uint256"
						},
						{
							"indexed": false,
							"internalType": "string",
							"name": "func",
							"type": "string"
						},
						{
							"indexed": false,
							"internalType": "bytes",
							"name": "data",
							"type": "bytes"
						},
						{
							"indexed": false,
							"internalType": "uint256",
							"name": "timestamp",
							"type": "uint256"
						}
					],
					"name": "Queue",
					"type": "event"
				},
				{
					"inputs": [],
					"name": "GRACE_PERIOD",
					"outputs": [
						{
							"internalType": "uint256",
							"name": "",
							"type": "uint256"
						}
					],
					"stateMutability": "view",
					"type": "function"
				},
				{
					"inputs": [],
					"name": "MAX_DELAY",
					"outputs": [
						{
							"internalType": "uint256",
							"name": "",
							"type": "uint256"
						}
					],
					"stateMutability": "view",
					"type": "function"
				},
				{
					"inputs": [],
					"name": "MIN_DELAY",
					"outputs": [
						{
							"internalType": "uint256",
							"name": "",
							"type": "uint256"
						}
					],
					"stateMutability": "view",
					"type": "function"
				},
				{
					"inputs": [
						{
							"internalType": "bytes32",
							"name": "_txId",
							"type": "bytes32"
						}
					],
					"name": "cancel",
					"outputs": [],
					"stateMutability": "nonpayable",
					"type": "function"
				},
				{
					"inputs": [
						{
							"internalType": "address",
							"name": "_target",
							"type": "address"
						},
						{
							"internalType": "uint256",
							"name": "_value",
							"type": "uint256"
						},
						{
							"internalType": "string",
							"name": "_func",
							"type": "string"
						},
						{
							"internalType": "bytes",
							"name": "_data",
							"type": "bytes"
						},
						{
							"internalType": "uint256",
							"name": "_timestamp",
							"type": "uint256"
						}
					],
					"name": "execute",
					"outputs": [
						{
							"internalType": "bytes",
							"name": "",
							"type": "bytes"
						}
					],
					"stateMutability": "payable",
					"type": "function"
				},
				{
					"inputs": [
						{
							"internalType": "address",
							"name": "_target",
							"type": "address"
						},
						{
							"internalType": "uint256",
							"name": "_value",
							"type": "uint256"
						},
						{
							"internalType": "string",
							"name": "_func",
							"type": "string"
						},
						{
							"internalType": "bytes",
							"name": "_data",
							"type": "bytes"
						},
						{
							"internalType": "uint256",
							"name": "_timestamp",
							"type": "uint256"
						}
					],
					"name": "getTxId",
					"outputs": [
						{
							"internalType": "bytes32",
							"name": "txId",
							"type": "bytes32"
						}
					],
					"stateMutability": "pure",
					"type": "function"
				},
				{
					"inputs": [],
					"name": "owner",
					"outputs": [
						{
							"internalType": "address",
							"name": "",
							"type": "address"
						}
					],
					"stateMutability": "view",
					"type": "function"
				},
				{
					"inputs": [
						{
							"internalType": "address",
							"name": "_target",
							"type": "address"
						},
						{
							"internalType": "uint256",
							"name": "_value",
							"type": "uint256"
						},
						{
							"internalType": "string",
							"name": "_func",
							"type": "string"
						},
						{
							"internalType": "bytes",
							"name": "_data",
							"type": "bytes"
						},
						{
							"internalType": "uint256",
							"name": "_timestamp",
							"type": "uint256"
						}
					],
					"name": "queue",
					"outputs": [],
					"stateMutability": "nonpayable",
					"type": "function"
				},
				{
					"inputs": [
						{
							"internalType": "bytes32",
							"name": "",
							"type": "bytes32"
						}
					],
					"name": "queued",
					"outputs": [
						{
							"internalType": "bool",
							"name": "",
							"type": "bool"
						}
					],
					"stateMutability": "view",
					"type": "function"
				},
				{
					"stateMutability": "payable",
					"type": "receive"
				}
			],
			"devdoc": {
				"kind": "dev",
				"methods": {},
				"version": 1
			},
			"evm": {
				"assembly": "    /* \"TimeLock.sol\":344:3786  contract TimeLock {... */\n  mstore(0x40, 0x80)\n    /* \"TimeLock.sol\":1189:1240  constructor() {... */\n  callvalue\n  dup1\n  iszero\n  tag_1\n  jumpi\n  0x00\n  dup1\n  revert\ntag_1:\n  pop\n    /* \"TimeLock.sol\":1222:1232  msg.sender */\n  caller\n    /* \"TimeLock.sol\":1214:1219  owner */\n  0x00\n  dup1\n    /* \"TimeLock.sol\":1214:1232  owner = msg.sender */\n  0x0100\n  exp\n  dup2\n  sload\n  dup2\n  0xffffffffffffffffffffffffffffffffffffffff\n  mul\n  not\n  and\n  swap1\n  dup4\n  0xffffffffffffffffffffffffffffffffffffffff\n  and\n  mul\n  or\n  swap1\n  sstore\n  pop\n    /* \"TimeLock.sol\":344:3786  contract TimeLock {... */\n  dataSize(sub_0)\n  dup1\n  dataOffset(sub_0)\n  0x00\n  codecopy\n  0x00\n  return\nstop\n\nsub_0: assembly {\n        /* \"TimeLock.sol\":344:3786  contract TimeLock {... */\n      mstore(0x40, 0x80)\n      jumpi(tag_1, lt(calldatasize, 0x04))\n      shr(0xe0, calldataload(0x00))\n      dup1\n      0x8da5cb5b\n      gt\n      tag_12\n      jumpi\n      dup1\n      0x8da5cb5b\n      eq\n      tag_7\n      jumpi\n      dup1\n      0x9f81aed7\n      eq\n      tag_8\n      jumpi\n      dup1\n      0xb0f8b142\n      eq\n      tag_9\n      jumpi\n      dup1\n      0xc1a287e2\n      eq\n      tag_10\n      jumpi\n      dup1\n      0xc4d252f5\n      eq\n      tag_11\n      jumpi\n      jump(tag_2)\n    tag_12:\n      dup1\n      0x228250c9\n      eq\n      tag_3\n      jumpi\n      dup1\n      0x4125ff90\n      eq\n      tag_4\n      jumpi\n      dup1\n      0x4b9915a5\n      eq\n      tag_5\n      jumpi\n      dup1\n      0x8a1ce0b6\n      eq\n      tag_6\n      jumpi\n      jump(tag_2)\n    tag_1:\n      jumpi(tag_2, calldatasize)\n      stop\n    tag_2:\n      0x00\n      dup1\n      revert\n        /* \"TimeLock.sol\":1141:1180  mapping (bytes32 => bool) public queued */\n    tag_3:\n      callvalue\n      dup1\n      iszero\n      tag_15\n      jumpi\n      0x00\n      dup1\n      revert\n    tag_15:\n      pop\n      tag_16\n      0x04\n      dup1\n      calldatasize\n      sub\n      dup2\n      add\n      swap1\n      tag_17\n      swap2\n      swap1\n      tag_18\n      jump\t// in\n    tag_17:\n      tag_19\n      jump\t// in\n    tag_16:\n      mload(0x40)\n      tag_20\n      swap2\n      swap1\n      tag_21\n      jump\t// in\n    tag_20:\n      mload(0x40)\n      dup1\n      swap2\n      sub\n      swap1\n      return\n        /* \"TimeLock.sol\":1046:1083  uint public constant MAX_DELAY = 1000 */\n    tag_4:\n      callvalue\n      dup1\n      iszero\n      tag_22\n      jumpi\n      0x00\n      dup1\n      revert\n    tag_22:\n      pop\n      tag_23\n      tag_24\n      jump\t// in\n    tag_23:\n      mload(0x40)\n      tag_25\n      swap2\n      swap1\n      tag_26\n      jump\t// in\n    tag_25:\n      mload(0x40)\n      dup1\n      swap2\n      sub\n      swap1\n      return\n        /* \"TimeLock.sol\":1658:2350  function queue(address _target,uint _value,string calldata _func ,bytes calldata _data ,uint _timestamp) external onlyOwner {... */\n    tag_5:\n      callvalue\n      dup1\n      iszero\n      tag_27\n      jumpi\n      0x00\n      dup1\n      revert\n    tag_27:\n      pop\n      tag_28\n      0x04\n      dup1\n      calldatasize\n      sub\n      dup2\n      add\n      swap1\n      tag_29\n      swap2\n      swap1\n      tag_30\n      jump\t// in\n    tag_29:\n      tag_31\n      jump\t// in\n    tag_28:\n      stop\n        /* \"TimeLock.sol\":1423:1650  function getTxId(address _target,uint _value,string calldata _func ,bytes calldata _data ,uint _timestamp) public pure returns(bytes32 txId) {... */\n    tag_6:\n      callvalue\n      dup1\n      iszero\n      tag_32\n      jumpi\n      0x00\n      dup1\n      revert\n    tag_32:\n      pop\n      tag_33\n      0x04\n      dup1\n      calldatasize\n      sub\n      dup2\n      add\n      swap1\n      tag_34\n      swap2\n      swap1\n      tag_30\n      jump\t// in\n    tag_34:\n      tag_35\n      jump\t// in\n    tag_33:\n      mload(0x40)\n      tag_36\n      swap2\n      swap1\n      tag_37\n      jump\t// in\n    tag_36:\n      mload(0x40)\n      dup1\n      swap2\n      sub\n      swap1\n      return\n        /* \"TimeLock.sol\":369:389  address public owner */\n    tag_7:\n      callvalue\n      dup1\n      iszero\n      tag_38\n      jumpi\n      0x00\n      dup1\n      revert\n    tag_38:\n      pop\n      tag_39\n      tag_40\n      jump\t// in\n    tag_39:\n      mload(0x40)\n      tag_41\n      swap2\n      swap1\n      tag_42\n      jump\t// in\n    tag_41:\n      mload(0x40)\n      dup1\n      swap2\n      sub\n      swap1\n      return\n        /* \"TimeLock.sol\":1004:1039  uint public constant MIN_DELAY = 10 */\n    tag_8:\n      callvalue\n      dup1\n      iszero\n      tag_43\n      jumpi\n      0x00\n      dup1\n      revert\n    tag_43:\n      pop\n      tag_44\n      tag_45\n      jump\t// in\n    tag_44:\n      mload(0x40)\n      tag_46\n      swap2\n      swap1\n      tag_26\n      jump\t// in\n    tag_46:\n      mload(0x40)\n      dup1\n      swap2\n      sub\n      swap1\n      return\n        /* \"TimeLock.sol\":2358:3570  function execute(address _target,uint _value,string calldata _func ,bytes calldata _data ,uint _timestamp) external payable onlyOwner returns (bytes memory){... */\n    tag_9:\n      tag_47\n      0x04\n      dup1\n      calldatasize\n      sub\n      dup2\n      add\n      swap1\n      tag_48\n      swap2\n      swap1\n      tag_30\n      jump\t// in\n    tag_48:\n      tag_49\n      jump\t// in\n    tag_47:\n      mload(0x40)\n      tag_50\n      swap2\n      swap1\n      tag_51\n      jump\t// in\n    tag_50:\n      mload(0x40)\n      dup1\n      swap2\n      sub\n      swap1\n      return\n        /* \"TimeLock.sol\":1090:1130  uint public constant GRACE_PERIOD = 1000 */\n    tag_10:\n      callvalue\n      dup1\n      iszero\n      tag_52\n      jumpi\n      0x00\n      dup1\n      revert\n    tag_52:\n      pop\n      tag_53\n      tag_54\n      jump\t// in\n    tag_53:\n      mload(0x40)\n      tag_55\n      swap2\n      swap1\n      tag_26\n      jump\t// in\n    tag_55:\n      mload(0x40)\n      dup1\n      swap2\n      sub\n      swap1\n      return\n        /* \"TimeLock.sol\":3578:3783  function cancel(bytes32 _txId) external onlyOwner {... */\n    tag_11:\n      callvalue\n      dup1\n      iszero\n      tag_56\n      jumpi\n      0x00\n      dup1\n      revert\n    tag_56:\n      pop\n      tag_57\n      0x04\n      dup1\n      calldatasize\n      sub\n      dup2\n      add\n      swap1\n      tag_58\n      swap2\n      swap1\n      tag_18\n      jump\t// in\n    tag_58:\n      tag_59\n      jump\t// in\n    tag_57:\n      stop\n        /* \"TimeLock.sol\":1141:1180  mapping (bytes32 => bool) public queued */\n    tag_19:\n      mstore(0x20, 0x01)\n      dup1\n      0x00\n      mstore\n      keccak256(0x00, 0x40)\n      0x00\n      swap2\n      pop\n      sload\n      swap1\n      0x0100\n      exp\n      swap1\n      div\n      0xff\n      and\n      dup2\n      jump\t// out\n        /* \"TimeLock.sol\":1046:1083  uint public constant MAX_DELAY = 1000 */\n    tag_24:\n        /* \"TimeLock.sol\":1079:1083  1000 */\n      0x03e8\n        /* \"TimeLock.sol\":1046:1083  uint public constant MAX_DELAY = 1000 */\n      dup2\n      jump\t// out\n        /* \"TimeLock.sol\":1658:2350  function queue(address _target,uint _value,string calldata _func ,bytes calldata _data ,uint _timestamp) external onlyOwner {... */\n    tag_31:\n        /* \"TimeLock.sol\":1336:1341  owner */\n      0x00\n      dup1\n      sload\n      swap1\n      0x0100\n      exp\n      swap1\n      div\n      0xffffffffffffffffffffffffffffffffffffffff\n      and\n        /* \"TimeLock.sol\":1322:1341  msg.sender != owner */\n      0xffffffffffffffffffffffffffffffffffffffff\n      and\n        /* \"TimeLock.sol\":1322:1332  msg.sender */\n      caller\n        /* \"TimeLock.sol\":1322:1341  msg.sender != owner */\n      0xffffffffffffffffffffffffffffffffffffffff\n      and\n      eq\n        /* \"TimeLock.sol\":1318:1392  if (msg.sender != owner) {... */\n      tag_61\n      jumpi\n        /* \"TimeLock.sol\":1365:1380  NotOwnerError() */\n      mload(0x40)\n      0x74a2152700000000000000000000000000000000000000000000000000000000\n      dup2\n      mstore\n      0x04\n      add\n      mload(0x40)\n      dup1\n      swap2\n      sub\n      swap1\n      revert\n        /* \"TimeLock.sol\":1318:1392  if (msg.sender != owner) {... */\n    tag_61:\n        /* \"TimeLock.sol\":1909:1921  bytes32 txId */\n      0x00\n        /* \"TimeLock.sol\":1924:1970  getTxId(_target,_value,_func,_data,_timestamp) */\n      tag_63\n        /* \"TimeLock.sol\":1932:1939  _target */\n      dup9\n        /* \"TimeLock.sol\":1940:1946  _value */\n      dup9\n        /* \"TimeLock.sol\":1947:1952  _func */\n      dup9\n      dup9\n        /* \"TimeLock.sol\":1953:1958  _data */\n      dup9\n      dup9\n        /* \"TimeLock.sol\":1959:1969  _timestamp */\n      dup9\n        /* \"TimeLock.sol\":1924:1931  getTxId */\n      tag_35\n        /* \"TimeLock.sol\":1924:1970  getTxId(_target,_value,_func,_data,_timestamp) */\n      jump\t// in\n    tag_63:\n        /* \"TimeLock.sol\":1909:1970  bytes32 txId = getTxId(_target,_value,_func,_data,_timestamp) */\n      swap1\n      pop\n        /* \"TimeLock.sol\":1985:1991  queued */\n      0x01\n        /* \"TimeLock.sol\":1985:1997  queued[txId] */\n      0x00\n        /* \"TimeLock.sol\":1992:1996  txId */\n      dup3\n        /* \"TimeLock.sol\":1985:1997  queued[txId] */\n      dup2\n      mstore\n      0x20\n      add\n      swap1\n      dup2\n      mstore\n      0x20\n      add\n      0x00\n      keccak256\n      0x00\n      swap1\n      sload\n      swap1\n      0x0100\n      exp\n      swap1\n      div\n      0xff\n      and\n        /* \"TimeLock.sol\":1981:2057  if (queued[txId]) {... */\n      iszero\n      tag_64\n      jumpi\n        /* \"TimeLock.sol\":2040:2044  txId */\n      dup1\n        /* \"TimeLock.sol\":2021:2045  AlreadyQueuedError(txId) */\n      mload(0x40)\n      0x995042be00000000000000000000000000000000000000000000000000000000\n      dup2\n      mstore\n      0x04\n      add\n      tag_65\n      swap2\n      swap1\n      tag_37\n      jump\t// in\n    tag_65:\n      mload(0x40)\n      dup1\n      swap2\n      sub\n      swap1\n      revert\n        /* \"TimeLock.sol\":1981:2057  if (queued[txId]) {... */\n    tag_64:\n        /* \"TimeLock.sol\":1037:1039  10 */\n      0x0a\n        /* \"TimeLock.sol\":2085:2100  block.timestamp */\n      timestamp\n        /* \"TimeLock.sol\":2085:2112  block.timestamp + MIN_DELAY */\n      tag_66\n      swap2\n      swap1\n      tag_67\n      jump\t// in\n    tag_66:\n        /* \"TimeLock.sol\":2072:2082  _timestamp */\n      dup3\n        /* \"TimeLock.sol\":2072:2112  _timestamp < block.timestamp + MIN_DELAY */\n      lt\n        /* \"TimeLock.sol\":2072:2156  _timestamp < block.timestamp + MIN_DELAY || _timestamp > block.timestamp + MAX_DELAY */\n      dup1\n      tag_68\n      jumpi\n      pop\n        /* \"TimeLock.sol\":1079:1083  1000 */\n      0x03e8\n        /* \"TimeLock.sol\":2129:2144  block.timestamp */\n      timestamp\n        /* \"TimeLock.sol\":2129:2156  block.timestamp + MAX_DELAY */\n      tag_69\n      swap2\n      swap1\n      tag_67\n      jump\t// in\n    tag_69:\n        /* \"TimeLock.sol\":2116:2126  _timestamp */\n      dup3\n        /* \"TimeLock.sol\":2116:2156  _timestamp > block.timestamp + MAX_DELAY */\n      gt\n        /* \"TimeLock.sol\":2072:2156  _timestamp < block.timestamp + MIN_DELAY || _timestamp > block.timestamp + MAX_DELAY */\n    tag_68:\n        /* \"TimeLock.sol\":2069:2244  if(_timestamp < block.timestamp + MIN_DELAY || _timestamp > block.timestamp + MAX_DELAY) {... */\n      iszero\n      tag_70\n      jumpi\n        /* \"TimeLock.sol\":2205:2220  block.timestamp */\n      timestamp\n        /* \"TimeLock.sol\":2221:2231  _timestamp */\n      dup3\n        /* \"TimeLock.sol\":2180:2232  timestampNotinRangeError(block.timestamp,_timestamp) */\n      mload(0x40)\n      0x7809350000000000000000000000000000000000000000000000000000000000\n      dup2\n      mstore\n      0x04\n      add\n      tag_71\n      swap3\n      swap2\n      swap1\n      tag_72\n      jump\t// in\n    tag_71:\n      mload(0x40)\n      dup1\n      swap2\n      sub\n      swap1\n      revert\n        /* \"TimeLock.sol\":2069:2244  if(_timestamp < block.timestamp + MIN_DELAY || _timestamp > block.timestamp + MAX_DELAY) {... */\n    tag_70:\n        /* \"TimeLock.sol\":2271:2275  true */\n      0x01\n        /* \"TimeLock.sol\":2256:2262  queued */\n      dup1\n        /* \"TimeLock.sol\":2256:2268  queued[txId] */\n      0x00\n        /* \"TimeLock.sol\":2263:2267  txId */\n      dup4\n        /* \"TimeLock.sol\":2256:2268  queued[txId] */\n      dup2\n      mstore\n      0x20\n      add\n      swap1\n      dup2\n      mstore\n      0x20\n      add\n      0x00\n      keccak256\n      0x00\n        /* \"TimeLock.sol\":2256:2275  queued[txId] = true */\n      0x0100\n      exp\n      dup2\n      sload\n      dup2\n      0xff\n      mul\n      not\n      and\n      swap1\n      dup4\n      iszero\n      iszero\n      mul\n      or\n      swap1\n      sstore\n      pop\n        /* \"TimeLock.sol\":2304:2311  _target */\n      dup8\n        /* \"TimeLock.sol\":2291:2342  Queue (txId, _target,_value,_func,_data,_timestamp) */\n      0xffffffffffffffffffffffffffffffffffffffff\n      and\n        /* \"TimeLock.sol\":2298:2302  txId */\n      dup2\n        /* \"TimeLock.sol\":2291:2342  Queue (txId, _target,_value,_func,_data,_timestamp) */\n      0x3c22f47140594040d205a5533cfedd86c9ab8622c39ead03affb2d97052c794c\n        /* \"TimeLock.sol\":2312:2318  _value */\n      dup10\n        /* \"TimeLock.sol\":2319:2324  _func */\n      dup10\n      dup10\n        /* \"TimeLock.sol\":2325:2330  _data */\n      dup10\n      dup10\n        /* \"TimeLock.sol\":2331:2341  _timestamp */\n      dup10\n        /* \"TimeLock.sol\":2291:2342  Queue (txId, _target,_value,_func,_data,_timestamp) */\n      mload(0x40)\n      tag_73\n      swap7\n      swap6\n      swap5\n      swap4\n      swap3\n      swap2\n      swap1\n      tag_74\n      jump\t// in\n    tag_73:\n      mload(0x40)\n      dup1\n      swap2\n      sub\n      swap1\n      log3\n        /* \"TimeLock.sol\":1782:2350  {... */\n      pop\n        /* \"TimeLock.sol\":1658:2350  function queue(address _target,uint _value,string calldata _func ,bytes calldata _data ,uint _timestamp) external onlyOwner {... */\n      pop\n      pop\n      pop\n      pop\n      pop\n      pop\n      pop\n      jump\t// out\n        /* \"TimeLock.sol\":1423:1650  function getTxId(address _target,uint _value,string calldata _func ,bytes calldata _data ,uint _timestamp) public pure returns(bytes32 txId) {... */\n    tag_35:\n        /* \"TimeLock.sol\":1550:1562  bytes32 txId */\n      0x00\n        /* \"TimeLock.sol\":1603:1610  _target */\n      dup8\n        /* \"TimeLock.sol\":1611:1617  _value */\n      dup8\n        /* \"TimeLock.sol\":1618:1623  _func */\n      dup8\n      dup8\n        /* \"TimeLock.sol\":1624:1629  _data */\n      dup8\n      dup8\n        /* \"TimeLock.sol\":1630:1640  _timestamp */\n      dup8\n        /* \"TimeLock.sol\":1592:1641  abi.encode(_target,_value,_func,_data,_timestamp) */\n      add(0x20, mload(0x40))\n      tag_76\n      swap8\n      swap7\n      swap6\n      swap5\n      swap4\n      swap3\n      swap2\n      swap1\n      tag_77\n      jump\t// in\n    tag_76:\n      mload(0x40)\n      0x20\n      dup2\n      dup4\n      sub\n      sub\n      dup2\n      mstore\n      swap1\n      0x40\n      mstore\n        /* \"TimeLock.sol\":1582:1642  keccak256(abi.encode(_target,_value,_func,_data,_timestamp)) */\n      dup1\n      mload\n      swap1\n      0x20\n      add\n      keccak256\n        /* \"TimeLock.sol\":1575:1642  return keccak256(abi.encode(_target,_value,_func,_data,_timestamp)) */\n      swap1\n      pop\n        /* \"TimeLock.sol\":1423:1650  function getTxId(address _target,uint _value,string calldata _func ,bytes calldata _data ,uint _timestamp) public pure returns(bytes32 txId) {... */\n      swap8\n      swap7\n      pop\n      pop\n      pop\n      pop\n      pop\n      pop\n      pop\n      jump\t// out\n        /* \"TimeLock.sol\":369:389  address public owner */\n    tag_40:\n      0x00\n      dup1\n      sload\n      swap1\n      0x0100\n      exp\n      swap1\n      div\n      0xffffffffffffffffffffffffffffffffffffffff\n      and\n      dup2\n      jump\t// out\n        /* \"TimeLock.sol\":1004:1039  uint public constant MIN_DELAY = 10 */\n    tag_45:\n        /* \"TimeLock.sol\":1037:1039  10 */\n      0x0a\n        /* \"TimeLock.sol\":1004:1039  uint public constant MIN_DELAY = 10 */\n      dup2\n      jump\t// out\n        /* \"TimeLock.sol\":2358:3570  function execute(address _target,uint _value,string calldata _func ,bytes calldata _data ,uint _timestamp) external payable onlyOwner returns (bytes memory){... */\n    tag_49:\n        /* \"TimeLock.sol\":2501:2513  bytes memory */\n      0x60\n        /* \"TimeLock.sol\":1336:1341  owner */\n      0x00\n      dup1\n      sload\n      swap1\n      0x0100\n      exp\n      swap1\n      div\n      0xffffffffffffffffffffffffffffffffffffffff\n      and\n        /* \"TimeLock.sol\":1322:1341  msg.sender != owner */\n      0xffffffffffffffffffffffffffffffffffffffff\n      and\n        /* \"TimeLock.sol\":1322:1332  msg.sender */\n      caller\n        /* \"TimeLock.sol\":1322:1341  msg.sender != owner */\n      0xffffffffffffffffffffffffffffffffffffffff\n      and\n      eq\n        /* \"TimeLock.sol\":1318:1392  if (msg.sender != owner) {... */\n      tag_79\n      jumpi\n        /* \"TimeLock.sol\":1365:1380  NotOwnerError() */\n      mload(0x40)\n      0x74a2152700000000000000000000000000000000000000000000000000000000\n      dup2\n      mstore\n      0x04\n      add\n      mload(0x40)\n      dup1\n      swap2\n      sub\n      swap1\n      revert\n        /* \"TimeLock.sol\":1318:1392  if (msg.sender != owner) {... */\n    tag_79:\n        /* \"TimeLock.sol\":2663:2675  bytes32 txId */\n      0x00\n        /* \"TimeLock.sol\":2678:2724  getTxId(_target,_value,_func,_data,_timestamp) */\n      tag_81\n        /* \"TimeLock.sol\":2686:2693  _target */\n      dup10\n        /* \"TimeLock.sol\":2694:2700  _value */\n      dup10\n        /* \"TimeLock.sol\":2701:2706  _func */\n      dup10\n      dup10\n        /* \"TimeLock.sol\":2707:2712  _data */\n      dup10\n      dup10\n        /* \"TimeLock.sol\":2713:2723  _timestamp */\n      dup10\n        /* \"TimeLock.sol\":2678:2685  getTxId */\n      tag_35\n        /* \"TimeLock.sol\":2678:2724  getTxId(_target,_value,_func,_data,_timestamp) */\n      jump\t// in\n    tag_81:\n        /* \"TimeLock.sol\":2663:2724  bytes32 txId = getTxId(_target,_value,_func,_data,_timestamp) */\n      swap1\n      pop\n        /* \"TimeLock.sol\":2740:2746  queued */\n      0x01\n        /* \"TimeLock.sol\":2740:2752  queued[txId] */\n      0x00\n        /* \"TimeLock.sol\":2747:2751  txId */\n      dup3\n        /* \"TimeLock.sol\":2740:2752  queued[txId] */\n      dup2\n      mstore\n      0x20\n      add\n      swap1\n      dup2\n      mstore\n      0x20\n      add\n      0x00\n      keccak256\n      0x00\n      swap1\n      sload\n      swap1\n      0x0100\n      exp\n      swap1\n      div\n      0xff\n      and\n        /* \"TimeLock.sol\":2735:2808  if (!queued[txId]) {... */\n      tag_82\n      jumpi\n        /* \"TimeLock.sol\":2791:2795  txId */\n      dup1\n        /* \"TimeLock.sol\":2776:2796  NotQueuedError(txId) */\n      mload(0x40)\n      0x0995c9d500000000000000000000000000000000000000000000000000000000\n      dup2\n      mstore\n      0x04\n      add\n      tag_83\n      swap2\n      swap1\n      tag_37\n      jump\t// in\n    tag_83:\n      mload(0x40)\n      dup1\n      swap2\n      sub\n      swap1\n      revert\n        /* \"TimeLock.sol\":2735:2808  if (!queued[txId]) {... */\n    tag_82:\n        /* \"TimeLock.sol\":2842:2852  _timestamp */\n      dup3\n        /* \"TimeLock.sol\":2824:2839  block.timestamp */\n      timestamp\n        /* \"TimeLock.sol\":2824:2852  block.timestamp < _timestamp */\n      lt\n        /* \"TimeLock.sol\":2820:2940  if (block.timestamp < _timestamp) {... */\n      iszero\n      tag_84\n      jumpi\n        /* \"TimeLock.sol\":2900:2915  block.timestamp */\n      timestamp\n        /* \"TimeLock.sol\":2917:2927  _timestamp */\n      dup4\n        /* \"TimeLock.sol\":2876:2928  timestampNotPassedError(block.timestamp ,_timestamp) */\n      mload(0x40)\n      0xcb6572b200000000000000000000000000000000000000000000000000000000\n      dup2\n      mstore\n      0x04\n      add\n      tag_85\n      swap3\n      swap2\n      swap1\n      tag_72\n      jump\t// in\n    tag_85:\n      mload(0x40)\n      dup1\n      swap2\n      sub\n      swap1\n      revert\n        /* \"TimeLock.sol\":2820:2940  if (block.timestamp < _timestamp) {... */\n    tag_84:\n        /* \"TimeLock.sol\":1126:1130  1000 */\n      0x03e8\n        /* \"TimeLock.sol\":2974:2984  _timestamp */\n      dup4\n        /* \"TimeLock.sol\":2974:2999  _timestamp + GRACE_PERIOD */\n      tag_86\n      swap2\n      swap1\n      tag_67\n      jump\t// in\n    tag_86:\n        /* \"TimeLock.sol\":2956:2971  block.timestamp */\n      timestamp\n        /* \"TimeLock.sol\":2956:2999  block.timestamp > _timestamp + GRACE_PERIOD */\n      gt\n        /* \"TimeLock.sol\":2952:3100  if (block.timestamp > _timestamp + GRACE_PERIOD ) {... */\n      iszero\n      tag_87\n      jumpi\n        /* \"TimeLock.sol\":3046:3061  block.timestamp */\n      timestamp\n        /* \"TimeLock.sol\":1126:1130  1000 */\n      0x03e8\n        /* \"TimeLock.sol\":3062:3072  _timestamp */\n      dup5\n        /* \"TimeLock.sol\":3062:3087  _timestamp + GRACE_PERIOD */\n      tag_88\n      swap2\n      swap1\n      tag_67\n      jump\t// in\n    tag_88:\n        /* \"TimeLock.sol\":3024:3088  timestampExpiredError(block.timestamp,_timestamp + GRACE_PERIOD) */\n      mload(0x40)\n      0x34a6744900000000000000000000000000000000000000000000000000000000\n      dup2\n      mstore\n      0x04\n      add\n      tag_89\n      swap3\n      swap2\n      swap1\n      tag_72\n      jump\t// in\n    tag_89:\n      mload(0x40)\n      dup1\n      swap2\n      sub\n      swap1\n      revert\n        /* \"TimeLock.sol\":2952:3100  if (block.timestamp > _timestamp + GRACE_PERIOD ) {... */\n    tag_87:\n        /* \"TimeLock.sol\":3127:3132  false */\n      0x00\n        /* \"TimeLock.sol\":3112:3118  queued */\n      0x01\n        /* \"TimeLock.sol\":3112:3124  queued[txId] */\n      0x00\n        /* \"TimeLock.sol\":3119:3123  txId */\n      dup4\n        /* \"TimeLock.sol\":3112:3124  queued[txId] */\n      dup2\n      mstore\n      0x20\n      add\n      swap1\n      dup2\n      mstore\n      0x20\n      add\n      0x00\n      keccak256\n      0x00\n        /* \"TimeLock.sol\":3112:3132  queued[txId] = false */\n      0x0100\n      exp\n      dup2\n      sload\n      dup2\n      0xff\n      mul\n      not\n      and\n      swap1\n      dup4\n      iszero\n      iszero\n      mul\n      or\n      swap1\n      sstore\n      pop\n        /* \"TimeLock.sol\":3145:3162  bytes memory data */\n      0x60\n        /* \"TimeLock.sol\":3199:3200  0 */\n      0x00\n        /* \"TimeLock.sol\":3183:3188  _func */\n      dup9\n      dup9\n        /* \"TimeLock.sol\":3177:3196  bytes(_func).length */\n      swap1\n      pop\n        /* \"TimeLock.sol\":3177:3200  bytes(_func).length > 0 */\n      gt\n        /* \"TimeLock.sol\":3173:3347  if (bytes(_func).length > 0) {... */\n      iszero\n      tag_90\n      jumpi\n        /* \"TimeLock.sol\":3264:3269  _func */\n      dup8\n      dup8\n        /* \"TimeLock.sol\":3248:3271  keccak256(bytes(_func)) */\n      mload(0x40)\n      tag_91\n      swap3\n      swap2\n      swap1\n      tag_92\n      jump\t// in\n    tag_91:\n      mload(0x40)\n      dup1\n      swap2\n      sub\n      swap1\n      keccak256\n        /* \"TimeLock.sol\":3274:3279  _data */\n      dup7\n      dup7\n        /* \"TimeLock.sol\":3224:3280  abi.encodePacked(bytes4(keccak256(bytes(_func))), _data) */\n      add(0x20, mload(0x40))\n      tag_93\n      swap4\n      swap3\n      swap2\n      swap1\n      tag_94\n      jump\t// in\n    tag_93:\n      mload(0x40)\n      0x20\n      dup2\n      dup4\n      sub\n      sub\n      dup2\n      mstore\n      swap1\n      0x40\n      mstore\n        /* \"TimeLock.sol\":3217:3280  data = abi.encodePacked(bytes4(keccak256(bytes(_func))), _data) */\n      swap1\n      pop\n        /* \"TimeLock.sol\":3173:3347  if (bytes(_func).length > 0) {... */\n      jump(tag_95)\n    tag_90:\n        /* \"TimeLock.sol\":3330:3335  _data */\n      dup6\n      dup6\n        /* \"TimeLock.sol\":3323:3335  data = _data */\n      dup1\n      dup1\n      0x1f\n      add\n      0x20\n      dup1\n      swap2\n      div\n      mul\n      0x20\n      add\n      mload(0x40)\n      swap1\n      dup2\n      add\n      0x40\n      mstore\n      dup1\n      swap4\n      swap3\n      swap2\n      swap1\n      dup2\n      dup2\n      mstore\n      0x20\n      add\n      dup4\n      dup4\n      dup1\n      dup3\n      dup5\n      calldatacopy\n      0x00\n      dup2\n      dup5\n      add\n      mstore\n      not(0x1f)\n      0x1f\n      dup3\n      add\n      and\n      swap1\n      pop\n      dup1\n      dup4\n      add\n      swap3\n      pop\n      pop\n      pop\n      pop\n      pop\n      pop\n      pop\n      swap1\n      pop\n        /* \"TimeLock.sol\":3173:3347  if (bytes(_func).length > 0) {... */\n    tag_95:\n        /* \"TimeLock.sol\":3360:3372  bool success */\n      0x00\n        /* \"TimeLock.sol\":3374:3390  bytes memory res */\n      dup1\n        /* \"TimeLock.sol\":3394:3401  _target */\n      dup12\n        /* \"TimeLock.sol\":3394:3406  _target.call */\n      0xffffffffffffffffffffffffffffffffffffffff\n      and\n        /* \"TimeLock.sol\":3414:3420  _value */\n      dup12\n        /* \"TimeLock.sol\":3422:3426  data */\n      dup5\n        /* \"TimeLock.sol\":3394:3427  _target.call{value: _value}(data) */\n      mload(0x40)\n      tag_96\n      swap2\n      swap1\n      tag_97\n      jump\t// in\n    tag_96:\n      0x00\n      mload(0x40)\n      dup1\n      dup4\n      sub\n      dup2\n      dup6\n      dup8\n      gas\n      call\n      swap3\n      pop\n      pop\n      pop\n      returndatasize\n      dup1\n      0x00\n      dup2\n      eq\n      tag_100\n      jumpi\n      mload(0x40)\n      swap2\n      pop\n      and(add(returndatasize, 0x3f), not(0x1f))\n      dup3\n      add\n      0x40\n      mstore\n      returndatasize\n      dup3\n      mstore\n      returndatasize\n      0x00\n      0x20\n      dup5\n      add\n      returndatacopy\n      jump(tag_99)\n    tag_100:\n      0x60\n      swap2\n      pop\n    tag_99:\n      pop\n        /* \"TimeLock.sol\":3359:3427  (bool success ,bytes memory res) = _target.call{value: _value}(data) */\n      swap2\n      pop\n      swap2\n      pop\n        /* \"TimeLock.sol\":3446:3453  success */\n      dup2\n        /* \"TimeLock.sol\":3438:3473  require(success , \"success failed\") */\n      tag_101\n      jumpi\n      mload(0x40)\n      0x08c379a000000000000000000000000000000000000000000000000000000000\n      dup2\n      mstore\n      0x04\n      add\n      tag_102\n      swap1\n      tag_103\n      jump\t// in\n    tag_102:\n      mload(0x40)\n      dup1\n      swap2\n      sub\n      swap1\n      revert\n    tag_101:\n        /* \"TimeLock.sol\":3503:3510  _target */\n      dup12\n        /* \"TimeLock.sol\":3489:3541  Execute(txId ,_target,_value,_func,_data,_timestamp) */\n      0xffffffffffffffffffffffffffffffffffffffff\n      and\n        /* \"TimeLock.sol\":3497:3501  txId */\n      dup5\n        /* \"TimeLock.sol\":3489:3541  Execute(txId ,_target,_value,_func,_data,_timestamp) */\n      0xd1d5c3c892c18716bd88852091d1b63dc6849e9d7c37f69d566884bf954d4bd9\n        /* \"TimeLock.sol\":3511:3517  _value */\n      dup14\n        /* \"TimeLock.sol\":3518:3523  _func */\n      dup14\n      dup14\n        /* \"TimeLock.sol\":3524:3529  _data */\n      dup14\n      dup14\n        /* \"TimeLock.sol\":3530:3540  _timestamp */\n      dup14\n        /* \"TimeLock.sol\":3489:3541  Execute(txId ,_target,_value,_func,_data,_timestamp) */\n      mload(0x40)\n      tag_104\n      swap7\n      swap6\n      swap5\n      swap4\n      swap3\n      swap2\n      swap1\n      tag_74\n      jump\t// in\n    tag_104:\n      mload(0x40)\n      dup1\n      swap2\n      sub\n      swap1\n      log3\n        /* \"TimeLock.sol\":3559:3562  res */\n      dup1\n        /* \"TimeLock.sol\":3552:3562  return res */\n      swap5\n      pop\n      pop\n      pop\n      pop\n      pop\n        /* \"TimeLock.sol\":2358:3570  function execute(address _target,uint _value,string calldata _func ,bytes calldata _data ,uint _timestamp) external payable onlyOwner returns (bytes memory){... */\n      swap8\n      swap7\n      pop\n      pop\n      pop\n      pop\n      pop\n      pop\n      pop\n      jump\t// out\n        /* \"TimeLock.sol\":1090:1130  uint public constant GRACE_PERIOD = 1000 */\n    tag_54:\n        /* \"TimeLock.sol\":1126:1130  1000 */\n      0x03e8\n        /* \"TimeLock.sol\":1090:1130  uint public constant GRACE_PERIOD = 1000 */\n      dup2\n      jump\t// out\n        /* \"TimeLock.sol\":3578:3783  function cancel(bytes32 _txId) external onlyOwner {... */\n    tag_59:\n        /* \"TimeLock.sol\":1336:1341  owner */\n      0x00\n      dup1\n      sload\n      swap1\n      0x0100\n      exp\n      swap1\n      div\n      0xffffffffffffffffffffffffffffffffffffffff\n      and\n        /* \"TimeLock.sol\":1322:1341  msg.sender != owner */\n      0xffffffffffffffffffffffffffffffffffffffff\n      and\n        /* \"TimeLock.sol\":1322:1332  msg.sender */\n      caller\n        /* \"TimeLock.sol\":1322:1341  msg.sender != owner */\n      0xffffffffffffffffffffffffffffffffffffffff\n      and\n      eq\n        /* \"TimeLock.sol\":1318:1392  if (msg.sender != owner) {... */\n      tag_106\n      jumpi\n        /* \"TimeLock.sol\":1365:1380  NotOwnerError() */\n      mload(0x40)\n      0x74a2152700000000000000000000000000000000000000000000000000000000\n      dup2\n      mstore\n      0x04\n      add\n      mload(0x40)\n      dup1\n      swap2\n      sub\n      swap1\n      revert\n        /* \"TimeLock.sol\":1318:1392  if (msg.sender != owner) {... */\n    tag_106:\n        /* \"TimeLock.sol\":3644:3650  queued */\n      0x01\n        /* \"TimeLock.sol\":3644:3657  queued[_txId] */\n      0x00\n        /* \"TimeLock.sol\":3651:3656  _txId */\n      dup3\n        /* \"TimeLock.sol\":3644:3657  queued[_txId] */\n      dup2\n      mstore\n      0x20\n      add\n      swap1\n      dup2\n      mstore\n      0x20\n      add\n      0x00\n      keccak256\n      0x00\n      swap1\n      sload\n      swap1\n      0x0100\n      exp\n      swap1\n      div\n      0xff\n      and\n        /* \"TimeLock.sol\":3639:3714  if (!queued[_txId]) {... */\n      tag_108\n      jumpi\n        /* \"TimeLock.sol\":3696:3701  _txId */\n      dup1\n        /* \"TimeLock.sol\":3681:3702  NotQueuedError(_txId) */\n      mload(0x40)\n      0x0995c9d500000000000000000000000000000000000000000000000000000000\n      dup2\n      mstore\n      0x04\n      add\n      tag_109\n      swap2\n      swap1\n      tag_37\n      jump\t// in\n    tag_109:\n      mload(0x40)\n      dup1\n      swap2\n      sub\n      swap1\n      revert\n        /* \"TimeLock.sol\":3639:3714  if (!queued[_txId]) {... */\n    tag_108:\n        /* \"TimeLock.sol\":3741:3746  false */\n      0x00\n        /* \"TimeLock.sol\":3725:3731  queued */\n      0x01\n        /* \"TimeLock.sol\":3725:3738  queued[_txId] */\n      0x00\n        /* \"TimeLock.sol\":3732:3737  _txId */\n      dup4\n        /* \"TimeLock.sol\":3725:3738  queued[_txId] */\n      dup2\n      mstore\n      0x20\n      add\n      swap1\n      dup2\n      mstore\n      0x20\n      add\n      0x00\n      keccak256\n      0x00\n        /* \"TimeLock.sol\":3725:3746  queued[_txId] = false */\n      0x0100\n      exp\n      dup2\n      sload\n      dup2\n      0xff\n      mul\n      not\n      and\n      swap1\n      dup4\n      iszero\n      iszero\n      mul\n      or\n      swap1\n      sstore\n      pop\n        /* \"TimeLock.sol\":3769:3774  _txId */\n      dup1\n        /* \"TimeLock.sol\":3762:3775  Cancel(_txId) */\n      0xe8d9861dbc9c663ed3accd261bbe2fe01e0d3d9e5f51fa38523b265c7757a93a\n      mload(0x40)\n      mload(0x40)\n      dup1\n      swap2\n      sub\n      swap1\n      log2\n        /* \"TimeLock.sol\":3578:3783  function cancel(bytes32 _txId) external onlyOwner {... */\n      pop\n      jump\t// out\n        /* \"#utility.yul\":88:205   */\n    tag_111:\n        /* \"#utility.yul\":197:198   */\n      0x00\n        /* \"#utility.yul\":194:195   */\n      dup1\n        /* \"#utility.yul\":187:199   */\n      revert\n        /* \"#utility.yul\":211:328   */\n    tag_112:\n        /* \"#utility.yul\":320:321   */\n      0x00\n        /* \"#utility.yul\":317:318   */\n      dup1\n        /* \"#utility.yul\":310:322   */\n      revert\n        /* \"#utility.yul\":334:411   */\n    tag_113:\n        /* \"#utility.yul\":371:378   */\n      0x00\n        /* \"#utility.yul\":400:405   */\n      dup2\n        /* \"#utility.yul\":389:405   */\n      swap1\n      pop\n        /* \"#utility.yul\":334:411   */\n      swap2\n      swap1\n      pop\n      jump\t// out\n        /* \"#utility.yul\":417:539   */\n    tag_114:\n        /* \"#utility.yul\":490:514   */\n      tag_157\n        /* \"#utility.yul\":508:513   */\n      dup2\n        /* \"#utility.yul\":490:514   */\n      tag_113\n      jump\t// in\n    tag_157:\n        /* \"#utility.yul\":483:488   */\n      dup2\n        /* \"#utility.yul\":480:515   */\n      eq\n        /* \"#utility.yul\":470:533   */\n      tag_158\n      jumpi\n        /* \"#utility.yul\":529:530   */\n      0x00\n        /* \"#utility.yul\":526:527   */\n      dup1\n        /* \"#utility.yul\":519:531   */\n      revert\n        /* \"#utility.yul\":470:533   */\n    tag_158:\n        /* \"#utility.yul\":417:539   */\n      pop\n      jump\t// out\n        /* \"#utility.yul\":545:684   */\n    tag_115:\n        /* \"#utility.yul\":591:596   */\n      0x00\n        /* \"#utility.yul\":629:635   */\n      dup2\n        /* \"#utility.yul\":616:636   */\n      calldataload\n        /* \"#utility.yul\":607:636   */\n      swap1\n      pop\n        /* \"#utility.yul\":645:678   */\n      tag_160\n        /* \"#utility.yul\":672:677   */\n      dup2\n        /* \"#utility.yul\":645:678   */\n      tag_114\n      jump\t// in\n    tag_160:\n        /* \"#utility.yul\":545:684   */\n      swap3\n      swap2\n      pop\n      pop\n      jump\t// out\n        /* \"#utility.yul\":690:1019   */\n    tag_18:\n        /* \"#utility.yul\":749:755   */\n      0x00\n        /* \"#utility.yul\":798:800   */\n      0x20\n        /* \"#utility.yul\":786:795   */\n      dup3\n        /* \"#utility.yul\":777:784   */\n      dup5\n        /* \"#utility.yul\":773:796   */\n      sub\n        /* \"#utility.yul\":769:801   */\n      slt\n        /* \"#utility.yul\":766:885   */\n      iszero\n      tag_162\n      jumpi\n        /* \"#utility.yul\":804:883   */\n      tag_163\n      tag_111\n      jump\t// in\n    tag_163:\n        /* \"#utility.yul\":766:885   */\n    tag_162:\n        /* \"#utility.yul\":924:925   */\n      0x00\n        /* \"#utility.yul\":949:1002   */\n      tag_164\n        /* \"#utility.yul\":994:1001   */\n      dup5\n        /* \"#utility.yul\":985:991   */\n      dup3\n        /* \"#utility.yul\":974:983   */\n      dup6\n        /* \"#utility.yul\":970:992   */\n      add\n        /* \"#utility.yul\":949:1002   */\n      tag_115\n      jump\t// in\n    tag_164:\n        /* \"#utility.yul\":939:1002   */\n      swap2\n      pop\n        /* \"#utility.yul\":895:1012   */\n      pop\n        /* \"#utility.yul\":690:1019   */\n      swap3\n      swap2\n      pop\n      pop\n      jump\t// out\n        /* \"#utility.yul\":1025:1115   */\n    tag_116:\n        /* \"#utility.yul\":1059:1066   */\n      0x00\n        /* \"#utility.yul\":1102:1107   */\n      dup2\n        /* \"#utility.yul\":1095:1108   */\n      iszero\n        /* \"#utility.yul\":1088:1109   */\n      iszero\n        /* \"#utility.yul\":1077:1109   */\n      swap1\n      pop\n        /* \"#utility.yul\":1025:1115   */\n      swap2\n      swap1\n      pop\n      jump\t// out\n        /* \"#utility.yul\":1121:1230   */\n    tag_117:\n        /* \"#utility.yul\":1202:1223   */\n      tag_167\n        /* \"#utility.yul\":1217:1222   */\n      dup2\n        /* \"#utility.yul\":1202:1223   */\n      tag_116\n      jump\t// in\n    tag_167:\n        /* \"#utility.yul\":1197:1200   */\n      dup3\n        /* \"#utility.yul\":1190:1224   */\n      mstore\n        /* \"#utility.yul\":1121:1230   */\n      pop\n      pop\n      jump\t// out\n        /* \"#utility.yul\":1236:1446   */\n    tag_21:\n        /* \"#utility.yul\":1323:1327   */\n      0x00\n        /* \"#utility.yul\":1361:1363   */\n      0x20\n        /* \"#utility.yul\":1350:1359   */\n      dup3\n        /* \"#utility.yul\":1346:1364   */\n      add\n        /* \"#utility.yul\":1338:1364   */\n      swap1\n      pop\n        /* \"#utility.yul\":1374:1439   */\n      tag_169\n        /* \"#utility.yul\":1436:1437   */\n      0x00\n        /* \"#utility.yul\":1425:1434   */\n      dup4\n        /* \"#utility.yul\":1421:1438   */\n      add\n        /* \"#utility.yul\":1412:1418   */\n      dup5\n        /* \"#utility.yul\":1374:1439   */\n      tag_117\n      jump\t// in\n    tag_169:\n        /* \"#utility.yul\":1236:1446   */\n      swap3\n      swap2\n      pop\n      pop\n      jump\t// out\n        /* \"#utility.yul\":1452:1529   */\n    tag_118:\n        /* \"#utility.yul\":1489:1496   */\n      0x00\n        /* \"#utility.yul\":1518:1523   */\n      dup2\n        /* \"#utility.yul\":1507:1523   */\n      swap1\n      pop\n        /* \"#utility.yul\":1452:1529   */\n      swap2\n      swap1\n      pop\n      jump\t// out\n        /* \"#utility.yul\":1535:1653   */\n    tag_119:\n        /* \"#utility.yul\":1622:1646   */\n      tag_172\n        /* \"#utility.yul\":1640:1645   */\n      dup2\n        /* \"#utility.yul\":1622:1646   */\n      tag_118\n      jump\t// in\n    tag_172:\n        /* \"#utility.yul\":1617:1620   */\n      dup3\n        /* \"#utility.yul\":1610:1647   */\n      mstore\n        /* \"#utility.yul\":1535:1653   */\n      pop\n      pop\n      jump\t// out\n        /* \"#utility.yul\":1659:1881   */\n    tag_26:\n        /* \"#utility.yul\":1752:1756   */\n      0x00\n        /* \"#utility.yul\":1790:1792   */\n      0x20\n        /* \"#utility.yul\":1779:1788   */\n      dup3\n        /* \"#utility.yul\":1775:1793   */\n      add\n        /* \"#utility.yul\":1767:1793   */\n      swap1\n      pop\n        /* \"#utility.yul\":1803:1874   */\n      tag_174\n        /* \"#utility.yul\":1871:1872   */\n      0x00\n        /* \"#utility.yul\":1860:1869   */\n      dup4\n        /* \"#utility.yul\":1856:1873   */\n      add\n        /* \"#utility.yul\":1847:1853   */\n      dup5\n        /* \"#utility.yul\":1803:1874   */\n      tag_119\n      jump\t// in\n    tag_174:\n        /* \"#utility.yul\":1659:1881   */\n      swap3\n      swap2\n      pop\n      pop\n      jump\t// out\n        /* \"#utility.yul\":1887:2013   */\n    tag_120:\n        /* \"#utility.yul\":1924:1931   */\n      0x00\n        /* \"#utility.yul\":1964:2006   */\n      0xffffffffffffffffffffffffffffffffffffffff\n        /* \"#utility.yul\":1957:1962   */\n      dup3\n        /* \"#utility.yul\":1953:2007   */\n      and\n        /* \"#utility.yul\":1942:2007   */\n      swap1\n      pop\n        /* \"#utility.yul\":1887:2013   */\n      swap2\n      swap1\n      pop\n      jump\t// out\n        /* \"#utility.yul\":2019:2115   */\n    tag_121:\n        /* \"#utility.yul\":2056:2063   */\n      0x00\n        /* \"#utility.yul\":2085:2109   */\n      tag_177\n        /* \"#utility.yul\":2103:2108   */\n      dup3\n        /* \"#utility.yul\":2085:2109   */\n      tag_120\n      jump\t// in\n    tag_177:\n        /* \"#utility.yul\":2074:2109   */\n      swap1\n      pop\n        /* \"#utility.yul\":2019:2115   */\n      swap2\n      swap1\n      pop\n      jump\t// out\n        /* \"#utility.yul\":2121:2243   */\n    tag_122:\n        /* \"#utility.yul\":2194:2218   */\n      tag_179\n        /* \"#utility.yul\":2212:2217   */\n      dup2\n        /* \"#utility.yul\":2194:2218   */\n      tag_121\n      jump\t// in\n    tag_179:\n        /* \"#utility.yul\":2187:2192   */\n      dup2\n        /* \"#utility.yul\":2184:2219   */\n      eq\n        /* \"#utility.yul\":2174:2237   */\n      tag_180\n      jumpi\n        /* \"#utility.yul\":2233:2234   */\n      0x00\n        /* \"#utility.yul\":2230:2231   */\n      dup1\n        /* \"#utility.yul\":2223:2235   */\n      revert\n        /* \"#utility.yul\":2174:2237   */\n    tag_180:\n        /* \"#utility.yul\":2121:2243   */\n      pop\n      jump\t// out\n        /* \"#utility.yul\":2249:2388   */\n    tag_123:\n        /* \"#utility.yul\":2295:2300   */\n      0x00\n        /* \"#utility.yul\":2333:2339   */\n      dup2\n        /* \"#utility.yul\":2320:2340   */\n      calldataload\n        /* \"#utility.yul\":2311:2340   */\n      swap1\n      pop\n        /* \"#utility.yul\":2349:2382   */\n      tag_182\n        /* \"#utility.yul\":2376:2381   */\n      dup2\n        /* \"#utility.yul\":2349:2382   */\n      tag_122\n      jump\t// in\n    tag_182:\n        /* \"#utility.yul\":2249:2388   */\n      swap3\n      swap2\n      pop\n      pop\n      jump\t// out\n        /* \"#utility.yul\":2394:2516   */\n    tag_124:\n        /* \"#utility.yul\":2467:2491   */\n      tag_184\n        /* \"#utility.yul\":2485:2490   */\n      dup2\n        /* \"#utility.yul\":2467:2491   */\n      tag_118\n      jump\t// in\n    tag_184:\n        /* \"#utility.yul\":2460:2465   */\n      dup2\n        /* \"#utility.yul\":2457:2492   */\n      eq\n        /* \"#utility.yul\":2447:2510   */\n      tag_185\n      jumpi\n        /* \"#utility.yul\":2506:2507   */\n      0x00\n        /* \"#utility.yul\":2503:2504   */\n      dup1\n        /* \"#utility.yul\":2496:2508   */\n      revert\n        /* \"#utility.yul\":2447:2510   */\n    tag_185:\n        /* \"#utility.yul\":2394:2516   */\n      pop\n      jump\t// out\n        /* \"#utility.yul\":2522:2661   */\n    tag_125:\n        /* \"#utility.yul\":2568:2573   */\n      0x00\n        /* \"#utility.yul\":2606:2612   */\n      dup2\n        /* \"#utility.yul\":2593:2613   */\n      calldataload\n        /* \"#utility.yul\":2584:2613   */\n      swap1\n      pop\n        /* \"#utility.yul\":2622:2655   */\n      tag_187\n        /* \"#utility.yul\":2649:2654   */\n      dup2\n        /* \"#utility.yul\":2622:2655   */\n      tag_124\n      jump\t// in\n    tag_187:\n        /* \"#utility.yul\":2522:2661   */\n      swap3\n      swap2\n      pop\n      pop\n      jump\t// out\n        /* \"#utility.yul\":2667:2784   */\n    tag_126:\n        /* \"#utility.yul\":2776:2777   */\n      0x00\n        /* \"#utility.yul\":2773:2774   */\n      dup1\n        /* \"#utility.yul\":2766:2778   */\n      revert\n        /* \"#utility.yul\":2790:2907   */\n    tag_127:\n        /* \"#utility.yul\":2899:2900   */\n      0x00\n        /* \"#utility.yul\":2896:2897   */\n      dup1\n        /* \"#utility.yul\":2889:2901   */\n      revert\n        /* \"#utility.yul\":2913:3030   */\n    tag_128:\n        /* \"#utility.yul\":3022:3023   */\n      0x00\n        /* \"#utility.yul\":3019:3020   */\n      dup1\n        /* \"#utility.yul\":3012:3024   */\n      revert\n        /* \"#utility.yul\":3050:3603   */\n    tag_129:\n        /* \"#utility.yul\":3108:3116   */\n      0x00\n        /* \"#utility.yul\":3118:3124   */\n      dup1\n        /* \"#utility.yul\":3168:3171   */\n      dup4\n        /* \"#utility.yul\":3161:3165   */\n      0x1f\n        /* \"#utility.yul\":3153:3159   */\n      dup5\n        /* \"#utility.yul\":3149:3166   */\n      add\n        /* \"#utility.yul\":3145:3172   */\n      slt\n        /* \"#utility.yul\":3135:3257   */\n      tag_192\n      jumpi\n        /* \"#utility.yul\":3176:3255   */\n      tag_193\n      tag_126\n      jump\t// in\n    tag_193:\n        /* \"#utility.yul\":3135:3257   */\n    tag_192:\n        /* \"#utility.yul\":3289:3295   */\n      dup3\n        /* \"#utility.yul\":3276:3296   */\n      calldataload\n        /* \"#utility.yul\":3266:3296   */\n      swap1\n      pop\n        /* \"#utility.yul\":3319:3337   */\n      0xffffffffffffffff\n        /* \"#utility.yul\":3311:3317   */\n      dup2\n        /* \"#utility.yul\":3308:3338   */\n      gt\n        /* \"#utility.yul\":3305:3422   */\n      iszero\n      tag_194\n      jumpi\n        /* \"#utility.yul\":3341:3420   */\n      tag_195\n      tag_127\n      jump\t// in\n    tag_195:\n        /* \"#utility.yul\":3305:3422   */\n    tag_194:\n        /* \"#utility.yul\":3455:3459   */\n      0x20\n        /* \"#utility.yul\":3447:3453   */\n      dup4\n        /* \"#utility.yul\":3443:3460   */\n      add\n        /* \"#utility.yul\":3431:3460   */\n      swap2\n      pop\n        /* \"#utility.yul\":3509:3512   */\n      dup4\n        /* \"#utility.yul\":3501:3505   */\n      0x01\n        /* \"#utility.yul\":3493:3499   */\n      dup3\n        /* \"#utility.yul\":3489:3506   */\n      mul\n        /* \"#utility.yul\":3479:3487   */\n      dup4\n        /* \"#utility.yul\":3475:3507   */\n      add\n        /* \"#utility.yul\":3472:3513   */\n      gt\n        /* \"#utility.yul\":3469:3597   */\n      iszero\n      tag_196\n      jumpi\n        /* \"#utility.yul\":3516:3595   */\n      tag_197\n      tag_128\n      jump\t// in\n    tag_197:\n        /* \"#utility.yul\":3469:3597   */\n    tag_196:\n        /* \"#utility.yul\":3050:3603   */\n      swap3\n      pop\n      swap3\n      swap1\n      pop\n      jump\t// out\n        /* \"#utility.yul\":3622:4174   */\n    tag_130:\n        /* \"#utility.yul\":3679:3687   */\n      0x00\n        /* \"#utility.yul\":3689:3695   */\n      dup1\n        /* \"#utility.yul\":3739:3742   */\n      dup4\n        /* \"#utility.yul\":3732:3736   */\n      0x1f\n        /* \"#utility.yul\":3724:3730   */\n      dup5\n        /* \"#utility.yul\":3720:3737   */\n      add\n        /* \"#utility.yul\":3716:3743   */\n      slt\n        /* \"#utility.yul\":3706:3828   */\n      tag_199\n      jumpi\n        /* \"#utility.yul\":3747:3826   */\n      tag_200\n      tag_126\n      jump\t// in\n    tag_200:\n        /* \"#utility.yul\":3706:3828   */\n    tag_199:\n        /* \"#utility.yul\":3860:3866   */\n      dup3\n        /* \"#utility.yul\":3847:3867   */\n      calldataload\n        /* \"#utility.yul\":3837:3867   */\n      swap1\n      pop\n        /* \"#utility.yul\":3890:3908   */\n      0xffffffffffffffff\n        /* \"#utility.yul\":3882:3888   */\n      dup2\n        /* \"#utility.yul\":3879:3909   */\n      gt\n        /* \"#utility.yul\":3876:3993   */\n      iszero\n      tag_201\n      jumpi\n        /* \"#utility.yul\":3912:3991   */\n      tag_202\n      tag_127\n      jump\t// in\n    tag_202:\n        /* \"#utility.yul\":3876:3993   */\n    tag_201:\n        /* \"#utility.yul\":4026:4030   */\n      0x20\n        /* \"#utility.yul\":4018:4024   */\n      dup4\n        /* \"#utility.yul\":4014:4031   */\n      add\n        /* \"#utility.yul\":4002:4031   */\n      swap2\n      pop\n        /* \"#utility.yul\":4080:4083   */\n      dup4\n        /* \"#utility.yul\":4072:4076   */\n      0x01\n        /* \"#utility.yul\":4064:4070   */\n      dup3\n        /* \"#utility.yul\":4060:4077   */\n      mul\n        /* \"#utility.yul\":4050:4058   */\n      dup4\n        /* \"#utility.yul\":4046:4078   */\n      add\n        /* \"#utility.yul\":4043:4084   */\n      gt\n        /* \"#utility.yul\":4040:4168   */\n      iszero\n      tag_203\n      jumpi\n        /* \"#utility.yul\":4087:4166   */\n      tag_204\n      tag_128\n      jump\t// in\n    tag_204:\n        /* \"#utility.yul\":4040:4168   */\n    tag_203:\n        /* \"#utility.yul\":3622:4174   */\n      swap3\n      pop\n      swap3\n      swap1\n      pop\n      jump\t// out\n        /* \"#utility.yul\":4180:5489   */\n    tag_30:\n        /* \"#utility.yul\":4298:4304   */\n      0x00\n        /* \"#utility.yul\":4306:4312   */\n      dup1\n        /* \"#utility.yul\":4314:4320   */\n      0x00\n        /* \"#utility.yul\":4322:4328   */\n      dup1\n        /* \"#utility.yul\":4330:4336   */\n      0x00\n        /* \"#utility.yul\":4338:4344   */\n      dup1\n        /* \"#utility.yul\":4346:4352   */\n      0x00\n        /* \"#utility.yul\":4395:4398   */\n      0xa0\n        /* \"#utility.yul\":4383:4392   */\n      dup9\n        /* \"#utility.yul\":4374:4381   */\n      dup11\n        /* \"#utility.yul\":4370:4393   */\n      sub\n        /* \"#utility.yul\":4366:4399   */\n      slt\n        /* \"#utility.yul\":4363:4483   */\n      iszero\n      tag_206\n      jumpi\n        /* \"#utility.yul\":4402:4481   */\n      tag_207\n      tag_111\n      jump\t// in\n    tag_207:\n        /* \"#utility.yul\":4363:4483   */\n    tag_206:\n        /* \"#utility.yul\":4522:4523   */\n      0x00\n        /* \"#utility.yul\":4547:4600   */\n      tag_208\n        /* \"#utility.yul\":4592:4599   */\n      dup11\n        /* \"#utility.yul\":4583:4589   */\n      dup3\n        /* \"#utility.yul\":4572:4581   */\n      dup12\n        /* \"#utility.yul\":4568:4590   */\n      add\n        /* \"#utility.yul\":4547:4600   */\n      tag_123\n      jump\t// in\n    tag_208:\n        /* \"#utility.yul\":4537:4600   */\n      swap8\n      pop\n        /* \"#utility.yul\":4493:4610   */\n      pop\n        /* \"#utility.yul\":4649:4651   */\n      0x20\n        /* \"#utility.yul\":4675:4728   */\n      tag_209\n        /* \"#utility.yul\":4720:4727   */\n      dup11\n        /* \"#utility.yul\":4711:4717   */\n      dup3\n        /* \"#utility.yul\":4700:4709   */\n      dup12\n        /* \"#utility.yul\":4696:4718   */\n      add\n        /* \"#utility.yul\":4675:4728   */\n      tag_125\n      jump\t// in\n    tag_209:\n        /* \"#utility.yul\":4665:4728   */\n      swap7\n      pop\n        /* \"#utility.yul\":4620:4738   */\n      pop\n        /* \"#utility.yul\":4805:4807   */\n      0x40\n        /* \"#utility.yul\":4794:4803   */\n      dup9\n        /* \"#utility.yul\":4790:4808   */\n      add\n        /* \"#utility.yul\":4777:4809   */\n      calldataload\n        /* \"#utility.yul\":4836:4854   */\n      0xffffffffffffffff\n        /* \"#utility.yul\":4828:4834   */\n      dup2\n        /* \"#utility.yul\":4825:4855   */\n      gt\n        /* \"#utility.yul\":4822:4939   */\n      iszero\n      tag_210\n      jumpi\n        /* \"#utility.yul\":4858:4937   */\n      tag_211\n      tag_112\n      jump\t// in\n    tag_211:\n        /* \"#utility.yul\":4822:4939   */\n    tag_210:\n        /* \"#utility.yul\":4971:5036   */\n      tag_212\n        /* \"#utility.yul\":5028:5035   */\n      dup11\n        /* \"#utility.yul\":5019:5025   */\n      dup3\n        /* \"#utility.yul\":5008:5017   */\n      dup12\n        /* \"#utility.yul\":5004:5026   */\n      add\n        /* \"#utility.yul\":4971:5036   */\n      tag_129\n      jump\t// in\n    tag_212:\n        /* \"#utility.yul\":4953:5036   */\n      swap6\n      pop\n      swap6\n      pop\n        /* \"#utility.yul\":4748:5046   */\n      pop\n        /* \"#utility.yul\":5113:5115   */\n      0x60\n        /* \"#utility.yul\":5102:5111   */\n      dup9\n        /* \"#utility.yul\":5098:5116   */\n      add\n        /* \"#utility.yul\":5085:5117   */\n      calldataload\n        /* \"#utility.yul\":5144:5162   */\n      0xffffffffffffffff\n        /* \"#utility.yul\":5136:5142   */\n      dup2\n        /* \"#utility.yul\":5133:5163   */\n      gt\n        /* \"#utility.yul\":5130:5247   */\n      iszero\n      tag_213\n      jumpi\n        /* \"#utility.yul\":5166:5245   */\n      tag_214\n      tag_112\n      jump\t// in\n    tag_214:\n        /* \"#utility.yul\":5130:5247   */\n    tag_213:\n        /* \"#utility.yul\":5279:5343   */\n      tag_215\n        /* \"#utility.yul\":5335:5342   */\n      dup11\n        /* \"#utility.yul\":5326:5332   */\n      dup3\n        /* \"#utility.yul\":5315:5324   */\n      dup12\n        /* \"#utility.yul\":5311:5333   */\n      add\n        /* \"#utility.yul\":5279:5343   */\n      tag_130\n      jump\t// in\n    tag_215:\n        /* \"#utility.yul\":5261:5343   */\n      swap4\n      pop\n      swap4\n      pop\n        /* \"#utility.yul\":5056:5353   */\n      pop\n        /* \"#utility.yul\":5392:5395   */\n      0x80\n        /* \"#utility.yul\":5419:5472   */\n      tag_216\n        /* \"#utility.yul\":5464:5471   */\n      dup11\n        /* \"#utility.yul\":5455:5461   */\n      dup3\n        /* \"#utility.yul\":5444:5453   */\n      dup12\n        /* \"#utility.yul\":5440:5462   */\n      add\n        /* \"#utility.yul\":5419:5472   */\n      tag_125\n      jump\t// in\n    tag_216:\n        /* \"#utility.yul\":5409:5472   */\n      swap2\n      pop\n        /* \"#utility.yul\":5363:5482   */\n      pop\n        /* \"#utility.yul\":4180:5489   */\n      swap3\n      swap6\n      swap9\n      swap2\n      swap5\n      swap8\n      pop\n      swap3\n      swap6\n      pop\n      jump\t// out\n        /* \"#utility.yul\":5495:5613   */\n    tag_131:\n        /* \"#utility.yul\":5582:5606   */\n      tag_218\n        /* \"#utility.yul\":5600:5605   */\n      dup2\n        /* \"#utility.yul\":5582:5606   */\n      tag_113\n      jump\t// in\n    tag_218:\n        /* \"#utility.yul\":5577:5580   */\n      dup3\n        /* \"#utility.yul\":5570:5607   */\n      mstore\n        /* \"#utility.yul\":5495:5613   */\n      pop\n      pop\n      jump\t// out\n        /* \"#utility.yul\":5619:5841   */\n    tag_37:\n        /* \"#utility.yul\":5712:5716   */\n      0x00\n        /* \"#utility.yul\":5750:5752   */\n      0x20\n        /* \"#utility.yul\":5739:5748   */\n      dup3\n        /* \"#utility.yul\":5735:5753   */\n      add\n        /* \"#utility.yul\":5727:5753   */\n      swap1\n      pop\n        /* \"#utility.yul\":5763:5834   */\n      tag_220\n        /* \"#utility.yul\":5831:5832   */\n      0x00\n        /* \"#utility.yul\":5820:5829   */\n      dup4\n        /* \"#utility.yul\":5816:5833   */\n      add\n        /* \"#utility.yul\":5807:5813   */\n      dup5\n        /* \"#utility.yul\":5763:5834   */\n      tag_131\n      jump\t// in\n    tag_220:\n        /* \"#utility.yul\":5619:5841   */\n      swap3\n      swap2\n      pop\n      pop\n      jump\t// out\n        /* \"#utility.yul\":5847:5965   */\n    tag_132:\n        /* \"#utility.yul\":5934:5958   */\n      tag_222\n        /* \"#utility.yul\":5952:5957   */\n      dup2\n        /* \"#utility.yul\":5934:5958   */\n      tag_121\n      jump\t// in\n    tag_222:\n        /* \"#utility.yul\":5929:5932   */\n      dup3\n        /* \"#utility.yul\":5922:5959   */\n      mstore\n        /* \"#utility.yul\":5847:5965   */\n      pop\n      pop\n      jump\t// out\n        /* \"#utility.yul\":5971:6193   */\n    tag_42:\n        /* \"#utility.yul\":6064:6068   */\n      0x00\n        /* \"#utility.yul\":6102:6104   */\n      0x20\n        /* \"#utility.yul\":6091:6100   */\n      dup3\n        /* \"#utility.yul\":6087:6105   */\n      add\n        /* \"#utility.yul\":6079:6105   */\n      swap1\n      pop\n        /* \"#utility.yul\":6115:6186   */\n      tag_224\n        /* \"#utility.yul\":6183:6184   */\n      0x00\n        /* \"#utility.yul\":6172:6181   */\n      dup4\n        /* \"#utility.yul\":6168:6185   */\n      add\n        /* \"#utility.yul\":6159:6165   */\n      dup5\n        /* \"#utility.yul\":6115:6186   */\n      tag_132\n      jump\t// in\n    tag_224:\n        /* \"#utility.yul\":5971:6193   */\n      swap3\n      swap2\n      pop\n      pop\n      jump\t// out\n        /* \"#utility.yul\":6199:6297   */\n    tag_133:\n        /* \"#utility.yul\":6250:6256   */\n      0x00\n        /* \"#utility.yul\":6284:6289   */\n      dup2\n        /* \"#utility.yul\":6278:6290   */\n      mload\n        /* \"#utility.yul\":6268:6290   */\n      swap1\n      pop\n        /* \"#utility.yul\":6199:6297   */\n      swap2\n      swap1\n      pop\n      jump\t// out\n        /* \"#utility.yul\":6303:6471   */\n    tag_134:\n        /* \"#utility.yul\":6386:6397   */\n      0x00\n        /* \"#utility.yul\":6420:6426   */\n      dup3\n        /* \"#utility.yul\":6415:6418   */\n      dup3\n        /* \"#utility.yul\":6408:6427   */\n      mstore\n        /* \"#utility.yul\":6460:6464   */\n      0x20\n        /* \"#utility.yul\":6455:6458   */\n      dup3\n        /* \"#utility.yul\":6451:6465   */\n      add\n        /* \"#utility.yul\":6436:6465   */\n      swap1\n      pop\n        /* \"#utility.yul\":6303:6471   */\n      swap3\n      swap2\n      pop\n      pop\n      jump\t// out\n        /* \"#utility.yul\":6477:6723   */\n    tag_135:\n        /* \"#utility.yul\":6558:6559   */\n      0x00\n        /* \"#utility.yul\":6568:6681   */\n    tag_228:\n        /* \"#utility.yul\":6582:6588   */\n      dup4\n        /* \"#utility.yul\":6579:6580   */\n      dup2\n        /* \"#utility.yul\":6576:6589   */\n      lt\n        /* \"#utility.yul\":6568:6681   */\n      iszero\n      tag_230\n      jumpi\n        /* \"#utility.yul\":6667:6668   */\n      dup1\n        /* \"#utility.yul\":6662:6665   */\n      dup3\n        /* \"#utility.yul\":6658:6669   */\n      add\n        /* \"#utility.yul\":6652:6670   */\n      mload\n        /* \"#utility.yul\":6648:6649   */\n      dup2\n        /* \"#utility.yul\":6643:6646   */\n      dup5\n        /* \"#utility.yul\":6639:6650   */\n      add\n        /* \"#utility.yul\":6632:6671   */\n      mstore\n        /* \"#utility.yul\":6604:6606   */\n      0x20\n        /* \"#utility.yul\":6601:6602   */\n      dup2\n        /* \"#utility.yul\":6597:6607   */\n      add\n        /* \"#utility.yul\":6592:6607   */\n      swap1\n      pop\n        /* \"#utility.yul\":6568:6681   */\n      jump(tag_228)\n    tag_230:\n        /* \"#utility.yul\":6715:6716   */\n      0x00\n        /* \"#utility.yul\":6706:6712   */\n      dup5\n        /* \"#utility.yul\":6701:6704   */\n      dup5\n        /* \"#utility.yul\":6697:6713   */\n      add\n        /* \"#utility.yul\":6690:6717   */\n      mstore\n        /* \"#utility.yul\":6539:6723   */\n      pop\n        /* \"#utility.yul\":6477:6723   */\n      pop\n      pop\n      pop\n      jump\t// out\n        /* \"#utility.yul\":6729:6831   */\n    tag_136:\n        /* \"#utility.yul\":6770:6776   */\n      0x00\n        /* \"#utility.yul\":6821:6823   */\n      0x1f\n        /* \"#utility.yul\":6817:6824   */\n      not\n        /* \"#utility.yul\":6812:6814   */\n      0x1f\n        /* \"#utility.yul\":6805:6810   */\n      dup4\n        /* \"#utility.yul\":6801:6815   */\n      add\n        /* \"#utility.yul\":6797:6825   */\n      and\n        /* \"#utility.yul\":6787:6825   */\n      swap1\n      pop\n        /* \"#utility.yul\":6729:6831   */\n      swap2\n      swap1\n      pop\n      jump\t// out\n        /* \"#utility.yul\":6837:7210   */\n    tag_137:\n        /* \"#utility.yul\":6923:6926   */\n      0x00\n        /* \"#utility.yul\":6951:6989   */\n      tag_233\n        /* \"#utility.yul\":6983:6988   */\n      dup3\n        /* \"#utility.yul\":6951:6989   */\n      tag_133\n      jump\t// in\n    tag_233:\n        /* \"#utility.yul\":7005:7075   */\n      tag_234\n        /* \"#utility.yul\":7068:7074   */\n      dup2\n        /* \"#utility.yul\":7063:7066   */\n      dup6\n        /* \"#utility.yul\":7005:7075   */\n      tag_134\n      jump\t// in\n    tag_234:\n        /* \"#utility.yul\":6998:7075   */\n      swap4\n      pop\n        /* \"#utility.yul\":7084:7149   */\n      tag_235\n        /* \"#utility.yul\":7142:7148   */\n      dup2\n        /* \"#utility.yul\":7137:7140   */\n      dup6\n        /* \"#utility.yul\":7130:7134   */\n      0x20\n        /* \"#utility.yul\":7123:7128   */\n      dup7\n        /* \"#utility.yul\":7119:7135   */\n      add\n        /* \"#utility.yul\":7084:7149   */\n      tag_135\n      jump\t// in\n    tag_235:\n        /* \"#utility.yul\":7174:7203   */\n      tag_236\n        /* \"#utility.yul\":7196:7202   */\n      dup2\n        /* \"#utility.yul\":7174:7203   */\n      tag_136\n      jump\t// in\n    tag_236:\n        /* \"#utility.yul\":7169:7172   */\n      dup5\n        /* \"#utility.yul\":7165:7204   */\n      add\n        /* \"#utility.yul\":7158:7204   */\n      swap2\n      pop\n        /* \"#utility.yul\":6927:7210   */\n      pop\n        /* \"#utility.yul\":6837:7210   */\n      swap3\n      swap2\n      pop\n      pop\n      jump\t// out\n        /* \"#utility.yul\":7216:7525   */\n    tag_51:\n        /* \"#utility.yul\":7327:7331   */\n      0x00\n        /* \"#utility.yul\":7365:7367   */\n      0x20\n        /* \"#utility.yul\":7354:7363   */\n      dup3\n        /* \"#utility.yul\":7350:7368   */\n      add\n        /* \"#utility.yul\":7342:7368   */\n      swap1\n      pop\n        /* \"#utility.yul\":7414:7423   */\n      dup2\n        /* \"#utility.yul\":7408:7412   */\n      dup2\n        /* \"#utility.yul\":7404:7424   */\n      sub\n        /* \"#utility.yul\":7400:7401   */\n      0x00\n        /* \"#utility.yul\":7389:7398   */\n      dup4\n        /* \"#utility.yul\":7385:7402   */\n      add\n        /* \"#utility.yul\":7378:7425   */\n      mstore\n        /* \"#utility.yul\":7442:7518   */\n      tag_238\n        /* \"#utility.yul\":7513:7517   */\n      dup2\n        /* \"#utility.yul\":7504:7510   */\n      dup5\n        /* \"#utility.yul\":7442:7518   */\n      tag_137\n      jump\t// in\n    tag_238:\n        /* \"#utility.yul\":7434:7518   */\n      swap1\n      pop\n        /* \"#utility.yul\":7216:7525   */\n      swap3\n      swap2\n      pop\n      pop\n      jump\t// out\n        /* \"#utility.yul\":7531:7711   */\n    tag_138:\n        /* \"#utility.yul\":7579:7656   */\n      0x4e487b7100000000000000000000000000000000000000000000000000000000\n        /* \"#utility.yul\":7576:7577   */\n      0x00\n        /* \"#utility.yul\":7569:7657   */\n      mstore\n        /* \"#utility.yul\":7676:7680   */\n      0x11\n        /* \"#utility.yul\":7673:7674   */\n      0x04\n        /* \"#utility.yul\":7666:7681   */\n      mstore\n        /* \"#utility.yul\":7700:7704   */\n      0x24\n        /* \"#utility.yul\":7697:7698   */\n      0x00\n        /* \"#utility.yul\":7690:7705   */\n      revert\n        /* \"#utility.yul\":7717:7908   */\n    tag_67:\n        /* \"#utility.yul\":7757:7760   */\n      0x00\n        /* \"#utility.yul\":7776:7796   */\n      tag_241\n        /* \"#utility.yul\":7794:7795   */\n      dup3\n        /* \"#utility.yul\":7776:7796   */\n      tag_118\n      jump\t// in\n    tag_241:\n        /* \"#utility.yul\":7771:7796   */\n      swap2\n      pop\n        /* \"#utility.yul\":7810:7830   */\n      tag_242\n        /* \"#utility.yul\":7828:7829   */\n      dup4\n        /* \"#utility.yul\":7810:7830   */\n      tag_118\n      jump\t// in\n    tag_242:\n        /* \"#utility.yul\":7805:7830   */\n      swap3\n      pop\n        /* \"#utility.yul\":7853:7854   */\n      dup3\n        /* \"#utility.yul\":7850:7851   */\n      dup3\n        /* \"#utility.yul\":7846:7855   */\n      add\n        /* \"#utility.yul\":7839:7855   */\n      swap1\n      pop\n        /* \"#utility.yul\":7874:7877   */\n      dup1\n        /* \"#utility.yul\":7871:7872   */\n      dup3\n        /* \"#utility.yul\":7868:7878   */\n      gt\n        /* \"#utility.yul\":7865:7901   */\n      iszero\n      tag_243\n      jumpi\n        /* \"#utility.yul\":7881:7899   */\n      tag_244\n      tag_138\n      jump\t// in\n    tag_244:\n        /* \"#utility.yul\":7865:7901   */\n    tag_243:\n        /* \"#utility.yul\":7717:7908   */\n      swap3\n      swap2\n      pop\n      pop\n      jump\t// out\n        /* \"#utility.yul\":7914:8246   */\n    tag_72:\n        /* \"#utility.yul\":8035:8039   */\n      0x00\n        /* \"#utility.yul\":8073:8075   */\n      0x40\n        /* \"#utility.yul\":8062:8071   */\n      dup3\n        /* \"#utility.yul\":8058:8076   */\n      add\n        /* \"#utility.yul\":8050:8076   */\n      swap1\n      pop\n        /* \"#utility.yul\":8086:8157   */\n      tag_246\n        /* \"#utility.yul\":8154:8155   */\n      0x00\n        /* \"#utility.yul\":8143:8152   */\n      dup4\n        /* \"#utility.yul\":8139:8156   */\n      add\n        /* \"#utility.yul\":8130:8136   */\n      dup6\n        /* \"#utility.yul\":8086:8157   */\n      tag_119\n      jump\t// in\n    tag_246:\n        /* \"#utility.yul\":8167:8239   */\n      tag_247\n        /* \"#utility.yul\":8235:8237   */\n      0x20\n        /* \"#utility.yul\":8224:8233   */\n      dup4\n        /* \"#utility.yul\":8220:8238   */\n      add\n        /* \"#utility.yul\":8211:8217   */\n      dup5\n        /* \"#utility.yul\":8167:8239   */\n      tag_119\n      jump\t// in\n    tag_247:\n        /* \"#utility.yul\":7914:8246   */\n      swap4\n      swap3\n      pop\n      pop\n      pop\n      jump\t// out\n        /* \"#utility.yul\":8252:8421   */\n    tag_139:\n        /* \"#utility.yul\":8336:8347   */\n      0x00\n        /* \"#utility.yul\":8370:8376   */\n      dup3\n        /* \"#utility.yul\":8365:8368   */\n      dup3\n        /* \"#utility.yul\":8358:8377   */\n      mstore\n        /* \"#utility.yul\":8410:8414   */\n      0x20\n        /* \"#utility.yul\":8405:8408   */\n      dup3\n        /* \"#utility.yul\":8401:8415   */\n      add\n        /* \"#utility.yul\":8386:8415   */\n      swap1\n      pop\n        /* \"#utility.yul\":8252:8421   */\n      swap3\n      swap2\n      pop\n      pop\n      jump\t// out\n        /* \"#utility.yul\":8427:8573   */\n    tag_140:\n        /* \"#utility.yul\":8524:8530   */\n      dup3\n        /* \"#utility.yul\":8519:8522   */\n      dup2\n        /* \"#utility.yul\":8514:8517   */\n      dup4\n        /* \"#utility.yul\":8501:8531   */\n      calldatacopy\n        /* \"#utility.yul\":8565:8566   */\n      0x00\n        /* \"#utility.yul\":8556:8562   */\n      dup4\n        /* \"#utility.yul\":8551:8554   */\n      dup4\n        /* \"#utility.yul\":8547:8563   */\n      add\n        /* \"#utility.yul\":8540:8567   */\n      mstore\n        /* \"#utility.yul\":8427:8573   */\n      pop\n      pop\n      pop\n      jump\t// out\n        /* \"#utility.yul\":8603:8920   */\n    tag_141:\n        /* \"#utility.yul\":8701:8704   */\n      0x00\n        /* \"#utility.yul\":8722:8793   */\n      tag_251\n        /* \"#utility.yul\":8786:8792   */\n      dup4\n        /* \"#utility.yul\":8781:8784   */\n      dup6\n        /* \"#utility.yul\":8722:8793   */\n      tag_139\n      jump\t// in\n    tag_251:\n        /* \"#utility.yul\":8715:8793   */\n      swap4\n      pop\n        /* \"#utility.yul\":8803:8859   */\n      tag_252\n        /* \"#utility.yul\":8852:8858   */\n      dup4\n        /* \"#utility.yul\":8847:8850   */\n      dup6\n        /* \"#utility.yul\":8840:8845   */\n      dup5\n        /* \"#utility.yul\":8803:8859   */\n      tag_140\n      jump\t// in\n    tag_252:\n        /* \"#utility.yul\":8884:8913   */\n      tag_253\n        /* \"#utility.yul\":8906:8912   */\n      dup4\n        /* \"#utility.yul\":8884:8913   */\n      tag_136\n      jump\t// in\n    tag_253:\n        /* \"#utility.yul\":8879:8882   */\n      dup5\n        /* \"#utility.yul\":8875:8914   */\n      add\n        /* \"#utility.yul\":8868:8914   */\n      swap1\n      pop\n        /* \"#utility.yul\":8603:8920   */\n      swap4\n      swap3\n      pop\n      pop\n      pop\n      jump\t// out\n        /* \"#utility.yul\":8948:9262   */\n    tag_142:\n        /* \"#utility.yul\":9044:9047   */\n      0x00\n        /* \"#utility.yul\":9065:9135   */\n      tag_255\n        /* \"#utility.yul\":9128:9134   */\n      dup4\n        /* \"#utility.yul\":9123:9126   */\n      dup6\n        /* \"#utility.yul\":9065:9135   */\n      tag_134\n      jump\t// in\n    tag_255:\n        /* \"#utility.yul\":9058:9135   */\n      swap4\n      pop\n        /* \"#utility.yul\":9145:9201   */\n      tag_256\n        /* \"#utility.yul\":9194:9200   */\n      dup4\n        /* \"#utility.yul\":9189:9192   */\n      dup6\n        /* \"#utility.yul\":9182:9187   */\n      dup5\n        /* \"#utility.yul\":9145:9201   */\n      tag_140\n      jump\t// in\n    tag_256:\n        /* \"#utility.yul\":9226:9255   */\n      tag_257\n        /* \"#utility.yul\":9248:9254   */\n      dup4\n        /* \"#utility.yul\":9226:9255   */\n      tag_136\n      jump\t// in\n    tag_257:\n        /* \"#utility.yul\":9221:9224   */\n      dup5\n        /* \"#utility.yul\":9217:9256   */\n      add\n        /* \"#utility.yul\":9210:9256   */\n      swap1\n      pop\n        /* \"#utility.yul\":8948:9262   */\n      swap4\n      swap3\n      pop\n      pop\n      pop\n      jump\t// out\n        /* \"#utility.yul\":9268:10039   */\n    tag_74:\n        /* \"#utility.yul\":9503:9507   */\n      0x00\n        /* \"#utility.yul\":9541:9544   */\n      0x80\n        /* \"#utility.yul\":9530:9539   */\n      dup3\n        /* \"#utility.yul\":9526:9545   */\n      add\n        /* \"#utility.yul\":9518:9545   */\n      swap1\n      pop\n        /* \"#utility.yul\":9555:9626   */\n      tag_259\n        /* \"#utility.yul\":9623:9624   */\n      0x00\n        /* \"#utility.yul\":9612:9621   */\n      dup4\n        /* \"#utility.yul\":9608:9625   */\n      add\n        /* \"#utility.yul\":9599:9605   */\n      dup10\n        /* \"#utility.yul\":9555:9626   */\n      tag_119\n      jump\t// in\n    tag_259:\n        /* \"#utility.yul\":9673:9682   */\n      dup2\n        /* \"#utility.yul\":9667:9671   */\n      dup2\n        /* \"#utility.yul\":9663:9683   */\n      sub\n        /* \"#utility.yul\":9658:9660   */\n      0x20\n        /* \"#utility.yul\":9647:9656   */\n      dup4\n        /* \"#utility.yul\":9643:9661   */\n      add\n        /* \"#utility.yul\":9636:9684   */\n      mstore\n        /* \"#utility.yul\":9701:9789   */\n      tag_260\n        /* \"#utility.yul\":9784:9788   */\n      dup2\n        /* \"#utility.yul\":9775:9781   */\n      dup8\n        /* \"#utility.yul\":9767:9773   */\n      dup10\n        /* \"#utility.yul\":9701:9789   */\n      tag_141\n      jump\t// in\n    tag_260:\n        /* \"#utility.yul\":9693:9789   */\n      swap1\n      pop\n        /* \"#utility.yul\":9836:9845   */\n      dup2\n        /* \"#utility.yul\":9830:9834   */\n      dup2\n        /* \"#utility.yul\":9826:9846   */\n      sub\n        /* \"#utility.yul\":9821:9823   */\n      0x40\n        /* \"#utility.yul\":9810:9819   */\n      dup4\n        /* \"#utility.yul\":9806:9824   */\n      add\n        /* \"#utility.yul\":9799:9847   */\n      mstore\n        /* \"#utility.yul\":9864:9950   */\n      tag_261\n        /* \"#utility.yul\":9945:9949   */\n      dup2\n        /* \"#utility.yul\":9936:9942   */\n      dup6\n        /* \"#utility.yul\":9928:9934   */\n      dup8\n        /* \"#utility.yul\":9864:9950   */\n      tag_142\n      jump\t// in\n    tag_261:\n        /* \"#utility.yul\":9856:9950   */\n      swap1\n      pop\n        /* \"#utility.yul\":9960:10032   */\n      tag_262\n        /* \"#utility.yul\":10028:10030   */\n      0x60\n        /* \"#utility.yul\":10017:10026   */\n      dup4\n        /* \"#utility.yul\":10013:10031   */\n      add\n        /* \"#utility.yul\":10004:10010   */\n      dup5\n        /* \"#utility.yul\":9960:10032   */\n      tag_119\n      jump\t// in\n    tag_262:\n        /* \"#utility.yul\":9268:10039   */\n      swap8\n      swap7\n      pop\n      pop\n      pop\n      pop\n      pop\n      pop\n      pop\n      jump\t// out\n        /* \"#utility.yul\":10045:10927   */\n    tag_77:\n        /* \"#utility.yul\":10308:10312   */\n      0x00\n        /* \"#utility.yul\":10346:10349   */\n      0xa0\n        /* \"#utility.yul\":10335:10344   */\n      dup3\n        /* \"#utility.yul\":10331:10350   */\n      add\n        /* \"#utility.yul\":10323:10350   */\n      swap1\n      pop\n        /* \"#utility.yul\":10360:10431   */\n      tag_264\n        /* \"#utility.yul\":10428:10429   */\n      0x00\n        /* \"#utility.yul\":10417:10426   */\n      dup4\n        /* \"#utility.yul\":10413:10430   */\n      add\n        /* \"#utility.yul\":10404:10410   */\n      dup11\n        /* \"#utility.yul\":10360:10431   */\n      tag_132\n      jump\t// in\n    tag_264:\n        /* \"#utility.yul\":10441:10513   */\n      tag_265\n        /* \"#utility.yul\":10509:10511   */\n      0x20\n        /* \"#utility.yul\":10498:10507   */\n      dup4\n        /* \"#utility.yul\":10494:10512   */\n      add\n        /* \"#utility.yul\":10485:10491   */\n      dup10\n        /* \"#utility.yul\":10441:10513   */\n      tag_119\n      jump\t// in\n    tag_265:\n        /* \"#utility.yul\":10560:10569   */\n      dup2\n        /* \"#utility.yul\":10554:10558   */\n      dup2\n        /* \"#utility.yul\":10550:10570   */\n      sub\n        /* \"#utility.yul\":10545:10547   */\n      0x40\n        /* \"#utility.yul\":10534:10543   */\n      dup4\n        /* \"#utility.yul\":10530:10548   */\n      add\n        /* \"#utility.yul\":10523:10571   */\n      mstore\n        /* \"#utility.yul\":10588:10676   */\n      tag_266\n        /* \"#utility.yul\":10671:10675   */\n      dup2\n        /* \"#utility.yul\":10662:10668   */\n      dup8\n        /* \"#utility.yul\":10654:10660   */\n      dup10\n        /* \"#utility.yul\":10588:10676   */\n      tag_141\n      jump\t// in\n    tag_266:\n        /* \"#utility.yul\":10580:10676   */\n      swap1\n      pop\n        /* \"#utility.yul\":10723:10732   */\n      dup2\n        /* \"#utility.yul\":10717:10721   */\n      dup2\n        /* \"#utility.yul\":10713:10733   */\n      sub\n        /* \"#utility.yul\":10708:10710   */\n      0x60\n        /* \"#utility.yul\":10697:10706   */\n      dup4\n        /* \"#utility.yul\":10693:10711   */\n      add\n        /* \"#utility.yul\":10686:10734   */\n      mstore\n        /* \"#utility.yul\":10751:10837   */\n      tag_267\n        /* \"#utility.yul\":10832:10836   */\n      dup2\n        /* \"#utility.yul\":10823:10829   */\n      dup6\n        /* \"#utility.yul\":10815:10821   */\n      dup8\n        /* \"#utility.yul\":10751:10837   */\n      tag_142\n      jump\t// in\n    tag_267:\n        /* \"#utility.yul\":10743:10837   */\n      swap1\n      pop\n        /* \"#utility.yul\":10847:10920   */\n      tag_268\n        /* \"#utility.yul\":10915:10918   */\n      0x80\n        /* \"#utility.yul\":10904:10913   */\n      dup4\n        /* \"#utility.yul\":10900:10919   */\n      add\n        /* \"#utility.yul\":10891:10897   */\n      dup5\n        /* \"#utility.yul\":10847:10920   */\n      tag_119\n      jump\t// in\n    tag_268:\n        /* \"#utility.yul\":10045:10927   */\n      swap9\n      swap8\n      pop\n      pop\n      pop\n      pop\n      pop\n      pop\n      pop\n      pop\n      jump\t// out\n        /* \"#utility.yul\":10933:11080   */\n    tag_143:\n        /* \"#utility.yul\":11034:11045   */\n      0x00\n        /* \"#utility.yul\":11071:11074   */\n      dup2\n        /* \"#utility.yul\":11056:11074   */\n      swap1\n      pop\n        /* \"#utility.yul\":10933:11080   */\n      swap3\n      swap2\n      pop\n      pop\n      jump\t// out\n        /* \"#utility.yul\":11108:11435   */\n    tag_144:\n        /* \"#utility.yul\":11222:11225   */\n      0x00\n        /* \"#utility.yul\":11243:11331   */\n      tag_271\n        /* \"#utility.yul\":11324:11330   */\n      dup4\n        /* \"#utility.yul\":11319:11322   */\n      dup6\n        /* \"#utility.yul\":11243:11331   */\n      tag_143\n      jump\t// in\n    tag_271:\n        /* \"#utility.yul\":11236:11331   */\n      swap4\n      pop\n        /* \"#utility.yul\":11341:11397   */\n      tag_272\n        /* \"#utility.yul\":11390:11396   */\n      dup4\n        /* \"#utility.yul\":11385:11388   */\n      dup6\n        /* \"#utility.yul\":11378:11383   */\n      dup5\n        /* \"#utility.yul\":11341:11397   */\n      tag_140\n      jump\t// in\n    tag_272:\n        /* \"#utility.yul\":11422:11428   */\n      dup3\n        /* \"#utility.yul\":11417:11420   */\n      dup5\n        /* \"#utility.yul\":11413:11429   */\n      add\n        /* \"#utility.yul\":11406:11429   */\n      swap1\n      pop\n        /* \"#utility.yul\":11108:11435   */\n      swap4\n      swap3\n      pop\n      pop\n      pop\n      jump\t// out\n        /* \"#utility.yul\":11441:11732   */\n    tag_92:\n        /* \"#utility.yul\":11581:11584   */\n      0x00\n        /* \"#utility.yul\":11603:11706   */\n      tag_274\n        /* \"#utility.yul\":11702:11705   */\n      dup3\n        /* \"#utility.yul\":11693:11699   */\n      dup5\n        /* \"#utility.yul\":11685:11691   */\n      dup7\n        /* \"#utility.yul\":11603:11706   */\n      tag_144\n      jump\t// in\n    tag_274:\n        /* \"#utility.yul\":11596:11706   */\n      swap2\n      pop\n        /* \"#utility.yul\":11723:11726   */\n      dup2\n        /* \"#utility.yul\":11716:11726   */\n      swap1\n      pop\n        /* \"#utility.yul\":11441:11732   */\n      swap4\n      swap3\n      pop\n      pop\n      pop\n      jump\t// out\n        /* \"#utility.yul\":11738:11887   */\n    tag_145:\n        /* \"#utility.yul\":11774:11781   */\n      0x00\n        /* \"#utility.yul\":11814:11880   */\n      0xffffffff00000000000000000000000000000000000000000000000000000000\n        /* \"#utility.yul\":11807:11812   */\n      dup3\n        /* \"#utility.yul\":11803:11881   */\n      and\n        /* \"#utility.yul\":11792:11881   */\n      swap1\n      pop\n        /* \"#utility.yul\":11738:11887   */\n      swap2\n      swap1\n      pop\n      jump\t// out\n        /* \"#utility.yul\":11893:11971   */\n    tag_146:\n        /* \"#utility.yul\":11931:11938   */\n      0x00\n        /* \"#utility.yul\":11960:11965   */\n      dup2\n        /* \"#utility.yul\":11949:11965   */\n      swap1\n      pop\n        /* \"#utility.yul\":11893:11971   */\n      swap2\n      swap1\n      pop\n      jump\t// out\n        /* \"#utility.yul\":11977:12130   */\n    tag_147:\n        /* \"#utility.yul\":12080:12123   */\n      tag_278\n        /* \"#utility.yul\":12099:12122   */\n      tag_279\n        /* \"#utility.yul\":12116:12121   */\n      dup3\n        /* \"#utility.yul\":12099:12122   */\n      tag_145\n      jump\t// in\n    tag_279:\n        /* \"#utility.yul\":12080:12123   */\n      tag_146\n      jump\t// in\n    tag_278:\n        /* \"#utility.yul\":12075:12078   */\n      dup3\n        /* \"#utility.yul\":12068:12124   */\n      mstore\n        /* \"#utility.yul\":11977:12130   */\n      pop\n      pop\n      jump\t// out\n        /* \"#utility.yul\":12136:12563   */\n    tag_94:\n        /* \"#utility.yul\":12302:12305   */\n      0x00\n        /* \"#utility.yul\":12317:12390   */\n      tag_281\n        /* \"#utility.yul\":12386:12389   */\n      dup3\n        /* \"#utility.yul\":12377:12383   */\n      dup7\n        /* \"#utility.yul\":12317:12390   */\n      tag_147\n      jump\t// in\n    tag_281:\n        /* \"#utility.yul\":12415:12416   */\n      0x04\n        /* \"#utility.yul\":12410:12413   */\n      dup3\n        /* \"#utility.yul\":12406:12417   */\n      add\n        /* \"#utility.yul\":12399:12417   */\n      swap2\n      pop\n        /* \"#utility.yul\":12434:12537   */\n      tag_282\n        /* \"#utility.yul\":12533:12536   */\n      dup3\n        /* \"#utility.yul\":12524:12530   */\n      dup5\n        /* \"#utility.yul\":12516:12522   */\n      dup7\n        /* \"#utility.yul\":12434:12537   */\n      tag_144\n      jump\t// in\n    tag_282:\n        /* \"#utility.yul\":12427:12537   */\n      swap2\n      pop\n        /* \"#utility.yul\":12554:12557   */\n      dup2\n        /* \"#utility.yul\":12547:12557   */\n      swap1\n      pop\n        /* \"#utility.yul\":12136:12563   */\n      swap5\n      swap4\n      pop\n      pop\n      pop\n      pop\n      jump\t// out\n        /* \"#utility.yul\":12569:12955   */\n    tag_148:\n        /* \"#utility.yul\":12673:12676   */\n      0x00\n        /* \"#utility.yul\":12701:12739   */\n      tag_284\n        /* \"#utility.yul\":12733:12738   */\n      dup3\n        /* \"#utility.yul\":12701:12739   */\n      tag_133\n      jump\t// in\n    tag_284:\n        /* \"#utility.yul\":12755:12843   */\n      tag_285\n        /* \"#utility.yul\":12836:12842   */\n      dup2\n        /* \"#utility.yul\":12831:12834   */\n      dup6\n        /* \"#utility.yul\":12755:12843   */\n      tag_143\n      jump\t// in\n    tag_285:\n        /* \"#utility.yul\":12748:12843   */\n      swap4\n      pop\n        /* \"#utility.yul\":12852:12917   */\n      tag_286\n        /* \"#utility.yul\":12910:12916   */\n      dup2\n        /* \"#utility.yul\":12905:12908   */\n      dup6\n        /* \"#utility.yul\":12898:12902   */\n      0x20\n        /* \"#utility.yul\":12891:12896   */\n      dup7\n        /* \"#utility.yul\":12887:12903   */\n      add\n        /* \"#utility.yul\":12852:12917   */\n      tag_135\n      jump\t// in\n    tag_286:\n        /* \"#utility.yul\":12942:12948   */\n      dup1\n        /* \"#utility.yul\":12937:12940   */\n      dup5\n        /* \"#utility.yul\":12933:12949   */\n      add\n        /* \"#utility.yul\":12926:12949   */\n      swap2\n      pop\n        /* \"#utility.yul\":12677:12955   */\n      pop\n        /* \"#utility.yul\":12569:12955   */\n      swap3\n      swap2\n      pop\n      pop\n      jump\t// out\n        /* \"#utility.yul\":12961:13232   */\n    tag_97:\n        /* \"#utility.yul\":13091:13094   */\n      0x00\n        /* \"#utility.yul\":13113:13206   */\n      tag_288\n        /* \"#utility.yul\":13202:13205   */\n      dup3\n        /* \"#utility.yul\":13193:13199   */\n      dup5\n        /* \"#utility.yul\":13113:13206   */\n      tag_148\n      jump\t// in\n    tag_288:\n        /* \"#utility.yul\":13106:13206   */\n      swap2\n      pop\n        /* \"#utility.yul\":13223:13226   */\n      dup2\n        /* \"#utility.yul\":13216:13226   */\n      swap1\n      pop\n        /* \"#utility.yul\":12961:13232   */\n      swap3\n      swap2\n      pop\n      pop\n      jump\t// out\n        /* \"#utility.yul\":13238:13402   */\n    tag_149:\n        /* \"#utility.yul\":13378:13394   */\n      0x73756363657373206661696c6564000000000000000000000000000000000000\n        /* \"#utility.yul\":13374:13375   */\n      0x00\n        /* \"#utility.yul\":13366:13372   */\n      dup3\n        /* \"#utility.yul\":13362:13376   */\n      add\n        /* \"#utility.yul\":13355:13395   */\n      mstore\n        /* \"#utility.yul\":13238:13402   */\n      pop\n      jump\t// out\n        /* \"#utility.yul\":13408:13774   */\n    tag_150:\n        /* \"#utility.yul\":13550:13553   */\n      0x00\n        /* \"#utility.yul\":13571:13638   */\n      tag_291\n        /* \"#utility.yul\":13635:13637   */\n      0x0e\n        /* \"#utility.yul\":13630:13633   */\n      dup4\n        /* \"#utility.yul\":13571:13638   */\n      tag_139\n      jump\t// in\n    tag_291:\n        /* \"#utility.yul\":13564:13638   */\n      swap2\n      pop\n        /* \"#utility.yul\":13647:13740   */\n      tag_292\n        /* \"#utility.yul\":13736:13739   */\n      dup3\n        /* \"#utility.yul\":13647:13740   */\n      tag_149\n      jump\t// in\n    tag_292:\n        /* \"#utility.yul\":13765:13767   */\n      0x20\n        /* \"#utility.yul\":13760:13763   */\n      dup3\n        /* \"#utility.yul\":13756:13768   */\n      add\n        /* \"#utility.yul\":13749:13768   */\n      swap1\n      pop\n        /* \"#utility.yul\":13408:13774   */\n      swap2\n      swap1\n      pop\n      jump\t// out\n        /* \"#utility.yul\":13780:14199   */\n    tag_103:\n        /* \"#utility.yul\":13946:13950   */\n      0x00\n        /* \"#utility.yul\":13984:13986   */\n      0x20\n        /* \"#utility.yul\":13973:13982   */\n      dup3\n        /* \"#utility.yul\":13969:13987   */\n      add\n        /* \"#utility.yul\":13961:13987   */\n      swap1\n      pop\n        /* \"#utility.yul\":14033:14042   */\n      dup2\n        /* \"#utility.yul\":14027:14031   */\n      dup2\n        /* \"#utility.yul\":14023:14043   */\n      sub\n        /* \"#utility.yul\":14019:14020   */\n      0x00\n        /* \"#utility.yul\":14008:14017   */\n      dup4\n        /* \"#utility.yul\":14004:14021   */\n      add\n        /* \"#utility.yul\":13997:14044   */\n      mstore\n        /* \"#utility.yul\":14061:14192   */\n      tag_294\n        /* \"#utility.yul\":14187:14191   */\n      dup2\n        /* \"#utility.yul\":14061:14192   */\n      tag_150\n      jump\t// in\n    tag_294:\n        /* \"#utility.yul\":14053:14192   */\n      swap1\n      pop\n        /* \"#utility.yul\":13780:14199   */\n      swap2\n      swap1\n      pop\n      jump\t// out\n\n    auxdata: 0xa26469706673582212203311bd474a93450039688fd05ceb9d895e391044d1cf188fa5d76148677067f964736f6c63430008120033\n}\n",
				"bytecode": {
					"linkReferences": {},
					"object": "608060405234801561001057600080fd5b50336000806101000a81548173ffffffffffffffffffffffffffffffffffffffff021916908373ffffffffffffffffffffffffffffffffffffffff1602179055506110d8806100606000396000f3fe60806040526004361061008a5760003560e01c80638da5cb5b116100595780638da5cb5b146101645780639f81aed71461018f578063b0f8b142146101ba578063c1a287e2146101ea578063c4d252f51461021557610091565b8063228250c9146100965780634125ff90146100d35780634b9915a5146100fe5780638a1ce0b61461012757610091565b3661009157005b600080fd5b3480156100a257600080fd5b506100bd60048036038101906100b891906109ce565b61023e565b6040516100ca9190610a16565b60405180910390f35b3480156100df57600080fd5b506100e861025e565b6040516100f59190610a4a565b60405180910390f35b34801561010a57600080fd5b5061012560048036038101906101209190610baa565b610264565b005b34801561013357600080fd5b5061014e60048036038101906101499190610baa565b610457565b60405161015b9190610c75565b60405180910390f35b34801561017057600080fd5b50610179610499565b6040516101869190610c9f565b60405180910390f35b34801561019b57600080fd5b506101a46104bd565b6040516101b19190610a4a565b60405180910390f35b6101d460048036038101906101cf9190610baa565b6104c2565b6040516101e19190610d4a565b60405180910390f35b3480156101f657600080fd5b506101ff610845565b60405161020c9190610a4a565b60405180910390f35b34801561022157600080fd5b5061023c600480360381019061023791906109ce565b61084b565b005b60016020528060005260406000206000915054906101000a900460ff1681565b6103e881565b60008054906101000a900473ffffffffffffffffffffffffffffffffffffffff1673ffffffffffffffffffffffffffffffffffffffff163373ffffffffffffffffffffffffffffffffffffffff16146102e9576040517f74a2152700000000000000000000000000000000000000000000000000000000815260040160405180910390fd5b60006102fa88888888888888610457565b90506001600082815260200190815260200160002060009054906101000a900460ff161561035f57806040517f995042be0000000000000000000000000000000000000000000000000000000081526004016103569190610c75565b60405180910390fd5b600a4261036c9190610d9b565b82108061038557506103e8426103829190610d9b565b82115b156103c95742826040517f780935000000000000000000000000000000000000000000000000000000000081526004016103c0929190610dcf565b60405180910390fd5b600180600083815260200190815260200160002060006101000a81548160ff0219169083151502179055508773ffffffffffffffffffffffffffffffffffffffff16817f3c22f47140594040d205a5533cfedd86c9ab8622c39ead03affb2d97052c794c89898989898960405161044596959493929190610e72565b60405180910390a35050505050505050565b6000878787878787876040516020016104769796959493929190610ec9565b604051602081830303815290604052805190602001209050979650505050505050565b60008054906101000a900473ffffffffffffffffffffffffffffffffffffffff1681565b600a81565b606060008054906101000a900473ffffffffffffffffffffffffffffffffffffffff1673ffffffffffffffffffffffffffffffffffffffff163373ffffffffffffffffffffffffffffffffffffffff1614610549576040517f74a2152700000000000000000000000000000000000000000000000000000000815260040160405180910390fd5b600061055a89898989898989610457565b90506001600082815260200190815260200160002060009054906101000a900460ff166105be57806040517f0995c9d50000000000000000000000000000000000000000000000000000000081526004016105b59190610c75565b60405180910390fd5b824210156106055742836040517fcb6572b20000000000000000000000000000000000000000000000000000000081526004016105fc929190610dcf565b60405180910390fd5b6103e8836106139190610d9b565b42111561066657426103e8846106299190610d9b565b6040517f34a6744900000000000000000000000000000000000000000000000000000000815260040161065d929190610dcf565b60405180910390fd5b60006001600083815260200190815260200160002060006101000a81548160ff021916908315150217905550606060008888905011156106e25787876040516106b0929190610f5e565b604051809103902086866040516020016106cc93929190610fc4565b604051602081830303815290604052905061072a565b85858080601f016020809104026020016040519081016040528093929190818152602001838380828437600081840152601f19601f8201169050808301925050505050505090505b6000808b73ffffffffffffffffffffffffffffffffffffffff168b84604051610753919061101f565b60006040518083038185875af1925050503d8060008114610790576040519150601f19603f3d011682016040523d82523d6000602084013e610795565b606091505b5091509150816107da576040517f08c379a00000000000000000000000000000000000000000000000000000000081526004016107d190611082565b60405180910390fd5b8b73ffffffffffffffffffffffffffffffffffffffff16847fd1d5c3c892c18716bd88852091d1b63dc6849e9d7c37f69d566884bf954d4bd98d8d8d8d8d8d60405161082b96959493929190610e72565b60405180910390a380945050505050979650505050505050565b6103e881565b60008054906101000a900473ffffffffffffffffffffffffffffffffffffffff1673ffffffffffffffffffffffffffffffffffffffff163373ffffffffffffffffffffffffffffffffffffffff16146108d0576040517f74a2152700000000000000000000000000000000000000000000000000000000815260040160405180910390fd5b6001600082815260200190815260200160002060009054906101000a900460ff1661093257806040517f0995c9d50000000000000000000000000000000000000000000000000000000081526004016109299190610c75565b60405180910390fd5b60006001600083815260200190815260200160002060006101000a81548160ff021916908315150217905550807fe8d9861dbc9c663ed3accd261bbe2fe01e0d3d9e5f51fa38523b265c7757a93a60405160405180910390a250565b600080fd5b600080fd5b6000819050919050565b6109ab81610998565b81146109b657600080fd5b50565b6000813590506109c8816109a2565b92915050565b6000602082840312156109e4576109e361098e565b5b60006109f2848285016109b9565b91505092915050565b60008115159050919050565b610a10816109fb565b82525050565b6000602082019050610a2b6000830184610a07565b92915050565b6000819050919050565b610a4481610a31565b82525050565b6000602082019050610a5f6000830184610a3b565b92915050565b600073ffffffffffffffffffffffffffffffffffffffff82169050919050565b6000610a9082610a65565b9050919050565b610aa081610a85565b8114610aab57600080fd5b50565b600081359050610abd81610a97565b92915050565b610acc81610a31565b8114610ad757600080fd5b50565b600081359050610ae981610ac3565b92915050565b600080fd5b600080fd5b600080fd5b60008083601f840112610b1457610b13610aef565b5b8235905067ffffffffffffffff811115610b3157610b30610af4565b5b602083019150836001820283011115610b4d57610b4c610af9565b5b9250929050565b60008083601f840112610b6a57610b69610aef565b5b8235905067ffffffffffffffff811115610b8757610b86610af4565b5b602083019150836001820283011115610ba357610ba2610af9565b5b9250929050565b600080600080600080600060a0888a031215610bc957610bc861098e565b5b6000610bd78a828b01610aae565b9750506020610be88a828b01610ada565b965050604088013567ffffffffffffffff811115610c0957610c08610993565b5b610c158a828b01610afe565b9550955050606088013567ffffffffffffffff811115610c3857610c37610993565b5b610c448a828b01610b54565b93509350506080610c578a828b01610ada565b91505092959891949750929550565b610c6f81610998565b82525050565b6000602082019050610c8a6000830184610c66565b92915050565b610c9981610a85565b82525050565b6000602082019050610cb46000830184610c90565b92915050565b600081519050919050565b600082825260208201905092915050565b60005b83811015610cf4578082015181840152602081019050610cd9565b60008484015250505050565b6000601f19601f8301169050919050565b6000610d1c82610cba565b610d268185610cc5565b9350610d36818560208601610cd6565b610d3f81610d00565b840191505092915050565b60006020820190508181036000830152610d648184610d11565b905092915050565b7f4e487b7100000000000000000000000000000000000000000000000000000000600052601160045260246000fd5b6000610da682610a31565b9150610db183610a31565b9250828201905080821115610dc957610dc8610d6c565b5b92915050565b6000604082019050610de46000830185610a3b565b610df16020830184610a3b565b9392505050565b600082825260208201905092915050565b82818337600083830152505050565b6000610e248385610df8565b9350610e31838584610e09565b610e3a83610d00565b840190509392505050565b6000610e518385610cc5565b9350610e5e838584610e09565b610e6783610d00565b840190509392505050565b6000608082019050610e876000830189610a3b565b8181036020830152610e9a818789610e18565b90508181036040830152610eaf818587610e45565b9050610ebe6060830184610a3b565b979650505050505050565b600060a082019050610ede600083018a610c90565b610eeb6020830189610a3b565b8181036040830152610efe818789610e18565b90508181036060830152610f13818587610e45565b9050610f226080830184610a3b565b98975050505050505050565b600081905092915050565b6000610f458385610f2e565b9350610f52838584610e09565b82840190509392505050565b6000610f6b828486610f39565b91508190509392505050565b60007fffffffff0000000000000000000000000000000000000000000000000000000082169050919050565b6000819050919050565b610fbe610fb982610f77565b610fa3565b82525050565b6000610fd08286610fad565b600482019150610fe1828486610f39565b9150819050949350505050565b6000610ff982610cba565b6110038185610f2e565b9350611013818560208601610cd6565b80840191505092915050565b600061102b8284610fee565b915081905092915050565b7f73756363657373206661696c6564000000000000000000000000000000000000600082015250565b600061106c600e83610df8565b915061107782611036565b602082019050919050565b6000602082019050818103600083015261109b8161105f565b905091905056fea26469706673582212203311bd474a93450039688fd05ceb9d895e391044d1cf188fa5d76148677067f964736f6c63430008120033",
					"opcodes": "PUSH1 0x80 PUSH1 0x40 MSTORE CALLVALUE DUP1 ISZERO PUSH2 0x10 JUMPI PUSH1 0x0 DUP1 REVERT JUMPDEST POP CALLER PUSH1 0x0 DUP1 PUSH2 0x100 EXP DUP2 SLOAD DUP2 PUSH20 0xFFFFFFFFFFFFFFFFFFFFFFFFFFFFFFFFFFFFFFFF MUL NOT AND SWAP1 DUP4 PUSH20 0xFFFFFFFFFFFFFFFFFFFFFFFFFFFFFFFFFFFFFFFF AND MUL OR SWAP1 SSTORE POP PUSH2 0x10D8 DUP1 PUSH2 0x60 PUSH1 0x0 CODECOPY PUSH1 0x0 RETURN INVALID PUSH1 0x80 PUSH1 0x40 MSTORE PUSH1 0x4 CALLDATASIZE LT PUSH2 0x8A JUMPI PUSH1 0x0 CALLDATALOAD PUSH1 0xE0 SHR DUP1 PUSH4 0x8DA5CB5B GT PUSH2 0x59 JUMPI DUP1 PUSH4 0x8DA5CB5B EQ PUSH2 0x164 JUMPI DUP1 PUSH4 0x9F81AED7 EQ PUSH2 0x18F JUMPI DUP1 PUSH4 0xB0F8B142 EQ PUSH2 0x1BA JUMPI DUP1 PUSH4 0xC1A287E2 EQ PUSH2 0x1EA JUMPI DUP1 PUSH4 0xC4D252F5 EQ PUSH2 0x215 JUMPI PUSH2 0x91 JUMP JUMPDEST DUP1 PUSH4 0x228250C9 EQ PUSH2 0x96 JUMPI DUP1 PUSH4 0x4125FF90 EQ PUSH2 0xD3 JUMPI DUP1 PUSH4 0x4B9915A5 EQ PUSH2 0xFE JUMPI DUP1 PUSH4 0x8A1CE0B6 EQ PUSH2 0x127 JUMPI PUSH2 0x91 JUMP JUMPDEST CALLDATASIZE PUSH2 0x91 JUMPI STOP JUMPDEST PUSH1 0x0 DUP1 REVERT JUMPDEST CALLVALUE DUP1 ISZERO PUSH2 0xA2 JUMPI PUSH1 0x0 DUP1 REVERT JUMPDEST POP PUSH2 0xBD PUSH1 0x4 DUP1 CALLDATASIZE SUB DUP2 ADD SWAP1 PUSH2 0xB8 SWAP2 SWAP1 PUSH2 0x9CE JUMP JUMPDEST PUSH2 0x23E JUMP JUMPDEST PUSH1 0x40 MLOAD PUSH2 0xCA SWAP2 SWAP1 PUSH2 0xA16 JUMP JUMPDEST PUSH1 0x40 MLOAD DUP1 SWAP2 SUB SWAP1 RETURN JUMPDEST CALLVALUE DUP1 ISZERO PUSH2 0xDF JUMPI PUSH1 0x0 DUP1 REVERT JUMPDEST POP PUSH2 0xE8 PUSH2 0x25E JUMP JUMPDEST PUSH1 0x40 MLOAD PUSH2 0xF5 SWAP2 SWAP1 PUSH2 0xA4A JUMP JUMPDEST PUSH1 0x40 MLOAD DUP1 SWAP2 SUB SWAP1 RETURN JUMPDEST CALLVALUE DUP1 ISZERO PUSH2 0x10A JUMPI PUSH1 0x0 DUP1 REVERT JUMPDEST POP PUSH2 0x125 PUSH1 0x4 DUP1 CALLDATASIZE SUB DUP2 ADD SWAP1 PUSH2 0x120 SWAP2 SWAP1 PUSH2 0xBAA JUMP JUMPDEST PUSH2 0x264 JUMP JUMPDEST STOP JUMPDEST CALLVALUE DUP1 ISZERO PUSH2 0x133 JUMPI PUSH1 0x0 DUP1 REVERT JUMPDEST POP PUSH2 0x14E PUSH1 0x4 DUP1 CALLDATASIZE SUB DUP2 ADD SWAP1 PUSH2 0x149 SWAP2 SWAP1 PUSH2 0xBAA JUMP JUMPDEST PUSH2 0x457 JUMP JUMPDEST PUSH1 0x40 MLOAD PUSH2 0x15B SWAP2 SWAP1 PUSH2 0xC75 JUMP JUMPDEST PUSH1 0x40 MLOAD DUP1 SWAP2 SUB SWAP1 RETURN JUMPDEST CALLVALUE DUP1 ISZERO PUSH2 0x170 JUMPI PUSH1 0x0 DUP1 REVERT JUMPDEST POP PUSH2 0x179 PUSH2 0x499 JUMP JUMPDEST PUSH1 0x40 MLOAD PUSH2 0x186 SWAP2 SWAP1 PUSH2 0xC9F JUMP JUMPDEST PUSH1 0x40 MLOAD DUP1 SWAP2 SUB SWAP1 RETURN JUMPDEST CALLVALUE DUP1 ISZERO PUSH2 0x19B JUMPI PUSH1 0x0 DUP1 REVERT JUMPDEST POP PUSH2 0x1A4 PUSH2 0x4BD JUMP JUMPDEST PUSH1 0x40 MLOAD PUSH2 0x1B1 SWAP2 SWAP1 PUSH2 0xA4A JUMP JUMPDEST PUSH1 0x40 MLOAD DUP1 SWAP2 SUB SWAP1 RETURN JUMPDEST PUSH2 0x1D4 PUSH1 0x4 DUP1 CALLDATASIZE SUB DUP2 ADD SWAP1 PUSH2 0x1CF SWAP2 SWAP1 PUSH2 0xBAA JUMP JUMPDEST PUSH2 0x4C2 JUMP JUMPDEST PUSH1 0x40 MLOAD PUSH2 0x1E1 SWAP2 SWAP1 PUSH2 0xD4A JUMP JUMPDEST PUSH1 0x40 MLOAD DUP1 SWAP2 SUB SWAP1 RETURN JUMPDEST CALLVALUE DUP1 ISZERO PUSH2 0x1F6 JUMPI PUSH1 0x0 DUP1 REVERT JUMPDEST POP PUSH2 0x1FF PUSH2 0x845 JUMP JUMPDEST PUSH1 0x40 MLOAD PUSH2 0x20C SWAP2 SWAP1 PUSH2 0xA4A JUMP JUMPDEST PUSH1 0x40 MLOAD DUP1 SWAP2 SUB SWAP1 RETURN JUMPDEST CALLVALUE DUP1 ISZERO PUSH2 0x221 JUMPI PUSH1 0x0 DUP1 REVERT JUMPDEST POP PUSH2 0x23C PUSH1 0x4 DUP1 CALLDATASIZE SUB DUP2 ADD SWAP1 PUSH2 0x237 SWAP2 SWAP1 PUSH2 0x9CE JUMP JUMPDEST PUSH2 0x84B JUMP JUMPDEST STOP JUMPDEST PUSH1 0x1 PUSH1 0x20 MSTORE DUP1 PUSH1 0x0 MSTORE PUSH1 0x40 PUSH1 0x0 KECCAK256 PUSH1 0x0 SWAP2 POP SLOAD SWAP1 PUSH2 0x100 EXP SWAP1 DIV PUSH1 0xFF AND DUP2 JUMP JUMPDEST PUSH2 0x3E8 DUP2 JUMP JUMPDEST PUSH1 0x0 DUP1 SLOAD SWAP1 PUSH2 0x100 EXP SWAP1 DIV PUSH20 0xFFFFFFFFFFFFFFFFFFFFFFFFFFFFFFFFFFFFFFFF AND PUSH20 0xFFFFFFFFFFFFFFFFFFFFFFFFFFFFFFFFFFFFFFFF AND CALLER PUSH20 0xFFFFFFFFFFFFFFFFFFFFFFFFFFFFFFFFFFFFFFFF AND EQ PUSH2 0x2E9 JUMPI PUSH1 0x40 MLOAD PUSH32 0x74A2152700000000000000000000000000000000000000000000000000000000 DUP2 MSTORE PUSH1 0x4 ADD PUSH1 0x40 MLOAD DUP1 SWAP2 SUB SWAP1 REVERT JUMPDEST PUSH1 0x0 PUSH2 0x2FA DUP9 DUP9 DUP9 DUP9 DUP9 DUP9 DUP9 PUSH2 0x457 JUMP JUMPDEST SWAP1 POP PUSH1 0x1 PUSH1 0x0 DUP3 DUP2 MSTORE PUSH1 0x20 ADD SWAP1 DUP2 MSTORE PUSH1 0x20 ADD PUSH1 0x0 KECCAK256 PUSH1 0x0 SWAP1 SLOAD SWAP1 PUSH2 0x100 EXP SWAP1 DIV PUSH1 0xFF AND ISZERO PUSH2 0x35F JUMPI DUP1 PUSH1 0x40 MLOAD PUSH32 0x995042BE00000000000000000000000000000000000000000000000000000000 DUP2 MSTORE PUSH1 0x4 ADD PUSH2 0x356 SWAP2 SWAP1 PUSH2 0xC75 JUMP JUMPDEST PUSH1 0x40 MLOAD DUP1 SWAP2 SUB SWAP1 REVERT JUMPDEST PUSH1 0xA TIMESTAMP PUSH2 0x36C SWAP2 SWAP1 PUSH2 0xD9B JUMP JUMPDEST DUP3 LT DUP1 PUSH2 0x385 JUMPI POP PUSH2 0x3E8 TIMESTAMP PUSH2 0x382 SWAP2 SWAP1 PUSH2 0xD9B JUMP JUMPDEST DUP3 GT JUMPDEST ISZERO PUSH2 0x3C9 JUMPI TIMESTAMP DUP3 PUSH1 0x40 MLOAD PUSH32 0x7809350000000000000000000000000000000000000000000000000000000000 DUP2 MSTORE PUSH1 0x4 ADD PUSH2 0x3C0 SWAP3 SWAP2 SWAP1 PUSH2 0xDCF JUMP JUMPDEST PUSH1 0x40 MLOAD DUP1 SWAP2 SUB SWAP1 REVERT JUMPDEST PUSH1 0x1 DUP1 PUSH1 0x0 DUP4 DUP2 MSTORE PUSH1 0x20 ADD SWAP1 DUP2 MSTORE PUSH1 0x20 ADD PUSH1 0x0 KECCAK256 PUSH1 0x0 PUSH2 0x100 EXP DUP2 SLOAD DUP2 PUSH1 0xFF MUL NOT AND SWAP1 DUP4 ISZERO ISZERO MUL OR SWAP1 SSTORE POP DUP8 PUSH20 0xFFFFFFFFFFFFFFFFFFFFFFFFFFFFFFFFFFFFFFFF AND DUP2 PUSH32 0x3C22F47140594040D205A5533CFEDD86C9AB8622C39EAD03AFFB2D97052C794C DUP10 DUP10 DUP10 DUP10 DUP10 DUP10 PUSH1 0x40 MLOAD PUSH2 0x445 SWAP7 SWAP6 SWAP5 SWAP4 SWAP3 SWAP2 SWAP1 PUSH2 0xE72 JUMP JUMPDEST PUSH1 0x40 MLOAD DUP1 SWAP2 SUB SWAP1 LOG3 POP POP POP POP POP POP POP POP JUMP JUMPDEST PUSH1 0x0 DUP8 DUP8 DUP8 DUP8 DUP8 DUP8 DUP8 PUSH1 0x40 MLOAD PUSH1 0x20 ADD PUSH2 0x476 SWAP8 SWAP7 SWAP6 SWAP5 SWAP4 SWAP3 SWAP2 SWAP1 PUSH2 0xEC9 JUMP JUMPDEST PUSH1 0x40 MLOAD PUSH1 0x20 DUP2 DUP4 SUB SUB DUP2 MSTORE SWAP1 PUSH1 0x40 MSTORE DUP1 MLOAD SWAP1 PUSH1 0x20 ADD KECCAK256 SWAP1 POP SWAP8 SWAP7 POP POP POP POP POP POP POP JUMP JUMPDEST PUSH1 0x0 DUP1 SLOAD SWAP1 PUSH2 0x100 EXP SWAP1 DIV PUSH20 0xFFFFFFFFFFFFFFFFFFFFFFFFFFFFFFFFFFFFFFFF AND DUP2 JUMP JUMPDEST PUSH1 0xA DUP2 JUMP JUMPDEST PUSH1 0x60 PUSH1 0x0 DUP1 SLOAD SWAP1 PUSH2 0x100 EXP SWAP1 DIV PUSH20 0xFFFFFFFFFFFFFFFFFFFFFFFFFFFFFFFFFFFFFFFF AND PUSH20 0xFFFFFFFFFFFFFFFFFFFFFFFFFFFFFFFFFFFFFFFF AND CALLER PUSH20 0xFFFFFFFFFFFFFFFFFFFFFFFFFFFFFFFFFFFFFFFF AND EQ PUSH2 0x549 JUMPI PUSH1 0x40 MLOAD PUSH32 0x74A2152700000000000000000000000000000000000000000000000000000000 DUP2 MSTORE PUSH1 0x4 ADD PUSH1 0x40 MLOAD DUP1 SWAP2 SUB SWAP1 REVERT JUMPDEST PUSH1 0x0 PUSH2 0x55A DUP10 DUP10 DUP10 DUP10 DUP10 DUP10 DUP10 PUSH2 0x457 JUMP JUMPDEST SWAP1 POP PUSH1 0x1 PUSH1 0x0 DUP3 DUP2 MSTORE PUSH1 0x20 ADD SWAP1 DUP2 MSTORE PUSH1 0x20 ADD PUSH1 0x0 KECCAK256 PUSH1 0x0 SWAP1 SLOAD SWAP1 PUSH2 0x100 EXP SWAP1 DIV PUSH1 0xFF AND PUSH2 0x5BE JUMPI DUP1 PUSH1 0x40 MLOAD PUSH32 0x995C9D500000000000000000000000000000000000000000000000000000000 DUP2 MSTORE PUSH1 0x4 ADD PUSH2 0x5B5 SWAP2 SWAP1 PUSH2 0xC75 JUMP JUMPDEST PUSH1 0x40 MLOAD DUP1 SWAP2 SUB SWAP1 REVERT JUMPDEST DUP3 TIMESTAMP LT ISZERO PUSH2 0x605 JUMPI TIMESTAMP DUP4 PUSH1 0x40 MLOAD PUSH32 0xCB6572B200000000000000000000000000000000000000000000000000000000 DUP2 MSTORE PUSH1 0x4 ADD PUSH2 0x5FC SWAP3 SWAP2 SWAP1 PUSH2 0xDCF JUMP JUMPDEST PUSH1 0x40 MLOAD DUP1 SWAP2 SUB SWAP1 REVERT JUMPDEST PUSH2 0x3E8 DUP4 PUSH2 0x613 SWAP2 SWAP1 PUSH2 0xD9B JUMP JUMPDEST TIMESTAMP GT ISZERO PUSH2 0x666 JUMPI TIMESTAMP PUSH2 0x3E8 DUP5 PUSH2 0x629 SWAP2 SWAP1 PUSH2 0xD9B JUMP JUMPDEST PUSH1 0x40 MLOAD PUSH32 0x34A6744900000000000000000000000000000000000000000000000000000000 DUP2 MSTORE PUSH1 0x4 ADD PUSH2 0x65D SWAP3 SWAP2 SWAP1 PUSH2 0xDCF JUMP JUMPDEST PUSH1 0x40 MLOAD DUP1 SWAP2 SUB SWAP1 REVERT JUMPDEST PUSH1 0x0 PUSH1 0x1 PUSH1 0x0 DUP4 DUP2 MSTORE PUSH1 0x20 ADD SWAP1 DUP2 MSTORE PUSH1 0x20 ADD PUSH1 0x0 KECCAK256 PUSH1 0x0 PUSH2 0x100 EXP DUP2 SLOAD DUP2 PUSH1 0xFF MUL NOT AND SWAP1 DUP4 ISZERO ISZERO MUL OR SWAP1 SSTORE POP PUSH1 0x60 PUSH1 0x0 DUP9 DUP9 SWAP1 POP GT ISZERO PUSH2 0x6E2 JUMPI DUP8 DUP8 PUSH1 0x40 MLOAD PUSH2 0x6B0 SWAP3 SWAP2 SWAP1 PUSH2 0xF5E JUMP JUMPDEST PUSH1 0x40 MLOAD DUP1 SWAP2 SUB SWAP1 KECCAK256 DUP7 DUP7 PUSH1 0x40 MLOAD PUSH1 0x20 ADD PUSH2 0x6CC SWAP4 SWAP3 SWAP2 SWAP1 PUSH2 0xFC4 JUMP JUMPDEST PUSH1 0x40 MLOAD PUSH1 0x20 DUP2 DUP4 SUB SUB DUP2 MSTORE SWAP1 PUSH1 0x40 MSTORE SWAP1 POP PUSH2 0x72A JUMP JUMPDEST DUP6 DUP6 DUP1 DUP1 PUSH1 0x1F ADD PUSH1 0x20 DUP1 SWAP2 DIV MUL PUSH1 0x20 ADD PUSH1 0x40 MLOAD SWAP1 DUP2 ADD PUSH1 0x40 MSTORE DUP1 SWAP4 SWAP3 SWAP2 SWAP1 DUP2 DUP2 MSTORE PUSH1 0x20 ADD DUP4 DUP4 DUP1 DUP3 DUP5 CALLDATACOPY PUSH1 0x0 DUP2 DUP5 ADD MSTORE PUSH1 0x1F NOT PUSH1 0x1F DUP3 ADD AND SWAP1 POP DUP1 DUP4 ADD SWAP3 POP POP POP POP POP POP POP SWAP1 POP JUMPDEST PUSH1 0x0 DUP1 DUP12 PUSH20 0xFFFFFFFFFFFFFFFFFFFFFFFFFFFFFFFFFFFFFFFF AND DUP12 DUP5 PUSH1 0x40 MLOAD PUSH2 0x753 SWAP2 SWAP1 PUSH2 0x101F JUMP JUMPDEST PUSH1 0x0 PUSH1 0x40 MLOAD DUP1 DUP4 SUB DUP2 DUP6 DUP8 GAS CALL SWAP3 POP POP POP RETURNDATASIZE DUP1 PUSH1 0x0 DUP2 EQ PUSH2 0x790 JUMPI PUSH1 0x40 MLOAD SWAP2 POP PUSH1 0x1F NOT PUSH1 0x3F RETURNDATASIZE ADD AND DUP3 ADD PUSH1 0x40 MSTORE RETURNDATASIZE DUP3 MSTORE RETURNDATASIZE PUSH1 0x0 PUSH1 0x20 DUP5 ADD RETURNDATACOPY PUSH2 0x795 JUMP JUMPDEST PUSH1 0x60 SWAP2 POP JUMPDEST POP SWAP2 POP SWAP2 POP DUP2 PUSH2 0x7DA JUMPI PUSH1 0x40 MLOAD PUSH32 0x8C379A000000000000000000000000000000000000000000000000000000000 DUP2 MSTORE PUSH1 0x4 ADD PUSH2 0x7D1 SWAP1 PUSH2 0x1082 JUMP JUMPDEST PUSH1 0x40 MLOAD DUP1 SWAP2 SUB SWAP1 REVERT JUMPDEST DUP12 PUSH20 0xFFFFFFFFFFFFFFFFFFFFFFFFFFFFFFFFFFFFFFFF AND DUP5 PUSH32 0xD1D5C3C892C18716BD88852091D1B63DC6849E9D7C37F69D566884BF954D4BD9 DUP14 DUP14 DUP14 DUP14 DUP14 DUP14 PUSH1 0x40 MLOAD PUSH2 0x82B SWAP7 SWAP6 SWAP5 SWAP4 SWAP3 SWAP2 SWAP1 PUSH2 0xE72 JUMP JUMPDEST PUSH1 0x40 MLOAD DUP1 SWAP2 SUB SWAP1 LOG3 DUP1 SWAP5 POP POP POP POP POP SWAP8 SWAP7 POP POP POP POP POP POP POP JUMP JUMPDEST PUSH2 0x3E8 DUP2 JUMP JUMPDEST PUSH1 0x0 DUP1 SLOAD SWAP1 PUSH2 0x100 EXP SWAP1 DIV PUSH20 0xFFFFFFFFFFFFFFFFFFFFFFFFFFFFFFFFFFFFFFFF AND PUSH20 0xFFFFFFFFFFFFFFFFFFFFFFFFFFFFFFFFFFFFFFFF AND CALLER PUSH20 0xFFFFFFFFFFFFFFFFFFFFFFFFFFFFFFFFFFFFFFFF AND EQ PUSH2 0x8D0 JUMPI PUSH1 0x40 MLOAD PUSH32 0x74A2152700000000000000000000000000000000000000000000000000000000 DUP2 MSTORE PUSH1 0x4 ADD PUSH1 0x40 MLOAD DUP1 SWAP2 SUB SWAP1 REVERT JUMPDEST PUSH1 0x1 PUSH1 0x0 DUP3 DUP2 MSTORE PUSH1 0x20 ADD SWAP1 DUP2 MSTORE PUSH1 0x20 ADD PUSH1 0x0 KECCAK256 PUSH1 0x0 SWAP1 SLOAD SWAP1 PUSH2 0x100 EXP SWAP1 DIV PUSH1 0xFF AND PUSH2 0x932 JUMPI DUP1 PUSH1 0x40 MLOAD PUSH32 0x995C9D500000000000000000000000000000000000000000000000000000000 DUP2 MSTORE PUSH1 0x4 ADD PUSH2 0x929 SWAP2 SWAP1 PUSH2 0xC75 JUMP JUMPDEST PUSH1 0x40 MLOAD DUP1 SWAP2 SUB SWAP1 REVERT JUMPDEST PUSH1 0x0 PUSH1 0x1 PUSH1 0x0 DUP4 DUP2 MSTORE PUSH1 0x20 ADD SWAP1 DUP2 MSTORE PUSH1 0x20 ADD PUSH1 0x0 KECCAK256 PUSH1 0x0 PUSH2 0x100 EXP DUP2 SLOAD DUP2 PUSH1 0xFF MUL NOT AND SWAP1 DUP4 ISZERO ISZERO MUL OR SWAP1 SSTORE POP DUP1 PUSH32 0xE8D9861DBC9C663ED3ACCD261BBE2FE01E0D3D9E5F51FA38523B265C7757A93A PUSH1 0x40 MLOAD PUSH1 0x40 MLOAD DUP1 SWAP2 SUB SWAP1 LOG2 POP JUMP JUMPDEST PUSH1 0x0 DUP1 REVERT JUMPDEST PUSH1 0x0 DUP1 REVERT JUMPDEST PUSH1 0x0 DUP2 SWAP1 POP SWAP2 SWAP1 POP JUMP JUMPDEST PUSH2 0x9AB DUP2 PUSH2 0x998 JUMP JUMPDEST DUP2 EQ PUSH2 0x9B6 JUMPI PUSH1 0x0 DUP1 REVERT JUMPDEST POP JUMP JUMPDEST PUSH1 0x0 DUP2 CALLDATALOAD SWAP1 POP PUSH2 0x9C8 DUP2 PUSH2 0x9A2 JUMP JUMPDEST SWAP3 SWAP2 POP POP JUMP JUMPDEST PUSH1 0x0 PUSH1 0x20 DUP3 DUP5 SUB SLT ISZERO PUSH2 0x9E4 JUMPI PUSH2 0x9E3 PUSH2 0x98E JUMP JUMPDEST JUMPDEST PUSH1 0x0 PUSH2 0x9F2 DUP5 DUP3 DUP6 ADD PUSH2 0x9B9 JUMP JUMPDEST SWAP2 POP POP SWAP3 SWAP2 POP POP JUMP JUMPDEST PUSH1 0x0 DUP2 ISZERO ISZERO SWAP1 POP SWAP2 SWAP1 POP JUMP JUMPDEST PUSH2 0xA10 DUP2 PUSH2 0x9FB JUMP JUMPDEST DUP3 MSTORE POP POP JUMP JUMPDEST PUSH1 0x0 PUSH1 0x20 DUP3 ADD SWAP1 POP PUSH2 0xA2B PUSH1 0x0 DUP4 ADD DUP5 PUSH2 0xA07 JUMP JUMPDEST SWAP3 SWAP2 POP POP JUMP JUMPDEST PUSH1 0x0 DUP2 SWAP1 POP SWAP2 SWAP1 POP JUMP JUMPDEST PUSH2 0xA44 DUP2 PUSH2 0xA31 JUMP JUMPDEST DUP3 MSTORE POP POP JUMP JUMPDEST PUSH1 0x0 PUSH1 0x20 DUP3 ADD SWAP1 POP PUSH2 0xA5F PUSH1 0x0 DUP4 ADD DUP5 PUSH2 0xA3B JUMP JUMPDEST SWAP3 SWAP2 POP POP JUMP JUMPDEST PUSH1 0x0 PUSH20 0xFFFFFFFFFFFFFFFFFFFFFFFFFFFFFFFFFFFFFFFF DUP3 AND SWAP1 POP SWAP2 SWAP1 POP JUMP JUMPDEST PUSH1 0x0 PUSH2 0xA90 DUP3 PUSH2 0xA65 JUMP JUMPDEST SWAP1 POP SWAP2 SWAP1 POP JUMP JUMPDEST PUSH2 0xAA0 DUP2 PUSH2 0xA85 JUMP JUMPDEST DUP2 EQ PUSH2 0xAAB JUMPI PUSH1 0x0 DUP1 REVERT JUMPDEST POP JUMP JUMPDEST PUSH1 0x0 DUP2 CALLDATALOAD SWAP1 POP PUSH2 0xABD DUP2 PUSH2 0xA97 JUMP JUMPDEST SWAP3 SWAP2 POP POP JUMP JUMPDEST PUSH2 0xACC DUP2 PUSH2 0xA31 JUMP JUMPDEST DUP2 EQ PUSH2 0xAD7 JUMPI PUSH1 0x0 DUP1 REVERT JUMPDEST POP JUMP JUMPDEST PUSH1 0x0 DUP2 CALLDATALOAD SWAP1 POP PUSH2 0xAE9 DUP2 PUSH2 0xAC3 JUMP JUMPDEST SWAP3 SWAP2 POP POP JUMP JUMPDEST PUSH1 0x0 DUP1 REVERT JUMPDEST PUSH1 0x0 DUP1 REVERT JUMPDEST PUSH1 0x0 DUP1 REVERT JUMPDEST PUSH1 0x0 DUP1 DUP4 PUSH1 0x1F DUP5 ADD SLT PUSH2 0xB14 JUMPI PUSH2 0xB13 PUSH2 0xAEF JUMP JUMPDEST JUMPDEST DUP3 CALLDATALOAD SWAP1 POP PUSH8 0xFFFFFFFFFFFFFFFF DUP2 GT ISZERO PUSH2 0xB31 JUMPI PUSH2 0xB30 PUSH2 0xAF4 JUMP JUMPDEST JUMPDEST PUSH1 0x20 DUP4 ADD SWAP2 POP DUP4 PUSH1 0x1 DUP3 MUL DUP4 ADD GT ISZERO PUSH2 0xB4D JUMPI PUSH2 0xB4C PUSH2 0xAF9 JUMP JUMPDEST JUMPDEST SWAP3 POP SWAP3 SWAP1 POP JUMP JUMPDEST PUSH1 0x0 DUP1 DUP4 PUSH1 0x1F DUP5 ADD SLT PUSH2 0xB6A JUMPI PUSH2 0xB69 PUSH2 0xAEF JUMP JUMPDEST JUMPDEST DUP3 CALLDATALOAD SWAP1 POP PUSH8 0xFFFFFFFFFFFFFFFF DUP2 GT ISZERO PUSH2 0xB87 JUMPI PUSH2 0xB86 PUSH2 0xAF4 JUMP JUMPDEST JUMPDEST PUSH1 0x20 DUP4 ADD SWAP2 POP DUP4 PUSH1 0x1 DUP3 MUL DUP4 ADD GT ISZERO PUSH2 0xBA3 JUMPI PUSH2 0xBA2 PUSH2 0xAF9 JUMP JUMPDEST JUMPDEST SWAP3 POP SWAP3 SWAP1 POP JUMP JUMPDEST PUSH1 0x0 DUP1 PUSH1 0x0 DUP1 PUSH1 0x0 DUP1 PUSH1 0x0 PUSH1 0xA0 DUP9 DUP11 SUB SLT ISZERO PUSH2 0xBC9 JUMPI PUSH2 0xBC8 PUSH2 0x98E JUMP JUMPDEST JUMPDEST PUSH1 0x0 PUSH2 0xBD7 DUP11 DUP3 DUP12 ADD PUSH2 0xAAE JUMP JUMPDEST SWAP8 POP POP PUSH1 0x20 PUSH2 0xBE8 DUP11 DUP3 DUP12 ADD PUSH2 0xADA JUMP JUMPDEST SWAP7 POP POP PUSH1 0x40 DUP9 ADD CALLDATALOAD PUSH8 0xFFFFFFFFFFFFFFFF DUP2 GT ISZERO PUSH2 0xC09 JUMPI PUSH2 0xC08 PUSH2 0x993 JUMP JUMPDEST JUMPDEST PUSH2 0xC15 DUP11 DUP3 DUP12 ADD PUSH2 0xAFE JUMP JUMPDEST SWAP6 POP SWAP6 POP POP PUSH1 0x60 DUP9 ADD CALLDATALOAD PUSH8 0xFFFFFFFFFFFFFFFF DUP2 GT ISZERO PUSH2 0xC38 JUMPI PUSH2 0xC37 PUSH2 0x993 JUMP JUMPDEST JUMPDEST PUSH2 0xC44 DUP11 DUP3 DUP12 ADD PUSH2 0xB54 JUMP JUMPDEST SWAP4 POP SWAP4 POP POP PUSH1 0x80 PUSH2 0xC57 DUP11 DUP3 DUP12 ADD PUSH2 0xADA JUMP JUMPDEST SWAP2 POP POP SWAP3 SWAP6 SWAP9 SWAP2 SWAP5 SWAP8 POP SWAP3 SWAP6 POP JUMP JUMPDEST PUSH2 0xC6F DUP2 PUSH2 0x998 JUMP JUMPDEST DUP3 MSTORE POP POP JUMP JUMPDEST PUSH1 0x0 PUSH1 0x20 DUP3 ADD SWAP1 POP PUSH2 0xC8A PUSH1 0x0 DUP4 ADD DUP5 PUSH2 0xC66 JUMP JUMPDEST SWAP3 SWAP2 POP POP JUMP JUMPDEST PUSH2 0xC99 DUP2 PUSH2 0xA85 JUMP JUMPDEST DUP3 MSTORE POP POP JUMP JUMPDEST PUSH1 0x0 PUSH1 0x20 DUP3 ADD SWAP1 POP PUSH2 0xCB4 PUSH1 0x0 DUP4 ADD DUP5 PUSH2 0xC90 JUMP JUMPDEST SWAP3 SWAP2 POP POP JUMP JUMPDEST PUSH1 0x0 DUP2 MLOAD SWAP1 POP SWAP2 SWAP1 POP JUMP JUMPDEST PUSH1 0x0 DUP3 DUP3 MSTORE PUSH1 0x20 DUP3 ADD SWAP1 POP SWAP3 SWAP2 POP POP JUMP JUMPDEST PUSH1 0x0 JUMPDEST DUP4 DUP2 LT ISZERO PUSH2 0xCF4 JUMPI DUP1 DUP3 ADD MLOAD DUP2 DUP5 ADD MSTORE PUSH1 0x20 DUP2 ADD SWAP1 POP PUSH2 0xCD9 JUMP JUMPDEST PUSH1 0x0 DUP5 DUP5 ADD MSTORE POP POP POP POP JUMP JUMPDEST PUSH1 0x0 PUSH1 0x1F NOT PUSH1 0x1F DUP4 ADD AND SWAP1 POP SWAP2 SWAP1 POP JUMP JUMPDEST PUSH1 0x0 PUSH2 0xD1C DUP3 PUSH2 0xCBA JUMP JUMPDEST PUSH2 0xD26 DUP2 DUP6 PUSH2 0xCC5 JUMP JUMPDEST SWAP4 POP PUSH2 0xD36 DUP2 DUP6 PUSH1 0x20 DUP7 ADD PUSH2 0xCD6 JUMP JUMPDEST PUSH2 0xD3F DUP2 PUSH2 0xD00 JUMP JUMPDEST DUP5 ADD SWAP2 POP POP SWAP3 SWAP2 POP POP JUMP JUMPDEST PUSH1 0x0 PUSH1 0x20 DUP3 ADD SWAP1 POP DUP2 DUP2 SUB PUSH1 0x0 DUP4 ADD MSTORE PUSH2 0xD64 DUP2 DUP5 PUSH2 0xD11 JUMP JUMPDEST SWAP1 POP SWAP3 SWAP2 POP POP JUMP JUMPDEST PUSH32 0x4E487B7100000000000000000000000000000000000000000000000000000000 PUSH1 0x0 MSTORE PUSH1 0x11 PUSH1 0x4 MSTORE PUSH1 0x24 PUSH1 0x0 REVERT JUMPDEST PUSH1 0x0 PUSH2 0xDA6 DUP3 PUSH2 0xA31 JUMP JUMPDEST SWAP2 POP PUSH2 0xDB1 DUP4 PUSH2 0xA31 JUMP JUMPDEST SWAP3 POP DUP3 DUP3 ADD SWAP1 POP DUP1 DUP3 GT ISZERO PUSH2 0xDC9 JUMPI PUSH2 0xDC8 PUSH2 0xD6C JUMP JUMPDEST JUMPDEST SWAP3 SWAP2 POP POP JUMP JUMPDEST PUSH1 0x0 PUSH1 0x40 DUP3 ADD SWAP1 POP PUSH2 0xDE4 PUSH1 0x0 DUP4 ADD DUP6 PUSH2 0xA3B JUMP JUMPDEST PUSH2 0xDF1 PUSH1 0x20 DUP4 ADD DUP5 PUSH2 0xA3B JUMP JUMPDEST SWAP4 SWAP3 POP POP POP JUMP JUMPDEST PUSH1 0x0 DUP3 DUP3 MSTORE PUSH1 0x20 DUP3 ADD SWAP1 POP SWAP3 SWAP2 POP POP JUMP JUMPDEST DUP3 DUP2 DUP4 CALLDATACOPY PUSH1 0x0 DUP4 DUP4 ADD MSTORE POP POP POP JUMP JUMPDEST PUSH1 0x0 PUSH2 0xE24 DUP4 DUP6 PUSH2 0xDF8 JUMP JUMPDEST SWAP4 POP PUSH2 0xE31 DUP4 DUP6 DUP5 PUSH2 0xE09 JUMP JUMPDEST PUSH2 0xE3A DUP4 PUSH2 0xD00 JUMP JUMPDEST DUP5 ADD SWAP1 POP SWAP4 SWAP3 POP POP POP JUMP JUMPDEST PUSH1 0x0 PUSH2 0xE51 DUP4 DUP6 PUSH2 0xCC5 JUMP JUMPDEST SWAP4 POP PUSH2 0xE5E DUP4 DUP6 DUP5 PUSH2 0xE09 JUMP JUMPDEST PUSH2 0xE67 DUP4 PUSH2 0xD00 JUMP JUMPDEST DUP5 ADD SWAP1 POP SWAP4 SWAP3 POP POP POP JUMP JUMPDEST PUSH1 0x0 PUSH1 0x80 DUP3 ADD SWAP1 POP PUSH2 0xE87 PUSH1 0x0 DUP4 ADD DUP10 PUSH2 0xA3B JUMP JUMPDEST DUP2 DUP2 SUB PUSH1 0x20 DUP4 ADD MSTORE PUSH2 0xE9A DUP2 DUP8 DUP10 PUSH2 0xE18 JUMP JUMPDEST SWAP1 POP DUP2 DUP2 SUB PUSH1 0x40 DUP4 ADD MSTORE PUSH2 0xEAF DUP2 DUP6 DUP8 PUSH2 0xE45 JUMP JUMPDEST SWAP1 POP PUSH2 0xEBE PUSH1 0x60 DUP4 ADD DUP5 PUSH2 0xA3B JUMP JUMPDEST SWAP8 SWAP7 POP POP POP POP POP POP POP JUMP JUMPDEST PUSH1 0x0 PUSH1 0xA0 DUP3 ADD SWAP1 POP PUSH2 0xEDE PUSH1 0x0 DUP4 ADD DUP11 PUSH2 0xC90 JUMP JUMPDEST PUSH2 0xEEB PUSH1 0x20 DUP4 ADD DUP10 PUSH2 0xA3B JUMP JUMPDEST DUP2 DUP2 SUB PUSH1 0x40 DUP4 ADD MSTORE PUSH2 0xEFE DUP2 DUP8 DUP10 PUSH2 0xE18 JUMP JUMPDEST SWAP1 POP DUP2 DUP2 SUB PUSH1 0x60 DUP4 ADD MSTORE PUSH2 0xF13 DUP2 DUP6 DUP8 PUSH2 0xE45 JUMP JUMPDEST SWAP1 POP PUSH2 0xF22 PUSH1 0x80 DUP4 ADD DUP5 PUSH2 0xA3B JUMP JUMPDEST SWAP9 SWAP8 POP POP POP POP POP POP POP POP JUMP JUMPDEST PUSH1 0x0 DUP2 SWAP1 POP SWAP3 SWAP2 POP POP JUMP JUMPDEST PUSH1 0x0 PUSH2 0xF45 DUP4 DUP6 PUSH2 0xF2E JUMP JUMPDEST SWAP4 POP PUSH2 0xF52 DUP4 DUP6 DUP5 PUSH2 0xE09 JUMP JUMPDEST DUP3 DUP5 ADD SWAP1 POP SWAP4 SWAP3 POP POP POP JUMP JUMPDEST PUSH1 0x0 PUSH2 0xF6B DUP3 DUP5 DUP7 PUSH2 0xF39 JUMP JUMPDEST SWAP2 POP DUP2 SWAP1 POP SWAP4 SWAP3 POP POP POP JUMP JUMPDEST PUSH1 0x0 PUSH32 0xFFFFFFFF00000000000000000000000000000000000000000000000000000000 DUP3 AND SWAP1 POP SWAP2 SWAP1 POP JUMP JUMPDEST PUSH1 0x0 DUP2 SWAP1 POP SWAP2 SWAP1 POP JUMP JUMPDEST PUSH2 0xFBE PUSH2 0xFB9 DUP3 PUSH2 0xF77 JUMP JUMPDEST PUSH2 0xFA3 JUMP JUMPDEST DUP3 MSTORE POP POP JUMP JUMPDEST PUSH1 0x0 PUSH2 0xFD0 DUP3 DUP7 PUSH2 0xFAD JUMP JUMPDEST PUSH1 0x4 DUP3 ADD SWAP2 POP PUSH2 0xFE1 DUP3 DUP5 DUP7 PUSH2 0xF39 JUMP JUMPDEST SWAP2 POP DUP2 SWAP1 POP SWAP5 SWAP4 POP POP POP POP JUMP JUMPDEST PUSH1 0x0 PUSH2 0xFF9 DUP3 PUSH2 0xCBA JUMP JUMPDEST PUSH2 0x1003 DUP2 DUP6 PUSH2 0xF2E JUMP JUMPDEST SWAP4 POP PUSH2 0x1013 DUP2 DUP6 PUSH1 0x20 DUP7 ADD PUSH2 0xCD6 JUMP JUMPDEST DUP1 DUP5 ADD SWAP2 POP POP SWAP3 SWAP2 POP POP JUMP JUMPDEST PUSH1 0x0 PUSH2 0x102B DUP3 DUP5 PUSH2 0xFEE JUMP JUMPDEST SWAP2 POP DUP2 SWAP1 POP SWAP3 SWAP2 POP POP JUMP JUMPDEST PUSH32 0x73756363657373206661696C6564000000000000000000000000000000000000 PUSH1 0x0 DUP3 ADD MSTORE POP JUMP JUMPDEST PUSH1 0x0 PUSH2 0x106C PUSH1 0xE DUP4 PUSH2 0xDF8 JUMP JUMPDEST SWAP2 POP PUSH2 0x1077 DUP3 PUSH2 0x1036 JUMP JUMPDEST PUSH1 0x20 DUP3 ADD SWAP1 POP SWAP2 SWAP1 POP JUMP JUMPDEST PUSH1 0x0 PUSH1 0x20 DUP3 ADD SWAP1 POP DUP2 DUP2 SUB PUSH1 0x0 DUP4 ADD MSTORE PUSH2 0x109B DUP2 PUSH2 0x105F JUMP JUMPDEST SWAP1 POP SWAP2 SWAP1 POP JUMP INVALID LOG2 PUSH5 0x6970667358 0x22 SLT KECCAK256 CALLER GT 0xBD SELFBALANCE 0x4A SWAP4 GASLIMIT STOP CODECOPY PUSH9 0x8FD05CEB9D895E3910 PREVRANDAO 0xD1 0xCF XOR DUP16 0xA5 0xD7 PUSH2 0x4867 PUSH17 0x67F964736F6C6343000812003300000000 "
				},
				"gasEstimates": {
					"creation": {
						"codeDepositCost": "862400",
						"executionCost": "25162",
						"totalCost": "887562"
					},
					"external": {
						"GRACE_PERIOD()": "395",
						"MAX_DELAY()": "352",
						"MIN_DELAY()": "351",
						"cancel(bytes32)": "infinite",
						"execute(address,uint256,string,bytes,uint256)": "infinite",
						"getTxId(address,uint256,string,bytes,uint256)": "infinite",
						"owner()": "2511",
						"queue(address,uint256,string,bytes,uint256)": "infinite",
						"queued(bytes32)": "2797"
					}
				},
				"methodIdentifiers": {
					"GRACE_PERIOD()": "c1a287e2",
					"MAX_DELAY()": "4125ff90",
					"MIN_DELAY()": "9f81aed7",
					"cancel(bytes32)": "c4d252f5",
					"execute(address,uint256,string,bytes,uint256)": "b0f8b142",
					"getTxId(address,uint256,string,bytes,uint256)": "8a1ce0b6",
					"owner()": "8da5cb5b",
					"queue(address,uint256,string,bytes,uint256)": "4b9915a5",
					"queued(bytes32)": "228250c9"
				}
			},
			"storageLayout": {
				"storage": [
					{
						"astId": 3,
						"contract": "TimeLock.sol:TimeLock",
						"label": "owner",
						"offset": 0,
						"slot": "0",
						"type": "t_address"
					},
					{
						"astId": 76,
						"contract": "TimeLock.sol:TimeLock",
						"label": "queued",
						"offset": 0,
						"slot": "1",
						"type": "t_mapping(t_bytes32,t_bool)"
					}
				],
				"types": {
					"t_address": {
						"encoding": "inplace",
						"label": "address",
						"numberOfBytes": "20"
					},
					"t_bool": {
						"encoding": "inplace",
						"label": "bool",
						"numberOfBytes": "1"
					},
					"t_bytes32": {
						"encoding": "inplace",
						"label": "bytes32",
						"numberOfBytes": "32"
					},
					"t_mapping(t_bytes32,t_bool)": {
						"encoding": "mapping",
						"key": "t_bytes32",
						"label": "mapping(bytes32 => bool)",
						"numberOfBytes": "32",
						"value": "t_bool"
					}
				}
			},
			"userdoc": {
				"kind": "user",
				"methods": {},
				"version": 1
			}
		}
	}
}