{
	"DataLocations.sol": {
		"DataLocations": {
			"abi": [
				{
					"inputs": [
						{
							"internalType": "uint256[]",
							"name": "y",
							"type": "uint256[]"
						},
						{
							"internalType": "string",
							"name": "s",
							"type": "string"
						}
					],
					"name": "example",
					"outputs": [
						{
							"internalType": "uint256[]",
							"name": "",
							"type": "uint256[]"
						}
					],
					"stateMutability": "nonpayable",
					"type": "function"
				},
				{
					"inputs": [
						{
							"internalType": "address",
							"name": "",
							"type": "address"
						}
					],
					"name": "myStructs",
					"outputs": [
						{
							"internalType": "uint256",
							"name": "foo",
							"type": "uint256"
						},
						{
							"internalType": "string",
							"name": "text",
							"type": "string"
						}
					],
					"stateMutability": "view",
					"type": "function"
				}
			],
			"devdoc": {
				"kind": "dev",
				"methods": {},
				"version": 1
			},
			"evm": {
				"assembly": "    /* \"DataLocations.sol\":860:1819  contract DataLocations{... */\n  mstore(0x40, 0x80)\n  callvalue\n  dup1\n  iszero\n  tag_1\n  jumpi\n  0x00\n  dup1\n  revert\ntag_1:\n  pop\n  dataSize(sub_0)\n  dup1\n  dataOffset(sub_0)\n  0x00\n  codecopy\n  0x00\n  return\nstop\n\nsub_0: assembly {\n        /* \"DataLocations.sol\":860:1819  contract DataLocations{... */\n      mstore(0x40, 0x80)\n      callvalue\n      dup1\n      iszero\n      tag_1\n      jumpi\n      0x00\n      dup1\n      revert\n    tag_1:\n      pop\n      jumpi(tag_2, lt(calldatasize, 0x04))\n      shr(0xe0, calldataload(0x00))\n      dup1\n      0x9837ae1a\n      eq\n      tag_3\n      jumpi\n      dup1\n      0xb43c5d33\n      eq\n      tag_4\n      jumpi\n    tag_2:\n      0x00\n      dup1\n      revert\n        /* \"DataLocations.sol\":1076:1617  function example(uint[] calldata y , string calldata s ) external returns (uint[] memory){... */\n    tag_3:\n      tag_5\n      0x04\n      dup1\n      calldatasize\n      sub\n      dup2\n      add\n      swap1\n      tag_6\n      swap2\n      swap1\n      tag_7\n      jump\t// in\n    tag_6:\n      tag_8\n      jump\t// in\n    tag_5:\n      mload(0x40)\n      tag_9\n      swap2\n      swap1\n      tag_10\n      jump\t// in\n    tag_9:\n      mload(0x40)\n      dup1\n      swap2\n      sub\n      swap1\n      return\n        /* \"DataLocations.sol\":962:1008  mapping (address => MyStruct) public myStructs */\n    tag_4:\n      tag_11\n      0x04\n      dup1\n      calldatasize\n      sub\n      dup2\n      add\n      swap1\n      tag_12\n      swap2\n      swap1\n      tag_13\n      jump\t// in\n    tag_12:\n      tag_14\n      jump\t// in\n    tag_11:\n      mload(0x40)\n      tag_15\n      swap3\n      swap2\n      swap1\n      tag_16\n      jump\t// in\n    tag_15:\n      mload(0x40)\n      dup1\n      swap2\n      sub\n      swap1\n      return\n        /* \"DataLocations.sol\":1076:1617  function example(uint[] calldata y , string calldata s ) external returns (uint[] memory){... */\n    tag_8:\n        /* \"DataLocations.sol\":1151:1164  uint[] memory */\n      0x60\n        /* \"DataLocations.sol\":1200:1236  MyStruct({foo : 123 , text : \"bar\"}) */\n      mload(0x40)\n      dup1\n      0x40\n      add\n      0x40\n      mstore\n      dup1\n        /* \"DataLocations.sol\":1216:1219  123 */\n      0x7b\n        /* \"DataLocations.sol\":1200:1236  MyStruct({foo : 123 , text : \"bar\"}) */\n      dup2\n      mstore\n      0x20\n      add\n      mload(0x40)\n      dup1\n      0x40\n      add\n      0x40\n      mstore\n      dup1\n      0x03\n      dup2\n      mstore\n      0x20\n      add\n      0x6261720000000000000000000000000000000000000000000000000000000000\n      dup2\n      mstore\n      pop\n      dup2\n      mstore\n      pop\n        /* \"DataLocations.sol\":1176:1185  myStructs */\n      0x00\n        /* \"DataLocations.sol\":1176:1197  myStructs[msg.sender] */\n      dup1\n        /* \"DataLocations.sol\":1186:1196  msg.sender */\n      caller\n        /* \"DataLocations.sol\":1176:1197  myStructs[msg.sender] */\n      0xffffffffffffffffffffffffffffffffffffffff\n      and\n      0xffffffffffffffffffffffffffffffffffffffff\n      and\n      dup2\n      mstore\n      0x20\n      add\n      swap1\n      dup2\n      mstore\n      0x20\n      add\n      0x00\n      keccak256\n        /* \"DataLocations.sol\":1176:1236  myStructs[msg.sender] = MyStruct({foo : 123 , text : \"bar\"}) */\n      0x00\n      dup3\n      add\n      mload\n      dup2\n      0x00\n      add\n      sstore\n      0x20\n      dup3\n      add\n      mload\n      dup2\n      0x01\n      add\n      swap1\n      dup2\n      tag_18\n      swap2\n      swap1\n      tag_19\n      jump\t// in\n    tag_18:\n      pop\n      swap1\n      pop\n      pop\n        /* \"DataLocations.sol\":1249:1274  MyStruct storage myStruct */\n      0x00\n        /* \"DataLocations.sol\":1277:1286  myStructs */\n      dup1\n        /* \"DataLocations.sol\":1277:1298  myStructs[msg.sender] */\n      0x00\n        /* \"DataLocations.sol\":1287:1297  msg.sender */\n      caller\n        /* \"DataLocations.sol\":1277:1298  myStructs[msg.sender] */\n      0xffffffffffffffffffffffffffffffffffffffff\n      and\n      0xffffffffffffffffffffffffffffffffffffffff\n      and\n      dup2\n      mstore\n      0x20\n      add\n      swap1\n      dup2\n      mstore\n      0x20\n      add\n      0x00\n      keccak256\n        /* \"DataLocations.sol\":1249:1298  MyStruct storage myStruct = myStructs[msg.sender] */\n      swap1\n      pop\n        /* \"DataLocations.sol\":1309:1330  myStruct.text = \"foo\" */\n      mload(0x40)\n      dup1\n      0x40\n      add\n      0x40\n      mstore\n      dup1\n      0x03\n      dup2\n      mstore\n      0x20\n      add\n      0x666f6f0000000000000000000000000000000000000000000000000000000000\n      dup2\n      mstore\n      pop\n        /* \"DataLocations.sol\":1309:1317  myStruct */\n      dup2\n        /* \"DataLocations.sol\":1309:1322  myStruct.text */\n      0x01\n      add\n        /* \"DataLocations.sol\":1309:1330  myStruct.text = \"foo\" */\n      swap1\n      dup2\n      tag_20\n      swap2\n      swap1\n      tag_19\n      jump\t// in\n    tag_20:\n      pop\n        /* \"DataLocations.sol\":1343:1367  MyStruct memory readOnly */\n      0x00\n        /* \"DataLocations.sol\":1370:1379  myStructs */\n      dup1\n        /* \"DataLocations.sol\":1370:1391  myStructs[msg.sender] */\n      0x00\n        /* \"DataLocations.sol\":1380:1390  msg.sender */\n      caller\n        /* \"DataLocations.sol\":1370:1391  myStructs[msg.sender] */\n      0xffffffffffffffffffffffffffffffffffffffff\n      and\n      0xffffffffffffffffffffffffffffffffffffffff\n      and\n      dup2\n      mstore\n      0x20\n      add\n      swap1\n      dup2\n      mstore\n      0x20\n      add\n      0x00\n      keccak256\n        /* \"DataLocations.sol\":1343:1391  MyStruct memory readOnly = myStructs[msg.sender] */\n      mload(0x40)\n      dup1\n      0x40\n      add\n      0x40\n      mstore\n      swap1\n      dup2\n      0x00\n      dup3\n      add\n      sload\n      dup2\n      mstore\n      0x20\n      add\n      0x01\n      dup3\n      add\n      dup1\n      sload\n      tag_21\n      swap1\n      tag_22\n      jump\t// in\n    tag_21:\n      dup1\n      0x1f\n      add\n      0x20\n      dup1\n      swap2\n      div\n      mul\n      0x20\n      add\n      mload(0x40)\n      swap1\n      dup2\n      add\n      0x40\n      mstore\n      dup1\n      swap3\n      swap2\n      swap1\n      dup2\n      dup2\n      mstore\n      0x20\n      add\n      dup3\n      dup1\n      sload\n      tag_23\n      swap1\n      tag_22\n      jump\t// in\n    tag_23:\n      dup1\n      iszero\n      tag_24\n      jumpi\n      dup1\n      0x1f\n      lt\n      tag_25\n      jumpi\n      0x0100\n      dup1\n      dup4\n      sload\n      div\n      mul\n      dup4\n      mstore\n      swap2\n      0x20\n      add\n      swap2\n      jump(tag_24)\n    tag_25:\n      dup3\n      add\n      swap2\n      swap1\n      0x00\n      mstore\n      keccak256(0x00, 0x20)\n      swap1\n    tag_26:\n      dup2\n      sload\n      dup2\n      mstore\n      swap1\n      0x01\n      add\n      swap1\n      0x20\n      add\n      dup1\n      dup4\n      gt\n      tag_26\n      jumpi\n      dup3\n      swap1\n      sub\n      0x1f\n      and\n      dup3\n      add\n      swap2\n    tag_24:\n      pop\n      pop\n      pop\n      pop\n      pop\n      dup2\n      mstore\n      pop\n      pop\n      swap1\n      pop\n        /* \"DataLocations.sol\":1417:1420  456 */\n      0x01c8\n        /* \"DataLocations.sol\":1402:1410  readOnly */\n      dup2\n        /* \"DataLocations.sol\":1402:1414  readOnly.foo */\n      0x00\n      add\n        /* \"DataLocations.sol\":1402:1420  readOnly.foo = 456 */\n      dup2\n      dup2\n      mstore\n      pop\n      pop\n        /* \"DataLocations.sol\":1433:1445  _internal(y) */\n      tag_27\n        /* \"DataLocations.sol\":1443:1444  y */\n      dup8\n      dup8\n        /* \"DataLocations.sol\":1433:1442  _internal */\n      tag_28\n        /* \"DataLocations.sol\":1433:1445  _internal(y) */\n      jump\t// in\n    tag_27:\n        /* \"DataLocations.sol\":1456:1469  _internal2(s) */\n      tag_29\n        /* \"DataLocations.sol\":1467:1468  s */\n      dup6\n      dup6\n        /* \"DataLocations.sol\":1456:1466  _internal2 */\n      tag_30\n        /* \"DataLocations.sol\":1456:1469  _internal2(s) */\n      jump\t// in\n    tag_29:\n        /* \"DataLocations.sol\":1521:1541  uint[] memory memArr */\n      0x00\n        /* \"DataLocations.sol\":1556:1557  3 */\n      0x03\n        /* \"DataLocations.sol\":1544:1558  new uint[] (3) */\n      0xffffffffffffffff\n      dup2\n      gt\n      iszero\n      tag_31\n      jumpi\n      tag_32\n      tag_33\n      jump\t// in\n    tag_32:\n    tag_31:\n      mload(0x40)\n      swap1\n      dup1\n      dup3\n      mstore\n      dup1\n      0x20\n      mul\n      0x20\n      add\n      dup3\n      add\n      0x40\n      mstore\n      dup1\n      iszero\n      tag_34\n      jumpi\n      dup2\n      0x20\n      add\n      0x20\n      dup3\n      mul\n      dup1\n      calldatasize\n      dup4\n      calldatacopy\n      dup1\n      dup3\n      add\n      swap2\n      pop\n      pop\n      swap1\n      pop\n    tag_34:\n      pop\n        /* \"DataLocations.sol\":1521:1558  uint[] memory memArr = new uint[] (3) */\n      swap1\n      pop\n        /* \"DataLocations.sol\":1581:1583  34 */\n      0x22\n        /* \"DataLocations.sol\":1569:1575  memArr */\n      dup2\n        /* \"DataLocations.sol\":1576:1577  0 */\n      0x00\n        /* \"DataLocations.sol\":1569:1578  memArr[0] */\n      dup2\n      mload\n      dup2\n      lt\n      tag_35\n      jumpi\n      tag_36\n      tag_37\n      jump\t// in\n    tag_36:\n    tag_35:\n      0x20\n      mul\n      0x20\n      add\n      add\n        /* \"DataLocations.sol\":1569:1583  memArr[0] = 34 */\n      dup2\n      dup2\n      mstore\n      pop\n      pop\n        /* \"DataLocations.sol\":1601:1607  memArr */\n      dup1\n        /* \"DataLocations.sol\":1594:1607  return memArr */\n      swap4\n      pop\n      pop\n      pop\n      pop\n        /* \"DataLocations.sol\":1076:1617  function example(uint[] calldata y , string calldata s ) external returns (uint[] memory){... */\n      swap5\n      swap4\n      pop\n      pop\n      pop\n      pop\n      jump\t// out\n        /* \"DataLocations.sol\":962:1008  mapping (address => MyStruct) public myStructs */\n    tag_14:\n      mstore(0x20, 0x00)\n      dup1\n      0x00\n      mstore\n      keccak256(0x00, 0x40)\n      0x00\n      swap2\n      pop\n      swap1\n      pop\n      dup1\n      0x00\n      add\n      sload\n      swap1\n      dup1\n      0x01\n      add\n      dup1\n      sload\n      tag_38\n      swap1\n      tag_22\n      jump\t// in\n    tag_38:\n      dup1\n      0x1f\n      add\n      0x20\n      dup1\n      swap2\n      div\n      mul\n      0x20\n      add\n      mload(0x40)\n      swap1\n      dup2\n      add\n      0x40\n      mstore\n      dup1\n      swap3\n      swap2\n      swap1\n      dup2\n      dup2\n      mstore\n      0x20\n      add\n      dup3\n      dup1\n      sload\n      tag_39\n      swap1\n      tag_22\n      jump\t// in\n    tag_39:\n      dup1\n      iszero\n      tag_40\n      jumpi\n      dup1\n      0x1f\n      lt\n      tag_41\n      jumpi\n      0x0100\n      dup1\n      dup4\n      sload\n      div\n      mul\n      dup4\n      mstore\n      swap2\n      0x20\n      add\n      swap2\n      jump(tag_40)\n    tag_41:\n      dup3\n      add\n      swap2\n      swap1\n      0x00\n      mstore\n      keccak256(0x00, 0x20)\n      swap1\n    tag_42:\n      dup2\n      sload\n      dup2\n      mstore\n      swap1\n      0x01\n      add\n      swap1\n      0x20\n      add\n      dup1\n      dup4\n      gt\n      tag_42\n      jumpi\n      dup3\n      swap1\n      sub\n      0x1f\n      and\n      dup3\n      add\n      swap2\n    tag_40:\n      pop\n      pop\n      pop\n      pop\n      pop\n      swap1\n      pop\n      dup3\n      jump\t// out\n        /* \"DataLocations.sol\":1625:1712  function _internal (uint[] calldata y) private pure {... */\n    tag_28:\n      pop\n      pop\n      jump\t// out\n        /* \"DataLocations.sol\":1720:1816  function _internal2 (string calldata s) private pure {... */\n    tag_30:\n      pop\n      pop\n      jump\t// out\n        /* \"#utility.yul\":88:205   */\n    tag_46:\n        /* \"#utility.yul\":197:198   */\n      0x00\n        /* \"#utility.yul\":194:195   */\n      dup1\n        /* \"#utility.yul\":187:199   */\n      revert\n        /* \"#utility.yul\":211:328   */\n    tag_47:\n        /* \"#utility.yul\":320:321   */\n      0x00\n        /* \"#utility.yul\":317:318   */\n      dup1\n        /* \"#utility.yul\":310:322   */\n      revert\n        /* \"#utility.yul\":334:451   */\n    tag_48:\n        /* \"#utility.yul\":443:444   */\n      0x00\n        /* \"#utility.yul\":440:441   */\n      dup1\n        /* \"#utility.yul\":433:445   */\n      revert\n        /* \"#utility.yul\":457:574   */\n    tag_49:\n        /* \"#utility.yul\":566:567   */\n      0x00\n        /* \"#utility.yul\":563:564   */\n      dup1\n        /* \"#utility.yul\":556:568   */\n      revert\n        /* \"#utility.yul\":580:697   */\n    tag_50:\n        /* \"#utility.yul\":689:690   */\n      0x00\n        /* \"#utility.yul\":686:687   */\n      dup1\n        /* \"#utility.yul\":679:691   */\n      revert\n        /* \"#utility.yul\":720:1288   */\n    tag_51:\n        /* \"#utility.yul\":793:801   */\n      0x00\n        /* \"#utility.yul\":803:809   */\n      dup1\n        /* \"#utility.yul\":853:856   */\n      dup4\n        /* \"#utility.yul\":846:850   */\n      0x1f\n        /* \"#utility.yul\":838:844   */\n      dup5\n        /* \"#utility.yul\":834:851   */\n      add\n        /* \"#utility.yul\":830:857   */\n      slt\n        /* \"#utility.yul\":820:942   */\n      tag_95\n      jumpi\n        /* \"#utility.yul\":861:940   */\n      tag_96\n      tag_48\n      jump\t// in\n    tag_96:\n        /* \"#utility.yul\":820:942   */\n    tag_95:\n        /* \"#utility.yul\":974:980   */\n      dup3\n        /* \"#utility.yul\":961:981   */\n      calldataload\n        /* \"#utility.yul\":951:981   */\n      swap1\n      pop\n        /* \"#utility.yul\":1004:1022   */\n      0xffffffffffffffff\n        /* \"#utility.yul\":996:1002   */\n      dup2\n        /* \"#utility.yul\":993:1023   */\n      gt\n        /* \"#utility.yul\":990:1107   */\n      iszero\n      tag_97\n      jumpi\n        /* \"#utility.yul\":1026:1105   */\n      tag_98\n      tag_49\n      jump\t// in\n    tag_98:\n        /* \"#utility.yul\":990:1107   */\n    tag_97:\n        /* \"#utility.yul\":1140:1144   */\n      0x20\n        /* \"#utility.yul\":1132:1138   */\n      dup4\n        /* \"#utility.yul\":1128:1145   */\n      add\n        /* \"#utility.yul\":1116:1145   */\n      swap2\n      pop\n        /* \"#utility.yul\":1194:1197   */\n      dup4\n        /* \"#utility.yul\":1186:1190   */\n      0x20\n        /* \"#utility.yul\":1178:1184   */\n      dup3\n        /* \"#utility.yul\":1174:1191   */\n      mul\n        /* \"#utility.yul\":1164:1172   */\n      dup4\n        /* \"#utility.yul\":1160:1192   */\n      add\n        /* \"#utility.yul\":1157:1198   */\n      gt\n        /* \"#utility.yul\":1154:1282   */\n      iszero\n      tag_99\n      jumpi\n        /* \"#utility.yul\":1201:1280   */\n      tag_100\n      tag_50\n      jump\t// in\n    tag_100:\n        /* \"#utility.yul\":1154:1282   */\n    tag_99:\n        /* \"#utility.yul\":720:1288   */\n      swap3\n      pop\n      swap3\n      swap1\n      pop\n      jump\t// out\n        /* \"#utility.yul\":1308:1861   */\n    tag_52:\n        /* \"#utility.yul\":1366:1374   */\n      0x00\n        /* \"#utility.yul\":1376:1382   */\n      dup1\n        /* \"#utility.yul\":1426:1429   */\n      dup4\n        /* \"#utility.yul\":1419:1423   */\n      0x1f\n        /* \"#utility.yul\":1411:1417   */\n      dup5\n        /* \"#utility.yul\":1407:1424   */\n      add\n        /* \"#utility.yul\":1403:1430   */\n      slt\n        /* \"#utility.yul\":1393:1515   */\n      tag_102\n      jumpi\n        /* \"#utility.yul\":1434:1513   */\n      tag_103\n      tag_48\n      jump\t// in\n    tag_103:\n        /* \"#utility.yul\":1393:1515   */\n    tag_102:\n        /* \"#utility.yul\":1547:1553   */\n      dup3\n        /* \"#utility.yul\":1534:1554   */\n      calldataload\n        /* \"#utility.yul\":1524:1554   */\n      swap1\n      pop\n        /* \"#utility.yul\":1577:1595   */\n      0xffffffffffffffff\n        /* \"#utility.yul\":1569:1575   */\n      dup2\n        /* \"#utility.yul\":1566:1596   */\n      gt\n        /* \"#utility.yul\":1563:1680   */\n      iszero\n      tag_104\n      jumpi\n        /* \"#utility.yul\":1599:1678   */\n      tag_105\n      tag_49\n      jump\t// in\n    tag_105:\n        /* \"#utility.yul\":1563:1680   */\n    tag_104:\n        /* \"#utility.yul\":1713:1717   */\n      0x20\n        /* \"#utility.yul\":1705:1711   */\n      dup4\n        /* \"#utility.yul\":1701:1718   */\n      add\n        /* \"#utility.yul\":1689:1718   */\n      swap2\n      pop\n        /* \"#utility.yul\":1767:1770   */\n      dup4\n        /* \"#utility.yul\":1759:1763   */\n      0x01\n        /* \"#utility.yul\":1751:1757   */\n      dup3\n        /* \"#utility.yul\":1747:1764   */\n      mul\n        /* \"#utility.yul\":1737:1745   */\n      dup4\n        /* \"#utility.yul\":1733:1765   */\n      add\n        /* \"#utility.yul\":1730:1771   */\n      gt\n        /* \"#utility.yul\":1727:1855   */\n      iszero\n      tag_106\n      jumpi\n        /* \"#utility.yul\":1774:1853   */\n      tag_107\n      tag_50\n      jump\t// in\n    tag_107:\n        /* \"#utility.yul\":1727:1855   */\n    tag_106:\n        /* \"#utility.yul\":1308:1861   */\n      swap3\n      pop\n      swap3\n      swap1\n      pop\n      jump\t// out\n        /* \"#utility.yul\":1867:2771   */\n    tag_7:\n        /* \"#utility.yul\":1974:1980   */\n      0x00\n        /* \"#utility.yul\":1982:1988   */\n      dup1\n        /* \"#utility.yul\":1990:1996   */\n      0x00\n        /* \"#utility.yul\":1998:2004   */\n      dup1\n        /* \"#utility.yul\":2047:2049   */\n      0x40\n        /* \"#utility.yul\":2035:2044   */\n      dup6\n        /* \"#utility.yul\":2026:2033   */\n      dup8\n        /* \"#utility.yul\":2022:2045   */\n      sub\n        /* \"#utility.yul\":2018:2050   */\n      slt\n        /* \"#utility.yul\":2015:2134   */\n      iszero\n      tag_109\n      jumpi\n        /* \"#utility.yul\":2053:2132   */\n      tag_110\n      tag_46\n      jump\t// in\n    tag_110:\n        /* \"#utility.yul\":2015:2134   */\n    tag_109:\n        /* \"#utility.yul\":2201:2202   */\n      0x00\n        /* \"#utility.yul\":2190:2199   */\n      dup6\n        /* \"#utility.yul\":2186:2203   */\n      add\n        /* \"#utility.yul\":2173:2204   */\n      calldataload\n        /* \"#utility.yul\":2231:2249   */\n      0xffffffffffffffff\n        /* \"#utility.yul\":2223:2229   */\n      dup2\n        /* \"#utility.yul\":2220:2250   */\n      gt\n        /* \"#utility.yul\":2217:2334   */\n      iszero\n      tag_111\n      jumpi\n        /* \"#utility.yul\":2253:2332   */\n      tag_112\n      tag_47\n      jump\t// in\n    tag_112:\n        /* \"#utility.yul\":2217:2334   */\n    tag_111:\n        /* \"#utility.yul\":2366:2446   */\n      tag_113\n        /* \"#utility.yul\":2438:2445   */\n      dup8\n        /* \"#utility.yul\":2429:2435   */\n      dup3\n        /* \"#utility.yul\":2418:2427   */\n      dup9\n        /* \"#utility.yul\":2414:2436   */\n      add\n        /* \"#utility.yul\":2366:2446   */\n      tag_51\n      jump\t// in\n    tag_113:\n        /* \"#utility.yul\":2348:2446   */\n      swap5\n      pop\n      swap5\n      pop\n        /* \"#utility.yul\":2144:2456   */\n      pop\n        /* \"#utility.yul\":2523:2525   */\n      0x20\n        /* \"#utility.yul\":2512:2521   */\n      dup6\n        /* \"#utility.yul\":2508:2526   */\n      add\n        /* \"#utility.yul\":2495:2527   */\n      calldataload\n        /* \"#utility.yul\":2554:2572   */\n      0xffffffffffffffff\n        /* \"#utility.yul\":2546:2552   */\n      dup2\n        /* \"#utility.yul\":2543:2573   */\n      gt\n        /* \"#utility.yul\":2540:2657   */\n      iszero\n      tag_114\n      jumpi\n        /* \"#utility.yul\":2576:2655   */\n      tag_115\n      tag_47\n      jump\t// in\n    tag_115:\n        /* \"#utility.yul\":2540:2657   */\n    tag_114:\n        /* \"#utility.yul\":2689:2754   */\n      tag_116\n        /* \"#utility.yul\":2746:2753   */\n      dup8\n        /* \"#utility.yul\":2737:2743   */\n      dup3\n        /* \"#utility.yul\":2726:2735   */\n      dup9\n        /* \"#utility.yul\":2722:2744   */\n      add\n        /* \"#utility.yul\":2689:2754   */\n      tag_52\n      jump\t// in\n    tag_116:\n        /* \"#utility.yul\":2671:2754   */\n      swap3\n      pop\n      swap3\n      pop\n        /* \"#utility.yul\":2466:2764   */\n      pop\n        /* \"#utility.yul\":1867:2771   */\n      swap3\n      swap6\n      swap2\n      swap5\n      pop\n      swap3\n      pop\n      jump\t// out\n        /* \"#utility.yul\":2777:2891   */\n    tag_53:\n        /* \"#utility.yul\":2844:2850   */\n      0x00\n        /* \"#utility.yul\":2878:2883   */\n      dup2\n        /* \"#utility.yul\":2872:2884   */\n      mload\n        /* \"#utility.yul\":2862:2884   */\n      swap1\n      pop\n        /* \"#utility.yul\":2777:2891   */\n      swap2\n      swap1\n      pop\n      jump\t// out\n        /* \"#utility.yul\":2897:3081   */\n    tag_54:\n        /* \"#utility.yul\":2996:3007   */\n      0x00\n        /* \"#utility.yul\":3030:3036   */\n      dup3\n        /* \"#utility.yul\":3025:3028   */\n      dup3\n        /* \"#utility.yul\":3018:3037   */\n      mstore\n        /* \"#utility.yul\":3070:3074   */\n      0x20\n        /* \"#utility.yul\":3065:3068   */\n      dup3\n        /* \"#utility.yul\":3061:3075   */\n      add\n        /* \"#utility.yul\":3046:3075   */\n      swap1\n      pop\n        /* \"#utility.yul\":2897:3081   */\n      swap3\n      swap2\n      pop\n      pop\n      jump\t// out\n        /* \"#utility.yul\":3087:3219   */\n    tag_55:\n        /* \"#utility.yul\":3154:3158   */\n      0x00\n        /* \"#utility.yul\":3177:3180   */\n      dup2\n        /* \"#utility.yul\":3169:3180   */\n      swap1\n      pop\n        /* \"#utility.yul\":3207:3211   */\n      0x20\n        /* \"#utility.yul\":3202:3205   */\n      dup3\n        /* \"#utility.yul\":3198:3212   */\n      add\n        /* \"#utility.yul\":3190:3212   */\n      swap1\n      pop\n        /* \"#utility.yul\":3087:3219   */\n      swap2\n      swap1\n      pop\n      jump\t// out\n        /* \"#utility.yul\":3225:3302   */\n    tag_56:\n        /* \"#utility.yul\":3262:3269   */\n      0x00\n        /* \"#utility.yul\":3291:3296   */\n      dup2\n        /* \"#utility.yul\":3280:3296   */\n      swap1\n      pop\n        /* \"#utility.yul\":3225:3302   */\n      swap2\n      swap1\n      pop\n      jump\t// out\n        /* \"#utility.yul\":3308:3416   */\n    tag_57:\n        /* \"#utility.yul\":3385:3409   */\n      tag_122\n        /* \"#utility.yul\":3403:3408   */\n      dup2\n        /* \"#utility.yul\":3385:3409   */\n      tag_56\n      jump\t// in\n    tag_122:\n        /* \"#utility.yul\":3380:3383   */\n      dup3\n        /* \"#utility.yul\":3373:3410   */\n      mstore\n        /* \"#utility.yul\":3308:3416   */\n      pop\n      pop\n      jump\t// out\n        /* \"#utility.yul\":3422:3601   */\n    tag_58:\n        /* \"#utility.yul\":3491:3501   */\n      0x00\n        /* \"#utility.yul\":3512:3558   */\n      tag_124\n        /* \"#utility.yul\":3554:3557   */\n      dup4\n        /* \"#utility.yul\":3546:3552   */\n      dup4\n        /* \"#utility.yul\":3512:3558   */\n      tag_57\n      jump\t// in\n    tag_124:\n        /* \"#utility.yul\":3590:3594   */\n      0x20\n        /* \"#utility.yul\":3585:3588   */\n      dup4\n        /* \"#utility.yul\":3581:3595   */\n      add\n        /* \"#utility.yul\":3567:3595   */\n      swap1\n      pop\n        /* \"#utility.yul\":3422:3601   */\n      swap3\n      swap2\n      pop\n      pop\n      jump\t// out\n        /* \"#utility.yul\":3607:3720   */\n    tag_59:\n        /* \"#utility.yul\":3677:3681   */\n      0x00\n        /* \"#utility.yul\":3709:3713   */\n      0x20\n        /* \"#utility.yul\":3704:3707   */\n      dup3\n        /* \"#utility.yul\":3700:3714   */\n      add\n        /* \"#utility.yul\":3692:3714   */\n      swap1\n      pop\n        /* \"#utility.yul\":3607:3720   */\n      swap2\n      swap1\n      pop\n      jump\t// out\n        /* \"#utility.yul\":3756:4488   */\n    tag_60:\n        /* \"#utility.yul\":3875:3878   */\n      0x00\n        /* \"#utility.yul\":3904:3958   */\n      tag_127\n        /* \"#utility.yul\":3952:3957   */\n      dup3\n        /* \"#utility.yul\":3904:3958   */\n      tag_53\n      jump\t// in\n    tag_127:\n        /* \"#utility.yul\":3974:4060   */\n      tag_128\n        /* \"#utility.yul\":4053:4059   */\n      dup2\n        /* \"#utility.yul\":4048:4051   */\n      dup6\n        /* \"#utility.yul\":3974:4060   */\n      tag_54\n      jump\t// in\n    tag_128:\n        /* \"#utility.yul\":3967:4060   */\n      swap4\n      pop\n        /* \"#utility.yul\":4084:4140   */\n      tag_129\n        /* \"#utility.yul\":4134:4139   */\n      dup4\n        /* \"#utility.yul\":4084:4140   */\n      tag_55\n      jump\t// in\n    tag_129:\n        /* \"#utility.yul\":4163:4170   */\n      dup1\n        /* \"#utility.yul\":4194:4195   */\n      0x00\n        /* \"#utility.yul\":4179:4463   */\n    tag_130:\n        /* \"#utility.yul\":4204:4210   */\n      dup4\n        /* \"#utility.yul\":4201:4202   */\n      dup2\n        /* \"#utility.yul\":4198:4211   */\n      lt\n        /* \"#utility.yul\":4179:4463   */\n      iszero\n      tag_132\n      jumpi\n        /* \"#utility.yul\":4280:4286   */\n      dup2\n        /* \"#utility.yul\":4274:4287   */\n      mload\n        /* \"#utility.yul\":4307:4370   */\n      tag_133\n        /* \"#utility.yul\":4366:4369   */\n      dup9\n        /* \"#utility.yul\":4351:4364   */\n      dup3\n        /* \"#utility.yul\":4307:4370   */\n      tag_58\n      jump\t// in\n    tag_133:\n        /* \"#utility.yul\":4300:4370   */\n      swap8\n      pop\n        /* \"#utility.yul\":4393:4453   */\n      tag_134\n        /* \"#utility.yul\":4446:4452   */\n      dup4\n        /* \"#utility.yul\":4393:4453   */\n      tag_59\n      jump\t// in\n    tag_134:\n        /* \"#utility.yul\":4383:4453   */\n      swap3\n      pop\n        /* \"#utility.yul\":4239:4463   */\n      pop\n        /* \"#utility.yul\":4226:4227   */\n      0x01\n        /* \"#utility.yul\":4223:4224   */\n      dup2\n        /* \"#utility.yul\":4219:4228   */\n      add\n        /* \"#utility.yul\":4214:4228   */\n      swap1\n      pop\n        /* \"#utility.yul\":4179:4463   */\n      jump(tag_130)\n    tag_132:\n        /* \"#utility.yul\":4183:4197   */\n      pop\n        /* \"#utility.yul\":4479:4482   */\n      dup6\n        /* \"#utility.yul\":4472:4482   */\n      swap4\n      pop\n        /* \"#utility.yul\":3880:4488   */\n      pop\n      pop\n      pop\n        /* \"#utility.yul\":3756:4488   */\n      swap3\n      swap2\n      pop\n      pop\n      jump\t// out\n        /* \"#utility.yul\":4494:4867   */\n    tag_10:\n        /* \"#utility.yul\":4637:4641   */\n      0x00\n        /* \"#utility.yul\":4675:4677   */\n      0x20\n        /* \"#utility.yul\":4664:4673   */\n      dup3\n        /* \"#utility.yul\":4660:4678   */\n      add\n        /* \"#utility.yul\":4652:4678   */\n      swap1\n      pop\n        /* \"#utility.yul\":4724:4733   */\n      dup2\n        /* \"#utility.yul\":4718:4722   */\n      dup2\n        /* \"#utility.yul\":4714:4734   */\n      sub\n        /* \"#utility.yul\":4710:4711   */\n      0x00\n        /* \"#utility.yul\":4699:4708   */\n      dup4\n        /* \"#utility.yul\":4695:4712   */\n      add\n        /* \"#utility.yul\":4688:4735   */\n      mstore\n        /* \"#utility.yul\":4752:4860   */\n      tag_136\n        /* \"#utility.yul\":4855:4859   */\n      dup2\n        /* \"#utility.yul\":4846:4852   */\n      dup5\n        /* \"#utility.yul\":4752:4860   */\n      tag_60\n      jump\t// in\n    tag_136:\n        /* \"#utility.yul\":4744:4860   */\n      swap1\n      pop\n        /* \"#utility.yul\":4494:4867   */\n      swap3\n      swap2\n      pop\n      pop\n      jump\t// out\n        /* \"#utility.yul\":4873:4999   */\n    tag_61:\n        /* \"#utility.yul\":4910:4917   */\n      0x00\n        /* \"#utility.yul\":4950:4992   */\n      0xffffffffffffffffffffffffffffffffffffffff\n        /* \"#utility.yul\":4943:4948   */\n      dup3\n        /* \"#utility.yul\":4939:4993   */\n      and\n        /* \"#utility.yul\":4928:4993   */\n      swap1\n      pop\n        /* \"#utility.yul\":4873:4999   */\n      swap2\n      swap1\n      pop\n      jump\t// out\n        /* \"#utility.yul\":5005:5101   */\n    tag_62:\n        /* \"#utility.yul\":5042:5049   */\n      0x00\n        /* \"#utility.yul\":5071:5095   */\n      tag_139\n        /* \"#utility.yul\":5089:5094   */\n      dup3\n        /* \"#utility.yul\":5071:5095   */\n      tag_61\n      jump\t// in\n    tag_139:\n        /* \"#utility.yul\":5060:5095   */\n      swap1\n      pop\n        /* \"#utility.yul\":5005:5101   */\n      swap2\n      swap1\n      pop\n      jump\t// out\n        /* \"#utility.yul\":5107:5229   */\n    tag_63:\n        /* \"#utility.yul\":5180:5204   */\n      tag_141\n        /* \"#utility.yul\":5198:5203   */\n      dup2\n        /* \"#utility.yul\":5180:5204   */\n      tag_62\n      jump\t// in\n    tag_141:\n        /* \"#utility.yul\":5173:5178   */\n      dup2\n        /* \"#utility.yul\":5170:5205   */\n      eq\n        /* \"#utility.yul\":5160:5223   */\n      tag_142\n      jumpi\n        /* \"#utility.yul\":5219:5220   */\n      0x00\n        /* \"#utility.yul\":5216:5217   */\n      dup1\n        /* \"#utility.yul\":5209:5221   */\n      revert\n        /* \"#utility.yul\":5160:5223   */\n    tag_142:\n        /* \"#utility.yul\":5107:5229   */\n      pop\n      jump\t// out\n        /* \"#utility.yul\":5235:5374   */\n    tag_64:\n        /* \"#utility.yul\":5281:5286   */\n      0x00\n        /* \"#utility.yul\":5319:5325   */\n      dup2\n        /* \"#utility.yul\":5306:5326   */\n      calldataload\n        /* \"#utility.yul\":5297:5326   */\n      swap1\n      pop\n        /* \"#utility.yul\":5335:5368   */\n      tag_144\n        /* \"#utility.yul\":5362:5367   */\n      dup2\n        /* \"#utility.yul\":5335:5368   */\n      tag_63\n      jump\t// in\n    tag_144:\n        /* \"#utility.yul\":5235:5374   */\n      swap3\n      swap2\n      pop\n      pop\n      jump\t// out\n        /* \"#utility.yul\":5380:5709   */\n    tag_13:\n        /* \"#utility.yul\":5439:5445   */\n      0x00\n        /* \"#utility.yul\":5488:5490   */\n      0x20\n        /* \"#utility.yul\":5476:5485   */\n      dup3\n        /* \"#utility.yul\":5467:5474   */\n      dup5\n        /* \"#utility.yul\":5463:5486   */\n      sub\n        /* \"#utility.yul\":5459:5491   */\n      slt\n        /* \"#utility.yul\":5456:5575   */\n      iszero\n      tag_146\n      jumpi\n        /* \"#utility.yul\":5494:5573   */\n      tag_147\n      tag_46\n      jump\t// in\n    tag_147:\n        /* \"#utility.yul\":5456:5575   */\n    tag_146:\n        /* \"#utility.yul\":5614:5615   */\n      0x00\n        /* \"#utility.yul\":5639:5692   */\n      tag_148\n        /* \"#utility.yul\":5684:5691   */\n      dup5\n        /* \"#utility.yul\":5675:5681   */\n      dup3\n        /* \"#utility.yul\":5664:5673   */\n      dup6\n        /* \"#utility.yul\":5660:5682   */\n      add\n        /* \"#utility.yul\":5639:5692   */\n      tag_64\n      jump\t// in\n    tag_148:\n        /* \"#utility.yul\":5629:5692   */\n      swap2\n      pop\n        /* \"#utility.yul\":5585:5702   */\n      pop\n        /* \"#utility.yul\":5380:5709   */\n      swap3\n      swap2\n      pop\n      pop\n      jump\t// out\n        /* \"#utility.yul\":5715:5833   */\n    tag_65:\n        /* \"#utility.yul\":5802:5826   */\n      tag_150\n        /* \"#utility.yul\":5820:5825   */\n      dup2\n        /* \"#utility.yul\":5802:5826   */\n      tag_56\n      jump\t// in\n    tag_150:\n        /* \"#utility.yul\":5797:5800   */\n      dup3\n        /* \"#utility.yul\":5790:5827   */\n      mstore\n        /* \"#utility.yul\":5715:5833   */\n      pop\n      pop\n      jump\t// out\n        /* \"#utility.yul\":5839:5938   */\n    tag_66:\n        /* \"#utility.yul\":5891:5897   */\n      0x00\n        /* \"#utility.yul\":5925:5930   */\n      dup2\n        /* \"#utility.yul\":5919:5931   */\n      mload\n        /* \"#utility.yul\":5909:5931   */\n      swap1\n      pop\n        /* \"#utility.yul\":5839:5938   */\n      swap2\n      swap1\n      pop\n      jump\t// out\n        /* \"#utility.yul\":5944:6113   */\n    tag_67:\n        /* \"#utility.yul\":6028:6039   */\n      0x00\n        /* \"#utility.yul\":6062:6068   */\n      dup3\n        /* \"#utility.yul\":6057:6060   */\n      dup3\n        /* \"#utility.yul\":6050:6069   */\n      mstore\n        /* \"#utility.yul\":6102:6106   */\n      0x20\n        /* \"#utility.yul\":6097:6100   */\n      dup3\n        /* \"#utility.yul\":6093:6107   */\n      add\n        /* \"#utility.yul\":6078:6107   */\n      swap1\n      pop\n        /* \"#utility.yul\":5944:6113   */\n      swap3\n      swap2\n      pop\n      pop\n      jump\t// out\n        /* \"#utility.yul\":6119:6365   */\n    tag_68:\n        /* \"#utility.yul\":6200:6201   */\n      0x00\n        /* \"#utility.yul\":6210:6323   */\n    tag_154:\n        /* \"#utility.yul\":6224:6230   */\n      dup4\n        /* \"#utility.yul\":6221:6222   */\n      dup2\n        /* \"#utility.yul\":6218:6231   */\n      lt\n        /* \"#utility.yul\":6210:6323   */\n      iszero\n      tag_156\n      jumpi\n        /* \"#utility.yul\":6309:6310   */\n      dup1\n        /* \"#utility.yul\":6304:6307   */\n      dup3\n        /* \"#utility.yul\":6300:6311   */\n      add\n        /* \"#utility.yul\":6294:6312   */\n      mload\n        /* \"#utility.yul\":6290:6291   */\n      dup2\n        /* \"#utility.yul\":6285:6288   */\n      dup5\n        /* \"#utility.yul\":6281:6292   */\n      add\n        /* \"#utility.yul\":6274:6313   */\n      mstore\n        /* \"#utility.yul\":6246:6248   */\n      0x20\n        /* \"#utility.yul\":6243:6244   */\n      dup2\n        /* \"#utility.yul\":6239:6249   */\n      add\n        /* \"#utility.yul\":6234:6249   */\n      swap1\n      pop\n        /* \"#utility.yul\":6210:6323   */\n      jump(tag_154)\n    tag_156:\n        /* \"#utility.yul\":6357:6358   */\n      0x00\n        /* \"#utility.yul\":6348:6354   */\n      dup5\n        /* \"#utility.yul\":6343:6346   */\n      dup5\n        /* \"#utility.yul\":6339:6355   */\n      add\n        /* \"#utility.yul\":6332:6359   */\n      mstore\n        /* \"#utility.yul\":6181:6365   */\n      pop\n        /* \"#utility.yul\":6119:6365   */\n      pop\n      pop\n      pop\n      jump\t// out\n        /* \"#utility.yul\":6371:6473   */\n    tag_69:\n        /* \"#utility.yul\":6412:6418   */\n      0x00\n        /* \"#utility.yul\":6463:6465   */\n      0x1f\n        /* \"#utility.yul\":6459:6466   */\n      not\n        /* \"#utility.yul\":6454:6456   */\n      0x1f\n        /* \"#utility.yul\":6447:6452   */\n      dup4\n        /* \"#utility.yul\":6443:6457   */\n      add\n        /* \"#utility.yul\":6439:6467   */\n      and\n        /* \"#utility.yul\":6429:6467   */\n      swap1\n      pop\n        /* \"#utility.yul\":6371:6473   */\n      swap2\n      swap1\n      pop\n      jump\t// out\n        /* \"#utility.yul\":6479:6856   */\n    tag_70:\n        /* \"#utility.yul\":6567:6570   */\n      0x00\n        /* \"#utility.yul\":6595:6634   */\n      tag_159\n        /* \"#utility.yul\":6628:6633   */\n      dup3\n        /* \"#utility.yul\":6595:6634   */\n      tag_66\n      jump\t// in\n    tag_159:\n        /* \"#utility.yul\":6650:6721   */\n      tag_160\n        /* \"#utility.yul\":6714:6720   */\n      dup2\n        /* \"#utility.yul\":6709:6712   */\n      dup6\n        /* \"#utility.yul\":6650:6721   */\n      tag_67\n      jump\t// in\n    tag_160:\n        /* \"#utility.yul\":6643:6721   */\n      swap4\n      pop\n        /* \"#utility.yul\":6730:6795   */\n      tag_161\n        /* \"#utility.yul\":6788:6794   */\n      dup2\n        /* \"#utility.yul\":6783:6786   */\n      dup6\n        /* \"#utility.yul\":6776:6780   */\n      0x20\n        /* \"#utility.yul\":6769:6774   */\n      dup7\n        /* \"#utility.yul\":6765:6781   */\n      add\n        /* \"#utility.yul\":6730:6795   */\n      tag_68\n      jump\t// in\n    tag_161:\n        /* \"#utility.yul\":6820:6849   */\n      tag_162\n        /* \"#utility.yul\":6842:6848   */\n      dup2\n        /* \"#utility.yul\":6820:6849   */\n      tag_69\n      jump\t// in\n    tag_162:\n        /* \"#utility.yul\":6815:6818   */\n      dup5\n        /* \"#utility.yul\":6811:6850   */\n      add\n        /* \"#utility.yul\":6804:6850   */\n      swap2\n      pop\n        /* \"#utility.yul\":6571:6856   */\n      pop\n        /* \"#utility.yul\":6479:6856   */\n      swap3\n      swap2\n      pop\n      pop\n      jump\t// out\n        /* \"#utility.yul\":6862:7285   */\n    tag_16:\n        /* \"#utility.yul\":7003:7007   */\n      0x00\n        /* \"#utility.yul\":7041:7043   */\n      0x40\n        /* \"#utility.yul\":7030:7039   */\n      dup3\n        /* \"#utility.yul\":7026:7044   */\n      add\n        /* \"#utility.yul\":7018:7044   */\n      swap1\n      pop\n        /* \"#utility.yul\":7054:7125   */\n      tag_164\n        /* \"#utility.yul\":7122:7123   */\n      0x00\n        /* \"#utility.yul\":7111:7120   */\n      dup4\n        /* \"#utility.yul\":7107:7124   */\n      add\n        /* \"#utility.yul\":7098:7104   */\n      dup6\n        /* \"#utility.yul\":7054:7125   */\n      tag_65\n      jump\t// in\n    tag_164:\n        /* \"#utility.yul\":7172:7181   */\n      dup2\n        /* \"#utility.yul\":7166:7170   */\n      dup2\n        /* \"#utility.yul\":7162:7182   */\n      sub\n        /* \"#utility.yul\":7157:7159   */\n      0x20\n        /* \"#utility.yul\":7146:7155   */\n      dup4\n        /* \"#utility.yul\":7142:7160   */\n      add\n        /* \"#utility.yul\":7135:7183   */\n      mstore\n        /* \"#utility.yul\":7200:7278   */\n      tag_165\n        /* \"#utility.yul\":7273:7277   */\n      dup2\n        /* \"#utility.yul\":7264:7270   */\n      dup5\n        /* \"#utility.yul\":7200:7278   */\n      tag_70\n      jump\t// in\n    tag_165:\n        /* \"#utility.yul\":7192:7278   */\n      swap1\n      pop\n        /* \"#utility.yul\":6862:7285   */\n      swap4\n      swap3\n      pop\n      pop\n      pop\n      jump\t// out\n        /* \"#utility.yul\":7291:7471   */\n    tag_33:\n        /* \"#utility.yul\":7339:7416   */\n      0x4e487b7100000000000000000000000000000000000000000000000000000000\n        /* \"#utility.yul\":7336:7337   */\n      0x00\n        /* \"#utility.yul\":7329:7417   */\n      mstore\n        /* \"#utility.yul\":7436:7440   */\n      0x41\n        /* \"#utility.yul\":7433:7434   */\n      0x04\n        /* \"#utility.yul\":7426:7441   */\n      mstore\n        /* \"#utility.yul\":7460:7464   */\n      0x24\n        /* \"#utility.yul\":7457:7458   */\n      0x00\n        /* \"#utility.yul\":7450:7465   */\n      revert\n        /* \"#utility.yul\":7477:7657   */\n    tag_71:\n        /* \"#utility.yul\":7525:7602   */\n      0x4e487b7100000000000000000000000000000000000000000000000000000000\n        /* \"#utility.yul\":7522:7523   */\n      0x00\n        /* \"#utility.yul\":7515:7603   */\n      mstore\n        /* \"#utility.yul\":7622:7626   */\n      0x22\n        /* \"#utility.yul\":7619:7620   */\n      0x04\n        /* \"#utility.yul\":7612:7627   */\n      mstore\n        /* \"#utility.yul\":7646:7650   */\n      0x24\n        /* \"#utility.yul\":7643:7644   */\n      0x00\n        /* \"#utility.yul\":7636:7651   */\n      revert\n        /* \"#utility.yul\":7663:7983   */\n    tag_22:\n        /* \"#utility.yul\":7707:7713   */\n      0x00\n        /* \"#utility.yul\":7744:7745   */\n      0x02\n        /* \"#utility.yul\":7738:7742   */\n      dup3\n        /* \"#utility.yul\":7734:7746   */\n      div\n        /* \"#utility.yul\":7724:7746   */\n      swap1\n      pop\n        /* \"#utility.yul\":7791:7792   */\n      0x01\n        /* \"#utility.yul\":7785:7789   */\n      dup3\n        /* \"#utility.yul\":7781:7793   */\n      and\n        /* \"#utility.yul\":7812:7830   */\n      dup1\n        /* \"#utility.yul\":7802:7883   */\n      tag_169\n      jumpi\n        /* \"#utility.yul\":7868:7872   */\n      0x7f\n        /* \"#utility.yul\":7860:7866   */\n      dup3\n        /* \"#utility.yul\":7856:7873   */\n      and\n        /* \"#utility.yul\":7846:7873   */\n      swap2\n      pop\n        /* \"#utility.yul\":7802:7883   */\n    tag_169:\n        /* \"#utility.yul\":7930:7932   */\n      0x20\n        /* \"#utility.yul\":7922:7928   */\n      dup3\n        /* \"#utility.yul\":7919:7933   */\n      lt\n        /* \"#utility.yul\":7899:7917   */\n      dup2\n        /* \"#utility.yul\":7896:7934   */\n      sub\n        /* \"#utility.yul\":7893:7977   */\n      tag_170\n      jumpi\n        /* \"#utility.yul\":7949:7967   */\n      tag_171\n      tag_71\n      jump\t// in\n    tag_171:\n        /* \"#utility.yul\":7893:7977   */\n    tag_170:\n        /* \"#utility.yul\":7714:7983   */\n      pop\n        /* \"#utility.yul\":7663:7983   */\n      swap2\n      swap1\n      pop\n      jump\t// out\n        /* \"#utility.yul\":7989:8130   */\n    tag_72:\n        /* \"#utility.yul\":8038:8042   */\n      0x00\n        /* \"#utility.yul\":8061:8064   */\n      dup2\n        /* \"#utility.yul\":8053:8064   */\n      swap1\n      pop\n        /* \"#utility.yul\":8084:8087   */\n      dup2\n        /* \"#utility.yul\":8081:8082   */\n      0x00\n        /* \"#utility.yul\":8074:8088   */\n      mstore\n        /* \"#utility.yul\":8118:8122   */\n      0x20\n        /* \"#utility.yul\":8115:8116   */\n      0x00\n        /* \"#utility.yul\":8105:8123   */\n      keccak256\n        /* \"#utility.yul\":8097:8123   */\n      swap1\n      pop\n        /* \"#utility.yul\":7989:8130   */\n      swap2\n      swap1\n      pop\n      jump\t// out\n        /* \"#utility.yul\":8136:8229   */\n    tag_73:\n        /* \"#utility.yul\":8173:8179   */\n      0x00\n        /* \"#utility.yul\":8220:8222   */\n      0x20\n        /* \"#utility.yul\":8215:8217   */\n      0x1f\n        /* \"#utility.yul\":8208:8213   */\n      dup4\n        /* \"#utility.yul\":8204:8218   */\n      add\n        /* \"#utility.yul\":8200:8223   */\n      div\n        /* \"#utility.yul\":8190:8223   */\n      swap1\n      pop\n        /* \"#utility.yul\":8136:8229   */\n      swap2\n      swap1\n      pop\n      jump\t// out\n        /* \"#utility.yul\":8235:8342   */\n    tag_74:\n        /* \"#utility.yul\":8279:8287   */\n      0x00\n        /* \"#utility.yul\":8329:8334   */\n      dup3\n        /* \"#utility.yul\":8323:8327   */\n      dup3\n        /* \"#utility.yul\":8319:8335   */\n      shl\n        /* \"#utility.yul\":8298:8335   */\n      swap1\n      pop\n        /* \"#utility.yul\":8235:8342   */\n      swap3\n      swap2\n      pop\n      pop\n      jump\t// out\n        /* \"#utility.yul\":8348:8741   */\n    tag_75:\n        /* \"#utility.yul\":8417:8423   */\n      0x00\n        /* \"#utility.yul\":8467:8468   */\n      0x08\n        /* \"#utility.yul\":8455:8465   */\n      dup4\n        /* \"#utility.yul\":8451:8469   */\n      mul\n        /* \"#utility.yul\":8490:8587   */\n      tag_176\n        /* \"#utility.yul\":8520:8586   */\n      0xffffffffffffffffffffffffffffffffffffffffffffffffffffffffffffffff\n        /* \"#utility.yul\":8509:8518   */\n      dup3\n        /* \"#utility.yul\":8490:8587   */\n      tag_74\n      jump\t// in\n    tag_176:\n        /* \"#utility.yul\":8608:8647   */\n      tag_177\n        /* \"#utility.yul\":8638:8646   */\n      dup7\n        /* \"#utility.yul\":8627:8636   */\n      dup4\n        /* \"#utility.yul\":8608:8647   */\n      tag_74\n      jump\t// in\n    tag_177:\n        /* \"#utility.yul\":8596:8647   */\n      swap6\n      pop\n        /* \"#utility.yul\":8680:8684   */\n      dup1\n        /* \"#utility.yul\":8676:8685   */\n      not\n        /* \"#utility.yul\":8669:8674   */\n      dup5\n        /* \"#utility.yul\":8665:8686   */\n      and\n        /* \"#utility.yul\":8656:8686   */\n      swap4\n      pop\n        /* \"#utility.yul\":8729:8733   */\n      dup1\n        /* \"#utility.yul\":8719:8727   */\n      dup7\n        /* \"#utility.yul\":8715:8734   */\n      and\n        /* \"#utility.yul\":8708:8713   */\n      dup5\n        /* \"#utility.yul\":8705:8735   */\n      or\n        /* \"#utility.yul\":8695:8735   */\n      swap3\n      pop\n        /* \"#utility.yul\":8424:8741   */\n      pop\n      pop\n        /* \"#utility.yul\":8348:8741   */\n      swap4\n      swap3\n      pop\n      pop\n      pop\n      jump\t// out\n        /* \"#utility.yul\":8747:8807   */\n    tag_76:\n        /* \"#utility.yul\":8775:8778   */\n      0x00\n        /* \"#utility.yul\":8796:8801   */\n      dup2\n        /* \"#utility.yul\":8789:8801   */\n      swap1\n      pop\n        /* \"#utility.yul\":8747:8807   */\n      swap2\n      swap1\n      pop\n      jump\t// out\n        /* \"#utility.yul\":8813:8955   */\n    tag_77:\n        /* \"#utility.yul\":8863:8872   */\n      0x00\n        /* \"#utility.yul\":8896:8949   */\n      tag_180\n        /* \"#utility.yul\":8914:8948   */\n      tag_181\n        /* \"#utility.yul\":8923:8947   */\n      tag_182\n        /* \"#utility.yul\":8941:8946   */\n      dup5\n        /* \"#utility.yul\":8923:8947   */\n      tag_56\n      jump\t// in\n    tag_182:\n        /* \"#utility.yul\":8914:8948   */\n      tag_76\n      jump\t// in\n    tag_181:\n        /* \"#utility.yul\":8896:8949   */\n      tag_56\n      jump\t// in\n    tag_180:\n        /* \"#utility.yul\":8883:8949   */\n      swap1\n      pop\n        /* \"#utility.yul\":8813:8955   */\n      swap2\n      swap1\n      pop\n      jump\t// out\n        /* \"#utility.yul\":8961:9036   */\n    tag_78:\n        /* \"#utility.yul\":9004:9007   */\n      0x00\n        /* \"#utility.yul\":9025:9030   */\n      dup2\n        /* \"#utility.yul\":9018:9030   */\n      swap1\n      pop\n        /* \"#utility.yul\":8961:9036   */\n      swap2\n      swap1\n      pop\n      jump\t// out\n        /* \"#utility.yul\":9042:9311   */\n    tag_79:\n        /* \"#utility.yul\":9152:9191   */\n      tag_185\n        /* \"#utility.yul\":9183:9190   */\n      dup4\n        /* \"#utility.yul\":9152:9191   */\n      tag_77\n      jump\t// in\n    tag_185:\n        /* \"#utility.yul\":9213:9304   */\n      tag_186\n        /* \"#utility.yul\":9262:9303   */\n      tag_187\n        /* \"#utility.yul\":9286:9302   */\n      dup3\n        /* \"#utility.yul\":9262:9303   */\n      tag_78\n      jump\t// in\n    tag_187:\n        /* \"#utility.yul\":9254:9260   */\n      dup5\n        /* \"#utility.yul\":9247:9251   */\n      dup5\n        /* \"#utility.yul\":9241:9252   */\n      sload\n        /* \"#utility.yul\":9213:9304   */\n      tag_75\n      jump\t// in\n    tag_186:\n        /* \"#utility.yul\":9207:9211   */\n      dup3\n        /* \"#utility.yul\":9200:9305   */\n      sstore\n        /* \"#utility.yul\":9118:9311   */\n      pop\n        /* \"#utility.yul\":9042:9311   */\n      pop\n      pop\n      pop\n      jump\t// out\n        /* \"#utility.yul\":9317:9390   */\n    tag_80:\n        /* \"#utility.yul\":9362:9365   */\n      0x00\n        /* \"#utility.yul\":9317:9390   */\n      swap1\n      jump\t// out\n        /* \"#utility.yul\":9396:9585   */\n    tag_81:\n        /* \"#utility.yul\":9473:9505   */\n      tag_190\n      tag_80\n      jump\t// in\n    tag_190:\n        /* \"#utility.yul\":9514:9579   */\n      tag_191\n        /* \"#utility.yul\":9572:9578   */\n      dup2\n        /* \"#utility.yul\":9564:9570   */\n      dup5\n        /* \"#utility.yul\":9558:9562   */\n      dup5\n        /* \"#utility.yul\":9514:9579   */\n      tag_79\n      jump\t// in\n    tag_191:\n        /* \"#utility.yul\":9449:9585   */\n      pop\n        /* \"#utility.yul\":9396:9585   */\n      pop\n      pop\n      jump\t// out\n        /* \"#utility.yul\":9591:9777   */\n    tag_82:\n        /* \"#utility.yul\":9651:9771   */\n    tag_193:\n        /* \"#utility.yul\":9668:9671   */\n      dup2\n        /* \"#utility.yul\":9661:9666   */\n      dup2\n        /* \"#utility.yul\":9658:9672   */\n      lt\n        /* \"#utility.yul\":9651:9771   */\n      iszero\n      tag_195\n      jumpi\n        /* \"#utility.yul\":9722:9761   */\n      tag_196\n        /* \"#utility.yul\":9759:9760   */\n      0x00\n        /* \"#utility.yul\":9752:9757   */\n      dup3\n        /* \"#utility.yul\":9722:9761   */\n      tag_81\n      jump\t// in\n    tag_196:\n        /* \"#utility.yul\":9695:9696   */\n      0x01\n        /* \"#utility.yul\":9688:9693   */\n      dup2\n        /* \"#utility.yul\":9684:9697   */\n      add\n        /* \"#utility.yul\":9675:9697   */\n      swap1\n      pop\n        /* \"#utility.yul\":9651:9771   */\n      jump(tag_193)\n    tag_195:\n        /* \"#utility.yul\":9591:9777   */\n      pop\n      pop\n      jump\t// out\n        /* \"#utility.yul\":9783:10326   */\n    tag_83:\n        /* \"#utility.yul\":9884:9886   */\n      0x1f\n        /* \"#utility.yul\":9879:9882   */\n      dup3\n        /* \"#utility.yul\":9876:9887   */\n      gt\n        /* \"#utility.yul\":9873:10319   */\n      iszero\n      tag_198\n      jumpi\n        /* \"#utility.yul\":9918:9956   */\n      tag_199\n        /* \"#utility.yul\":9950:9955   */\n      dup2\n        /* \"#utility.yul\":9918:9956   */\n      tag_72\n      jump\t// in\n    tag_199:\n        /* \"#utility.yul\":10002:10031   */\n      tag_200\n        /* \"#utility.yul\":10020:10030   */\n      dup5\n        /* \"#utility.yul\":10002:10031   */\n      tag_73\n      jump\t// in\n    tag_200:\n        /* \"#utility.yul\":9992:10000   */\n      dup2\n        /* \"#utility.yul\":9988:10032   */\n      add\n        /* \"#utility.yul\":10185:10187   */\n      0x20\n        /* \"#utility.yul\":10173:10183   */\n      dup6\n        /* \"#utility.yul\":10170:10188   */\n      lt\n        /* \"#utility.yul\":10167:10216   */\n      iszero\n      tag_201\n      jumpi\n        /* \"#utility.yul\":10206:10214   */\n      dup2\n        /* \"#utility.yul\":10191:10214   */\n      swap1\n      pop\n        /* \"#utility.yul\":10167:10216   */\n    tag_201:\n        /* \"#utility.yul\":10229:10309   */\n      tag_202\n        /* \"#utility.yul\":10285:10307   */\n      tag_203\n        /* \"#utility.yul\":10303:10306   */\n      dup6\n        /* \"#utility.yul\":10285:10307   */\n      tag_73\n      jump\t// in\n    tag_203:\n        /* \"#utility.yul\":10275:10283   */\n      dup4\n        /* \"#utility.yul\":10271:10308   */\n      add\n        /* \"#utility.yul\":10258:10269   */\n      dup3\n        /* \"#utility.yul\":10229:10309   */\n      tag_82\n      jump\t// in\n    tag_202:\n        /* \"#utility.yul\":9888:10319   */\n      pop\n      pop\n        /* \"#utility.yul\":9873:10319   */\n    tag_198:\n        /* \"#utility.yul\":9783:10326   */\n      pop\n      pop\n      pop\n      jump\t// out\n        /* \"#utility.yul\":10332:10449   */\n    tag_84:\n        /* \"#utility.yul\":10386:10394   */\n      0x00\n        /* \"#utility.yul\":10436:10441   */\n      dup3\n        /* \"#utility.yul\":10430:10434   */\n      dup3\n        /* \"#utility.yul\":10426:10442   */\n      shr\n        /* \"#utility.yul\":10405:10442   */\n      swap1\n      pop\n        /* \"#utility.yul\":10332:10449   */\n      swap3\n      swap2\n      pop\n      pop\n      jump\t// out\n        /* \"#utility.yul\":10455:10624   */\n    tag_85:\n        /* \"#utility.yul\":10499:10505   */\n      0x00\n        /* \"#utility.yul\":10532:10583   */\n      tag_206\n        /* \"#utility.yul\":10580:10581   */\n      0x00\n        /* \"#utility.yul\":10576:10582   */\n      not\n        /* \"#utility.yul\":10568:10573   */\n      dup5\n        /* \"#utility.yul\":10565:10566   */\n      0x08\n        /* \"#utility.yul\":10561:10574   */\n      mul\n        /* \"#utility.yul\":10532:10583   */\n      tag_84\n      jump\t// in\n    tag_206:\n        /* \"#utility.yul\":10528:10584   */\n      not\n        /* \"#utility.yul\":10613:10617   */\n      dup1\n        /* \"#utility.yul\":10607:10611   */\n      dup4\n        /* \"#utility.yul\":10603:10618   */\n      and\n        /* \"#utility.yul\":10593:10618   */\n      swap2\n      pop\n        /* \"#utility.yul\":10506:10624   */\n      pop\n        /* \"#utility.yul\":10455:10624   */\n      swap3\n      swap2\n      pop\n      pop\n      jump\t// out\n        /* \"#utility.yul\":10629:10924   */\n    tag_86:\n        /* \"#utility.yul\":10705:10709   */\n      0x00\n        /* \"#utility.yul\":10851:10880   */\n      tag_208\n        /* \"#utility.yul\":10876:10879   */\n      dup4\n        /* \"#utility.yul\":10870:10874   */\n      dup4\n        /* \"#utility.yul\":10851:10880   */\n      tag_85\n      jump\t// in\n    tag_208:\n        /* \"#utility.yul\":10843:10880   */\n      swap2\n      pop\n        /* \"#utility.yul\":10913:10916   */\n      dup3\n        /* \"#utility.yul\":10910:10911   */\n      0x02\n        /* \"#utility.yul\":10906:10917   */\n      mul\n        /* \"#utility.yul\":10900:10904   */\n      dup3\n        /* \"#utility.yul\":10897:10918   */\n      or\n        /* \"#utility.yul\":10889:10918   */\n      swap1\n      pop\n        /* \"#utility.yul\":10629:10924   */\n      swap3\n      swap2\n      pop\n      pop\n      jump\t// out\n        /* \"#utility.yul\":10929:12324   */\n    tag_19:\n        /* \"#utility.yul\":11046:11083   */\n      tag_210\n        /* \"#utility.yul\":11079:11082   */\n      dup3\n        /* \"#utility.yul\":11046:11083   */\n      tag_66\n      jump\t// in\n    tag_210:\n        /* \"#utility.yul\":11148:11166   */\n      0xffffffffffffffff\n        /* \"#utility.yul\":11140:11146   */\n      dup2\n        /* \"#utility.yul\":11137:11167   */\n      gt\n        /* \"#utility.yul\":11134:11190   */\n      iszero\n      tag_211\n      jumpi\n        /* \"#utility.yul\":11170:11188   */\n      tag_212\n      tag_33\n      jump\t// in\n    tag_212:\n        /* \"#utility.yul\":11134:11190   */\n    tag_211:\n        /* \"#utility.yul\":11214:11252   */\n      tag_213\n        /* \"#utility.yul\":11246:11250   */\n      dup3\n        /* \"#utility.yul\":11240:11251   */\n      sload\n        /* \"#utility.yul\":11214:11252   */\n      tag_22\n      jump\t// in\n    tag_213:\n        /* \"#utility.yul\":11299:11366   */\n      tag_214\n        /* \"#utility.yul\":11359:11365   */\n      dup3\n        /* \"#utility.yul\":11351:11357   */\n      dup3\n        /* \"#utility.yul\":11345:11349   */\n      dup6\n        /* \"#utility.yul\":11299:11366   */\n      tag_83\n      jump\t// in\n    tag_214:\n        /* \"#utility.yul\":11393:11394   */\n      0x00\n        /* \"#utility.yul\":11417:11421   */\n      0x20\n        /* \"#utility.yul\":11404:11421   */\n      swap1\n      pop\n        /* \"#utility.yul\":11449:11451   */\n      0x1f\n        /* \"#utility.yul\":11441:11447   */\n      dup4\n        /* \"#utility.yul\":11438:11452   */\n      gt\n        /* \"#utility.yul\":11466:11467   */\n      0x01\n        /* \"#utility.yul\":11461:12079   */\n      dup2\n      eq\n      tag_216\n      jumpi\n        /* \"#utility.yul\":12123:12124   */\n      0x00\n        /* \"#utility.yul\":12140:12146   */\n      dup5\n        /* \"#utility.yul\":12137:12214   */\n      iszero\n      tag_217\n      jumpi\n        /* \"#utility.yul\":12189:12198   */\n      dup3\n        /* \"#utility.yul\":12184:12187   */\n      dup8\n        /* \"#utility.yul\":12180:12199   */\n      add\n        /* \"#utility.yul\":12174:12200   */\n      mload\n        /* \"#utility.yul\":12165:12200   */\n      swap1\n      pop\n        /* \"#utility.yul\":12137:12214   */\n    tag_217:\n        /* \"#utility.yul\":12240:12307   */\n      tag_218\n        /* \"#utility.yul\":12300:12306   */\n      dup6\n        /* \"#utility.yul\":12293:12298   */\n      dup3\n        /* \"#utility.yul\":12240:12307   */\n      tag_86\n      jump\t// in\n    tag_218:\n        /* \"#utility.yul\":12234:12238   */\n      dup7\n        /* \"#utility.yul\":12227:12308   */\n      sstore\n        /* \"#utility.yul\":12096:12318   */\n      pop\n        /* \"#utility.yul\":11431:12318   */\n      jump(tag_215)\n        /* \"#utility.yul\":11461:12079   */\n    tag_216:\n        /* \"#utility.yul\":11513:11517   */\n      0x1f\n        /* \"#utility.yul\":11509:11518   */\n      not\n        /* \"#utility.yul\":11501:11507   */\n      dup5\n        /* \"#utility.yul\":11497:11519   */\n      and\n        /* \"#utility.yul\":11547:11584   */\n      tag_219\n        /* \"#utility.yul\":11579:11583   */\n      dup7\n        /* \"#utility.yul\":11547:11584   */\n      tag_72\n      jump\t// in\n    tag_219:\n        /* \"#utility.yul\":11606:11607   */\n      0x00\n        /* \"#utility.yul\":11620:11828   */\n    tag_220:\n        /* \"#utility.yul\":11634:11641   */\n      dup3\n        /* \"#utility.yul\":11631:11632   */\n      dup2\n        /* \"#utility.yul\":11628:11642   */\n      lt\n        /* \"#utility.yul\":11620:11828   */\n      iszero\n      tag_222\n      jumpi\n        /* \"#utility.yul\":11713:11722   */\n      dup5\n        /* \"#utility.yul\":11708:11711   */\n      dup10\n        /* \"#utility.yul\":11704:11723   */\n      add\n        /* \"#utility.yul\":11698:11724   */\n      mload\n        /* \"#utility.yul\":11690:11696   */\n      dup3\n        /* \"#utility.yul\":11683:11725   */\n      sstore\n        /* \"#utility.yul\":11764:11765   */\n      0x01\n        /* \"#utility.yul\":11756:11762   */\n      dup3\n        /* \"#utility.yul\":11752:11766   */\n      add\n        /* \"#utility.yul\":11742:11766   */\n      swap2\n      pop\n        /* \"#utility.yul\":11811:11813   */\n      0x20\n        /* \"#utility.yul\":11800:11809   */\n      dup6\n        /* \"#utility.yul\":11796:11814   */\n      add\n        /* \"#utility.yul\":11783:11814   */\n      swap5\n      pop\n        /* \"#utility.yul\":11657:11661   */\n      0x20\n        /* \"#utility.yul\":11654:11655   */\n      dup2\n        /* \"#utility.yul\":11650:11662   */\n      add\n        /* \"#utility.yul\":11645:11662   */\n      swap1\n      pop\n        /* \"#utility.yul\":11620:11828   */\n      jump(tag_220)\n    tag_222:\n        /* \"#utility.yul\":11856:11862   */\n      dup7\n        /* \"#utility.yul\":11847:11854   */\n      dup4\n        /* \"#utility.yul\":11844:11863   */\n      lt\n        /* \"#utility.yul\":11841:12020   */\n      iszero\n      tag_223\n      jumpi\n        /* \"#utility.yul\":11914:11923   */\n      dup5\n        /* \"#utility.yul\":11909:11912   */\n      dup10\n        /* \"#utility.yul\":11905:11924   */\n      add\n        /* \"#utility.yul\":11899:11925   */\n      mload\n        /* \"#utility.yul\":11957:12005   */\n      tag_224\n        /* \"#utility.yul\":11999:12003   */\n      0x1f\n        /* \"#utility.yul\":11991:11997   */\n      dup10\n        /* \"#utility.yul\":11987:12004   */\n      and\n        /* \"#utility.yul\":11976:11985   */\n      dup3\n        /* \"#utility.yul\":11957:12005   */\n      tag_85\n      jump\t// in\n    tag_224:\n        /* \"#utility.yul\":11949:11955   */\n      dup4\n        /* \"#utility.yul\":11942:12006   */\n      sstore\n        /* \"#utility.yul\":11864:12020   */\n      pop\n        /* \"#utility.yul\":11841:12020   */\n    tag_223:\n        /* \"#utility.yul\":12066:12067   */\n      0x01\n        /* \"#utility.yul\":12062:12063   */\n      0x02\n        /* \"#utility.yul\":12054:12060   */\n      dup9\n        /* \"#utility.yul\":12050:12064   */\n      mul\n        /* \"#utility.yul\":12046:12068   */\n      add\n        /* \"#utility.yul\":12040:12044   */\n      dup9\n        /* \"#utility.yul\":12033:12069   */\n      sstore\n        /* \"#utility.yul\":11468:12079   */\n      pop\n      pop\n      pop\n        /* \"#utility.yul\":11431:12318   */\n    tag_215:\n      pop\n        /* \"#utility.yul\":11021:12324   */\n      pop\n      pop\n      pop\n        /* \"#utility.yul\":10929:12324   */\n      pop\n      pop\n      jump\t// out\n        /* \"#utility.yul\":12330:12510   */\n    tag_37:\n        /* \"#utility.yul\":12378:12455   */\n      0x4e487b7100000000000000000000000000000000000000000000000000000000\n        /* \"#utility.yul\":12375:12376   */\n      0x00\n        /* \"#utility.yul\":12368:12456   */\n      mstore\n        /* \"#utility.yul\":12475:12479   */\n      0x32\n        /* \"#utility.yul\":12472:12473   */\n      0x04\n        /* \"#utility.yul\":12465:12480   */\n      mstore\n        /* \"#utility.yul\":12499:12503   */\n      0x24\n        /* \"#utility.yul\":12496:12497   */\n      0x00\n        /* \"#utility.yul\":12489:12504   */\n      revert\n\n    auxdata: 0xa26469706673582212204f6f171804008f6ee42797b5ce946fab710edfe60679b2f93430d45f57c0fd6364736f6c63430008120033\n}\n",
				"bytecode": {
					"linkReferences": {},
					"object": "608060405234801561001057600080fd5b50610b0a806100206000396000f3fe608060405234801561001057600080fd5b50600436106100365760003560e01c80639837ae1a1461003b578063b43c5d331461006b575b600080fd5b610055600480360381019061005091906104d3565b61009c565b604051610062919061061c565b60405180910390f35b6100856004803603810190610080919061069c565b61035a565b604051610093929190610768565b60405180910390f35b60606040518060400160405280607b81526020016040518060400160405280600381526020017f62617200000000000000000000000000000000000000000000000000000000008152508152506000803373ffffffffffffffffffffffffffffffffffffffff1673ffffffffffffffffffffffffffffffffffffffff16815260200190815260200160002060008201518160000155602082015181600101908161014691906109d3565b5090505060008060003373ffffffffffffffffffffffffffffffffffffffff1673ffffffffffffffffffffffffffffffffffffffff16815260200190815260200160002090506040518060400160405280600381526020017f666f6f00000000000000000000000000000000000000000000000000000000008152508160010190816101d291906109d3565b5060008060003373ffffffffffffffffffffffffffffffffffffffff1673ffffffffffffffffffffffffffffffffffffffff16815260200190815260200160002060405180604001604052908160008201548152602001600182018054610238906107f6565b80601f0160208091040260200160405190810160405280929190818152602001828054610264906107f6565b80156102b15780601f10610286576101008083540402835291602001916102b1565b820191906000526020600020905b81548152906001019060200180831161029457829003601f168201915b50505050508152505090506101c88160000181815250506102d28787610406565b6102dc858561040a565b6000600367ffffffffffffffff8111156102f9576102f8610798565b5b6040519080825280602002602001820160405280156103275781602001602082028036833780820191505090505b5090506022816000815181106103405761033f610aa5565b5b602002602001018181525050809350505050949350505050565b6000602052806000526040600020600091509050806000015490806001018054610383906107f6565b80601f01602080910402602001604051908101604052809291908181526020018280546103af906107f6565b80156103fc5780601f106103d1576101008083540402835291602001916103fc565b820191906000526020600020905b8154815290600101906020018083116103df57829003601f168201915b5050505050905082565b5050565b5050565b600080fd5b600080fd5b600080fd5b600080fd5b600080fd5b60008083601f84011261043d5761043c610418565b5b8235905067ffffffffffffffff81111561045a5761045961041d565b5b60208301915083602082028301111561047657610475610422565b5b9250929050565b60008083601f84011261049357610492610418565b5b8235905067ffffffffffffffff8111156104b0576104af61041d565b5b6020830191508360018202830111156104cc576104cb610422565b5b9250929050565b600080600080604085870312156104ed576104ec61040e565b5b600085013567ffffffffffffffff81111561050b5761050a610413565b5b61051787828801610427565b9450945050602085013567ffffffffffffffff81111561053a57610539610413565b5b6105468782880161047d565b925092505092959194509250565b600081519050919050565b600082825260208201905092915050565b6000819050602082019050919050565b6000819050919050565b61059381610580565b82525050565b60006105a5838361058a565b60208301905092915050565b6000602082019050919050565b60006105c982610554565b6105d3818561055f565b93506105de83610570565b8060005b8381101561060f5781516105f68882610599565b9750610601836105b1565b9250506001810190506105e2565b5085935050505092915050565b6000602082019050818103600083015261063681846105be565b905092915050565b600073ffffffffffffffffffffffffffffffffffffffff82169050919050565b60006106698261063e565b9050919050565b6106798161065e565b811461068457600080fd5b50565b60008135905061069681610670565b92915050565b6000602082840312156106b2576106b161040e565b5b60006106c084828501610687565b91505092915050565b6106d281610580565b82525050565b600081519050919050565b600082825260208201905092915050565b60005b838110156107125780820151818401526020810190506106f7565b60008484015250505050565b6000601f19601f8301169050919050565b600061073a826106d8565b61074481856106e3565b93506107548185602086016106f4565b61075d8161071e565b840191505092915050565b600060408201905061077d60008301856106c9565b818103602083015261078f818461072f565b90509392505050565b7f4e487b7100000000000000000000000000000000000000000000000000000000600052604160045260246000fd5b7f4e487b7100000000000000000000000000000000000000000000000000000000600052602260045260246000fd5b6000600282049050600182168061080e57607f821691505b602082108103610821576108206107c7565b5b50919050565b60008190508160005260206000209050919050565b60006020601f8301049050919050565b600082821b905092915050565b6000600883026108897fffffffffffffffffffffffffffffffffffffffffffffffffffffffffffffffff8261084c565b610893868361084c565b95508019841693508086168417925050509392505050565b6000819050919050565b60006108d06108cb6108c684610580565b6108ab565b610580565b9050919050565b6000819050919050565b6108ea836108b5565b6108fe6108f6826108d7565b848454610859565b825550505050565b600090565b610913610906565b61091e8184846108e1565b505050565b5b818110156109425761093760008261090b565b600181019050610924565b5050565b601f8211156109875761095881610827565b6109618461083c565b81016020851015610970578190505b61098461097c8561083c565b830182610923565b50505b505050565b600082821c905092915050565b60006109aa6000198460080261098c565b1980831691505092915050565b60006109c38383610999565b9150826002028217905092915050565b6109dc826106d8565b67ffffffffffffffff8111156109f5576109f4610798565b5b6109ff82546107f6565b610a0a828285610946565b600060209050601f831160018114610a3d5760008415610a2b578287015190505b610a3585826109b7565b865550610a9d565b601f198416610a4b86610827565b60005b82811015610a7357848901518255600182019150602085019450602081019050610a4e565b86831015610a905784890151610a8c601f891682610999565b8355505b6001600288020188555050505b505050505050565b7f4e487b7100000000000000000000000000000000000000000000000000000000600052603260045260246000fdfea26469706673582212204f6f171804008f6ee42797b5ce946fab710edfe60679b2f93430d45f57c0fd6364736f6c63430008120033",
					"opcodes": "PUSH1 0x80 PUSH1 0x40 MSTORE CALLVALUE DUP1 ISZERO PUSH2 0x10 JUMPI PUSH1 0x0 DUP1 REVERT JUMPDEST POP PUSH2 0xB0A DUP1 PUSH2 0x20 PUSH1 0x0 CODECOPY PUSH1 0x0 RETURN INVALID PUSH1 0x80 PUSH1 0x40 MSTORE CALLVALUE DUP1 ISZERO PUSH2 0x10 JUMPI PUSH1 0x0 DUP1 REVERT JUMPDEST POP PUSH1 0x4 CALLDATASIZE LT PUSH2 0x36 JUMPI PUSH1 0x0 CALLDATALOAD PUSH1 0xE0 SHR DUP1 PUSH4 0x9837AE1A EQ PUSH2 0x3B JUMPI DUP1 PUSH4 0xB43C5D33 EQ PUSH2 0x6B JUMPI JUMPDEST PUSH1 0x0 DUP1 REVERT JUMPDEST PUSH2 0x55 PUSH1 0x4 DUP1 CALLDATASIZE SUB DUP2 ADD SWAP1 PUSH2 0x50 SWAP2 SWAP1 PUSH2 0x4D3 JUMP JUMPDEST PUSH2 0x9C JUMP JUMPDEST PUSH1 0x40 MLOAD PUSH2 0x62 SWAP2 SWAP1 PUSH2 0x61C JUMP JUMPDEST PUSH1 0x40 MLOAD DUP1 SWAP2 SUB SWAP1 RETURN JUMPDEST PUSH2 0x85 PUSH1 0x4 DUP1 CALLDATASIZE SUB DUP2 ADD SWAP1 PUSH2 0x80 SWAP2 SWAP1 PUSH2 0x69C JUMP JUMPDEST PUSH2 0x35A JUMP JUMPDEST PUSH1 0x40 MLOAD PUSH2 0x93 SWAP3 SWAP2 SWAP1 PUSH2 0x768 JUMP JUMPDEST PUSH1 0x40 MLOAD DUP1 SWAP2 SUB SWAP1 RETURN JUMPDEST PUSH1 0x60 PUSH1 0x40 MLOAD DUP1 PUSH1 0x40 ADD PUSH1 0x40 MSTORE DUP1 PUSH1 0x7B DUP2 MSTORE PUSH1 0x20 ADD PUSH1 0x40 MLOAD DUP1 PUSH1 0x40 ADD PUSH1 0x40 MSTORE DUP1 PUSH1 0x3 DUP2 MSTORE PUSH1 0x20 ADD PUSH32 0x6261720000000000000000000000000000000000000000000000000000000000 DUP2 MSTORE POP DUP2 MSTORE POP PUSH1 0x0 DUP1 CALLER PUSH20 0xFFFFFFFFFFFFFFFFFFFFFFFFFFFFFFFFFFFFFFFF AND PUSH20 0xFFFFFFFFFFFFFFFFFFFFFFFFFFFFFFFFFFFFFFFF AND DUP2 MSTORE PUSH1 0x20 ADD SWAP1 DUP2 MSTORE PUSH1 0x20 ADD PUSH1 0x0 KECCAK256 PUSH1 0x0 DUP3 ADD MLOAD DUP2 PUSH1 0x0 ADD SSTORE PUSH1 0x20 DUP3 ADD MLOAD DUP2 PUSH1 0x1 ADD SWAP1 DUP2 PUSH2 0x146 SWAP2 SWAP1 PUSH2 0x9D3 JUMP JUMPDEST POP SWAP1 POP POP PUSH1 0x0 DUP1 PUSH1 0x0 CALLER PUSH20 0xFFFFFFFFFFFFFFFFFFFFFFFFFFFFFFFFFFFFFFFF AND PUSH20 0xFFFFFFFFFFFFFFFFFFFFFFFFFFFFFFFFFFFFFFFF AND DUP2 MSTORE PUSH1 0x20 ADD SWAP1 DUP2 MSTORE PUSH1 0x20 ADD PUSH1 0x0 KECCAK256 SWAP1 POP PUSH1 0x40 MLOAD DUP1 PUSH1 0x40 ADD PUSH1 0x40 MSTORE DUP1 PUSH1 0x3 DUP2 MSTORE PUSH1 0x20 ADD PUSH32 0x666F6F0000000000000000000000000000000000000000000000000000000000 DUP2 MSTORE POP DUP2 PUSH1 0x1 ADD SWAP1 DUP2 PUSH2 0x1D2 SWAP2 SWAP1 PUSH2 0x9D3 JUMP JUMPDEST POP PUSH1 0x0 DUP1 PUSH1 0x0 CALLER PUSH20 0xFFFFFFFFFFFFFFFFFFFFFFFFFFFFFFFFFFFFFFFF AND PUSH20 0xFFFFFFFFFFFFFFFFFFFFFFFFFFFFFFFFFFFFFFFF AND DUP2 MSTORE PUSH1 0x20 ADD SWAP1 DUP2 MSTORE PUSH1 0x20 ADD PUSH1 0x0 KECCAK256 PUSH1 0x40 MLOAD DUP1 PUSH1 0x40 ADD PUSH1 0x40 MSTORE SWAP1 DUP2 PUSH1 0x0 DUP3 ADD SLOAD DUP2 MSTORE PUSH1 0x20 ADD PUSH1 0x1 DUP3 ADD DUP1 SLOAD PUSH2 0x238 SWAP1 PUSH2 0x7F6 JUMP JUMPDEST DUP1 PUSH1 0x1F ADD PUSH1 0x20 DUP1 SWAP2 DIV MUL PUSH1 0x20 ADD PUSH1 0x40 MLOAD SWAP1 DUP2 ADD PUSH1 0x40 MSTORE DUP1 SWAP3 SWAP2 SWAP1 DUP2 DUP2 MSTORE PUSH1 0x20 ADD DUP3 DUP1 SLOAD PUSH2 0x264 SWAP1 PUSH2 0x7F6 JUMP JUMPDEST DUP1 ISZERO PUSH2 0x2B1 JUMPI DUP1 PUSH1 0x1F LT PUSH2 0x286 JUMPI PUSH2 0x100 DUP1 DUP4 SLOAD DIV MUL DUP4 MSTORE SWAP2 PUSH1 0x20 ADD SWAP2 PUSH2 0x2B1 JUMP JUMPDEST DUP3 ADD SWAP2 SWAP1 PUSH1 0x0 MSTORE PUSH1 0x20 PUSH1 0x0 KECCAK256 SWAP1 JUMPDEST DUP2 SLOAD DUP2 MSTORE SWAP1 PUSH1 0x1 ADD SWAP1 PUSH1 0x20 ADD DUP1 DUP4 GT PUSH2 0x294 JUMPI DUP3 SWAP1 SUB PUSH1 0x1F AND DUP3 ADD SWAP2 JUMPDEST POP POP POP POP POP DUP2 MSTORE POP POP SWAP1 POP PUSH2 0x1C8 DUP2 PUSH1 0x0 ADD DUP2 DUP2 MSTORE POP POP PUSH2 0x2D2 DUP8 DUP8 PUSH2 0x406 JUMP JUMPDEST PUSH2 0x2DC DUP6 DUP6 PUSH2 0x40A JUMP JUMPDEST PUSH1 0x0 PUSH1 0x3 PUSH8 0xFFFFFFFFFFFFFFFF DUP2 GT ISZERO PUSH2 0x2F9 JUMPI PUSH2 0x2F8 PUSH2 0x798 JUMP JUMPDEST JUMPDEST PUSH1 0x40 MLOAD SWAP1 DUP1 DUP3 MSTORE DUP1 PUSH1 0x20 MUL PUSH1 0x20 ADD DUP3 ADD PUSH1 0x40 MSTORE DUP1 ISZERO PUSH2 0x327 JUMPI DUP2 PUSH1 0x20 ADD PUSH1 0x20 DUP3 MUL DUP1 CALLDATASIZE DUP4 CALLDATACOPY DUP1 DUP3 ADD SWAP2 POP POP SWAP1 POP JUMPDEST POP SWAP1 POP PUSH1 0x22 DUP2 PUSH1 0x0 DUP2 MLOAD DUP2 LT PUSH2 0x340 JUMPI PUSH2 0x33F PUSH2 0xAA5 JUMP JUMPDEST JUMPDEST PUSH1 0x20 MUL PUSH1 0x20 ADD ADD DUP2 DUP2 MSTORE POP POP DUP1 SWAP4 POP POP POP POP SWAP5 SWAP4 POP POP POP POP JUMP JUMPDEST PUSH1 0x0 PUSH1 0x20 MSTORE DUP1 PUSH1 0x0 MSTORE PUSH1 0x40 PUSH1 0x0 KECCAK256 PUSH1 0x0 SWAP2 POP SWAP1 POP DUP1 PUSH1 0x0 ADD SLOAD SWAP1 DUP1 PUSH1 0x1 ADD DUP1 SLOAD PUSH2 0x383 SWAP1 PUSH2 0x7F6 JUMP JUMPDEST DUP1 PUSH1 0x1F ADD PUSH1 0x20 DUP1 SWAP2 DIV MUL PUSH1 0x20 ADD PUSH1 0x40 MLOAD SWAP1 DUP2 ADD PUSH1 0x40 MSTORE DUP1 SWAP3 SWAP2 SWAP1 DUP2 DUP2 MSTORE PUSH1 0x20 ADD DUP3 DUP1 SLOAD PUSH2 0x3AF SWAP1 PUSH2 0x7F6 JUMP JUMPDEST DUP1 ISZERO PUSH2 0x3FC JUMPI DUP1 PUSH1 0x1F LT PUSH2 0x3D1 JUMPI PUSH2 0x100 DUP1 DUP4 SLOAD DIV MUL DUP4 MSTORE SWAP2 PUSH1 0x20 ADD SWAP2 PUSH2 0x3FC JUMP JUMPDEST DUP3 ADD SWAP2 SWAP1 PUSH1 0x0 MSTORE PUSH1 0x20 PUSH1 0x0 KECCAK256 SWAP1 JUMPDEST DUP2 SLOAD DUP2 MSTORE SWAP1 PUSH1 0x1 ADD SWAP1 PUSH1 0x20 ADD DUP1 DUP4 GT PUSH2 0x3DF JUMPI DUP3 SWAP1 SUB PUSH1 0x1F AND DUP3 ADD SWAP2 JUMPDEST POP POP POP POP POP SWAP1 POP DUP3 JUMP JUMPDEST POP POP JUMP JUMPDEST POP POP JUMP JUMPDEST PUSH1 0x0 DUP1 REVERT JUMPDEST PUSH1 0x0 DUP1 REVERT JUMPDEST PUSH1 0x0 DUP1 REVERT JUMPDEST PUSH1 0x0 DUP1 REVERT JUMPDEST PUSH1 0x0 DUP1 REVERT JUMPDEST PUSH1 0x0 DUP1 DUP4 PUSH1 0x1F DUP5 ADD SLT PUSH2 0x43D JUMPI PUSH2 0x43C PUSH2 0x418 JUMP JUMPDEST JUMPDEST DUP3 CALLDATALOAD SWAP1 POP PUSH8 0xFFFFFFFFFFFFFFFF DUP2 GT ISZERO PUSH2 0x45A JUMPI PUSH2 0x459 PUSH2 0x41D JUMP JUMPDEST JUMPDEST PUSH1 0x20 DUP4 ADD SWAP2 POP DUP4 PUSH1 0x20 DUP3 MUL DUP4 ADD GT ISZERO PUSH2 0x476 JUMPI PUSH2 0x475 PUSH2 0x422 JUMP JUMPDEST JUMPDEST SWAP3 POP SWAP3 SWAP1 POP JUMP JUMPDEST PUSH1 0x0 DUP1 DUP4 PUSH1 0x1F DUP5 ADD SLT PUSH2 0x493 JUMPI PUSH2 0x492 PUSH2 0x418 JUMP JUMPDEST JUMPDEST DUP3 CALLDATALOAD SWAP1 POP PUSH8 0xFFFFFFFFFFFFFFFF DUP2 GT ISZERO PUSH2 0x4B0 JUMPI PUSH2 0x4AF PUSH2 0x41D JUMP JUMPDEST JUMPDEST PUSH1 0x20 DUP4 ADD SWAP2 POP DUP4 PUSH1 0x1 DUP3 MUL DUP4 ADD GT ISZERO PUSH2 0x4CC JUMPI PUSH2 0x4CB PUSH2 0x422 JUMP JUMPDEST JUMPDEST SWAP3 POP SWAP3 SWAP1 POP JUMP JUMPDEST PUSH1 0x0 DUP1 PUSH1 0x0 DUP1 PUSH1 0x40 DUP6 DUP8 SUB SLT ISZERO PUSH2 0x4ED JUMPI PUSH2 0x4EC PUSH2 0x40E JUMP JUMPDEST JUMPDEST PUSH1 0x0 DUP6 ADD CALLDATALOAD PUSH8 0xFFFFFFFFFFFFFFFF DUP2 GT ISZERO PUSH2 0x50B JUMPI PUSH2 0x50A PUSH2 0x413 JUMP JUMPDEST JUMPDEST PUSH2 0x517 DUP8 DUP3 DUP9 ADD PUSH2 0x427 JUMP JUMPDEST SWAP5 POP SWAP5 POP POP PUSH1 0x20 DUP6 ADD CALLDATALOAD PUSH8 0xFFFFFFFFFFFFFFFF DUP2 GT ISZERO PUSH2 0x53A JUMPI PUSH2 0x539 PUSH2 0x413 JUMP JUMPDEST JUMPDEST PUSH2 0x546 DUP8 DUP3 DUP9 ADD PUSH2 0x47D JUMP JUMPDEST SWAP3 POP SWAP3 POP POP SWAP3 SWAP6 SWAP2 SWAP5 POP SWAP3 POP JUMP JUMPDEST PUSH1 0x0 DUP2 MLOAD SWAP1 POP SWAP2 SWAP1 POP JUMP JUMPDEST PUSH1 0x0 DUP3 DUP3 MSTORE PUSH1 0x20 DUP3 ADD SWAP1 POP SWAP3 SWAP2 POP POP JUMP JUMPDEST PUSH1 0x0 DUP2 SWAP1 POP PUSH1 0x20 DUP3 ADD SWAP1 POP SWAP2 SWAP1 POP JUMP JUMPDEST PUSH1 0x0 DUP2 SWAP1 POP SWAP2 SWAP1 POP JUMP JUMPDEST PUSH2 0x593 DUP2 PUSH2 0x580 JUMP JUMPDEST DUP3 MSTORE POP POP JUMP JUMPDEST PUSH1 0x0 PUSH2 0x5A5 DUP4 DUP4 PUSH2 0x58A JUMP JUMPDEST PUSH1 0x20 DUP4 ADD SWAP1 POP SWAP3 SWAP2 POP POP JUMP JUMPDEST PUSH1 0x0 PUSH1 0x20 DUP3 ADD SWAP1 POP SWAP2 SWAP1 POP JUMP JUMPDEST PUSH1 0x0 PUSH2 0x5C9 DUP3 PUSH2 0x554 JUMP JUMPDEST PUSH2 0x5D3 DUP2 DUP6 PUSH2 0x55F JUMP JUMPDEST SWAP4 POP PUSH2 0x5DE DUP4 PUSH2 0x570 JUMP JUMPDEST DUP1 PUSH1 0x0 JUMPDEST DUP4 DUP2 LT ISZERO PUSH2 0x60F JUMPI DUP2 MLOAD PUSH2 0x5F6 DUP9 DUP3 PUSH2 0x599 JUMP JUMPDEST SWAP8 POP PUSH2 0x601 DUP4 PUSH2 0x5B1 JUMP JUMPDEST SWAP3 POP POP PUSH1 0x1 DUP2 ADD SWAP1 POP PUSH2 0x5E2 JUMP JUMPDEST POP DUP6 SWAP4 POP POP POP POP SWAP3 SWAP2 POP POP JUMP JUMPDEST PUSH1 0x0 PUSH1 0x20 DUP3 ADD SWAP1 POP DUP2 DUP2 SUB PUSH1 0x0 DUP4 ADD MSTORE PUSH2 0x636 DUP2 DUP5 PUSH2 0x5BE JUMP JUMPDEST SWAP1 POP SWAP3 SWAP2 POP POP JUMP JUMPDEST PUSH1 0x0 PUSH20 0xFFFFFFFFFFFFFFFFFFFFFFFFFFFFFFFFFFFFFFFF DUP3 AND SWAP1 POP SWAP2 SWAP1 POP JUMP JUMPDEST PUSH1 0x0 PUSH2 0x669 DUP3 PUSH2 0x63E JUMP JUMPDEST SWAP1 POP SWAP2 SWAP1 POP JUMP JUMPDEST PUSH2 0x679 DUP2 PUSH2 0x65E JUMP JUMPDEST DUP2 EQ PUSH2 0x684 JUMPI PUSH1 0x0 DUP1 REVERT JUMPDEST POP JUMP JUMPDEST PUSH1 0x0 DUP2 CALLDATALOAD SWAP1 POP PUSH2 0x696 DUP2 PUSH2 0x670 JUMP JUMPDEST SWAP3 SWAP2 POP POP JUMP JUMPDEST PUSH1 0x0 PUSH1 0x20 DUP3 DUP5 SUB SLT ISZERO PUSH2 0x6B2 JUMPI PUSH2 0x6B1 PUSH2 0x40E JUMP JUMPDEST JUMPDEST PUSH1 0x0 PUSH2 0x6C0 DUP5 DUP3 DUP6 ADD PUSH2 0x687 JUMP JUMPDEST SWAP2 POP POP SWAP3 SWAP2 POP POP JUMP JUMPDEST PUSH2 0x6D2 DUP2 PUSH2 0x580 JUMP JUMPDEST DUP3 MSTORE POP POP JUMP JUMPDEST PUSH1 0x0 DUP2 MLOAD SWAP1 POP SWAP2 SWAP1 POP JUMP JUMPDEST PUSH1 0x0 DUP3 DUP3 MSTORE PUSH1 0x20 DUP3 ADD SWAP1 POP SWAP3 SWAP2 POP POP JUMP JUMPDEST PUSH1 0x0 JUMPDEST DUP4 DUP2 LT ISZERO PUSH2 0x712 JUMPI DUP1 DUP3 ADD MLOAD DUP2 DUP5 ADD MSTORE PUSH1 0x20 DUP2 ADD SWAP1 POP PUSH2 0x6F7 JUMP JUMPDEST PUSH1 0x0 DUP5 DUP5 ADD MSTORE POP POP POP POP JUMP JUMPDEST PUSH1 0x0 PUSH1 0x1F NOT PUSH1 0x1F DUP4 ADD AND SWAP1 POP SWAP2 SWAP1 POP JUMP JUMPDEST PUSH1 0x0 PUSH2 0x73A DUP3 PUSH2 0x6D8 JUMP JUMPDEST PUSH2 0x744 DUP2 DUP6 PUSH2 0x6E3 JUMP JUMPDEST SWAP4 POP PUSH2 0x754 DUP2 DUP6 PUSH1 0x20 DUP7 ADD PUSH2 0x6F4 JUMP JUMPDEST PUSH2 0x75D DUP2 PUSH2 0x71E JUMP JUMPDEST DUP5 ADD SWAP2 POP POP SWAP3 SWAP2 POP POP JUMP JUMPDEST PUSH1 0x0 PUSH1 0x40 DUP3 ADD SWAP1 POP PUSH2 0x77D PUSH1 0x0 DUP4 ADD DUP6 PUSH2 0x6C9 JUMP JUMPDEST DUP2 DUP2 SUB PUSH1 0x20 DUP4 ADD MSTORE PUSH2 0x78F DUP2 DUP5 PUSH2 0x72F JUMP JUMPDEST SWAP1 POP SWAP4 SWAP3 POP POP POP JUMP JUMPDEST PUSH32 0x4E487B7100000000000000000000000000000000000000000000000000000000 PUSH1 0x0 MSTORE PUSH1 0x41 PUSH1 0x4 MSTORE PUSH1 0x24 PUSH1 0x0 REVERT JUMPDEST PUSH32 0x4E487B7100000000000000000000000000000000000000000000000000000000 PUSH1 0x0 MSTORE PUSH1 0x22 PUSH1 0x4 MSTORE PUSH1 0x24 PUSH1 0x0 REVERT JUMPDEST PUSH1 0x0 PUSH1 0x2 DUP3 DIV SWAP1 POP PUSH1 0x1 DUP3 AND DUP1 PUSH2 0x80E JUMPI PUSH1 0x7F DUP3 AND SWAP2 POP JUMPDEST PUSH1 0x20 DUP3 LT DUP2 SUB PUSH2 0x821 JUMPI PUSH2 0x820 PUSH2 0x7C7 JUMP JUMPDEST JUMPDEST POP SWAP2 SWAP1 POP JUMP JUMPDEST PUSH1 0x0 DUP2 SWAP1 POP DUP2 PUSH1 0x0 MSTORE PUSH1 0x20 PUSH1 0x0 KECCAK256 SWAP1 POP SWAP2 SWAP1 POP JUMP JUMPDEST PUSH1 0x0 PUSH1 0x20 PUSH1 0x1F DUP4 ADD DIV SWAP1 POP SWAP2 SWAP1 POP JUMP JUMPDEST PUSH1 0x0 DUP3 DUP3 SHL SWAP1 POP SWAP3 SWAP2 POP POP JUMP JUMPDEST PUSH1 0x0 PUSH1 0x8 DUP4 MUL PUSH2 0x889 PUSH32 0xFFFFFFFFFFFFFFFFFFFFFFFFFFFFFFFFFFFFFFFFFFFFFFFFFFFFFFFFFFFFFFFF DUP3 PUSH2 0x84C JUMP JUMPDEST PUSH2 0x893 DUP7 DUP4 PUSH2 0x84C JUMP JUMPDEST SWAP6 POP DUP1 NOT DUP5 AND SWAP4 POP DUP1 DUP7 AND DUP5 OR SWAP3 POP POP POP SWAP4 SWAP3 POP POP POP JUMP JUMPDEST PUSH1 0x0 DUP2 SWAP1 POP SWAP2 SWAP1 POP JUMP JUMPDEST PUSH1 0x0 PUSH2 0x8D0 PUSH2 0x8CB PUSH2 0x8C6 DUP5 PUSH2 0x580 JUMP JUMPDEST PUSH2 0x8AB JUMP JUMPDEST PUSH2 0x580 JUMP JUMPDEST SWAP1 POP SWAP2 SWAP1 POP JUMP JUMPDEST PUSH1 0x0 DUP2 SWAP1 POP SWAP2 SWAP1 POP JUMP JUMPDEST PUSH2 0x8EA DUP4 PUSH2 0x8B5 JUMP JUMPDEST PUSH2 0x8FE PUSH2 0x8F6 DUP3 PUSH2 0x8D7 JUMP JUMPDEST DUP5 DUP5 SLOAD PUSH2 0x859 JUMP JUMPDEST DUP3 SSTORE POP POP POP POP JUMP JUMPDEST PUSH1 0x0 SWAP1 JUMP JUMPDEST PUSH2 0x913 PUSH2 0x906 JUMP JUMPDEST PUSH2 0x91E DUP2 DUP5 DUP5 PUSH2 0x8E1 JUMP JUMPDEST POP POP POP JUMP JUMPDEST JUMPDEST DUP2 DUP2 LT ISZERO PUSH2 0x942 JUMPI PUSH2 0x937 PUSH1 0x0 DUP3 PUSH2 0x90B JUMP JUMPDEST PUSH1 0x1 DUP2 ADD SWAP1 POP PUSH2 0x924 JUMP JUMPDEST POP POP JUMP JUMPDEST PUSH1 0x1F DUP3 GT ISZERO PUSH2 0x987 JUMPI PUSH2 0x958 DUP2 PUSH2 0x827 JUMP JUMPDEST PUSH2 0x961 DUP5 PUSH2 0x83C JUMP JUMPDEST DUP2 ADD PUSH1 0x20 DUP6 LT ISZERO PUSH2 0x970 JUMPI DUP2 SWAP1 POP JUMPDEST PUSH2 0x984 PUSH2 0x97C DUP6 PUSH2 0x83C JUMP JUMPDEST DUP4 ADD DUP3 PUSH2 0x923 JUMP JUMPDEST POP POP JUMPDEST POP POP POP JUMP JUMPDEST PUSH1 0x0 DUP3 DUP3 SHR SWAP1 POP SWAP3 SWAP2 POP POP JUMP JUMPDEST PUSH1 0x0 PUSH2 0x9AA PUSH1 0x0 NOT DUP5 PUSH1 0x8 MUL PUSH2 0x98C JUMP JUMPDEST NOT DUP1 DUP4 AND SWAP2 POP POP SWAP3 SWAP2 POP POP JUMP JUMPDEST PUSH1 0x0 PUSH2 0x9C3 DUP4 DUP4 PUSH2 0x999 JUMP JUMPDEST SWAP2 POP DUP3 PUSH1 0x2 MUL DUP3 OR SWAP1 POP SWAP3 SWAP2 POP POP JUMP JUMPDEST PUSH2 0x9DC DUP3 PUSH2 0x6D8 JUMP JUMPDEST PUSH8 0xFFFFFFFFFFFFFFFF DUP2 GT ISZERO PUSH2 0x9F5 JUMPI PUSH2 0x9F4 PUSH2 0x798 JUMP JUMPDEST JUMPDEST PUSH2 0x9FF DUP3 SLOAD PUSH2 0x7F6 JUMP JUMPDEST PUSH2 0xA0A DUP3 DUP3 DUP6 PUSH2 0x946 JUMP JUMPDEST PUSH1 0x0 PUSH1 0x20 SWAP1 POP PUSH1 0x1F DUP4 GT PUSH1 0x1 DUP2 EQ PUSH2 0xA3D JUMPI PUSH1 0x0 DUP5 ISZERO PUSH2 0xA2B JUMPI DUP3 DUP8 ADD MLOAD SWAP1 POP JUMPDEST PUSH2 0xA35 DUP6 DUP3 PUSH2 0x9B7 JUMP JUMPDEST DUP7 SSTORE POP PUSH2 0xA9D JUMP JUMPDEST PUSH1 0x1F NOT DUP5 AND PUSH2 0xA4B DUP7 PUSH2 0x827 JUMP JUMPDEST PUSH1 0x0 JUMPDEST DUP3 DUP2 LT ISZERO PUSH2 0xA73 JUMPI DUP5 DUP10 ADD MLOAD DUP3 SSTORE PUSH1 0x1 DUP3 ADD SWAP2 POP PUSH1 0x20 DUP6 ADD SWAP5 POP PUSH1 0x20 DUP2 ADD SWAP1 POP PUSH2 0xA4E JUMP JUMPDEST DUP7 DUP4 LT ISZERO PUSH2 0xA90 JUMPI DUP5 DUP10 ADD MLOAD PUSH2 0xA8C PUSH1 0x1F DUP10 AND DUP3 PUSH2 0x999 JUMP JUMPDEST DUP4 SSTORE POP JUMPDEST PUSH1 0x1 PUSH1 0x2 DUP9 MUL ADD DUP9 SSTORE POP POP POP JUMPDEST POP POP POP POP POP POP JUMP JUMPDEST PUSH32 0x4E487B7100000000000000000000000000000000000000000000000000000000 PUSH1 0x0 MSTORE PUSH1 0x32 PUSH1 0x4 MSTORE PUSH1 0x24 PUSH1 0x0 REVERT INVALID LOG2 PUSH5 0x6970667358 0x22 SLT KECCAK256 0x4F PUSH16 0x171804008F6EE42797B5CE946FAB710E 0xDF 0xE6 MOD PUSH26 0xB2F93430D45F57C0FD6364736F6C634300081200330000000000 "
				},
				"gasEstimates": {
					"creation": {
						"codeDepositCost": "565200",
						"executionCost": "600",
						"totalCost": "565800"
					},
					"external": {
						"example(uint256[],string)": "infinite",
						"myStructs(address)": "infinite"
					},
					"internal": {
						"_internal(uint256[] calldata)": "13",
						"_internal2(string calldata)": "13"
					}
				},
				"methodIdentifiers": {
					"example(uint256[],string)": "9837ae1a",
					"myStructs(address)": "b43c5d33"
				}
			},
			"storageLayout": {
				"storage": [
					{
						"astId": 11,
						"contract": "DataLocations.sol:DataLocations",
						"label": "myStructs",
						"offset": 0,
						"slot": "0",
						"type": "t_mapping(t_address,t_struct(MyStruct)6_storage)"
					}
				],
				"types": {
					"t_address": {
						"encoding": "inplace",
						"label": "address",
						"numberOfBytes": "20"
					},
					"t_mapping(t_address,t_struct(MyStruct)6_storage)": {
						"encoding": "mapping",
						"key": "t_address",
						"label": "mapping(address => struct DataLocations.MyStruct)",
						"numberOfBytes": "32",
						"value": "t_struct(MyStruct)6_storage"
					},
					"t_string_storage": {
						"encoding": "bytes",
						"label": "string",
						"numberOfBytes": "32"
					},
					"t_struct(MyStruct)6_storage": {
						"encoding": "inplace",
						"label": "struct DataLocations.MyStruct",
						"members": [
							{
								"astId": 3,
								"contract": "DataLocations.sol:DataLocations",
								"label": "foo",
								"offset": 0,
								"slot": "0",
								"type": "t_uint256"
							},
							{
								"astId": 5,
								"contract": "DataLocations.sol:DataLocations",
								"label": "text",
								"offset": 0,
								"slot": "1",
								"type": "t_string_storage"
							}
						],
						"numberOfBytes": "64"
					},
					"t_uint256": {
						"encoding": "inplace",
						"label": "uint256",
						"numberOfBytes": "32"
					}
				}
			},
			"userdoc": {
				"kind": "user",
				"methods": {},
				"version": 1
			}
		}
	}
}