{
	"FallBackInputOutput.sol": {
		"TestFallbackInputOutput": {
			"abi": [
				{
					"anonymous": false,
					"inputs": [
						{
							"indexed": false,
							"internalType": "bytes",
							"name": "res",
							"type": "bytes"
						}
					],
					"name": "Log",
					"type": "event"
				},
				{
					"inputs": [],
					"name": "getTestData",
					"outputs": [
						{
							"internalType": "bytes",
							"name": "",
							"type": "bytes"
						},
						{
							"internalType": "bytes",
							"name": "",
							"type": "bytes"
						}
					],
					"stateMutability": "pure",
					"type": "function"
				},
				{
					"inputs": [
						{
							"internalType": "address",
							"name": "_fallback",
							"type": "address"
						},
						{
							"internalType": "bytes",
							"name": "data",
							"type": "bytes"
						}
					],
					"name": "test",
					"outputs": [],
					"stateMutability": "nonpayable",
					"type": "function"
				}
			],
			"devdoc": {
				"kind": "dev",
				"methods": {},
				"version": 1
			},
			"evm": {
				"assembly": "    /* \"FallBackInputOutput.sol\":714:1153  contract TestFallbackInputOutput {... */\n  mstore(0x40, 0x80)\n  callvalue\n  dup1\n  iszero\n  tag_1\n  jumpi\n  0x00\n  dup1\n  revert\ntag_1:\n  pop\n  dataSize(sub_0)\n  dup1\n  dataOffset(sub_0)\n  0x00\n  codecopy\n  0x00\n  return\nstop\n\nsub_0: assembly {\n        /* \"FallBackInputOutput.sol\":714:1153  contract TestFallbackInputOutput {... */\n      mstore(0x40, 0x80)\n      callvalue\n      dup1\n      iszero\n      tag_1\n      jumpi\n      0x00\n      dup1\n      revert\n    tag_1:\n      pop\n      jumpi(tag_2, lt(calldatasize, 0x04))\n      shr(0xe0, calldataload(0x00))\n      dup1\n      0x6610f5ca\n      eq\n      tag_3\n      jumpi\n      dup1\n      0x93e01418\n      eq\n      tag_4\n      jumpi\n    tag_2:\n      0x00\n      dup1\n      revert\n        /* \"FallBackInputOutput.sol\":984:1150  function getTestData() external pure returns (bytes memory, bytes memory) {... */\n    tag_3:\n      tag_5\n      tag_6\n      jump\t// in\n    tag_5:\n      mload(0x40)\n      tag_7\n      swap3\n      swap2\n      swap1\n      tag_8\n      jump\t// in\n    tag_7:\n      mload(0x40)\n      dup1\n      swap2\n      sub\n      swap1\n      return\n        /* \"FallBackInputOutput.sol\":783:976  function test(address _fallback, bytes calldata data) external {... */\n    tag_4:\n      tag_9\n      0x04\n      dup1\n      calldatasize\n      sub\n      dup2\n      add\n      swap1\n      tag_10\n      swap2\n      swap1\n      tag_11\n      jump\t// in\n    tag_10:\n      tag_12\n      jump\t// in\n    tag_9:\n      stop\n        /* \"FallBackInputOutput.sol\":984:1150  function getTestData() external pure returns (bytes memory, bytes memory) {... */\n    tag_6:\n        /* \"FallBackInputOutput.sol\":1030:1042  bytes memory */\n      0x60\n        /* \"FallBackInputOutput.sol\":1044:1056  bytes memory */\n      dup1\n        /* \"FallBackInputOutput.sol\":1077:1108  abi.encodeCall(Counter.get, ()) */\n      add(0x24, mload(0x40))\n      mload(0x40)\n      0x20\n      dup2\n      dup4\n      sub\n      sub\n      dup2\n      mstore\n      swap1\n      0x40\n      mstore\n      shl(0xe0, 0x6d4ce63c)\n      0x20\n      dup3\n      add\n      dup1\n      mload\n      0xffffffffffffffffffffffffffffffffffffffffffffffffffffffff\n      dup4\n      dup2\n      dup4\n      and\n      or\n      dup4\n      mstore\n      pop\n      pop\n      pop\n      pop\n        /* \"FallBackInputOutput.sol\":1110:1141  abi.encodeCall(Counter.inc, ()) */\n      add(0x24, mload(0x40))\n      mload(0x40)\n      0x20\n      dup2\n      dup4\n      sub\n      sub\n      dup2\n      mstore\n      swap1\n      0x40\n      mstore\n      shl(0xe0, 0x371303c0)\n      0x20\n      dup3\n      add\n      dup1\n      mload\n      0xffffffffffffffffffffffffffffffffffffffffffffffffffffffff\n      dup4\n      dup2\n      dup4\n      and\n      or\n      dup4\n      mstore\n      pop\n      pop\n      pop\n      pop\n        /* \"FallBackInputOutput.sol\":1069:1142  return (abi.encodeCall(Counter.get, ()), abi.encodeCall(Counter.inc, ())) */\n      swap2\n      pop\n      swap2\n      pop\n        /* \"FallBackInputOutput.sol\":984:1150  function getTestData() external pure returns (bytes memory, bytes memory) {... */\n      swap1\n      swap2\n      jump\t// out\n        /* \"FallBackInputOutput.sol\":783:976  function test(address _fallback, bytes calldata data) external {... */\n    tag_12:\n        /* \"FallBackInputOutput.sol\":858:865  bool ok */\n      0x00\n        /* \"FallBackInputOutput.sol\":867:883  bytes memory res */\n      dup1\n        /* \"FallBackInputOutput.sol\":887:896  _fallback */\n      dup5\n        /* \"FallBackInputOutput.sol\":887:901  _fallback.call */\n      0xffffffffffffffffffffffffffffffffffffffff\n      and\n        /* \"FallBackInputOutput.sol\":902:906  data */\n      dup5\n      dup5\n        /* \"FallBackInputOutput.sol\":887:907  _fallback.call(data) */\n      mload(0x40)\n      tag_15\n      swap3\n      swap2\n      swap1\n      tag_16\n      jump\t// in\n    tag_15:\n      0x00\n      mload(0x40)\n      dup1\n      dup4\n      sub\n      dup2\n      0x00\n      dup7\n      gas\n      call\n      swap2\n      pop\n      pop\n      returndatasize\n      dup1\n      0x00\n      dup2\n      eq\n      tag_19\n      jumpi\n      mload(0x40)\n      swap2\n      pop\n      and(add(returndatasize, 0x3f), not(0x1f))\n      dup3\n      add\n      0x40\n      mstore\n      returndatasize\n      dup3\n      mstore\n      returndatasize\n      0x00\n      0x20\n      dup5\n      add\n      returndatacopy\n      jump(tag_18)\n    tag_19:\n      0x60\n      swap2\n      pop\n    tag_18:\n      pop\n        /* \"FallBackInputOutput.sol\":857:907  (bool ok, bytes memory res) = _fallback.call(data) */\n      swap2\n      pop\n      swap2\n      pop\n        /* \"FallBackInputOutput.sol\":926:928  ok */\n      dup2\n        /* \"FallBackInputOutput.sol\":918:944  require(ok, \"call failed\") */\n      tag_20\n      jumpi\n      mload(0x40)\n      0x08c379a000000000000000000000000000000000000000000000000000000000\n      dup2\n      mstore\n      0x04\n      add\n      tag_21\n      swap1\n      tag_22\n      jump\t// in\n    tag_21:\n      mload(0x40)\n      dup1\n      swap2\n      sub\n      swap1\n      revert\n    tag_20:\n        /* \"FallBackInputOutput.sol\":960:968  Log(res) */\n      0xafabcf2dd47e06a477a89e49c03f8ebe8e0a7e94f775b25bbb24227c9d0110b2\n        /* \"FallBackInputOutput.sol\":964:967  res */\n      dup2\n        /* \"FallBackInputOutput.sol\":960:968  Log(res) */\n      mload(0x40)\n      tag_23\n      swap2\n      swap1\n      tag_24\n      jump\t// in\n    tag_23:\n      mload(0x40)\n      dup1\n      swap2\n      sub\n      swap1\n      log1\n        /* \"FallBackInputOutput.sol\":846:976  {... */\n      pop\n      pop\n        /* \"FallBackInputOutput.sol\":783:976  function test(address _fallback, bytes calldata data) external {... */\n      pop\n      pop\n      pop\n      jump\t// out\n        /* \"#utility.yul\":7:105   */\n    tag_25:\n        /* \"#utility.yul\":58:64   */\n      0x00\n        /* \"#utility.yul\":92:97   */\n      dup2\n        /* \"#utility.yul\":86:98   */\n      mload\n        /* \"#utility.yul\":76:98   */\n      swap1\n      pop\n        /* \"#utility.yul\":7:105   */\n      swap2\n      swap1\n      pop\n      jump\t// out\n        /* \"#utility.yul\":111:279   */\n    tag_26:\n        /* \"#utility.yul\":194:205   */\n      0x00\n        /* \"#utility.yul\":228:234   */\n      dup3\n        /* \"#utility.yul\":223:226   */\n      dup3\n        /* \"#utility.yul\":216:235   */\n      mstore\n        /* \"#utility.yul\":268:272   */\n      0x20\n        /* \"#utility.yul\":263:266   */\n      dup3\n        /* \"#utility.yul\":259:273   */\n      add\n        /* \"#utility.yul\":244:273   */\n      swap1\n      pop\n        /* \"#utility.yul\":111:279   */\n      swap3\n      swap2\n      pop\n      pop\n      jump\t// out\n        /* \"#utility.yul\":285:531   */\n    tag_27:\n        /* \"#utility.yul\":366:367   */\n      0x00\n        /* \"#utility.yul\":376:489   */\n    tag_51:\n        /* \"#utility.yul\":390:396   */\n      dup4\n        /* \"#utility.yul\":387:388   */\n      dup2\n        /* \"#utility.yul\":384:397   */\n      lt\n        /* \"#utility.yul\":376:489   */\n      iszero\n      tag_53\n      jumpi\n        /* \"#utility.yul\":475:476   */\n      dup1\n        /* \"#utility.yul\":470:473   */\n      dup3\n        /* \"#utility.yul\":466:477   */\n      add\n        /* \"#utility.yul\":460:478   */\n      mload\n        /* \"#utility.yul\":456:457   */\n      dup2\n        /* \"#utility.yul\":451:454   */\n      dup5\n        /* \"#utility.yul\":447:458   */\n      add\n        /* \"#utility.yul\":440:479   */\n      mstore\n        /* \"#utility.yul\":412:414   */\n      0x20\n        /* \"#utility.yul\":409:410   */\n      dup2\n        /* \"#utility.yul\":405:415   */\n      add\n        /* \"#utility.yul\":400:415   */\n      swap1\n      pop\n        /* \"#utility.yul\":376:489   */\n      jump(tag_51)\n    tag_53:\n        /* \"#utility.yul\":523:524   */\n      0x00\n        /* \"#utility.yul\":514:520   */\n      dup5\n        /* \"#utility.yul\":509:512   */\n      dup5\n        /* \"#utility.yul\":505:521   */\n      add\n        /* \"#utility.yul\":498:525   */\n      mstore\n        /* \"#utility.yul\":347:531   */\n      pop\n        /* \"#utility.yul\":285:531   */\n      pop\n      pop\n      pop\n      jump\t// out\n        /* \"#utility.yul\":537:639   */\n    tag_28:\n        /* \"#utility.yul\":578:584   */\n      0x00\n        /* \"#utility.yul\":629:631   */\n      0x1f\n        /* \"#utility.yul\":625:632   */\n      not\n        /* \"#utility.yul\":620:622   */\n      0x1f\n        /* \"#utility.yul\":613:618   */\n      dup4\n        /* \"#utility.yul\":609:623   */\n      add\n        /* \"#utility.yul\":605:633   */\n      and\n        /* \"#utility.yul\":595:633   */\n      swap1\n      pop\n        /* \"#utility.yul\":537:639   */\n      swap2\n      swap1\n      pop\n      jump\t// out\n        /* \"#utility.yul\":645:1018   */\n    tag_29:\n        /* \"#utility.yul\":731:734   */\n      0x00\n        /* \"#utility.yul\":759:797   */\n      tag_56\n        /* \"#utility.yul\":791:796   */\n      dup3\n        /* \"#utility.yul\":759:797   */\n      tag_25\n      jump\t// in\n    tag_56:\n        /* \"#utility.yul\":813:883   */\n      tag_57\n        /* \"#utility.yul\":876:882   */\n      dup2\n        /* \"#utility.yul\":871:874   */\n      dup6\n        /* \"#utility.yul\":813:883   */\n      tag_26\n      jump\t// in\n    tag_57:\n        /* \"#utility.yul\":806:883   */\n      swap4\n      pop\n        /* \"#utility.yul\":892:957   */\n      tag_58\n        /* \"#utility.yul\":950:956   */\n      dup2\n        /* \"#utility.yul\":945:948   */\n      dup6\n        /* \"#utility.yul\":938:942   */\n      0x20\n        /* \"#utility.yul\":931:936   */\n      dup7\n        /* \"#utility.yul\":927:943   */\n      add\n        /* \"#utility.yul\":892:957   */\n      tag_27\n      jump\t// in\n    tag_58:\n        /* \"#utility.yul\":982:1011   */\n      tag_59\n        /* \"#utility.yul\":1004:1010   */\n      dup2\n        /* \"#utility.yul\":982:1011   */\n      tag_28\n      jump\t// in\n    tag_59:\n        /* \"#utility.yul\":977:980   */\n      dup5\n        /* \"#utility.yul\":973:1012   */\n      add\n        /* \"#utility.yul\":966:1012   */\n      swap2\n      pop\n        /* \"#utility.yul\":735:1018   */\n      pop\n        /* \"#utility.yul\":645:1018   */\n      swap3\n      swap2\n      pop\n      pop\n      jump\t// out\n        /* \"#utility.yul\":1024:1530   */\n    tag_8:\n        /* \"#utility.yul\":1181:1185   */\n      0x00\n        /* \"#utility.yul\":1219:1221   */\n      0x40\n        /* \"#utility.yul\":1208:1217   */\n      dup3\n        /* \"#utility.yul\":1204:1222   */\n      add\n        /* \"#utility.yul\":1196:1222   */\n      swap1\n      pop\n        /* \"#utility.yul\":1268:1277   */\n      dup2\n        /* \"#utility.yul\":1262:1266   */\n      dup2\n        /* \"#utility.yul\":1258:1278   */\n      sub\n        /* \"#utility.yul\":1254:1255   */\n      0x00\n        /* \"#utility.yul\":1243:1252   */\n      dup4\n        /* \"#utility.yul\":1239:1256   */\n      add\n        /* \"#utility.yul\":1232:1279   */\n      mstore\n        /* \"#utility.yul\":1296:1372   */\n      tag_61\n        /* \"#utility.yul\":1367:1371   */\n      dup2\n        /* \"#utility.yul\":1358:1364   */\n      dup6\n        /* \"#utility.yul\":1296:1372   */\n      tag_29\n      jump\t// in\n    tag_61:\n        /* \"#utility.yul\":1288:1372   */\n      swap1\n      pop\n        /* \"#utility.yul\":1419:1428   */\n      dup2\n        /* \"#utility.yul\":1413:1417   */\n      dup2\n        /* \"#utility.yul\":1409:1429   */\n      sub\n        /* \"#utility.yul\":1404:1406   */\n      0x20\n        /* \"#utility.yul\":1393:1402   */\n      dup4\n        /* \"#utility.yul\":1389:1407   */\n      add\n        /* \"#utility.yul\":1382:1430   */\n      mstore\n        /* \"#utility.yul\":1447:1523   */\n      tag_62\n        /* \"#utility.yul\":1518:1522   */\n      dup2\n        /* \"#utility.yul\":1509:1515   */\n      dup5\n        /* \"#utility.yul\":1447:1523   */\n      tag_29\n      jump\t// in\n    tag_62:\n        /* \"#utility.yul\":1439:1523   */\n      swap1\n      pop\n        /* \"#utility.yul\":1024:1530   */\n      swap4\n      swap3\n      pop\n      pop\n      pop\n      jump\t// out\n        /* \"#utility.yul\":1617:1734   */\n    tag_31:\n        /* \"#utility.yul\":1726:1727   */\n      0x00\n        /* \"#utility.yul\":1723:1724   */\n      dup1\n        /* \"#utility.yul\":1716:1728   */\n      revert\n        /* \"#utility.yul\":1740:1857   */\n    tag_32:\n        /* \"#utility.yul\":1849:1850   */\n      0x00\n        /* \"#utility.yul\":1846:1847   */\n      dup1\n        /* \"#utility.yul\":1839:1851   */\n      revert\n        /* \"#utility.yul\":1863:1989   */\n    tag_33:\n        /* \"#utility.yul\":1900:1907   */\n      0x00\n        /* \"#utility.yul\":1940:1982   */\n      0xffffffffffffffffffffffffffffffffffffffff\n        /* \"#utility.yul\":1933:1938   */\n      dup3\n        /* \"#utility.yul\":1929:1983   */\n      and\n        /* \"#utility.yul\":1918:1983   */\n      swap1\n      pop\n        /* \"#utility.yul\":1863:1989   */\n      swap2\n      swap1\n      pop\n      jump\t// out\n        /* \"#utility.yul\":1995:2091   */\n    tag_34:\n        /* \"#utility.yul\":2032:2039   */\n      0x00\n        /* \"#utility.yul\":2061:2085   */\n      tag_68\n        /* \"#utility.yul\":2079:2084   */\n      dup3\n        /* \"#utility.yul\":2061:2085   */\n      tag_33\n      jump\t// in\n    tag_68:\n        /* \"#utility.yul\":2050:2085   */\n      swap1\n      pop\n        /* \"#utility.yul\":1995:2091   */\n      swap2\n      swap1\n      pop\n      jump\t// out\n        /* \"#utility.yul\":2097:2219   */\n    tag_35:\n        /* \"#utility.yul\":2170:2194   */\n      tag_70\n        /* \"#utility.yul\":2188:2193   */\n      dup2\n        /* \"#utility.yul\":2170:2194   */\n      tag_34\n      jump\t// in\n    tag_70:\n        /* \"#utility.yul\":2163:2168   */\n      dup2\n        /* \"#utility.yul\":2160:2195   */\n      eq\n        /* \"#utility.yul\":2150:2213   */\n      tag_71\n      jumpi\n        /* \"#utility.yul\":2209:2210   */\n      0x00\n        /* \"#utility.yul\":2206:2207   */\n      dup1\n        /* \"#utility.yul\":2199:2211   */\n      revert\n        /* \"#utility.yul\":2150:2213   */\n    tag_71:\n        /* \"#utility.yul\":2097:2219   */\n      pop\n      jump\t// out\n        /* \"#utility.yul\":2225:2364   */\n    tag_36:\n        /* \"#utility.yul\":2271:2276   */\n      0x00\n        /* \"#utility.yul\":2309:2315   */\n      dup2\n        /* \"#utility.yul\":2296:2316   */\n      calldataload\n        /* \"#utility.yul\":2287:2316   */\n      swap1\n      pop\n        /* \"#utility.yul\":2325:2358   */\n      tag_73\n        /* \"#utility.yul\":2352:2357   */\n      dup2\n        /* \"#utility.yul\":2325:2358   */\n      tag_35\n      jump\t// in\n    tag_73:\n        /* \"#utility.yul\":2225:2364   */\n      swap3\n      swap2\n      pop\n      pop\n      jump\t// out\n        /* \"#utility.yul\":2370:2487   */\n    tag_37:\n        /* \"#utility.yul\":2479:2480   */\n      0x00\n        /* \"#utility.yul\":2476:2477   */\n      dup1\n        /* \"#utility.yul\":2469:2481   */\n      revert\n        /* \"#utility.yul\":2493:2610   */\n    tag_38:\n        /* \"#utility.yul\":2602:2603   */\n      0x00\n        /* \"#utility.yul\":2599:2600   */\n      dup1\n        /* \"#utility.yul\":2592:2604   */\n      revert\n        /* \"#utility.yul\":2616:2733   */\n    tag_39:\n        /* \"#utility.yul\":2725:2726   */\n      0x00\n        /* \"#utility.yul\":2722:2723   */\n      dup1\n        /* \"#utility.yul\":2715:2727   */\n      revert\n        /* \"#utility.yul\":2752:3304   */\n    tag_40:\n        /* \"#utility.yul\":2809:2817   */\n      0x00\n        /* \"#utility.yul\":2819:2825   */\n      dup1\n        /* \"#utility.yul\":2869:2872   */\n      dup4\n        /* \"#utility.yul\":2862:2866   */\n      0x1f\n        /* \"#utility.yul\":2854:2860   */\n      dup5\n        /* \"#utility.yul\":2850:2867   */\n      add\n        /* \"#utility.yul\":2846:2873   */\n      slt\n        /* \"#utility.yul\":2836:2958   */\n      tag_78\n      jumpi\n        /* \"#utility.yul\":2877:2956   */\n      tag_79\n      tag_37\n      jump\t// in\n    tag_79:\n        /* \"#utility.yul\":2836:2958   */\n    tag_78:\n        /* \"#utility.yul\":2990:2996   */\n      dup3\n        /* \"#utility.yul\":2977:2997   */\n      calldataload\n        /* \"#utility.yul\":2967:2997   */\n      swap1\n      pop\n        /* \"#utility.yul\":3020:3038   */\n      0xffffffffffffffff\n        /* \"#utility.yul\":3012:3018   */\n      dup2\n        /* \"#utility.yul\":3009:3039   */\n      gt\n        /* \"#utility.yul\":3006:3123   */\n      iszero\n      tag_80\n      jumpi\n        /* \"#utility.yul\":3042:3121   */\n      tag_81\n      tag_38\n      jump\t// in\n    tag_81:\n        /* \"#utility.yul\":3006:3123   */\n    tag_80:\n        /* \"#utility.yul\":3156:3160   */\n      0x20\n        /* \"#utility.yul\":3148:3154   */\n      dup4\n        /* \"#utility.yul\":3144:3161   */\n      add\n        /* \"#utility.yul\":3132:3161   */\n      swap2\n      pop\n        /* \"#utility.yul\":3210:3213   */\n      dup4\n        /* \"#utility.yul\":3202:3206   */\n      0x01\n        /* \"#utility.yul\":3194:3200   */\n      dup3\n        /* \"#utility.yul\":3190:3207   */\n      mul\n        /* \"#utility.yul\":3180:3188   */\n      dup4\n        /* \"#utility.yul\":3176:3208   */\n      add\n        /* \"#utility.yul\":3173:3214   */\n      gt\n        /* \"#utility.yul\":3170:3298   */\n      iszero\n      tag_82\n      jumpi\n        /* \"#utility.yul\":3217:3296   */\n      tag_83\n      tag_39\n      jump\t// in\n    tag_83:\n        /* \"#utility.yul\":3170:3298   */\n    tag_82:\n        /* \"#utility.yul\":2752:3304   */\n      swap3\n      pop\n      swap3\n      swap1\n      pop\n      jump\t// out\n        /* \"#utility.yul\":3310:3982   */\n    tag_11:\n        /* \"#utility.yul\":3389:3395   */\n      0x00\n        /* \"#utility.yul\":3397:3403   */\n      dup1\n        /* \"#utility.yul\":3405:3411   */\n      0x00\n        /* \"#utility.yul\":3454:3456   */\n      0x40\n        /* \"#utility.yul\":3442:3451   */\n      dup5\n        /* \"#utility.yul\":3433:3440   */\n      dup7\n        /* \"#utility.yul\":3429:3452   */\n      sub\n        /* \"#utility.yul\":3425:3457   */\n      slt\n        /* \"#utility.yul\":3422:3541   */\n      iszero\n      tag_85\n      jumpi\n        /* \"#utility.yul\":3460:3539   */\n      tag_86\n      tag_31\n      jump\t// in\n    tag_86:\n        /* \"#utility.yul\":3422:3541   */\n    tag_85:\n        /* \"#utility.yul\":3580:3581   */\n      0x00\n        /* \"#utility.yul\":3605:3658   */\n      tag_87\n        /* \"#utility.yul\":3650:3657   */\n      dup7\n        /* \"#utility.yul\":3641:3647   */\n      dup3\n        /* \"#utility.yul\":3630:3639   */\n      dup8\n        /* \"#utility.yul\":3626:3648   */\n      add\n        /* \"#utility.yul\":3605:3658   */\n      tag_36\n      jump\t// in\n    tag_87:\n        /* \"#utility.yul\":3595:3658   */\n      swap4\n      pop\n        /* \"#utility.yul\":3551:3668   */\n      pop\n        /* \"#utility.yul\":3735:3737   */\n      0x20\n        /* \"#utility.yul\":3724:3733   */\n      dup5\n        /* \"#utility.yul\":3720:3738   */\n      add\n        /* \"#utility.yul\":3707:3739   */\n      calldataload\n        /* \"#utility.yul\":3766:3784   */\n      0xffffffffffffffff\n        /* \"#utility.yul\":3758:3764   */\n      dup2\n        /* \"#utility.yul\":3755:3785   */\n      gt\n        /* \"#utility.yul\":3752:3869   */\n      iszero\n      tag_88\n      jumpi\n        /* \"#utility.yul\":3788:3867   */\n      tag_89\n      tag_32\n      jump\t// in\n    tag_89:\n        /* \"#utility.yul\":3752:3869   */\n    tag_88:\n        /* \"#utility.yul\":3901:3965   */\n      tag_90\n        /* \"#utility.yul\":3957:3964   */\n      dup7\n        /* \"#utility.yul\":3948:3954   */\n      dup3\n        /* \"#utility.yul\":3937:3946   */\n      dup8\n        /* \"#utility.yul\":3933:3955   */\n      add\n        /* \"#utility.yul\":3901:3965   */\n      tag_40\n      jump\t// in\n    tag_90:\n        /* \"#utility.yul\":3883:3965   */\n      swap3\n      pop\n      swap3\n      pop\n        /* \"#utility.yul\":3678:3975   */\n      pop\n        /* \"#utility.yul\":3310:3982   */\n      swap3\n      pop\n      swap3\n      pop\n      swap3\n      jump\t// out\n        /* \"#utility.yul\":3988:4135   */\n    tag_41:\n        /* \"#utility.yul\":4089:4100   */\n      0x00\n        /* \"#utility.yul\":4126:4129   */\n      dup2\n        /* \"#utility.yul\":4111:4129   */\n      swap1\n      pop\n        /* \"#utility.yul\":3988:4135   */\n      swap3\n      swap2\n      pop\n      pop\n      jump\t// out\n        /* \"#utility.yul\":4141:4287   */\n    tag_42:\n        /* \"#utility.yul\":4238:4244   */\n      dup3\n        /* \"#utility.yul\":4233:4236   */\n      dup2\n        /* \"#utility.yul\":4228:4231   */\n      dup4\n        /* \"#utility.yul\":4215:4245   */\n      calldatacopy\n        /* \"#utility.yul\":4279:4280   */\n      0x00\n        /* \"#utility.yul\":4270:4276   */\n      dup4\n        /* \"#utility.yul\":4265:4268   */\n      dup4\n        /* \"#utility.yul\":4261:4277   */\n      add\n        /* \"#utility.yul\":4254:4281   */\n      mstore\n        /* \"#utility.yul\":4141:4287   */\n      pop\n      pop\n      pop\n      jump\t// out\n        /* \"#utility.yul\":4315:4642   */\n    tag_43:\n        /* \"#utility.yul\":4429:4432   */\n      0x00\n        /* \"#utility.yul\":4450:4538   */\n      tag_94\n        /* \"#utility.yul\":4531:4537   */\n      dup4\n        /* \"#utility.yul\":4526:4529   */\n      dup6\n        /* \"#utility.yul\":4450:4538   */\n      tag_41\n      jump\t// in\n    tag_94:\n        /* \"#utility.yul\":4443:4538   */\n      swap4\n      pop\n        /* \"#utility.yul\":4548:4604   */\n      tag_95\n        /* \"#utility.yul\":4597:4603   */\n      dup4\n        /* \"#utility.yul\":4592:4595   */\n      dup6\n        /* \"#utility.yul\":4585:4590   */\n      dup5\n        /* \"#utility.yul\":4548:4604   */\n      tag_42\n      jump\t// in\n    tag_95:\n        /* \"#utility.yul\":4629:4635   */\n      dup3\n        /* \"#utility.yul\":4624:4627   */\n      dup5\n        /* \"#utility.yul\":4620:4636   */\n      add\n        /* \"#utility.yul\":4613:4636   */\n      swap1\n      pop\n        /* \"#utility.yul\":4315:4642   */\n      swap4\n      swap3\n      pop\n      pop\n      pop\n      jump\t// out\n        /* \"#utility.yul\":4648:4939   */\n    tag_16:\n        /* \"#utility.yul\":4788:4791   */\n      0x00\n        /* \"#utility.yul\":4810:4913   */\n      tag_97\n        /* \"#utility.yul\":4909:4912   */\n      dup3\n        /* \"#utility.yul\":4900:4906   */\n      dup5\n        /* \"#utility.yul\":4892:4898   */\n      dup7\n        /* \"#utility.yul\":4810:4913   */\n      tag_43\n      jump\t// in\n    tag_97:\n        /* \"#utility.yul\":4803:4913   */\n      swap2\n      pop\n        /* \"#utility.yul\":4930:4933   */\n      dup2\n        /* \"#utility.yul\":4923:4933   */\n      swap1\n      pop\n        /* \"#utility.yul\":4648:4939   */\n      swap4\n      swap3\n      pop\n      pop\n      pop\n      jump\t// out\n        /* \"#utility.yul\":4945:5114   */\n    tag_44:\n        /* \"#utility.yul\":5029:5040   */\n      0x00\n        /* \"#utility.yul\":5063:5069   */\n      dup3\n        /* \"#utility.yul\":5058:5061   */\n      dup3\n        /* \"#utility.yul\":5051:5070   */\n      mstore\n        /* \"#utility.yul\":5103:5107   */\n      0x20\n        /* \"#utility.yul\":5098:5101   */\n      dup3\n        /* \"#utility.yul\":5094:5108   */\n      add\n        /* \"#utility.yul\":5079:5108   */\n      swap1\n      pop\n        /* \"#utility.yul\":4945:5114   */\n      swap3\n      swap2\n      pop\n      pop\n      jump\t// out\n        /* \"#utility.yul\":5120:5281   */\n    tag_45:\n        /* \"#utility.yul\":5260:5273   */\n      0x63616c6c206661696c6564000000000000000000000000000000000000000000\n        /* \"#utility.yul\":5256:5257   */\n      0x00\n        /* \"#utility.yul\":5248:5254   */\n      dup3\n        /* \"#utility.yul\":5244:5258   */\n      add\n        /* \"#utility.yul\":5237:5274   */\n      mstore\n        /* \"#utility.yul\":5120:5281   */\n      pop\n      jump\t// out\n        /* \"#utility.yul\":5287:5653   */\n    tag_46:\n        /* \"#utility.yul\":5429:5432   */\n      0x00\n        /* \"#utility.yul\":5450:5517   */\n      tag_101\n        /* \"#utility.yul\":5514:5516   */\n      0x0b\n        /* \"#utility.yul\":5509:5512   */\n      dup4\n        /* \"#utility.yul\":5450:5517   */\n      tag_44\n      jump\t// in\n    tag_101:\n        /* \"#utility.yul\":5443:5517   */\n      swap2\n      pop\n        /* \"#utility.yul\":5526:5619   */\n      tag_102\n        /* \"#utility.yul\":5615:5618   */\n      dup3\n        /* \"#utility.yul\":5526:5619   */\n      tag_45\n      jump\t// in\n    tag_102:\n        /* \"#utility.yul\":5644:5646   */\n      0x20\n        /* \"#utility.yul\":5639:5642   */\n      dup3\n        /* \"#utility.yul\":5635:5647   */\n      add\n        /* \"#utility.yul\":5628:5647   */\n      swap1\n      pop\n        /* \"#utility.yul\":5287:5653   */\n      swap2\n      swap1\n      pop\n      jump\t// out\n        /* \"#utility.yul\":5659:6078   */\n    tag_22:\n        /* \"#utility.yul\":5825:5829   */\n      0x00\n        /* \"#utility.yul\":5863:5865   */\n      0x20\n        /* \"#utility.yul\":5852:5861   */\n      dup3\n        /* \"#utility.yul\":5848:5866   */\n      add\n        /* \"#utility.yul\":5840:5866   */\n      swap1\n      pop\n        /* \"#utility.yul\":5912:5921   */\n      dup2\n        /* \"#utility.yul\":5906:5910   */\n      dup2\n        /* \"#utility.yul\":5902:5922   */\n      sub\n        /* \"#utility.yul\":5898:5899   */\n      0x00\n        /* \"#utility.yul\":5887:5896   */\n      dup4\n        /* \"#utility.yul\":5883:5900   */\n      add\n        /* \"#utility.yul\":5876:5923   */\n      mstore\n        /* \"#utility.yul\":5940:6071   */\n      tag_104\n        /* \"#utility.yul\":6066:6070   */\n      dup2\n        /* \"#utility.yul\":5940:6071   */\n      tag_46\n      jump\t// in\n    tag_104:\n        /* \"#utility.yul\":5932:6071   */\n      swap1\n      pop\n        /* \"#utility.yul\":5659:6078   */\n      swap2\n      swap1\n      pop\n      jump\t// out\n        /* \"#utility.yul\":6084:6393   */\n    tag_24:\n        /* \"#utility.yul\":6195:6199   */\n      0x00\n        /* \"#utility.yul\":6233:6235   */\n      0x20\n        /* \"#utility.yul\":6222:6231   */\n      dup3\n        /* \"#utility.yul\":6218:6236   */\n      add\n        /* \"#utility.yul\":6210:6236   */\n      swap1\n      pop\n        /* \"#utility.yul\":6282:6291   */\n      dup2\n        /* \"#utility.yul\":6276:6280   */\n      dup2\n        /* \"#utility.yul\":6272:6292   */\n      sub\n        /* \"#utility.yul\":6268:6269   */\n      0x00\n        /* \"#utility.yul\":6257:6266   */\n      dup4\n        /* \"#utility.yul\":6253:6270   */\n      add\n        /* \"#utility.yul\":6246:6293   */\n      mstore\n        /* \"#utility.yul\":6310:6386   */\n      tag_106\n        /* \"#utility.yul\":6381:6385   */\n      dup2\n        /* \"#utility.yul\":6372:6378   */\n      dup5\n        /* \"#utility.yul\":6310:6386   */\n      tag_29\n      jump\t// in\n    tag_106:\n        /* \"#utility.yul\":6302:6386   */\n      swap1\n      pop\n        /* \"#utility.yul\":6084:6393   */\n      swap3\n      swap2\n      pop\n      pop\n      jump\t// out\n\n    auxdata: 0xa264697066735822122031197f48d3a26609a7dbb49a6f0e146f0012aa29be7530d32c3ab71b54b0a2cf64736f6c63430008120033\n}\n",
				"bytecode": {
					"linkReferences": {},
					"object": "608060405234801561001057600080fd5b50610527806100206000396000f3fe608060405234801561001057600080fd5b50600436106100365760003560e01c80636610f5ca1461003b57806393e014181461005a575b600080fd5b610043610076565b604051610051929190610296565b60405180910390f35b610074600480360381019061006f919061039a565b610117565b005b606080604051602401604051602081830303815290604052636d4ce63c60e01b6020820180517bffffffffffffffffffffffffffffffffffffffffffffffffffffffff838183161783525050505060405160240160405160208183030381529060405263371303c060e01b6020820180517bffffffffffffffffffffffffffffffffffffffffffffffffffffffff8381831617835250505050915091509091565b6000808473ffffffffffffffffffffffffffffffffffffffff168484604051610141929190610439565b6000604051808303816000865af19150503d806000811461017e576040519150601f19603f3d011682016040523d82523d6000602084013e610183565b606091505b5091509150816101c8576040517f08c379a00000000000000000000000000000000000000000000000000000000081526004016101bf906104af565b60405180910390fd5b7fafabcf2dd47e06a477a89e49c03f8ebe8e0a7e94f775b25bbb24227c9d0110b2816040516101f791906104cf565b60405180910390a15050505050565b600081519050919050565b600082825260208201905092915050565b60005b83811015610240578082015181840152602081019050610225565b60008484015250505050565b6000601f19601f8301169050919050565b600061026882610206565b6102728185610211565b9350610282818560208601610222565b61028b8161024c565b840191505092915050565b600060408201905081810360008301526102b0818561025d565b905081810360208301526102c4818461025d565b90509392505050565b600080fd5b600080fd5b600073ffffffffffffffffffffffffffffffffffffffff82169050919050565b6000610302826102d7565b9050919050565b610312816102f7565b811461031d57600080fd5b50565b60008135905061032f81610309565b92915050565b600080fd5b600080fd5b600080fd5b60008083601f84011261035a57610359610335565b5b8235905067ffffffffffffffff8111156103775761037661033a565b5b6020830191508360018202830111156103935761039261033f565b5b9250929050565b6000806000604084860312156103b3576103b26102cd565b5b60006103c186828701610320565b935050602084013567ffffffffffffffff8111156103e2576103e16102d2565b5b6103ee86828701610344565b92509250509250925092565b600081905092915050565b82818337600083830152505050565b600061042083856103fa565b935061042d838584610405565b82840190509392505050565b6000610446828486610414565b91508190509392505050565b600082825260208201905092915050565b7f63616c6c206661696c6564000000000000000000000000000000000000000000600082015250565b6000610499600b83610452565b91506104a482610463565b602082019050919050565b600060208201905081810360008301526104c88161048c565b9050919050565b600060208201905081810360008301526104e9818461025d565b90509291505056fea264697066735822122031197f48d3a26609a7dbb49a6f0e146f0012aa29be7530d32c3ab71b54b0a2cf64736f6c63430008120033",
					"opcodes": "PUSH1 0x80 PUSH1 0x40 MSTORE CALLVALUE DUP1 ISZERO PUSH2 0x10 JUMPI PUSH1 0x0 DUP1 REVERT JUMPDEST POP PUSH2 0x527 DUP1 PUSH2 0x20 PUSH1 0x0 CODECOPY PUSH1 0x0 RETURN INVALID PUSH1 0x80 PUSH1 0x40 MSTORE CALLVALUE DUP1 ISZERO PUSH2 0x10 JUMPI PUSH1 0x0 DUP1 REVERT JUMPDEST POP PUSH1 0x4 CALLDATASIZE LT PUSH2 0x36 JUMPI PUSH1 0x0 CALLDATALOAD PUSH1 0xE0 SHR DUP1 PUSH4 0x6610F5CA EQ PUSH2 0x3B JUMPI DUP1 PUSH4 0x93E01418 EQ PUSH2 0x5A JUMPI JUMPDEST PUSH1 0x0 DUP1 REVERT JUMPDEST PUSH2 0x43 PUSH2 0x76 JUMP JUMPDEST PUSH1 0x40 MLOAD PUSH2 0x51 SWAP3 SWAP2 SWAP1 PUSH2 0x296 JUMP JUMPDEST PUSH1 0x40 MLOAD DUP1 SWAP2 SUB SWAP1 RETURN JUMPDEST PUSH2 0x74 PUSH1 0x4 DUP1 CALLDATASIZE SUB DUP2 ADD SWAP1 PUSH2 0x6F SWAP2 SWAP1 PUSH2 0x39A JUMP JUMPDEST PUSH2 0x117 JUMP JUMPDEST STOP JUMPDEST PUSH1 0x60 DUP1 PUSH1 0x40 MLOAD PUSH1 0x24 ADD PUSH1 0x40 MLOAD PUSH1 0x20 DUP2 DUP4 SUB SUB DUP2 MSTORE SWAP1 PUSH1 0x40 MSTORE PUSH4 0x6D4CE63C PUSH1 0xE0 SHL PUSH1 0x20 DUP3 ADD DUP1 MLOAD PUSH28 0xFFFFFFFFFFFFFFFFFFFFFFFFFFFFFFFFFFFFFFFFFFFFFFFFFFFFFFFF DUP4 DUP2 DUP4 AND OR DUP4 MSTORE POP POP POP POP PUSH1 0x40 MLOAD PUSH1 0x24 ADD PUSH1 0x40 MLOAD PUSH1 0x20 DUP2 DUP4 SUB SUB DUP2 MSTORE SWAP1 PUSH1 0x40 MSTORE PUSH4 0x371303C0 PUSH1 0xE0 SHL PUSH1 0x20 DUP3 ADD DUP1 MLOAD PUSH28 0xFFFFFFFFFFFFFFFFFFFFFFFFFFFFFFFFFFFFFFFFFFFFFFFFFFFFFFFF DUP4 DUP2 DUP4 AND OR DUP4 MSTORE POP POP POP POP SWAP2 POP SWAP2 POP SWAP1 SWAP2 JUMP JUMPDEST PUSH1 0x0 DUP1 DUP5 PUSH20 0xFFFFFFFFFFFFFFFFFFFFFFFFFFFFFFFFFFFFFFFF AND DUP5 DUP5 PUSH1 0x40 MLOAD PUSH2 0x141 SWAP3 SWAP2 SWAP1 PUSH2 0x439 JUMP JUMPDEST PUSH1 0x0 PUSH1 0x40 MLOAD DUP1 DUP4 SUB DUP2 PUSH1 0x0 DUP7 GAS CALL SWAP2 POP POP RETURNDATASIZE DUP1 PUSH1 0x0 DUP2 EQ PUSH2 0x17E JUMPI PUSH1 0x40 MLOAD SWAP2 POP PUSH1 0x1F NOT PUSH1 0x3F RETURNDATASIZE ADD AND DUP3 ADD PUSH1 0x40 MSTORE RETURNDATASIZE DUP3 MSTORE RETURNDATASIZE PUSH1 0x0 PUSH1 0x20 DUP5 ADD RETURNDATACOPY PUSH2 0x183 JUMP JUMPDEST PUSH1 0x60 SWAP2 POP JUMPDEST POP SWAP2 POP SWAP2 POP DUP2 PUSH2 0x1C8 JUMPI PUSH1 0x40 MLOAD PUSH32 0x8C379A000000000000000000000000000000000000000000000000000000000 DUP2 MSTORE PUSH1 0x4 ADD PUSH2 0x1BF SWAP1 PUSH2 0x4AF JUMP JUMPDEST PUSH1 0x40 MLOAD DUP1 SWAP2 SUB SWAP1 REVERT JUMPDEST PUSH32 0xAFABCF2DD47E06A477A89E49C03F8EBE8E0A7E94F775B25BBB24227C9D0110B2 DUP2 PUSH1 0x40 MLOAD PUSH2 0x1F7 SWAP2 SWAP1 PUSH2 0x4CF JUMP JUMPDEST PUSH1 0x40 MLOAD DUP1 SWAP2 SUB SWAP1 LOG1 POP POP POP POP POP JUMP JUMPDEST PUSH1 0x0 DUP2 MLOAD SWAP1 POP SWAP2 SWAP1 POP JUMP JUMPDEST PUSH1 0x0 DUP3 DUP3 MSTORE PUSH1 0x20 DUP3 ADD SWAP1 POP SWAP3 SWAP2 POP POP JUMP JUMPDEST PUSH1 0x0 JUMPDEST DUP4 DUP2 LT ISZERO PUSH2 0x240 JUMPI DUP1 DUP3 ADD MLOAD DUP2 DUP5 ADD MSTORE PUSH1 0x20 DUP2 ADD SWAP1 POP PUSH2 0x225 JUMP JUMPDEST PUSH1 0x0 DUP5 DUP5 ADD MSTORE POP POP POP POP JUMP JUMPDEST PUSH1 0x0 PUSH1 0x1F NOT PUSH1 0x1F DUP4 ADD AND SWAP1 POP SWAP2 SWAP1 POP JUMP JUMPDEST PUSH1 0x0 PUSH2 0x268 DUP3 PUSH2 0x206 JUMP JUMPDEST PUSH2 0x272 DUP2 DUP6 PUSH2 0x211 JUMP JUMPDEST SWAP4 POP PUSH2 0x282 DUP2 DUP6 PUSH1 0x20 DUP7 ADD PUSH2 0x222 JUMP JUMPDEST PUSH2 0x28B DUP2 PUSH2 0x24C JUMP JUMPDEST DUP5 ADD SWAP2 POP POP SWAP3 SWAP2 POP POP JUMP JUMPDEST PUSH1 0x0 PUSH1 0x40 DUP3 ADD SWAP1 POP DUP2 DUP2 SUB PUSH1 0x0 DUP4 ADD MSTORE PUSH2 0x2B0 DUP2 DUP6 PUSH2 0x25D JUMP JUMPDEST SWAP1 POP DUP2 DUP2 SUB PUSH1 0x20 DUP4 ADD MSTORE PUSH2 0x2C4 DUP2 DUP5 PUSH2 0x25D JUMP JUMPDEST SWAP1 POP SWAP4 SWAP3 POP POP POP JUMP JUMPDEST PUSH1 0x0 DUP1 REVERT JUMPDEST PUSH1 0x0 DUP1 REVERT JUMPDEST PUSH1 0x0 PUSH20 0xFFFFFFFFFFFFFFFFFFFFFFFFFFFFFFFFFFFFFFFF DUP3 AND SWAP1 POP SWAP2 SWAP1 POP JUMP JUMPDEST PUSH1 0x0 PUSH2 0x302 DUP3 PUSH2 0x2D7 JUMP JUMPDEST SWAP1 POP SWAP2 SWAP1 POP JUMP JUMPDEST PUSH2 0x312 DUP2 PUSH2 0x2F7 JUMP JUMPDEST DUP2 EQ PUSH2 0x31D JUMPI PUSH1 0x0 DUP1 REVERT JUMPDEST POP JUMP JUMPDEST PUSH1 0x0 DUP2 CALLDATALOAD SWAP1 POP PUSH2 0x32F DUP2 PUSH2 0x309 JUMP JUMPDEST SWAP3 SWAP2 POP POP JUMP JUMPDEST PUSH1 0x0 DUP1 REVERT JUMPDEST PUSH1 0x0 DUP1 REVERT JUMPDEST PUSH1 0x0 DUP1 REVERT JUMPDEST PUSH1 0x0 DUP1 DUP4 PUSH1 0x1F DUP5 ADD SLT PUSH2 0x35A JUMPI PUSH2 0x359 PUSH2 0x335 JUMP JUMPDEST JUMPDEST DUP3 CALLDATALOAD SWAP1 POP PUSH8 0xFFFFFFFFFFFFFFFF DUP2 GT ISZERO PUSH2 0x377 JUMPI PUSH2 0x376 PUSH2 0x33A JUMP JUMPDEST JUMPDEST PUSH1 0x20 DUP4 ADD SWAP2 POP DUP4 PUSH1 0x1 DUP3 MUL DUP4 ADD GT ISZERO PUSH2 0x393 JUMPI PUSH2 0x392 PUSH2 0x33F JUMP JUMPDEST JUMPDEST SWAP3 POP SWAP3 SWAP1 POP JUMP JUMPDEST PUSH1 0x0 DUP1 PUSH1 0x0 PUSH1 0x40 DUP5 DUP7 SUB SLT ISZERO PUSH2 0x3B3 JUMPI PUSH2 0x3B2 PUSH2 0x2CD JUMP JUMPDEST JUMPDEST PUSH1 0x0 PUSH2 0x3C1 DUP7 DUP3 DUP8 ADD PUSH2 0x320 JUMP JUMPDEST SWAP4 POP POP PUSH1 0x20 DUP5 ADD CALLDATALOAD PUSH8 0xFFFFFFFFFFFFFFFF DUP2 GT ISZERO PUSH2 0x3E2 JUMPI PUSH2 0x3E1 PUSH2 0x2D2 JUMP JUMPDEST JUMPDEST PUSH2 0x3EE DUP7 DUP3 DUP8 ADD PUSH2 0x344 JUMP JUMPDEST SWAP3 POP SWAP3 POP POP SWAP3 POP SWAP3 POP SWAP3 JUMP JUMPDEST PUSH1 0x0 DUP2 SWAP1 POP SWAP3 SWAP2 POP POP JUMP JUMPDEST DUP3 DUP2 DUP4 CALLDATACOPY PUSH1 0x0 DUP4 DUP4 ADD MSTORE POP POP POP JUMP JUMPDEST PUSH1 0x0 PUSH2 0x420 DUP4 DUP6 PUSH2 0x3FA JUMP JUMPDEST SWAP4 POP PUSH2 0x42D DUP4 DUP6 DUP5 PUSH2 0x405 JUMP JUMPDEST DUP3 DUP5 ADD SWAP1 POP SWAP4 SWAP3 POP POP POP JUMP JUMPDEST PUSH1 0x0 PUSH2 0x446 DUP3 DUP5 DUP7 PUSH2 0x414 JUMP JUMPDEST SWAP2 POP DUP2 SWAP1 POP SWAP4 SWAP3 POP POP POP JUMP JUMPDEST PUSH1 0x0 DUP3 DUP3 MSTORE PUSH1 0x20 DUP3 ADD SWAP1 POP SWAP3 SWAP2 POP POP JUMP JUMPDEST PUSH32 0x63616C6C206661696C6564000000000000000000000000000000000000000000 PUSH1 0x0 DUP3 ADD MSTORE POP JUMP JUMPDEST PUSH1 0x0 PUSH2 0x499 PUSH1 0xB DUP4 PUSH2 0x452 JUMP JUMPDEST SWAP2 POP PUSH2 0x4A4 DUP3 PUSH2 0x463 JUMP JUMPDEST PUSH1 0x20 DUP3 ADD SWAP1 POP SWAP2 SWAP1 POP JUMP JUMPDEST PUSH1 0x0 PUSH1 0x20 DUP3 ADD SWAP1 POP DUP2 DUP2 SUB PUSH1 0x0 DUP4 ADD MSTORE PUSH2 0x4C8 DUP2 PUSH2 0x48C JUMP JUMPDEST SWAP1 POP SWAP2 SWAP1 POP JUMP JUMPDEST PUSH1 0x0 PUSH1 0x20 DUP3 ADD SWAP1 POP DUP2 DUP2 SUB PUSH1 0x0 DUP4 ADD MSTORE PUSH2 0x4E9 DUP2 DUP5 PUSH2 0x25D JUMP JUMPDEST SWAP1 POP SWAP3 SWAP2 POP POP JUMP INVALID LOG2 PUSH5 0x6970667358 0x22 SLT KECCAK256 BALANCE NOT PUSH32 0x48D3A26609A7DBB49A6F0E146F0012AA29BE7530D32C3AB71B54B0A2CF64736F PUSH13 0x63430008120033000000000000 "
				},
				"gasEstimates": {
					"creation": {
						"codeDepositCost": "263800",
						"executionCost": "306",
						"totalCost": "264106"
					},
					"external": {
						"getTestData()": "infinite",
						"test(address,bytes)": "infinite"
					}
				},
				"methodIdentifiers": {
					"getTestData()": "6610f5ca",
					"test(address,bytes)": "93e01418"
				}
			},
			"storageLayout": {
				"storage": [],
				"types": null
			},
			"userdoc": {
				"kind": "user",
				"methods": {},
				"version": 1
			}
		}
	}
}