{
	"Unchecked_Math.sol": {
		"UncheckedMath": {
			"abi": [
				{
					"inputs": [
						{
							"internalType": "uint256",
							"name": "x",
							"type": "uint256"
						},
						{
							"internalType": "uint256",
							"name": "y",
							"type": "uint256"
						}
					],
					"name": "add",
					"outputs": [
						{
							"internalType": "uint256",
							"name": "",
							"type": "uint256"
						}
					],
					"stateMutability": "pure",
					"type": "function"
				},
				{
					"inputs": [
						{
							"internalType": "uint256",
							"name": "x",
							"type": "uint256"
						},
						{
							"internalType": "uint256",
							"name": "y",
							"type": "uint256"
						}
					],
					"name": "sub",
					"outputs": [
						{
							"internalType": "uint256",
							"name": "",
							"type": "uint256"
						}
					],
					"stateMutability": "pure",
					"type": "function"
				},
				{
					"inputs": [
						{
							"internalType": "uint256",
							"name": "x",
							"type": "uint256"
						},
						{
							"internalType": "uint256",
							"name": "y",
							"type": "uint256"
						}
					],
					"name": "sumOfCubes",
					"outputs": [
						{
							"internalType": "uint256",
							"name": "",
							"type": "uint256"
						}
					],
					"stateMutability": "pure",
					"type": "function"
				}
			],
			"devdoc": {
				"kind": "dev",
				"methods": {},
				"version": 1
			},
			"evm": {
				"assembly": "    /* \"Unchecked_Math.sol\":61:715  contract UncheckedMath {... */\n  mstore(0x40, 0x80)\n  callvalue\n  dup1\n  iszero\n  tag_1\n  jumpi\n  0x00\n  dup1\n  revert\ntag_1:\n  pop\n  dataSize(sub_0)\n  dup1\n  dataOffset(sub_0)\n  0x00\n  codecopy\n  0x00\n  return\nstop\n\nsub_0: assembly {\n        /* \"Unchecked_Math.sol\":61:715  contract UncheckedMath {... */\n      mstore(0x40, 0x80)\n      callvalue\n      dup1\n      iszero\n      tag_1\n      jumpi\n      0x00\n      dup1\n      revert\n    tag_1:\n      pop\n      jumpi(tag_2, lt(calldatasize, 0x04))\n      shr(0xe0, calldataload(0x00))\n      dup1\n      0x771602f7\n      eq\n      tag_3\n      jumpi\n      dup1\n      0xa2138e67\n      eq\n      tag_4\n      jumpi\n      dup1\n      0xb67d77c5\n      eq\n      tag_5\n      jumpi\n    tag_2:\n      0x00\n      dup1\n      revert\n        /* \"Unchecked_Math.sol\":91:291  function add(uint x, uint y) external pure returns (uint) {... */\n    tag_3:\n      tag_6\n      0x04\n      dup1\n      calldatasize\n      sub\n      dup2\n      add\n      swap1\n      tag_7\n      swap2\n      swap1\n      tag_8\n      jump\t// in\n    tag_7:\n      tag_9\n      jump\t// in\n    tag_6:\n      mload(0x40)\n      tag_10\n      swap2\n      swap1\n      tag_11\n      jump\t// in\n    tag_10:\n      mload(0x40)\n      dup1\n      swap2\n      sub\n      swap1\n      return\n        /* \"Unchecked_Math.sol\":512:712  function sumOfCubes(uint x,uint y) external pure returns(uint) {... */\n    tag_4:\n      tag_12\n      0x04\n      dup1\n      calldatasize\n      sub\n      dup2\n      add\n      swap1\n      tag_13\n      swap2\n      swap1\n      tag_8\n      jump\t// in\n    tag_13:\n      tag_14\n      jump\t// in\n    tag_12:\n      mload(0x40)\n      tag_15\n      swap2\n      swap1\n      tag_11\n      jump\t// in\n    tag_15:\n      mload(0x40)\n      dup1\n      swap2\n      sub\n      swap1\n      return\n        /* \"Unchecked_Math.sol\":299:500  function sub(uint x, uint y) external pure returns (uint) {... */\n    tag_5:\n      tag_16\n      0x04\n      dup1\n      calldatasize\n      sub\n      dup2\n      add\n      swap1\n      tag_17\n      swap2\n      swap1\n      tag_8\n      jump\t// in\n    tag_17:\n      tag_18\n      jump\t// in\n    tag_16:\n      mload(0x40)\n      tag_19\n      swap2\n      swap1\n      tag_11\n      jump\t// in\n    tag_19:\n      mload(0x40)\n      dup1\n      swap2\n      sub\n      swap1\n      return\n        /* \"Unchecked_Math.sol\":91:291  function add(uint x, uint y) external pure returns (uint) {... */\n    tag_9:\n        /* \"Unchecked_Math.sol\":143:147  uint */\n      0x00\n        /* \"Unchecked_Math.sol\":191:192  y */\n      dup2\n        /* \"Unchecked_Math.sol\":187:188  x */\n      dup4\n        /* \"Unchecked_Math.sol\":187:192  x + y */\n      tag_21\n      swap2\n      swap1\n      tag_22\n      jump\t// in\n    tag_21:\n        /* \"Unchecked_Math.sol\":180:192  return x + y */\n      swap1\n      pop\n        /* \"Unchecked_Math.sol\":91:291  function add(uint x, uint y) external pure returns (uint) {... */\n      swap3\n      swap2\n      pop\n      pop\n      jump\t// out\n        /* \"Unchecked_Math.sol\":512:712  function sumOfCubes(uint x,uint y) external pure returns(uint) {... */\n    tag_14:\n        /* \"Unchecked_Math.sol\":569:573  uint */\n      0x00\n        /* \"Unchecked_Math.sol\":611:618  uint x3 */\n      dup1\n        /* \"Unchecked_Math.sol\":629:630  x */\n      dup4\n        /* \"Unchecked_Math.sol\":625:626  x */\n      dup5\n        /* \"Unchecked_Math.sol\":621:622  x */\n      dup6\n        /* \"Unchecked_Math.sol\":621:626  x * x */\n      mul\n        /* \"Unchecked_Math.sol\":621:630  x * x * x */\n      mul\n        /* \"Unchecked_Math.sol\":611:630  uint x3 = x * x * x */\n      swap1\n      pop\n        /* \"Unchecked_Math.sol\":645:652  uint y3 */\n      0x00\n        /* \"Unchecked_Math.sol\":663:664  y */\n      dup4\n        /* \"Unchecked_Math.sol\":659:660  y */\n      dup5\n        /* \"Unchecked_Math.sol\":655:656  y */\n      dup6\n        /* \"Unchecked_Math.sol\":655:660  y * y */\n      mul\n        /* \"Unchecked_Math.sol\":655:664  y * y * y */\n      mul\n        /* \"Unchecked_Math.sol\":645:664  uint y3 = y * y * y */\n      swap1\n      pop\n        /* \"Unchecked_Math.sol\":691:693  y3 */\n      dup1\n        /* \"Unchecked_Math.sol\":686:688  x3 */\n      dup3\n        /* \"Unchecked_Math.sol\":686:693  x3 + y3 */\n      add\n        /* \"Unchecked_Math.sol\":679:693  return x3 + y3 */\n      swap3\n      pop\n      pop\n      pop\n        /* \"Unchecked_Math.sol\":512:712  function sumOfCubes(uint x,uint y) external pure returns(uint) {... */\n      swap3\n      swap2\n      pop\n      pop\n      jump\t// out\n        /* \"Unchecked_Math.sol\":299:500  function sub(uint x, uint y) external pure returns (uint) {... */\n    tag_18:\n        /* \"Unchecked_Math.sol\":351:355  uint */\n      0x00\n        /* \"Unchecked_Math.sol\":403:404  y */\n      dup2\n        /* \"Unchecked_Math.sol\":399:400  x */\n      dup4\n        /* \"Unchecked_Math.sol\":399:404  x - y */\n      tag_25\n      swap2\n      swap1\n      tag_26\n      jump\t// in\n    tag_25:\n        /* \"Unchecked_Math.sol\":392:404  return x - y */\n      swap1\n      pop\n        /* \"Unchecked_Math.sol\":299:500  function sub(uint x, uint y) external pure returns (uint) {... */\n      swap3\n      swap2\n      pop\n      pop\n      jump\t// out\n        /* \"#utility.yul\":88:205   */\n    tag_28:\n        /* \"#utility.yul\":197:198   */\n      0x00\n        /* \"#utility.yul\":194:195   */\n      dup1\n        /* \"#utility.yul\":187:199   */\n      revert\n        /* \"#utility.yul\":334:411   */\n    tag_30:\n        /* \"#utility.yul\":371:378   */\n      0x00\n        /* \"#utility.yul\":400:405   */\n      dup2\n        /* \"#utility.yul\":389:405   */\n      swap1\n      pop\n        /* \"#utility.yul\":334:411   */\n      swap2\n      swap1\n      pop\n      jump\t// out\n        /* \"#utility.yul\":417:539   */\n    tag_31:\n        /* \"#utility.yul\":490:514   */\n      tag_41\n        /* \"#utility.yul\":508:513   */\n      dup2\n        /* \"#utility.yul\":490:514   */\n      tag_30\n      jump\t// in\n    tag_41:\n        /* \"#utility.yul\":483:488   */\n      dup2\n        /* \"#utility.yul\":480:515   */\n      eq\n        /* \"#utility.yul\":470:533   */\n      tag_42\n      jumpi\n        /* \"#utility.yul\":529:530   */\n      0x00\n        /* \"#utility.yul\":526:527   */\n      dup1\n        /* \"#utility.yul\":519:531   */\n      revert\n        /* \"#utility.yul\":470:533   */\n    tag_42:\n        /* \"#utility.yul\":417:539   */\n      pop\n      jump\t// out\n        /* \"#utility.yul\":545:684   */\n    tag_32:\n        /* \"#utility.yul\":591:596   */\n      0x00\n        /* \"#utility.yul\":629:635   */\n      dup2\n        /* \"#utility.yul\":616:636   */\n      calldataload\n        /* \"#utility.yul\":607:636   */\n      swap1\n      pop\n        /* \"#utility.yul\":645:678   */\n      tag_44\n        /* \"#utility.yul\":672:677   */\n      dup2\n        /* \"#utility.yul\":645:678   */\n      tag_31\n      jump\t// in\n    tag_44:\n        /* \"#utility.yul\":545:684   */\n      swap3\n      swap2\n      pop\n      pop\n      jump\t// out\n        /* \"#utility.yul\":690:1164   */\n    tag_8:\n        /* \"#utility.yul\":758:764   */\n      0x00\n        /* \"#utility.yul\":766:772   */\n      dup1\n        /* \"#utility.yul\":815:817   */\n      0x40\n        /* \"#utility.yul\":803:812   */\n      dup4\n        /* \"#utility.yul\":794:801   */\n      dup6\n        /* \"#utility.yul\":790:813   */\n      sub\n        /* \"#utility.yul\":786:818   */\n      slt\n        /* \"#utility.yul\":783:902   */\n      iszero\n      tag_46\n      jumpi\n        /* \"#utility.yul\":821:900   */\n      tag_47\n      tag_28\n      jump\t// in\n    tag_47:\n        /* \"#utility.yul\":783:902   */\n    tag_46:\n        /* \"#utility.yul\":941:942   */\n      0x00\n        /* \"#utility.yul\":966:1019   */\n      tag_48\n        /* \"#utility.yul\":1011:1018   */\n      dup6\n        /* \"#utility.yul\":1002:1008   */\n      dup3\n        /* \"#utility.yul\":991:1000   */\n      dup7\n        /* \"#utility.yul\":987:1009   */\n      add\n        /* \"#utility.yul\":966:1019   */\n      tag_32\n      jump\t// in\n    tag_48:\n        /* \"#utility.yul\":956:1019   */\n      swap3\n      pop\n        /* \"#utility.yul\":912:1029   */\n      pop\n        /* \"#utility.yul\":1068:1070   */\n      0x20\n        /* \"#utility.yul\":1094:1147   */\n      tag_49\n        /* \"#utility.yul\":1139:1146   */\n      dup6\n        /* \"#utility.yul\":1130:1136   */\n      dup3\n        /* \"#utility.yul\":1119:1128   */\n      dup7\n        /* \"#utility.yul\":1115:1137   */\n      add\n        /* \"#utility.yul\":1094:1147   */\n      tag_32\n      jump\t// in\n    tag_49:\n        /* \"#utility.yul\":1084:1147   */\n      swap2\n      pop\n        /* \"#utility.yul\":1039:1157   */\n      pop\n        /* \"#utility.yul\":690:1164   */\n      swap3\n      pop\n      swap3\n      swap1\n      pop\n      jump\t// out\n        /* \"#utility.yul\":1170:1288   */\n    tag_33:\n        /* \"#utility.yul\":1257:1281   */\n      tag_51\n        /* \"#utility.yul\":1275:1280   */\n      dup2\n        /* \"#utility.yul\":1257:1281   */\n      tag_30\n      jump\t// in\n    tag_51:\n        /* \"#utility.yul\":1252:1255   */\n      dup3\n        /* \"#utility.yul\":1245:1282   */\n      mstore\n        /* \"#utility.yul\":1170:1288   */\n      pop\n      pop\n      jump\t// out\n        /* \"#utility.yul\":1294:1516   */\n    tag_11:\n        /* \"#utility.yul\":1387:1391   */\n      0x00\n        /* \"#utility.yul\":1425:1427   */\n      0x20\n        /* \"#utility.yul\":1414:1423   */\n      dup3\n        /* \"#utility.yul\":1410:1428   */\n      add\n        /* \"#utility.yul\":1402:1428   */\n      swap1\n      pop\n        /* \"#utility.yul\":1438:1509   */\n      tag_53\n        /* \"#utility.yul\":1506:1507   */\n      0x00\n        /* \"#utility.yul\":1495:1504   */\n      dup4\n        /* \"#utility.yul\":1491:1508   */\n      add\n        /* \"#utility.yul\":1482:1488   */\n      dup5\n        /* \"#utility.yul\":1438:1509   */\n      tag_33\n      jump\t// in\n    tag_53:\n        /* \"#utility.yul\":1294:1516   */\n      swap3\n      swap2\n      pop\n      pop\n      jump\t// out\n        /* \"#utility.yul\":1522:1702   */\n    tag_34:\n        /* \"#utility.yul\":1570:1647   */\n      0x4e487b7100000000000000000000000000000000000000000000000000000000\n        /* \"#utility.yul\":1567:1568   */\n      0x00\n        /* \"#utility.yul\":1560:1648   */\n      mstore\n        /* \"#utility.yul\":1667:1671   */\n      0x11\n        /* \"#utility.yul\":1664:1665   */\n      0x04\n        /* \"#utility.yul\":1657:1672   */\n      mstore\n        /* \"#utility.yul\":1691:1695   */\n      0x24\n        /* \"#utility.yul\":1688:1689   */\n      0x00\n        /* \"#utility.yul\":1681:1696   */\n      revert\n        /* \"#utility.yul\":1708:1899   */\n    tag_22:\n        /* \"#utility.yul\":1748:1751   */\n      0x00\n        /* \"#utility.yul\":1767:1787   */\n      tag_56\n        /* \"#utility.yul\":1785:1786   */\n      dup3\n        /* \"#utility.yul\":1767:1787   */\n      tag_30\n      jump\t// in\n    tag_56:\n        /* \"#utility.yul\":1762:1787   */\n      swap2\n      pop\n        /* \"#utility.yul\":1801:1821   */\n      tag_57\n        /* \"#utility.yul\":1819:1820   */\n      dup4\n        /* \"#utility.yul\":1801:1821   */\n      tag_30\n      jump\t// in\n    tag_57:\n        /* \"#utility.yul\":1796:1821   */\n      swap3\n      pop\n        /* \"#utility.yul\":1844:1845   */\n      dup3\n        /* \"#utility.yul\":1841:1842   */\n      dup3\n        /* \"#utility.yul\":1837:1846   */\n      add\n        /* \"#utility.yul\":1830:1846   */\n      swap1\n      pop\n        /* \"#utility.yul\":1865:1868   */\n      dup1\n        /* \"#utility.yul\":1862:1863   */\n      dup3\n        /* \"#utility.yul\":1859:1869   */\n      gt\n        /* \"#utility.yul\":1856:1892   */\n      iszero\n      tag_58\n      jumpi\n        /* \"#utility.yul\":1872:1890   */\n      tag_59\n      tag_34\n      jump\t// in\n    tag_59:\n        /* \"#utility.yul\":1856:1892   */\n    tag_58:\n        /* \"#utility.yul\":1708:1899   */\n      swap3\n      swap2\n      pop\n      pop\n      jump\t// out\n        /* \"#utility.yul\":1905:2099   */\n    tag_26:\n        /* \"#utility.yul\":1945:1949   */\n      0x00\n        /* \"#utility.yul\":1965:1985   */\n      tag_61\n        /* \"#utility.yul\":1983:1984   */\n      dup3\n        /* \"#utility.yul\":1965:1985   */\n      tag_30\n      jump\t// in\n    tag_61:\n        /* \"#utility.yul\":1960:1985   */\n      swap2\n      pop\n        /* \"#utility.yul\":1999:2019   */\n      tag_62\n        /* \"#utility.yul\":2017:2018   */\n      dup4\n        /* \"#utility.yul\":1999:2019   */\n      tag_30\n      jump\t// in\n    tag_62:\n        /* \"#utility.yul\":1994:2019   */\n      swap3\n      pop\n        /* \"#utility.yul\":2043:2044   */\n      dup3\n        /* \"#utility.yul\":2040:2041   */\n      dup3\n        /* \"#utility.yul\":2036:2045   */\n      sub\n        /* \"#utility.yul\":2028:2045   */\n      swap1\n      pop\n        /* \"#utility.yul\":2067:2068   */\n      dup2\n        /* \"#utility.yul\":2061:2065   */\n      dup2\n        /* \"#utility.yul\":2058:2069   */\n      gt\n        /* \"#utility.yul\":2055:2092   */\n      iszero\n      tag_63\n      jumpi\n        /* \"#utility.yul\":2072:2090   */\n      tag_64\n      tag_34\n      jump\t// in\n    tag_64:\n        /* \"#utility.yul\":2055:2092   */\n    tag_63:\n        /* \"#utility.yul\":1905:2099   */\n      swap3\n      swap2\n      pop\n      pop\n      jump\t// out\n\n    auxdata: 0xa26469706673582212202bb9957b6697c89cb8f277acdf425b3c3e099d92fa3edc6e05222cb6607ba82164736f6c63430008120033\n}\n",
				"bytecode": {
					"linkReferences": {},
					"object": "608060405234801561001057600080fd5b50610294806100206000396000f3fe608060405234801561001057600080fd5b50600436106100415760003560e01c8063771602f714610046578063a2138e6714610076578063b67d77c5146100a6575b600080fd5b610060600480360381019061005b919061015d565b6100d6565b60405161006d91906101ac565b60405180910390f35b610090600480360381019061008b919061015d565b6100ec565b60405161009d91906101ac565b60405180910390f35b6100c060048036038101906100bb919061015d565b61010c565b6040516100cd91906101ac565b60405180910390f35b600081836100e491906101f6565b905092915050565b600080838485020290506000838485020290508082019250505092915050565b6000818361011a919061022a565b905092915050565b600080fd5b6000819050919050565b61013a81610127565b811461014557600080fd5b50565b60008135905061015781610131565b92915050565b6000806040838503121561017457610173610122565b5b600061018285828601610148565b925050602061019385828601610148565b9150509250929050565b6101a681610127565b82525050565b60006020820190506101c1600083018461019d565b92915050565b7f4e487b7100000000000000000000000000000000000000000000000000000000600052601160045260246000fd5b600061020182610127565b915061020c83610127565b9250828201905080821115610224576102236101c7565b5b92915050565b600061023582610127565b915061024083610127565b9250828203905081811115610258576102576101c7565b5b9291505056fea26469706673582212202bb9957b6697c89cb8f277acdf425b3c3e099d92fa3edc6e05222cb6607ba82164736f6c63430008120033",
					"opcodes": "PUSH1 0x80 PUSH1 0x40 MSTORE CALLVALUE DUP1 ISZERO PUSH2 0x10 JUMPI PUSH1 0x0 DUP1 REVERT JUMPDEST POP PUSH2 0x294 DUP1 PUSH2 0x20 PUSH1 0x0 CODECOPY PUSH1 0x0 RETURN INVALID PUSH1 0x80 PUSH1 0x40 MSTORE CALLVALUE DUP1 ISZERO PUSH2 0x10 JUMPI PUSH1 0x0 DUP1 REVERT JUMPDEST POP PUSH1 0x4 CALLDATASIZE LT PUSH2 0x41 JUMPI PUSH1 0x0 CALLDATALOAD PUSH1 0xE0 SHR DUP1 PUSH4 0x771602F7 EQ PUSH2 0x46 JUMPI DUP1 PUSH4 0xA2138E67 EQ PUSH2 0x76 JUMPI DUP1 PUSH4 0xB67D77C5 EQ PUSH2 0xA6 JUMPI JUMPDEST PUSH1 0x0 DUP1 REVERT JUMPDEST PUSH2 0x60 PUSH1 0x4 DUP1 CALLDATASIZE SUB DUP2 ADD SWAP1 PUSH2 0x5B SWAP2 SWAP1 PUSH2 0x15D JUMP JUMPDEST PUSH2 0xD6 JUMP JUMPDEST PUSH1 0x40 MLOAD PUSH2 0x6D SWAP2 SWAP1 PUSH2 0x1AC JUMP JUMPDEST PUSH1 0x40 MLOAD DUP1 SWAP2 SUB SWAP1 RETURN JUMPDEST PUSH2 0x90 PUSH1 0x4 DUP1 CALLDATASIZE SUB DUP2 ADD SWAP1 PUSH2 0x8B SWAP2 SWAP1 PUSH2 0x15D JUMP JUMPDEST PUSH2 0xEC JUMP JUMPDEST PUSH1 0x40 MLOAD PUSH2 0x9D SWAP2 SWAP1 PUSH2 0x1AC JUMP JUMPDEST PUSH1 0x40 MLOAD DUP1 SWAP2 SUB SWAP1 RETURN JUMPDEST PUSH2 0xC0 PUSH1 0x4 DUP1 CALLDATASIZE SUB DUP2 ADD SWAP1 PUSH2 0xBB SWAP2 SWAP1 PUSH2 0x15D JUMP JUMPDEST PUSH2 0x10C JUMP JUMPDEST PUSH1 0x40 MLOAD PUSH2 0xCD SWAP2 SWAP1 PUSH2 0x1AC JUMP JUMPDEST PUSH1 0x40 MLOAD DUP1 SWAP2 SUB SWAP1 RETURN JUMPDEST PUSH1 0x0 DUP2 DUP4 PUSH2 0xE4 SWAP2 SWAP1 PUSH2 0x1F6 JUMP JUMPDEST SWAP1 POP SWAP3 SWAP2 POP POP JUMP JUMPDEST PUSH1 0x0 DUP1 DUP4 DUP5 DUP6 MUL MUL SWAP1 POP PUSH1 0x0 DUP4 DUP5 DUP6 MUL MUL SWAP1 POP DUP1 DUP3 ADD SWAP3 POP POP POP SWAP3 SWAP2 POP POP JUMP JUMPDEST PUSH1 0x0 DUP2 DUP4 PUSH2 0x11A SWAP2 SWAP1 PUSH2 0x22A JUMP JUMPDEST SWAP1 POP SWAP3 SWAP2 POP POP JUMP JUMPDEST PUSH1 0x0 DUP1 REVERT JUMPDEST PUSH1 0x0 DUP2 SWAP1 POP SWAP2 SWAP1 POP JUMP JUMPDEST PUSH2 0x13A DUP2 PUSH2 0x127 JUMP JUMPDEST DUP2 EQ PUSH2 0x145 JUMPI PUSH1 0x0 DUP1 REVERT JUMPDEST POP JUMP JUMPDEST PUSH1 0x0 DUP2 CALLDATALOAD SWAP1 POP PUSH2 0x157 DUP2 PUSH2 0x131 JUMP JUMPDEST SWAP3 SWAP2 POP POP JUMP JUMPDEST PUSH1 0x0 DUP1 PUSH1 0x40 DUP4 DUP6 SUB SLT ISZERO PUSH2 0x174 JUMPI PUSH2 0x173 PUSH2 0x122 JUMP JUMPDEST JUMPDEST PUSH1 0x0 PUSH2 0x182 DUP6 DUP3 DUP7 ADD PUSH2 0x148 JUMP JUMPDEST SWAP3 POP POP PUSH1 0x20 PUSH2 0x193 DUP6 DUP3 DUP7 ADD PUSH2 0x148 JUMP JUMPDEST SWAP2 POP POP SWAP3 POP SWAP3 SWAP1 POP JUMP JUMPDEST PUSH2 0x1A6 DUP2 PUSH2 0x127 JUMP JUMPDEST DUP3 MSTORE POP POP JUMP JUMPDEST PUSH1 0x0 PUSH1 0x20 DUP3 ADD SWAP1 POP PUSH2 0x1C1 PUSH1 0x0 DUP4 ADD DUP5 PUSH2 0x19D JUMP JUMPDEST SWAP3 SWAP2 POP POP JUMP JUMPDEST PUSH32 0x4E487B7100000000000000000000000000000000000000000000000000000000 PUSH1 0x0 MSTORE PUSH1 0x11 PUSH1 0x4 MSTORE PUSH1 0x24 PUSH1 0x0 REVERT JUMPDEST PUSH1 0x0 PUSH2 0x201 DUP3 PUSH2 0x127 JUMP JUMPDEST SWAP2 POP PUSH2 0x20C DUP4 PUSH2 0x127 JUMP JUMPDEST SWAP3 POP DUP3 DUP3 ADD SWAP1 POP DUP1 DUP3 GT ISZERO PUSH2 0x224 JUMPI PUSH2 0x223 PUSH2 0x1C7 JUMP JUMPDEST JUMPDEST SWAP3 SWAP2 POP POP JUMP JUMPDEST PUSH1 0x0 PUSH2 0x235 DUP3 PUSH2 0x127 JUMP JUMPDEST SWAP2 POP PUSH2 0x240 DUP4 PUSH2 0x127 JUMP JUMPDEST SWAP3 POP DUP3 DUP3 SUB SWAP1 POP DUP2 DUP2 GT ISZERO PUSH2 0x258 JUMPI PUSH2 0x257 PUSH2 0x1C7 JUMP JUMPDEST JUMPDEST SWAP3 SWAP2 POP POP JUMP INVALID LOG2 PUSH5 0x6970667358 0x22 SLT KECCAK256 0x2B 0xB9 SWAP6 PUSH28 0x6697C89CB8F277ACDF425B3C3E099D92FA3EDC6E05222CB6607BA821 PUSH5 0x736F6C6343 STOP ADDMOD SLT STOP CALLER "
				},
				"gasEstimates": {
					"creation": {
						"codeDepositCost": "132000",
						"executionCost": "177",
						"totalCost": "132177"
					},
					"external": {
						"add(uint256,uint256)": "infinite",
						"sub(uint256,uint256)": "infinite",
						"sumOfCubes(uint256,uint256)": "infinite"
					}
				},
				"methodIdentifiers": {
					"add(uint256,uint256)": "771602f7",
					"sub(uint256,uint256)": "b67d77c5",
					"sumOfCubes(uint256,uint256)": "a2138e67"
				}
			},
			"storageLayout": {
				"storage": [],
				"types": null
			},
			"userdoc": {
				"kind": "user",
				"methods": {},
				"version": 1
			}
		}
	}
}