{
	"DiscreteStakingRewards.sol": {
		"DiscreteStakingRewards": {
			"abi": [
				{
					"inputs": [
						{
							"internalType": "address",
							"name": "_stakingToken",
							"type": "address"
						},
						{
							"internalType": "address",
							"name": "_rewardToken",
							"type": "address"
						}
					],
					"stateMutability": "nonpayable",
					"type": "constructor"
				},
				{
					"inputs": [
						{
							"internalType": "address",
							"name": "",
							"type": "address"
						}
					],
					"name": "balanceOf",
					"outputs": [
						{
							"internalType": "uint256",
							"name": "",
							"type": "uint256"
						}
					],
					"stateMutability": "view",
					"type": "function"
				},
				{
					"inputs": [
						{
							"internalType": "address",
							"name": "account",
							"type": "address"
						}
					],
					"name": "calculateRewardEarned",
					"outputs": [
						{
							"internalType": "uint256",
							"name": "",
							"type": "uint256"
						}
					],
					"stateMutability": "view",
					"type": "function"
				},
				{
					"inputs": [],
					"name": "claim",
					"outputs": [
						{
							"internalType": "uint256",
							"name": "",
							"type": "uint256"
						}
					],
					"stateMutability": "nonpayable",
					"type": "function"
				},
				{
					"inputs": [],
					"name": "rewardToken",
					"outputs": [
						{
							"internalType": "contract IERC20",
							"name": "",
							"type": "address"
						}
					],
					"stateMutability": "view",
					"type": "function"
				},
				{
					"inputs": [
						{
							"internalType": "uint256",
							"name": "amount",
							"type": "uint256"
						}
					],
					"name": "stake",
					"outputs": [],
					"stateMutability": "nonpayable",
					"type": "function"
				},
				{
					"inputs": [],
					"name": "stakingToken",
					"outputs": [
						{
							"internalType": "contract IERC20",
							"name": "",
							"type": "address"
						}
					],
					"stateMutability": "view",
					"type": "function"
				},
				{
					"inputs": [],
					"name": "totalSupply",
					"outputs": [
						{
							"internalType": "uint256",
							"name": "",
							"type": "uint256"
						}
					],
					"stateMutability": "view",
					"type": "function"
				},
				{
					"inputs": [
						{
							"internalType": "uint256",
							"name": "amount",
							"type": "uint256"
						}
					],
					"name": "unstake",
					"outputs": [],
					"stateMutability": "nonpayable",
					"type": "function"
				},
				{
					"inputs": [
						{
							"internalType": "uint256",
							"name": "reward",
							"type": "uint256"
						}
					],
					"name": "updateRewardIndex",
					"outputs": [],
					"stateMutability": "nonpayable",
					"type": "function"
				}
			],
			"devdoc": {
				"kind": "dev",
				"methods": {},
				"version": 1
			},
			"evm": {
				"assembly": "    /* \"DiscreteStakingRewards.sol\":97:2116  contract DiscreteStakingRewards {... */\n  mstore(0x40, 0xc0)\n    /* \"DiscreteStakingRewards.sol\":487:643  constructor(address _stakingToken,address _rewardToken) {... */\n  callvalue\n  dup1\n  iszero\n  tag_1\n  jumpi\n  0x00\n  dup1\n  revert\ntag_1:\n  pop\n  mload(0x40)\n  sub(codesize, bytecodeSize)\n  dup1\n  bytecodeSize\n  dup4\n  codecopy\n  dup2\n  dup2\n  add\n  0x40\n  mstore\n  dup2\n  add\n  swap1\n  tag_2\n  swap2\n  swap1\n  tag_3\n  jump\t// in\ntag_2:\n    /* \"DiscreteStakingRewards.sol\":576:589  _stakingToken */\n  dup2\n    /* \"DiscreteStakingRewards.sol\":554:590  stakingToken = IERC20(_stakingToken) */\n  0xffffffffffffffffffffffffffffffffffffffff\n  and\n  0x80\n  dup2\n  0xffffffffffffffffffffffffffffffffffffffff\n  and\n  dup2\n  mstore\n  pop\n  pop\n    /* \"DiscreteStakingRewards.sol\":622:634  _rewardToken */\n  dup1\n    /* \"DiscreteStakingRewards.sol\":601:635  rewardToken = IERC20(_rewardToken) */\n  0xffffffffffffffffffffffffffffffffffffffff\n  and\n  0xa0\n  dup2\n  0xffffffffffffffffffffffffffffffffffffffff\n  and\n  dup2\n  mstore\n  pop\n  pop\n    /* \"DiscreteStakingRewards.sol\":487:643  constructor(address _stakingToken,address _rewardToken) {... */\n  pop\n  pop\n    /* \"DiscreteStakingRewards.sol\":97:2116  contract DiscreteStakingRewards {... */\n  jump(tag_6)\n    /* \"#utility.yul\":88:205   */\ntag_8:\n    /* \"#utility.yul\":197:198   */\n  0x00\n    /* \"#utility.yul\":194:195   */\n  dup1\n    /* \"#utility.yul\":187:199   */\n  revert\n    /* \"#utility.yul\":334:460   */\ntag_10:\n    /* \"#utility.yul\":371:378   */\n  0x00\n    /* \"#utility.yul\":411:453   */\n  0xffffffffffffffffffffffffffffffffffffffff\n    /* \"#utility.yul\":404:409   */\n  dup3\n    /* \"#utility.yul\":400:454   */\n  and\n    /* \"#utility.yul\":389:454   */\n  swap1\n  pop\n    /* \"#utility.yul\":334:460   */\n  swap2\n  swap1\n  pop\n  jump\t// out\n    /* \"#utility.yul\":466:562   */\ntag_11:\n    /* \"#utility.yul\":503:510   */\n  0x00\n    /* \"#utility.yul\":532:556   */\n  tag_20\n    /* \"#utility.yul\":550:555   */\n  dup3\n    /* \"#utility.yul\":532:556   */\n  tag_10\n  jump\t// in\ntag_20:\n    /* \"#utility.yul\":521:556   */\n  swap1\n  pop\n    /* \"#utility.yul\":466:562   */\n  swap2\n  swap1\n  pop\n  jump\t// out\n    /* \"#utility.yul\":568:690   */\ntag_12:\n    /* \"#utility.yul\":641:665   */\n  tag_22\n    /* \"#utility.yul\":659:664   */\n  dup2\n    /* \"#utility.yul\":641:665   */\n  tag_11\n  jump\t// in\ntag_22:\n    /* \"#utility.yul\":634:639   */\n  dup2\n    /* \"#utility.yul\":631:666   */\n  eq\n    /* \"#utility.yul\":621:684   */\n  tag_23\n  jumpi\n    /* \"#utility.yul\":680:681   */\n  0x00\n    /* \"#utility.yul\":677:678   */\n  dup1\n    /* \"#utility.yul\":670:682   */\n  revert\n    /* \"#utility.yul\":621:684   */\ntag_23:\n    /* \"#utility.yul\":568:690   */\n  pop\n  jump\t// out\n    /* \"#utility.yul\":696:839   */\ntag_13:\n    /* \"#utility.yul\":753:758   */\n  0x00\n    /* \"#utility.yul\":784:790   */\n  dup2\n    /* \"#utility.yul\":778:791   */\n  mload\n    /* \"#utility.yul\":769:791   */\n  swap1\n  pop\n    /* \"#utility.yul\":800:833   */\n  tag_25\n    /* \"#utility.yul\":827:832   */\n  dup2\n    /* \"#utility.yul\":800:833   */\n  tag_12\n  jump\t// in\ntag_25:\n    /* \"#utility.yul\":696:839   */\n  swap3\n  swap2\n  pop\n  pop\n  jump\t// out\n    /* \"#utility.yul\":845:1352   */\ntag_3:\n    /* \"#utility.yul\":924:930   */\n  0x00\n    /* \"#utility.yul\":932:938   */\n  dup1\n    /* \"#utility.yul\":981:983   */\n  0x40\n    /* \"#utility.yul\":969:978   */\n  dup4\n    /* \"#utility.yul\":960:967   */\n  dup6\n    /* \"#utility.yul\":956:979   */\n  sub\n    /* \"#utility.yul\":952:984   */\n  slt\n    /* \"#utility.yul\":949:1068   */\n  iszero\n  tag_27\n  jumpi\n    /* \"#utility.yul\":987:1066   */\n  tag_28\n  tag_8\n  jump\t// in\ntag_28:\n    /* \"#utility.yul\":949:1068   */\ntag_27:\n    /* \"#utility.yul\":1107:1108   */\n  0x00\n    /* \"#utility.yul\":1132:1196   */\n  tag_29\n    /* \"#utility.yul\":1188:1195   */\n  dup6\n    /* \"#utility.yul\":1179:1185   */\n  dup3\n    /* \"#utility.yul\":1168:1177   */\n  dup7\n    /* \"#utility.yul\":1164:1186   */\n  add\n    /* \"#utility.yul\":1132:1196   */\n  tag_13\n  jump\t// in\ntag_29:\n    /* \"#utility.yul\":1122:1196   */\n  swap3\n  pop\n    /* \"#utility.yul\":1078:1206   */\n  pop\n    /* \"#utility.yul\":1245:1247   */\n  0x20\n    /* \"#utility.yul\":1271:1335   */\n  tag_30\n    /* \"#utility.yul\":1327:1334   */\n  dup6\n    /* \"#utility.yul\":1318:1324   */\n  dup3\n    /* \"#utility.yul\":1307:1316   */\n  dup7\n    /* \"#utility.yul\":1303:1325   */\n  add\n    /* \"#utility.yul\":1271:1335   */\n  tag_13\n  jump\t// in\ntag_30:\n    /* \"#utility.yul\":1261:1335   */\n  swap2\n  pop\n    /* \"#utility.yul\":1216:1345   */\n  pop\n    /* \"#utility.yul\":845:1352   */\n  swap3\n  pop\n  swap3\n  swap1\n  pop\n  jump\t// out\n    /* \"DiscreteStakingRewards.sol\":97:2116  contract DiscreteStakingRewards {... */\ntag_6:\n  mload(0x80)\n  mload(0xa0)\n  codecopy(0x00, dataOffset(sub_0), dataSize(sub_0))\n  0x00\n  assignImmutable(\"0xe4b1702d9298fee62dfeccc57d322a463ad55ca201256d01f62b45b2e1c21c10\")\n  0x00\n  assignImmutable(\"0xceebf77a833b30520287ddd9478ff51abbdffa30aa90a8d655dba0e8a79ce0c1\")\n  return(0x00, dataSize(sub_0))\nstop\n\nsub_0: assembly {\n        /* \"DiscreteStakingRewards.sol\":97:2116  contract DiscreteStakingRewards {... */\n      mstore(0x40, 0x80)\n      callvalue\n      dup1\n      iszero\n      tag_1\n      jumpi\n      0x00\n      dup1\n      revert\n    tag_1:\n      pop\n      jumpi(tag_2, lt(calldatasize, 0x04))\n      shr(0xe0, calldataload(0x00))\n      dup1\n      0x5a230162\n      gt\n      tag_12\n      jumpi\n      dup1\n      0x5a230162\n      eq\n      tag_7\n      jumpi\n      dup1\n      0x70a08231\n      eq\n      tag_8\n      jumpi\n      dup1\n      0x72f702f3\n      eq\n      tag_9\n      jumpi\n      dup1\n      0xa694fc3a\n      eq\n      tag_10\n      jumpi\n      dup1\n      0xf7c618c1\n      eq\n      tag_11\n      jumpi\n      jump(tag_2)\n    tag_12:\n      dup1\n      0x0dcc4b44\n      eq\n      tag_3\n      jumpi\n      dup1\n      0x18160ddd\n      eq\n      tag_4\n      jumpi\n      dup1\n      0x2e17de78\n      eq\n      tag_5\n      jumpi\n      dup1\n      0x4e71d92d\n      eq\n      tag_6\n      jumpi\n    tag_2:\n      0x00\n      dup1\n      revert\n        /* \"DiscreteStakingRewards.sol\":655:843  function updateRewardIndex(uint reward) external {... */\n    tag_3:\n      tag_13\n      0x04\n      dup1\n      calldatasize\n      sub\n      dup2\n      add\n      swap1\n      tag_14\n      swap2\n      swap1\n      tag_15\n      jump\t// in\n    tag_14:\n      tag_16\n      jump\t// in\n    tag_13:\n      stop\n        /* \"DiscreteStakingRewards.sol\":271:294  uint public totalSupply */\n    tag_4:\n      tag_17\n      tag_18\n      jump\t// in\n    tag_17:\n      mload(0x40)\n      tag_19\n      swap2\n      swap1\n      tag_20\n      jump\t// in\n    tag_19:\n      mload(0x40)\n      dup1\n      swap2\n      sub\n      swap1\n      return\n        /* \"DiscreteStakingRewards.sol\":1611:1819  function unstake(uint amount) external {... */\n    tag_5:\n      tag_21\n      0x04\n      dup1\n      calldatasize\n      sub\n      dup2\n      add\n      swap1\n      tag_22\n      swap2\n      swap1\n      tag_15\n      jump\t// in\n    tag_22:\n      tag_23\n      jump\t// in\n    tag_21:\n      stop\n        /* \"DiscreteStakingRewards.sol\":1827:2111  function claim() external returns(uint) {... */\n    tag_6:\n      tag_24\n      tag_25\n      jump\t// in\n    tag_24:\n      mload(0x40)\n      tag_26\n      swap2\n      swap1\n      tag_20\n      jump\t// in\n    tag_26:\n      mload(0x40)\n      dup1\n      swap2\n      sub\n      swap1\n      return\n        /* \"DiscreteStakingRewards.sol\":1062:1206  function calculateRewardEarned(address account) external view returns(uint) {... */\n    tag_7:\n      tag_27\n      0x04\n      dup1\n      calldatasize\n      sub\n      dup2\n      add\n      swap1\n      tag_28\n      swap2\n      swap1\n      tag_29\n      jump\t// in\n    tag_28:\n      tag_30\n      jump\t// in\n    tag_27:\n      mload(0x40)\n      tag_31\n      swap2\n      swap1\n      tag_20\n      jump\t// in\n    tag_31:\n      mload(0x40)\n      dup1\n      swap2\n      sub\n      swap1\n      return\n        /* \"DiscreteStakingRewards.sol\":223:264  mapping(address => uint) public balanceOf */\n    tag_8:\n      tag_32\n      0x04\n      dup1\n      calldatasize\n      sub\n      dup2\n      add\n      swap1\n      tag_33\n      swap2\n      swap1\n      tag_29\n      jump\t// in\n    tag_33:\n      tag_34\n      jump\t// in\n    tag_32:\n      mload(0x40)\n      tag_35\n      swap2\n      swap1\n      tag_20\n      jump\t// in\n    tag_35:\n      mload(0x40)\n      dup1\n      swap2\n      sub\n      swap1\n      return\n        /* \"DiscreteStakingRewards.sol\":136:172  IERC20 public immutable stakingToken */\n    tag_9:\n      tag_36\n      tag_37\n      jump\t// in\n    tag_36:\n      mload(0x40)\n      tag_38\n      swap2\n      swap1\n      tag_39\n      jump\t// in\n    tag_38:\n      mload(0x40)\n      dup1\n      swap2\n      sub\n      swap1\n      return\n        /* \"DiscreteStakingRewards.sol\":1379:1603  function stake(uint amount) external {... */\n    tag_10:\n      tag_40\n      0x04\n      dup1\n      calldatasize\n      sub\n      dup2\n      add\n      swap1\n      tag_41\n      swap2\n      swap1\n      tag_15\n      jump\t// in\n    tag_41:\n      tag_42\n      jump\t// in\n    tag_40:\n      stop\n        /* \"DiscreteStakingRewards.sol\":179:214  IERC20 public immutable rewardToken */\n    tag_11:\n      tag_43\n      tag_44\n      jump\t// in\n    tag_43:\n      mload(0x40)\n      tag_45\n      swap2\n      swap1\n      tag_39\n      jump\t// in\n    tag_45:\n      mload(0x40)\n      dup1\n      swap2\n      sub\n      swap1\n      return\n        /* \"DiscreteStakingRewards.sol\":655:843  function updateRewardIndex(uint reward) external {... */\n    tag_16:\n        /* \"DiscreteStakingRewards.sol\":715:726  rewardToken */\n      immutable(\"0xe4b1702d9298fee62dfeccc57d322a463ad55ca201256d01f62b45b2e1c21c10\")\n        /* \"DiscreteStakingRewards.sol\":715:739  rewardToken.transferFrom */\n      0xffffffffffffffffffffffffffffffffffffffff\n      and\n      0x23b872dd\n        /* \"DiscreteStakingRewards.sol\":740:750  msg.sender */\n      caller\n        /* \"DiscreteStakingRewards.sol\":760:764  this */\n      address\n        /* \"DiscreteStakingRewards.sol\":767:773  reward */\n      dup5\n        /* \"DiscreteStakingRewards.sol\":715:774  rewardToken.transferFrom(msg.sender, address(this), reward) */\n      mload(0x40)\n      dup5\n      0xffffffff\n      and\n      0xe0\n      shl\n      dup2\n      mstore\n      0x04\n      add\n      tag_47\n      swap4\n      swap3\n      swap2\n      swap1\n      tag_48\n      jump\t// in\n    tag_47:\n      0x20\n      mload(0x40)\n      dup1\n      dup4\n      sub\n      dup2\n      0x00\n      dup8\n      gas\n      call\n      iszero\n      dup1\n      iszero\n      tag_50\n      jumpi\n      returndatasize\n      0x00\n      dup1\n      returndatacopy\n      revert(0x00, returndatasize)\n    tag_50:\n      pop\n      pop\n      pop\n      pop\n      mload(0x40)\n      returndatasize\n      not(0x1f)\n      0x1f\n      dup3\n      add\n      and\n      dup3\n      add\n      dup1\n      0x40\n      mstore\n      pop\n      dup2\n      add\n      swap1\n      tag_51\n      swap2\n      swap1\n      tag_52\n      jump\t// in\n    tag_51:\n      pop\n        /* \"DiscreteStakingRewards.sol\":824:835  totalSupply */\n      sload(0x01)\n        /* \"DiscreteStakingRewards.sol\":338:342  1e18 */\n      0x0de0b6b3a7640000\n        /* \"DiscreteStakingRewards.sol\":801:807  reward */\n      dup3\n        /* \"DiscreteStakingRewards.sol\":801:820  reward + MULTIPLIER */\n      tag_53\n      swap2\n      swap1\n      tag_54\n      jump\t// in\n    tag_53:\n        /* \"DiscreteStakingRewards.sol\":800:835  (reward + MULTIPLIER) / totalSupply */\n      tag_55\n      swap2\n      swap1\n      tag_56\n      jump\t// in\n    tag_55:\n        /* \"DiscreteStakingRewards.sol\":785:796  rewardIndex */\n      0x02\n      0x00\n        /* \"DiscreteStakingRewards.sol\":785:835  rewardIndex += (reward + MULTIPLIER) / totalSupply */\n      dup3\n      dup3\n      sload\n      tag_57\n      swap2\n      swap1\n      tag_54\n      jump\t// in\n    tag_57:\n      swap3\n      pop\n      pop\n      dup2\n      swap1\n      sstore\n      pop\n        /* \"DiscreteStakingRewards.sol\":655:843  function updateRewardIndex(uint reward) external {... */\n      pop\n      jump\t// out\n        /* \"DiscreteStakingRewards.sol\":271:294  uint public totalSupply */\n    tag_18:\n      sload(0x01)\n      dup2\n      jump\t// out\n        /* \"DiscreteStakingRewards.sol\":1611:1819  function unstake(uint amount) external {... */\n    tag_23:\n        /* \"DiscreteStakingRewards.sol\":1661:1686  updateRewards(msg.sender) */\n      tag_59\n        /* \"DiscreteStakingRewards.sol\":1675:1685  msg.sender */\n      caller\n        /* \"DiscreteStakingRewards.sol\":1661:1674  updateRewards */\n      tag_60\n        /* \"DiscreteStakingRewards.sol\":1661:1686  updateRewards(msg.sender) */\n      jump\t// in\n    tag_59:\n        /* \"DiscreteStakingRewards.sol\":1722:1728  amount */\n      dup1\n        /* \"DiscreteStakingRewards.sol\":1697:1706  balanceOf */\n      0x00\n        /* \"DiscreteStakingRewards.sol\":1697:1718  balanceOf[msg.sender] */\n      dup1\n        /* \"DiscreteStakingRewards.sol\":1707:1717  msg.sender */\n      caller\n        /* \"DiscreteStakingRewards.sol\":1697:1718  balanceOf[msg.sender] */\n      0xffffffffffffffffffffffffffffffffffffffff\n      and\n      0xffffffffffffffffffffffffffffffffffffffff\n      and\n      dup2\n      mstore\n      0x20\n      add\n      swap1\n      dup2\n      mstore\n      0x20\n      add\n      0x00\n      keccak256\n      0x00\n        /* \"DiscreteStakingRewards.sol\":1697:1728  balanceOf[msg.sender] -= amount */\n      dup3\n      dup3\n      sload\n      tag_61\n      swap2\n      swap1\n      tag_62\n      jump\t// in\n    tag_61:\n      swap3\n      pop\n      pop\n      dup2\n      swap1\n      sstore\n      pop\n        /* \"DiscreteStakingRewards.sol\":1754:1760  amount */\n      dup1\n        /* \"DiscreteStakingRewards.sol\":1739:1750  totalSupply */\n      0x01\n      0x00\n        /* \"DiscreteStakingRewards.sol\":1739:1760  totalSupply -= amount */\n      dup3\n      dup3\n      sload\n      tag_63\n      swap2\n      swap1\n      tag_62\n      jump\t// in\n    tag_63:\n      swap3\n      pop\n      pop\n      dup2\n      swap1\n      sstore\n      pop\n        /* \"DiscreteStakingRewards.sol\":1771:1783  stakingToken */\n      immutable(\"0xceebf77a833b30520287ddd9478ff51abbdffa30aa90a8d655dba0e8a79ce0c1\")\n        /* \"DiscreteStakingRewards.sol\":1771:1792  stakingToken.transfer */\n      0xffffffffffffffffffffffffffffffffffffffff\n      and\n      0xa9059cbb\n        /* \"DiscreteStakingRewards.sol\":1793:1803  msg.sender */\n      caller\n        /* \"DiscreteStakingRewards.sol\":1804:1810  amount */\n      dup4\n        /* \"DiscreteStakingRewards.sol\":1771:1811  stakingToken.transfer(msg.sender,amount) */\n      mload(0x40)\n      dup4\n      0xffffffff\n      and\n      0xe0\n      shl\n      dup2\n      mstore\n      0x04\n      add\n      tag_64\n      swap3\n      swap2\n      swap1\n      tag_65\n      jump\t// in\n    tag_64:\n      0x20\n      mload(0x40)\n      dup1\n      dup4\n      sub\n      dup2\n      0x00\n      dup8\n      gas\n      call\n      iszero\n      dup1\n      iszero\n      tag_67\n      jumpi\n      returndatasize\n      0x00\n      dup1\n      returndatacopy\n      revert(0x00, returndatasize)\n    tag_67:\n      pop\n      pop\n      pop\n      pop\n      mload(0x40)\n      returndatasize\n      not(0x1f)\n      0x1f\n      dup3\n      add\n      and\n      dup3\n      add\n      dup1\n      0x40\n      mstore\n      pop\n      dup2\n      add\n      swap1\n      tag_68\n      swap2\n      swap1\n      tag_52\n      jump\t// in\n    tag_68:\n      pop\n        /* \"DiscreteStakingRewards.sol\":1611:1819  function unstake(uint amount) external {... */\n      pop\n      jump\t// out\n        /* \"DiscreteStakingRewards.sol\":1827:2111  function claim() external returns(uint) {... */\n    tag_25:\n        /* \"DiscreteStakingRewards.sol\":1861:1865  uint */\n      0x00\n        /* \"DiscreteStakingRewards.sol\":1878:1903  updateRewards(msg.sender) */\n      tag_70\n        /* \"DiscreteStakingRewards.sol\":1892:1902  msg.sender */\n      caller\n        /* \"DiscreteStakingRewards.sol\":1878:1891  updateRewards */\n      tag_60\n        /* \"DiscreteStakingRewards.sol\":1878:1903  updateRewards(msg.sender) */\n      jump\t// in\n    tag_70:\n        /* \"DiscreteStakingRewards.sol\":1914:1925  uint reward */\n      0x00\n        /* \"DiscreteStakingRewards.sol\":1928:1934  earned */\n      0x04\n        /* \"DiscreteStakingRewards.sol\":1928:1946  earned[msg.sender] */\n      0x00\n        /* \"DiscreteStakingRewards.sol\":1935:1945  msg.sender */\n      caller\n        /* \"DiscreteStakingRewards.sol\":1928:1946  earned[msg.sender] */\n      0xffffffffffffffffffffffffffffffffffffffff\n      and\n      0xffffffffffffffffffffffffffffffffffffffff\n      and\n      dup2\n      mstore\n      0x20\n      add\n      swap1\n      dup2\n      mstore\n      0x20\n      add\n      0x00\n      keccak256\n      sload\n        /* \"DiscreteStakingRewards.sol\":1914:1946  uint reward = earned[msg.sender] */\n      swap1\n      pop\n        /* \"DiscreteStakingRewards.sol\":1972:1973  0 */\n      0x00\n        /* \"DiscreteStakingRewards.sol\":1963:1969  reward */\n      dup2\n        /* \"DiscreteStakingRewards.sol\":1963:1973  reward > 0 */\n      gt\n        /* \"DiscreteStakingRewards.sol\":1959:2078  if (reward > 0) {... */\n      iszero\n      tag_71\n      jumpi\n        /* \"DiscreteStakingRewards.sol\":2011:2012  0 */\n      0x00\n        /* \"DiscreteStakingRewards.sol\":1990:1996  earned */\n      0x04\n        /* \"DiscreteStakingRewards.sol\":1990:2008  earned[msg.sender] */\n      0x00\n        /* \"DiscreteStakingRewards.sol\":1997:2007  msg.sender */\n      caller\n        /* \"DiscreteStakingRewards.sol\":1990:2008  earned[msg.sender] */\n      0xffffffffffffffffffffffffffffffffffffffff\n      and\n      0xffffffffffffffffffffffffffffffffffffffff\n      and\n      dup2\n      mstore\n      0x20\n      add\n      swap1\n      dup2\n      mstore\n      0x20\n      add\n      0x00\n      keccak256\n        /* \"DiscreteStakingRewards.sol\":1990:2012  earned[msg.sender] = 0 */\n      dup2\n      swap1\n      sstore\n      pop\n        /* \"DiscreteStakingRewards.sol\":2027:2038  rewardToken */\n      immutable(\"0xe4b1702d9298fee62dfeccc57d322a463ad55ca201256d01f62b45b2e1c21c10\")\n        /* \"DiscreteStakingRewards.sol\":2027:2047  rewardToken.transfer */\n      0xffffffffffffffffffffffffffffffffffffffff\n      and\n      0xa9059cbb\n        /* \"DiscreteStakingRewards.sol\":2048:2058  msg.sender */\n      caller\n        /* \"DiscreteStakingRewards.sol\":2059:2065  reward */\n      dup4\n        /* \"DiscreteStakingRewards.sol\":2027:2066  rewardToken.transfer(msg.sender,reward) */\n      mload(0x40)\n      dup4\n      0xffffffff\n      and\n      0xe0\n      shl\n      dup2\n      mstore\n      0x04\n      add\n      tag_72\n      swap3\n      swap2\n      swap1\n      tag_65\n      jump\t// in\n    tag_72:\n      0x20\n      mload(0x40)\n      dup1\n      dup4\n      sub\n      dup2\n      0x00\n      dup8\n      gas\n      call\n      iszero\n      dup1\n      iszero\n      tag_74\n      jumpi\n      returndatasize\n      0x00\n      dup1\n      returndatacopy\n      revert(0x00, returndatasize)\n    tag_74:\n      pop\n      pop\n      pop\n      pop\n      mload(0x40)\n      returndatasize\n      not(0x1f)\n      0x1f\n      dup3\n      add\n      and\n      dup3\n      add\n      dup1\n      0x40\n      mstore\n      pop\n      dup2\n      add\n      swap1\n      tag_75\n      swap2\n      swap1\n      tag_52\n      jump\t// in\n    tag_75:\n      pop\n        /* \"DiscreteStakingRewards.sol\":1959:2078  if (reward > 0) {... */\n    tag_71:\n        /* \"DiscreteStakingRewards.sol\":2095:2101  reward */\n      dup1\n        /* \"DiscreteStakingRewards.sol\":2088:2101  return reward */\n      swap2\n      pop\n      pop\n        /* \"DiscreteStakingRewards.sol\":1827:2111  function claim() external returns(uint) {... */\n      swap1\n      jump\t// out\n        /* \"DiscreteStakingRewards.sol\":1062:1206  function calculateRewardEarned(address account) external view returns(uint) {... */\n    tag_30:\n        /* \"DiscreteStakingRewards.sol\":1132:1136  uint */\n      0x00\n        /* \"DiscreteStakingRewards.sol\":1174:1198  calculateReward(account) */\n      tag_77\n        /* \"DiscreteStakingRewards.sol\":1190:1197  account */\n      dup3\n        /* \"DiscreteStakingRewards.sol\":1174:1189  calculateReward */\n      tag_78\n        /* \"DiscreteStakingRewards.sol\":1174:1198  calculateReward(account) */\n      jump\t// in\n    tag_77:\n        /* \"DiscreteStakingRewards.sol\":1156:1162  earned */\n      0x04\n        /* \"DiscreteStakingRewards.sol\":1156:1171  earned[account] */\n      0x00\n        /* \"DiscreteStakingRewards.sol\":1163:1170  account */\n      dup5\n        /* \"DiscreteStakingRewards.sol\":1156:1171  earned[account] */\n      0xffffffffffffffffffffffffffffffffffffffff\n      and\n      0xffffffffffffffffffffffffffffffffffffffff\n      and\n      dup2\n      mstore\n      0x20\n      add\n      swap1\n      dup2\n      mstore\n      0x20\n      add\n      0x00\n      keccak256\n      sload\n        /* \"DiscreteStakingRewards.sol\":1156:1198  earned[account] + calculateReward(account) */\n      tag_79\n      swap2\n      swap1\n      tag_54\n      jump\t// in\n    tag_79:\n        /* \"DiscreteStakingRewards.sol\":1149:1198  return earned[account] + calculateReward(account) */\n      swap1\n      pop\n        /* \"DiscreteStakingRewards.sol\":1062:1206  function calculateRewardEarned(address account) external view returns(uint) {... */\n      swap2\n      swap1\n      pop\n      jump\t// out\n        /* \"DiscreteStakingRewards.sol\":223:264  mapping(address => uint) public balanceOf */\n    tag_34:\n      mstore(0x20, 0x00)\n      dup1\n      0x00\n      mstore\n      keccak256(0x00, 0x40)\n      0x00\n      swap2\n      pop\n      swap1\n      pop\n      sload\n      dup2\n      jump\t// out\n        /* \"DiscreteStakingRewards.sol\":136:172  IERC20 public immutable stakingToken */\n    tag_37:\n      immutable(\"0xceebf77a833b30520287ddd9478ff51abbdffa30aa90a8d655dba0e8a79ce0c1\")\n      dup2\n      jump\t// out\n        /* \"DiscreteStakingRewards.sol\":1379:1603  function stake(uint amount) external {... */\n    tag_42:\n        /* \"DiscreteStakingRewards.sol\":1427:1452  updateRewards(msg.sender) */\n      tag_81\n        /* \"DiscreteStakingRewards.sol\":1441:1451  msg.sender */\n      caller\n        /* \"DiscreteStakingRewards.sol\":1427:1440  updateRewards */\n      tag_60\n        /* \"DiscreteStakingRewards.sol\":1427:1452  updateRewards(msg.sender) */\n      jump\t// in\n    tag_81:\n        /* \"DiscreteStakingRewards.sol\":1488:1494  amount */\n      dup1\n        /* \"DiscreteStakingRewards.sol\":1463:1472  balanceOf */\n      0x00\n        /* \"DiscreteStakingRewards.sol\":1463:1484  balanceOf[msg.sender] */\n      dup1\n        /* \"DiscreteStakingRewards.sol\":1473:1483  msg.sender */\n      caller\n        /* \"DiscreteStakingRewards.sol\":1463:1484  balanceOf[msg.sender] */\n      0xffffffffffffffffffffffffffffffffffffffff\n      and\n      0xffffffffffffffffffffffffffffffffffffffff\n      and\n      dup2\n      mstore\n      0x20\n      add\n      swap1\n      dup2\n      mstore\n      0x20\n      add\n      0x00\n      keccak256\n      0x00\n        /* \"DiscreteStakingRewards.sol\":1463:1494  balanceOf[msg.sender] += amount */\n      dup3\n      dup3\n      sload\n      tag_82\n      swap2\n      swap1\n      tag_54\n      jump\t// in\n    tag_82:\n      swap3\n      pop\n      pop\n      dup2\n      swap1\n      sstore\n      pop\n        /* \"DiscreteStakingRewards.sol\":1520:1526  amount */\n      dup1\n        /* \"DiscreteStakingRewards.sol\":1505:1516  totalSupply */\n      0x01\n      0x00\n        /* \"DiscreteStakingRewards.sol\":1505:1526  totalSupply += amount */\n      dup3\n      dup3\n      sload\n      tag_83\n      swap2\n      swap1\n      tag_54\n      jump\t// in\n    tag_83:\n      swap3\n      pop\n      pop\n      dup2\n      swap1\n      sstore\n      pop\n        /* \"DiscreteStakingRewards.sol\":1537:1549  stakingToken */\n      immutable(\"0xceebf77a833b30520287ddd9478ff51abbdffa30aa90a8d655dba0e8a79ce0c1\")\n        /* \"DiscreteStakingRewards.sol\":1537:1562  stakingToken.transferFrom */\n      0xffffffffffffffffffffffffffffffffffffffff\n      and\n      0x23b872dd\n        /* \"DiscreteStakingRewards.sol\":1563:1573  msg.sender */\n      caller\n        /* \"DiscreteStakingRewards.sol\":1582:1586  this */\n      address\n        /* \"DiscreteStakingRewards.sol\":1588:1594  amount */\n      dup5\n        /* \"DiscreteStakingRewards.sol\":1537:1595  stakingToken.transferFrom(msg.sender,address(this),amount) */\n      mload(0x40)\n      dup5\n      0xffffffff\n      and\n      0xe0\n      shl\n      dup2\n      mstore\n      0x04\n      add\n      tag_84\n      swap4\n      swap3\n      swap2\n      swap1\n      tag_48\n      jump\t// in\n    tag_84:\n      0x20\n      mload(0x40)\n      dup1\n      dup4\n      sub\n      dup2\n      0x00\n      dup8\n      gas\n      call\n      iszero\n      dup1\n      iszero\n      tag_86\n      jumpi\n      returndatasize\n      0x00\n      dup1\n      returndatacopy\n      revert(0x00, returndatasize)\n    tag_86:\n      pop\n      pop\n      pop\n      pop\n      mload(0x40)\n      returndatasize\n      not(0x1f)\n      0x1f\n      dup3\n      add\n      and\n      dup3\n      add\n      dup1\n      0x40\n      mstore\n      pop\n      dup2\n      add\n      swap1\n      tag_87\n      swap2\n      swap1\n      tag_52\n      jump\t// in\n    tag_87:\n      pop\n        /* \"DiscreteStakingRewards.sol\":1379:1603  function stake(uint amount) external {... */\n      pop\n      jump\t// out\n        /* \"DiscreteStakingRewards.sol\":179:214  IERC20 public immutable rewardToken */\n    tag_44:\n      immutable(\"0xe4b1702d9298fee62dfeccc57d322a463ad55ca201256d01f62b45b2e1c21c10\")\n      dup2\n      jump\t// out\n        /* \"DiscreteStakingRewards.sol\":1214:1371  function updateRewards(address account) private {... */\n    tag_60:\n        /* \"DiscreteStakingRewards.sol\":1292:1316  calculateReward(account) */\n      tag_89\n        /* \"DiscreteStakingRewards.sol\":1308:1315  account */\n      dup2\n        /* \"DiscreteStakingRewards.sol\":1292:1307  calculateReward */\n      tag_78\n        /* \"DiscreteStakingRewards.sol\":1292:1316  calculateReward(account) */\n      jump\t// in\n    tag_89:\n        /* \"DiscreteStakingRewards.sol\":1273:1279  earned */\n      0x04\n        /* \"DiscreteStakingRewards.sol\":1273:1288  earned[account] */\n      0x00\n        /* \"DiscreteStakingRewards.sol\":1280:1287  account */\n      dup4\n        /* \"DiscreteStakingRewards.sol\":1273:1288  earned[account] */\n      0xffffffffffffffffffffffffffffffffffffffff\n      and\n      0xffffffffffffffffffffffffffffffffffffffff\n      and\n      dup2\n      mstore\n      0x20\n      add\n      swap1\n      dup2\n      mstore\n      0x20\n      add\n      0x00\n      keccak256\n      0x00\n        /* \"DiscreteStakingRewards.sol\":1273:1316  earned[account] += calculateReward(account) */\n      dup3\n      dup3\n      sload\n      tag_90\n      swap2\n      swap1\n      tag_54\n      jump\t// in\n    tag_90:\n      swap3\n      pop\n      pop\n      dup2\n      swap1\n      sstore\n      pop\n        /* \"DiscreteStakingRewards.sol\":1352:1363  rewardIndex */\n      sload(0x02)\n        /* \"DiscreteStakingRewards.sol\":1327:1340  rewardIndexOf */\n      0x03\n        /* \"DiscreteStakingRewards.sol\":1327:1349  rewardIndexOf[account] */\n      0x00\n        /* \"DiscreteStakingRewards.sol\":1341:1348  account */\n      dup4\n        /* \"DiscreteStakingRewards.sol\":1327:1349  rewardIndexOf[account] */\n      0xffffffffffffffffffffffffffffffffffffffff\n      and\n      0xffffffffffffffffffffffffffffffffffffffff\n      and\n      dup2\n      mstore\n      0x20\n      add\n      swap1\n      dup2\n      mstore\n      0x20\n      add\n      0x00\n      keccak256\n        /* \"DiscreteStakingRewards.sol\":1327:1363  rewardIndexOf[account] = rewardIndex */\n      dup2\n      swap1\n      sstore\n      pop\n        /* \"DiscreteStakingRewards.sol\":1214:1371  function updateRewards(address account) private {... */\n      pop\n      jump\t// out\n        /* \"DiscreteStakingRewards.sol\":851:1054  function calculateReward(address account) private view returns (uint) {... */\n    tag_78:\n        /* \"DiscreteStakingRewards.sol\":915:919  uint */\n      0x00\n        /* \"DiscreteStakingRewards.sol\":932:943  uint shares */\n      dup1\n        /* \"DiscreteStakingRewards.sol\":946:955  balanceOf */\n      0x00\n        /* \"DiscreteStakingRewards.sol\":946:964  balanceOf[account] */\n      dup1\n        /* \"DiscreteStakingRewards.sol\":956:963  account */\n      dup5\n        /* \"DiscreteStakingRewards.sol\":946:964  balanceOf[account] */\n      0xffffffffffffffffffffffffffffffffffffffff\n      and\n      0xffffffffffffffffffffffffffffffffffffffff\n      and\n      dup2\n      mstore\n      0x20\n      add\n      swap1\n      dup2\n      mstore\n      0x20\n      add\n      0x00\n      keccak256\n      sload\n        /* \"DiscreteStakingRewards.sol\":932:964  uint shares = balanceOf[account] */\n      swap1\n      pop\n        /* \"DiscreteStakingRewards.sol\":338:342  1e18 */\n      0x0de0b6b3a7640000\n        /* \"DiscreteStakingRewards.sol\":1007:1020  rewardIndexOf */\n      0x03\n        /* \"DiscreteStakingRewards.sol\":1007:1029  rewardIndexOf[account] */\n      0x00\n        /* \"DiscreteStakingRewards.sol\":1021:1028  account */\n      dup6\n        /* \"DiscreteStakingRewards.sol\":1007:1029  rewardIndexOf[account] */\n      0xffffffffffffffffffffffffffffffffffffffff\n      and\n      0xffffffffffffffffffffffffffffffffffffffff\n      and\n      dup2\n      mstore\n      0x20\n      add\n      swap1\n      dup2\n      mstore\n      0x20\n      add\n      0x00\n      keccak256\n      sload\n        /* \"DiscreteStakingRewards.sol\":993:1004  rewardIndex */\n      sload(0x02)\n        /* \"DiscreteStakingRewards.sol\":993:1029  rewardIndex - rewardIndexOf[account] */\n      tag_92\n      swap2\n      swap1\n      tag_62\n      jump\t// in\n    tag_92:\n        /* \"DiscreteStakingRewards.sol\":983:989  shares */\n      dup3\n        /* \"DiscreteStakingRewards.sol\":983:1030  shares * (rewardIndex - rewardIndexOf[account]) */\n      tag_93\n      swap2\n      swap1\n      tag_94\n      jump\t// in\n    tag_93:\n        /* \"DiscreteStakingRewards.sol\":982:1044  (shares * (rewardIndex - rewardIndexOf[account])) / MULTIPLIER */\n      tag_95\n      swap2\n      swap1\n      tag_56\n      jump\t// in\n    tag_95:\n        /* \"DiscreteStakingRewards.sol\":975:1044  return (shares * (rewardIndex - rewardIndexOf[account])) / MULTIPLIER */\n      swap2\n      pop\n      pop\n        /* \"DiscreteStakingRewards.sol\":851:1054  function calculateReward(address account) private view returns (uint) {... */\n      swap2\n      swap1\n      pop\n      jump\t// out\n        /* \"#utility.yul\":88:205   */\n    tag_97:\n        /* \"#utility.yul\":197:198   */\n      0x00\n        /* \"#utility.yul\":194:195   */\n      dup1\n        /* \"#utility.yul\":187:199   */\n      revert\n        /* \"#utility.yul\":334:411   */\n    tag_99:\n        /* \"#utility.yul\":371:378   */\n      0x00\n        /* \"#utility.yul\":400:405   */\n      dup2\n        /* \"#utility.yul\":389:405   */\n      swap1\n      pop\n        /* \"#utility.yul\":334:411   */\n      swap2\n      swap1\n      pop\n      jump\t// out\n        /* \"#utility.yul\":417:539   */\n    tag_100:\n        /* \"#utility.yul\":490:514   */\n      tag_124\n        /* \"#utility.yul\":508:513   */\n      dup2\n        /* \"#utility.yul\":490:514   */\n      tag_99\n      jump\t// in\n    tag_124:\n        /* \"#utility.yul\":483:488   */\n      dup2\n        /* \"#utility.yul\":480:515   */\n      eq\n        /* \"#utility.yul\":470:533   */\n      tag_125\n      jumpi\n        /* \"#utility.yul\":529:530   */\n      0x00\n        /* \"#utility.yul\":526:527   */\n      dup1\n        /* \"#utility.yul\":519:531   */\n      revert\n        /* \"#utility.yul\":470:533   */\n    tag_125:\n        /* \"#utility.yul\":417:539   */\n      pop\n      jump\t// out\n        /* \"#utility.yul\":545:684   */\n    tag_101:\n        /* \"#utility.yul\":591:596   */\n      0x00\n        /* \"#utility.yul\":629:635   */\n      dup2\n        /* \"#utility.yul\":616:636   */\n      calldataload\n        /* \"#utility.yul\":607:636   */\n      swap1\n      pop\n        /* \"#utility.yul\":645:678   */\n      tag_127\n        /* \"#utility.yul\":672:677   */\n      dup2\n        /* \"#utility.yul\":645:678   */\n      tag_100\n      jump\t// in\n    tag_127:\n        /* \"#utility.yul\":545:684   */\n      swap3\n      swap2\n      pop\n      pop\n      jump\t// out\n        /* \"#utility.yul\":690:1019   */\n    tag_15:\n        /* \"#utility.yul\":749:755   */\n      0x00\n        /* \"#utility.yul\":798:800   */\n      0x20\n        /* \"#utility.yul\":786:795   */\n      dup3\n        /* \"#utility.yul\":777:784   */\n      dup5\n        /* \"#utility.yul\":773:796   */\n      sub\n        /* \"#utility.yul\":769:801   */\n      slt\n        /* \"#utility.yul\":766:885   */\n      iszero\n      tag_129\n      jumpi\n        /* \"#utility.yul\":804:883   */\n      tag_130\n      tag_97\n      jump\t// in\n    tag_130:\n        /* \"#utility.yul\":766:885   */\n    tag_129:\n        /* \"#utility.yul\":924:925   */\n      0x00\n        /* \"#utility.yul\":949:1002   */\n      tag_131\n        /* \"#utility.yul\":994:1001   */\n      dup5\n        /* \"#utility.yul\":985:991   */\n      dup3\n        /* \"#utility.yul\":974:983   */\n      dup6\n        /* \"#utility.yul\":970:992   */\n      add\n        /* \"#utility.yul\":949:1002   */\n      tag_101\n      jump\t// in\n    tag_131:\n        /* \"#utility.yul\":939:1002   */\n      swap2\n      pop\n        /* \"#utility.yul\":895:1012   */\n      pop\n        /* \"#utility.yul\":690:1019   */\n      swap3\n      swap2\n      pop\n      pop\n      jump\t// out\n        /* \"#utility.yul\":1025:1143   */\n    tag_102:\n        /* \"#utility.yul\":1112:1136   */\n      tag_133\n        /* \"#utility.yul\":1130:1135   */\n      dup2\n        /* \"#utility.yul\":1112:1136   */\n      tag_99\n      jump\t// in\n    tag_133:\n        /* \"#utility.yul\":1107:1110   */\n      dup3\n        /* \"#utility.yul\":1100:1137   */\n      mstore\n        /* \"#utility.yul\":1025:1143   */\n      pop\n      pop\n      jump\t// out\n        /* \"#utility.yul\":1149:1371   */\n    tag_20:\n        /* \"#utility.yul\":1242:1246   */\n      0x00\n        /* \"#utility.yul\":1280:1282   */\n      0x20\n        /* \"#utility.yul\":1269:1278   */\n      dup3\n        /* \"#utility.yul\":1265:1283   */\n      add\n        /* \"#utility.yul\":1257:1283   */\n      swap1\n      pop\n        /* \"#utility.yul\":1293:1364   */\n      tag_135\n        /* \"#utility.yul\":1361:1362   */\n      0x00\n        /* \"#utility.yul\":1350:1359   */\n      dup4\n        /* \"#utility.yul\":1346:1363   */\n      add\n        /* \"#utility.yul\":1337:1343   */\n      dup5\n        /* \"#utility.yul\":1293:1364   */\n      tag_102\n      jump\t// in\n    tag_135:\n        /* \"#utility.yul\":1149:1371   */\n      swap3\n      swap2\n      pop\n      pop\n      jump\t// out\n        /* \"#utility.yul\":1377:1503   */\n    tag_103:\n        /* \"#utility.yul\":1414:1421   */\n      0x00\n        /* \"#utility.yul\":1454:1496   */\n      0xffffffffffffffffffffffffffffffffffffffff\n        /* \"#utility.yul\":1447:1452   */\n      dup3\n        /* \"#utility.yul\":1443:1497   */\n      and\n        /* \"#utility.yul\":1432:1497   */\n      swap1\n      pop\n        /* \"#utility.yul\":1377:1503   */\n      swap2\n      swap1\n      pop\n      jump\t// out\n        /* \"#utility.yul\":1509:1605   */\n    tag_104:\n        /* \"#utility.yul\":1546:1553   */\n      0x00\n        /* \"#utility.yul\":1575:1599   */\n      tag_138\n        /* \"#utility.yul\":1593:1598   */\n      dup3\n        /* \"#utility.yul\":1575:1599   */\n      tag_103\n      jump\t// in\n    tag_138:\n        /* \"#utility.yul\":1564:1599   */\n      swap1\n      pop\n        /* \"#utility.yul\":1509:1605   */\n      swap2\n      swap1\n      pop\n      jump\t// out\n        /* \"#utility.yul\":1611:1733   */\n    tag_105:\n        /* \"#utility.yul\":1684:1708   */\n      tag_140\n        /* \"#utility.yul\":1702:1707   */\n      dup2\n        /* \"#utility.yul\":1684:1708   */\n      tag_104\n      jump\t// in\n    tag_140:\n        /* \"#utility.yul\":1677:1682   */\n      dup2\n        /* \"#utility.yul\":1674:1709   */\n      eq\n        /* \"#utility.yul\":1664:1727   */\n      tag_141\n      jumpi\n        /* \"#utility.yul\":1723:1724   */\n      0x00\n        /* \"#utility.yul\":1720:1721   */\n      dup1\n        /* \"#utility.yul\":1713:1725   */\n      revert\n        /* \"#utility.yul\":1664:1727   */\n    tag_141:\n        /* \"#utility.yul\":1611:1733   */\n      pop\n      jump\t// out\n        /* \"#utility.yul\":1739:1878   */\n    tag_106:\n        /* \"#utility.yul\":1785:1790   */\n      0x00\n        /* \"#utility.yul\":1823:1829   */\n      dup2\n        /* \"#utility.yul\":1810:1830   */\n      calldataload\n        /* \"#utility.yul\":1801:1830   */\n      swap1\n      pop\n        /* \"#utility.yul\":1839:1872   */\n      tag_143\n        /* \"#utility.yul\":1866:1871   */\n      dup2\n        /* \"#utility.yul\":1839:1872   */\n      tag_105\n      jump\t// in\n    tag_143:\n        /* \"#utility.yul\":1739:1878   */\n      swap3\n      swap2\n      pop\n      pop\n      jump\t// out\n        /* \"#utility.yul\":1884:2213   */\n    tag_29:\n        /* \"#utility.yul\":1943:1949   */\n      0x00\n        /* \"#utility.yul\":1992:1994   */\n      0x20\n        /* \"#utility.yul\":1980:1989   */\n      dup3\n        /* \"#utility.yul\":1971:1978   */\n      dup5\n        /* \"#utility.yul\":1967:1990   */\n      sub\n        /* \"#utility.yul\":1963:1995   */\n      slt\n        /* \"#utility.yul\":1960:2079   */\n      iszero\n      tag_145\n      jumpi\n        /* \"#utility.yul\":1998:2077   */\n      tag_146\n      tag_97\n      jump\t// in\n    tag_146:\n        /* \"#utility.yul\":1960:2079   */\n    tag_145:\n        /* \"#utility.yul\":2118:2119   */\n      0x00\n        /* \"#utility.yul\":2143:2196   */\n      tag_147\n        /* \"#utility.yul\":2188:2195   */\n      dup5\n        /* \"#utility.yul\":2179:2185   */\n      dup3\n        /* \"#utility.yul\":2168:2177   */\n      dup6\n        /* \"#utility.yul\":2164:2186   */\n      add\n        /* \"#utility.yul\":2143:2196   */\n      tag_106\n      jump\t// in\n    tag_147:\n        /* \"#utility.yul\":2133:2196   */\n      swap2\n      pop\n        /* \"#utility.yul\":2089:2206   */\n      pop\n        /* \"#utility.yul\":1884:2213   */\n      swap3\n      swap2\n      pop\n      pop\n      jump\t// out\n        /* \"#utility.yul\":2219:2279   */\n    tag_107:\n        /* \"#utility.yul\":2247:2250   */\n      0x00\n        /* \"#utility.yul\":2268:2273   */\n      dup2\n        /* \"#utility.yul\":2261:2273   */\n      swap1\n      pop\n        /* \"#utility.yul\":2219:2279   */\n      swap2\n      swap1\n      pop\n      jump\t// out\n        /* \"#utility.yul\":2285:2427   */\n    tag_108:\n        /* \"#utility.yul\":2335:2344   */\n      0x00\n        /* \"#utility.yul\":2368:2421   */\n      tag_150\n        /* \"#utility.yul\":2386:2420   */\n      tag_151\n        /* \"#utility.yul\":2395:2419   */\n      tag_152\n        /* \"#utility.yul\":2413:2418   */\n      dup5\n        /* \"#utility.yul\":2395:2419   */\n      tag_103\n      jump\t// in\n    tag_152:\n        /* \"#utility.yul\":2386:2420   */\n      tag_107\n      jump\t// in\n    tag_151:\n        /* \"#utility.yul\":2368:2421   */\n      tag_103\n      jump\t// in\n    tag_150:\n        /* \"#utility.yul\":2355:2421   */\n      swap1\n      pop\n        /* \"#utility.yul\":2285:2427   */\n      swap2\n      swap1\n      pop\n      jump\t// out\n        /* \"#utility.yul\":2433:2559   */\n    tag_109:\n        /* \"#utility.yul\":2483:2492   */\n      0x00\n        /* \"#utility.yul\":2516:2553   */\n      tag_154\n        /* \"#utility.yul\":2547:2552   */\n      dup3\n        /* \"#utility.yul\":2516:2553   */\n      tag_108\n      jump\t// in\n    tag_154:\n        /* \"#utility.yul\":2503:2553   */\n      swap1\n      pop\n        /* \"#utility.yul\":2433:2559   */\n      swap2\n      swap1\n      pop\n      jump\t// out\n        /* \"#utility.yul\":2565:2705   */\n    tag_110:\n        /* \"#utility.yul\":2629:2638   */\n      0x00\n        /* \"#utility.yul\":2662:2699   */\n      tag_156\n        /* \"#utility.yul\":2693:2698   */\n      dup3\n        /* \"#utility.yul\":2662:2699   */\n      tag_109\n      jump\t// in\n    tag_156:\n        /* \"#utility.yul\":2649:2699   */\n      swap1\n      pop\n        /* \"#utility.yul\":2565:2705   */\n      swap2\n      swap1\n      pop\n      jump\t// out\n        /* \"#utility.yul\":2711:2870   */\n    tag_111:\n        /* \"#utility.yul\":2812:2863   */\n      tag_158\n        /* \"#utility.yul\":2857:2862   */\n      dup2\n        /* \"#utility.yul\":2812:2863   */\n      tag_110\n      jump\t// in\n    tag_158:\n        /* \"#utility.yul\":2807:2810   */\n      dup3\n        /* \"#utility.yul\":2800:2864   */\n      mstore\n        /* \"#utility.yul\":2711:2870   */\n      pop\n      pop\n      jump\t// out\n        /* \"#utility.yul\":2876:3126   */\n    tag_39:\n        /* \"#utility.yul\":2983:2987   */\n      0x00\n        /* \"#utility.yul\":3021:3023   */\n      0x20\n        /* \"#utility.yul\":3010:3019   */\n      dup3\n        /* \"#utility.yul\":3006:3024   */\n      add\n        /* \"#utility.yul\":2998:3024   */\n      swap1\n      pop\n        /* \"#utility.yul\":3034:3119   */\n      tag_160\n        /* \"#utility.yul\":3116:3117   */\n      0x00\n        /* \"#utility.yul\":3105:3114   */\n      dup4\n        /* \"#utility.yul\":3101:3118   */\n      add\n        /* \"#utility.yul\":3092:3098   */\n      dup5\n        /* \"#utility.yul\":3034:3119   */\n      tag_111\n      jump\t// in\n    tag_160:\n        /* \"#utility.yul\":2876:3126   */\n      swap3\n      swap2\n      pop\n      pop\n      jump\t// out\n        /* \"#utility.yul\":3132:3250   */\n    tag_112:\n        /* \"#utility.yul\":3219:3243   */\n      tag_162\n        /* \"#utility.yul\":3237:3242   */\n      dup2\n        /* \"#utility.yul\":3219:3243   */\n      tag_104\n      jump\t// in\n    tag_162:\n        /* \"#utility.yul\":3214:3217   */\n      dup3\n        /* \"#utility.yul\":3207:3244   */\n      mstore\n        /* \"#utility.yul\":3132:3250   */\n      pop\n      pop\n      jump\t// out\n        /* \"#utility.yul\":3256:3698   */\n    tag_48:\n        /* \"#utility.yul\":3405:3409   */\n      0x00\n        /* \"#utility.yul\":3443:3445   */\n      0x60\n        /* \"#utility.yul\":3432:3441   */\n      dup3\n        /* \"#utility.yul\":3428:3446   */\n      add\n        /* \"#utility.yul\":3420:3446   */\n      swap1\n      pop\n        /* \"#utility.yul\":3456:3527   */\n      tag_164\n        /* \"#utility.yul\":3524:3525   */\n      0x00\n        /* \"#utility.yul\":3513:3522   */\n      dup4\n        /* \"#utility.yul\":3509:3526   */\n      add\n        /* \"#utility.yul\":3500:3506   */\n      dup7\n        /* \"#utility.yul\":3456:3527   */\n      tag_112\n      jump\t// in\n    tag_164:\n        /* \"#utility.yul\":3537:3609   */\n      tag_165\n        /* \"#utility.yul\":3605:3607   */\n      0x20\n        /* \"#utility.yul\":3594:3603   */\n      dup4\n        /* \"#utility.yul\":3590:3608   */\n      add\n        /* \"#utility.yul\":3581:3587   */\n      dup6\n        /* \"#utility.yul\":3537:3609   */\n      tag_112\n      jump\t// in\n    tag_165:\n        /* \"#utility.yul\":3619:3691   */\n      tag_166\n        /* \"#utility.yul\":3687:3689   */\n      0x40\n        /* \"#utility.yul\":3676:3685   */\n      dup4\n        /* \"#utility.yul\":3672:3690   */\n      add\n        /* \"#utility.yul\":3663:3669   */\n      dup5\n        /* \"#utility.yul\":3619:3691   */\n      tag_102\n      jump\t// in\n    tag_166:\n        /* \"#utility.yul\":3256:3698   */\n      swap5\n      swap4\n      pop\n      pop\n      pop\n      pop\n      jump\t// out\n        /* \"#utility.yul\":3704:3794   */\n    tag_113:\n        /* \"#utility.yul\":3738:3745   */\n      0x00\n        /* \"#utility.yul\":3781:3786   */\n      dup2\n        /* \"#utility.yul\":3774:3787   */\n      iszero\n        /* \"#utility.yul\":3767:3788   */\n      iszero\n        /* \"#utility.yul\":3756:3788   */\n      swap1\n      pop\n        /* \"#utility.yul\":3704:3794   */\n      swap2\n      swap1\n      pop\n      jump\t// out\n        /* \"#utility.yul\":3800:3916   */\n    tag_114:\n        /* \"#utility.yul\":3870:3891   */\n      tag_169\n        /* \"#utility.yul\":3885:3890   */\n      dup2\n        /* \"#utility.yul\":3870:3891   */\n      tag_113\n      jump\t// in\n    tag_169:\n        /* \"#utility.yul\":3863:3868   */\n      dup2\n        /* \"#utility.yul\":3860:3892   */\n      eq\n        /* \"#utility.yul\":3850:3910   */\n      tag_170\n      jumpi\n        /* \"#utility.yul\":3906:3907   */\n      0x00\n        /* \"#utility.yul\":3903:3904   */\n      dup1\n        /* \"#utility.yul\":3896:3908   */\n      revert\n        /* \"#utility.yul\":3850:3910   */\n    tag_170:\n        /* \"#utility.yul\":3800:3916   */\n      pop\n      jump\t// out\n        /* \"#utility.yul\":3922:4059   */\n    tag_115:\n        /* \"#utility.yul\":3976:3981   */\n      0x00\n        /* \"#utility.yul\":4007:4013   */\n      dup2\n        /* \"#utility.yul\":4001:4014   */\n      mload\n        /* \"#utility.yul\":3992:4014   */\n      swap1\n      pop\n        /* \"#utility.yul\":4023:4053   */\n      tag_172\n        /* \"#utility.yul\":4047:4052   */\n      dup2\n        /* \"#utility.yul\":4023:4053   */\n      tag_114\n      jump\t// in\n    tag_172:\n        /* \"#utility.yul\":3922:4059   */\n      swap3\n      swap2\n      pop\n      pop\n      jump\t// out\n        /* \"#utility.yul\":4065:4410   */\n    tag_52:\n        /* \"#utility.yul\":4132:4138   */\n      0x00\n        /* \"#utility.yul\":4181:4183   */\n      0x20\n        /* \"#utility.yul\":4169:4178   */\n      dup3\n        /* \"#utility.yul\":4160:4167   */\n      dup5\n        /* \"#utility.yul\":4156:4179   */\n      sub\n        /* \"#utility.yul\":4152:4184   */\n      slt\n        /* \"#utility.yul\":4149:4268   */\n      iszero\n      tag_174\n      jumpi\n        /* \"#utility.yul\":4187:4266   */\n      tag_175\n      tag_97\n      jump\t// in\n    tag_175:\n        /* \"#utility.yul\":4149:4268   */\n    tag_174:\n        /* \"#utility.yul\":4307:4308   */\n      0x00\n        /* \"#utility.yul\":4332:4393   */\n      tag_176\n        /* \"#utility.yul\":4385:4392   */\n      dup5\n        /* \"#utility.yul\":4376:4382   */\n      dup3\n        /* \"#utility.yul\":4365:4374   */\n      dup6\n        /* \"#utility.yul\":4361:4383   */\n      add\n        /* \"#utility.yul\":4332:4393   */\n      tag_115\n      jump\t// in\n    tag_176:\n        /* \"#utility.yul\":4322:4393   */\n      swap2\n      pop\n        /* \"#utility.yul\":4278:4403   */\n      pop\n        /* \"#utility.yul\":4065:4410   */\n      swap3\n      swap2\n      pop\n      pop\n      jump\t// out\n        /* \"#utility.yul\":4416:4596   */\n    tag_116:\n        /* \"#utility.yul\":4464:4541   */\n      0x4e487b7100000000000000000000000000000000000000000000000000000000\n        /* \"#utility.yul\":4461:4462   */\n      0x00\n        /* \"#utility.yul\":4454:4542   */\n      mstore\n        /* \"#utility.yul\":4561:4565   */\n      0x11\n        /* \"#utility.yul\":4558:4559   */\n      0x04\n        /* \"#utility.yul\":4551:4566   */\n      mstore\n        /* \"#utility.yul\":4585:4589   */\n      0x24\n        /* \"#utility.yul\":4582:4583   */\n      0x00\n        /* \"#utility.yul\":4575:4590   */\n      revert\n        /* \"#utility.yul\":4602:4793   */\n    tag_54:\n        /* \"#utility.yul\":4642:4645   */\n      0x00\n        /* \"#utility.yul\":4661:4681   */\n      tag_179\n        /* \"#utility.yul\":4679:4680   */\n      dup3\n        /* \"#utility.yul\":4661:4681   */\n      tag_99\n      jump\t// in\n    tag_179:\n        /* \"#utility.yul\":4656:4681   */\n      swap2\n      pop\n        /* \"#utility.yul\":4695:4715   */\n      tag_180\n        /* \"#utility.yul\":4713:4714   */\n      dup4\n        /* \"#utility.yul\":4695:4715   */\n      tag_99\n      jump\t// in\n    tag_180:\n        /* \"#utility.yul\":4690:4715   */\n      swap3\n      pop\n        /* \"#utility.yul\":4738:4739   */\n      dup3\n        /* \"#utility.yul\":4735:4736   */\n      dup3\n        /* \"#utility.yul\":4731:4740   */\n      add\n        /* \"#utility.yul\":4724:4740   */\n      swap1\n      pop\n        /* \"#utility.yul\":4759:4762   */\n      dup1\n        /* \"#utility.yul\":4756:4757   */\n      dup3\n        /* \"#utility.yul\":4753:4763   */\n      gt\n        /* \"#utility.yul\":4750:4786   */\n      iszero\n      tag_181\n      jumpi\n        /* \"#utility.yul\":4766:4784   */\n      tag_182\n      tag_116\n      jump\t// in\n    tag_182:\n        /* \"#utility.yul\":4750:4786   */\n    tag_181:\n        /* \"#utility.yul\":4602:4793   */\n      swap3\n      swap2\n      pop\n      pop\n      jump\t// out\n        /* \"#utility.yul\":4799:4979   */\n    tag_117:\n        /* \"#utility.yul\":4847:4924   */\n      0x4e487b7100000000000000000000000000000000000000000000000000000000\n        /* \"#utility.yul\":4844:4845   */\n      0x00\n        /* \"#utility.yul\":4837:4925   */\n      mstore\n        /* \"#utility.yul\":4944:4948   */\n      0x12\n        /* \"#utility.yul\":4941:4942   */\n      0x04\n        /* \"#utility.yul\":4934:4949   */\n      mstore\n        /* \"#utility.yul\":4968:4972   */\n      0x24\n        /* \"#utility.yul\":4965:4966   */\n      0x00\n        /* \"#utility.yul\":4958:4973   */\n      revert\n        /* \"#utility.yul\":4985:5170   */\n    tag_56:\n        /* \"#utility.yul\":5025:5026   */\n      0x00\n        /* \"#utility.yul\":5042:5062   */\n      tag_185\n        /* \"#utility.yul\":5060:5061   */\n      dup3\n        /* \"#utility.yul\":5042:5062   */\n      tag_99\n      jump\t// in\n    tag_185:\n        /* \"#utility.yul\":5037:5062   */\n      swap2\n      pop\n        /* \"#utility.yul\":5076:5096   */\n      tag_186\n        /* \"#utility.yul\":5094:5095   */\n      dup4\n        /* \"#utility.yul\":5076:5096   */\n      tag_99\n      jump\t// in\n    tag_186:\n        /* \"#utility.yul\":5071:5096   */\n      swap3\n      pop\n        /* \"#utility.yul\":5115:5116   */\n      dup3\n        /* \"#utility.yul\":5105:5140   */\n      tag_187\n      jumpi\n        /* \"#utility.yul\":5120:5138   */\n      tag_188\n      tag_117\n      jump\t// in\n    tag_188:\n        /* \"#utility.yul\":5105:5140   */\n    tag_187:\n        /* \"#utility.yul\":5162:5163   */\n      dup3\n        /* \"#utility.yul\":5159:5160   */\n      dup3\n        /* \"#utility.yul\":5155:5164   */\n      div\n        /* \"#utility.yul\":5150:5164   */\n      swap1\n      pop\n        /* \"#utility.yul\":4985:5170   */\n      swap3\n      swap2\n      pop\n      pop\n      jump\t// out\n        /* \"#utility.yul\":5176:5370   */\n    tag_62:\n        /* \"#utility.yul\":5216:5220   */\n      0x00\n        /* \"#utility.yul\":5236:5256   */\n      tag_190\n        /* \"#utility.yul\":5254:5255   */\n      dup3\n        /* \"#utility.yul\":5236:5256   */\n      tag_99\n      jump\t// in\n    tag_190:\n        /* \"#utility.yul\":5231:5256   */\n      swap2\n      pop\n        /* \"#utility.yul\":5270:5290   */\n      tag_191\n        /* \"#utility.yul\":5288:5289   */\n      dup4\n        /* \"#utility.yul\":5270:5290   */\n      tag_99\n      jump\t// in\n    tag_191:\n        /* \"#utility.yul\":5265:5290   */\n      swap3\n      pop\n        /* \"#utility.yul\":5314:5315   */\n      dup3\n        /* \"#utility.yul\":5311:5312   */\n      dup3\n        /* \"#utility.yul\":5307:5316   */\n      sub\n        /* \"#utility.yul\":5299:5316   */\n      swap1\n      pop\n        /* \"#utility.yul\":5338:5339   */\n      dup2\n        /* \"#utility.yul\":5332:5336   */\n      dup2\n        /* \"#utility.yul\":5329:5340   */\n      gt\n        /* \"#utility.yul\":5326:5363   */\n      iszero\n      tag_192\n      jumpi\n        /* \"#utility.yul\":5343:5361   */\n      tag_193\n      tag_116\n      jump\t// in\n    tag_193:\n        /* \"#utility.yul\":5326:5363   */\n    tag_192:\n        /* \"#utility.yul\":5176:5370   */\n      swap3\n      swap2\n      pop\n      pop\n      jump\t// out\n        /* \"#utility.yul\":5376:5708   */\n    tag_65:\n        /* \"#utility.yul\":5497:5501   */\n      0x00\n        /* \"#utility.yul\":5535:5537   */\n      0x40\n        /* \"#utility.yul\":5524:5533   */\n      dup3\n        /* \"#utility.yul\":5520:5538   */\n      add\n        /* \"#utility.yul\":5512:5538   */\n      swap1\n      pop\n        /* \"#utility.yul\":5548:5619   */\n      tag_195\n        /* \"#utility.yul\":5616:5617   */\n      0x00\n        /* \"#utility.yul\":5605:5614   */\n      dup4\n        /* \"#utility.yul\":5601:5618   */\n      add\n        /* \"#utility.yul\":5592:5598   */\n      dup6\n        /* \"#utility.yul\":5548:5619   */\n      tag_112\n      jump\t// in\n    tag_195:\n        /* \"#utility.yul\":5629:5701   */\n      tag_196\n        /* \"#utility.yul\":5697:5699   */\n      0x20\n        /* \"#utility.yul\":5686:5695   */\n      dup4\n        /* \"#utility.yul\":5682:5700   */\n      add\n        /* \"#utility.yul\":5673:5679   */\n      dup5\n        /* \"#utility.yul\":5629:5701   */\n      tag_102\n      jump\t// in\n    tag_196:\n        /* \"#utility.yul\":5376:5708   */\n      swap4\n      swap3\n      pop\n      pop\n      pop\n      jump\t// out\n        /* \"#utility.yul\":5714:6124   */\n    tag_94:\n        /* \"#utility.yul\":5754:5761   */\n      0x00\n        /* \"#utility.yul\":5777:5797   */\n      tag_198\n        /* \"#utility.yul\":5795:5796   */\n      dup3\n        /* \"#utility.yul\":5777:5797   */\n      tag_99\n      jump\t// in\n    tag_198:\n        /* \"#utility.yul\":5772:5797   */\n      swap2\n      pop\n        /* \"#utility.yul\":5811:5831   */\n      tag_199\n        /* \"#utility.yul\":5829:5830   */\n      dup4\n        /* \"#utility.yul\":5811:5831   */\n      tag_99\n      jump\t// in\n    tag_199:\n        /* \"#utility.yul\":5806:5831   */\n      swap3\n      pop\n        /* \"#utility.yul\":5866:5867   */\n      dup3\n        /* \"#utility.yul\":5863:5864   */\n      dup3\n        /* \"#utility.yul\":5859:5868   */\n      mul\n        /* \"#utility.yul\":5888:5918   */\n      tag_200\n        /* \"#utility.yul\":5906:5917   */\n      dup2\n        /* \"#utility.yul\":5888:5918   */\n      tag_99\n      jump\t// in\n    tag_200:\n        /* \"#utility.yul\":5877:5918   */\n      swap2\n      pop\n        /* \"#utility.yul\":6067:6068   */\n      dup3\n        /* \"#utility.yul\":6058:6065   */\n      dup3\n        /* \"#utility.yul\":6054:6069   */\n      div\n        /* \"#utility.yul\":6051:6052   */\n      dup5\n        /* \"#utility.yul\":6048:6070   */\n      eq\n        /* \"#utility.yul\":6028:6029   */\n      dup4\n        /* \"#utility.yul\":6021:6030   */\n      iszero\n        /* \"#utility.yul\":6001:6084   */\n      or\n        /* \"#utility.yul\":5978:6117   */\n      tag_201\n      jumpi\n        /* \"#utility.yul\":6097:6115   */\n      tag_202\n      tag_116\n      jump\t// in\n    tag_202:\n        /* \"#utility.yul\":5978:6117   */\n    tag_201:\n        /* \"#utility.yul\":5762:6124   */\n      pop\n        /* \"#utility.yul\":5714:6124   */\n      swap3\n      swap2\n      pop\n      pop\n      jump\t// out\n\n    auxdata: 0xa2646970667358221220509386bf63eb87ff9dd8bb4ba6da2f572344a3437e9a09b7af4e216fcf1f5e2064736f6c63430008120033\n}\n",
				"bytecode": {
					"linkReferences": {},
					"object": "60c060405234801561001057600080fd5b50604051610d98380380610d9883398181016040528101906100329190610104565b8173ffffffffffffffffffffffffffffffffffffffff1660808173ffffffffffffffffffffffffffffffffffffffff16815250508073ffffffffffffffffffffffffffffffffffffffff1660a08173ffffffffffffffffffffffffffffffffffffffff16815250505050610144565b600080fd5b600073ffffffffffffffffffffffffffffffffffffffff82169050919050565b60006100d1826100a6565b9050919050565b6100e1816100c6565b81146100ec57600080fd5b50565b6000815190506100fe816100d8565b92915050565b6000806040838503121561011b5761011a6100a1565b5b6000610129858286016100ef565b925050602061013a858286016100ef565b9150509250929050565b60805160a051610c13610185600039600081816101c60152818161045f01526106b90152600081816103200152818161057a01526106150152610c136000f3fe608060405234801561001057600080fd5b50600436106100935760003560e01c80635a230162116100665780635a2301621461010c57806370a082311461013c57806372f702f31461016c578063a694fc3a1461018a578063f7c618c1146101a657610093565b80630dcc4b441461009857806318160ddd146100b45780632e17de78146100d25780634e71d92d146100ee575b600080fd5b6100b260048036038101906100ad9190610874565b6101c4565b005b6100bc6102a1565b6040516100c991906108b0565b60405180910390f35b6100ec60048036038101906100e79190610874565b6102a7565b005b6100f66103c0565b60405161010391906108b0565b60405180910390f35b61012660048036038101906101219190610929565b610504565b60405161013391906108b0565b60405180910390f35b61015660048036038101906101519190610929565b610560565b60405161016391906108b0565b60405180910390f35b610174610578565b60405161018191906109b5565b60405180910390f35b6101a4600480360381019061019f9190610874565b61059c565b005b6101ae6106b7565b6040516101bb91906109b5565b60405180910390f35b7f000000000000000000000000000000000000000000000000000000000000000073ffffffffffffffffffffffffffffffffffffffff166323b872dd3330846040518463ffffffff1660e01b8152600401610221939291906109df565b6020604051808303816000875af1158015610240573d6000803e3d6000fd5b505050506040513d601f19601f820116820180604052508101906102649190610a4e565b50600154670de0b6b3a76400008261027c9190610aaa565b6102869190610b0d565b600260008282546102979190610aaa565b9250508190555050565b60015481565b6102b0336106db565b806000803373ffffffffffffffffffffffffffffffffffffffff1673ffffffffffffffffffffffffffffffffffffffff16815260200190815260200160002060008282546102fe9190610b3e565b9250508190555080600160008282546103179190610b3e565b925050819055507f000000000000000000000000000000000000000000000000000000000000000073ffffffffffffffffffffffffffffffffffffffff1663a9059cbb33836040518363ffffffff1660e01b8152600401610379929190610b72565b6020604051808303816000875af1158015610398573d6000803e3d6000fd5b505050506040513d601f19601f820116820180604052508101906103bc9190610a4e565b5050565b60006103cb336106db565b6000600460003373ffffffffffffffffffffffffffffffffffffffff1673ffffffffffffffffffffffffffffffffffffffff16815260200190815260200160002054905060008111156104fd576000600460003373ffffffffffffffffffffffffffffffffffffffff1673ffffffffffffffffffffffffffffffffffffffff168152602001908152602001600020819055507f000000000000000000000000000000000000000000000000000000000000000073ffffffffffffffffffffffffffffffffffffffff1663a9059cbb33836040518363ffffffff1660e01b81526004016104b8929190610b72565b6020604051808303816000875af11580156104d7573d6000803e3d6000fd5b505050506040513d601f19601f820116820180604052508101906104fb9190610a4e565b505b8091505090565b600061050f82610782565b600460008473ffffffffffffffffffffffffffffffffffffffff1673ffffffffffffffffffffffffffffffffffffffff168152602001908152602001600020546105599190610aaa565b9050919050565b60006020528060005260406000206000915090505481565b7f000000000000000000000000000000000000000000000000000000000000000081565b6105a5336106db565b806000803373ffffffffffffffffffffffffffffffffffffffff1673ffffffffffffffffffffffffffffffffffffffff16815260200190815260200160002060008282546105f39190610aaa565b92505081905550806001600082825461060c9190610aaa565b925050819055507f000000000000000000000000000000000000000000000000000000000000000073ffffffffffffffffffffffffffffffffffffffff166323b872dd3330846040518463ffffffff1660e01b8152600401610670939291906109df565b6020604051808303816000875af115801561068f573d6000803e3d6000fd5b505050506040513d601f19601f820116820180604052508101906106b39190610a4e565b5050565b7f000000000000000000000000000000000000000000000000000000000000000081565b6106e481610782565b600460008373ffffffffffffffffffffffffffffffffffffffff1673ffffffffffffffffffffffffffffffffffffffff16815260200190815260200160002060008282546107329190610aaa565b92505081905550600254600360008373ffffffffffffffffffffffffffffffffffffffff1673ffffffffffffffffffffffffffffffffffffffff1681526020019081526020016000208190555050565b6000806000808473ffffffffffffffffffffffffffffffffffffffff1673ffffffffffffffffffffffffffffffffffffffff168152602001908152602001600020549050670de0b6b3a7640000600360008573ffffffffffffffffffffffffffffffffffffffff1673ffffffffffffffffffffffffffffffffffffffff1681526020019081526020016000205460025461081c9190610b3e565b826108279190610b9b565b6108319190610b0d565b915050919050565b600080fd5b6000819050919050565b6108518161083e565b811461085c57600080fd5b50565b60008135905061086e81610848565b92915050565b60006020828403121561088a57610889610839565b5b60006108988482850161085f565b91505092915050565b6108aa8161083e565b82525050565b60006020820190506108c560008301846108a1565b92915050565b600073ffffffffffffffffffffffffffffffffffffffff82169050919050565b60006108f6826108cb565b9050919050565b610906816108eb565b811461091157600080fd5b50565b600081359050610923816108fd565b92915050565b60006020828403121561093f5761093e610839565b5b600061094d84828501610914565b91505092915050565b6000819050919050565b600061097b610976610971846108cb565b610956565b6108cb565b9050919050565b600061098d82610960565b9050919050565b600061099f82610982565b9050919050565b6109af81610994565b82525050565b60006020820190506109ca60008301846109a6565b92915050565b6109d9816108eb565b82525050565b60006060820190506109f460008301866109d0565b610a0160208301856109d0565b610a0e60408301846108a1565b949350505050565b60008115159050919050565b610a2b81610a16565b8114610a3657600080fd5b50565b600081519050610a4881610a22565b92915050565b600060208284031215610a6457610a63610839565b5b6000610a7284828501610a39565b91505092915050565b7f4e487b7100000000000000000000000000000000000000000000000000000000600052601160045260246000fd5b6000610ab58261083e565b9150610ac08361083e565b9250828201905080821115610ad857610ad7610a7b565b5b92915050565b7f4e487b7100000000000000000000000000000000000000000000000000000000600052601260045260246000fd5b6000610b188261083e565b9150610b238361083e565b925082610b3357610b32610ade565b5b828204905092915050565b6000610b498261083e565b9150610b548361083e565b9250828203905081811115610b6c57610b6b610a7b565b5b92915050565b6000604082019050610b8760008301856109d0565b610b9460208301846108a1565b9392505050565b6000610ba68261083e565b9150610bb18361083e565b9250828202610bbf8161083e565b91508282048414831517610bd657610bd5610a7b565b5b509291505056fea2646970667358221220509386bf63eb87ff9dd8bb4ba6da2f572344a3437e9a09b7af4e216fcf1f5e2064736f6c63430008120033",
					"opcodes": "PUSH1 0xC0 PUSH1 0x40 MSTORE CALLVALUE DUP1 ISZERO PUSH2 0x10 JUMPI PUSH1 0x0 DUP1 REVERT JUMPDEST POP PUSH1 0x40 MLOAD PUSH2 0xD98 CODESIZE SUB DUP1 PUSH2 0xD98 DUP4 CODECOPY DUP2 DUP2 ADD PUSH1 0x40 MSTORE DUP2 ADD SWAP1 PUSH2 0x32 SWAP2 SWAP1 PUSH2 0x104 JUMP JUMPDEST DUP2 PUSH20 0xFFFFFFFFFFFFFFFFFFFFFFFFFFFFFFFFFFFFFFFF AND PUSH1 0x80 DUP2 PUSH20 0xFFFFFFFFFFFFFFFFFFFFFFFFFFFFFFFFFFFFFFFF AND DUP2 MSTORE POP POP DUP1 PUSH20 0xFFFFFFFFFFFFFFFFFFFFFFFFFFFFFFFFFFFFFFFF AND PUSH1 0xA0 DUP2 PUSH20 0xFFFFFFFFFFFFFFFFFFFFFFFFFFFFFFFFFFFFFFFF AND DUP2 MSTORE POP POP POP POP PUSH2 0x144 JUMP JUMPDEST PUSH1 0x0 DUP1 REVERT JUMPDEST PUSH1 0x0 PUSH20 0xFFFFFFFFFFFFFFFFFFFFFFFFFFFFFFFFFFFFFFFF DUP3 AND SWAP1 POP SWAP2 SWAP1 POP JUMP JUMPDEST PUSH1 0x0 PUSH2 0xD1 DUP3 PUSH2 0xA6 JUMP JUMPDEST SWAP1 POP SWAP2 SWAP1 POP JUMP JUMPDEST PUSH2 0xE1 DUP2 PUSH2 0xC6 JUMP JUMPDEST DUP2 EQ PUSH2 0xEC JUMPI PUSH1 0x0 DUP1 REVERT JUMPDEST POP JUMP JUMPDEST PUSH1 0x0 DUP2 MLOAD SWAP1 POP PUSH2 0xFE DUP2 PUSH2 0xD8 JUMP JUMPDEST SWAP3 SWAP2 POP POP JUMP JUMPDEST PUSH1 0x0 DUP1 PUSH1 0x40 DUP4 DUP6 SUB SLT ISZERO PUSH2 0x11B JUMPI PUSH2 0x11A PUSH2 0xA1 JUMP JUMPDEST JUMPDEST PUSH1 0x0 PUSH2 0x129 DUP6 DUP3 DUP7 ADD PUSH2 0xEF JUMP JUMPDEST SWAP3 POP POP PUSH1 0x20 PUSH2 0x13A DUP6 DUP3 DUP7 ADD PUSH2 0xEF JUMP JUMPDEST SWAP2 POP POP SWAP3 POP SWAP3 SWAP1 POP JUMP JUMPDEST PUSH1 0x80 MLOAD PUSH1 0xA0 MLOAD PUSH2 0xC13 PUSH2 0x185 PUSH1 0x0 CODECOPY PUSH1 0x0 DUP2 DUP2 PUSH2 0x1C6 ADD MSTORE DUP2 DUP2 PUSH2 0x45F ADD MSTORE PUSH2 0x6B9 ADD MSTORE PUSH1 0x0 DUP2 DUP2 PUSH2 0x320 ADD MSTORE DUP2 DUP2 PUSH2 0x57A ADD MSTORE PUSH2 0x615 ADD MSTORE PUSH2 0xC13 PUSH1 0x0 RETURN INVALID PUSH1 0x80 PUSH1 0x40 MSTORE CALLVALUE DUP1 ISZERO PUSH2 0x10 JUMPI PUSH1 0x0 DUP1 REVERT JUMPDEST POP PUSH1 0x4 CALLDATASIZE LT PUSH2 0x93 JUMPI PUSH1 0x0 CALLDATALOAD PUSH1 0xE0 SHR DUP1 PUSH4 0x5A230162 GT PUSH2 0x66 JUMPI DUP1 PUSH4 0x5A230162 EQ PUSH2 0x10C JUMPI DUP1 PUSH4 0x70A08231 EQ PUSH2 0x13C JUMPI DUP1 PUSH4 0x72F702F3 EQ PUSH2 0x16C JUMPI DUP1 PUSH4 0xA694FC3A EQ PUSH2 0x18A JUMPI DUP1 PUSH4 0xF7C618C1 EQ PUSH2 0x1A6 JUMPI PUSH2 0x93 JUMP JUMPDEST DUP1 PUSH4 0xDCC4B44 EQ PUSH2 0x98 JUMPI DUP1 PUSH4 0x18160DDD EQ PUSH2 0xB4 JUMPI DUP1 PUSH4 0x2E17DE78 EQ PUSH2 0xD2 JUMPI DUP1 PUSH4 0x4E71D92D EQ PUSH2 0xEE JUMPI JUMPDEST PUSH1 0x0 DUP1 REVERT JUMPDEST PUSH2 0xB2 PUSH1 0x4 DUP1 CALLDATASIZE SUB DUP2 ADD SWAP1 PUSH2 0xAD SWAP2 SWAP1 PUSH2 0x874 JUMP JUMPDEST PUSH2 0x1C4 JUMP JUMPDEST STOP JUMPDEST PUSH2 0xBC PUSH2 0x2A1 JUMP JUMPDEST PUSH1 0x40 MLOAD PUSH2 0xC9 SWAP2 SWAP1 PUSH2 0x8B0 JUMP JUMPDEST PUSH1 0x40 MLOAD DUP1 SWAP2 SUB SWAP1 RETURN JUMPDEST PUSH2 0xEC PUSH1 0x4 DUP1 CALLDATASIZE SUB DUP2 ADD SWAP1 PUSH2 0xE7 SWAP2 SWAP1 PUSH2 0x874 JUMP JUMPDEST PUSH2 0x2A7 JUMP JUMPDEST STOP JUMPDEST PUSH2 0xF6 PUSH2 0x3C0 JUMP JUMPDEST PUSH1 0x40 MLOAD PUSH2 0x103 SWAP2 SWAP1 PUSH2 0x8B0 JUMP JUMPDEST PUSH1 0x40 MLOAD DUP1 SWAP2 SUB SWAP1 RETURN JUMPDEST PUSH2 0x126 PUSH1 0x4 DUP1 CALLDATASIZE SUB DUP2 ADD SWAP1 PUSH2 0x121 SWAP2 SWAP1 PUSH2 0x929 JUMP JUMPDEST PUSH2 0x504 JUMP JUMPDEST PUSH1 0x40 MLOAD PUSH2 0x133 SWAP2 SWAP1 PUSH2 0x8B0 JUMP JUMPDEST PUSH1 0x40 MLOAD DUP1 SWAP2 SUB SWAP1 RETURN JUMPDEST PUSH2 0x156 PUSH1 0x4 DUP1 CALLDATASIZE SUB DUP2 ADD SWAP1 PUSH2 0x151 SWAP2 SWAP1 PUSH2 0x929 JUMP JUMPDEST PUSH2 0x560 JUMP JUMPDEST PUSH1 0x40 MLOAD PUSH2 0x163 SWAP2 SWAP1 PUSH2 0x8B0 JUMP JUMPDEST PUSH1 0x40 MLOAD DUP1 SWAP2 SUB SWAP1 RETURN JUMPDEST PUSH2 0x174 PUSH2 0x578 JUMP JUMPDEST PUSH1 0x40 MLOAD PUSH2 0x181 SWAP2 SWAP1 PUSH2 0x9B5 JUMP JUMPDEST PUSH1 0x40 MLOAD DUP1 SWAP2 SUB SWAP1 RETURN JUMPDEST PUSH2 0x1A4 PUSH1 0x4 DUP1 CALLDATASIZE SUB DUP2 ADD SWAP1 PUSH2 0x19F SWAP2 SWAP1 PUSH2 0x874 JUMP JUMPDEST PUSH2 0x59C JUMP JUMPDEST STOP JUMPDEST PUSH2 0x1AE PUSH2 0x6B7 JUMP JUMPDEST PUSH1 0x40 MLOAD PUSH2 0x1BB SWAP2 SWAP1 PUSH2 0x9B5 JUMP JUMPDEST PUSH1 0x40 MLOAD DUP1 SWAP2 SUB SWAP1 RETURN JUMPDEST PUSH32 0x0 PUSH20 0xFFFFFFFFFFFFFFFFFFFFFFFFFFFFFFFFFFFFFFFF AND PUSH4 0x23B872DD CALLER ADDRESS DUP5 PUSH1 0x40 MLOAD DUP5 PUSH4 0xFFFFFFFF AND PUSH1 0xE0 SHL DUP2 MSTORE PUSH1 0x4 ADD PUSH2 0x221 SWAP4 SWAP3 SWAP2 SWAP1 PUSH2 0x9DF JUMP JUMPDEST PUSH1 0x20 PUSH1 0x40 MLOAD DUP1 DUP4 SUB DUP2 PUSH1 0x0 DUP8 GAS CALL ISZERO DUP1 ISZERO PUSH2 0x240 JUMPI RETURNDATASIZE PUSH1 0x0 DUP1 RETURNDATACOPY RETURNDATASIZE PUSH1 0x0 REVERT JUMPDEST POP POP POP POP PUSH1 0x40 MLOAD RETURNDATASIZE PUSH1 0x1F NOT PUSH1 0x1F DUP3 ADD AND DUP3 ADD DUP1 PUSH1 0x40 MSTORE POP DUP2 ADD SWAP1 PUSH2 0x264 SWAP2 SWAP1 PUSH2 0xA4E JUMP JUMPDEST POP PUSH1 0x1 SLOAD PUSH8 0xDE0B6B3A7640000 DUP3 PUSH2 0x27C SWAP2 SWAP1 PUSH2 0xAAA JUMP JUMPDEST PUSH2 0x286 SWAP2 SWAP1 PUSH2 0xB0D JUMP JUMPDEST PUSH1 0x2 PUSH1 0x0 DUP3 DUP3 SLOAD PUSH2 0x297 SWAP2 SWAP1 PUSH2 0xAAA JUMP JUMPDEST SWAP3 POP POP DUP2 SWAP1 SSTORE POP POP JUMP JUMPDEST PUSH1 0x1 SLOAD DUP2 JUMP JUMPDEST PUSH2 0x2B0 CALLER PUSH2 0x6DB JUMP JUMPDEST DUP1 PUSH1 0x0 DUP1 CALLER PUSH20 0xFFFFFFFFFFFFFFFFFFFFFFFFFFFFFFFFFFFFFFFF AND PUSH20 0xFFFFFFFFFFFFFFFFFFFFFFFFFFFFFFFFFFFFFFFF AND DUP2 MSTORE PUSH1 0x20 ADD SWAP1 DUP2 MSTORE PUSH1 0x20 ADD PUSH1 0x0 KECCAK256 PUSH1 0x0 DUP3 DUP3 SLOAD PUSH2 0x2FE SWAP2 SWAP1 PUSH2 0xB3E JUMP JUMPDEST SWAP3 POP POP DUP2 SWAP1 SSTORE POP DUP1 PUSH1 0x1 PUSH1 0x0 DUP3 DUP3 SLOAD PUSH2 0x317 SWAP2 SWAP1 PUSH2 0xB3E JUMP JUMPDEST SWAP3 POP POP DUP2 SWAP1 SSTORE POP PUSH32 0x0 PUSH20 0xFFFFFFFFFFFFFFFFFFFFFFFFFFFFFFFFFFFFFFFF AND PUSH4 0xA9059CBB CALLER DUP4 PUSH1 0x40 MLOAD DUP4 PUSH4 0xFFFFFFFF AND PUSH1 0xE0 SHL DUP2 MSTORE PUSH1 0x4 ADD PUSH2 0x379 SWAP3 SWAP2 SWAP1 PUSH2 0xB72 JUMP JUMPDEST PUSH1 0x20 PUSH1 0x40 MLOAD DUP1 DUP4 SUB DUP2 PUSH1 0x0 DUP8 GAS CALL ISZERO DUP1 ISZERO PUSH2 0x398 JUMPI RETURNDATASIZE PUSH1 0x0 DUP1 RETURNDATACOPY RETURNDATASIZE PUSH1 0x0 REVERT JUMPDEST POP POP POP POP PUSH1 0x40 MLOAD RETURNDATASIZE PUSH1 0x1F NOT PUSH1 0x1F DUP3 ADD AND DUP3 ADD DUP1 PUSH1 0x40 MSTORE POP DUP2 ADD SWAP1 PUSH2 0x3BC SWAP2 SWAP1 PUSH2 0xA4E JUMP JUMPDEST POP POP JUMP JUMPDEST PUSH1 0x0 PUSH2 0x3CB CALLER PUSH2 0x6DB JUMP JUMPDEST PUSH1 0x0 PUSH1 0x4 PUSH1 0x0 CALLER PUSH20 0xFFFFFFFFFFFFFFFFFFFFFFFFFFFFFFFFFFFFFFFF AND PUSH20 0xFFFFFFFFFFFFFFFFFFFFFFFFFFFFFFFFFFFFFFFF AND DUP2 MSTORE PUSH1 0x20 ADD SWAP1 DUP2 MSTORE PUSH1 0x20 ADD PUSH1 0x0 KECCAK256 SLOAD SWAP1 POP PUSH1 0x0 DUP2 GT ISZERO PUSH2 0x4FD JUMPI PUSH1 0x0 PUSH1 0x4 PUSH1 0x0 CALLER PUSH20 0xFFFFFFFFFFFFFFFFFFFFFFFFFFFFFFFFFFFFFFFF AND PUSH20 0xFFFFFFFFFFFFFFFFFFFFFFFFFFFFFFFFFFFFFFFF AND DUP2 MSTORE PUSH1 0x20 ADD SWAP1 DUP2 MSTORE PUSH1 0x20 ADD PUSH1 0x0 KECCAK256 DUP2 SWAP1 SSTORE POP PUSH32 0x0 PUSH20 0xFFFFFFFFFFFFFFFFFFFFFFFFFFFFFFFFFFFFFFFF AND PUSH4 0xA9059CBB CALLER DUP4 PUSH1 0x40 MLOAD DUP4 PUSH4 0xFFFFFFFF AND PUSH1 0xE0 SHL DUP2 MSTORE PUSH1 0x4 ADD PUSH2 0x4B8 SWAP3 SWAP2 SWAP1 PUSH2 0xB72 JUMP JUMPDEST PUSH1 0x20 PUSH1 0x40 MLOAD DUP1 DUP4 SUB DUP2 PUSH1 0x0 DUP8 GAS CALL ISZERO DUP1 ISZERO PUSH2 0x4D7 JUMPI RETURNDATASIZE PUSH1 0x0 DUP1 RETURNDATACOPY RETURNDATASIZE PUSH1 0x0 REVERT JUMPDEST POP POP POP POP PUSH1 0x40 MLOAD RETURNDATASIZE PUSH1 0x1F NOT PUSH1 0x1F DUP3 ADD AND DUP3 ADD DUP1 PUSH1 0x40 MSTORE POP DUP2 ADD SWAP1 PUSH2 0x4FB SWAP2 SWAP1 PUSH2 0xA4E JUMP JUMPDEST POP JUMPDEST DUP1 SWAP2 POP POP SWAP1 JUMP JUMPDEST PUSH1 0x0 PUSH2 0x50F DUP3 PUSH2 0x782 JUMP JUMPDEST PUSH1 0x4 PUSH1 0x0 DUP5 PUSH20 0xFFFFFFFFFFFFFFFFFFFFFFFFFFFFFFFFFFFFFFFF AND PUSH20 0xFFFFFFFFFFFFFFFFFFFFFFFFFFFFFFFFFFFFFFFF AND DUP2 MSTORE PUSH1 0x20 ADD SWAP1 DUP2 MSTORE PUSH1 0x20 ADD PUSH1 0x0 KECCAK256 SLOAD PUSH2 0x559 SWAP2 SWAP1 PUSH2 0xAAA JUMP JUMPDEST SWAP1 POP SWAP2 SWAP1 POP JUMP JUMPDEST PUSH1 0x0 PUSH1 0x20 MSTORE DUP1 PUSH1 0x0 MSTORE PUSH1 0x40 PUSH1 0x0 KECCAK256 PUSH1 0x0 SWAP2 POP SWAP1 POP SLOAD DUP2 JUMP JUMPDEST PUSH32 0x0 DUP2 JUMP JUMPDEST PUSH2 0x5A5 CALLER PUSH2 0x6DB JUMP JUMPDEST DUP1 PUSH1 0x0 DUP1 CALLER PUSH20 0xFFFFFFFFFFFFFFFFFFFFFFFFFFFFFFFFFFFFFFFF AND PUSH20 0xFFFFFFFFFFFFFFFFFFFFFFFFFFFFFFFFFFFFFFFF AND DUP2 MSTORE PUSH1 0x20 ADD SWAP1 DUP2 MSTORE PUSH1 0x20 ADD PUSH1 0x0 KECCAK256 PUSH1 0x0 DUP3 DUP3 SLOAD PUSH2 0x5F3 SWAP2 SWAP1 PUSH2 0xAAA JUMP JUMPDEST SWAP3 POP POP DUP2 SWAP1 SSTORE POP DUP1 PUSH1 0x1 PUSH1 0x0 DUP3 DUP3 SLOAD PUSH2 0x60C SWAP2 SWAP1 PUSH2 0xAAA JUMP JUMPDEST SWAP3 POP POP DUP2 SWAP1 SSTORE POP PUSH32 0x0 PUSH20 0xFFFFFFFFFFFFFFFFFFFFFFFFFFFFFFFFFFFFFFFF AND PUSH4 0x23B872DD CALLER ADDRESS DUP5 PUSH1 0x40 MLOAD DUP5 PUSH4 0xFFFFFFFF AND PUSH1 0xE0 SHL DUP2 MSTORE PUSH1 0x4 ADD PUSH2 0x670 SWAP4 SWAP3 SWAP2 SWAP1 PUSH2 0x9DF JUMP JUMPDEST PUSH1 0x20 PUSH1 0x40 MLOAD DUP1 DUP4 SUB DUP2 PUSH1 0x0 DUP8 GAS CALL ISZERO DUP1 ISZERO PUSH2 0x68F JUMPI RETURNDATASIZE PUSH1 0x0 DUP1 RETURNDATACOPY RETURNDATASIZE PUSH1 0x0 REVERT JUMPDEST POP POP POP POP PUSH1 0x40 MLOAD RETURNDATASIZE PUSH1 0x1F NOT PUSH1 0x1F DUP3 ADD AND DUP3 ADD DUP1 PUSH1 0x40 MSTORE POP DUP2 ADD SWAP1 PUSH2 0x6B3 SWAP2 SWAP1 PUSH2 0xA4E JUMP JUMPDEST POP POP JUMP JUMPDEST PUSH32 0x0 DUP2 JUMP JUMPDEST PUSH2 0x6E4 DUP2 PUSH2 0x782 JUMP JUMPDEST PUSH1 0x4 PUSH1 0x0 DUP4 PUSH20 0xFFFFFFFFFFFFFFFFFFFFFFFFFFFFFFFFFFFFFFFF AND PUSH20 0xFFFFFFFFFFFFFFFFFFFFFFFFFFFFFFFFFFFFFFFF AND DUP2 MSTORE PUSH1 0x20 ADD SWAP1 DUP2 MSTORE PUSH1 0x20 ADD PUSH1 0x0 KECCAK256 PUSH1 0x0 DUP3 DUP3 SLOAD PUSH2 0x732 SWAP2 SWAP1 PUSH2 0xAAA JUMP JUMPDEST SWAP3 POP POP DUP2 SWAP1 SSTORE POP PUSH1 0x2 SLOAD PUSH1 0x3 PUSH1 0x0 DUP4 PUSH20 0xFFFFFFFFFFFFFFFFFFFFFFFFFFFFFFFFFFFFFFFF AND PUSH20 0xFFFFFFFFFFFFFFFFFFFFFFFFFFFFFFFFFFFFFFFF AND DUP2 MSTORE PUSH1 0x20 ADD SWAP1 DUP2 MSTORE PUSH1 0x20 ADD PUSH1 0x0 KECCAK256 DUP2 SWAP1 SSTORE POP POP JUMP JUMPDEST PUSH1 0x0 DUP1 PUSH1 0x0 DUP1 DUP5 PUSH20 0xFFFFFFFFFFFFFFFFFFFFFFFFFFFFFFFFFFFFFFFF AND PUSH20 0xFFFFFFFFFFFFFFFFFFFFFFFFFFFFFFFFFFFFFFFF AND DUP2 MSTORE PUSH1 0x20 ADD SWAP1 DUP2 MSTORE PUSH1 0x20 ADD PUSH1 0x0 KECCAK256 SLOAD SWAP1 POP PUSH8 0xDE0B6B3A7640000 PUSH1 0x3 PUSH1 0x0 DUP6 PUSH20 0xFFFFFFFFFFFFFFFFFFFFFFFFFFFFFFFFFFFFFFFF AND PUSH20 0xFFFFFFFFFFFFFFFFFFFFFFFFFFFFFFFFFFFFFFFF AND DUP2 MSTORE PUSH1 0x20 ADD SWAP1 DUP2 MSTORE PUSH1 0x20 ADD PUSH1 0x0 KECCAK256 SLOAD PUSH1 0x2 SLOAD PUSH2 0x81C SWAP2 SWAP1 PUSH2 0xB3E JUMP JUMPDEST DUP3 PUSH2 0x827 SWAP2 SWAP1 PUSH2 0xB9B JUMP JUMPDEST PUSH2 0x831 SWAP2 SWAP1 PUSH2 0xB0D JUMP JUMPDEST SWAP2 POP POP SWAP2 SWAP1 POP JUMP JUMPDEST PUSH1 0x0 DUP1 REVERT JUMPDEST PUSH1 0x0 DUP2 SWAP1 POP SWAP2 SWAP1 POP JUMP JUMPDEST PUSH2 0x851 DUP2 PUSH2 0x83E JUMP JUMPDEST DUP2 EQ PUSH2 0x85C JUMPI PUSH1 0x0 DUP1 REVERT JUMPDEST POP JUMP JUMPDEST PUSH1 0x0 DUP2 CALLDATALOAD SWAP1 POP PUSH2 0x86E DUP2 PUSH2 0x848 JUMP JUMPDEST SWAP3 SWAP2 POP POP JUMP JUMPDEST PUSH1 0x0 PUSH1 0x20 DUP3 DUP5 SUB SLT ISZERO PUSH2 0x88A JUMPI PUSH2 0x889 PUSH2 0x839 JUMP JUMPDEST JUMPDEST PUSH1 0x0 PUSH2 0x898 DUP5 DUP3 DUP6 ADD PUSH2 0x85F JUMP JUMPDEST SWAP2 POP POP SWAP3 SWAP2 POP POP JUMP JUMPDEST PUSH2 0x8AA DUP2 PUSH2 0x83E JUMP JUMPDEST DUP3 MSTORE POP POP JUMP JUMPDEST PUSH1 0x0 PUSH1 0x20 DUP3 ADD SWAP1 POP PUSH2 0x8C5 PUSH1 0x0 DUP4 ADD DUP5 PUSH2 0x8A1 JUMP JUMPDEST SWAP3 SWAP2 POP POP JUMP JUMPDEST PUSH1 0x0 PUSH20 0xFFFFFFFFFFFFFFFFFFFFFFFFFFFFFFFFFFFFFFFF DUP3 AND SWAP1 POP SWAP2 SWAP1 POP JUMP JUMPDEST PUSH1 0x0 PUSH2 0x8F6 DUP3 PUSH2 0x8CB JUMP JUMPDEST SWAP1 POP SWAP2 SWAP1 POP JUMP JUMPDEST PUSH2 0x906 DUP2 PUSH2 0x8EB JUMP JUMPDEST DUP2 EQ PUSH2 0x911 JUMPI PUSH1 0x0 DUP1 REVERT JUMPDEST POP JUMP JUMPDEST PUSH1 0x0 DUP2 CALLDATALOAD SWAP1 POP PUSH2 0x923 DUP2 PUSH2 0x8FD JUMP JUMPDEST SWAP3 SWAP2 POP POP JUMP JUMPDEST PUSH1 0x0 PUSH1 0x20 DUP3 DUP5 SUB SLT ISZERO PUSH2 0x93F JUMPI PUSH2 0x93E PUSH2 0x839 JUMP JUMPDEST JUMPDEST PUSH1 0x0 PUSH2 0x94D DUP5 DUP3 DUP6 ADD PUSH2 0x914 JUMP JUMPDEST SWAP2 POP POP SWAP3 SWAP2 POP POP JUMP JUMPDEST PUSH1 0x0 DUP2 SWAP1 POP SWAP2 SWAP1 POP JUMP JUMPDEST PUSH1 0x0 PUSH2 0x97B PUSH2 0x976 PUSH2 0x971 DUP5 PUSH2 0x8CB JUMP JUMPDEST PUSH2 0x956 JUMP JUMPDEST PUSH2 0x8CB JUMP JUMPDEST SWAP1 POP SWAP2 SWAP1 POP JUMP JUMPDEST PUSH1 0x0 PUSH2 0x98D DUP3 PUSH2 0x960 JUMP JUMPDEST SWAP1 POP SWAP2 SWAP1 POP JUMP JUMPDEST PUSH1 0x0 PUSH2 0x99F DUP3 PUSH2 0x982 JUMP JUMPDEST SWAP1 POP SWAP2 SWAP1 POP JUMP JUMPDEST PUSH2 0x9AF DUP2 PUSH2 0x994 JUMP JUMPDEST DUP3 MSTORE POP POP JUMP JUMPDEST PUSH1 0x0 PUSH1 0x20 DUP3 ADD SWAP1 POP PUSH2 0x9CA PUSH1 0x0 DUP4 ADD DUP5 PUSH2 0x9A6 JUMP JUMPDEST SWAP3 SWAP2 POP POP JUMP JUMPDEST PUSH2 0x9D9 DUP2 PUSH2 0x8EB JUMP JUMPDEST DUP3 MSTORE POP POP JUMP JUMPDEST PUSH1 0x0 PUSH1 0x60 DUP3 ADD SWAP1 POP PUSH2 0x9F4 PUSH1 0x0 DUP4 ADD DUP7 PUSH2 0x9D0 JUMP JUMPDEST PUSH2 0xA01 PUSH1 0x20 DUP4 ADD DUP6 PUSH2 0x9D0 JUMP JUMPDEST PUSH2 0xA0E PUSH1 0x40 DUP4 ADD DUP5 PUSH2 0x8A1 JUMP JUMPDEST SWAP5 SWAP4 POP POP POP POP JUMP JUMPDEST PUSH1 0x0 DUP2 ISZERO ISZERO SWAP1 POP SWAP2 SWAP1 POP JUMP JUMPDEST PUSH2 0xA2B DUP2 PUSH2 0xA16 JUMP JUMPDEST DUP2 EQ PUSH2 0xA36 JUMPI PUSH1 0x0 DUP1 REVERT JUMPDEST POP JUMP JUMPDEST PUSH1 0x0 DUP2 MLOAD SWAP1 POP PUSH2 0xA48 DUP2 PUSH2 0xA22 JUMP JUMPDEST SWAP3 SWAP2 POP POP JUMP JUMPDEST PUSH1 0x0 PUSH1 0x20 DUP3 DUP5 SUB SLT ISZERO PUSH2 0xA64 JUMPI PUSH2 0xA63 PUSH2 0x839 JUMP JUMPDEST JUMPDEST PUSH1 0x0 PUSH2 0xA72 DUP5 DUP3 DUP6 ADD PUSH2 0xA39 JUMP JUMPDEST SWAP2 POP POP SWAP3 SWAP2 POP POP JUMP JUMPDEST PUSH32 0x4E487B7100000000000000000000000000000000000000000000000000000000 PUSH1 0x0 MSTORE PUSH1 0x11 PUSH1 0x4 MSTORE PUSH1 0x24 PUSH1 0x0 REVERT JUMPDEST PUSH1 0x0 PUSH2 0xAB5 DUP3 PUSH2 0x83E JUMP JUMPDEST SWAP2 POP PUSH2 0xAC0 DUP4 PUSH2 0x83E JUMP JUMPDEST SWAP3 POP DUP3 DUP3 ADD SWAP1 POP DUP1 DUP3 GT ISZERO PUSH2 0xAD8 JUMPI PUSH2 0xAD7 PUSH2 0xA7B JUMP JUMPDEST JUMPDEST SWAP3 SWAP2 POP POP JUMP JUMPDEST PUSH32 0x4E487B7100000000000000000000000000000000000000000000000000000000 PUSH1 0x0 MSTORE PUSH1 0x12 PUSH1 0x4 MSTORE PUSH1 0x24 PUSH1 0x0 REVERT JUMPDEST PUSH1 0x0 PUSH2 0xB18 DUP3 PUSH2 0x83E JUMP JUMPDEST SWAP2 POP PUSH2 0xB23 DUP4 PUSH2 0x83E JUMP JUMPDEST SWAP3 POP DUP3 PUSH2 0xB33 JUMPI PUSH2 0xB32 PUSH2 0xADE JUMP JUMPDEST JUMPDEST DUP3 DUP3 DIV SWAP1 POP SWAP3 SWAP2 POP POP JUMP JUMPDEST PUSH1 0x0 PUSH2 0xB49 DUP3 PUSH2 0x83E JUMP JUMPDEST SWAP2 POP PUSH2 0xB54 DUP4 PUSH2 0x83E JUMP JUMPDEST SWAP3 POP DUP3 DUP3 SUB SWAP1 POP DUP2 DUP2 GT ISZERO PUSH2 0xB6C JUMPI PUSH2 0xB6B PUSH2 0xA7B JUMP JUMPDEST JUMPDEST SWAP3 SWAP2 POP POP JUMP JUMPDEST PUSH1 0x0 PUSH1 0x40 DUP3 ADD SWAP1 POP PUSH2 0xB87 PUSH1 0x0 DUP4 ADD DUP6 PUSH2 0x9D0 JUMP JUMPDEST PUSH2 0xB94 PUSH1 0x20 DUP4 ADD DUP5 PUSH2 0x8A1 JUMP JUMPDEST SWAP4 SWAP3 POP POP POP JUMP JUMPDEST PUSH1 0x0 PUSH2 0xBA6 DUP3 PUSH2 0x83E JUMP JUMPDEST SWAP2 POP PUSH2 0xBB1 DUP4 PUSH2 0x83E JUMP JUMPDEST SWAP3 POP DUP3 DUP3 MUL PUSH2 0xBBF DUP2 PUSH2 0x83E JUMP JUMPDEST SWAP2 POP DUP3 DUP3 DIV DUP5 EQ DUP4 ISZERO OR PUSH2 0xBD6 JUMPI PUSH2 0xBD5 PUSH2 0xA7B JUMP JUMPDEST JUMPDEST POP SWAP3 SWAP2 POP POP JUMP INVALID LOG2 PUSH5 0x6970667358 0x22 SLT KECCAK256 POP SWAP4 DUP7 0xBF PUSH4 0xEB87FF9D 0xD8 0xBB 0x4B 0xA6 0xDA 0x2F JUMPI 0x23 PREVRANDAO LOG3 NUMBER PUSH31 0x9A09B7AF4E216FCF1F5E2064736F6C63430008120033000000000000000000 "
				},
				"gasEstimates": {
					"creation": {
						"codeDepositCost": "618200",
						"executionCost": "infinite",
						"totalCost": "infinite"
					},
					"external": {
						"balanceOf(address)": "2836",
						"calculateRewardEarned(address)": "infinite",
						"claim()": "infinite",
						"rewardToken()": "infinite",
						"stake(uint256)": "infinite",
						"stakingToken()": "infinite",
						"totalSupply()": "2452",
						"unstake(uint256)": "infinite",
						"updateRewardIndex(uint256)": "infinite"
					},
					"internal": {
						"calculateReward(address)": "infinite",
						"updateRewards(address)": "infinite"
					}
				},
				"methodIdentifiers": {
					"balanceOf(address)": "70a08231",
					"calculateRewardEarned(address)": "5a230162",
					"claim()": "4e71d92d",
					"rewardToken()": "f7c618c1",
					"stake(uint256)": "a694fc3a",
					"stakingToken()": "72f702f3",
					"totalSupply()": "18160ddd",
					"unstake(uint256)": "2e17de78",
					"updateRewardIndex(uint256)": "0dcc4b44"
				}
			},
			"storageLayout": {
				"storage": [
					{
						"astId": 12,
						"contract": "DiscreteStakingRewards.sol:DiscreteStakingRewards",
						"label": "balanceOf",
						"offset": 0,
						"slot": "0",
						"type": "t_mapping(t_address,t_uint256)"
					},
					{
						"astId": 14,
						"contract": "DiscreteStakingRewards.sol:DiscreteStakingRewards",
						"label": "totalSupply",
						"offset": 0,
						"slot": "1",
						"type": "t_uint256"
					},
					{
						"astId": 19,
						"contract": "DiscreteStakingRewards.sol:DiscreteStakingRewards",
						"label": "rewardIndex",
						"offset": 0,
						"slot": "2",
						"type": "t_uint256"
					},
					{
						"astId": 23,
						"contract": "DiscreteStakingRewards.sol:DiscreteStakingRewards",
						"label": "rewardIndexOf",
						"offset": 0,
						"slot": "3",
						"type": "t_mapping(t_address,t_uint256)"
					},
					{
						"astId": 27,
						"contract": "DiscreteStakingRewards.sol:DiscreteStakingRewards",
						"label": "earned",
						"offset": 0,
						"slot": "4",
						"type": "t_mapping(t_address,t_uint256)"
					}
				],
				"types": {
					"t_address": {
						"encoding": "inplace",
						"label": "address",
						"numberOfBytes": "20"
					},
					"t_mapping(t_address,t_uint256)": {
						"encoding": "mapping",
						"key": "t_address",
						"label": "mapping(address => uint256)",
						"numberOfBytes": "32",
						"value": "t_uint256"
					},
					"t_uint256": {
						"encoding": "inplace",
						"label": "uint256",
						"numberOfBytes": "32"
					}
				}
			},
			"userdoc": {
				"kind": "user",
				"methods": {},
				"version": 1
			}
		}
	}
}