{
	"Call.sol": {
		"TestCall": {
			"abi": [
				{
					"anonymous": false,
					"inputs": [
						{
							"indexed": false,
							"internalType": "string",
							"name": "message",
							"type": "string"
						}
					],
					"name": "Log",
					"type": "event"
				},
				{
					"inputs": [
						{
							"internalType": "string",
							"name": "_message",
							"type": "string"
						},
						{
							"internalType": "uint256",
							"name": "_x",
							"type": "uint256"
						}
					],
					"name": "foo",
					"outputs": [
						{
							"internalType": "bool",
							"name": "",
							"type": "bool"
						},
						{
							"internalType": "uint256",
							"name": "",
							"type": "uint256"
						}
					],
					"stateMutability": "payable",
					"type": "function"
				},
				{
					"inputs": [],
					"name": "message",
					"outputs": [
						{
							"internalType": "string",
							"name": "",
							"type": "string"
						}
					],
					"stateMutability": "view",
					"type": "function"
				},
				{
					"inputs": [],
					"name": "x",
					"outputs": [
						{
							"internalType": "uint256",
							"name": "",
							"type": "uint256"
						}
					],
					"stateMutability": "view",
					"type": "function"
				}
			],
			"devdoc": {
				"kind": "dev",
				"methods": {},
				"version": 1
			},
			"evm": {
				"assembly": "    /* \"Call.sol\":60:475  contract TestCall {... */\n  mstore(0x40, 0x80)\n  callvalue\n  dup1\n  iszero\n  tag_1\n  jumpi\n  0x00\n  dup1\n  revert\ntag_1:\n  pop\n  dataSize(sub_0)\n  dup1\n  dataOffset(sub_0)\n  0x00\n  codecopy\n  0x00\n  return\nstop\n\nsub_0: assembly {\n        /* \"Call.sol\":60:475  contract TestCall {... */\n      mstore(0x40, 0x80)\n      jumpi(tag_1, lt(calldatasize, 0x04))\n      shr(0xe0, calldataload(0x00))\n      dup1\n      0x0c55699c\n      eq\n      tag_2\n      jumpi\n      dup1\n      0x24ccab8f\n      eq\n      tag_3\n      jumpi\n      dup1\n      0xe21f37ce\n      eq\n      tag_4\n      jumpi\n    tag_1:\n      0x00\n      dup1\n      revert\n        /* \"Call.sol\":113:126  uint public x */\n    tag_2:\n      callvalue\n      dup1\n      iszero\n      tag_5\n      jumpi\n      0x00\n      dup1\n      revert\n    tag_5:\n      pop\n      tag_6\n      tag_7\n      jump\t// in\n    tag_6:\n      mload(0x40)\n      tag_8\n      swap2\n      swap1\n      tag_9\n      jump\t// in\n    tag_8:\n      mload(0x40)\n      dup1\n      swap2\n      sub\n      swap1\n      return\n        /* \"Call.sol\":305:472  function foo(string memory _message ,uint _x) external payable returns (bool,uint) {... */\n    tag_3:\n      tag_10\n      0x04\n      dup1\n      calldatasize\n      sub\n      dup2\n      add\n      swap1\n      tag_11\n      swap2\n      swap1\n      tag_12\n      jump\t// in\n    tag_11:\n      tag_13\n      jump\t// in\n    tag_10:\n      mload(0x40)\n      tag_14\n      swap3\n      swap2\n      swap1\n      tag_15\n      jump\t// in\n    tag_14:\n      mload(0x40)\n      dup1\n      swap2\n      sub\n      swap1\n      return\n        /* \"Call.sol\":85:106  string public message */\n    tag_4:\n      callvalue\n      dup1\n      iszero\n      tag_16\n      jumpi\n      0x00\n      dup1\n      revert\n    tag_16:\n      pop\n      tag_17\n      tag_18\n      jump\t// in\n    tag_17:\n      mload(0x40)\n      tag_19\n      swap2\n      swap1\n      tag_20\n      jump\t// in\n    tag_19:\n      mload(0x40)\n      dup1\n      swap2\n      sub\n      swap1\n      return\n        /* \"Call.sol\":113:126  uint public x */\n    tag_7:\n      sload(0x01)\n      dup2\n      jump\t// out\n        /* \"Call.sol\":305:472  function foo(string memory _message ,uint _x) external payable returns (bool,uint) {... */\n    tag_13:\n        /* \"Call.sol\":377:381  bool */\n      0x00\n        /* \"Call.sol\":382:386  uint */\n      dup1\n        /* \"Call.sol\":409:417  _message */\n      dup4\n        /* \"Call.sol\":399:406  message */\n      0x00\n        /* \"Call.sol\":399:417  message = _message */\n      swap1\n      dup2\n      tag_22\n      swap2\n      swap1\n      tag_23\n      jump\t// in\n    tag_22:\n      pop\n        /* \"Call.sol\":432:434  _x */\n      dup3\n        /* \"Call.sol\":428:429  x */\n      0x01\n        /* \"Call.sol\":428:434  x = _x */\n      dup2\n      swap1\n      sstore\n      pop\n        /* \"Call.sol\":453:457  true */\n      0x01\n        /* \"Call.sol\":460:463  999 */\n      0x03e7\n        /* \"Call.sol\":445:464  return (true , 999) */\n      swap2\n      pop\n      swap2\n      pop\n        /* \"Call.sol\":305:472  function foo(string memory _message ,uint _x) external payable returns (bool,uint) {... */\n      swap3\n      pop\n      swap3\n      swap1\n      pop\n      jump\t// out\n        /* \"Call.sol\":85:106  string public message */\n    tag_18:\n      0x00\n      dup1\n      sload\n      tag_24\n      swap1\n      tag_25\n      jump\t// in\n    tag_24:\n      dup1\n      0x1f\n      add\n      0x20\n      dup1\n      swap2\n      div\n      mul\n      0x20\n      add\n      mload(0x40)\n      swap1\n      dup2\n      add\n      0x40\n      mstore\n      dup1\n      swap3\n      swap2\n      swap1\n      dup2\n      dup2\n      mstore\n      0x20\n      add\n      dup3\n      dup1\n      sload\n      tag_26\n      swap1\n      tag_25\n      jump\t// in\n    tag_26:\n      dup1\n      iszero\n      tag_27\n      jumpi\n      dup1\n      0x1f\n      lt\n      tag_28\n      jumpi\n      0x0100\n      dup1\n      dup4\n      sload\n      div\n      mul\n      dup4\n      mstore\n      swap2\n      0x20\n      add\n      swap2\n      jump(tag_27)\n    tag_28:\n      dup3\n      add\n      swap2\n      swap1\n      0x00\n      mstore\n      keccak256(0x00, 0x20)\n      swap1\n    tag_29:\n      dup2\n      sload\n      dup2\n      mstore\n      swap1\n      0x01\n      add\n      swap1\n      0x20\n      add\n      dup1\n      dup4\n      gt\n      tag_29\n      jumpi\n      dup3\n      swap1\n      sub\n      0x1f\n      and\n      dup3\n      add\n      swap2\n    tag_27:\n      pop\n      pop\n      pop\n      pop\n      pop\n      dup2\n      jump\t// out\n        /* \"#utility.yul\":7:84   */\n    tag_30:\n        /* \"#utility.yul\":44:51   */\n      0x00\n        /* \"#utility.yul\":73:78   */\n      dup2\n        /* \"#utility.yul\":62:78   */\n      swap1\n      pop\n        /* \"#utility.yul\":7:84   */\n      swap2\n      swap1\n      pop\n      jump\t// out\n        /* \"#utility.yul\":90:208   */\n    tag_31:\n        /* \"#utility.yul\":177:201   */\n      tag_72\n        /* \"#utility.yul\":195:200   */\n      dup2\n        /* \"#utility.yul\":177:201   */\n      tag_30\n      jump\t// in\n    tag_72:\n        /* \"#utility.yul\":172:175   */\n      dup3\n        /* \"#utility.yul\":165:202   */\n      mstore\n        /* \"#utility.yul\":90:208   */\n      pop\n      pop\n      jump\t// out\n        /* \"#utility.yul\":214:436   */\n    tag_9:\n        /* \"#utility.yul\":307:311   */\n      0x00\n        /* \"#utility.yul\":345:347   */\n      0x20\n        /* \"#utility.yul\":334:343   */\n      dup3\n        /* \"#utility.yul\":330:348   */\n      add\n        /* \"#utility.yul\":322:348   */\n      swap1\n      pop\n        /* \"#utility.yul\":358:429   */\n      tag_74\n        /* \"#utility.yul\":426:427   */\n      0x00\n        /* \"#utility.yul\":415:424   */\n      dup4\n        /* \"#utility.yul\":411:428   */\n      add\n        /* \"#utility.yul\":402:408   */\n      dup5\n        /* \"#utility.yul\":358:429   */\n      tag_31\n      jump\t// in\n    tag_74:\n        /* \"#utility.yul\":214:436   */\n      swap3\n      swap2\n      pop\n      pop\n      jump\t// out\n        /* \"#utility.yul\":442:517   */\n    tag_32:\n        /* \"#utility.yul\":475:481   */\n      0x00\n        /* \"#utility.yul\":508:510   */\n      0x40\n        /* \"#utility.yul\":502:511   */\n      mload\n        /* \"#utility.yul\":492:511   */\n      swap1\n      pop\n        /* \"#utility.yul\":442:517   */\n      swap1\n      jump\t// out\n        /* \"#utility.yul\":523:640   */\n    tag_33:\n        /* \"#utility.yul\":632:633   */\n      0x00\n        /* \"#utility.yul\":629:630   */\n      dup1\n        /* \"#utility.yul\":622:634   */\n      revert\n        /* \"#utility.yul\":646:763   */\n    tag_34:\n        /* \"#utility.yul\":755:756   */\n      0x00\n        /* \"#utility.yul\":752:753   */\n      dup1\n        /* \"#utility.yul\":745:757   */\n      revert\n        /* \"#utility.yul\":769:886   */\n    tag_35:\n        /* \"#utility.yul\":878:879   */\n      0x00\n        /* \"#utility.yul\":875:876   */\n      dup1\n        /* \"#utility.yul\":868:880   */\n      revert\n        /* \"#utility.yul\":892:1009   */\n    tag_36:\n        /* \"#utility.yul\":1001:1002   */\n      0x00\n        /* \"#utility.yul\":998:999   */\n      dup1\n        /* \"#utility.yul\":991:1003   */\n      revert\n        /* \"#utility.yul\":1015:1117   */\n    tag_37:\n        /* \"#utility.yul\":1056:1062   */\n      0x00\n        /* \"#utility.yul\":1107:1109   */\n      0x1f\n        /* \"#utility.yul\":1103:1110   */\n      not\n        /* \"#utility.yul\":1098:1100   */\n      0x1f\n        /* \"#utility.yul\":1091:1096   */\n      dup4\n        /* \"#utility.yul\":1087:1101   */\n      add\n        /* \"#utility.yul\":1083:1111   */\n      and\n        /* \"#utility.yul\":1073:1111   */\n      swap1\n      pop\n        /* \"#utility.yul\":1015:1117   */\n      swap2\n      swap1\n      pop\n      jump\t// out\n        /* \"#utility.yul\":1123:1303   */\n    tag_38:\n        /* \"#utility.yul\":1171:1248   */\n      0x4e487b7100000000000000000000000000000000000000000000000000000000\n        /* \"#utility.yul\":1168:1169   */\n      0x00\n        /* \"#utility.yul\":1161:1249   */\n      mstore\n        /* \"#utility.yul\":1268:1272   */\n      0x41\n        /* \"#utility.yul\":1265:1266   */\n      0x04\n        /* \"#utility.yul\":1258:1273   */\n      mstore\n        /* \"#utility.yul\":1292:1296   */\n      0x24\n        /* \"#utility.yul\":1289:1290   */\n      0x00\n        /* \"#utility.yul\":1282:1297   */\n      revert\n        /* \"#utility.yul\":1309:1590   */\n    tag_39:\n        /* \"#utility.yul\":1392:1419   */\n      tag_83\n        /* \"#utility.yul\":1414:1418   */\n      dup3\n        /* \"#utility.yul\":1392:1419   */\n      tag_37\n      jump\t// in\n    tag_83:\n        /* \"#utility.yul\":1384:1390   */\n      dup2\n        /* \"#utility.yul\":1380:1420   */\n      add\n        /* \"#utility.yul\":1522:1528   */\n      dup2\n        /* \"#utility.yul\":1510:1520   */\n      dup2\n        /* \"#utility.yul\":1507:1529   */\n      lt\n        /* \"#utility.yul\":1486:1504   */\n      0xffffffffffffffff\n        /* \"#utility.yul\":1474:1484   */\n      dup3\n        /* \"#utility.yul\":1471:1505   */\n      gt\n        /* \"#utility.yul\":1468:1530   */\n      or\n        /* \"#utility.yul\":1465:1553   */\n      iszero\n      tag_84\n      jumpi\n        /* \"#utility.yul\":1533:1551   */\n      tag_85\n      tag_38\n      jump\t// in\n    tag_85:\n        /* \"#utility.yul\":1465:1553   */\n    tag_84:\n        /* \"#utility.yul\":1573:1583   */\n      dup1\n        /* \"#utility.yul\":1569:1571   */\n      0x40\n        /* \"#utility.yul\":1562:1584   */\n      mstore\n        /* \"#utility.yul\":1352:1590   */\n      pop\n        /* \"#utility.yul\":1309:1590   */\n      pop\n      pop\n      jump\t// out\n        /* \"#utility.yul\":1596:1725   */\n    tag_40:\n        /* \"#utility.yul\":1630:1636   */\n      0x00\n        /* \"#utility.yul\":1657:1677   */\n      tag_87\n      tag_32\n      jump\t// in\n    tag_87:\n        /* \"#utility.yul\":1647:1677   */\n      swap1\n      pop\n        /* \"#utility.yul\":1686:1719   */\n      tag_88\n        /* \"#utility.yul\":1714:1718   */\n      dup3\n        /* \"#utility.yul\":1706:1712   */\n      dup3\n        /* \"#utility.yul\":1686:1719   */\n      tag_39\n      jump\t// in\n    tag_88:\n        /* \"#utility.yul\":1596:1725   */\n      swap2\n      swap1\n      pop\n      jump\t// out\n        /* \"#utility.yul\":1731:2039   */\n    tag_41:\n        /* \"#utility.yul\":1793:1797   */\n      0x00\n        /* \"#utility.yul\":1883:1901   */\n      0xffffffffffffffff\n        /* \"#utility.yul\":1875:1881   */\n      dup3\n        /* \"#utility.yul\":1872:1902   */\n      gt\n        /* \"#utility.yul\":1869:1925   */\n      iszero\n      tag_90\n      jumpi\n        /* \"#utility.yul\":1905:1923   */\n      tag_91\n      tag_38\n      jump\t// in\n    tag_91:\n        /* \"#utility.yul\":1869:1925   */\n    tag_90:\n        /* \"#utility.yul\":1943:1972   */\n      tag_92\n        /* \"#utility.yul\":1965:1971   */\n      dup3\n        /* \"#utility.yul\":1943:1972   */\n      tag_37\n      jump\t// in\n    tag_92:\n        /* \"#utility.yul\":1935:1972   */\n      swap1\n      pop\n        /* \"#utility.yul\":2027:2031   */\n      0x20\n        /* \"#utility.yul\":2021:2025   */\n      dup2\n        /* \"#utility.yul\":2017:2032   */\n      add\n        /* \"#utility.yul\":2009:2032   */\n      swap1\n      pop\n        /* \"#utility.yul\":1731:2039   */\n      swap2\n      swap1\n      pop\n      jump\t// out\n        /* \"#utility.yul\":2045:2191   */\n    tag_42:\n        /* \"#utility.yul\":2142:2148   */\n      dup3\n        /* \"#utility.yul\":2137:2140   */\n      dup2\n        /* \"#utility.yul\":2132:2135   */\n      dup4\n        /* \"#utility.yul\":2119:2149   */\n      calldatacopy\n        /* \"#utility.yul\":2183:2184   */\n      0x00\n        /* \"#utility.yul\":2174:2180   */\n      dup4\n        /* \"#utility.yul\":2169:2172   */\n      dup4\n        /* \"#utility.yul\":2165:2181   */\n      add\n        /* \"#utility.yul\":2158:2185   */\n      mstore\n        /* \"#utility.yul\":2045:2191   */\n      pop\n      pop\n      pop\n      jump\t// out\n        /* \"#utility.yul\":2197:2622   */\n    tag_43:\n        /* \"#utility.yul\":2275:2280   */\n      0x00\n        /* \"#utility.yul\":2300:2366   */\n      tag_95\n        /* \"#utility.yul\":2316:2365   */\n      tag_96\n        /* \"#utility.yul\":2358:2364   */\n      dup5\n        /* \"#utility.yul\":2316:2365   */\n      tag_41\n      jump\t// in\n    tag_96:\n        /* \"#utility.yul\":2300:2366   */\n      tag_40\n      jump\t// in\n    tag_95:\n        /* \"#utility.yul\":2291:2366   */\n      swap1\n      pop\n        /* \"#utility.yul\":2389:2395   */\n      dup3\n        /* \"#utility.yul\":2382:2387   */\n      dup2\n        /* \"#utility.yul\":2375:2396   */\n      mstore\n        /* \"#utility.yul\":2427:2431   */\n      0x20\n        /* \"#utility.yul\":2420:2425   */\n      dup2\n        /* \"#utility.yul\":2416:2432   */\n      add\n        /* \"#utility.yul\":2465:2468   */\n      dup5\n        /* \"#utility.yul\":2456:2462   */\n      dup5\n        /* \"#utility.yul\":2451:2454   */\n      dup5\n        /* \"#utility.yul\":2447:2463   */\n      add\n        /* \"#utility.yul\":2444:2469   */\n      gt\n        /* \"#utility.yul\":2441:2553   */\n      iszero\n      tag_97\n      jumpi\n        /* \"#utility.yul\":2472:2551   */\n      tag_98\n      tag_36\n      jump\t// in\n    tag_98:\n        /* \"#utility.yul\":2441:2553   */\n    tag_97:\n        /* \"#utility.yul\":2562:2616   */\n      tag_99\n        /* \"#utility.yul\":2609:2615   */\n      dup5\n        /* \"#utility.yul\":2604:2607   */\n      dup3\n        /* \"#utility.yul\":2599:2602   */\n      dup6\n        /* \"#utility.yul\":2562:2616   */\n      tag_42\n      jump\t// in\n    tag_99:\n        /* \"#utility.yul\":2281:2622   */\n      pop\n        /* \"#utility.yul\":2197:2622   */\n      swap4\n      swap3\n      pop\n      pop\n      pop\n      jump\t// out\n        /* \"#utility.yul\":2642:2982   */\n    tag_44:\n        /* \"#utility.yul\":2698:2703   */\n      0x00\n        /* \"#utility.yul\":2747:2750   */\n      dup3\n        /* \"#utility.yul\":2740:2744   */\n      0x1f\n        /* \"#utility.yul\":2732:2738   */\n      dup4\n        /* \"#utility.yul\":2728:2745   */\n      add\n        /* \"#utility.yul\":2724:2751   */\n      slt\n        /* \"#utility.yul\":2714:2836   */\n      tag_101\n      jumpi\n        /* \"#utility.yul\":2755:2834   */\n      tag_102\n      tag_35\n      jump\t// in\n    tag_102:\n        /* \"#utility.yul\":2714:2836   */\n    tag_101:\n        /* \"#utility.yul\":2872:2878   */\n      dup2\n        /* \"#utility.yul\":2859:2879   */\n      calldataload\n        /* \"#utility.yul\":2897:2976   */\n      tag_103\n        /* \"#utility.yul\":2972:2975   */\n      dup5\n        /* \"#utility.yul\":2964:2970   */\n      dup3\n        /* \"#utility.yul\":2957:2961   */\n      0x20\n        /* \"#utility.yul\":2949:2955   */\n      dup7\n        /* \"#utility.yul\":2945:2962   */\n      add\n        /* \"#utility.yul\":2897:2976   */\n      tag_43\n      jump\t// in\n    tag_103:\n        /* \"#utility.yul\":2888:2976   */\n      swap2\n      pop\n        /* \"#utility.yul\":2704:2982   */\n      pop\n        /* \"#utility.yul\":2642:2982   */\n      swap3\n      swap2\n      pop\n      pop\n      jump\t// out\n        /* \"#utility.yul\":2988:3110   */\n    tag_45:\n        /* \"#utility.yul\":3061:3085   */\n      tag_105\n        /* \"#utility.yul\":3079:3084   */\n      dup2\n        /* \"#utility.yul\":3061:3085   */\n      tag_30\n      jump\t// in\n    tag_105:\n        /* \"#utility.yul\":3054:3059   */\n      dup2\n        /* \"#utility.yul\":3051:3086   */\n      eq\n        /* \"#utility.yul\":3041:3104   */\n      tag_106\n      jumpi\n        /* \"#utility.yul\":3100:3101   */\n      0x00\n        /* \"#utility.yul\":3097:3098   */\n      dup1\n        /* \"#utility.yul\":3090:3102   */\n      revert\n        /* \"#utility.yul\":3041:3104   */\n    tag_106:\n        /* \"#utility.yul\":2988:3110   */\n      pop\n      jump\t// out\n        /* \"#utility.yul\":3116:3255   */\n    tag_46:\n        /* \"#utility.yul\":3162:3167   */\n      0x00\n        /* \"#utility.yul\":3200:3206   */\n      dup2\n        /* \"#utility.yul\":3187:3207   */\n      calldataload\n        /* \"#utility.yul\":3178:3207   */\n      swap1\n      pop\n        /* \"#utility.yul\":3216:3249   */\n      tag_108\n        /* \"#utility.yul\":3243:3248   */\n      dup2\n        /* \"#utility.yul\":3216:3249   */\n      tag_45\n      jump\t// in\n    tag_108:\n        /* \"#utility.yul\":3116:3255   */\n      swap3\n      swap2\n      pop\n      pop\n      jump\t// out\n        /* \"#utility.yul\":3261:3915   */\n    tag_12:\n        /* \"#utility.yul\":3339:3345   */\n      0x00\n        /* \"#utility.yul\":3347:3353   */\n      dup1\n        /* \"#utility.yul\":3396:3398   */\n      0x40\n        /* \"#utility.yul\":3384:3393   */\n      dup4\n        /* \"#utility.yul\":3375:3382   */\n      dup6\n        /* \"#utility.yul\":3371:3394   */\n      sub\n        /* \"#utility.yul\":3367:3399   */\n      slt\n        /* \"#utility.yul\":3364:3483   */\n      iszero\n      tag_110\n      jumpi\n        /* \"#utility.yul\":3402:3481   */\n      tag_111\n      tag_33\n      jump\t// in\n    tag_111:\n        /* \"#utility.yul\":3364:3483   */\n    tag_110:\n        /* \"#utility.yul\":3550:3551   */\n      0x00\n        /* \"#utility.yul\":3539:3548   */\n      dup4\n        /* \"#utility.yul\":3535:3552   */\n      add\n        /* \"#utility.yul\":3522:3553   */\n      calldataload\n        /* \"#utility.yul\":3580:3598   */\n      0xffffffffffffffff\n        /* \"#utility.yul\":3572:3578   */\n      dup2\n        /* \"#utility.yul\":3569:3599   */\n      gt\n        /* \"#utility.yul\":3566:3683   */\n      iszero\n      tag_112\n      jumpi\n        /* \"#utility.yul\":3602:3681   */\n      tag_113\n      tag_34\n      jump\t// in\n    tag_113:\n        /* \"#utility.yul\":3566:3683   */\n    tag_112:\n        /* \"#utility.yul\":3707:3770   */\n      tag_114\n        /* \"#utility.yul\":3762:3769   */\n      dup6\n        /* \"#utility.yul\":3753:3759   */\n      dup3\n        /* \"#utility.yul\":3742:3751   */\n      dup7\n        /* \"#utility.yul\":3738:3760   */\n      add\n        /* \"#utility.yul\":3707:3770   */\n      tag_44\n      jump\t// in\n    tag_114:\n        /* \"#utility.yul\":3697:3770   */\n      swap3\n      pop\n        /* \"#utility.yul\":3493:3780   */\n      pop\n        /* \"#utility.yul\":3819:3821   */\n      0x20\n        /* \"#utility.yul\":3845:3898   */\n      tag_115\n        /* \"#utility.yul\":3890:3897   */\n      dup6\n        /* \"#utility.yul\":3881:3887   */\n      dup3\n        /* \"#utility.yul\":3870:3879   */\n      dup7\n        /* \"#utility.yul\":3866:3888   */\n      add\n        /* \"#utility.yul\":3845:3898   */\n      tag_46\n      jump\t// in\n    tag_115:\n        /* \"#utility.yul\":3835:3898   */\n      swap2\n      pop\n        /* \"#utility.yul\":3790:3908   */\n      pop\n        /* \"#utility.yul\":3261:3915   */\n      swap3\n      pop\n      swap3\n      swap1\n      pop\n      jump\t// out\n        /* \"#utility.yul\":3921:4011   */\n    tag_47:\n        /* \"#utility.yul\":3955:3962   */\n      0x00\n        /* \"#utility.yul\":3998:4003   */\n      dup2\n        /* \"#utility.yul\":3991:4004   */\n      iszero\n        /* \"#utility.yul\":3984:4005   */\n      iszero\n        /* \"#utility.yul\":3973:4005   */\n      swap1\n      pop\n        /* \"#utility.yul\":3921:4011   */\n      swap2\n      swap1\n      pop\n      jump\t// out\n        /* \"#utility.yul\":4017:4126   */\n    tag_48:\n        /* \"#utility.yul\":4098:4119   */\n      tag_118\n        /* \"#utility.yul\":4113:4118   */\n      dup2\n        /* \"#utility.yul\":4098:4119   */\n      tag_47\n      jump\t// in\n    tag_118:\n        /* \"#utility.yul\":4093:4096   */\n      dup3\n        /* \"#utility.yul\":4086:4120   */\n      mstore\n        /* \"#utility.yul\":4017:4126   */\n      pop\n      pop\n      jump\t// out\n        /* \"#utility.yul\":4132:4452   */\n    tag_15:\n        /* \"#utility.yul\":4247:4251   */\n      0x00\n        /* \"#utility.yul\":4285:4287   */\n      0x40\n        /* \"#utility.yul\":4274:4283   */\n      dup3\n        /* \"#utility.yul\":4270:4288   */\n      add\n        /* \"#utility.yul\":4262:4288   */\n      swap1\n      pop\n        /* \"#utility.yul\":4298:4363   */\n      tag_120\n        /* \"#utility.yul\":4360:4361   */\n      0x00\n        /* \"#utility.yul\":4349:4358   */\n      dup4\n        /* \"#utility.yul\":4345:4362   */\n      add\n        /* \"#utility.yul\":4336:4342   */\n      dup6\n        /* \"#utility.yul\":4298:4363   */\n      tag_48\n      jump\t// in\n    tag_120:\n        /* \"#utility.yul\":4373:4445   */\n      tag_121\n        /* \"#utility.yul\":4441:4443   */\n      0x20\n        /* \"#utility.yul\":4430:4439   */\n      dup4\n        /* \"#utility.yul\":4426:4444   */\n      add\n        /* \"#utility.yul\":4417:4423   */\n      dup5\n        /* \"#utility.yul\":4373:4445   */\n      tag_31\n      jump\t// in\n    tag_121:\n        /* \"#utility.yul\":4132:4452   */\n      swap4\n      swap3\n      pop\n      pop\n      pop\n      jump\t// out\n        /* \"#utility.yul\":4458:4557   */\n    tag_49:\n        /* \"#utility.yul\":4510:4516   */\n      0x00\n        /* \"#utility.yul\":4544:4549   */\n      dup2\n        /* \"#utility.yul\":4538:4550   */\n      mload\n        /* \"#utility.yul\":4528:4550   */\n      swap1\n      pop\n        /* \"#utility.yul\":4458:4557   */\n      swap2\n      swap1\n      pop\n      jump\t// out\n        /* \"#utility.yul\":4563:4732   */\n    tag_50:\n        /* \"#utility.yul\":4647:4658   */\n      0x00\n        /* \"#utility.yul\":4681:4687   */\n      dup3\n        /* \"#utility.yul\":4676:4679   */\n      dup3\n        /* \"#utility.yul\":4669:4688   */\n      mstore\n        /* \"#utility.yul\":4721:4725   */\n      0x20\n        /* \"#utility.yul\":4716:4719   */\n      dup3\n        /* \"#utility.yul\":4712:4726   */\n      add\n        /* \"#utility.yul\":4697:4726   */\n      swap1\n      pop\n        /* \"#utility.yul\":4563:4732   */\n      swap3\n      swap2\n      pop\n      pop\n      jump\t// out\n        /* \"#utility.yul\":4738:4984   */\n    tag_51:\n        /* \"#utility.yul\":4819:4820   */\n      0x00\n        /* \"#utility.yul\":4829:4942   */\n    tag_125:\n        /* \"#utility.yul\":4843:4849   */\n      dup4\n        /* \"#utility.yul\":4840:4841   */\n      dup2\n        /* \"#utility.yul\":4837:4850   */\n      lt\n        /* \"#utility.yul\":4829:4942   */\n      iszero\n      tag_127\n      jumpi\n        /* \"#utility.yul\":4928:4929   */\n      dup1\n        /* \"#utility.yul\":4923:4926   */\n      dup3\n        /* \"#utility.yul\":4919:4930   */\n      add\n        /* \"#utility.yul\":4913:4931   */\n      mload\n        /* \"#utility.yul\":4909:4910   */\n      dup2\n        /* \"#utility.yul\":4904:4907   */\n      dup5\n        /* \"#utility.yul\":4900:4911   */\n      add\n        /* \"#utility.yul\":4893:4932   */\n      mstore\n        /* \"#utility.yul\":4865:4867   */\n      0x20\n        /* \"#utility.yul\":4862:4863   */\n      dup2\n        /* \"#utility.yul\":4858:4868   */\n      add\n        /* \"#utility.yul\":4853:4868   */\n      swap1\n      pop\n        /* \"#utility.yul\":4829:4942   */\n      jump(tag_125)\n    tag_127:\n        /* \"#utility.yul\":4976:4977   */\n      0x00\n        /* \"#utility.yul\":4967:4973   */\n      dup5\n        /* \"#utility.yul\":4962:4965   */\n      dup5\n        /* \"#utility.yul\":4958:4974   */\n      add\n        /* \"#utility.yul\":4951:4978   */\n      mstore\n        /* \"#utility.yul\":4800:4984   */\n      pop\n        /* \"#utility.yul\":4738:4984   */\n      pop\n      pop\n      pop\n      jump\t// out\n        /* \"#utility.yul\":4990:5367   */\n    tag_52:\n        /* \"#utility.yul\":5078:5081   */\n      0x00\n        /* \"#utility.yul\":5106:5145   */\n      tag_129\n        /* \"#utility.yul\":5139:5144   */\n      dup3\n        /* \"#utility.yul\":5106:5145   */\n      tag_49\n      jump\t// in\n    tag_129:\n        /* \"#utility.yul\":5161:5232   */\n      tag_130\n        /* \"#utility.yul\":5225:5231   */\n      dup2\n        /* \"#utility.yul\":5220:5223   */\n      dup6\n        /* \"#utility.yul\":5161:5232   */\n      tag_50\n      jump\t// in\n    tag_130:\n        /* \"#utility.yul\":5154:5232   */\n      swap4\n      pop\n        /* \"#utility.yul\":5241:5306   */\n      tag_131\n        /* \"#utility.yul\":5299:5305   */\n      dup2\n        /* \"#utility.yul\":5294:5297   */\n      dup6\n        /* \"#utility.yul\":5287:5291   */\n      0x20\n        /* \"#utility.yul\":5280:5285   */\n      dup7\n        /* \"#utility.yul\":5276:5292   */\n      add\n        /* \"#utility.yul\":5241:5306   */\n      tag_51\n      jump\t// in\n    tag_131:\n        /* \"#utility.yul\":5331:5360   */\n      tag_132\n        /* \"#utility.yul\":5353:5359   */\n      dup2\n        /* \"#utility.yul\":5331:5360   */\n      tag_37\n      jump\t// in\n    tag_132:\n        /* \"#utility.yul\":5326:5329   */\n      dup5\n        /* \"#utility.yul\":5322:5361   */\n      add\n        /* \"#utility.yul\":5315:5361   */\n      swap2\n      pop\n        /* \"#utility.yul\":5082:5367   */\n      pop\n        /* \"#utility.yul\":4990:5367   */\n      swap3\n      swap2\n      pop\n      pop\n      jump\t// out\n        /* \"#utility.yul\":5373:5686   */\n    tag_20:\n        /* \"#utility.yul\":5486:5490   */\n      0x00\n        /* \"#utility.yul\":5524:5526   */\n      0x20\n        /* \"#utility.yul\":5513:5522   */\n      dup3\n        /* \"#utility.yul\":5509:5527   */\n      add\n        /* \"#utility.yul\":5501:5527   */\n      swap1\n      pop\n        /* \"#utility.yul\":5573:5582   */\n      dup2\n        /* \"#utility.yul\":5567:5571   */\n      dup2\n        /* \"#utility.yul\":5563:5583   */\n      sub\n        /* \"#utility.yul\":5559:5560   */\n      0x00\n        /* \"#utility.yul\":5548:5557   */\n      dup4\n        /* \"#utility.yul\":5544:5561   */\n      add\n        /* \"#utility.yul\":5537:5584   */\n      mstore\n        /* \"#utility.yul\":5601:5679   */\n      tag_134\n        /* \"#utility.yul\":5674:5678   */\n      dup2\n        /* \"#utility.yul\":5665:5671   */\n      dup5\n        /* \"#utility.yul\":5601:5679   */\n      tag_52\n      jump\t// in\n    tag_134:\n        /* \"#utility.yul\":5593:5679   */\n      swap1\n      pop\n        /* \"#utility.yul\":5373:5686   */\n      swap3\n      swap2\n      pop\n      pop\n      jump\t// out\n        /* \"#utility.yul\":5692:5872   */\n    tag_53:\n        /* \"#utility.yul\":5740:5817   */\n      0x4e487b7100000000000000000000000000000000000000000000000000000000\n        /* \"#utility.yul\":5737:5738   */\n      0x00\n        /* \"#utility.yul\":5730:5818   */\n      mstore\n        /* \"#utility.yul\":5837:5841   */\n      0x22\n        /* \"#utility.yul\":5834:5835   */\n      0x04\n        /* \"#utility.yul\":5827:5842   */\n      mstore\n        /* \"#utility.yul\":5861:5865   */\n      0x24\n        /* \"#utility.yul\":5858:5859   */\n      0x00\n        /* \"#utility.yul\":5851:5866   */\n      revert\n        /* \"#utility.yul\":5878:6198   */\n    tag_25:\n        /* \"#utility.yul\":5922:5928   */\n      0x00\n        /* \"#utility.yul\":5959:5960   */\n      0x02\n        /* \"#utility.yul\":5953:5957   */\n      dup3\n        /* \"#utility.yul\":5949:5961   */\n      div\n        /* \"#utility.yul\":5939:5961   */\n      swap1\n      pop\n        /* \"#utility.yul\":6006:6007   */\n      0x01\n        /* \"#utility.yul\":6000:6004   */\n      dup3\n        /* \"#utility.yul\":5996:6008   */\n      and\n        /* \"#utility.yul\":6027:6045   */\n      dup1\n        /* \"#utility.yul\":6017:6098   */\n      tag_137\n      jumpi\n        /* \"#utility.yul\":6083:6087   */\n      0x7f\n        /* \"#utility.yul\":6075:6081   */\n      dup3\n        /* \"#utility.yul\":6071:6088   */\n      and\n        /* \"#utility.yul\":6061:6088   */\n      swap2\n      pop\n        /* \"#utility.yul\":6017:6098   */\n    tag_137:\n        /* \"#utility.yul\":6145:6147   */\n      0x20\n        /* \"#utility.yul\":6137:6143   */\n      dup3\n        /* \"#utility.yul\":6134:6148   */\n      lt\n        /* \"#utility.yul\":6114:6132   */\n      dup2\n        /* \"#utility.yul\":6111:6149   */\n      sub\n        /* \"#utility.yul\":6108:6192   */\n      tag_138\n      jumpi\n        /* \"#utility.yul\":6164:6182   */\n      tag_139\n      tag_53\n      jump\t// in\n    tag_139:\n        /* \"#utility.yul\":6108:6192   */\n    tag_138:\n        /* \"#utility.yul\":5929:6198   */\n      pop\n        /* \"#utility.yul\":5878:6198   */\n      swap2\n      swap1\n      pop\n      jump\t// out\n        /* \"#utility.yul\":6204:6345   */\n    tag_54:\n        /* \"#utility.yul\":6253:6257   */\n      0x00\n        /* \"#utility.yul\":6276:6279   */\n      dup2\n        /* \"#utility.yul\":6268:6279   */\n      swap1\n      pop\n        /* \"#utility.yul\":6299:6302   */\n      dup2\n        /* \"#utility.yul\":6296:6297   */\n      0x00\n        /* \"#utility.yul\":6289:6303   */\n      mstore\n        /* \"#utility.yul\":6333:6337   */\n      0x20\n        /* \"#utility.yul\":6330:6331   */\n      0x00\n        /* \"#utility.yul\":6320:6338   */\n      keccak256\n        /* \"#utility.yul\":6312:6338   */\n      swap1\n      pop\n        /* \"#utility.yul\":6204:6345   */\n      swap2\n      swap1\n      pop\n      jump\t// out\n        /* \"#utility.yul\":6351:6444   */\n    tag_55:\n        /* \"#utility.yul\":6388:6394   */\n      0x00\n        /* \"#utility.yul\":6435:6437   */\n      0x20\n        /* \"#utility.yul\":6430:6432   */\n      0x1f\n        /* \"#utility.yul\":6423:6428   */\n      dup4\n        /* \"#utility.yul\":6419:6433   */\n      add\n        /* \"#utility.yul\":6415:6438   */\n      div\n        /* \"#utility.yul\":6405:6438   */\n      swap1\n      pop\n        /* \"#utility.yul\":6351:6444   */\n      swap2\n      swap1\n      pop\n      jump\t// out\n        /* \"#utility.yul\":6450:6557   */\n    tag_56:\n        /* \"#utility.yul\":6494:6502   */\n      0x00\n        /* \"#utility.yul\":6544:6549   */\n      dup3\n        /* \"#utility.yul\":6538:6542   */\n      dup3\n        /* \"#utility.yul\":6534:6550   */\n      shl\n        /* \"#utility.yul\":6513:6550   */\n      swap1\n      pop\n        /* \"#utility.yul\":6450:6557   */\n      swap3\n      swap2\n      pop\n      pop\n      jump\t// out\n        /* \"#utility.yul\":6563:6956   */\n    tag_57:\n        /* \"#utility.yul\":6632:6638   */\n      0x00\n        /* \"#utility.yul\":6682:6683   */\n      0x08\n        /* \"#utility.yul\":6670:6680   */\n      dup4\n        /* \"#utility.yul\":6666:6684   */\n      mul\n        /* \"#utility.yul\":6705:6802   */\n      tag_144\n        /* \"#utility.yul\":6735:6801   */\n      0xffffffffffffffffffffffffffffffffffffffffffffffffffffffffffffffff\n        /* \"#utility.yul\":6724:6733   */\n      dup3\n        /* \"#utility.yul\":6705:6802   */\n      tag_56\n      jump\t// in\n    tag_144:\n        /* \"#utility.yul\":6823:6862   */\n      tag_145\n        /* \"#utility.yul\":6853:6861   */\n      dup7\n        /* \"#utility.yul\":6842:6851   */\n      dup4\n        /* \"#utility.yul\":6823:6862   */\n      tag_56\n      jump\t// in\n    tag_145:\n        /* \"#utility.yul\":6811:6862   */\n      swap6\n      pop\n        /* \"#utility.yul\":6895:6899   */\n      dup1\n        /* \"#utility.yul\":6891:6900   */\n      not\n        /* \"#utility.yul\":6884:6889   */\n      dup5\n        /* \"#utility.yul\":6880:6901   */\n      and\n        /* \"#utility.yul\":6871:6901   */\n      swap4\n      pop\n        /* \"#utility.yul\":6944:6948   */\n      dup1\n        /* \"#utility.yul\":6934:6942   */\n      dup7\n        /* \"#utility.yul\":6930:6949   */\n      and\n        /* \"#utility.yul\":6923:6928   */\n      dup5\n        /* \"#utility.yul\":6920:6950   */\n      or\n        /* \"#utility.yul\":6910:6950   */\n      swap3\n      pop\n        /* \"#utility.yul\":6639:6956   */\n      pop\n      pop\n        /* \"#utility.yul\":6563:6956   */\n      swap4\n      swap3\n      pop\n      pop\n      pop\n      jump\t// out\n        /* \"#utility.yul\":6962:7022   */\n    tag_58:\n        /* \"#utility.yul\":6990:6993   */\n      0x00\n        /* \"#utility.yul\":7011:7016   */\n      dup2\n        /* \"#utility.yul\":7004:7016   */\n      swap1\n      pop\n        /* \"#utility.yul\":6962:7022   */\n      swap2\n      swap1\n      pop\n      jump\t// out\n        /* \"#utility.yul\":7028:7170   */\n    tag_59:\n        /* \"#utility.yul\":7078:7087   */\n      0x00\n        /* \"#utility.yul\":7111:7164   */\n      tag_148\n        /* \"#utility.yul\":7129:7163   */\n      tag_149\n        /* \"#utility.yul\":7138:7162   */\n      tag_150\n        /* \"#utility.yul\":7156:7161   */\n      dup5\n        /* \"#utility.yul\":7138:7162   */\n      tag_30\n      jump\t// in\n    tag_150:\n        /* \"#utility.yul\":7129:7163   */\n      tag_58\n      jump\t// in\n    tag_149:\n        /* \"#utility.yul\":7111:7164   */\n      tag_30\n      jump\t// in\n    tag_148:\n        /* \"#utility.yul\":7098:7164   */\n      swap1\n      pop\n        /* \"#utility.yul\":7028:7170   */\n      swap2\n      swap1\n      pop\n      jump\t// out\n        /* \"#utility.yul\":7176:7251   */\n    tag_60:\n        /* \"#utility.yul\":7219:7222   */\n      0x00\n        /* \"#utility.yul\":7240:7245   */\n      dup2\n        /* \"#utility.yul\":7233:7245   */\n      swap1\n      pop\n        /* \"#utility.yul\":7176:7251   */\n      swap2\n      swap1\n      pop\n      jump\t// out\n        /* \"#utility.yul\":7257:7526   */\n    tag_61:\n        /* \"#utility.yul\":7367:7406   */\n      tag_153\n        /* \"#utility.yul\":7398:7405   */\n      dup4\n        /* \"#utility.yul\":7367:7406   */\n      tag_59\n      jump\t// in\n    tag_153:\n        /* \"#utility.yul\":7428:7519   */\n      tag_154\n        /* \"#utility.yul\":7477:7518   */\n      tag_155\n        /* \"#utility.yul\":7501:7517   */\n      dup3\n        /* \"#utility.yul\":7477:7518   */\n      tag_60\n      jump\t// in\n    tag_155:\n        /* \"#utility.yul\":7469:7475   */\n      dup5\n        /* \"#utility.yul\":7462:7466   */\n      dup5\n        /* \"#utility.yul\":7456:7467   */\n      sload\n        /* \"#utility.yul\":7428:7519   */\n      tag_57\n      jump\t// in\n    tag_154:\n        /* \"#utility.yul\":7422:7426   */\n      dup3\n        /* \"#utility.yul\":7415:7520   */\n      sstore\n        /* \"#utility.yul\":7333:7526   */\n      pop\n        /* \"#utility.yul\":7257:7526   */\n      pop\n      pop\n      pop\n      jump\t// out\n        /* \"#utility.yul\":7532:7605   */\n    tag_62:\n        /* \"#utility.yul\":7577:7580   */\n      0x00\n        /* \"#utility.yul\":7532:7605   */\n      swap1\n      jump\t// out\n        /* \"#utility.yul\":7611:7800   */\n    tag_63:\n        /* \"#utility.yul\":7688:7720   */\n      tag_158\n      tag_62\n      jump\t// in\n    tag_158:\n        /* \"#utility.yul\":7729:7794   */\n      tag_159\n        /* \"#utility.yul\":7787:7793   */\n      dup2\n        /* \"#utility.yul\":7779:7785   */\n      dup5\n        /* \"#utility.yul\":7773:7777   */\n      dup5\n        /* \"#utility.yul\":7729:7794   */\n      tag_61\n      jump\t// in\n    tag_159:\n        /* \"#utility.yul\":7664:7800   */\n      pop\n        /* \"#utility.yul\":7611:7800   */\n      pop\n      pop\n      jump\t// out\n        /* \"#utility.yul\":7806:7992   */\n    tag_64:\n        /* \"#utility.yul\":7866:7986   */\n    tag_161:\n        /* \"#utility.yul\":7883:7886   */\n      dup2\n        /* \"#utility.yul\":7876:7881   */\n      dup2\n        /* \"#utility.yul\":7873:7887   */\n      lt\n        /* \"#utility.yul\":7866:7986   */\n      iszero\n      tag_163\n      jumpi\n        /* \"#utility.yul\":7937:7976   */\n      tag_164\n        /* \"#utility.yul\":7974:7975   */\n      0x00\n        /* \"#utility.yul\":7967:7972   */\n      dup3\n        /* \"#utility.yul\":7937:7976   */\n      tag_63\n      jump\t// in\n    tag_164:\n        /* \"#utility.yul\":7910:7911   */\n      0x01\n        /* \"#utility.yul\":7903:7908   */\n      dup2\n        /* \"#utility.yul\":7899:7912   */\n      add\n        /* \"#utility.yul\":7890:7912   */\n      swap1\n      pop\n        /* \"#utility.yul\":7866:7986   */\n      jump(tag_161)\n    tag_163:\n        /* \"#utility.yul\":7806:7992   */\n      pop\n      pop\n      jump\t// out\n        /* \"#utility.yul\":7998:8541   */\n    tag_65:\n        /* \"#utility.yul\":8099:8101   */\n      0x1f\n        /* \"#utility.yul\":8094:8097   */\n      dup3\n        /* \"#utility.yul\":8091:8102   */\n      gt\n        /* \"#utility.yul\":8088:8534   */\n      iszero\n      tag_166\n      jumpi\n        /* \"#utility.yul\":8133:8171   */\n      tag_167\n        /* \"#utility.yul\":8165:8170   */\n      dup2\n        /* \"#utility.yul\":8133:8171   */\n      tag_54\n      jump\t// in\n    tag_167:\n        /* \"#utility.yul\":8217:8246   */\n      tag_168\n        /* \"#utility.yul\":8235:8245   */\n      dup5\n        /* \"#utility.yul\":8217:8246   */\n      tag_55\n      jump\t// in\n    tag_168:\n        /* \"#utility.yul\":8207:8215   */\n      dup2\n        /* \"#utility.yul\":8203:8247   */\n      add\n        /* \"#utility.yul\":8400:8402   */\n      0x20\n        /* \"#utility.yul\":8388:8398   */\n      dup6\n        /* \"#utility.yul\":8385:8403   */\n      lt\n        /* \"#utility.yul\":8382:8431   */\n      iszero\n      tag_169\n      jumpi\n        /* \"#utility.yul\":8421:8429   */\n      dup2\n        /* \"#utility.yul\":8406:8429   */\n      swap1\n      pop\n        /* \"#utility.yul\":8382:8431   */\n    tag_169:\n        /* \"#utility.yul\":8444:8524   */\n      tag_170\n        /* \"#utility.yul\":8500:8522   */\n      tag_171\n        /* \"#utility.yul\":8518:8521   */\n      dup6\n        /* \"#utility.yul\":8500:8522   */\n      tag_55\n      jump\t// in\n    tag_171:\n        /* \"#utility.yul\":8490:8498   */\n      dup4\n        /* \"#utility.yul\":8486:8523   */\n      add\n        /* \"#utility.yul\":8473:8484   */\n      dup3\n        /* \"#utility.yul\":8444:8524   */\n      tag_64\n      jump\t// in\n    tag_170:\n        /* \"#utility.yul\":8103:8534   */\n      pop\n      pop\n        /* \"#utility.yul\":8088:8534   */\n    tag_166:\n        /* \"#utility.yul\":7998:8541   */\n      pop\n      pop\n      pop\n      jump\t// out\n        /* \"#utility.yul\":8547:8664   */\n    tag_66:\n        /* \"#utility.yul\":8601:8609   */\n      0x00\n        /* \"#utility.yul\":8651:8656   */\n      dup3\n        /* \"#utility.yul\":8645:8649   */\n      dup3\n        /* \"#utility.yul\":8641:8657   */\n      shr\n        /* \"#utility.yul\":8620:8657   */\n      swap1\n      pop\n        /* \"#utility.yul\":8547:8664   */\n      swap3\n      swap2\n      pop\n      pop\n      jump\t// out\n        /* \"#utility.yul\":8670:8839   */\n    tag_67:\n        /* \"#utility.yul\":8714:8720   */\n      0x00\n        /* \"#utility.yul\":8747:8798   */\n      tag_174\n        /* \"#utility.yul\":8795:8796   */\n      0x00\n        /* \"#utility.yul\":8791:8797   */\n      not\n        /* \"#utility.yul\":8783:8788   */\n      dup5\n        /* \"#utility.yul\":8780:8781   */\n      0x08\n        /* \"#utility.yul\":8776:8789   */\n      mul\n        /* \"#utility.yul\":8747:8798   */\n      tag_66\n      jump\t// in\n    tag_174:\n        /* \"#utility.yul\":8743:8799   */\n      not\n        /* \"#utility.yul\":8828:8832   */\n      dup1\n        /* \"#utility.yul\":8822:8826   */\n      dup4\n        /* \"#utility.yul\":8818:8833   */\n      and\n        /* \"#utility.yul\":8808:8833   */\n      swap2\n      pop\n        /* \"#utility.yul\":8721:8839   */\n      pop\n        /* \"#utility.yul\":8670:8839   */\n      swap3\n      swap2\n      pop\n      pop\n      jump\t// out\n        /* \"#utility.yul\":8844:9139   */\n    tag_68:\n        /* \"#utility.yul\":8920:8924   */\n      0x00\n        /* \"#utility.yul\":9066:9095   */\n      tag_176\n        /* \"#utility.yul\":9091:9094   */\n      dup4\n        /* \"#utility.yul\":9085:9089   */\n      dup4\n        /* \"#utility.yul\":9066:9095   */\n      tag_67\n      jump\t// in\n    tag_176:\n        /* \"#utility.yul\":9058:9095   */\n      swap2\n      pop\n        /* \"#utility.yul\":9128:9131   */\n      dup3\n        /* \"#utility.yul\":9125:9126   */\n      0x02\n        /* \"#utility.yul\":9121:9132   */\n      mul\n        /* \"#utility.yul\":9115:9119   */\n      dup3\n        /* \"#utility.yul\":9112:9133   */\n      or\n        /* \"#utility.yul\":9104:9133   */\n      swap1\n      pop\n        /* \"#utility.yul\":8844:9139   */\n      swap3\n      swap2\n      pop\n      pop\n      jump\t// out\n        /* \"#utility.yul\":9144:10539   */\n    tag_23:\n        /* \"#utility.yul\":9261:9298   */\n      tag_178\n        /* \"#utility.yul\":9294:9297   */\n      dup3\n        /* \"#utility.yul\":9261:9298   */\n      tag_49\n      jump\t// in\n    tag_178:\n        /* \"#utility.yul\":9363:9381   */\n      0xffffffffffffffff\n        /* \"#utility.yul\":9355:9361   */\n      dup2\n        /* \"#utility.yul\":9352:9382   */\n      gt\n        /* \"#utility.yul\":9349:9405   */\n      iszero\n      tag_179\n      jumpi\n        /* \"#utility.yul\":9385:9403   */\n      tag_180\n      tag_38\n      jump\t// in\n    tag_180:\n        /* \"#utility.yul\":9349:9405   */\n    tag_179:\n        /* \"#utility.yul\":9429:9467   */\n      tag_181\n        /* \"#utility.yul\":9461:9465   */\n      dup3\n        /* \"#utility.yul\":9455:9466   */\n      sload\n        /* \"#utility.yul\":9429:9467   */\n      tag_25\n      jump\t// in\n    tag_181:\n        /* \"#utility.yul\":9514:9581   */\n      tag_182\n        /* \"#utility.yul\":9574:9580   */\n      dup3\n        /* \"#utility.yul\":9566:9572   */\n      dup3\n        /* \"#utility.yul\":9560:9564   */\n      dup6\n        /* \"#utility.yul\":9514:9581   */\n      tag_65\n      jump\t// in\n    tag_182:\n        /* \"#utility.yul\":9608:9609   */\n      0x00\n        /* \"#utility.yul\":9632:9636   */\n      0x20\n        /* \"#utility.yul\":9619:9636   */\n      swap1\n      pop\n        /* \"#utility.yul\":9664:9666   */\n      0x1f\n        /* \"#utility.yul\":9656:9662   */\n      dup4\n        /* \"#utility.yul\":9653:9667   */\n      gt\n        /* \"#utility.yul\":9681:9682   */\n      0x01\n        /* \"#utility.yul\":9676:10294   */\n      dup2\n      eq\n      tag_184\n      jumpi\n        /* \"#utility.yul\":10338:10339   */\n      0x00\n        /* \"#utility.yul\":10355:10361   */\n      dup5\n        /* \"#utility.yul\":10352:10429   */\n      iszero\n      tag_185\n      jumpi\n        /* \"#utility.yul\":10404:10413   */\n      dup3\n        /* \"#utility.yul\":10399:10402   */\n      dup8\n        /* \"#utility.yul\":10395:10414   */\n      add\n        /* \"#utility.yul\":10389:10415   */\n      mload\n        /* \"#utility.yul\":10380:10415   */\n      swap1\n      pop\n        /* \"#utility.yul\":10352:10429   */\n    tag_185:\n        /* \"#utility.yul\":10455:10522   */\n      tag_186\n        /* \"#utility.yul\":10515:10521   */\n      dup6\n        /* \"#utility.yul\":10508:10513   */\n      dup3\n        /* \"#utility.yul\":10455:10522   */\n      tag_68\n      jump\t// in\n    tag_186:\n        /* \"#utility.yul\":10449:10453   */\n      dup7\n        /* \"#utility.yul\":10442:10523   */\n      sstore\n        /* \"#utility.yul\":10311:10533   */\n      pop\n        /* \"#utility.yul\":9646:10533   */\n      jump(tag_183)\n        /* \"#utility.yul\":9676:10294   */\n    tag_184:\n        /* \"#utility.yul\":9728:9732   */\n      0x1f\n        /* \"#utility.yul\":9724:9733   */\n      not\n        /* \"#utility.yul\":9716:9722   */\n      dup5\n        /* \"#utility.yul\":9712:9734   */\n      and\n        /* \"#utility.yul\":9762:9799   */\n      tag_187\n        /* \"#utility.yul\":9794:9798   */\n      dup7\n        /* \"#utility.yul\":9762:9799   */\n      tag_54\n      jump\t// in\n    tag_187:\n        /* \"#utility.yul\":9821:9822   */\n      0x00\n        /* \"#utility.yul\":9835:10043   */\n    tag_188:\n        /* \"#utility.yul\":9849:9856   */\n      dup3\n        /* \"#utility.yul\":9846:9847   */\n      dup2\n        /* \"#utility.yul\":9843:9857   */\n      lt\n        /* \"#utility.yul\":9835:10043   */\n      iszero\n      tag_190\n      jumpi\n        /* \"#utility.yul\":9928:9937   */\n      dup5\n        /* \"#utility.yul\":9923:9926   */\n      dup10\n        /* \"#utility.yul\":9919:9938   */\n      add\n        /* \"#utility.yul\":9913:9939   */\n      mload\n        /* \"#utility.yul\":9905:9911   */\n      dup3\n        /* \"#utility.yul\":9898:9940   */\n      sstore\n        /* \"#utility.yul\":9979:9980   */\n      0x01\n        /* \"#utility.yul\":9971:9977   */\n      dup3\n        /* \"#utility.yul\":9967:9981   */\n      add\n        /* \"#utility.yul\":9957:9981   */\n      swap2\n      pop\n        /* \"#utility.yul\":10026:10028   */\n      0x20\n        /* \"#utility.yul\":10015:10024   */\n      dup6\n        /* \"#utility.yul\":10011:10029   */\n      add\n        /* \"#utility.yul\":9998:10029   */\n      swap5\n      pop\n        /* \"#utility.yul\":9872:9876   */\n      0x20\n        /* \"#utility.yul\":9869:9870   */\n      dup2\n        /* \"#utility.yul\":9865:9877   */\n      add\n        /* \"#utility.yul\":9860:9877   */\n      swap1\n      pop\n        /* \"#utility.yul\":9835:10043   */\n      jump(tag_188)\n    tag_190:\n        /* \"#utility.yul\":10071:10077   */\n      dup7\n        /* \"#utility.yul\":10062:10069   */\n      dup4\n        /* \"#utility.yul\":10059:10078   */\n      lt\n        /* \"#utility.yul\":10056:10235   */\n      iszero\n      tag_191\n      jumpi\n        /* \"#utility.yul\":10129:10138   */\n      dup5\n        /* \"#utility.yul\":10124:10127   */\n      dup10\n        /* \"#utility.yul\":10120:10139   */\n      add\n        /* \"#utility.yul\":10114:10140   */\n      mload\n        /* \"#utility.yul\":10172:10220   */\n      tag_192\n        /* \"#utility.yul\":10214:10218   */\n      0x1f\n        /* \"#utility.yul\":10206:10212   */\n      dup10\n        /* \"#utility.yul\":10202:10219   */\n      and\n        /* \"#utility.yul\":10191:10200   */\n      dup3\n        /* \"#utility.yul\":10172:10220   */\n      tag_67\n      jump\t// in\n    tag_192:\n        /* \"#utility.yul\":10164:10170   */\n      dup4\n        /* \"#utility.yul\":10157:10221   */\n      sstore\n        /* \"#utility.yul\":10079:10235   */\n      pop\n        /* \"#utility.yul\":10056:10235   */\n    tag_191:\n        /* \"#utility.yul\":10281:10282   */\n      0x01\n        /* \"#utility.yul\":10277:10278   */\n      0x02\n        /* \"#utility.yul\":10269:10275   */\n      dup9\n        /* \"#utility.yul\":10265:10279   */\n      mul\n        /* \"#utility.yul\":10261:10283   */\n      add\n        /* \"#utility.yul\":10255:10259   */\n      dup9\n        /* \"#utility.yul\":10248:10284   */\n      sstore\n        /* \"#utility.yul\":9683:10294   */\n      pop\n      pop\n      pop\n        /* \"#utility.yul\":9646:10533   */\n    tag_183:\n      pop\n        /* \"#utility.yul\":9236:10539   */\n      pop\n      pop\n      pop\n        /* \"#utility.yul\":9144:10539   */\n      pop\n      pop\n      jump\t// out\n\n    auxdata: 0xa264697066735822122070abaddd84f55146e97e7aee7f76fef14baf785e641b825d2cbd81291663757864736f6c63430008120033\n}\n",
				"bytecode": {
					"linkReferences": {},
					"object": "608060405234801561001057600080fd5b5061078d806100206000396000f3fe6080604052600436106100345760003560e01c80630c55699c1461003957806324ccab8f14610064578063e21f37ce14610095575b600080fd5b34801561004557600080fd5b5061004e6100c0565b60405161005b9190610197565b60405180910390f35b61007e60048036038101906100799190610338565b6100c6565b60405161008c9291906103af565b60405180910390f35b3480156100a157600080fd5b506100aa6100f0565b6040516100b79190610457565b60405180910390f35b60015481565b60008083600090816100d89190610685565b508260018190555060016103e7915091509250929050565b600080546100fd906104a8565b80601f0160208091040260200160405190810160405280929190818152602001828054610129906104a8565b80156101765780601f1061014b57610100808354040283529160200191610176565b820191906000526020600020905b81548152906001019060200180831161015957829003601f168201915b505050505081565b6000819050919050565b6101918161017e565b82525050565b60006020820190506101ac6000830184610188565b92915050565b6000604051905090565b600080fd5b600080fd5b600080fd5b600080fd5b6000601f19601f8301169050919050565b7f4e487b7100000000000000000000000000000000000000000000000000000000600052604160045260246000fd5b610219826101d0565b810181811067ffffffffffffffff82111715610238576102376101e1565b5b80604052505050565b600061024b6101b2565b90506102578282610210565b919050565b600067ffffffffffffffff821115610277576102766101e1565b5b610280826101d0565b9050602081019050919050565b82818337600083830152505050565b60006102af6102aa8461025c565b610241565b9050828152602081018484840111156102cb576102ca6101cb565b5b6102d684828561028d565b509392505050565b600082601f8301126102f3576102f26101c6565b5b813561030384826020860161029c565b91505092915050565b6103158161017e565b811461032057600080fd5b50565b6000813590506103328161030c565b92915050565b6000806040838503121561034f5761034e6101bc565b5b600083013567ffffffffffffffff81111561036d5761036c6101c1565b5b610379858286016102de565b925050602061038a85828601610323565b9150509250929050565b60008115159050919050565b6103a981610394565b82525050565b60006040820190506103c460008301856103a0565b6103d16020830184610188565b9392505050565b600081519050919050565b600082825260208201905092915050565b60005b838110156104125780820151818401526020810190506103f7565b60008484015250505050565b6000610429826103d8565b61043381856103e3565b93506104438185602086016103f4565b61044c816101d0565b840191505092915050565b60006020820190508181036000830152610471818461041e565b905092915050565b7f4e487b7100000000000000000000000000000000000000000000000000000000600052602260045260246000fd5b600060028204905060018216806104c057607f821691505b6020821081036104d3576104d2610479565b5b50919050565b60008190508160005260206000209050919050565b60006020601f8301049050919050565b600082821b905092915050565b60006008830261053b7fffffffffffffffffffffffffffffffffffffffffffffffffffffffffffffffff826104fe565b61054586836104fe565b95508019841693508086168417925050509392505050565b6000819050919050565b600061058261057d6105788461017e565b61055d565b61017e565b9050919050565b6000819050919050565b61059c83610567565b6105b06105a882610589565b84845461050b565b825550505050565b600090565b6105c56105b8565b6105d0818484610593565b505050565b5b818110156105f4576105e96000826105bd565b6001810190506105d6565b5050565b601f8211156106395761060a816104d9565b610613846104ee565b81016020851015610622578190505b61063661062e856104ee565b8301826105d5565b50505b505050565b600082821c905092915050565b600061065c6000198460080261063e565b1980831691505092915050565b6000610675838361064b565b9150826002028217905092915050565b61068e826103d8565b67ffffffffffffffff8111156106a7576106a66101e1565b5b6106b182546104a8565b6106bc8282856105f8565b600060209050601f8311600181146106ef57600084156106dd578287015190505b6106e78582610669565b86555061074f565b601f1984166106fd866104d9565b60005b8281101561072557848901518255600182019150602085019450602081019050610700565b86831015610742578489015161073e601f89168261064b565b8355505b6001600288020188555050505b50505050505056fea264697066735822122070abaddd84f55146e97e7aee7f76fef14baf785e641b825d2cbd81291663757864736f6c63430008120033",
					"opcodes": "PUSH1 0x80 PUSH1 0x40 MSTORE CALLVALUE DUP1 ISZERO PUSH2 0x10 JUMPI PUSH1 0x0 DUP1 REVERT JUMPDEST POP PUSH2 0x78D DUP1 PUSH2 0x20 PUSH1 0x0 CODECOPY PUSH1 0x0 RETURN INVALID PUSH1 0x80 PUSH1 0x40 MSTORE PUSH1 0x4 CALLDATASIZE LT PUSH2 0x34 JUMPI PUSH1 0x0 CALLDATALOAD PUSH1 0xE0 SHR DUP1 PUSH4 0xC55699C EQ PUSH2 0x39 JUMPI DUP1 PUSH4 0x24CCAB8F EQ PUSH2 0x64 JUMPI DUP1 PUSH4 0xE21F37CE EQ PUSH2 0x95 JUMPI JUMPDEST PUSH1 0x0 DUP1 REVERT JUMPDEST CALLVALUE DUP1 ISZERO PUSH2 0x45 JUMPI PUSH1 0x0 DUP1 REVERT JUMPDEST POP PUSH2 0x4E PUSH2 0xC0 JUMP JUMPDEST PUSH1 0x40 MLOAD PUSH2 0x5B SWAP2 SWAP1 PUSH2 0x197 JUMP JUMPDEST PUSH1 0x40 MLOAD DUP1 SWAP2 SUB SWAP1 RETURN JUMPDEST PUSH2 0x7E PUSH1 0x4 DUP1 CALLDATASIZE SUB DUP2 ADD SWAP1 PUSH2 0x79 SWAP2 SWAP1 PUSH2 0x338 JUMP JUMPDEST PUSH2 0xC6 JUMP JUMPDEST PUSH1 0x40 MLOAD PUSH2 0x8C SWAP3 SWAP2 SWAP1 PUSH2 0x3AF JUMP JUMPDEST PUSH1 0x40 MLOAD DUP1 SWAP2 SUB SWAP1 RETURN JUMPDEST CALLVALUE DUP1 ISZERO PUSH2 0xA1 JUMPI PUSH1 0x0 DUP1 REVERT JUMPDEST POP PUSH2 0xAA PUSH2 0xF0 JUMP JUMPDEST PUSH1 0x40 MLOAD PUSH2 0xB7 SWAP2 SWAP1 PUSH2 0x457 JUMP JUMPDEST PUSH1 0x40 MLOAD DUP1 SWAP2 SUB SWAP1 RETURN JUMPDEST PUSH1 0x1 SLOAD DUP2 JUMP JUMPDEST PUSH1 0x0 DUP1 DUP4 PUSH1 0x0 SWAP1 DUP2 PUSH2 0xD8 SWAP2 SWAP1 PUSH2 0x685 JUMP JUMPDEST POP DUP3 PUSH1 0x1 DUP2 SWAP1 SSTORE POP PUSH1 0x1 PUSH2 0x3E7 SWAP2 POP SWAP2 POP SWAP3 POP SWAP3 SWAP1 POP JUMP JUMPDEST PUSH1 0x0 DUP1 SLOAD PUSH2 0xFD SWAP1 PUSH2 0x4A8 JUMP JUMPDEST DUP1 PUSH1 0x1F ADD PUSH1 0x20 DUP1 SWAP2 DIV MUL PUSH1 0x20 ADD PUSH1 0x40 MLOAD SWAP1 DUP2 ADD PUSH1 0x40 MSTORE DUP1 SWAP3 SWAP2 SWAP1 DUP2 DUP2 MSTORE PUSH1 0x20 ADD DUP3 DUP1 SLOAD PUSH2 0x129 SWAP1 PUSH2 0x4A8 JUMP JUMPDEST DUP1 ISZERO PUSH2 0x176 JUMPI DUP1 PUSH1 0x1F LT PUSH2 0x14B JUMPI PUSH2 0x100 DUP1 DUP4 SLOAD DIV MUL DUP4 MSTORE SWAP2 PUSH1 0x20 ADD SWAP2 PUSH2 0x176 JUMP JUMPDEST DUP3 ADD SWAP2 SWAP1 PUSH1 0x0 MSTORE PUSH1 0x20 PUSH1 0x0 KECCAK256 SWAP1 JUMPDEST DUP2 SLOAD DUP2 MSTORE SWAP1 PUSH1 0x1 ADD SWAP1 PUSH1 0x20 ADD DUP1 DUP4 GT PUSH2 0x159 JUMPI DUP3 SWAP1 SUB PUSH1 0x1F AND DUP3 ADD SWAP2 JUMPDEST POP POP POP POP POP DUP2 JUMP JUMPDEST PUSH1 0x0 DUP2 SWAP1 POP SWAP2 SWAP1 POP JUMP JUMPDEST PUSH2 0x191 DUP2 PUSH2 0x17E JUMP JUMPDEST DUP3 MSTORE POP POP JUMP JUMPDEST PUSH1 0x0 PUSH1 0x20 DUP3 ADD SWAP1 POP PUSH2 0x1AC PUSH1 0x0 DUP4 ADD DUP5 PUSH2 0x188 JUMP JUMPDEST SWAP3 SWAP2 POP POP JUMP JUMPDEST PUSH1 0x0 PUSH1 0x40 MLOAD SWAP1 POP SWAP1 JUMP JUMPDEST PUSH1 0x0 DUP1 REVERT JUMPDEST PUSH1 0x0 DUP1 REVERT JUMPDEST PUSH1 0x0 DUP1 REVERT JUMPDEST PUSH1 0x0 DUP1 REVERT JUMPDEST PUSH1 0x0 PUSH1 0x1F NOT PUSH1 0x1F DUP4 ADD AND SWAP1 POP SWAP2 SWAP1 POP JUMP JUMPDEST PUSH32 0x4E487B7100000000000000000000000000000000000000000000000000000000 PUSH1 0x0 MSTORE PUSH1 0x41 PUSH1 0x4 MSTORE PUSH1 0x24 PUSH1 0x0 REVERT JUMPDEST PUSH2 0x219 DUP3 PUSH2 0x1D0 JUMP JUMPDEST DUP2 ADD DUP2 DUP2 LT PUSH8 0xFFFFFFFFFFFFFFFF DUP3 GT OR ISZERO PUSH2 0x238 JUMPI PUSH2 0x237 PUSH2 0x1E1 JUMP JUMPDEST JUMPDEST DUP1 PUSH1 0x40 MSTORE POP POP POP JUMP JUMPDEST PUSH1 0x0 PUSH2 0x24B PUSH2 0x1B2 JUMP JUMPDEST SWAP1 POP PUSH2 0x257 DUP3 DUP3 PUSH2 0x210 JUMP JUMPDEST SWAP2 SWAP1 POP JUMP JUMPDEST PUSH1 0x0 PUSH8 0xFFFFFFFFFFFFFFFF DUP3 GT ISZERO PUSH2 0x277 JUMPI PUSH2 0x276 PUSH2 0x1E1 JUMP JUMPDEST JUMPDEST PUSH2 0x280 DUP3 PUSH2 0x1D0 JUMP JUMPDEST SWAP1 POP PUSH1 0x20 DUP2 ADD SWAP1 POP SWAP2 SWAP1 POP JUMP JUMPDEST DUP3 DUP2 DUP4 CALLDATACOPY PUSH1 0x0 DUP4 DUP4 ADD MSTORE POP POP POP JUMP JUMPDEST PUSH1 0x0 PUSH2 0x2AF PUSH2 0x2AA DUP5 PUSH2 0x25C JUMP JUMPDEST PUSH2 0x241 JUMP JUMPDEST SWAP1 POP DUP3 DUP2 MSTORE PUSH1 0x20 DUP2 ADD DUP5 DUP5 DUP5 ADD GT ISZERO PUSH2 0x2CB JUMPI PUSH2 0x2CA PUSH2 0x1CB JUMP JUMPDEST JUMPDEST PUSH2 0x2D6 DUP5 DUP3 DUP6 PUSH2 0x28D JUMP JUMPDEST POP SWAP4 SWAP3 POP POP POP JUMP JUMPDEST PUSH1 0x0 DUP3 PUSH1 0x1F DUP4 ADD SLT PUSH2 0x2F3 JUMPI PUSH2 0x2F2 PUSH2 0x1C6 JUMP JUMPDEST JUMPDEST DUP2 CALLDATALOAD PUSH2 0x303 DUP5 DUP3 PUSH1 0x20 DUP7 ADD PUSH2 0x29C JUMP JUMPDEST SWAP2 POP POP SWAP3 SWAP2 POP POP JUMP JUMPDEST PUSH2 0x315 DUP2 PUSH2 0x17E JUMP JUMPDEST DUP2 EQ PUSH2 0x320 JUMPI PUSH1 0x0 DUP1 REVERT JUMPDEST POP JUMP JUMPDEST PUSH1 0x0 DUP2 CALLDATALOAD SWAP1 POP PUSH2 0x332 DUP2 PUSH2 0x30C JUMP JUMPDEST SWAP3 SWAP2 POP POP JUMP JUMPDEST PUSH1 0x0 DUP1 PUSH1 0x40 DUP4 DUP6 SUB SLT ISZERO PUSH2 0x34F JUMPI PUSH2 0x34E PUSH2 0x1BC JUMP JUMPDEST JUMPDEST PUSH1 0x0 DUP4 ADD CALLDATALOAD PUSH8 0xFFFFFFFFFFFFFFFF DUP2 GT ISZERO PUSH2 0x36D JUMPI PUSH2 0x36C PUSH2 0x1C1 JUMP JUMPDEST JUMPDEST PUSH2 0x379 DUP6 DUP3 DUP7 ADD PUSH2 0x2DE JUMP JUMPDEST SWAP3 POP POP PUSH1 0x20 PUSH2 0x38A DUP6 DUP3 DUP7 ADD PUSH2 0x323 JUMP JUMPDEST SWAP2 POP POP SWAP3 POP SWAP3 SWAP1 POP JUMP JUMPDEST PUSH1 0x0 DUP2 ISZERO ISZERO SWAP1 POP SWAP2 SWAP1 POP JUMP JUMPDEST PUSH2 0x3A9 DUP2 PUSH2 0x394 JUMP JUMPDEST DUP3 MSTORE POP POP JUMP JUMPDEST PUSH1 0x0 PUSH1 0x40 DUP3 ADD SWAP1 POP PUSH2 0x3C4 PUSH1 0x0 DUP4 ADD DUP6 PUSH2 0x3A0 JUMP JUMPDEST PUSH2 0x3D1 PUSH1 0x20 DUP4 ADD DUP5 PUSH2 0x188 JUMP JUMPDEST SWAP4 SWAP3 POP POP POP JUMP JUMPDEST PUSH1 0x0 DUP2 MLOAD SWAP1 POP SWAP2 SWAP1 POP JUMP JUMPDEST PUSH1 0x0 DUP3 DUP3 MSTORE PUSH1 0x20 DUP3 ADD SWAP1 POP SWAP3 SWAP2 POP POP JUMP JUMPDEST PUSH1 0x0 JUMPDEST DUP4 DUP2 LT ISZERO PUSH2 0x412 JUMPI DUP1 DUP3 ADD MLOAD DUP2 DUP5 ADD MSTORE PUSH1 0x20 DUP2 ADD SWAP1 POP PUSH2 0x3F7 JUMP JUMPDEST PUSH1 0x0 DUP5 DUP5 ADD MSTORE POP POP POP POP JUMP JUMPDEST PUSH1 0x0 PUSH2 0x429 DUP3 PUSH2 0x3D8 JUMP JUMPDEST PUSH2 0x433 DUP2 DUP6 PUSH2 0x3E3 JUMP JUMPDEST SWAP4 POP PUSH2 0x443 DUP2 DUP6 PUSH1 0x20 DUP7 ADD PUSH2 0x3F4 JUMP JUMPDEST PUSH2 0x44C DUP2 PUSH2 0x1D0 JUMP JUMPDEST DUP5 ADD SWAP2 POP POP SWAP3 SWAP2 POP POP JUMP JUMPDEST PUSH1 0x0 PUSH1 0x20 DUP3 ADD SWAP1 POP DUP2 DUP2 SUB PUSH1 0x0 DUP4 ADD MSTORE PUSH2 0x471 DUP2 DUP5 PUSH2 0x41E JUMP JUMPDEST SWAP1 POP SWAP3 SWAP2 POP POP JUMP JUMPDEST PUSH32 0x4E487B7100000000000000000000000000000000000000000000000000000000 PUSH1 0x0 MSTORE PUSH1 0x22 PUSH1 0x4 MSTORE PUSH1 0x24 PUSH1 0x0 REVERT JUMPDEST PUSH1 0x0 PUSH1 0x2 DUP3 DIV SWAP1 POP PUSH1 0x1 DUP3 AND DUP1 PUSH2 0x4C0 JUMPI PUSH1 0x7F DUP3 AND SWAP2 POP JUMPDEST PUSH1 0x20 DUP3 LT DUP2 SUB PUSH2 0x4D3 JUMPI PUSH2 0x4D2 PUSH2 0x479 JUMP JUMPDEST JUMPDEST POP SWAP2 SWAP1 POP JUMP JUMPDEST PUSH1 0x0 DUP2 SWAP1 POP DUP2 PUSH1 0x0 MSTORE PUSH1 0x20 PUSH1 0x0 KECCAK256 SWAP1 POP SWAP2 SWAP1 POP JUMP JUMPDEST PUSH1 0x0 PUSH1 0x20 PUSH1 0x1F DUP4 ADD DIV SWAP1 POP SWAP2 SWAP1 POP JUMP JUMPDEST PUSH1 0x0 DUP3 DUP3 SHL SWAP1 POP SWAP3 SWAP2 POP POP JUMP JUMPDEST PUSH1 0x0 PUSH1 0x8 DUP4 MUL PUSH2 0x53B PUSH32 0xFFFFFFFFFFFFFFFFFFFFFFFFFFFFFFFFFFFFFFFFFFFFFFFFFFFFFFFFFFFFFFFF DUP3 PUSH2 0x4FE JUMP JUMPDEST PUSH2 0x545 DUP7 DUP4 PUSH2 0x4FE JUMP JUMPDEST SWAP6 POP DUP1 NOT DUP5 AND SWAP4 POP DUP1 DUP7 AND DUP5 OR SWAP3 POP POP POP SWAP4 SWAP3 POP POP POP JUMP JUMPDEST PUSH1 0x0 DUP2 SWAP1 POP SWAP2 SWAP1 POP JUMP JUMPDEST PUSH1 0x0 PUSH2 0x582 PUSH2 0x57D PUSH2 0x578 DUP5 PUSH2 0x17E JUMP JUMPDEST PUSH2 0x55D JUMP JUMPDEST PUSH2 0x17E JUMP JUMPDEST SWAP1 POP SWAP2 SWAP1 POP JUMP JUMPDEST PUSH1 0x0 DUP2 SWAP1 POP SWAP2 SWAP1 POP JUMP JUMPDEST PUSH2 0x59C DUP4 PUSH2 0x567 JUMP JUMPDEST PUSH2 0x5B0 PUSH2 0x5A8 DUP3 PUSH2 0x589 JUMP JUMPDEST DUP5 DUP5 SLOAD PUSH2 0x50B JUMP JUMPDEST DUP3 SSTORE POP POP POP POP JUMP JUMPDEST PUSH1 0x0 SWAP1 JUMP JUMPDEST PUSH2 0x5C5 PUSH2 0x5B8 JUMP JUMPDEST PUSH2 0x5D0 DUP2 DUP5 DUP5 PUSH2 0x593 JUMP JUMPDEST POP POP POP JUMP JUMPDEST JUMPDEST DUP2 DUP2 LT ISZERO PUSH2 0x5F4 JUMPI PUSH2 0x5E9 PUSH1 0x0 DUP3 PUSH2 0x5BD JUMP JUMPDEST PUSH1 0x1 DUP2 ADD SWAP1 POP PUSH2 0x5D6 JUMP JUMPDEST POP POP JUMP JUMPDEST PUSH1 0x1F DUP3 GT ISZERO PUSH2 0x639 JUMPI PUSH2 0x60A DUP2 PUSH2 0x4D9 JUMP JUMPDEST PUSH2 0x613 DUP5 PUSH2 0x4EE JUMP JUMPDEST DUP2 ADD PUSH1 0x20 DUP6 LT ISZERO PUSH2 0x622 JUMPI DUP2 SWAP1 POP JUMPDEST PUSH2 0x636 PUSH2 0x62E DUP6 PUSH2 0x4EE JUMP JUMPDEST DUP4 ADD DUP3 PUSH2 0x5D5 JUMP JUMPDEST POP POP JUMPDEST POP POP POP JUMP JUMPDEST PUSH1 0x0 DUP3 DUP3 SHR SWAP1 POP SWAP3 SWAP2 POP POP JUMP JUMPDEST PUSH1 0x0 PUSH2 0x65C PUSH1 0x0 NOT DUP5 PUSH1 0x8 MUL PUSH2 0x63E JUMP JUMPDEST NOT DUP1 DUP4 AND SWAP2 POP POP SWAP3 SWAP2 POP POP JUMP JUMPDEST PUSH1 0x0 PUSH2 0x675 DUP4 DUP4 PUSH2 0x64B JUMP JUMPDEST SWAP2 POP DUP3 PUSH1 0x2 MUL DUP3 OR SWAP1 POP SWAP3 SWAP2 POP POP JUMP JUMPDEST PUSH2 0x68E DUP3 PUSH2 0x3D8 JUMP JUMPDEST PUSH8 0xFFFFFFFFFFFFFFFF DUP2 GT ISZERO PUSH2 0x6A7 JUMPI PUSH2 0x6A6 PUSH2 0x1E1 JUMP JUMPDEST JUMPDEST PUSH2 0x6B1 DUP3 SLOAD PUSH2 0x4A8 JUMP JUMPDEST PUSH2 0x6BC DUP3 DUP3 DUP6 PUSH2 0x5F8 JUMP JUMPDEST PUSH1 0x0 PUSH1 0x20 SWAP1 POP PUSH1 0x1F DUP4 GT PUSH1 0x1 DUP2 EQ PUSH2 0x6EF JUMPI PUSH1 0x0 DUP5 ISZERO PUSH2 0x6DD JUMPI DUP3 DUP8 ADD MLOAD SWAP1 POP JUMPDEST PUSH2 0x6E7 DUP6 DUP3 PUSH2 0x669 JUMP JUMPDEST DUP7 SSTORE POP PUSH2 0x74F JUMP JUMPDEST PUSH1 0x1F NOT DUP5 AND PUSH2 0x6FD DUP7 PUSH2 0x4D9 JUMP JUMPDEST PUSH1 0x0 JUMPDEST DUP3 DUP2 LT ISZERO PUSH2 0x725 JUMPI DUP5 DUP10 ADD MLOAD DUP3 SSTORE PUSH1 0x1 DUP3 ADD SWAP2 POP PUSH1 0x20 DUP6 ADD SWAP5 POP PUSH1 0x20 DUP2 ADD SWAP1 POP PUSH2 0x700 JUMP JUMPDEST DUP7 DUP4 LT ISZERO PUSH2 0x742 JUMPI DUP5 DUP10 ADD MLOAD PUSH2 0x73E PUSH1 0x1F DUP10 AND DUP3 PUSH2 0x64B JUMP JUMPDEST DUP4 SSTORE POP JUMPDEST PUSH1 0x1 PUSH1 0x2 DUP9 MUL ADD DUP9 SSTORE POP POP POP JUMPDEST POP POP POP POP POP POP JUMP INVALID LOG2 PUSH5 0x6970667358 0x22 SLT KECCAK256 PUSH17 0xABADDD84F55146E97E7AEE7F76FEF14BAF PUSH25 0x5E641B825D2CBD81291663757864736F6C6343000812003300 "
				},
				"gasEstimates": {
					"creation": {
						"codeDepositCost": "386600",
						"executionCost": "424",
						"totalCost": "387024"
					},
					"external": {
						"foo(string,uint256)": "infinite",
						"message()": "infinite",
						"x()": "2407"
					}
				},
				"methodIdentifiers": {
					"foo(string,uint256)": "24ccab8f",
					"message()": "e21f37ce",
					"x()": "0c55699c"
				}
			},
			"storageLayout": {
				"storage": [
					{
						"astId": 3,
						"contract": "Call.sol:TestCall",
						"label": "message",
						"offset": 0,
						"slot": "0",
						"type": "t_string_storage"
					},
					{
						"astId": 5,
						"contract": "Call.sol:TestCall",
						"label": "x",
						"offset": 0,
						"slot": "1",
						"type": "t_uint256"
					}
				],
				"types": {
					"t_string_storage": {
						"encoding": "bytes",
						"label": "string",
						"numberOfBytes": "32"
					},
					"t_uint256": {
						"encoding": "inplace",
						"label": "uint256",
						"numberOfBytes": "32"
					}
				}
			},
			"userdoc": {
				"kind": "user",
				"methods": {},
				"version": 1
			}
		}
	}
}