{
	"Call.sol": {
		"Call": {
			"abi": [
				{
					"inputs": [
						{
							"internalType": "address",
							"name": "_test",
							"type": "address"
						}
					],
					"name": "callDoesNotExist",
					"outputs": [],
					"stateMutability": "nonpayable",
					"type": "function"
				},
				{
					"inputs": [
						{
							"internalType": "address",
							"name": "_test",
							"type": "address"
						}
					],
					"name": "callfoo",
					"outputs": [],
					"stateMutability": "payable",
					"type": "function"
				},
				{
					"inputs": [],
					"name": "data",
					"outputs": [
						{
							"internalType": "bytes",
							"name": "",
							"type": "bytes"
						}
					],
					"stateMutability": "view",
					"type": "function"
				}
			],
			"devdoc": {
				"kind": "dev",
				"methods": {},
				"version": 1
			},
			"evm": {
				"assembly": "    /* \"Call.sol\":479:999  contract Call {... */\n  mstore(0x40, 0x80)\n  callvalue\n  dup1\n  iszero\n  tag_1\n  jumpi\n  0x00\n  dup1\n  revert\ntag_1:\n  pop\n  dataSize(sub_0)\n  dup1\n  dataOffset(sub_0)\n  0x00\n  codecopy\n  0x00\n  return\nstop\n\nsub_0: assembly {\n        /* \"Call.sol\":479:999  contract Call {... */\n      mstore(0x40, 0x80)\n      jumpi(tag_1, lt(calldatasize, 0x04))\n      shr(0xe0, calldataload(0x00))\n      dup1\n      0x73d4a13a\n      eq\n      tag_2\n      jumpi\n      dup1\n      0xb0feeff6\n      eq\n      tag_3\n      jumpi\n      dup1\n      0xb9009d44\n      eq\n      tag_4\n      jumpi\n    tag_1:\n      0x00\n      dup1\n      revert\n        /* \"Call.sol\":500:517  bytes public data */\n    tag_2:\n      callvalue\n      dup1\n      iszero\n      tag_5\n      jumpi\n      0x00\n      dup1\n      revert\n    tag_5:\n      pop\n      tag_6\n      tag_7\n      jump\t// in\n    tag_6:\n      mload(0x40)\n      tag_8\n      swap2\n      swap1\n      tag_9\n      jump\t// in\n    tag_8:\n      mload(0x40)\n      dup1\n      swap2\n      sub\n      swap1\n      return\n        /* \"Call.sol\":806:996  function callDoesNotExist(address _test) external {... */\n    tag_3:\n      callvalue\n      dup1\n      iszero\n      tag_10\n      jumpi\n      0x00\n      dup1\n      revert\n    tag_10:\n      pop\n      tag_11\n      0x04\n      dup1\n      calldatasize\n      sub\n      dup2\n      add\n      swap1\n      tag_12\n      swap2\n      swap1\n      tag_13\n      jump\t// in\n    tag_12:\n      tag_14\n      jump\t// in\n    tag_11:\n      stop\n        /* \"Call.sol\":526:797  function callfoo(address _test) external payable {... */\n    tag_4:\n      tag_15\n      0x04\n      dup1\n      calldatasize\n      sub\n      dup2\n      add\n      swap1\n      tag_16\n      swap2\n      swap1\n      tag_13\n      jump\t// in\n    tag_16:\n      tag_17\n      jump\t// in\n    tag_15:\n      stop\n        /* \"Call.sol\":500:517  bytes public data */\n    tag_7:\n      0x00\n      dup1\n      sload\n      tag_18\n      swap1\n      tag_19\n      jump\t// in\n    tag_18:\n      dup1\n      0x1f\n      add\n      0x20\n      dup1\n      swap2\n      div\n      mul\n      0x20\n      add\n      mload(0x40)\n      swap1\n      dup2\n      add\n      0x40\n      mstore\n      dup1\n      swap3\n      swap2\n      swap1\n      dup2\n      dup2\n      mstore\n      0x20\n      add\n      dup3\n      dup1\n      sload\n      tag_20\n      swap1\n      tag_19\n      jump\t// in\n    tag_20:\n      dup1\n      iszero\n      tag_21\n      jumpi\n      dup1\n      0x1f\n      lt\n      tag_22\n      jumpi\n      0x0100\n      dup1\n      dup4\n      sload\n      div\n      mul\n      dup4\n      mstore\n      swap2\n      0x20\n      add\n      swap2\n      jump(tag_21)\n    tag_22:\n      dup3\n      add\n      swap2\n      swap1\n      0x00\n      mstore\n      keccak256(0x00, 0x20)\n      swap1\n    tag_23:\n      dup2\n      sload\n      dup2\n      mstore\n      swap1\n      0x01\n      add\n      swap1\n      0x20\n      add\n      dup1\n      dup4\n      gt\n      tag_23\n      jumpi\n      dup3\n      swap1\n      sub\n      0x1f\n      and\n      dup3\n      add\n      swap2\n    tag_21:\n      pop\n      pop\n      pop\n      pop\n      pop\n      dup2\n      jump\t// out\n        /* \"Call.sol\":806:996  function callDoesNotExist(address _test) external {... */\n    tag_14:\n        /* \"Call.sol\":867:879  bool success */\n      0x00\n        /* \"Call.sol\":886:891  _test */\n      dup2\n        /* \"Call.sol\":886:896  _test.call */\n      0xffffffffffffffffffffffffffffffffffffffff\n      and\n        /* \"Call.sol\":897:938  abi.encodeWithSignature(\"DoesNotExist()\") */\n      add(0x24, mload(0x40))\n      mload(0x40)\n      0x20\n      dup2\n      dup4\n      sub\n      sub\n      dup2\n      mstore\n      swap1\n      0x40\n      mstore\n      and(not(0xffffffffffffffffffffffffffffffffffffffffffffffffffffffff), 0xb0ce759100000000000000000000000000000000000000000000000000000000)\n      0x20\n      dup3\n      add\n      dup1\n      mload\n      0xffffffffffffffffffffffffffffffffffffffffffffffffffffffff\n      dup4\n      dup2\n      dup4\n      and\n      or\n      dup4\n      mstore\n      pop\n      pop\n      pop\n      pop\n        /* \"Call.sol\":886:939  _test.call(abi.encodeWithSignature(\"DoesNotExist()\")) */\n      mload(0x40)\n      tag_25\n      swap2\n      swap1\n      tag_26\n      jump\t// in\n    tag_25:\n      0x00\n      mload(0x40)\n      dup1\n      dup4\n      sub\n      dup2\n      0x00\n      dup7\n      gas\n      call\n      swap2\n      pop\n      pop\n      returndatasize\n      dup1\n      0x00\n      dup2\n      eq\n      tag_29\n      jumpi\n      mload(0x40)\n      swap2\n      pop\n      and(add(returndatasize, 0x3f), not(0x1f))\n      dup3\n      add\n      0x40\n      mstore\n      returndatasize\n      dup3\n      mstore\n      returndatasize\n      0x00\n      0x20\n      dup5\n      add\n      returndatacopy\n      jump(tag_28)\n    tag_29:\n      0x60\n      swap2\n      pop\n    tag_28:\n      pop\n        /* \"Call.sol\":866:939  (bool success ,) =  _test.call(abi.encodeWithSignature(\"DoesNotExist()\")) */\n      pop\n      swap1\n      pop\n        /* \"Call.sol\":959:966  success */\n      dup1\n        /* \"Call.sol\":950:988  require (success , \"call does exists\") */\n      tag_30\n      jumpi\n      mload(0x40)\n      0x08c379a000000000000000000000000000000000000000000000000000000000\n      dup2\n      mstore\n      0x04\n      add\n      tag_31\n      swap1\n      tag_32\n      jump\t// in\n    tag_31:\n      mload(0x40)\n      dup1\n      swap2\n      sub\n      swap1\n      revert\n    tag_30:\n        /* \"Call.sol\":856:996  {... */\n      pop\n        /* \"Call.sol\":806:996  function callDoesNotExist(address _test) external {... */\n      pop\n      jump\t// out\n        /* \"Call.sol\":526:797  function callfoo(address _test) external payable {... */\n    tag_17:\n        /* \"Call.sol\":587:599  bool success */\n      0x00\n        /* \"Call.sol\":602:620  bytes memory _data */\n      dup1\n        /* \"Call.sol\":624:629  _test */\n      dup3\n        /* \"Call.sol\":624:634  _test.call */\n      0xffffffffffffffffffffffffffffffffffffffff\n      and\n        /* \"Call.sol\":643:646  111 */\n      0x6f\n        /* \"Call.sol\":717:720  123 */\n      0x7b\n        /* \"Call.sol\":658:721  abi.encodeWithSignature(\"foo(string,uint256)\", \"call foo \",123) */\n      add(0x24, mload(0x40))\n      tag_34\n      swap2\n      swap1\n      tag_35\n      jump\t// in\n    tag_34:\n      mload(0x40)\n      0x20\n      dup2\n      dup4\n      sub\n      sub\n      dup2\n      mstore\n      swap1\n      0x40\n      mstore\n      and(not(0xffffffffffffffffffffffffffffffffffffffffffffffffffffffff), 0x24ccab8f00000000000000000000000000000000000000000000000000000000)\n      0x20\n      dup3\n      add\n      dup1\n      mload\n      0xffffffffffffffffffffffffffffffffffffffffffffffffffffffff\n      dup4\n      dup2\n      dup4\n      and\n      or\n      dup4\n      mstore\n      pop\n      pop\n      pop\n      pop\n        /* \"Call.sol\":624:722  _test.call{value : 111}... */\n      mload(0x40)\n      tag_36\n      swap2\n      swap1\n      tag_26\n      jump\t// in\n    tag_36:\n      0x00\n      mload(0x40)\n      dup1\n      dup4\n      sub\n      dup2\n      dup6\n      dup8\n      gas\n      call\n      swap3\n      pop\n      pop\n      pop\n      returndatasize\n      dup1\n      0x00\n      dup2\n      eq\n      tag_39\n      jumpi\n      mload(0x40)\n      swap2\n      pop\n      and(add(returndatasize, 0x3f), not(0x1f))\n      dup3\n      add\n      0x40\n      mstore\n      returndatasize\n      dup3\n      mstore\n      returndatasize\n      0x00\n      0x20\n      dup5\n      add\n      returndatacopy\n      jump(tag_38)\n    tag_39:\n      0x60\n      swap2\n      pop\n    tag_38:\n      pop\n        /* \"Call.sol\":586:722  (bool success , bytes memory _data) = _test.call{value : 111}... */\n      swap2\n      pop\n      swap2\n      pop\n        /* \"Call.sol\":742:749  success */\n      dup2\n        /* \"Call.sol\":733:766  require (success , \"call failed\") */\n      tag_40\n      jumpi\n      mload(0x40)\n      0x08c379a000000000000000000000000000000000000000000000000000000000\n      dup2\n      mstore\n      0x04\n      add\n      tag_41\n      swap1\n      tag_42\n      jump\t// in\n    tag_41:\n      mload(0x40)\n      dup1\n      swap2\n      sub\n      swap1\n      revert\n    tag_40:\n        /* \"Call.sol\":784:789  _data */\n      dup1\n        /* \"Call.sol\":777:781  data */\n      0x00\n        /* \"Call.sol\":777:789  data = _data */\n      swap1\n      dup2\n      tag_43\n      swap2\n      swap1\n      tag_44\n      jump\t// in\n    tag_43:\n      pop\n        /* \"Call.sol\":575:797  {... */\n      pop\n      pop\n        /* \"Call.sol\":526:797  function callfoo(address _test) external payable {... */\n      pop\n      jump\t// out\n        /* \"#utility.yul\":7:105   */\n    tag_45:\n        /* \"#utility.yul\":58:64   */\n      0x00\n        /* \"#utility.yul\":92:97   */\n      dup2\n        /* \"#utility.yul\":86:98   */\n      mload\n        /* \"#utility.yul\":76:98   */\n      swap1\n      pop\n        /* \"#utility.yul\":7:105   */\n      swap2\n      swap1\n      pop\n      jump\t// out\n        /* \"#utility.yul\":111:279   */\n    tag_46:\n        /* \"#utility.yul\":194:205   */\n      0x00\n        /* \"#utility.yul\":228:234   */\n      dup3\n        /* \"#utility.yul\":223:226   */\n      dup3\n        /* \"#utility.yul\":216:235   */\n      mstore\n        /* \"#utility.yul\":268:272   */\n      0x20\n        /* \"#utility.yul\":263:266   */\n      dup3\n        /* \"#utility.yul\":259:273   */\n      add\n        /* \"#utility.yul\":244:273   */\n      swap1\n      pop\n        /* \"#utility.yul\":111:279   */\n      swap3\n      swap2\n      pop\n      pop\n      jump\t// out\n        /* \"#utility.yul\":285:531   */\n    tag_47:\n        /* \"#utility.yul\":366:367   */\n      0x00\n        /* \"#utility.yul\":376:489   */\n    tag_92:\n        /* \"#utility.yul\":390:396   */\n      dup4\n        /* \"#utility.yul\":387:388   */\n      dup2\n        /* \"#utility.yul\":384:397   */\n      lt\n        /* \"#utility.yul\":376:489   */\n      iszero\n      tag_94\n      jumpi\n        /* \"#utility.yul\":475:476   */\n      dup1\n        /* \"#utility.yul\":470:473   */\n      dup3\n        /* \"#utility.yul\":466:477   */\n      add\n        /* \"#utility.yul\":460:478   */\n      mload\n        /* \"#utility.yul\":456:457   */\n      dup2\n        /* \"#utility.yul\":451:454   */\n      dup5\n        /* \"#utility.yul\":447:458   */\n      add\n        /* \"#utility.yul\":440:479   */\n      mstore\n        /* \"#utility.yul\":412:414   */\n      0x20\n        /* \"#utility.yul\":409:410   */\n      dup2\n        /* \"#utility.yul\":405:415   */\n      add\n        /* \"#utility.yul\":400:415   */\n      swap1\n      pop\n        /* \"#utility.yul\":376:489   */\n      jump(tag_92)\n    tag_94:\n        /* \"#utility.yul\":523:524   */\n      0x00\n        /* \"#utility.yul\":514:520   */\n      dup5\n        /* \"#utility.yul\":509:512   */\n      dup5\n        /* \"#utility.yul\":505:521   */\n      add\n        /* \"#utility.yul\":498:525   */\n      mstore\n        /* \"#utility.yul\":347:531   */\n      pop\n        /* \"#utility.yul\":285:531   */\n      pop\n      pop\n      pop\n      jump\t// out\n        /* \"#utility.yul\":537:639   */\n    tag_48:\n        /* \"#utility.yul\":578:584   */\n      0x00\n        /* \"#utility.yul\":629:631   */\n      0x1f\n        /* \"#utility.yul\":625:632   */\n      not\n        /* \"#utility.yul\":620:622   */\n      0x1f\n        /* \"#utility.yul\":613:618   */\n      dup4\n        /* \"#utility.yul\":609:623   */\n      add\n        /* \"#utility.yul\":605:633   */\n      and\n        /* \"#utility.yul\":595:633   */\n      swap1\n      pop\n        /* \"#utility.yul\":537:639   */\n      swap2\n      swap1\n      pop\n      jump\t// out\n        /* \"#utility.yul\":645:1018   */\n    tag_49:\n        /* \"#utility.yul\":731:734   */\n      0x00\n        /* \"#utility.yul\":759:797   */\n      tag_97\n        /* \"#utility.yul\":791:796   */\n      dup3\n        /* \"#utility.yul\":759:797   */\n      tag_45\n      jump\t// in\n    tag_97:\n        /* \"#utility.yul\":813:883   */\n      tag_98\n        /* \"#utility.yul\":876:882   */\n      dup2\n        /* \"#utility.yul\":871:874   */\n      dup6\n        /* \"#utility.yul\":813:883   */\n      tag_46\n      jump\t// in\n    tag_98:\n        /* \"#utility.yul\":806:883   */\n      swap4\n      pop\n        /* \"#utility.yul\":892:957   */\n      tag_99\n        /* \"#utility.yul\":950:956   */\n      dup2\n        /* \"#utility.yul\":945:948   */\n      dup6\n        /* \"#utility.yul\":938:942   */\n      0x20\n        /* \"#utility.yul\":931:936   */\n      dup7\n        /* \"#utility.yul\":927:943   */\n      add\n        /* \"#utility.yul\":892:957   */\n      tag_47\n      jump\t// in\n    tag_99:\n        /* \"#utility.yul\":982:1011   */\n      tag_100\n        /* \"#utility.yul\":1004:1010   */\n      dup2\n        /* \"#utility.yul\":982:1011   */\n      tag_48\n      jump\t// in\n    tag_100:\n        /* \"#utility.yul\":977:980   */\n      dup5\n        /* \"#utility.yul\":973:1012   */\n      add\n        /* \"#utility.yul\":966:1012   */\n      swap2\n      pop\n        /* \"#utility.yul\":735:1018   */\n      pop\n        /* \"#utility.yul\":645:1018   */\n      swap3\n      swap2\n      pop\n      pop\n      jump\t// out\n        /* \"#utility.yul\":1024:1333   */\n    tag_9:\n        /* \"#utility.yul\":1135:1139   */\n      0x00\n        /* \"#utility.yul\":1173:1175   */\n      0x20\n        /* \"#utility.yul\":1162:1171   */\n      dup3\n        /* \"#utility.yul\":1158:1176   */\n      add\n        /* \"#utility.yul\":1150:1176   */\n      swap1\n      pop\n        /* \"#utility.yul\":1222:1231   */\n      dup2\n        /* \"#utility.yul\":1216:1220   */\n      dup2\n        /* \"#utility.yul\":1212:1232   */\n      sub\n        /* \"#utility.yul\":1208:1209   */\n      0x00\n        /* \"#utility.yul\":1197:1206   */\n      dup4\n        /* \"#utility.yul\":1193:1210   */\n      add\n        /* \"#utility.yul\":1186:1233   */\n      mstore\n        /* \"#utility.yul\":1250:1326   */\n      tag_102\n        /* \"#utility.yul\":1321:1325   */\n      dup2\n        /* \"#utility.yul\":1312:1318   */\n      dup5\n        /* \"#utility.yul\":1250:1326   */\n      tag_49\n      jump\t// in\n    tag_102:\n        /* \"#utility.yul\":1242:1326   */\n      swap1\n      pop\n        /* \"#utility.yul\":1024:1333   */\n      swap3\n      swap2\n      pop\n      pop\n      jump\t// out\n        /* \"#utility.yul\":1420:1537   */\n    tag_51:\n        /* \"#utility.yul\":1529:1530   */\n      0x00\n        /* \"#utility.yul\":1526:1527   */\n      dup1\n        /* \"#utility.yul\":1519:1531   */\n      revert\n        /* \"#utility.yul\":1666:1792   */\n    tag_53:\n        /* \"#utility.yul\":1703:1710   */\n      0x00\n        /* \"#utility.yul\":1743:1785   */\n      0xffffffffffffffffffffffffffffffffffffffff\n        /* \"#utility.yul\":1736:1741   */\n      dup3\n        /* \"#utility.yul\":1732:1786   */\n      and\n        /* \"#utility.yul\":1721:1786   */\n      swap1\n      pop\n        /* \"#utility.yul\":1666:1792   */\n      swap2\n      swap1\n      pop\n      jump\t// out\n        /* \"#utility.yul\":1798:1894   */\n    tag_54:\n        /* \"#utility.yul\":1835:1842   */\n      0x00\n        /* \"#utility.yul\":1864:1888   */\n      tag_108\n        /* \"#utility.yul\":1882:1887   */\n      dup3\n        /* \"#utility.yul\":1864:1888   */\n      tag_53\n      jump\t// in\n    tag_108:\n        /* \"#utility.yul\":1853:1888   */\n      swap1\n      pop\n        /* \"#utility.yul\":1798:1894   */\n      swap2\n      swap1\n      pop\n      jump\t// out\n        /* \"#utility.yul\":1900:2022   */\n    tag_55:\n        /* \"#utility.yul\":1973:1997   */\n      tag_110\n        /* \"#utility.yul\":1991:1996   */\n      dup2\n        /* \"#utility.yul\":1973:1997   */\n      tag_54\n      jump\t// in\n    tag_110:\n        /* \"#utility.yul\":1966:1971   */\n      dup2\n        /* \"#utility.yul\":1963:1998   */\n      eq\n        /* \"#utility.yul\":1953:2016   */\n      tag_111\n      jumpi\n        /* \"#utility.yul\":2012:2013   */\n      0x00\n        /* \"#utility.yul\":2009:2010   */\n      dup1\n        /* \"#utility.yul\":2002:2014   */\n      revert\n        /* \"#utility.yul\":1953:2016   */\n    tag_111:\n        /* \"#utility.yul\":1900:2022   */\n      pop\n      jump\t// out\n        /* \"#utility.yul\":2028:2167   */\n    tag_56:\n        /* \"#utility.yul\":2074:2079   */\n      0x00\n        /* \"#utility.yul\":2112:2118   */\n      dup2\n        /* \"#utility.yul\":2099:2119   */\n      calldataload\n        /* \"#utility.yul\":2090:2119   */\n      swap1\n      pop\n        /* \"#utility.yul\":2128:2161   */\n      tag_113\n        /* \"#utility.yul\":2155:2160   */\n      dup2\n        /* \"#utility.yul\":2128:2161   */\n      tag_55\n      jump\t// in\n    tag_113:\n        /* \"#utility.yul\":2028:2167   */\n      swap3\n      swap2\n      pop\n      pop\n      jump\t// out\n        /* \"#utility.yul\":2173:2502   */\n    tag_13:\n        /* \"#utility.yul\":2232:2238   */\n      0x00\n        /* \"#utility.yul\":2281:2283   */\n      0x20\n        /* \"#utility.yul\":2269:2278   */\n      dup3\n        /* \"#utility.yul\":2260:2267   */\n      dup5\n        /* \"#utility.yul\":2256:2279   */\n      sub\n        /* \"#utility.yul\":2252:2284   */\n      slt\n        /* \"#utility.yul\":2249:2368   */\n      iszero\n      tag_115\n      jumpi\n        /* \"#utility.yul\":2287:2366   */\n      tag_116\n      tag_51\n      jump\t// in\n    tag_116:\n        /* \"#utility.yul\":2249:2368   */\n    tag_115:\n        /* \"#utility.yul\":2407:2408   */\n      0x00\n        /* \"#utility.yul\":2432:2485   */\n      tag_117\n        /* \"#utility.yul\":2477:2484   */\n      dup5\n        /* \"#utility.yul\":2468:2474   */\n      dup3\n        /* \"#utility.yul\":2457:2466   */\n      dup6\n        /* \"#utility.yul\":2453:2475   */\n      add\n        /* \"#utility.yul\":2432:2485   */\n      tag_56\n      jump\t// in\n    tag_117:\n        /* \"#utility.yul\":2422:2485   */\n      swap2\n      pop\n        /* \"#utility.yul\":2378:2495   */\n      pop\n        /* \"#utility.yul\":2173:2502   */\n      swap3\n      swap2\n      pop\n      pop\n      jump\t// out\n        /* \"#utility.yul\":2508:2688   */\n    tag_57:\n        /* \"#utility.yul\":2556:2633   */\n      0x4e487b7100000000000000000000000000000000000000000000000000000000\n        /* \"#utility.yul\":2553:2554   */\n      0x00\n        /* \"#utility.yul\":2546:2634   */\n      mstore\n        /* \"#utility.yul\":2653:2657   */\n      0x22\n        /* \"#utility.yul\":2650:2651   */\n      0x04\n        /* \"#utility.yul\":2643:2658   */\n      mstore\n        /* \"#utility.yul\":2677:2681   */\n      0x24\n        /* \"#utility.yul\":2674:2675   */\n      0x00\n        /* \"#utility.yul\":2667:2682   */\n      revert\n        /* \"#utility.yul\":2694:3014   */\n    tag_19:\n        /* \"#utility.yul\":2738:2744   */\n      0x00\n        /* \"#utility.yul\":2775:2776   */\n      0x02\n        /* \"#utility.yul\":2769:2773   */\n      dup3\n        /* \"#utility.yul\":2765:2777   */\n      div\n        /* \"#utility.yul\":2755:2777   */\n      swap1\n      pop\n        /* \"#utility.yul\":2822:2823   */\n      0x01\n        /* \"#utility.yul\":2816:2820   */\n      dup3\n        /* \"#utility.yul\":2812:2824   */\n      and\n        /* \"#utility.yul\":2843:2861   */\n      dup1\n        /* \"#utility.yul\":2833:2914   */\n      tag_120\n      jumpi\n        /* \"#utility.yul\":2899:2903   */\n      0x7f\n        /* \"#utility.yul\":2891:2897   */\n      dup3\n        /* \"#utility.yul\":2887:2904   */\n      and\n        /* \"#utility.yul\":2877:2904   */\n      swap2\n      pop\n        /* \"#utility.yul\":2833:2914   */\n    tag_120:\n        /* \"#utility.yul\":2961:2963   */\n      0x20\n        /* \"#utility.yul\":2953:2959   */\n      dup3\n        /* \"#utility.yul\":2950:2964   */\n      lt\n        /* \"#utility.yul\":2930:2948   */\n      dup2\n        /* \"#utility.yul\":2927:2965   */\n      sub\n        /* \"#utility.yul\":2924:3008   */\n      tag_121\n      jumpi\n        /* \"#utility.yul\":2980:2998   */\n      tag_122\n      tag_57\n      jump\t// in\n    tag_122:\n        /* \"#utility.yul\":2924:3008   */\n    tag_121:\n        /* \"#utility.yul\":2745:3014   */\n      pop\n        /* \"#utility.yul\":2694:3014   */\n      swap2\n      swap1\n      pop\n      jump\t// out\n        /* \"#utility.yul\":3020:3167   */\n    tag_58:\n        /* \"#utility.yul\":3121:3132   */\n      0x00\n        /* \"#utility.yul\":3158:3161   */\n      dup2\n        /* \"#utility.yul\":3143:3161   */\n      swap1\n      pop\n        /* \"#utility.yul\":3020:3167   */\n      swap3\n      swap2\n      pop\n      pop\n      jump\t// out\n        /* \"#utility.yul\":3173:3559   */\n    tag_59:\n        /* \"#utility.yul\":3277:3280   */\n      0x00\n        /* \"#utility.yul\":3305:3343   */\n      tag_125\n        /* \"#utility.yul\":3337:3342   */\n      dup3\n        /* \"#utility.yul\":3305:3343   */\n      tag_45\n      jump\t// in\n    tag_125:\n        /* \"#utility.yul\":3359:3447   */\n      tag_126\n        /* \"#utility.yul\":3440:3446   */\n      dup2\n        /* \"#utility.yul\":3435:3438   */\n      dup6\n        /* \"#utility.yul\":3359:3447   */\n      tag_58\n      jump\t// in\n    tag_126:\n        /* \"#utility.yul\":3352:3447   */\n      swap4\n      pop\n        /* \"#utility.yul\":3456:3521   */\n      tag_127\n        /* \"#utility.yul\":3514:3520   */\n      dup2\n        /* \"#utility.yul\":3509:3512   */\n      dup6\n        /* \"#utility.yul\":3502:3506   */\n      0x20\n        /* \"#utility.yul\":3495:3500   */\n      dup7\n        /* \"#utility.yul\":3491:3507   */\n      add\n        /* \"#utility.yul\":3456:3521   */\n      tag_47\n      jump\t// in\n    tag_127:\n        /* \"#utility.yul\":3546:3552   */\n      dup1\n        /* \"#utility.yul\":3541:3544   */\n      dup5\n        /* \"#utility.yul\":3537:3553   */\n      add\n        /* \"#utility.yul\":3530:3553   */\n      swap2\n      pop\n        /* \"#utility.yul\":3281:3559   */\n      pop\n        /* \"#utility.yul\":3173:3559   */\n      swap3\n      swap2\n      pop\n      pop\n      jump\t// out\n        /* \"#utility.yul\":3565:3836   */\n    tag_26:\n        /* \"#utility.yul\":3695:3698   */\n      0x00\n        /* \"#utility.yul\":3717:3810   */\n      tag_129\n        /* \"#utility.yul\":3806:3809   */\n      dup3\n        /* \"#utility.yul\":3797:3803   */\n      dup5\n        /* \"#utility.yul\":3717:3810   */\n      tag_59\n      jump\t// in\n    tag_129:\n        /* \"#utility.yul\":3710:3810   */\n      swap2\n      pop\n        /* \"#utility.yul\":3827:3830   */\n      dup2\n        /* \"#utility.yul\":3820:3830   */\n      swap1\n      pop\n        /* \"#utility.yul\":3565:3836   */\n      swap3\n      swap2\n      pop\n      pop\n      jump\t// out\n        /* \"#utility.yul\":3842:4011   */\n    tag_60:\n        /* \"#utility.yul\":3926:3937   */\n      0x00\n        /* \"#utility.yul\":3960:3966   */\n      dup3\n        /* \"#utility.yul\":3955:3958   */\n      dup3\n        /* \"#utility.yul\":3948:3967   */\n      mstore\n        /* \"#utility.yul\":4000:4004   */\n      0x20\n        /* \"#utility.yul\":3995:3998   */\n      dup3\n        /* \"#utility.yul\":3991:4005   */\n      add\n        /* \"#utility.yul\":3976:4005   */\n      swap1\n      pop\n        /* \"#utility.yul\":3842:4011   */\n      swap3\n      swap2\n      pop\n      pop\n      jump\t// out\n        /* \"#utility.yul\":4017:4183   */\n    tag_61:\n        /* \"#utility.yul\":4157:4175   */\n      0x63616c6c20646f65732065786973747300000000000000000000000000000000\n        /* \"#utility.yul\":4153:4154   */\n      0x00\n        /* \"#utility.yul\":4145:4151   */\n      dup3\n        /* \"#utility.yul\":4141:4155   */\n      add\n        /* \"#utility.yul\":4134:4176   */\n      mstore\n        /* \"#utility.yul\":4017:4183   */\n      pop\n      jump\t// out\n        /* \"#utility.yul\":4189:4555   */\n    tag_62:\n        /* \"#utility.yul\":4331:4334   */\n      0x00\n        /* \"#utility.yul\":4352:4419   */\n      tag_133\n        /* \"#utility.yul\":4416:4418   */\n      0x10\n        /* \"#utility.yul\":4411:4414   */\n      dup4\n        /* \"#utility.yul\":4352:4419   */\n      tag_60\n      jump\t// in\n    tag_133:\n        /* \"#utility.yul\":4345:4419   */\n      swap2\n      pop\n        /* \"#utility.yul\":4428:4521   */\n      tag_134\n        /* \"#utility.yul\":4517:4520   */\n      dup3\n        /* \"#utility.yul\":4428:4521   */\n      tag_61\n      jump\t// in\n    tag_134:\n        /* \"#utility.yul\":4546:4548   */\n      0x20\n        /* \"#utility.yul\":4541:4544   */\n      dup3\n        /* \"#utility.yul\":4537:4549   */\n      add\n        /* \"#utility.yul\":4530:4549   */\n      swap1\n      pop\n        /* \"#utility.yul\":4189:4555   */\n      swap2\n      swap1\n      pop\n      jump\t// out\n        /* \"#utility.yul\":4561:4980   */\n    tag_32:\n        /* \"#utility.yul\":4727:4731   */\n      0x00\n        /* \"#utility.yul\":4765:4767   */\n      0x20\n        /* \"#utility.yul\":4754:4763   */\n      dup3\n        /* \"#utility.yul\":4750:4768   */\n      add\n        /* \"#utility.yul\":4742:4768   */\n      swap1\n      pop\n        /* \"#utility.yul\":4814:4823   */\n      dup2\n        /* \"#utility.yul\":4808:4812   */\n      dup2\n        /* \"#utility.yul\":4804:4824   */\n      sub\n        /* \"#utility.yul\":4800:4801   */\n      0x00\n        /* \"#utility.yul\":4789:4798   */\n      dup4\n        /* \"#utility.yul\":4785:4802   */\n      add\n        /* \"#utility.yul\":4778:4825   */\n      mstore\n        /* \"#utility.yul\":4842:4973   */\n      tag_136\n        /* \"#utility.yul\":4968:4972   */\n      dup2\n        /* \"#utility.yul\":4842:4973   */\n      tag_62\n      jump\t// in\n    tag_136:\n        /* \"#utility.yul\":4834:4973   */\n      swap1\n      pop\n        /* \"#utility.yul\":4561:4980   */\n      swap2\n      swap1\n      pop\n      jump\t// out\n        /* \"#utility.yul\":4986:5145   */\n    tag_63:\n        /* \"#utility.yul\":5126:5137   */\n      0x63616c6c20666f6f200000000000000000000000000000000000000000000000\n        /* \"#utility.yul\":5122:5123   */\n      0x00\n        /* \"#utility.yul\":5114:5120   */\n      dup3\n        /* \"#utility.yul\":5110:5124   */\n      add\n        /* \"#utility.yul\":5103:5138   */\n      mstore\n        /* \"#utility.yul\":4986:5145   */\n      pop\n      jump\t// out\n        /* \"#utility.yul\":5151:5516   */\n    tag_64:\n        /* \"#utility.yul\":5293:5296   */\n      0x00\n        /* \"#utility.yul\":5314:5380   */\n      tag_139\n        /* \"#utility.yul\":5378:5379   */\n      0x09\n        /* \"#utility.yul\":5373:5376   */\n      dup4\n        /* \"#utility.yul\":5314:5380   */\n      tag_60\n      jump\t// in\n    tag_139:\n        /* \"#utility.yul\":5307:5380   */\n      swap2\n      pop\n        /* \"#utility.yul\":5389:5482   */\n      tag_140\n        /* \"#utility.yul\":5478:5481   */\n      dup3\n        /* \"#utility.yul\":5389:5482   */\n      tag_63\n      jump\t// in\n    tag_140:\n        /* \"#utility.yul\":5507:5509   */\n      0x20\n        /* \"#utility.yul\":5502:5505   */\n      dup3\n        /* \"#utility.yul\":5498:5510   */\n      add\n        /* \"#utility.yul\":5491:5510   */\n      swap1\n      pop\n        /* \"#utility.yul\":5151:5516   */\n      swap2\n      swap1\n      pop\n      jump\t// out\n        /* \"#utility.yul\":5522:5609   */\n    tag_65:\n        /* \"#utility.yul\":5569:5576   */\n      0x00\n        /* \"#utility.yul\":5598:5603   */\n      dup2\n        /* \"#utility.yul\":5587:5603   */\n      swap1\n      pop\n        /* \"#utility.yul\":5522:5609   */\n      swap2\n      swap1\n      pop\n      jump\t// out\n        /* \"#utility.yul\":5615:5701   */\n    tag_66:\n        /* \"#utility.yul\":5650:5657   */\n      0x00\n        /* \"#utility.yul\":5690:5694   */\n      0xff\n        /* \"#utility.yul\":5683:5688   */\n      dup3\n        /* \"#utility.yul\":5679:5695   */\n      and\n        /* \"#utility.yul\":5668:5695   */\n      swap1\n      pop\n        /* \"#utility.yul\":5615:5701   */\n      swap2\n      swap1\n      pop\n      jump\t// out\n        /* \"#utility.yul\":5707:5767   */\n    tag_67:\n        /* \"#utility.yul\":5735:5738   */\n      0x00\n        /* \"#utility.yul\":5756:5761   */\n      dup2\n        /* \"#utility.yul\":5749:5761   */\n      swap1\n      pop\n        /* \"#utility.yul\":5707:5767   */\n      swap2\n      swap1\n      pop\n      jump\t// out\n        /* \"#utility.yul\":5773:5931   */\n    tag_68:\n        /* \"#utility.yul\":5831:5840   */\n      0x00\n        /* \"#utility.yul\":5864:5925   */\n      tag_145\n        /* \"#utility.yul\":5880:5924   */\n      tag_146\n        /* \"#utility.yul\":5889:5923   */\n      tag_147\n        /* \"#utility.yul\":5917:5922   */\n      dup5\n        /* \"#utility.yul\":5889:5923   */\n      tag_65\n      jump\t// in\n    tag_147:\n        /* \"#utility.yul\":5880:5924   */\n      tag_67\n      jump\t// in\n    tag_146:\n        /* \"#utility.yul\":5864:5925   */\n      tag_66\n      jump\t// in\n    tag_145:\n        /* \"#utility.yul\":5851:5925   */\n      swap1\n      pop\n        /* \"#utility.yul\":5773:5931   */\n      swap2\n      swap1\n      pop\n      jump\t// out\n        /* \"#utility.yul\":5937:6084   */\n    tag_69:\n        /* \"#utility.yul\":6032:6077   */\n      tag_149\n        /* \"#utility.yul\":6071:6076   */\n      dup2\n        /* \"#utility.yul\":6032:6077   */\n      tag_68\n      jump\t// in\n    tag_149:\n        /* \"#utility.yul\":6027:6030   */\n      dup3\n        /* \"#utility.yul\":6020:6078   */\n      mstore\n        /* \"#utility.yul\":5937:6084   */\n      pop\n      pop\n      jump\t// out\n        /* \"#utility.yul\":6090:6635   */\n    tag_35:\n        /* \"#utility.yul\":6292:6296   */\n      0x00\n        /* \"#utility.yul\":6330:6332   */\n      0x40\n        /* \"#utility.yul\":6319:6328   */\n      dup3\n        /* \"#utility.yul\":6315:6333   */\n      add\n        /* \"#utility.yul\":6307:6333   */\n      swap1\n      pop\n        /* \"#utility.yul\":6379:6388   */\n      dup2\n        /* \"#utility.yul\":6373:6377   */\n      dup2\n        /* \"#utility.yul\":6369:6389   */\n      sub\n        /* \"#utility.yul\":6365:6366   */\n      0x00\n        /* \"#utility.yul\":6354:6363   */\n      dup4\n        /* \"#utility.yul\":6350:6367   */\n      add\n        /* \"#utility.yul\":6343:6390   */\n      mstore\n        /* \"#utility.yul\":6407:6538   */\n      tag_151\n        /* \"#utility.yul\":6533:6537   */\n      dup2\n        /* \"#utility.yul\":6407:6538   */\n      tag_64\n      jump\t// in\n    tag_151:\n        /* \"#utility.yul\":6399:6538   */\n      swap1\n      pop\n        /* \"#utility.yul\":6548:6628   */\n      tag_152\n        /* \"#utility.yul\":6624:6626   */\n      0x20\n        /* \"#utility.yul\":6613:6622   */\n      dup4\n        /* \"#utility.yul\":6609:6627   */\n      add\n        /* \"#utility.yul\":6600:6606   */\n      dup5\n        /* \"#utility.yul\":6548:6628   */\n      tag_69\n      jump\t// in\n    tag_152:\n        /* \"#utility.yul\":6090:6635   */\n      swap3\n      swap2\n      pop\n      pop\n      jump\t// out\n        /* \"#utility.yul\":6641:6802   */\n    tag_70:\n        /* \"#utility.yul\":6781:6794   */\n      0x63616c6c206661696c6564000000000000000000000000000000000000000000\n        /* \"#utility.yul\":6777:6778   */\n      0x00\n        /* \"#utility.yul\":6769:6775   */\n      dup3\n        /* \"#utility.yul\":6765:6779   */\n      add\n        /* \"#utility.yul\":6758:6795   */\n      mstore\n        /* \"#utility.yul\":6641:6802   */\n      pop\n      jump\t// out\n        /* \"#utility.yul\":6808:7174   */\n    tag_71:\n        /* \"#utility.yul\":6950:6953   */\n      0x00\n        /* \"#utility.yul\":6971:7038   */\n      tag_155\n        /* \"#utility.yul\":7035:7037   */\n      0x0b\n        /* \"#utility.yul\":7030:7033   */\n      dup4\n        /* \"#utility.yul\":6971:7038   */\n      tag_60\n      jump\t// in\n    tag_155:\n        /* \"#utility.yul\":6964:7038   */\n      swap2\n      pop\n        /* \"#utility.yul\":7047:7140   */\n      tag_156\n        /* \"#utility.yul\":7136:7139   */\n      dup3\n        /* \"#utility.yul\":7047:7140   */\n      tag_70\n      jump\t// in\n    tag_156:\n        /* \"#utility.yul\":7165:7167   */\n      0x20\n        /* \"#utility.yul\":7160:7163   */\n      dup3\n        /* \"#utility.yul\":7156:7168   */\n      add\n        /* \"#utility.yul\":7149:7168   */\n      swap1\n      pop\n        /* \"#utility.yul\":6808:7174   */\n      swap2\n      swap1\n      pop\n      jump\t// out\n        /* \"#utility.yul\":7180:7599   */\n    tag_42:\n        /* \"#utility.yul\":7346:7350   */\n      0x00\n        /* \"#utility.yul\":7384:7386   */\n      0x20\n        /* \"#utility.yul\":7373:7382   */\n      dup3\n        /* \"#utility.yul\":7369:7387   */\n      add\n        /* \"#utility.yul\":7361:7387   */\n      swap1\n      pop\n        /* \"#utility.yul\":7433:7442   */\n      dup2\n        /* \"#utility.yul\":7427:7431   */\n      dup2\n        /* \"#utility.yul\":7423:7443   */\n      sub\n        /* \"#utility.yul\":7419:7420   */\n      0x00\n        /* \"#utility.yul\":7408:7417   */\n      dup4\n        /* \"#utility.yul\":7404:7421   */\n      add\n        /* \"#utility.yul\":7397:7444   */\n      mstore\n        /* \"#utility.yul\":7461:7592   */\n      tag_158\n        /* \"#utility.yul\":7587:7591   */\n      dup2\n        /* \"#utility.yul\":7461:7592   */\n      tag_71\n      jump\t// in\n    tag_158:\n        /* \"#utility.yul\":7453:7592   */\n      swap1\n      pop\n        /* \"#utility.yul\":7180:7599   */\n      swap2\n      swap1\n      pop\n      jump\t// out\n        /* \"#utility.yul\":7605:7785   */\n    tag_72:\n        /* \"#utility.yul\":7653:7730   */\n      0x4e487b7100000000000000000000000000000000000000000000000000000000\n        /* \"#utility.yul\":7650:7651   */\n      0x00\n        /* \"#utility.yul\":7643:7731   */\n      mstore\n        /* \"#utility.yul\":7750:7754   */\n      0x41\n        /* \"#utility.yul\":7747:7748   */\n      0x04\n        /* \"#utility.yul\":7740:7755   */\n      mstore\n        /* \"#utility.yul\":7774:7778   */\n      0x24\n        /* \"#utility.yul\":7771:7772   */\n      0x00\n        /* \"#utility.yul\":7764:7779   */\n      revert\n        /* \"#utility.yul\":7791:7931   */\n    tag_73:\n        /* \"#utility.yul\":7839:7843   */\n      0x00\n        /* \"#utility.yul\":7862:7865   */\n      dup2\n        /* \"#utility.yul\":7854:7865   */\n      swap1\n      pop\n        /* \"#utility.yul\":7885:7888   */\n      dup2\n        /* \"#utility.yul\":7882:7883   */\n      0x00\n        /* \"#utility.yul\":7875:7889   */\n      mstore\n        /* \"#utility.yul\":7919:7923   */\n      0x20\n        /* \"#utility.yul\":7916:7917   */\n      0x00\n        /* \"#utility.yul\":7906:7924   */\n      keccak256\n        /* \"#utility.yul\":7898:7924   */\n      swap1\n      pop\n        /* \"#utility.yul\":7791:7931   */\n      swap2\n      swap1\n      pop\n      jump\t// out\n        /* \"#utility.yul\":7937:8030   */\n    tag_74:\n        /* \"#utility.yul\":7974:7980   */\n      0x00\n        /* \"#utility.yul\":8021:8023   */\n      0x20\n        /* \"#utility.yul\":8016:8018   */\n      0x1f\n        /* \"#utility.yul\":8009:8014   */\n      dup4\n        /* \"#utility.yul\":8005:8019   */\n      add\n        /* \"#utility.yul\":8001:8024   */\n      div\n        /* \"#utility.yul\":7991:8024   */\n      swap1\n      pop\n        /* \"#utility.yul\":7937:8030   */\n      swap2\n      swap1\n      pop\n      jump\t// out\n        /* \"#utility.yul\":8036:8143   */\n    tag_75:\n        /* \"#utility.yul\":8080:8088   */\n      0x00\n        /* \"#utility.yul\":8130:8135   */\n      dup3\n        /* \"#utility.yul\":8124:8128   */\n      dup3\n        /* \"#utility.yul\":8120:8136   */\n      shl\n        /* \"#utility.yul\":8099:8136   */\n      swap1\n      pop\n        /* \"#utility.yul\":8036:8143   */\n      swap3\n      swap2\n      pop\n      pop\n      jump\t// out\n        /* \"#utility.yul\":8149:8542   */\n    tag_76:\n        /* \"#utility.yul\":8218:8224   */\n      0x00\n        /* \"#utility.yul\":8268:8269   */\n      0x08\n        /* \"#utility.yul\":8256:8266   */\n      dup4\n        /* \"#utility.yul\":8252:8270   */\n      mul\n        /* \"#utility.yul\":8291:8388   */\n      tag_164\n        /* \"#utility.yul\":8321:8387   */\n      0xffffffffffffffffffffffffffffffffffffffffffffffffffffffffffffffff\n        /* \"#utility.yul\":8310:8319   */\n      dup3\n        /* \"#utility.yul\":8291:8388   */\n      tag_75\n      jump\t// in\n    tag_164:\n        /* \"#utility.yul\":8409:8448   */\n      tag_165\n        /* \"#utility.yul\":8439:8447   */\n      dup7\n        /* \"#utility.yul\":8428:8437   */\n      dup4\n        /* \"#utility.yul\":8409:8448   */\n      tag_75\n      jump\t// in\n    tag_165:\n        /* \"#utility.yul\":8397:8448   */\n      swap6\n      pop\n        /* \"#utility.yul\":8481:8485   */\n      dup1\n        /* \"#utility.yul\":8477:8486   */\n      not\n        /* \"#utility.yul\":8470:8475   */\n      dup5\n        /* \"#utility.yul\":8466:8487   */\n      and\n        /* \"#utility.yul\":8457:8487   */\n      swap4\n      pop\n        /* \"#utility.yul\":8530:8534   */\n      dup1\n        /* \"#utility.yul\":8520:8528   */\n      dup7\n        /* \"#utility.yul\":8516:8535   */\n      and\n        /* \"#utility.yul\":8509:8514   */\n      dup5\n        /* \"#utility.yul\":8506:8536   */\n      or\n        /* \"#utility.yul\":8496:8536   */\n      swap3\n      pop\n        /* \"#utility.yul\":8225:8542   */\n      pop\n      pop\n        /* \"#utility.yul\":8149:8542   */\n      swap4\n      swap3\n      pop\n      pop\n      pop\n      jump\t// out\n        /* \"#utility.yul\":8548:8625   */\n    tag_77:\n        /* \"#utility.yul\":8585:8592   */\n      0x00\n        /* \"#utility.yul\":8614:8619   */\n      dup2\n        /* \"#utility.yul\":8603:8619   */\n      swap1\n      pop\n        /* \"#utility.yul\":8548:8625   */\n      swap2\n      swap1\n      pop\n      jump\t// out\n        /* \"#utility.yul\":8631:8773   */\n    tag_78:\n        /* \"#utility.yul\":8681:8690   */\n      0x00\n        /* \"#utility.yul\":8714:8767   */\n      tag_168\n        /* \"#utility.yul\":8732:8766   */\n      tag_169\n        /* \"#utility.yul\":8741:8765   */\n      tag_170\n        /* \"#utility.yul\":8759:8764   */\n      dup5\n        /* \"#utility.yul\":8741:8765   */\n      tag_77\n      jump\t// in\n    tag_170:\n        /* \"#utility.yul\":8732:8766   */\n      tag_67\n      jump\t// in\n    tag_169:\n        /* \"#utility.yul\":8714:8767   */\n      tag_77\n      jump\t// in\n    tag_168:\n        /* \"#utility.yul\":8701:8767   */\n      swap1\n      pop\n        /* \"#utility.yul\":8631:8773   */\n      swap2\n      swap1\n      pop\n      jump\t// out\n        /* \"#utility.yul\":8779:8854   */\n    tag_79:\n        /* \"#utility.yul\":8822:8825   */\n      0x00\n        /* \"#utility.yul\":8843:8848   */\n      dup2\n        /* \"#utility.yul\":8836:8848   */\n      swap1\n      pop\n        /* \"#utility.yul\":8779:8854   */\n      swap2\n      swap1\n      pop\n      jump\t// out\n        /* \"#utility.yul\":8860:9129   */\n    tag_80:\n        /* \"#utility.yul\":8970:9009   */\n      tag_173\n        /* \"#utility.yul\":9001:9008   */\n      dup4\n        /* \"#utility.yul\":8970:9009   */\n      tag_78\n      jump\t// in\n    tag_173:\n        /* \"#utility.yul\":9031:9122   */\n      tag_174\n        /* \"#utility.yul\":9080:9121   */\n      tag_175\n        /* \"#utility.yul\":9104:9120   */\n      dup3\n        /* \"#utility.yul\":9080:9121   */\n      tag_79\n      jump\t// in\n    tag_175:\n        /* \"#utility.yul\":9072:9078   */\n      dup5\n        /* \"#utility.yul\":9065:9069   */\n      dup5\n        /* \"#utility.yul\":9059:9070   */\n      sload\n        /* \"#utility.yul\":9031:9122   */\n      tag_76\n      jump\t// in\n    tag_174:\n        /* \"#utility.yul\":9025:9029   */\n      dup3\n        /* \"#utility.yul\":9018:9123   */\n      sstore\n        /* \"#utility.yul\":8936:9129   */\n      pop\n        /* \"#utility.yul\":8860:9129   */\n      pop\n      pop\n      pop\n      jump\t// out\n        /* \"#utility.yul\":9135:9208   */\n    tag_81:\n        /* \"#utility.yul\":9180:9183   */\n      0x00\n        /* \"#utility.yul\":9135:9208   */\n      swap1\n      jump\t// out\n        /* \"#utility.yul\":9214:9403   */\n    tag_82:\n        /* \"#utility.yul\":9291:9323   */\n      tag_178\n      tag_81\n      jump\t// in\n    tag_178:\n        /* \"#utility.yul\":9332:9397   */\n      tag_179\n        /* \"#utility.yul\":9390:9396   */\n      dup2\n        /* \"#utility.yul\":9382:9388   */\n      dup5\n        /* \"#utility.yul\":9376:9380   */\n      dup5\n        /* \"#utility.yul\":9332:9397   */\n      tag_80\n      jump\t// in\n    tag_179:\n        /* \"#utility.yul\":9267:9403   */\n      pop\n        /* \"#utility.yul\":9214:9403   */\n      pop\n      pop\n      jump\t// out\n        /* \"#utility.yul\":9409:9595   */\n    tag_83:\n        /* \"#utility.yul\":9469:9589   */\n    tag_181:\n        /* \"#utility.yul\":9486:9489   */\n      dup2\n        /* \"#utility.yul\":9479:9484   */\n      dup2\n        /* \"#utility.yul\":9476:9490   */\n      lt\n        /* \"#utility.yul\":9469:9589   */\n      iszero\n      tag_183\n      jumpi\n        /* \"#utility.yul\":9540:9579   */\n      tag_184\n        /* \"#utility.yul\":9577:9578   */\n      0x00\n        /* \"#utility.yul\":9570:9575   */\n      dup3\n        /* \"#utility.yul\":9540:9579   */\n      tag_82\n      jump\t// in\n    tag_184:\n        /* \"#utility.yul\":9513:9514   */\n      0x01\n        /* \"#utility.yul\":9506:9511   */\n      dup2\n        /* \"#utility.yul\":9502:9515   */\n      add\n        /* \"#utility.yul\":9493:9515   */\n      swap1\n      pop\n        /* \"#utility.yul\":9469:9589   */\n      jump(tag_181)\n    tag_183:\n        /* \"#utility.yul\":9409:9595   */\n      pop\n      pop\n      jump\t// out\n        /* \"#utility.yul\":9601:10142   */\n    tag_84:\n        /* \"#utility.yul\":9701:9703   */\n      0x1f\n        /* \"#utility.yul\":9696:9699   */\n      dup3\n        /* \"#utility.yul\":9693:9704   */\n      gt\n        /* \"#utility.yul\":9690:10135   */\n      iszero\n      tag_186\n      jumpi\n        /* \"#utility.yul\":9735:9772   */\n      tag_187\n        /* \"#utility.yul\":9766:9771   */\n      dup2\n        /* \"#utility.yul\":9735:9772   */\n      tag_73\n      jump\t// in\n    tag_187:\n        /* \"#utility.yul\":9818:9847   */\n      tag_188\n        /* \"#utility.yul\":9836:9846   */\n      dup5\n        /* \"#utility.yul\":9818:9847   */\n      tag_74\n      jump\t// in\n    tag_188:\n        /* \"#utility.yul\":9808:9816   */\n      dup2\n        /* \"#utility.yul\":9804:9848   */\n      add\n        /* \"#utility.yul\":10001:10003   */\n      0x20\n        /* \"#utility.yul\":9989:9999   */\n      dup6\n        /* \"#utility.yul\":9986:10004   */\n      lt\n        /* \"#utility.yul\":9983:10032   */\n      iszero\n      tag_189\n      jumpi\n        /* \"#utility.yul\":10022:10030   */\n      dup2\n        /* \"#utility.yul\":10007:10030   */\n      swap1\n      pop\n        /* \"#utility.yul\":9983:10032   */\n    tag_189:\n        /* \"#utility.yul\":10045:10125   */\n      tag_190\n        /* \"#utility.yul\":10101:10123   */\n      tag_191\n        /* \"#utility.yul\":10119:10122   */\n      dup6\n        /* \"#utility.yul\":10101:10123   */\n      tag_74\n      jump\t// in\n    tag_191:\n        /* \"#utility.yul\":10091:10099   */\n      dup4\n        /* \"#utility.yul\":10087:10124   */\n      add\n        /* \"#utility.yul\":10074:10085   */\n      dup3\n        /* \"#utility.yul\":10045:10125   */\n      tag_83\n      jump\t// in\n    tag_190:\n        /* \"#utility.yul\":9705:10135   */\n      pop\n      pop\n        /* \"#utility.yul\":9690:10135   */\n    tag_186:\n        /* \"#utility.yul\":9601:10142   */\n      pop\n      pop\n      pop\n      jump\t// out\n        /* \"#utility.yul\":10148:10265   */\n    tag_85:\n        /* \"#utility.yul\":10202:10210   */\n      0x00\n        /* \"#utility.yul\":10252:10257   */\n      dup3\n        /* \"#utility.yul\":10246:10250   */\n      dup3\n        /* \"#utility.yul\":10242:10258   */\n      shr\n        /* \"#utility.yul\":10221:10258   */\n      swap1\n      pop\n        /* \"#utility.yul\":10148:10265   */\n      swap3\n      swap2\n      pop\n      pop\n      jump\t// out\n        /* \"#utility.yul\":10271:10440   */\n    tag_86:\n        /* \"#utility.yul\":10315:10321   */\n      0x00\n        /* \"#utility.yul\":10348:10399   */\n      tag_194\n        /* \"#utility.yul\":10396:10397   */\n      0x00\n        /* \"#utility.yul\":10392:10398   */\n      not\n        /* \"#utility.yul\":10384:10389   */\n      dup5\n        /* \"#utility.yul\":10381:10382   */\n      0x08\n        /* \"#utility.yul\":10377:10390   */\n      mul\n        /* \"#utility.yul\":10348:10399   */\n      tag_85\n      jump\t// in\n    tag_194:\n        /* \"#utility.yul\":10344:10400   */\n      not\n        /* \"#utility.yul\":10429:10433   */\n      dup1\n        /* \"#utility.yul\":10423:10427   */\n      dup4\n        /* \"#utility.yul\":10419:10434   */\n      and\n        /* \"#utility.yul\":10409:10434   */\n      swap2\n      pop\n        /* \"#utility.yul\":10322:10440   */\n      pop\n        /* \"#utility.yul\":10271:10440   */\n      swap3\n      swap2\n      pop\n      pop\n      jump\t// out\n        /* \"#utility.yul\":10445:10740   */\n    tag_87:\n        /* \"#utility.yul\":10521:10525   */\n      0x00\n        /* \"#utility.yul\":10667:10696   */\n      tag_196\n        /* \"#utility.yul\":10692:10695   */\n      dup4\n        /* \"#utility.yul\":10686:10690   */\n      dup4\n        /* \"#utility.yul\":10667:10696   */\n      tag_86\n      jump\t// in\n    tag_196:\n        /* \"#utility.yul\":10659:10696   */\n      swap2\n      pop\n        /* \"#utility.yul\":10729:10732   */\n      dup3\n        /* \"#utility.yul\":10726:10727   */\n      0x02\n        /* \"#utility.yul\":10722:10733   */\n      mul\n        /* \"#utility.yul\":10716:10720   */\n      dup3\n        /* \"#utility.yul\":10713:10734   */\n      or\n        /* \"#utility.yul\":10705:10734   */\n      swap1\n      pop\n        /* \"#utility.yul\":10445:10740   */\n      swap3\n      swap2\n      pop\n      pop\n      jump\t// out\n        /* \"#utility.yul\":10745:12135   */\n    tag_44:\n        /* \"#utility.yul\":10860:10896   */\n      tag_198\n        /* \"#utility.yul\":10892:10895   */\n      dup3\n        /* \"#utility.yul\":10860:10896   */\n      tag_45\n      jump\t// in\n    tag_198:\n        /* \"#utility.yul\":10961:10979   */\n      0xffffffffffffffff\n        /* \"#utility.yul\":10953:10959   */\n      dup2\n        /* \"#utility.yul\":10950:10980   */\n      gt\n        /* \"#utility.yul\":10947:11003   */\n      iszero\n      tag_199\n      jumpi\n        /* \"#utility.yul\":10983:11001   */\n      tag_200\n      tag_72\n      jump\t// in\n    tag_200:\n        /* \"#utility.yul\":10947:11003   */\n    tag_199:\n        /* \"#utility.yul\":11027:11065   */\n      tag_201\n        /* \"#utility.yul\":11059:11063   */\n      dup3\n        /* \"#utility.yul\":11053:11064   */\n      sload\n        /* \"#utility.yul\":11027:11065   */\n      tag_19\n      jump\t// in\n    tag_201:\n        /* \"#utility.yul\":11112:11178   */\n      tag_202\n        /* \"#utility.yul\":11171:11177   */\n      dup3\n        /* \"#utility.yul\":11163:11169   */\n      dup3\n        /* \"#utility.yul\":11157:11161   */\n      dup6\n        /* \"#utility.yul\":11112:11178   */\n      tag_84\n      jump\t// in\n    tag_202:\n        /* \"#utility.yul\":11205:11206   */\n      0x00\n        /* \"#utility.yul\":11229:11233   */\n      0x20\n        /* \"#utility.yul\":11216:11233   */\n      swap1\n      pop\n        /* \"#utility.yul\":11261:11263   */\n      0x1f\n        /* \"#utility.yul\":11253:11259   */\n      dup4\n        /* \"#utility.yul\":11250:11264   */\n      gt\n        /* \"#utility.yul\":11278:11279   */\n      0x01\n        /* \"#utility.yul\":11273:11890   */\n      dup2\n      eq\n      tag_204\n      jumpi\n        /* \"#utility.yul\":11934:11935   */\n      0x00\n        /* \"#utility.yul\":11951:11957   */\n      dup5\n        /* \"#utility.yul\":11948:12025   */\n      iszero\n      tag_205\n      jumpi\n        /* \"#utility.yul\":12000:12009   */\n      dup3\n        /* \"#utility.yul\":11995:11998   */\n      dup8\n        /* \"#utility.yul\":11991:12010   */\n      add\n        /* \"#utility.yul\":11985:12011   */\n      mload\n        /* \"#utility.yul\":11976:12011   */\n      swap1\n      pop\n        /* \"#utility.yul\":11948:12025   */\n    tag_205:\n        /* \"#utility.yul\":12051:12118   */\n      tag_206\n        /* \"#utility.yul\":12111:12117   */\n      dup6\n        /* \"#utility.yul\":12104:12109   */\n      dup3\n        /* \"#utility.yul\":12051:12118   */\n      tag_87\n      jump\t// in\n    tag_206:\n        /* \"#utility.yul\":12045:12049   */\n      dup7\n        /* \"#utility.yul\":12038:12119   */\n      sstore\n        /* \"#utility.yul\":11907:12129   */\n      pop\n        /* \"#utility.yul\":11243:12129   */\n      jump(tag_203)\n        /* \"#utility.yul\":11273:11890   */\n    tag_204:\n        /* \"#utility.yul\":11325:11329   */\n      0x1f\n        /* \"#utility.yul\":11321:11330   */\n      not\n        /* \"#utility.yul\":11313:11319   */\n      dup5\n        /* \"#utility.yul\":11309:11331   */\n      and\n        /* \"#utility.yul\":11359:11395   */\n      tag_207\n        /* \"#utility.yul\":11390:11394   */\n      dup7\n        /* \"#utility.yul\":11359:11395   */\n      tag_73\n      jump\t// in\n    tag_207:\n        /* \"#utility.yul\":11417:11418   */\n      0x00\n        /* \"#utility.yul\":11431:11639   */\n    tag_208:\n        /* \"#utility.yul\":11445:11452   */\n      dup3\n        /* \"#utility.yul\":11442:11443   */\n      dup2\n        /* \"#utility.yul\":11439:11453   */\n      lt\n        /* \"#utility.yul\":11431:11639   */\n      iszero\n      tag_210\n      jumpi\n        /* \"#utility.yul\":11524:11533   */\n      dup5\n        /* \"#utility.yul\":11519:11522   */\n      dup10\n        /* \"#utility.yul\":11515:11534   */\n      add\n        /* \"#utility.yul\":11509:11535   */\n      mload\n        /* \"#utility.yul\":11501:11507   */\n      dup3\n        /* \"#utility.yul\":11494:11536   */\n      sstore\n        /* \"#utility.yul\":11575:11576   */\n      0x01\n        /* \"#utility.yul\":11567:11573   */\n      dup3\n        /* \"#utility.yul\":11563:11577   */\n      add\n        /* \"#utility.yul\":11553:11577   */\n      swap2\n      pop\n        /* \"#utility.yul\":11622:11624   */\n      0x20\n        /* \"#utility.yul\":11611:11620   */\n      dup6\n        /* \"#utility.yul\":11607:11625   */\n      add\n        /* \"#utility.yul\":11594:11625   */\n      swap5\n      pop\n        /* \"#utility.yul\":11468:11472   */\n      0x20\n        /* \"#utility.yul\":11465:11466   */\n      dup2\n        /* \"#utility.yul\":11461:11473   */\n      add\n        /* \"#utility.yul\":11456:11473   */\n      swap1\n      pop\n        /* \"#utility.yul\":11431:11639   */\n      jump(tag_208)\n    tag_210:\n        /* \"#utility.yul\":11667:11673   */\n      dup7\n        /* \"#utility.yul\":11658:11665   */\n      dup4\n        /* \"#utility.yul\":11655:11674   */\n      lt\n        /* \"#utility.yul\":11652:11831   */\n      iszero\n      tag_211\n      jumpi\n        /* \"#utility.yul\":11725:11734   */\n      dup5\n        /* \"#utility.yul\":11720:11723   */\n      dup10\n        /* \"#utility.yul\":11716:11735   */\n      add\n        /* \"#utility.yul\":11710:11736   */\n      mload\n        /* \"#utility.yul\":11768:11816   */\n      tag_212\n        /* \"#utility.yul\":11810:11814   */\n      0x1f\n        /* \"#utility.yul\":11802:11808   */\n      dup10\n        /* \"#utility.yul\":11798:11815   */\n      and\n        /* \"#utility.yul\":11787:11796   */\n      dup3\n        /* \"#utility.yul\":11768:11816   */\n      tag_86\n      jump\t// in\n    tag_212:\n        /* \"#utility.yul\":11760:11766   */\n      dup4\n        /* \"#utility.yul\":11753:11817   */\n      sstore\n        /* \"#utility.yul\":11675:11831   */\n      pop\n        /* \"#utility.yul\":11652:11831   */\n    tag_211:\n        /* \"#utility.yul\":11877:11878   */\n      0x01\n        /* \"#utility.yul\":11873:11874   */\n      0x02\n        /* \"#utility.yul\":11865:11871   */\n      dup9\n        /* \"#utility.yul\":11861:11875   */\n      mul\n        /* \"#utility.yul\":11857:11879   */\n      add\n        /* \"#utility.yul\":11851:11855   */\n      dup9\n        /* \"#utility.yul\":11844:11880   */\n      sstore\n        /* \"#utility.yul\":11280:11890   */\n      pop\n      pop\n      pop\n        /* \"#utility.yul\":11243:12129   */\n    tag_203:\n      pop\n        /* \"#utility.yul\":10835:12135   */\n      pop\n      pop\n      pop\n        /* \"#utility.yul\":10745:12135   */\n      pop\n      pop\n      jump\t// out\n\n    auxdata: 0xa26469706673582212204636ba1b8cc9b361e7dcaa053f7c457157c239f573e414d3a6b83e0394edfc4064736f6c63430008120033\n}\n",
				"bytecode": {
					"linkReferences": {},
					"object": "608060405234801561001057600080fd5b50610a4b806100206000396000f3fe6080604052600436106100345760003560e01c806373d4a13a14610039578063b0feeff614610064578063b9009d441461008d575b600080fd5b34801561004557600080fd5b5061004e6100a9565b60405161005b919061044e565b60405180910390f35b34801561007057600080fd5b5061008b600480360381019061008691906104d3565b610137565b005b6100a760048036038101906100a291906104d3565b61026a565b005b600080546100b69061052f565b80601f01602080910402602001604051908101604052809291908181526020018280546100e29061052f565b801561012f5780601f106101045761010080835404028352916020019161012f565b820191906000526020600020905b81548152906001019060200180831161011257829003601f168201915b505050505081565b60008173ffffffffffffffffffffffffffffffffffffffff166040516024016040516020818303038152906040527fb0ce7591000000000000000000000000000000000000000000000000000000007bffffffffffffffffffffffffffffffffffffffffffffffffffffffff19166020820180517bffffffffffffffffffffffffffffffffffffffffffffffffffffffff83818316178352505050506040516101e0919061059c565b6000604051808303816000865af19150503d806000811461021d576040519150601f19603f3d011682016040523d82523d6000602084013e610222565b606091505b5050905080610266576040517f08c379a000000000000000000000000000000000000000000000000000000000815260040161025d90610610565b60405180910390fd5b5050565b6000808273ffffffffffffffffffffffffffffffffffffffff16606f607b60405160240161029891906106ce565b6040516020818303038152906040527f24ccab8f000000000000000000000000000000000000000000000000000000007bffffffffffffffffffffffffffffffffffffffffffffffffffffffff19166020820180517bffffffffffffffffffffffffffffffffffffffffffffffffffffffff8381831617835250505050604051610322919061059c565b60006040518083038185875af1925050503d806000811461035f576040519150601f19603f3d011682016040523d82523d6000602084013e610364565b606091505b5091509150816103a9576040517f08c379a00000000000000000000000000000000000000000000000000000000081526004016103a090610748565b60405180910390fd5b80600090816103b89190610943565b50505050565b600081519050919050565b600082825260208201905092915050565b60005b838110156103f85780820151818401526020810190506103dd565b60008484015250505050565b6000601f19601f8301169050919050565b6000610420826103be565b61042a81856103c9565b935061043a8185602086016103da565b61044381610404565b840191505092915050565b600060208201905081810360008301526104688184610415565b905092915050565b600080fd5b600073ffffffffffffffffffffffffffffffffffffffff82169050919050565b60006104a082610475565b9050919050565b6104b081610495565b81146104bb57600080fd5b50565b6000813590506104cd816104a7565b92915050565b6000602082840312156104e9576104e8610470565b5b60006104f7848285016104be565b91505092915050565b7f4e487b7100000000000000000000000000000000000000000000000000000000600052602260045260246000fd5b6000600282049050600182168061054757607f821691505b60208210810361055a57610559610500565b5b50919050565b600081905092915050565b6000610576826103be565b6105808185610560565b93506105908185602086016103da565b80840191505092915050565b60006105a8828461056b565b915081905092915050565b600082825260208201905092915050565b7f63616c6c20646f65732065786973747300000000000000000000000000000000600082015250565b60006105fa6010836105b3565b9150610605826105c4565b602082019050919050565b60006020820190508181036000830152610629816105ed565b9050919050565b7f63616c6c20666f6f200000000000000000000000000000000000000000000000600082015250565b60006106666009836105b3565b915061067182610630565b602082019050919050565b6000819050919050565b600060ff82169050919050565b6000819050919050565b60006106b86106b36106ae8461067c565b610693565b610686565b9050919050565b6106c88161069d565b82525050565b600060408201905081810360008301526106e781610659565b90506106f660208301846106bf565b92915050565b7f63616c6c206661696c6564000000000000000000000000000000000000000000600082015250565b6000610732600b836105b3565b915061073d826106fc565b602082019050919050565b6000602082019050818103600083015261076181610725565b9050919050565b7f4e487b7100000000000000000000000000000000000000000000000000000000600052604160045260246000fd5b60008190508160005260206000209050919050565b60006020601f8301049050919050565b600082821b905092915050565b6000600883026107f97fffffffffffffffffffffffffffffffffffffffffffffffffffffffffffffffff826107bc565b61080386836107bc565b95508019841693508086168417925050509392505050565b6000819050919050565b600061084061083b6108368461081b565b610693565b61081b565b9050919050565b6000819050919050565b61085a83610825565b61086e61086682610847565b8484546107c9565b825550505050565b600090565b610883610876565b61088e818484610851565b505050565b5b818110156108b2576108a760008261087b565b600181019050610894565b5050565b601f8211156108f7576108c881610797565b6108d1846107ac565b810160208510156108e0578190505b6108f46108ec856107ac565b830182610893565b50505b505050565b600082821c905092915050565b600061091a600019846008026108fc565b1980831691505092915050565b60006109338383610909565b9150826002028217905092915050565b61094c826103be565b67ffffffffffffffff81111561096557610964610768565b5b61096f825461052f565b61097a8282856108b6565b600060209050601f8311600181146109ad576000841561099b578287015190505b6109a58582610927565b865550610a0d565b601f1984166109bb86610797565b60005b828110156109e3578489015182556001820191506020850194506020810190506109be565b86831015610a0057848901516109fc601f891682610909565b8355505b6001600288020188555050505b50505050505056fea26469706673582212204636ba1b8cc9b361e7dcaa053f7c457157c239f573e414d3a6b83e0394edfc4064736f6c63430008120033",
					"opcodes": "PUSH1 0x80 PUSH1 0x40 MSTORE CALLVALUE DUP1 ISZERO PUSH2 0x10 JUMPI PUSH1 0x0 DUP1 REVERT JUMPDEST POP PUSH2 0xA4B DUP1 PUSH2 0x20 PUSH1 0x0 CODECOPY PUSH1 0x0 RETURN INVALID PUSH1 0x80 PUSH1 0x40 MSTORE PUSH1 0x4 CALLDATASIZE LT PUSH2 0x34 JUMPI PUSH1 0x0 CALLDATALOAD PUSH1 0xE0 SHR DUP1 PUSH4 0x73D4A13A EQ PUSH2 0x39 JUMPI DUP1 PUSH4 0xB0FEEFF6 EQ PUSH2 0x64 JUMPI DUP1 PUSH4 0xB9009D44 EQ PUSH2 0x8D JUMPI JUMPDEST PUSH1 0x0 DUP1 REVERT JUMPDEST CALLVALUE DUP1 ISZERO PUSH2 0x45 JUMPI PUSH1 0x0 DUP1 REVERT JUMPDEST POP PUSH2 0x4E PUSH2 0xA9 JUMP JUMPDEST PUSH1 0x40 MLOAD PUSH2 0x5B SWAP2 SWAP1 PUSH2 0x44E JUMP JUMPDEST PUSH1 0x40 MLOAD DUP1 SWAP2 SUB SWAP1 RETURN JUMPDEST CALLVALUE DUP1 ISZERO PUSH2 0x70 JUMPI PUSH1 0x0 DUP1 REVERT JUMPDEST POP PUSH2 0x8B PUSH1 0x4 DUP1 CALLDATASIZE SUB DUP2 ADD SWAP1 PUSH2 0x86 SWAP2 SWAP1 PUSH2 0x4D3 JUMP JUMPDEST PUSH2 0x137 JUMP JUMPDEST STOP JUMPDEST PUSH2 0xA7 PUSH1 0x4 DUP1 CALLDATASIZE SUB DUP2 ADD SWAP1 PUSH2 0xA2 SWAP2 SWAP1 PUSH2 0x4D3 JUMP JUMPDEST PUSH2 0x26A JUMP JUMPDEST STOP JUMPDEST PUSH1 0x0 DUP1 SLOAD PUSH2 0xB6 SWAP1 PUSH2 0x52F JUMP JUMPDEST DUP1 PUSH1 0x1F ADD PUSH1 0x20 DUP1 SWAP2 DIV MUL PUSH1 0x20 ADD PUSH1 0x40 MLOAD SWAP1 DUP2 ADD PUSH1 0x40 MSTORE DUP1 SWAP3 SWAP2 SWAP1 DUP2 DUP2 MSTORE PUSH1 0x20 ADD DUP3 DUP1 SLOAD PUSH2 0xE2 SWAP1 PUSH2 0x52F JUMP JUMPDEST DUP1 ISZERO PUSH2 0x12F JUMPI DUP1 PUSH1 0x1F LT PUSH2 0x104 JUMPI PUSH2 0x100 DUP1 DUP4 SLOAD DIV MUL DUP4 MSTORE SWAP2 PUSH1 0x20 ADD SWAP2 PUSH2 0x12F JUMP JUMPDEST DUP3 ADD SWAP2 SWAP1 PUSH1 0x0 MSTORE PUSH1 0x20 PUSH1 0x0 KECCAK256 SWAP1 JUMPDEST DUP2 SLOAD DUP2 MSTORE SWAP1 PUSH1 0x1 ADD SWAP1 PUSH1 0x20 ADD DUP1 DUP4 GT PUSH2 0x112 JUMPI DUP3 SWAP1 SUB PUSH1 0x1F AND DUP3 ADD SWAP2 JUMPDEST POP POP POP POP POP DUP2 JUMP JUMPDEST PUSH1 0x0 DUP2 PUSH20 0xFFFFFFFFFFFFFFFFFFFFFFFFFFFFFFFFFFFFFFFF AND PUSH1 0x40 MLOAD PUSH1 0x24 ADD PUSH1 0x40 MLOAD PUSH1 0x20 DUP2 DUP4 SUB SUB DUP2 MSTORE SWAP1 PUSH1 0x40 MSTORE PUSH32 0xB0CE759100000000000000000000000000000000000000000000000000000000 PUSH28 0xFFFFFFFFFFFFFFFFFFFFFFFFFFFFFFFFFFFFFFFFFFFFFFFFFFFFFFFF NOT AND PUSH1 0x20 DUP3 ADD DUP1 MLOAD PUSH28 0xFFFFFFFFFFFFFFFFFFFFFFFFFFFFFFFFFFFFFFFFFFFFFFFFFFFFFFFF DUP4 DUP2 DUP4 AND OR DUP4 MSTORE POP POP POP POP PUSH1 0x40 MLOAD PUSH2 0x1E0 SWAP2 SWAP1 PUSH2 0x59C JUMP JUMPDEST PUSH1 0x0 PUSH1 0x40 MLOAD DUP1 DUP4 SUB DUP2 PUSH1 0x0 DUP7 GAS CALL SWAP2 POP POP RETURNDATASIZE DUP1 PUSH1 0x0 DUP2 EQ PUSH2 0x21D JUMPI PUSH1 0x40 MLOAD SWAP2 POP PUSH1 0x1F NOT PUSH1 0x3F RETURNDATASIZE ADD AND DUP3 ADD PUSH1 0x40 MSTORE RETURNDATASIZE DUP3 MSTORE RETURNDATASIZE PUSH1 0x0 PUSH1 0x20 DUP5 ADD RETURNDATACOPY PUSH2 0x222 JUMP JUMPDEST PUSH1 0x60 SWAP2 POP JUMPDEST POP POP SWAP1 POP DUP1 PUSH2 0x266 JUMPI PUSH1 0x40 MLOAD PUSH32 0x8C379A000000000000000000000000000000000000000000000000000000000 DUP2 MSTORE PUSH1 0x4 ADD PUSH2 0x25D SWAP1 PUSH2 0x610 JUMP JUMPDEST PUSH1 0x40 MLOAD DUP1 SWAP2 SUB SWAP1 REVERT JUMPDEST POP POP JUMP JUMPDEST PUSH1 0x0 DUP1 DUP3 PUSH20 0xFFFFFFFFFFFFFFFFFFFFFFFFFFFFFFFFFFFFFFFF AND PUSH1 0x6F PUSH1 0x7B PUSH1 0x40 MLOAD PUSH1 0x24 ADD PUSH2 0x298 SWAP2 SWAP1 PUSH2 0x6CE JUMP JUMPDEST PUSH1 0x40 MLOAD PUSH1 0x20 DUP2 DUP4 SUB SUB DUP2 MSTORE SWAP1 PUSH1 0x40 MSTORE PUSH32 0x24CCAB8F00000000000000000000000000000000000000000000000000000000 PUSH28 0xFFFFFFFFFFFFFFFFFFFFFFFFFFFFFFFFFFFFFFFFFFFFFFFFFFFFFFFF NOT AND PUSH1 0x20 DUP3 ADD DUP1 MLOAD PUSH28 0xFFFFFFFFFFFFFFFFFFFFFFFFFFFFFFFFFFFFFFFFFFFFFFFFFFFFFFFF DUP4 DUP2 DUP4 AND OR DUP4 MSTORE POP POP POP POP PUSH1 0x40 MLOAD PUSH2 0x322 SWAP2 SWAP1 PUSH2 0x59C JUMP JUMPDEST PUSH1 0x0 PUSH1 0x40 MLOAD DUP1 DUP4 SUB DUP2 DUP6 DUP8 GAS CALL SWAP3 POP POP POP RETURNDATASIZE DUP1 PUSH1 0x0 DUP2 EQ PUSH2 0x35F JUMPI PUSH1 0x40 MLOAD SWAP2 POP PUSH1 0x1F NOT PUSH1 0x3F RETURNDATASIZE ADD AND DUP3 ADD PUSH1 0x40 MSTORE RETURNDATASIZE DUP3 MSTORE RETURNDATASIZE PUSH1 0x0 PUSH1 0x20 DUP5 ADD RETURNDATACOPY PUSH2 0x364 JUMP JUMPDEST PUSH1 0x60 SWAP2 POP JUMPDEST POP SWAP2 POP SWAP2 POP DUP2 PUSH2 0x3A9 JUMPI PUSH1 0x40 MLOAD PUSH32 0x8C379A000000000000000000000000000000000000000000000000000000000 DUP2 MSTORE PUSH1 0x4 ADD PUSH2 0x3A0 SWAP1 PUSH2 0x748 JUMP JUMPDEST PUSH1 0x40 MLOAD DUP1 SWAP2 SUB SWAP1 REVERT JUMPDEST DUP1 PUSH1 0x0 SWAP1 DUP2 PUSH2 0x3B8 SWAP2 SWAP1 PUSH2 0x943 JUMP JUMPDEST POP POP POP POP JUMP JUMPDEST PUSH1 0x0 DUP2 MLOAD SWAP1 POP SWAP2 SWAP1 POP JUMP JUMPDEST PUSH1 0x0 DUP3 DUP3 MSTORE PUSH1 0x20 DUP3 ADD SWAP1 POP SWAP3 SWAP2 POP POP JUMP JUMPDEST PUSH1 0x0 JUMPDEST DUP4 DUP2 LT ISZERO PUSH2 0x3F8 JUMPI DUP1 DUP3 ADD MLOAD DUP2 DUP5 ADD MSTORE PUSH1 0x20 DUP2 ADD SWAP1 POP PUSH2 0x3DD JUMP JUMPDEST PUSH1 0x0 DUP5 DUP5 ADD MSTORE POP POP POP POP JUMP JUMPDEST PUSH1 0x0 PUSH1 0x1F NOT PUSH1 0x1F DUP4 ADD AND SWAP1 POP SWAP2 SWAP1 POP JUMP JUMPDEST PUSH1 0x0 PUSH2 0x420 DUP3 PUSH2 0x3BE JUMP JUMPDEST PUSH2 0x42A DUP2 DUP6 PUSH2 0x3C9 JUMP JUMPDEST SWAP4 POP PUSH2 0x43A DUP2 DUP6 PUSH1 0x20 DUP7 ADD PUSH2 0x3DA JUMP JUMPDEST PUSH2 0x443 DUP2 PUSH2 0x404 JUMP JUMPDEST DUP5 ADD SWAP2 POP POP SWAP3 SWAP2 POP POP JUMP JUMPDEST PUSH1 0x0 PUSH1 0x20 DUP3 ADD SWAP1 POP DUP2 DUP2 SUB PUSH1 0x0 DUP4 ADD MSTORE PUSH2 0x468 DUP2 DUP5 PUSH2 0x415 JUMP JUMPDEST SWAP1 POP SWAP3 SWAP2 POP POP JUMP JUMPDEST PUSH1 0x0 DUP1 REVERT JUMPDEST PUSH1 0x0 PUSH20 0xFFFFFFFFFFFFFFFFFFFFFFFFFFFFFFFFFFFFFFFF DUP3 AND SWAP1 POP SWAP2 SWAP1 POP JUMP JUMPDEST PUSH1 0x0 PUSH2 0x4A0 DUP3 PUSH2 0x475 JUMP JUMPDEST SWAP1 POP SWAP2 SWAP1 POP JUMP JUMPDEST PUSH2 0x4B0 DUP2 PUSH2 0x495 JUMP JUMPDEST DUP2 EQ PUSH2 0x4BB JUMPI PUSH1 0x0 DUP1 REVERT JUMPDEST POP JUMP JUMPDEST PUSH1 0x0 DUP2 CALLDATALOAD SWAP1 POP PUSH2 0x4CD DUP2 PUSH2 0x4A7 JUMP JUMPDEST SWAP3 SWAP2 POP POP JUMP JUMPDEST PUSH1 0x0 PUSH1 0x20 DUP3 DUP5 SUB SLT ISZERO PUSH2 0x4E9 JUMPI PUSH2 0x4E8 PUSH2 0x470 JUMP JUMPDEST JUMPDEST PUSH1 0x0 PUSH2 0x4F7 DUP5 DUP3 DUP6 ADD PUSH2 0x4BE JUMP JUMPDEST SWAP2 POP POP SWAP3 SWAP2 POP POP JUMP JUMPDEST PUSH32 0x4E487B7100000000000000000000000000000000000000000000000000000000 PUSH1 0x0 MSTORE PUSH1 0x22 PUSH1 0x4 MSTORE PUSH1 0x24 PUSH1 0x0 REVERT JUMPDEST PUSH1 0x0 PUSH1 0x2 DUP3 DIV SWAP1 POP PUSH1 0x1 DUP3 AND DUP1 PUSH2 0x547 JUMPI PUSH1 0x7F DUP3 AND SWAP2 POP JUMPDEST PUSH1 0x20 DUP3 LT DUP2 SUB PUSH2 0x55A JUMPI PUSH2 0x559 PUSH2 0x500 JUMP JUMPDEST JUMPDEST POP SWAP2 SWAP1 POP JUMP JUMPDEST PUSH1 0x0 DUP2 SWAP1 POP SWAP3 SWAP2 POP POP JUMP JUMPDEST PUSH1 0x0 PUSH2 0x576 DUP3 PUSH2 0x3BE JUMP JUMPDEST PUSH2 0x580 DUP2 DUP6 PUSH2 0x560 JUMP JUMPDEST SWAP4 POP PUSH2 0x590 DUP2 DUP6 PUSH1 0x20 DUP7 ADD PUSH2 0x3DA JUMP JUMPDEST DUP1 DUP5 ADD SWAP2 POP POP SWAP3 SWAP2 POP POP JUMP JUMPDEST PUSH1 0x0 PUSH2 0x5A8 DUP3 DUP5 PUSH2 0x56B JUMP JUMPDEST SWAP2 POP DUP2 SWAP1 POP SWAP3 SWAP2 POP POP JUMP JUMPDEST PUSH1 0x0 DUP3 DUP3 MSTORE PUSH1 0x20 DUP3 ADD SWAP1 POP SWAP3 SWAP2 POP POP JUMP JUMPDEST PUSH32 0x63616C6C20646F65732065786973747300000000000000000000000000000000 PUSH1 0x0 DUP3 ADD MSTORE POP JUMP JUMPDEST PUSH1 0x0 PUSH2 0x5FA PUSH1 0x10 DUP4 PUSH2 0x5B3 JUMP JUMPDEST SWAP2 POP PUSH2 0x605 DUP3 PUSH2 0x5C4 JUMP JUMPDEST PUSH1 0x20 DUP3 ADD SWAP1 POP SWAP2 SWAP1 POP JUMP JUMPDEST PUSH1 0x0 PUSH1 0x20 DUP3 ADD SWAP1 POP DUP2 DUP2 SUB PUSH1 0x0 DUP4 ADD MSTORE PUSH2 0x629 DUP2 PUSH2 0x5ED JUMP JUMPDEST SWAP1 POP SWAP2 SWAP1 POP JUMP JUMPDEST PUSH32 0x63616C6C20666F6F200000000000000000000000000000000000000000000000 PUSH1 0x0 DUP3 ADD MSTORE POP JUMP JUMPDEST PUSH1 0x0 PUSH2 0x666 PUSH1 0x9 DUP4 PUSH2 0x5B3 JUMP JUMPDEST SWAP2 POP PUSH2 0x671 DUP3 PUSH2 0x630 JUMP JUMPDEST PUSH1 0x20 DUP3 ADD SWAP1 POP SWAP2 SWAP1 POP JUMP JUMPDEST PUSH1 0x0 DUP2 SWAP1 POP SWAP2 SWAP1 POP JUMP JUMPDEST PUSH1 0x0 PUSH1 0xFF DUP3 AND SWAP1 POP SWAP2 SWAP1 POP JUMP JUMPDEST PUSH1 0x0 DUP2 SWAP1 POP SWAP2 SWAP1 POP JUMP JUMPDEST PUSH1 0x0 PUSH2 0x6B8 PUSH2 0x6B3 PUSH2 0x6AE DUP5 PUSH2 0x67C JUMP JUMPDEST PUSH2 0x693 JUMP JUMPDEST PUSH2 0x686 JUMP JUMPDEST SWAP1 POP SWAP2 SWAP1 POP JUMP JUMPDEST PUSH2 0x6C8 DUP2 PUSH2 0x69D JUMP JUMPDEST DUP3 MSTORE POP POP JUMP JUMPDEST PUSH1 0x0 PUSH1 0x40 DUP3 ADD SWAP1 POP DUP2 DUP2 SUB PUSH1 0x0 DUP4 ADD MSTORE PUSH2 0x6E7 DUP2 PUSH2 0x659 JUMP JUMPDEST SWAP1 POP PUSH2 0x6F6 PUSH1 0x20 DUP4 ADD DUP5 PUSH2 0x6BF JUMP JUMPDEST SWAP3 SWAP2 POP POP JUMP JUMPDEST PUSH32 0x63616C6C206661696C6564000000000000000000000000000000000000000000 PUSH1 0x0 DUP3 ADD MSTORE POP JUMP JUMPDEST PUSH1 0x0 PUSH2 0x732 PUSH1 0xB DUP4 PUSH2 0x5B3 JUMP JUMPDEST SWAP2 POP PUSH2 0x73D DUP3 PUSH2 0x6FC JUMP JUMPDEST PUSH1 0x20 DUP3 ADD SWAP1 POP SWAP2 SWAP1 POP JUMP JUMPDEST PUSH1 0x0 PUSH1 0x20 DUP3 ADD SWAP1 POP DUP2 DUP2 SUB PUSH1 0x0 DUP4 ADD MSTORE PUSH2 0x761 DUP2 PUSH2 0x725 JUMP JUMPDEST SWAP1 POP SWAP2 SWAP1 POP JUMP JUMPDEST PUSH32 0x4E487B7100000000000000000000000000000000000000000000000000000000 PUSH1 0x0 MSTORE PUSH1 0x41 PUSH1 0x4 MSTORE PUSH1 0x24 PUSH1 0x0 REVERT JUMPDEST PUSH1 0x0 DUP2 SWAP1 POP DUP2 PUSH1 0x0 MSTORE PUSH1 0x20 PUSH1 0x0 KECCAK256 SWAP1 POP SWAP2 SWAP1 POP JUMP JUMPDEST PUSH1 0x0 PUSH1 0x20 PUSH1 0x1F DUP4 ADD DIV SWAP1 POP SWAP2 SWAP1 POP JUMP JUMPDEST PUSH1 0x0 DUP3 DUP3 SHL SWAP1 POP SWAP3 SWAP2 POP POP JUMP JUMPDEST PUSH1 0x0 PUSH1 0x8 DUP4 MUL PUSH2 0x7F9 PUSH32 0xFFFFFFFFFFFFFFFFFFFFFFFFFFFFFFFFFFFFFFFFFFFFFFFFFFFFFFFFFFFFFFFF DUP3 PUSH2 0x7BC JUMP JUMPDEST PUSH2 0x803 DUP7 DUP4 PUSH2 0x7BC JUMP JUMPDEST SWAP6 POP DUP1 NOT DUP5 AND SWAP4 POP DUP1 DUP7 AND DUP5 OR SWAP3 POP POP POP SWAP4 SWAP3 POP POP POP JUMP JUMPDEST PUSH1 0x0 DUP2 SWAP1 POP SWAP2 SWAP1 POP JUMP JUMPDEST PUSH1 0x0 PUSH2 0x840 PUSH2 0x83B PUSH2 0x836 DUP5 PUSH2 0x81B JUMP JUMPDEST PUSH2 0x693 JUMP JUMPDEST PUSH2 0x81B JUMP JUMPDEST SWAP1 POP SWAP2 SWAP1 POP JUMP JUMPDEST PUSH1 0x0 DUP2 SWAP1 POP SWAP2 SWAP1 POP JUMP JUMPDEST PUSH2 0x85A DUP4 PUSH2 0x825 JUMP JUMPDEST PUSH2 0x86E PUSH2 0x866 DUP3 PUSH2 0x847 JUMP JUMPDEST DUP5 DUP5 SLOAD PUSH2 0x7C9 JUMP JUMPDEST DUP3 SSTORE POP POP POP POP JUMP JUMPDEST PUSH1 0x0 SWAP1 JUMP JUMPDEST PUSH2 0x883 PUSH2 0x876 JUMP JUMPDEST PUSH2 0x88E DUP2 DUP5 DUP5 PUSH2 0x851 JUMP JUMPDEST POP POP POP JUMP JUMPDEST JUMPDEST DUP2 DUP2 LT ISZERO PUSH2 0x8B2 JUMPI PUSH2 0x8A7 PUSH1 0x0 DUP3 PUSH2 0x87B JUMP JUMPDEST PUSH1 0x1 DUP2 ADD SWAP1 POP PUSH2 0x894 JUMP JUMPDEST POP POP JUMP JUMPDEST PUSH1 0x1F DUP3 GT ISZERO PUSH2 0x8F7 JUMPI PUSH2 0x8C8 DUP2 PUSH2 0x797 JUMP JUMPDEST PUSH2 0x8D1 DUP5 PUSH2 0x7AC JUMP JUMPDEST DUP2 ADD PUSH1 0x20 DUP6 LT ISZERO PUSH2 0x8E0 JUMPI DUP2 SWAP1 POP JUMPDEST PUSH2 0x8F4 PUSH2 0x8EC DUP6 PUSH2 0x7AC JUMP JUMPDEST DUP4 ADD DUP3 PUSH2 0x893 JUMP JUMPDEST POP POP JUMPDEST POP POP POP JUMP JUMPDEST PUSH1 0x0 DUP3 DUP3 SHR SWAP1 POP SWAP3 SWAP2 POP POP JUMP JUMPDEST PUSH1 0x0 PUSH2 0x91A PUSH1 0x0 NOT DUP5 PUSH1 0x8 MUL PUSH2 0x8FC JUMP JUMPDEST NOT DUP1 DUP4 AND SWAP2 POP POP SWAP3 SWAP2 POP POP JUMP JUMPDEST PUSH1 0x0 PUSH2 0x933 DUP4 DUP4 PUSH2 0x909 JUMP JUMPDEST SWAP2 POP DUP3 PUSH1 0x2 MUL DUP3 OR SWAP1 POP SWAP3 SWAP2 POP POP JUMP JUMPDEST PUSH2 0x94C DUP3 PUSH2 0x3BE JUMP JUMPDEST PUSH8 0xFFFFFFFFFFFFFFFF DUP2 GT ISZERO PUSH2 0x965 JUMPI PUSH2 0x964 PUSH2 0x768 JUMP JUMPDEST JUMPDEST PUSH2 0x96F DUP3 SLOAD PUSH2 0x52F JUMP JUMPDEST PUSH2 0x97A DUP3 DUP3 DUP6 PUSH2 0x8B6 JUMP JUMPDEST PUSH1 0x0 PUSH1 0x20 SWAP1 POP PUSH1 0x1F DUP4 GT PUSH1 0x1 DUP2 EQ PUSH2 0x9AD JUMPI PUSH1 0x0 DUP5 ISZERO PUSH2 0x99B JUMPI DUP3 DUP8 ADD MLOAD SWAP1 POP JUMPDEST PUSH2 0x9A5 DUP6 DUP3 PUSH2 0x927 JUMP JUMPDEST DUP7 SSTORE POP PUSH2 0xA0D JUMP JUMPDEST PUSH1 0x1F NOT DUP5 AND PUSH2 0x9BB DUP7 PUSH2 0x797 JUMP JUMPDEST PUSH1 0x0 JUMPDEST DUP3 DUP2 LT ISZERO PUSH2 0x9E3 JUMPI DUP5 DUP10 ADD MLOAD DUP3 SSTORE PUSH1 0x1 DUP3 ADD SWAP2 POP PUSH1 0x20 DUP6 ADD SWAP5 POP PUSH1 0x20 DUP2 ADD SWAP1 POP PUSH2 0x9BE JUMP JUMPDEST DUP7 DUP4 LT ISZERO PUSH2 0xA00 JUMPI DUP5 DUP10 ADD MLOAD PUSH2 0x9FC PUSH1 0x1F DUP10 AND DUP3 PUSH2 0x909 JUMP JUMPDEST DUP4 SSTORE POP JUMPDEST PUSH1 0x1 PUSH1 0x2 DUP9 MUL ADD DUP9 SSTORE POP POP POP JUMPDEST POP POP POP POP POP POP JUMP INVALID LOG2 PUSH5 0x6970667358 0x22 SLT KECCAK256 CHAINID CALLDATASIZE 0xBA SHL DUP13 0xC9 0xB3 PUSH2 0xE7DC 0xAA SDIV EXTCODEHASH PUSH29 0x457157C239F573E414D3A6B83E0394EDFC4064736F6C63430008120033 "
				},
				"gasEstimates": {
					"creation": {
						"codeDepositCost": "527000",
						"executionCost": "562",
						"totalCost": "527562"
					},
					"external": {
						"callDoesNotExist(address)": "infinite",
						"callfoo(address)": "infinite",
						"data()": "infinite"
					}
				},
				"methodIdentifiers": {
					"callDoesNotExist(address)": "b0feeff6",
					"callfoo(address)": "b9009d44",
					"data()": "73d4a13a"
				}
			},
			"storageLayout": {
				"storage": [
					{
						"astId": 36,
						"contract": "Call.sol:Call",
						"label": "data",
						"offset": 0,
						"slot": "0",
						"type": "t_bytes_storage"
					}
				],
				"types": {
					"t_bytes_storage": {
						"encoding": "bytes",
						"label": "bytes",
						"numberOfBytes": "32"
					}
				}
			},
			"userdoc": {
				"kind": "user",
				"methods": {},
				"version": 1
			}
		}
	}
}