{
	"Upgradeable_Proxy_Pattern.sol": {
		"TestSlot": {
			"abi": [
				{
					"inputs": [],
					"name": "SLOT",
					"outputs": [
						{
							"internalType": "bytes32",
							"name": "",
							"type": "bytes32"
						}
					],
					"stateMutability": "view",
					"type": "function"
				},
				{
					"inputs": [],
					"name": "getSlot",
					"outputs": [
						{
							"internalType": "address",
							"name": "",
							"type": "address"
						}
					],
					"stateMutability": "view",
					"type": "function"
				},
				{
					"inputs": [
						{
							"internalType": "address",
							"name": "_addr",
							"type": "address"
						}
					],
					"name": "writeLot",
					"outputs": [],
					"stateMutability": "nonpayable",
					"type": "function"
				}
			],
			"devdoc": {
				"kind": "dev",
				"methods": {},
				"version": 1
			},
			"evm": {
				"assembly": "    /* \"Upgradeable_Proxy_Pattern.sol\":5607:5928  contract TestSlot {... */\n  mstore(0x40, 0x80)\n  callvalue\n  dup1\n  iszero\n  tag_1\n  jumpi\n  0x00\n  dup1\n  revert\ntag_1:\n  pop\n  dataSize(sub_0)\n  dup1\n  dataOffset(sub_0)\n  0x00\n  codecopy\n  0x00\n  return\nstop\n\nsub_0: assembly {\n        /* \"Upgradeable_Proxy_Pattern.sol\":5607:5928  contract TestSlot {... */\n      mstore(0x40, 0x80)\n      callvalue\n      dup1\n      iszero\n      tag_1\n      jumpi\n      0x00\n      dup1\n      revert\n    tag_1:\n      pop\n      jumpi(tag_2, lt(calldatasize, 0x04))\n      shr(0xe0, calldataload(0x00))\n      dup1\n      0x6c877c84\n      eq\n      tag_3\n      jumpi\n      dup1\n      0x736e43cc\n      eq\n      tag_4\n      jumpi\n      dup1\n      0xad9d94e7\n      eq\n      tag_5\n      jumpi\n    tag_2:\n      0x00\n      dup1\n      revert\n        /* \"Upgradeable_Proxy_Pattern.sol\":5694:5809  function getSlot() external view returns (address) {... */\n    tag_3:\n      tag_6\n      tag_7\n      jump\t// in\n    tag_6:\n      mload(0x40)\n      tag_8\n      swap2\n      swap1\n      tag_9\n      jump\t// in\n    tag_8:\n      mload(0x40)\n      dup1\n      swap2\n      sub\n      swap1\n      return\n        /* \"Upgradeable_Proxy_Pattern.sol\":5632:5685  bytes32 public constant SLOT = keccak256(\"TEST_SLOT\") */\n    tag_4:\n      tag_10\n      tag_11\n      jump\t// in\n    tag_10:\n      mload(0x40)\n      tag_12\n      swap2\n      swap1\n      tag_13\n      jump\t// in\n    tag_12:\n      mload(0x40)\n      dup1\n      swap2\n      sub\n      swap1\n      return\n        /* \"Upgradeable_Proxy_Pattern.sol\":5818:5925  function writeLot(address _addr) external {... */\n    tag_5:\n      tag_14\n      0x04\n      dup1\n      calldatasize\n      sub\n      dup2\n      add\n      swap1\n      tag_15\n      swap2\n      swap1\n      tag_16\n      jump\t// in\n    tag_15:\n      tag_17\n      jump\t// in\n    tag_14:\n      stop\n        /* \"Upgradeable_Proxy_Pattern.sol\":5694:5809  function getSlot() external view returns (address) {... */\n    tag_7:\n        /* \"Upgradeable_Proxy_Pattern.sol\":5736:5743  address */\n      0x00\n        /* \"Upgradeable_Proxy_Pattern.sol\":5763:5795  StorageSlot.getaddressslot(SLOT) */\n      tag_19\n        /* \"Upgradeable_Proxy_Pattern.sol\":5663:5685  keccak256(\"TEST_SLOT\") */\n      0xa7cb26ea17989bb9c5eb391c94c40892dcdc94bb4c381353450910ba80883e1c\n        /* \"Upgradeable_Proxy_Pattern.sol\":5763:5789  StorageSlot.getaddressslot */\n      tag_20\n        /* \"Upgradeable_Proxy_Pattern.sol\":5763:5795  StorageSlot.getaddressslot(SLOT) */\n      jump\t// in\n    tag_19:\n        /* \"Upgradeable_Proxy_Pattern.sol\":5763:5801  StorageSlot.getaddressslot(SLOT).value */\n      0x00\n      add\n      0x00\n      swap1\n      sload\n      swap1\n      0x0100\n      exp\n      swap1\n      div\n      0xffffffffffffffffffffffffffffffffffffffff\n      and\n        /* \"Upgradeable_Proxy_Pattern.sol\":5756:5801  return StorageSlot.getaddressslot(SLOT).value */\n      swap1\n      pop\n        /* \"Upgradeable_Proxy_Pattern.sol\":5694:5809  function getSlot() external view returns (address) {... */\n      swap1\n      jump\t// out\n        /* \"Upgradeable_Proxy_Pattern.sol\":5632:5685  bytes32 public constant SLOT = keccak256(\"TEST_SLOT\") */\n    tag_11:\n        /* \"Upgradeable_Proxy_Pattern.sol\":5663:5685  keccak256(\"TEST_SLOT\") */\n      0xa7cb26ea17989bb9c5eb391c94c40892dcdc94bb4c381353450910ba80883e1c\n        /* \"Upgradeable_Proxy_Pattern.sol\":5632:5685  bytes32 public constant SLOT = keccak256(\"TEST_SLOT\") */\n      dup2\n      jump\t// out\n        /* \"Upgradeable_Proxy_Pattern.sol\":5818:5925  function writeLot(address _addr) external {... */\n    tag_17:\n        /* \"Upgradeable_Proxy_Pattern.sol\":5912:5917  _addr */\n      dup1\n        /* \"Upgradeable_Proxy_Pattern.sol\":5871:5903  StorageSlot.getaddressslot(SLOT) */\n      tag_22\n        /* \"Upgradeable_Proxy_Pattern.sol\":5663:5685  keccak256(\"TEST_SLOT\") */\n      0xa7cb26ea17989bb9c5eb391c94c40892dcdc94bb4c381353450910ba80883e1c\n        /* \"Upgradeable_Proxy_Pattern.sol\":5871:5897  StorageSlot.getaddressslot */\n      tag_20\n        /* \"Upgradeable_Proxy_Pattern.sol\":5871:5903  StorageSlot.getaddressslot(SLOT) */\n      jump\t// in\n    tag_22:\n        /* \"Upgradeable_Proxy_Pattern.sol\":5871:5909  StorageSlot.getaddressslot(SLOT).value */\n      0x00\n      add\n      0x00\n        /* \"Upgradeable_Proxy_Pattern.sol\":5871:5917  StorageSlot.getaddressslot(SLOT).value = _addr */\n      0x0100\n      exp\n      dup2\n      sload\n      dup2\n      0xffffffffffffffffffffffffffffffffffffffff\n      mul\n      not\n      and\n      swap1\n      dup4\n      0xffffffffffffffffffffffffffffffffffffffff\n      and\n      mul\n      or\n      swap1\n      sstore\n      pop\n        /* \"Upgradeable_Proxy_Pattern.sol\":5818:5925  function writeLot(address _addr) external {... */\n      pop\n      jump\t// out\n        /* \"Upgradeable_Proxy_Pattern.sol\":5450:5600  function getaddressslot(bytes32 slot) internal pure returns(AddressSlot storage r) {... */\n    tag_20:\n        /* \"Upgradeable_Proxy_Pattern.sol\":5510:5531  AddressSlot storage r */\n      0x00\n        /* \"Upgradeable_Proxy_Pattern.sol\":5578:5582  slot */\n      dup2\n        /* \"Upgradeable_Proxy_Pattern.sol\":5568:5582  r.slot := slot */\n      swap1\n      pop\n        /* \"Upgradeable_Proxy_Pattern.sol\":5450:5600  function getaddressslot(bytes32 slot) internal pure returns(AddressSlot storage r) {... */\n      swap2\n      swap1\n      pop\n      jump\t// out\n        /* \"#utility.yul\":7:133   */\n    tag_24:\n        /* \"#utility.yul\":44:51   */\n      0x00\n        /* \"#utility.yul\":84:126   */\n      0xffffffffffffffffffffffffffffffffffffffff\n        /* \"#utility.yul\":77:82   */\n      dup3\n        /* \"#utility.yul\":73:127   */\n      and\n        /* \"#utility.yul\":62:127   */\n      swap1\n      pop\n        /* \"#utility.yul\":7:133   */\n      swap2\n      swap1\n      pop\n      jump\t// out\n        /* \"#utility.yul\":139:235   */\n    tag_25:\n        /* \"#utility.yul\":176:183   */\n      0x00\n        /* \"#utility.yul\":205:229   */\n      tag_37\n        /* \"#utility.yul\":223:228   */\n      dup3\n        /* \"#utility.yul\":205:229   */\n      tag_24\n      jump\t// in\n    tag_37:\n        /* \"#utility.yul\":194:229   */\n      swap1\n      pop\n        /* \"#utility.yul\":139:235   */\n      swap2\n      swap1\n      pop\n      jump\t// out\n        /* \"#utility.yul\":241:359   */\n    tag_26:\n        /* \"#utility.yul\":328:352   */\n      tag_39\n        /* \"#utility.yul\":346:351   */\n      dup2\n        /* \"#utility.yul\":328:352   */\n      tag_25\n      jump\t// in\n    tag_39:\n        /* \"#utility.yul\":323:326   */\n      dup3\n        /* \"#utility.yul\":316:353   */\n      mstore\n        /* \"#utility.yul\":241:359   */\n      pop\n      pop\n      jump\t// out\n        /* \"#utility.yul\":365:587   */\n    tag_9:\n        /* \"#utility.yul\":458:462   */\n      0x00\n        /* \"#utility.yul\":496:498   */\n      0x20\n        /* \"#utility.yul\":485:494   */\n      dup3\n        /* \"#utility.yul\":481:499   */\n      add\n        /* \"#utility.yul\":473:499   */\n      swap1\n      pop\n        /* \"#utility.yul\":509:580   */\n      tag_41\n        /* \"#utility.yul\":577:578   */\n      0x00\n        /* \"#utility.yul\":566:575   */\n      dup4\n        /* \"#utility.yul\":562:579   */\n      add\n        /* \"#utility.yul\":553:559   */\n      dup5\n        /* \"#utility.yul\":509:580   */\n      tag_26\n      jump\t// in\n    tag_41:\n        /* \"#utility.yul\":365:587   */\n      swap3\n      swap2\n      pop\n      pop\n      jump\t// out\n        /* \"#utility.yul\":593:670   */\n    tag_27:\n        /* \"#utility.yul\":630:637   */\n      0x00\n        /* \"#utility.yul\":659:664   */\n      dup2\n        /* \"#utility.yul\":648:664   */\n      swap1\n      pop\n        /* \"#utility.yul\":593:670   */\n      swap2\n      swap1\n      pop\n      jump\t// out\n        /* \"#utility.yul\":676:794   */\n    tag_28:\n        /* \"#utility.yul\":763:787   */\n      tag_44\n        /* \"#utility.yul\":781:786   */\n      dup2\n        /* \"#utility.yul\":763:787   */\n      tag_27\n      jump\t// in\n    tag_44:\n        /* \"#utility.yul\":758:761   */\n      dup3\n        /* \"#utility.yul\":751:788   */\n      mstore\n        /* \"#utility.yul\":676:794   */\n      pop\n      pop\n      jump\t// out\n        /* \"#utility.yul\":800:1022   */\n    tag_13:\n        /* \"#utility.yul\":893:897   */\n      0x00\n        /* \"#utility.yul\":931:933   */\n      0x20\n        /* \"#utility.yul\":920:929   */\n      dup3\n        /* \"#utility.yul\":916:934   */\n      add\n        /* \"#utility.yul\":908:934   */\n      swap1\n      pop\n        /* \"#utility.yul\":944:1015   */\n      tag_46\n        /* \"#utility.yul\":1012:1013   */\n      0x00\n        /* \"#utility.yul\":1001:1010   */\n      dup4\n        /* \"#utility.yul\":997:1014   */\n      add\n        /* \"#utility.yul\":988:994   */\n      dup5\n        /* \"#utility.yul\":944:1015   */\n      tag_28\n      jump\t// in\n    tag_46:\n        /* \"#utility.yul\":800:1022   */\n      swap3\n      swap2\n      pop\n      pop\n      jump\t// out\n        /* \"#utility.yul\":1109:1226   */\n    tag_30:\n        /* \"#utility.yul\":1218:1219   */\n      0x00\n        /* \"#utility.yul\":1215:1216   */\n      dup1\n        /* \"#utility.yul\":1208:1220   */\n      revert\n        /* \"#utility.yul\":1355:1477   */\n    tag_32:\n        /* \"#utility.yul\":1428:1452   */\n      tag_51\n        /* \"#utility.yul\":1446:1451   */\n      dup2\n        /* \"#utility.yul\":1428:1452   */\n      tag_25\n      jump\t// in\n    tag_51:\n        /* \"#utility.yul\":1421:1426   */\n      dup2\n        /* \"#utility.yul\":1418:1453   */\n      eq\n        /* \"#utility.yul\":1408:1471   */\n      tag_52\n      jumpi\n        /* \"#utility.yul\":1467:1468   */\n      0x00\n        /* \"#utility.yul\":1464:1465   */\n      dup1\n        /* \"#utility.yul\":1457:1469   */\n      revert\n        /* \"#utility.yul\":1408:1471   */\n    tag_52:\n        /* \"#utility.yul\":1355:1477   */\n      pop\n      jump\t// out\n        /* \"#utility.yul\":1483:1622   */\n    tag_33:\n        /* \"#utility.yul\":1529:1534   */\n      0x00\n        /* \"#utility.yul\":1567:1573   */\n      dup2\n        /* \"#utility.yul\":1554:1574   */\n      calldataload\n        /* \"#utility.yul\":1545:1574   */\n      swap1\n      pop\n        /* \"#utility.yul\":1583:1616   */\n      tag_54\n        /* \"#utility.yul\":1610:1615   */\n      dup2\n        /* \"#utility.yul\":1583:1616   */\n      tag_32\n      jump\t// in\n    tag_54:\n        /* \"#utility.yul\":1483:1622   */\n      swap3\n      swap2\n      pop\n      pop\n      jump\t// out\n        /* \"#utility.yul\":1628:1957   */\n    tag_16:\n        /* \"#utility.yul\":1687:1693   */\n      0x00\n        /* \"#utility.yul\":1736:1738   */\n      0x20\n        /* \"#utility.yul\":1724:1733   */\n      dup3\n        /* \"#utility.yul\":1715:1722   */\n      dup5\n        /* \"#utility.yul\":1711:1734   */\n      sub\n        /* \"#utility.yul\":1707:1739   */\n      slt\n        /* \"#utility.yul\":1704:1823   */\n      iszero\n      tag_56\n      jumpi\n        /* \"#utility.yul\":1742:1821   */\n      tag_57\n      tag_30\n      jump\t// in\n    tag_57:\n        /* \"#utility.yul\":1704:1823   */\n    tag_56:\n        /* \"#utility.yul\":1862:1863   */\n      0x00\n        /* \"#utility.yul\":1887:1940   */\n      tag_58\n        /* \"#utility.yul\":1932:1939   */\n      dup5\n        /* \"#utility.yul\":1923:1929   */\n      dup3\n        /* \"#utility.yul\":1912:1921   */\n      dup6\n        /* \"#utility.yul\":1908:1930   */\n      add\n        /* \"#utility.yul\":1887:1940   */\n      tag_33\n      jump\t// in\n    tag_58:\n        /* \"#utility.yul\":1877:1940   */\n      swap2\n      pop\n        /* \"#utility.yul\":1833:1950   */\n      pop\n        /* \"#utility.yul\":1628:1957   */\n      swap3\n      swap2\n      pop\n      pop\n      jump\t// out\n\n    auxdata: 0xa2646970667358221220d1b9eeccd0f636950db33bf05b5a675a36641939972edcef5128d662aa92395464736f6c63430008120033\n}\n",
				"bytecode": {
					"linkReferences": {},
					"object": "608060405234801561001057600080fd5b506102b2806100206000396000f3fe608060405234801561001057600080fd5b50600436106100415760003560e01c80636c877c8414610046578063736e43cc14610064578063ad9d94e714610082575b600080fd5b61004e61009e565b60405161005b91906101cf565b60405180910390f35b61006c6100f2565b6040516100799190610203565b60405180910390f35b61009c6004803603810190610097919061024f565b610116565b005b60006100c97fa7cb26ea17989bb9c5eb391c94c40892dcdc94bb4c381353450910ba80883e1c610184565b60000160009054906101000a900473ffffffffffffffffffffffffffffffffffffffff16905090565b7fa7cb26ea17989bb9c5eb391c94c40892dcdc94bb4c381353450910ba80883e1c81565b806101407fa7cb26ea17989bb9c5eb391c94c40892dcdc94bb4c381353450910ba80883e1c610184565b60000160006101000a81548173ffffffffffffffffffffffffffffffffffffffff021916908373ffffffffffffffffffffffffffffffffffffffff16021790555050565b6000819050919050565b600073ffffffffffffffffffffffffffffffffffffffff82169050919050565b60006101b98261018e565b9050919050565b6101c9816101ae565b82525050565b60006020820190506101e460008301846101c0565b92915050565b6000819050919050565b6101fd816101ea565b82525050565b600060208201905061021860008301846101f4565b92915050565b600080fd5b61022c816101ae565b811461023757600080fd5b50565b60008135905061024981610223565b92915050565b6000602082840312156102655761026461021e565b5b60006102738482850161023a565b9150509291505056fea2646970667358221220d1b9eeccd0f636950db33bf05b5a675a36641939972edcef5128d662aa92395464736f6c63430008120033",
					"opcodes": "PUSH1 0x80 PUSH1 0x40 MSTORE CALLVALUE DUP1 ISZERO PUSH2 0x10 JUMPI PUSH1 0x0 DUP1 REVERT JUMPDEST POP PUSH2 0x2B2 DUP1 PUSH2 0x20 PUSH1 0x0 CODECOPY PUSH1 0x0 RETURN INVALID PUSH1 0x80 PUSH1 0x40 MSTORE CALLVALUE DUP1 ISZERO PUSH2 0x10 JUMPI PUSH1 0x0 DUP1 REVERT JUMPDEST POP PUSH1 0x4 CALLDATASIZE LT PUSH2 0x41 JUMPI PUSH1 0x0 CALLDATALOAD PUSH1 0xE0 SHR DUP1 PUSH4 0x6C877C84 EQ PUSH2 0x46 JUMPI DUP1 PUSH4 0x736E43CC EQ PUSH2 0x64 JUMPI DUP1 PUSH4 0xAD9D94E7 EQ PUSH2 0x82 JUMPI JUMPDEST PUSH1 0x0 DUP1 REVERT JUMPDEST PUSH2 0x4E PUSH2 0x9E JUMP JUMPDEST PUSH1 0x40 MLOAD PUSH2 0x5B SWAP2 SWAP1 PUSH2 0x1CF JUMP JUMPDEST PUSH1 0x40 MLOAD DUP1 SWAP2 SUB SWAP1 RETURN JUMPDEST PUSH2 0x6C PUSH2 0xF2 JUMP JUMPDEST PUSH1 0x40 MLOAD PUSH2 0x79 SWAP2 SWAP1 PUSH2 0x203 JUMP JUMPDEST PUSH1 0x40 MLOAD DUP1 SWAP2 SUB SWAP1 RETURN JUMPDEST PUSH2 0x9C PUSH1 0x4 DUP1 CALLDATASIZE SUB DUP2 ADD SWAP1 PUSH2 0x97 SWAP2 SWAP1 PUSH2 0x24F JUMP JUMPDEST PUSH2 0x116 JUMP JUMPDEST STOP JUMPDEST PUSH1 0x0 PUSH2 0xC9 PUSH32 0xA7CB26EA17989BB9C5EB391C94C40892DCDC94BB4C381353450910BA80883E1C PUSH2 0x184 JUMP JUMPDEST PUSH1 0x0 ADD PUSH1 0x0 SWAP1 SLOAD SWAP1 PUSH2 0x100 EXP SWAP1 DIV PUSH20 0xFFFFFFFFFFFFFFFFFFFFFFFFFFFFFFFFFFFFFFFF AND SWAP1 POP SWAP1 JUMP JUMPDEST PUSH32 0xA7CB26EA17989BB9C5EB391C94C40892DCDC94BB4C381353450910BA80883E1C DUP2 JUMP JUMPDEST DUP1 PUSH2 0x140 PUSH32 0xA7CB26EA17989BB9C5EB391C94C40892DCDC94BB4C381353450910BA80883E1C PUSH2 0x184 JUMP JUMPDEST PUSH1 0x0 ADD PUSH1 0x0 PUSH2 0x100 EXP DUP2 SLOAD DUP2 PUSH20 0xFFFFFFFFFFFFFFFFFFFFFFFFFFFFFFFFFFFFFFFF MUL NOT AND SWAP1 DUP4 PUSH20 0xFFFFFFFFFFFFFFFFFFFFFFFFFFFFFFFFFFFFFFFF AND MUL OR SWAP1 SSTORE POP POP JUMP JUMPDEST PUSH1 0x0 DUP2 SWAP1 POP SWAP2 SWAP1 POP JUMP JUMPDEST PUSH1 0x0 PUSH20 0xFFFFFFFFFFFFFFFFFFFFFFFFFFFFFFFFFFFFFFFF DUP3 AND SWAP1 POP SWAP2 SWAP1 POP JUMP JUMPDEST PUSH1 0x0 PUSH2 0x1B9 DUP3 PUSH2 0x18E JUMP JUMPDEST SWAP1 POP SWAP2 SWAP1 POP JUMP JUMPDEST PUSH2 0x1C9 DUP2 PUSH2 0x1AE JUMP JUMPDEST DUP3 MSTORE POP POP JUMP JUMPDEST PUSH1 0x0 PUSH1 0x20 DUP3 ADD SWAP1 POP PUSH2 0x1E4 PUSH1 0x0 DUP4 ADD DUP5 PUSH2 0x1C0 JUMP JUMPDEST SWAP3 SWAP2 POP POP JUMP JUMPDEST PUSH1 0x0 DUP2 SWAP1 POP SWAP2 SWAP1 POP JUMP JUMPDEST PUSH2 0x1FD DUP2 PUSH2 0x1EA JUMP JUMPDEST DUP3 MSTORE POP POP JUMP JUMPDEST PUSH1 0x0 PUSH1 0x20 DUP3 ADD SWAP1 POP PUSH2 0x218 PUSH1 0x0 DUP4 ADD DUP5 PUSH2 0x1F4 JUMP JUMPDEST SWAP3 SWAP2 POP POP JUMP JUMPDEST PUSH1 0x0 DUP1 REVERT JUMPDEST PUSH2 0x22C DUP2 PUSH2 0x1AE JUMP JUMPDEST DUP2 EQ PUSH2 0x237 JUMPI PUSH1 0x0 DUP1 REVERT JUMPDEST POP JUMP JUMPDEST PUSH1 0x0 DUP2 CALLDATALOAD SWAP1 POP PUSH2 0x249 DUP2 PUSH2 0x223 JUMP JUMPDEST SWAP3 SWAP2 POP POP JUMP JUMPDEST PUSH1 0x0 PUSH1 0x20 DUP3 DUP5 SUB SLT ISZERO PUSH2 0x265 JUMPI PUSH2 0x264 PUSH2 0x21E JUMP JUMPDEST JUMPDEST PUSH1 0x0 PUSH2 0x273 DUP5 DUP3 DUP6 ADD PUSH2 0x23A JUMP JUMPDEST SWAP2 POP POP SWAP3 SWAP2 POP POP JUMP INVALID LOG2 PUSH5 0x6970667358 0x22 SLT KECCAK256 0xD1 0xB9 0xEE 0xCC 0xD0 0xF6 CALLDATASIZE SWAP6 0xD 0xB3 EXTCODESIZE CREATE JUMPDEST GAS PUSH8 0x5A36641939972EDC 0xEF MLOAD 0x28 0xD6 PUSH3 0xAA9239 SLOAD PUSH5 0x736F6C6343 STOP ADDMOD SLT STOP CALLER "
				},
				"gasEstimates": {
					"creation": {
						"codeDepositCost": "138000",
						"executionCost": "183",
						"totalCost": "138183"
					},
					"external": {
						"SLOT()": "329",
						"getSlot()": "2549",
						"writeLot(address)": "24793"
					}
				},
				"methodIdentifiers": {
					"SLOT()": "736e43cc",
					"getSlot()": "6c877c84",
					"writeLot(address)": "ad9d94e7"
				}
			},
			"storageLayout": {
				"storage": [],
				"types": null
			},
			"userdoc": {
				"kind": "user",
				"methods": {},
				"version": 1
			}
		}
	}
}