{
	"Upgradeable_Proxy_Pattern.sol": {
		"CounterV1": {
			"abi": [
				{
					"inputs": [],
					"name": "admin",
					"outputs": [
						{
							"internalType": "address",
							"name": "",
							"type": "address"
						}
					],
					"stateMutability": "view",
					"type": "function"
				},
				{
					"inputs": [],
					"name": "count",
					"outputs": [
						{
							"internalType": "uint256",
							"name": "",
							"type": "uint256"
						}
					],
					"stateMutability": "view",
					"type": "function"
				},
				{
					"inputs": [],
					"name": "implementation",
					"outputs": [
						{
							"internalType": "address",
							"name": "",
							"type": "address"
						}
					],
					"stateMutability": "view",
					"type": "function"
				},
				{
					"inputs": [],
					"name": "inc",
					"outputs": [],
					"stateMutability": "nonpayable",
					"type": "function"
				}
			],
			"devdoc": {
				"kind": "dev",
				"methods": {},
				"version": 1
			},
			"evm": {
				"assembly": "    /* \"Upgradeable_Proxy_Pattern.sol\":288:591  contract CounterV1 {... */\n  mstore(0x40, 0x80)\n  callvalue\n  dup1\n  iszero\n  tag_1\n  jumpi\n  0x00\n  dup1\n  revert\ntag_1:\n  pop\n  dataSize(sub_0)\n  dup1\n  dataOffset(sub_0)\n  0x00\n  codecopy\n  0x00\n  return\nstop\n\nsub_0: assembly {\n        /* \"Upgradeable_Proxy_Pattern.sol\":288:591  contract CounterV1 {... */\n      mstore(0x40, 0x80)\n      callvalue\n      dup1\n      iszero\n      tag_1\n      jumpi\n      0x00\n      dup1\n      revert\n    tag_1:\n      pop\n      jumpi(tag_2, lt(calldatasize, 0x04))\n      shr(0xe0, calldataload(0x00))\n      dup1\n      0x06661abd\n      eq\n      tag_3\n      jumpi\n      dup1\n      0x371303c0\n      eq\n      tag_4\n      jumpi\n      dup1\n      0x5c60da1b\n      eq\n      tag_5\n      jumpi\n      dup1\n      0xf851a440\n      eq\n      tag_6\n      jumpi\n    tag_2:\n      0x00\n      dup1\n      revert\n        /* \"Upgradeable_Proxy_Pattern.sol\":314:331  uint public count */\n    tag_3:\n      tag_7\n      tag_8\n      jump\t// in\n    tag_7:\n      mload(0x40)\n      tag_9\n      swap2\n      swap1\n      tag_10\n      jump\t// in\n    tag_9:\n      mload(0x40)\n      dup1\n      swap2\n      sub\n      swap1\n      return\n        /* \"Upgradeable_Proxy_Pattern.sol\":340:393  function inc() external {... */\n    tag_4:\n      tag_11\n      tag_12\n      jump\t// in\n    tag_11:\n      stop\n        /* \"Upgradeable_Proxy_Pattern.sol\":494:588  function implementation() external view returns (address) {... */\n    tag_5:\n      tag_13\n      tag_14\n      jump\t// in\n    tag_13:\n      mload(0x40)\n      tag_15\n      swap2\n      swap1\n      tag_16\n      jump\t// in\n    tag_15:\n      mload(0x40)\n      dup1\n      swap2\n      sub\n      swap1\n      return\n        /* \"Upgradeable_Proxy_Pattern.sol\":401:486  function admin() external view returns (address) {... */\n    tag_6:\n      tag_17\n      tag_18\n      jump\t// in\n    tag_17:\n      mload(0x40)\n      tag_19\n      swap2\n      swap1\n      tag_16\n      jump\t// in\n    tag_19:\n      mload(0x40)\n      dup1\n      swap2\n      sub\n      swap1\n      return\n        /* \"Upgradeable_Proxy_Pattern.sol\":314:331  uint public count */\n    tag_8:\n      sload(0x00)\n      dup2\n      jump\t// out\n        /* \"Upgradeable_Proxy_Pattern.sol\":340:393  function inc() external {... */\n    tag_12:\n        /* \"Upgradeable_Proxy_Pattern.sol\":384:385  1 */\n      0x01\n        /* \"Upgradeable_Proxy_Pattern.sol\":375:380  count */\n      0x00\n      dup1\n        /* \"Upgradeable_Proxy_Pattern.sol\":375:385  count += 1 */\n      dup3\n      dup3\n      sload\n      tag_21\n      swap2\n      swap1\n      tag_22\n      jump\t// in\n    tag_21:\n      swap3\n      pop\n      pop\n      dup2\n      swap1\n      sstore\n      pop\n        /* \"Upgradeable_Proxy_Pattern.sol\":340:393  function inc() external {... */\n      jump\t// out\n        /* \"Upgradeable_Proxy_Pattern.sol\":494:588  function implementation() external view returns (address) {... */\n    tag_14:\n        /* \"Upgradeable_Proxy_Pattern.sol\":543:550  address */\n      0x00\n        /* \"Upgradeable_Proxy_Pattern.sol\":578:579  2 */\n      0x02\n        /* \"Upgradeable_Proxy_Pattern.sol\":563:580  return address(2) */\n      swap1\n      pop\n        /* \"Upgradeable_Proxy_Pattern.sol\":494:588  function implementation() external view returns (address) {... */\n      swap1\n      jump\t// out\n        /* \"Upgradeable_Proxy_Pattern.sol\":401:486  function admin() external view returns (address) {... */\n    tag_18:\n        /* \"Upgradeable_Proxy_Pattern.sol\":441:448  address */\n      0x00\n        /* \"Upgradeable_Proxy_Pattern.sol\":476:477  1 */\n      0x01\n        /* \"Upgradeable_Proxy_Pattern.sol\":461:478  return address(1) */\n      swap1\n      pop\n        /* \"Upgradeable_Proxy_Pattern.sol\":401:486  function admin() external view returns (address) {... */\n      swap1\n      jump\t// out\n        /* \"#utility.yul\":7:84   */\n    tag_25:\n        /* \"#utility.yul\":44:51   */\n      0x00\n        /* \"#utility.yul\":73:78   */\n      dup2\n        /* \"#utility.yul\":62:78   */\n      swap1\n      pop\n        /* \"#utility.yul\":7:84   */\n      swap2\n      swap1\n      pop\n      jump\t// out\n        /* \"#utility.yul\":90:208   */\n    tag_26:\n        /* \"#utility.yul\":177:201   */\n      tag_34\n        /* \"#utility.yul\":195:200   */\n      dup2\n        /* \"#utility.yul\":177:201   */\n      tag_25\n      jump\t// in\n    tag_34:\n        /* \"#utility.yul\":172:175   */\n      dup3\n        /* \"#utility.yul\":165:202   */\n      mstore\n        /* \"#utility.yul\":90:208   */\n      pop\n      pop\n      jump\t// out\n        /* \"#utility.yul\":214:436   */\n    tag_10:\n        /* \"#utility.yul\":307:311   */\n      0x00\n        /* \"#utility.yul\":345:347   */\n      0x20\n        /* \"#utility.yul\":334:343   */\n      dup3\n        /* \"#utility.yul\":330:348   */\n      add\n        /* \"#utility.yul\":322:348   */\n      swap1\n      pop\n        /* \"#utility.yul\":358:429   */\n      tag_36\n        /* \"#utility.yul\":426:427   */\n      0x00\n        /* \"#utility.yul\":415:424   */\n      dup4\n        /* \"#utility.yul\":411:428   */\n      add\n        /* \"#utility.yul\":402:408   */\n      dup5\n        /* \"#utility.yul\":358:429   */\n      tag_26\n      jump\t// in\n    tag_36:\n        /* \"#utility.yul\":214:436   */\n      swap3\n      swap2\n      pop\n      pop\n      jump\t// out\n        /* \"#utility.yul\":442:568   */\n    tag_27:\n        /* \"#utility.yul\":479:486   */\n      0x00\n        /* \"#utility.yul\":519:561   */\n      0xffffffffffffffffffffffffffffffffffffffff\n        /* \"#utility.yul\":512:517   */\n      dup3\n        /* \"#utility.yul\":508:562   */\n      and\n        /* \"#utility.yul\":497:562   */\n      swap1\n      pop\n        /* \"#utility.yul\":442:568   */\n      swap2\n      swap1\n      pop\n      jump\t// out\n        /* \"#utility.yul\":574:670   */\n    tag_28:\n        /* \"#utility.yul\":611:618   */\n      0x00\n        /* \"#utility.yul\":640:664   */\n      tag_39\n        /* \"#utility.yul\":658:663   */\n      dup3\n        /* \"#utility.yul\":640:664   */\n      tag_27\n      jump\t// in\n    tag_39:\n        /* \"#utility.yul\":629:664   */\n      swap1\n      pop\n        /* \"#utility.yul\":574:670   */\n      swap2\n      swap1\n      pop\n      jump\t// out\n        /* \"#utility.yul\":676:794   */\n    tag_29:\n        /* \"#utility.yul\":763:787   */\n      tag_41\n        /* \"#utility.yul\":781:786   */\n      dup2\n        /* \"#utility.yul\":763:787   */\n      tag_28\n      jump\t// in\n    tag_41:\n        /* \"#utility.yul\":758:761   */\n      dup3\n        /* \"#utility.yul\":751:788   */\n      mstore\n        /* \"#utility.yul\":676:794   */\n      pop\n      pop\n      jump\t// out\n        /* \"#utility.yul\":800:1022   */\n    tag_16:\n        /* \"#utility.yul\":893:897   */\n      0x00\n        /* \"#utility.yul\":931:933   */\n      0x20\n        /* \"#utility.yul\":920:929   */\n      dup3\n        /* \"#utility.yul\":916:934   */\n      add\n        /* \"#utility.yul\":908:934   */\n      swap1\n      pop\n        /* \"#utility.yul\":944:1015   */\n      tag_43\n        /* \"#utility.yul\":1012:1013   */\n      0x00\n        /* \"#utility.yul\":1001:1010   */\n      dup4\n        /* \"#utility.yul\":997:1014   */\n      add\n        /* \"#utility.yul\":988:994   */\n      dup5\n        /* \"#utility.yul\":944:1015   */\n      tag_29\n      jump\t// in\n    tag_43:\n        /* \"#utility.yul\":800:1022   */\n      swap3\n      swap2\n      pop\n      pop\n      jump\t// out\n        /* \"#utility.yul\":1028:1208   */\n    tag_30:\n        /* \"#utility.yul\":1076:1153   */\n      0x4e487b7100000000000000000000000000000000000000000000000000000000\n        /* \"#utility.yul\":1073:1074   */\n      0x00\n        /* \"#utility.yul\":1066:1154   */\n      mstore\n        /* \"#utility.yul\":1173:1177   */\n      0x11\n        /* \"#utility.yul\":1170:1171   */\n      0x04\n        /* \"#utility.yul\":1163:1178   */\n      mstore\n        /* \"#utility.yul\":1197:1201   */\n      0x24\n        /* \"#utility.yul\":1194:1195   */\n      0x00\n        /* \"#utility.yul\":1187:1202   */\n      revert\n        /* \"#utility.yul\":1214:1405   */\n    tag_22:\n        /* \"#utility.yul\":1254:1257   */\n      0x00\n        /* \"#utility.yul\":1273:1293   */\n      tag_46\n        /* \"#utility.yul\":1291:1292   */\n      dup3\n        /* \"#utility.yul\":1273:1293   */\n      tag_25\n      jump\t// in\n    tag_46:\n        /* \"#utility.yul\":1268:1293   */\n      swap2\n      pop\n        /* \"#utility.yul\":1307:1327   */\n      tag_47\n        /* \"#utility.yul\":1325:1326   */\n      dup4\n        /* \"#utility.yul\":1307:1327   */\n      tag_25\n      jump\t// in\n    tag_47:\n        /* \"#utility.yul\":1302:1327   */\n      swap3\n      pop\n        /* \"#utility.yul\":1350:1351   */\n      dup3\n        /* \"#utility.yul\":1347:1348   */\n      dup3\n        /* \"#utility.yul\":1343:1352   */\n      add\n        /* \"#utility.yul\":1336:1352   */\n      swap1\n      pop\n        /* \"#utility.yul\":1371:1374   */\n      dup1\n        /* \"#utility.yul\":1368:1369   */\n      dup3\n        /* \"#utility.yul\":1365:1375   */\n      gt\n        /* \"#utility.yul\":1362:1398   */\n      iszero\n      tag_48\n      jumpi\n        /* \"#utility.yul\":1378:1396   */\n      tag_49\n      tag_30\n      jump\t// in\n    tag_49:\n        /* \"#utility.yul\":1362:1398   */\n    tag_48:\n        /* \"#utility.yul\":1214:1405   */\n      swap3\n      swap2\n      pop\n      pop\n      jump\t// out\n\n    auxdata: 0xa264697066735822122045500557eeb1d1be272a3be845e069e3b8b2dc7a2b6d0d8c6f58b15b0b75550564736f6c63430008120033\n}\n",
				"bytecode": {
					"linkReferences": {},
					"object": "608060405234801561001057600080fd5b50610211806100206000396000f3fe608060405234801561001057600080fd5b506004361061004c5760003560e01c806306661abd14610051578063371303c01461006f5780635c60da1b14610079578063f851a44014610097575b600080fd5b6100596100b5565b6040516100669190610101565b60405180910390f35b6100776100bb565b005b6100816100d6565b60405161008e919061015d565b60405180910390f35b61009f6100df565b6040516100ac919061015d565b60405180910390f35b60005481565b60016000808282546100cd91906101a7565b92505081905550565b60006002905090565b60006001905090565b6000819050919050565b6100fb816100e8565b82525050565b600060208201905061011660008301846100f2565b92915050565b600073ffffffffffffffffffffffffffffffffffffffff82169050919050565b60006101478261011c565b9050919050565b6101578161013c565b82525050565b6000602082019050610172600083018461014e565b92915050565b7f4e487b7100000000000000000000000000000000000000000000000000000000600052601160045260246000fd5b60006101b2826100e8565b91506101bd836100e8565b92508282019050808211156101d5576101d4610178565b5b9291505056fea264697066735822122045500557eeb1d1be272a3be845e069e3b8b2dc7a2b6d0d8c6f58b15b0b75550564736f6c63430008120033",
					"opcodes": "PUSH1 0x80 PUSH1 0x40 MSTORE CALLVALUE DUP1 ISZERO PUSH2 0x10 JUMPI PUSH1 0x0 DUP1 REVERT JUMPDEST POP PUSH2 0x211 DUP1 PUSH2 0x20 PUSH1 0x0 CODECOPY PUSH1 0x0 RETURN INVALID PUSH1 0x80 PUSH1 0x40 MSTORE CALLVALUE DUP1 ISZERO PUSH2 0x10 JUMPI PUSH1 0x0 DUP1 REVERT JUMPDEST POP PUSH1 0x4 CALLDATASIZE LT PUSH2 0x4C JUMPI PUSH1 0x0 CALLDATALOAD PUSH1 0xE0 SHR DUP1 PUSH4 0x6661ABD EQ PUSH2 0x51 JUMPI DUP1 PUSH4 0x371303C0 EQ PUSH2 0x6F JUMPI DUP1 PUSH4 0x5C60DA1B EQ PUSH2 0x79 JUMPI DUP1 PUSH4 0xF851A440 EQ PUSH2 0x97 JUMPI JUMPDEST PUSH1 0x0 DUP1 REVERT JUMPDEST PUSH2 0x59 PUSH2 0xB5 JUMP JUMPDEST PUSH1 0x40 MLOAD PUSH2 0x66 SWAP2 SWAP1 PUSH2 0x101 JUMP JUMPDEST PUSH1 0x40 MLOAD DUP1 SWAP2 SUB SWAP1 RETURN JUMPDEST PUSH2 0x77 PUSH2 0xBB JUMP JUMPDEST STOP JUMPDEST PUSH2 0x81 PUSH2 0xD6 JUMP JUMPDEST PUSH1 0x40 MLOAD PUSH2 0x8E SWAP2 SWAP1 PUSH2 0x15D JUMP JUMPDEST PUSH1 0x40 MLOAD DUP1 SWAP2 SUB SWAP1 RETURN JUMPDEST PUSH2 0x9F PUSH2 0xDF JUMP JUMPDEST PUSH1 0x40 MLOAD PUSH2 0xAC SWAP2 SWAP1 PUSH2 0x15D JUMP JUMPDEST PUSH1 0x40 MLOAD DUP1 SWAP2 SUB SWAP1 RETURN JUMPDEST PUSH1 0x0 SLOAD DUP2 JUMP JUMPDEST PUSH1 0x1 PUSH1 0x0 DUP1 DUP3 DUP3 SLOAD PUSH2 0xCD SWAP2 SWAP1 PUSH2 0x1A7 JUMP JUMPDEST SWAP3 POP POP DUP2 SWAP1 SSTORE POP JUMP JUMPDEST PUSH1 0x0 PUSH1 0x2 SWAP1 POP SWAP1 JUMP JUMPDEST PUSH1 0x0 PUSH1 0x1 SWAP1 POP SWAP1 JUMP JUMPDEST PUSH1 0x0 DUP2 SWAP1 POP SWAP2 SWAP1 POP JUMP JUMPDEST PUSH2 0xFB DUP2 PUSH2 0xE8 JUMP JUMPDEST DUP3 MSTORE POP POP JUMP JUMPDEST PUSH1 0x0 PUSH1 0x20 DUP3 ADD SWAP1 POP PUSH2 0x116 PUSH1 0x0 DUP4 ADD DUP5 PUSH2 0xF2 JUMP JUMPDEST SWAP3 SWAP2 POP POP JUMP JUMPDEST PUSH1 0x0 PUSH20 0xFFFFFFFFFFFFFFFFFFFFFFFFFFFFFFFFFFFFFFFF DUP3 AND SWAP1 POP SWAP2 SWAP1 POP JUMP JUMPDEST PUSH1 0x0 PUSH2 0x147 DUP3 PUSH2 0x11C JUMP JUMPDEST SWAP1 POP SWAP2 SWAP1 POP JUMP JUMPDEST PUSH2 0x157 DUP2 PUSH2 0x13C JUMP JUMPDEST DUP3 MSTORE POP POP JUMP JUMPDEST PUSH1 0x0 PUSH1 0x20 DUP3 ADD SWAP1 POP PUSH2 0x172 PUSH1 0x0 DUP4 ADD DUP5 PUSH2 0x14E JUMP JUMPDEST SWAP3 SWAP2 POP POP JUMP JUMPDEST PUSH32 0x4E487B7100000000000000000000000000000000000000000000000000000000 PUSH1 0x0 MSTORE PUSH1 0x11 PUSH1 0x4 MSTORE PUSH1 0x24 PUSH1 0x0 REVERT JUMPDEST PUSH1 0x0 PUSH2 0x1B2 DUP3 PUSH2 0xE8 JUMP JUMPDEST SWAP2 POP PUSH2 0x1BD DUP4 PUSH2 0xE8 JUMP JUMPDEST SWAP3 POP DUP3 DUP3 ADD SWAP1 POP DUP1 DUP3 GT ISZERO PUSH2 0x1D5 JUMPI PUSH2 0x1D4 PUSH2 0x178 JUMP JUMPDEST JUMPDEST SWAP3 SWAP2 POP POP JUMP INVALID LOG2 PUSH5 0x6970667358 0x22 SLT KECCAK256 GASLIMIT POP SDIV JUMPI 0xEE 0xB1 0xD1 0xBE 0x27 0x2A EXTCODESIZE 0xE8 GASLIMIT 0xE0 PUSH10 0xE3B8B2DC7A2B6D0D8C6F PC 0xB1 JUMPDEST SIGNEXTEND PUSH22 0x550564736F6C63430008120033000000000000000000 "
				},
				"gasEstimates": {
					"creation": {
						"codeDepositCost": "105800",
						"executionCost": "153",
						"totalCost": "105953"
					},
					"external": {
						"admin()": "430",
						"count()": "2407",
						"implementation()": "408",
						"inc()": "infinite"
					}
				},
				"methodIdentifiers": {
					"admin()": "f851a440",
					"count()": "06661abd",
					"implementation()": "5c60da1b",
					"inc()": "371303c0"
				}
			},
			"storageLayout": {
				"storage": [
					{
						"astId": 3,
						"contract": "Upgradeable_Proxy_Pattern.sol:CounterV1",
						"label": "count",
						"offset": 0,
						"slot": "0",
						"type": "t_uint256"
					}
				],
				"types": {
					"t_uint256": {
						"encoding": "inplace",
						"label": "uint256",
						"numberOfBytes": "32"
					}
				}
			},
			"userdoc": {
				"kind": "user",
				"methods": {},
				"version": 1
			}
		}
	}
}