{
	"Upgradeable_Proxy_Pattern.sol": {
		"ProxyAdmin": {
			"abi": [
				{
					"inputs": [],
					"stateMutability": "nonpayable",
					"type": "constructor"
				},
				{
					"inputs": [
						{
							"internalType": "address payable",
							"name": "proxy",
							"type": "address"
						},
						{
							"internalType": "address",
							"name": "_admin",
							"type": "address"
						}
					],
					"name": "changeProxyAdmin",
					"outputs": [],
					"stateMutability": "nonpayable",
					"type": "function"
				},
				{
					"inputs": [
						{
							"internalType": "address",
							"name": "proxy",
							"type": "address"
						}
					],
					"name": "getProxyAdmin",
					"outputs": [
						{
							"internalType": "address",
							"name": "",
							"type": "address"
						}
					],
					"stateMutability": "view",
					"type": "function"
				},
				{
					"inputs": [
						{
							"internalType": "address",
							"name": "proxy",
							"type": "address"
						}
					],
					"name": "getProxyImplementation",
					"outputs": [
						{
							"internalType": "address",
							"name": "",
							"type": "address"
						}
					],
					"stateMutability": "view",
					"type": "function"
				},
				{
					"inputs": [],
					"name": "owner",
					"outputs": [
						{
							"internalType": "address",
							"name": "",
							"type": "address"
						}
					],
					"stateMutability": "view",
					"type": "function"
				},
				{
					"inputs": [
						{
							"internalType": "address payable",
							"name": "proxy",
							"type": "address"
						},
						{
							"internalType": "address",
							"name": "implementation",
							"type": "address"
						}
					],
					"name": "upgrade",
					"outputs": [],
					"stateMutability": "nonpayable",
					"type": "function"
				}
			],
			"devdoc": {
				"kind": "dev",
				"methods": {},
				"version": 1
			},
			"evm": {
				"assembly": "    /* \"Upgradeable_Proxy_Pattern.sol\":4327:5360  contract ProxyAdmin {... */\n  mstore(0x40, 0x80)\n    /* \"Upgradeable_Proxy_Pattern.sol\":4383:4434  constructor() {... */\n  callvalue\n  dup1\n  iszero\n  tag_1\n  jumpi\n  0x00\n  dup1\n  revert\ntag_1:\n  pop\n    /* \"Upgradeable_Proxy_Pattern.sol\":4416:4426  msg.sender */\n  caller\n    /* \"Upgradeable_Proxy_Pattern.sol\":4408:4413  owner */\n  0x00\n  dup1\n    /* \"Upgradeable_Proxy_Pattern.sol\":4408:4426  owner = msg.sender */\n  0x0100\n  exp\n  dup2\n  sload\n  dup2\n  0xffffffffffffffffffffffffffffffffffffffff\n  mul\n  not\n  and\n  swap1\n  dup4\n  0xffffffffffffffffffffffffffffffffffffffff\n  and\n  mul\n  or\n  swap1\n  sstore\n  pop\n    /* \"Upgradeable_Proxy_Pattern.sol\":4327:5360  contract ProxyAdmin {... */\n  dataSize(sub_0)\n  dup1\n  dataOffset(sub_0)\n  0x00\n  codecopy\n  0x00\n  return\nstop\n\nsub_0: assembly {\n        /* \"Upgradeable_Proxy_Pattern.sol\":4327:5360  contract ProxyAdmin {... */\n      mstore(0x40, 0x80)\n      callvalue\n      dup1\n      iszero\n      tag_1\n      jumpi\n      0x00\n      dup1\n      revert\n    tag_1:\n      pop\n      jumpi(tag_2, lt(calldatasize, 0x04))\n      shr(0xe0, calldataload(0x00))\n      dup1\n      0x204e1c7a\n      eq\n      tag_3\n      jumpi\n      dup1\n      0x7eff275e\n      eq\n      tag_4\n      jumpi\n      dup1\n      0x8da5cb5b\n      eq\n      tag_5\n      jumpi\n      dup1\n      0x99a88ec4\n      eq\n      tag_6\n      jumpi\n      dup1\n      0xf3b7dead\n      eq\n      tag_7\n      jumpi\n    tag_2:\n      0x00\n      dup1\n      revert\n        /* \"Upgradeable_Proxy_Pattern.sol\":5089:5357  function getProxyImplementation(address proxy) external view returns (address) {... */\n    tag_3:\n      tag_8\n      0x04\n      dup1\n      calldatasize\n      sub\n      dup2\n      add\n      swap1\n      tag_9\n      swap2\n      swap1\n      tag_10\n      jump\t// in\n    tag_9:\n      tag_11\n      jump\t// in\n    tag_8:\n      mload(0x40)\n      tag_12\n      swap2\n      swap1\n      tag_13\n      jump\t// in\n    tag_12:\n      mload(0x40)\n      dup1\n      swap2\n      sub\n      swap1\n      return\n        /* \"Upgradeable_Proxy_Pattern.sol\":4542:4676  function changeProxyAdmin(address payable proxy,address _admin) external onlyOwner {... */\n    tag_4:\n      tag_14\n      0x04\n      dup1\n      calldatasize\n      sub\n      dup2\n      add\n      swap1\n      tag_15\n      swap2\n      swap1\n      tag_16\n      jump\t// in\n    tag_15:\n      tag_17\n      jump\t// in\n    tag_14:\n      stop\n        /* \"Upgradeable_Proxy_Pattern.sol\":4354:4374  address public owner */\n    tag_5:\n      tag_18\n      tag_19\n      jump\t// in\n    tag_18:\n      mload(0x40)\n      tag_20\n      swap2\n      swap1\n      tag_13\n      jump\t// in\n    tag_20:\n      mload(0x40)\n      dup1\n      swap2\n      sub\n      swap1\n      return\n        /* \"Upgradeable_Proxy_Pattern.sol\":4684:4823  function upgrade(address payable proxy,address implementation) external onlyOwner {... */\n    tag_6:\n      tag_21\n      0x04\n      dup1\n      calldatasize\n      sub\n      dup2\n      add\n      swap1\n      tag_22\n      swap2\n      swap1\n      tag_16\n      jump\t// in\n    tag_22:\n      tag_23\n      jump\t// in\n    tag_21:\n      stop\n        /* \"Upgradeable_Proxy_Pattern.sol\":4831:5081  function getProxyAdmin(address proxy) external view returns (address) {... */\n    tag_7:\n      tag_24\n      0x04\n      dup1\n      calldatasize\n      sub\n      dup2\n      add\n      swap1\n      tag_25\n      swap2\n      swap1\n      tag_10\n      jump\t// in\n    tag_25:\n      tag_26\n      jump\t// in\n    tag_24:\n      mload(0x40)\n      tag_27\n      swap2\n      swap1\n      tag_13\n      jump\t// in\n    tag_27:\n      mload(0x40)\n      dup1\n      swap2\n      sub\n      swap1\n      return\n        /* \"Upgradeable_Proxy_Pattern.sol\":5089:5357  function getProxyImplementation(address proxy) external view returns (address) {... */\n    tag_11:\n        /* \"Upgradeable_Proxy_Pattern.sol\":5159:5166  address */\n      0x00\n        /* \"Upgradeable_Proxy_Pattern.sol\":5180:5187  bool ok */\n      dup1\n        /* \"Upgradeable_Proxy_Pattern.sol\":5190:5206  bytes memory res */\n      0x00\n        /* \"Upgradeable_Proxy_Pattern.sol\":5211:5216  proxy */\n      dup4\n        /* \"Upgradeable_Proxy_Pattern.sol\":5211:5227  proxy.staticcall */\n      0xffffffffffffffffffffffffffffffffffffffff\n      and\n        /* \"Upgradeable_Proxy_Pattern.sol\":5228:5267  abi.encodeCall(Proxy.implementation,()) */\n      add(0x24, mload(0x40))\n      mload(0x40)\n      0x20\n      dup2\n      dup4\n      sub\n      sub\n      dup2\n      mstore\n      swap1\n      0x40\n      mstore\n      shl(0xe0, 0x5c60da1b)\n      0x20\n      dup3\n      add\n      dup1\n      mload\n      0xffffffffffffffffffffffffffffffffffffffffffffffffffffffff\n      dup4\n      dup2\n      dup4\n      and\n      or\n      dup4\n      mstore\n      pop\n      pop\n      pop\n      pop\n        /* \"Upgradeable_Proxy_Pattern.sol\":5211:5268  proxy.staticcall(abi.encodeCall(Proxy.implementation,())) */\n      mload(0x40)\n      tag_29\n      swap2\n      swap1\n      tag_30\n      jump\t// in\n    tag_29:\n      0x00\n      mload(0x40)\n      dup1\n      dup4\n      sub\n      dup2\n      dup6\n      gas\n      staticcall\n      swap2\n      pop\n      pop\n      returndatasize\n      dup1\n      0x00\n      dup2\n      eq\n      tag_33\n      jumpi\n      mload(0x40)\n      swap2\n      pop\n      and(add(returndatasize, 0x3f), not(0x1f))\n      dup3\n      add\n      0x40\n      mstore\n      returndatasize\n      dup3\n      mstore\n      returndatasize\n      0x00\n      0x20\n      dup5\n      add\n      returndatacopy\n      jump(tag_32)\n    tag_33:\n      0x60\n      swap2\n      pop\n    tag_32:\n      pop\n        /* \"Upgradeable_Proxy_Pattern.sol\":5179:5268  (bool ok , bytes memory res ) = proxy.staticcall(abi.encodeCall(Proxy.implementation,())) */\n      swap2\n      pop\n      swap2\n      pop\n        /* \"Upgradeable_Proxy_Pattern.sol\":5287:5289  ok */\n      dup2\n        /* \"Upgradeable_Proxy_Pattern.sol\":5279:5306  require(ok , \"call failed\") */\n      tag_34\n      jumpi\n      mload(0x40)\n      0x08c379a000000000000000000000000000000000000000000000000000000000\n      dup2\n      mstore\n      0x04\n      add\n      tag_35\n      swap1\n      tag_36\n      jump\t// in\n    tag_35:\n      mload(0x40)\n      dup1\n      swap2\n      sub\n      swap1\n      revert\n    tag_34:\n        /* \"Upgradeable_Proxy_Pattern.sol\":5335:5338  res */\n      dup1\n        /* \"Upgradeable_Proxy_Pattern.sol\":5324:5349  abi.decode(res,(address)) */\n      dup1\n      0x20\n      add\n      swap1\n      mload\n      dup2\n      add\n      swap1\n      tag_37\n      swap2\n      swap1\n      tag_38\n      jump\t// in\n    tag_37:\n        /* \"Upgradeable_Proxy_Pattern.sol\":5317:5349  return abi.decode(res,(address)) */\n      swap3\n      pop\n      pop\n      pop\n        /* \"Upgradeable_Proxy_Pattern.sol\":5089:5357  function getProxyImplementation(address proxy) external view returns (address) {... */\n      swap2\n      swap1\n      pop\n      jump\t// out\n        /* \"Upgradeable_Proxy_Pattern.sol\":4542:4676  function changeProxyAdmin(address payable proxy,address _admin) external onlyOwner {... */\n    tag_17:\n        /* \"Upgradeable_Proxy_Pattern.sol\":4491:4501  msg.sender */\n      caller\n        /* \"Upgradeable_Proxy_Pattern.sol\":4482:4501  owner == msg.sender */\n      0xffffffffffffffffffffffffffffffffffffffff\n      and\n        /* \"Upgradeable_Proxy_Pattern.sol\":4482:4487  owner */\n      0x00\n      dup1\n      sload\n      swap1\n      0x0100\n      exp\n      swap1\n      div\n      0xffffffffffffffffffffffffffffffffffffffff\n      and\n        /* \"Upgradeable_Proxy_Pattern.sol\":4482:4501  owner == msg.sender */\n      0xffffffffffffffffffffffffffffffffffffffff\n      and\n      eq\n        /* \"Upgradeable_Proxy_Pattern.sol\":4474:4514  require(owner == msg.sender,\"not owner\") */\n      tag_40\n      jumpi\n      mload(0x40)\n      0x08c379a000000000000000000000000000000000000000000000000000000000\n      dup2\n      mstore\n      0x04\n      add\n      tag_41\n      swap1\n      tag_42\n      jump\t// in\n    tag_41:\n      mload(0x40)\n      dup1\n      swap2\n      sub\n      swap1\n      revert\n    tag_40:\n        /* \"Upgradeable_Proxy_Pattern.sol\":4642:4647  proxy */\n      dup2\n        /* \"Upgradeable_Proxy_Pattern.sol\":4636:4660  Proxy(proxy).changeAdmin */\n      0xffffffffffffffffffffffffffffffffffffffff\n      and\n      0x8f283970\n        /* \"Upgradeable_Proxy_Pattern.sol\":4661:4667  _admin */\n      dup3\n        /* \"Upgradeable_Proxy_Pattern.sol\":4636:4668  Proxy(proxy).changeAdmin(_admin) */\n      mload(0x40)\n      dup3\n      0xffffffff\n      and\n      0xe0\n      shl\n      dup2\n      mstore\n      0x04\n      add\n      tag_44\n      swap2\n      swap1\n      tag_13\n      jump\t// in\n    tag_44:\n      0x00\n      mload(0x40)\n      dup1\n      dup4\n      sub\n      dup2\n      0x00\n      dup8\n      dup1\n      extcodesize\n      iszero\n      dup1\n      iszero\n      tag_45\n      jumpi\n      0x00\n      dup1\n      revert\n    tag_45:\n      pop\n      gas\n      call\n      iszero\n      dup1\n      iszero\n      tag_47\n      jumpi\n      returndatasize\n      0x00\n      dup1\n      returndatacopy\n      revert(0x00, returndatasize)\n    tag_47:\n      pop\n      pop\n      pop\n      pop\n        /* \"Upgradeable_Proxy_Pattern.sol\":4542:4676  function changeProxyAdmin(address payable proxy,address _admin) external onlyOwner {... */\n      pop\n      pop\n      jump\t// out\n        /* \"Upgradeable_Proxy_Pattern.sol\":4354:4374  address public owner */\n    tag_19:\n      0x00\n      dup1\n      sload\n      swap1\n      0x0100\n      exp\n      swap1\n      div\n      0xffffffffffffffffffffffffffffffffffffffff\n      and\n      dup2\n      jump\t// out\n        /* \"Upgradeable_Proxy_Pattern.sol\":4684:4823  function upgrade(address payable proxy,address implementation) external onlyOwner {... */\n    tag_23:\n        /* \"Upgradeable_Proxy_Pattern.sol\":4491:4501  msg.sender */\n      caller\n        /* \"Upgradeable_Proxy_Pattern.sol\":4482:4501  owner == msg.sender */\n      0xffffffffffffffffffffffffffffffffffffffff\n      and\n        /* \"Upgradeable_Proxy_Pattern.sol\":4482:4487  owner */\n      0x00\n      dup1\n      sload\n      swap1\n      0x0100\n      exp\n      swap1\n      div\n      0xffffffffffffffffffffffffffffffffffffffff\n      and\n        /* \"Upgradeable_Proxy_Pattern.sol\":4482:4501  owner == msg.sender */\n      0xffffffffffffffffffffffffffffffffffffffff\n      and\n      eq\n        /* \"Upgradeable_Proxy_Pattern.sol\":4474:4514  require(owner == msg.sender,\"not owner\") */\n      tag_49\n      jumpi\n      mload(0x40)\n      0x08c379a000000000000000000000000000000000000000000000000000000000\n      dup2\n      mstore\n      0x04\n      add\n      tag_50\n      swap1\n      tag_42\n      jump\t// in\n    tag_50:\n      mload(0x40)\n      dup1\n      swap2\n      sub\n      swap1\n      revert\n    tag_49:\n        /* \"Upgradeable_Proxy_Pattern.sol\":4783:4788  proxy */\n      dup2\n        /* \"Upgradeable_Proxy_Pattern.sol\":4777:4799  Proxy(proxy).upgradeTo */\n      0xffffffffffffffffffffffffffffffffffffffff\n      and\n      0x3659cfe6\n        /* \"Upgradeable_Proxy_Pattern.sol\":4800:4814  implementation */\n      dup3\n        /* \"Upgradeable_Proxy_Pattern.sol\":4777:4815  Proxy(proxy).upgradeTo(implementation) */\n      mload(0x40)\n      dup3\n      0xffffffff\n      and\n      0xe0\n      shl\n      dup2\n      mstore\n      0x04\n      add\n      tag_52\n      swap2\n      swap1\n      tag_13\n      jump\t// in\n    tag_52:\n      0x00\n      mload(0x40)\n      dup1\n      dup4\n      sub\n      dup2\n      0x00\n      dup8\n      dup1\n      extcodesize\n      iszero\n      dup1\n      iszero\n      tag_53\n      jumpi\n      0x00\n      dup1\n      revert\n    tag_53:\n      pop\n      gas\n      call\n      iszero\n      dup1\n      iszero\n      tag_55\n      jumpi\n      returndatasize\n      0x00\n      dup1\n      returndatacopy\n      revert(0x00, returndatasize)\n    tag_55:\n      pop\n      pop\n      pop\n      pop\n        /* \"Upgradeable_Proxy_Pattern.sol\":4684:4823  function upgrade(address payable proxy,address implementation) external onlyOwner {... */\n      pop\n      pop\n      jump\t// out\n        /* \"Upgradeable_Proxy_Pattern.sol\":4831:5081  function getProxyAdmin(address proxy) external view returns (address) {... */\n    tag_26:\n        /* \"Upgradeable_Proxy_Pattern.sol\":4892:4899  address */\n      0x00\n        /* \"Upgradeable_Proxy_Pattern.sol\":4913:4920  bool ok */\n      dup1\n        /* \"Upgradeable_Proxy_Pattern.sol\":4923:4939  bytes memory res */\n      0x00\n        /* \"Upgradeable_Proxy_Pattern.sol\":4944:4949  proxy */\n      dup4\n        /* \"Upgradeable_Proxy_Pattern.sol\":4944:4960  proxy.staticcall */\n      0xffffffffffffffffffffffffffffffffffffffff\n      and\n        /* \"Upgradeable_Proxy_Pattern.sol\":4961:4991  abi.encodeCall(Proxy.admin,()) */\n      add(0x24, mload(0x40))\n      mload(0x40)\n      0x20\n      dup2\n      dup4\n      sub\n      sub\n      dup2\n      mstore\n      swap1\n      0x40\n      mstore\n      shl(0xe0, 0xf851a440)\n      0x20\n      dup3\n      add\n      dup1\n      mload\n      0xffffffffffffffffffffffffffffffffffffffffffffffffffffffff\n      dup4\n      dup2\n      dup4\n      and\n      or\n      dup4\n      mstore\n      pop\n      pop\n      pop\n      pop\n        /* \"Upgradeable_Proxy_Pattern.sol\":4944:4992  proxy.staticcall(abi.encodeCall(Proxy.admin,())) */\n      mload(0x40)\n      tag_57\n      swap2\n      swap1\n      tag_30\n      jump\t// in\n    tag_57:\n      0x00\n      mload(0x40)\n      dup1\n      dup4\n      sub\n      dup2\n      dup6\n      gas\n      staticcall\n      swap2\n      pop\n      pop\n      returndatasize\n      dup1\n      0x00\n      dup2\n      eq\n      tag_60\n      jumpi\n      mload(0x40)\n      swap2\n      pop\n      and(add(returndatasize, 0x3f), not(0x1f))\n      dup3\n      add\n      0x40\n      mstore\n      returndatasize\n      dup3\n      mstore\n      returndatasize\n      0x00\n      0x20\n      dup5\n      add\n      returndatacopy\n      jump(tag_59)\n    tag_60:\n      0x60\n      swap2\n      pop\n    tag_59:\n      pop\n        /* \"Upgradeable_Proxy_Pattern.sol\":4912:4992  (bool ok , bytes memory res ) = proxy.staticcall(abi.encodeCall(Proxy.admin,())) */\n      swap2\n      pop\n      swap2\n      pop\n        /* \"Upgradeable_Proxy_Pattern.sol\":5011:5013  ok */\n      dup2\n        /* \"Upgradeable_Proxy_Pattern.sol\":5003:5030  require(ok , \"call failed\") */\n      tag_61\n      jumpi\n      mload(0x40)\n      0x08c379a000000000000000000000000000000000000000000000000000000000\n      dup2\n      mstore\n      0x04\n      add\n      tag_62\n      swap1\n      tag_36\n      jump\t// in\n    tag_62:\n      mload(0x40)\n      dup1\n      swap2\n      sub\n      swap1\n      revert\n    tag_61:\n        /* \"Upgradeable_Proxy_Pattern.sol\":5059:5062  res */\n      dup1\n        /* \"Upgradeable_Proxy_Pattern.sol\":5048:5073  abi.decode(res,(address)) */\n      dup1\n      0x20\n      add\n      swap1\n      mload\n      dup2\n      add\n      swap1\n      tag_63\n      swap2\n      swap1\n      tag_38\n      jump\t// in\n    tag_63:\n        /* \"Upgradeable_Proxy_Pattern.sol\":5041:5073  return abi.decode(res,(address)) */\n      swap3\n      pop\n      pop\n      pop\n        /* \"Upgradeable_Proxy_Pattern.sol\":4831:5081  function getProxyAdmin(address proxy) external view returns (address) {... */\n      swap2\n      swap1\n      pop\n      jump\t// out\n        /* \"#utility.yul\":88:205   */\n    tag_65:\n        /* \"#utility.yul\":197:198   */\n      0x00\n        /* \"#utility.yul\":194:195   */\n      dup1\n        /* \"#utility.yul\":187:199   */\n      revert\n        /* \"#utility.yul\":334:460   */\n    tag_67:\n        /* \"#utility.yul\":371:378   */\n      0x00\n        /* \"#utility.yul\":411:453   */\n      0xffffffffffffffffffffffffffffffffffffffff\n        /* \"#utility.yul\":404:409   */\n      dup3\n        /* \"#utility.yul\":400:454   */\n      and\n        /* \"#utility.yul\":389:454   */\n      swap1\n      pop\n        /* \"#utility.yul\":334:460   */\n      swap2\n      swap1\n      pop\n      jump\t// out\n        /* \"#utility.yul\":466:562   */\n    tag_68:\n        /* \"#utility.yul\":503:510   */\n      0x00\n        /* \"#utility.yul\":532:556   */\n      tag_91\n        /* \"#utility.yul\":550:555   */\n      dup3\n        /* \"#utility.yul\":532:556   */\n      tag_67\n      jump\t// in\n    tag_91:\n        /* \"#utility.yul\":521:556   */\n      swap1\n      pop\n        /* \"#utility.yul\":466:562   */\n      swap2\n      swap1\n      pop\n      jump\t// out\n        /* \"#utility.yul\":568:690   */\n    tag_69:\n        /* \"#utility.yul\":641:665   */\n      tag_93\n        /* \"#utility.yul\":659:664   */\n      dup2\n        /* \"#utility.yul\":641:665   */\n      tag_68\n      jump\t// in\n    tag_93:\n        /* \"#utility.yul\":634:639   */\n      dup2\n        /* \"#utility.yul\":631:666   */\n      eq\n        /* \"#utility.yul\":621:684   */\n      tag_94\n      jumpi\n        /* \"#utility.yul\":680:681   */\n      0x00\n        /* \"#utility.yul\":677:678   */\n      dup1\n        /* \"#utility.yul\":670:682   */\n      revert\n        /* \"#utility.yul\":621:684   */\n    tag_94:\n        /* \"#utility.yul\":568:690   */\n      pop\n      jump\t// out\n        /* \"#utility.yul\":696:835   */\n    tag_70:\n        /* \"#utility.yul\":742:747   */\n      0x00\n        /* \"#utility.yul\":780:786   */\n      dup2\n        /* \"#utility.yul\":767:787   */\n      calldataload\n        /* \"#utility.yul\":758:787   */\n      swap1\n      pop\n        /* \"#utility.yul\":796:829   */\n      tag_96\n        /* \"#utility.yul\":823:828   */\n      dup2\n        /* \"#utility.yul\":796:829   */\n      tag_69\n      jump\t// in\n    tag_96:\n        /* \"#utility.yul\":696:835   */\n      swap3\n      swap2\n      pop\n      pop\n      jump\t// out\n        /* \"#utility.yul\":841:1170   */\n    tag_10:\n        /* \"#utility.yul\":900:906   */\n      0x00\n        /* \"#utility.yul\":949:951   */\n      0x20\n        /* \"#utility.yul\":937:946   */\n      dup3\n        /* \"#utility.yul\":928:935   */\n      dup5\n        /* \"#utility.yul\":924:947   */\n      sub\n        /* \"#utility.yul\":920:952   */\n      slt\n        /* \"#utility.yul\":917:1036   */\n      iszero\n      tag_98\n      jumpi\n        /* \"#utility.yul\":955:1034   */\n      tag_99\n      tag_65\n      jump\t// in\n    tag_99:\n        /* \"#utility.yul\":917:1036   */\n    tag_98:\n        /* \"#utility.yul\":1075:1076   */\n      0x00\n        /* \"#utility.yul\":1100:1153   */\n      tag_100\n        /* \"#utility.yul\":1145:1152   */\n      dup5\n        /* \"#utility.yul\":1136:1142   */\n      dup3\n        /* \"#utility.yul\":1125:1134   */\n      dup6\n        /* \"#utility.yul\":1121:1143   */\n      add\n        /* \"#utility.yul\":1100:1153   */\n      tag_70\n      jump\t// in\n    tag_100:\n        /* \"#utility.yul\":1090:1153   */\n      swap2\n      pop\n        /* \"#utility.yul\":1046:1163   */\n      pop\n        /* \"#utility.yul\":841:1170   */\n      swap3\n      swap2\n      pop\n      pop\n      jump\t// out\n        /* \"#utility.yul\":1176:1294   */\n    tag_71:\n        /* \"#utility.yul\":1263:1287   */\n      tag_102\n        /* \"#utility.yul\":1281:1286   */\n      dup2\n        /* \"#utility.yul\":1263:1287   */\n      tag_68\n      jump\t// in\n    tag_102:\n        /* \"#utility.yul\":1258:1261   */\n      dup3\n        /* \"#utility.yul\":1251:1288   */\n      mstore\n        /* \"#utility.yul\":1176:1294   */\n      pop\n      pop\n      jump\t// out\n        /* \"#utility.yul\":1300:1522   */\n    tag_13:\n        /* \"#utility.yul\":1393:1397   */\n      0x00\n        /* \"#utility.yul\":1431:1433   */\n      0x20\n        /* \"#utility.yul\":1420:1429   */\n      dup3\n        /* \"#utility.yul\":1416:1434   */\n      add\n        /* \"#utility.yul\":1408:1434   */\n      swap1\n      pop\n        /* \"#utility.yul\":1444:1515   */\n      tag_104\n        /* \"#utility.yul\":1512:1513   */\n      0x00\n        /* \"#utility.yul\":1501:1510   */\n      dup4\n        /* \"#utility.yul\":1497:1514   */\n      add\n        /* \"#utility.yul\":1488:1494   */\n      dup5\n        /* \"#utility.yul\":1444:1515   */\n      tag_71\n      jump\t// in\n    tag_104:\n        /* \"#utility.yul\":1300:1522   */\n      swap3\n      swap2\n      pop\n      pop\n      jump\t// out\n        /* \"#utility.yul\":1528:1632   */\n    tag_72:\n        /* \"#utility.yul\":1573:1580   */\n      0x00\n        /* \"#utility.yul\":1602:1626   */\n      tag_106\n        /* \"#utility.yul\":1620:1625   */\n      dup3\n        /* \"#utility.yul\":1602:1626   */\n      tag_67\n      jump\t// in\n    tag_106:\n        /* \"#utility.yul\":1591:1626   */\n      swap1\n      pop\n        /* \"#utility.yul\":1528:1632   */\n      swap2\n      swap1\n      pop\n      jump\t// out\n        /* \"#utility.yul\":1638:1776   */\n    tag_73:\n        /* \"#utility.yul\":1719:1751   */\n      tag_108\n        /* \"#utility.yul\":1745:1750   */\n      dup2\n        /* \"#utility.yul\":1719:1751   */\n      tag_72\n      jump\t// in\n    tag_108:\n        /* \"#utility.yul\":1712:1717   */\n      dup2\n        /* \"#utility.yul\":1709:1752   */\n      eq\n        /* \"#utility.yul\":1699:1770   */\n      tag_109\n      jumpi\n        /* \"#utility.yul\":1766:1767   */\n      0x00\n        /* \"#utility.yul\":1763:1764   */\n      dup1\n        /* \"#utility.yul\":1756:1768   */\n      revert\n        /* \"#utility.yul\":1699:1770   */\n    tag_109:\n        /* \"#utility.yul\":1638:1776   */\n      pop\n      jump\t// out\n        /* \"#utility.yul\":1782:1937   */\n    tag_74:\n        /* \"#utility.yul\":1836:1841   */\n      0x00\n        /* \"#utility.yul\":1874:1880   */\n      dup2\n        /* \"#utility.yul\":1861:1881   */\n      calldataload\n        /* \"#utility.yul\":1852:1881   */\n      swap1\n      pop\n        /* \"#utility.yul\":1890:1931   */\n      tag_111\n        /* \"#utility.yul\":1925:1930   */\n      dup2\n        /* \"#utility.yul\":1890:1931   */\n      tag_73\n      jump\t// in\n    tag_111:\n        /* \"#utility.yul\":1782:1937   */\n      swap3\n      swap2\n      pop\n      pop\n      jump\t// out\n        /* \"#utility.yul\":1943:2433   */\n    tag_16:\n        /* \"#utility.yul\":2019:2025   */\n      0x00\n        /* \"#utility.yul\":2027:2033   */\n      dup1\n        /* \"#utility.yul\":2076:2078   */\n      0x40\n        /* \"#utility.yul\":2064:2073   */\n      dup4\n        /* \"#utility.yul\":2055:2062   */\n      dup6\n        /* \"#utility.yul\":2051:2074   */\n      sub\n        /* \"#utility.yul\":2047:2079   */\n      slt\n        /* \"#utility.yul\":2044:2163   */\n      iszero\n      tag_113\n      jumpi\n        /* \"#utility.yul\":2082:2161   */\n      tag_114\n      tag_65\n      jump\t// in\n    tag_114:\n        /* \"#utility.yul\":2044:2163   */\n    tag_113:\n        /* \"#utility.yul\":2202:2203   */\n      0x00\n        /* \"#utility.yul\":2227:2288   */\n      tag_115\n        /* \"#utility.yul\":2280:2287   */\n      dup6\n        /* \"#utility.yul\":2271:2277   */\n      dup3\n        /* \"#utility.yul\":2260:2269   */\n      dup7\n        /* \"#utility.yul\":2256:2278   */\n      add\n        /* \"#utility.yul\":2227:2288   */\n      tag_74\n      jump\t// in\n    tag_115:\n        /* \"#utility.yul\":2217:2288   */\n      swap3\n      pop\n        /* \"#utility.yul\":2173:2298   */\n      pop\n        /* \"#utility.yul\":2337:2339   */\n      0x20\n        /* \"#utility.yul\":2363:2416   */\n      tag_116\n        /* \"#utility.yul\":2408:2415   */\n      dup6\n        /* \"#utility.yul\":2399:2405   */\n      dup3\n        /* \"#utility.yul\":2388:2397   */\n      dup7\n        /* \"#utility.yul\":2384:2406   */\n      add\n        /* \"#utility.yul\":2363:2416   */\n      tag_70\n      jump\t// in\n    tag_116:\n        /* \"#utility.yul\":2353:2416   */\n      swap2\n      pop\n        /* \"#utility.yul\":2308:2426   */\n      pop\n        /* \"#utility.yul\":1943:2433   */\n      swap3\n      pop\n      swap3\n      swap1\n      pop\n      jump\t// out\n        /* \"#utility.yul\":2439:2537   */\n    tag_75:\n        /* \"#utility.yul\":2490:2496   */\n      0x00\n        /* \"#utility.yul\":2524:2529   */\n      dup2\n        /* \"#utility.yul\":2518:2530   */\n      mload\n        /* \"#utility.yul\":2508:2530   */\n      swap1\n      pop\n        /* \"#utility.yul\":2439:2537   */\n      swap2\n      swap1\n      pop\n      jump\t// out\n        /* \"#utility.yul\":2543:2690   */\n    tag_76:\n        /* \"#utility.yul\":2644:2655   */\n      0x00\n        /* \"#utility.yul\":2681:2684   */\n      dup2\n        /* \"#utility.yul\":2666:2684   */\n      swap1\n      pop\n        /* \"#utility.yul\":2543:2690   */\n      swap3\n      swap2\n      pop\n      pop\n      jump\t// out\n        /* \"#utility.yul\":2696:2942   */\n    tag_77:\n        /* \"#utility.yul\":2777:2778   */\n      0x00\n        /* \"#utility.yul\":2787:2900   */\n    tag_120:\n        /* \"#utility.yul\":2801:2807   */\n      dup4\n        /* \"#utility.yul\":2798:2799   */\n      dup2\n        /* \"#utility.yul\":2795:2808   */\n      lt\n        /* \"#utility.yul\":2787:2900   */\n      iszero\n      tag_122\n      jumpi\n        /* \"#utility.yul\":2886:2887   */\n      dup1\n        /* \"#utility.yul\":2881:2884   */\n      dup3\n        /* \"#utility.yul\":2877:2888   */\n      add\n        /* \"#utility.yul\":2871:2889   */\n      mload\n        /* \"#utility.yul\":2867:2868   */\n      dup2\n        /* \"#utility.yul\":2862:2865   */\n      dup5\n        /* \"#utility.yul\":2858:2869   */\n      add\n        /* \"#utility.yul\":2851:2890   */\n      mstore\n        /* \"#utility.yul\":2823:2825   */\n      0x20\n        /* \"#utility.yul\":2820:2821   */\n      dup2\n        /* \"#utility.yul\":2816:2826   */\n      add\n        /* \"#utility.yul\":2811:2826   */\n      swap1\n      pop\n        /* \"#utility.yul\":2787:2900   */\n      jump(tag_120)\n    tag_122:\n        /* \"#utility.yul\":2934:2935   */\n      0x00\n        /* \"#utility.yul\":2925:2931   */\n      dup5\n        /* \"#utility.yul\":2920:2923   */\n      dup5\n        /* \"#utility.yul\":2916:2932   */\n      add\n        /* \"#utility.yul\":2909:2936   */\n      mstore\n        /* \"#utility.yul\":2758:2942   */\n      pop\n        /* \"#utility.yul\":2696:2942   */\n      pop\n      pop\n      pop\n      jump\t// out\n        /* \"#utility.yul\":2948:3334   */\n    tag_78:\n        /* \"#utility.yul\":3052:3055   */\n      0x00\n        /* \"#utility.yul\":3080:3118   */\n      tag_124\n        /* \"#utility.yul\":3112:3117   */\n      dup3\n        /* \"#utility.yul\":3080:3118   */\n      tag_75\n      jump\t// in\n    tag_124:\n        /* \"#utility.yul\":3134:3222   */\n      tag_125\n        /* \"#utility.yul\":3215:3221   */\n      dup2\n        /* \"#utility.yul\":3210:3213   */\n      dup6\n        /* \"#utility.yul\":3134:3222   */\n      tag_76\n      jump\t// in\n    tag_125:\n        /* \"#utility.yul\":3127:3222   */\n      swap4\n      pop\n        /* \"#utility.yul\":3231:3296   */\n      tag_126\n        /* \"#utility.yul\":3289:3295   */\n      dup2\n        /* \"#utility.yul\":3284:3287   */\n      dup6\n        /* \"#utility.yul\":3277:3281   */\n      0x20\n        /* \"#utility.yul\":3270:3275   */\n      dup7\n        /* \"#utility.yul\":3266:3282   */\n      add\n        /* \"#utility.yul\":3231:3296   */\n      tag_77\n      jump\t// in\n    tag_126:\n        /* \"#utility.yul\":3321:3327   */\n      dup1\n        /* \"#utility.yul\":3316:3319   */\n      dup5\n        /* \"#utility.yul\":3312:3328   */\n      add\n        /* \"#utility.yul\":3305:3328   */\n      swap2\n      pop\n        /* \"#utility.yul\":3056:3334   */\n      pop\n        /* \"#utility.yul\":2948:3334   */\n      swap3\n      swap2\n      pop\n      pop\n      jump\t// out\n        /* \"#utility.yul\":3340:3611   */\n    tag_30:\n        /* \"#utility.yul\":3470:3473   */\n      0x00\n        /* \"#utility.yul\":3492:3585   */\n      tag_128\n        /* \"#utility.yul\":3581:3584   */\n      dup3\n        /* \"#utility.yul\":3572:3578   */\n      dup5\n        /* \"#utility.yul\":3492:3585   */\n      tag_78\n      jump\t// in\n    tag_128:\n        /* \"#utility.yul\":3485:3585   */\n      swap2\n      pop\n        /* \"#utility.yul\":3602:3605   */\n      dup2\n        /* \"#utility.yul\":3595:3605   */\n      swap1\n      pop\n        /* \"#utility.yul\":3340:3611   */\n      swap3\n      swap2\n      pop\n      pop\n      jump\t// out\n        /* \"#utility.yul\":3617:3786   */\n    tag_79:\n        /* \"#utility.yul\":3701:3712   */\n      0x00\n        /* \"#utility.yul\":3735:3741   */\n      dup3\n        /* \"#utility.yul\":3730:3733   */\n      dup3\n        /* \"#utility.yul\":3723:3742   */\n      mstore\n        /* \"#utility.yul\":3775:3779   */\n      0x20\n        /* \"#utility.yul\":3770:3773   */\n      dup3\n        /* \"#utility.yul\":3766:3780   */\n      add\n        /* \"#utility.yul\":3751:3780   */\n      swap1\n      pop\n        /* \"#utility.yul\":3617:3786   */\n      swap3\n      swap2\n      pop\n      pop\n      jump\t// out\n        /* \"#utility.yul\":3792:3953   */\n    tag_80:\n        /* \"#utility.yul\":3932:3945   */\n      0x63616c6c206661696c6564000000000000000000000000000000000000000000\n        /* \"#utility.yul\":3928:3929   */\n      0x00\n        /* \"#utility.yul\":3920:3926   */\n      dup3\n        /* \"#utility.yul\":3916:3930   */\n      add\n        /* \"#utility.yul\":3909:3946   */\n      mstore\n        /* \"#utility.yul\":3792:3953   */\n      pop\n      jump\t// out\n        /* \"#utility.yul\":3959:4325   */\n    tag_81:\n        /* \"#utility.yul\":4101:4104   */\n      0x00\n        /* \"#utility.yul\":4122:4189   */\n      tag_132\n        /* \"#utility.yul\":4186:4188   */\n      0x0b\n        /* \"#utility.yul\":4181:4184   */\n      dup4\n        /* \"#utility.yul\":4122:4189   */\n      tag_79\n      jump\t// in\n    tag_132:\n        /* \"#utility.yul\":4115:4189   */\n      swap2\n      pop\n        /* \"#utility.yul\":4198:4291   */\n      tag_133\n        /* \"#utility.yul\":4287:4290   */\n      dup3\n        /* \"#utility.yul\":4198:4291   */\n      tag_80\n      jump\t// in\n    tag_133:\n        /* \"#utility.yul\":4316:4318   */\n      0x20\n        /* \"#utility.yul\":4311:4314   */\n      dup3\n        /* \"#utility.yul\":4307:4319   */\n      add\n        /* \"#utility.yul\":4300:4319   */\n      swap1\n      pop\n        /* \"#utility.yul\":3959:4325   */\n      swap2\n      swap1\n      pop\n      jump\t// out\n        /* \"#utility.yul\":4331:4750   */\n    tag_36:\n        /* \"#utility.yul\":4497:4501   */\n      0x00\n        /* \"#utility.yul\":4535:4537   */\n      0x20\n        /* \"#utility.yul\":4524:4533   */\n      dup3\n        /* \"#utility.yul\":4520:4538   */\n      add\n        /* \"#utility.yul\":4512:4538   */\n      swap1\n      pop\n        /* \"#utility.yul\":4584:4593   */\n      dup2\n        /* \"#utility.yul\":4578:4582   */\n      dup2\n        /* \"#utility.yul\":4574:4594   */\n      sub\n        /* \"#utility.yul\":4570:4571   */\n      0x00\n        /* \"#utility.yul\":4559:4568   */\n      dup4\n        /* \"#utility.yul\":4555:4572   */\n      add\n        /* \"#utility.yul\":4548:4595   */\n      mstore\n        /* \"#utility.yul\":4612:4743   */\n      tag_135\n        /* \"#utility.yul\":4738:4742   */\n      dup2\n        /* \"#utility.yul\":4612:4743   */\n      tag_81\n      jump\t// in\n    tag_135:\n        /* \"#utility.yul\":4604:4743   */\n      swap1\n      pop\n        /* \"#utility.yul\":4331:4750   */\n      swap2\n      swap1\n      pop\n      jump\t// out\n        /* \"#utility.yul\":4756:4915   */\n    tag_82:\n        /* \"#utility.yul\":4821:4826   */\n      0x00\n        /* \"#utility.yul\":4852:4858   */\n      dup2\n        /* \"#utility.yul\":4846:4859   */\n      mload\n        /* \"#utility.yul\":4837:4859   */\n      swap1\n      pop\n        /* \"#utility.yul\":4868:4909   */\n      tag_137\n        /* \"#utility.yul\":4903:4908   */\n      dup2\n        /* \"#utility.yul\":4868:4909   */\n      tag_73\n      jump\t// in\n    tag_137:\n        /* \"#utility.yul\":4756:4915   */\n      swap3\n      swap2\n      pop\n      pop\n      jump\t// out\n        /* \"#utility.yul\":4921:5288   */\n    tag_38:\n        /* \"#utility.yul\":4999:5005   */\n      0x00\n        /* \"#utility.yul\":5048:5050   */\n      0x20\n        /* \"#utility.yul\":5036:5045   */\n      dup3\n        /* \"#utility.yul\":5027:5034   */\n      dup5\n        /* \"#utility.yul\":5023:5046   */\n      sub\n        /* \"#utility.yul\":5019:5051   */\n      slt\n        /* \"#utility.yul\":5016:5135   */\n      iszero\n      tag_139\n      jumpi\n        /* \"#utility.yul\":5054:5133   */\n      tag_140\n      tag_65\n      jump\t// in\n    tag_140:\n        /* \"#utility.yul\":5016:5135   */\n    tag_139:\n        /* \"#utility.yul\":5174:5175   */\n      0x00\n        /* \"#utility.yul\":5199:5271   */\n      tag_141\n        /* \"#utility.yul\":5263:5270   */\n      dup5\n        /* \"#utility.yul\":5254:5260   */\n      dup3\n        /* \"#utility.yul\":5243:5252   */\n      dup6\n        /* \"#utility.yul\":5239:5261   */\n      add\n        /* \"#utility.yul\":5199:5271   */\n      tag_82\n      jump\t// in\n    tag_141:\n        /* \"#utility.yul\":5189:5271   */\n      swap2\n      pop\n        /* \"#utility.yul\":5145:5281   */\n      pop\n        /* \"#utility.yul\":4921:5288   */\n      swap3\n      swap2\n      pop\n      pop\n      jump\t// out\n        /* \"#utility.yul\":5294:5453   */\n    tag_83:\n        /* \"#utility.yul\":5434:5445   */\n      0x6e6f74206f776e65720000000000000000000000000000000000000000000000\n        /* \"#utility.yul\":5430:5431   */\n      0x00\n        /* \"#utility.yul\":5422:5428   */\n      dup3\n        /* \"#utility.yul\":5418:5432   */\n      add\n        /* \"#utility.yul\":5411:5446   */\n      mstore\n        /* \"#utility.yul\":5294:5453   */\n      pop\n      jump\t// out\n        /* \"#utility.yul\":5459:5824   */\n    tag_84:\n        /* \"#utility.yul\":5601:5604   */\n      0x00\n        /* \"#utility.yul\":5622:5688   */\n      tag_144\n        /* \"#utility.yul\":5686:5687   */\n      0x09\n        /* \"#utility.yul\":5681:5684   */\n      dup4\n        /* \"#utility.yul\":5622:5688   */\n      tag_79\n      jump\t// in\n    tag_144:\n        /* \"#utility.yul\":5615:5688   */\n      swap2\n      pop\n        /* \"#utility.yul\":5697:5790   */\n      tag_145\n        /* \"#utility.yul\":5786:5789   */\n      dup3\n        /* \"#utility.yul\":5697:5790   */\n      tag_83\n      jump\t// in\n    tag_145:\n        /* \"#utility.yul\":5815:5817   */\n      0x20\n        /* \"#utility.yul\":5810:5813   */\n      dup3\n        /* \"#utility.yul\":5806:5818   */\n      add\n        /* \"#utility.yul\":5799:5818   */\n      swap1\n      pop\n        /* \"#utility.yul\":5459:5824   */\n      swap2\n      swap1\n      pop\n      jump\t// out\n        /* \"#utility.yul\":5830:6249   */\n    tag_42:\n        /* \"#utility.yul\":5996:6000   */\n      0x00\n        /* \"#utility.yul\":6034:6036   */\n      0x20\n        /* \"#utility.yul\":6023:6032   */\n      dup3\n        /* \"#utility.yul\":6019:6037   */\n      add\n        /* \"#utility.yul\":6011:6037   */\n      swap1\n      pop\n        /* \"#utility.yul\":6083:6092   */\n      dup2\n        /* \"#utility.yul\":6077:6081   */\n      dup2\n        /* \"#utility.yul\":6073:6093   */\n      sub\n        /* \"#utility.yul\":6069:6070   */\n      0x00\n        /* \"#utility.yul\":6058:6067   */\n      dup4\n        /* \"#utility.yul\":6054:6071   */\n      add\n        /* \"#utility.yul\":6047:6094   */\n      mstore\n        /* \"#utility.yul\":6111:6242   */\n      tag_147\n        /* \"#utility.yul\":6237:6241   */\n      dup2\n        /* \"#utility.yul\":6111:6242   */\n      tag_84\n      jump\t// in\n    tag_147:\n        /* \"#utility.yul\":6103:6242   */\n      swap1\n      pop\n        /* \"#utility.yul\":5830:6249   */\n      swap2\n      swap1\n      pop\n      jump\t// out\n\n    auxdata: 0xa2646970667358221220c00e4532ed088a37547f1ca41f652b7f71eb1d78ef4e54ec72d8e7b25949215c64736f6c63430008120033\n}\n",
				"bytecode": {
					"linkReferences": {},
					"object": "608060405234801561001057600080fd5b50336000806101000a81548173ffffffffffffffffffffffffffffffffffffffff021916908373ffffffffffffffffffffffffffffffffffffffff16021790555061087d806100606000396000f3fe608060405234801561001057600080fd5b50600436106100575760003560e01c8063204e1c7a1461005c5780637eff275e1461008c5780638da5cb5b146100a857806399a88ec4146100c6578063f3b7dead146100e2575b600080fd5b610076600480360381019061007191906105bf565b610112565b60405161008391906105fb565b60405180910390f35b6100a660048036038101906100a19190610654565b610228565b005b6100b0610325565b6040516100bd91906105fb565b60405180910390f35b6100e060048036038101906100db9190610654565b610349565b005b6100fc60048036038101906100f791906105bf565b610446565b60405161010991906105fb565b60405180910390f35b60008060008373ffffffffffffffffffffffffffffffffffffffff16604051602401604051602081830303815290604052635c60da1b60e01b6020820180517bffffffffffffffffffffffffffffffffffffffffffffffffffffffff83818316178352505050506040516101869190610705565b600060405180830381855afa9150503d80600081146101c1576040519150601f19603f3d011682016040523d82523d6000602084013e6101c6565b606091505b50915091508161020b576040517f08c379a000000000000000000000000000000000000000000000000000000000815260040161020290610779565b60405180910390fd5b8080602001905181019061021f91906107ae565b92505050919050565b3373ffffffffffffffffffffffffffffffffffffffff1660008054906101000a900473ffffffffffffffffffffffffffffffffffffffff1673ffffffffffffffffffffffffffffffffffffffff16146102b6576040517f08c379a00000000000000000000000000000000000000000000000000000000081526004016102ad90610827565b60405180910390fd5b8173ffffffffffffffffffffffffffffffffffffffff16638f283970826040518263ffffffff1660e01b81526004016102ef91906105fb565b600060405180830381600087803b15801561030957600080fd5b505af115801561031d573d6000803e3d6000fd5b505050505050565b60008054906101000a900473ffffffffffffffffffffffffffffffffffffffff1681565b3373ffffffffffffffffffffffffffffffffffffffff1660008054906101000a900473ffffffffffffffffffffffffffffffffffffffff1673ffffffffffffffffffffffffffffffffffffffff16146103d7576040517f08c379a00000000000000000000000000000000000000000000000000000000081526004016103ce90610827565b60405180910390fd5b8173ffffffffffffffffffffffffffffffffffffffff16633659cfe6826040518263ffffffff1660e01b815260040161041091906105fb565b600060405180830381600087803b15801561042a57600080fd5b505af115801561043e573d6000803e3d6000fd5b505050505050565b60008060008373ffffffffffffffffffffffffffffffffffffffff1660405160240160405160208183030381529060405263f851a44060e01b6020820180517bffffffffffffffffffffffffffffffffffffffffffffffffffffffff83818316178352505050506040516104ba9190610705565b600060405180830381855afa9150503d80600081146104f5576040519150601f19603f3d011682016040523d82523d6000602084013e6104fa565b606091505b50915091508161053f576040517f08c379a000000000000000000000000000000000000000000000000000000000815260040161053690610779565b60405180910390fd5b8080602001905181019061055391906107ae565b92505050919050565b600080fd5b600073ffffffffffffffffffffffffffffffffffffffff82169050919050565b600061058c82610561565b9050919050565b61059c81610581565b81146105a757600080fd5b50565b6000813590506105b981610593565b92915050565b6000602082840312156105d5576105d461055c565b5b60006105e3848285016105aa565b91505092915050565b6105f581610581565b82525050565b600060208201905061061060008301846105ec565b92915050565b600061062182610561565b9050919050565b61063181610616565b811461063c57600080fd5b50565b60008135905061064e81610628565b92915050565b6000806040838503121561066b5761066a61055c565b5b60006106798582860161063f565b925050602061068a858286016105aa565b9150509250929050565b600081519050919050565b600081905092915050565b60005b838110156106c85780820151818401526020810190506106ad565b60008484015250505050565b60006106df82610694565b6106e9818561069f565b93506106f98185602086016106aa565b80840191505092915050565b600061071182846106d4565b915081905092915050565b600082825260208201905092915050565b7f63616c6c206661696c6564000000000000000000000000000000000000000000600082015250565b6000610763600b8361071c565b915061076e8261072d565b602082019050919050565b6000602082019050818103600083015261079281610756565b9050919050565b6000815190506107a881610628565b92915050565b6000602082840312156107c4576107c361055c565b5b60006107d284828501610799565b91505092915050565b7f6e6f74206f776e65720000000000000000000000000000000000000000000000600082015250565b600061081160098361071c565b915061081c826107db565b602082019050919050565b6000602082019050818103600083015261084081610804565b905091905056fea2646970667358221220c00e4532ed088a37547f1ca41f652b7f71eb1d78ef4e54ec72d8e7b25949215c64736f6c63430008120033",
					"opcodes": "PUSH1 0x80 PUSH1 0x40 MSTORE CALLVALUE DUP1 ISZERO PUSH2 0x10 JUMPI PUSH1 0x0 DUP1 REVERT JUMPDEST POP CALLER PUSH1 0x0 DUP1 PUSH2 0x100 EXP DUP2 SLOAD DUP2 PUSH20 0xFFFFFFFFFFFFFFFFFFFFFFFFFFFFFFFFFFFFFFFF MUL NOT AND SWAP1 DUP4 PUSH20 0xFFFFFFFFFFFFFFFFFFFFFFFFFFFFFFFFFFFFFFFF AND MUL OR SWAP1 SSTORE POP PUSH2 0x87D DUP1 PUSH2 0x60 PUSH1 0x0 CODECOPY PUSH1 0x0 RETURN INVALID PUSH1 0x80 PUSH1 0x40 MSTORE CALLVALUE DUP1 ISZERO PUSH2 0x10 JUMPI PUSH1 0x0 DUP1 REVERT JUMPDEST POP PUSH1 0x4 CALLDATASIZE LT PUSH2 0x57 JUMPI PUSH1 0x0 CALLDATALOAD PUSH1 0xE0 SHR DUP1 PUSH4 0x204E1C7A EQ PUSH2 0x5C JUMPI DUP1 PUSH4 0x7EFF275E EQ PUSH2 0x8C JUMPI DUP1 PUSH4 0x8DA5CB5B EQ PUSH2 0xA8 JUMPI DUP1 PUSH4 0x99A88EC4 EQ PUSH2 0xC6 JUMPI DUP1 PUSH4 0xF3B7DEAD EQ PUSH2 0xE2 JUMPI JUMPDEST PUSH1 0x0 DUP1 REVERT JUMPDEST PUSH2 0x76 PUSH1 0x4 DUP1 CALLDATASIZE SUB DUP2 ADD SWAP1 PUSH2 0x71 SWAP2 SWAP1 PUSH2 0x5BF JUMP JUMPDEST PUSH2 0x112 JUMP JUMPDEST PUSH1 0x40 MLOAD PUSH2 0x83 SWAP2 SWAP1 PUSH2 0x5FB JUMP JUMPDEST PUSH1 0x40 MLOAD DUP1 SWAP2 SUB SWAP1 RETURN JUMPDEST PUSH2 0xA6 PUSH1 0x4 DUP1 CALLDATASIZE SUB DUP2 ADD SWAP1 PUSH2 0xA1 SWAP2 SWAP1 PUSH2 0x654 JUMP JUMPDEST PUSH2 0x228 JUMP JUMPDEST STOP JUMPDEST PUSH2 0xB0 PUSH2 0x325 JUMP JUMPDEST PUSH1 0x40 MLOAD PUSH2 0xBD SWAP2 SWAP1 PUSH2 0x5FB JUMP JUMPDEST PUSH1 0x40 MLOAD DUP1 SWAP2 SUB SWAP1 RETURN JUMPDEST PUSH2 0xE0 PUSH1 0x4 DUP1 CALLDATASIZE SUB DUP2 ADD SWAP1 PUSH2 0xDB SWAP2 SWAP1 PUSH2 0x654 JUMP JUMPDEST PUSH2 0x349 JUMP JUMPDEST STOP JUMPDEST PUSH2 0xFC PUSH1 0x4 DUP1 CALLDATASIZE SUB DUP2 ADD SWAP1 PUSH2 0xF7 SWAP2 SWAP1 PUSH2 0x5BF JUMP JUMPDEST PUSH2 0x446 JUMP JUMPDEST PUSH1 0x40 MLOAD PUSH2 0x109 SWAP2 SWAP1 PUSH2 0x5FB JUMP JUMPDEST PUSH1 0x40 MLOAD DUP1 SWAP2 SUB SWAP1 RETURN JUMPDEST PUSH1 0x0 DUP1 PUSH1 0x0 DUP4 PUSH20 0xFFFFFFFFFFFFFFFFFFFFFFFFFFFFFFFFFFFFFFFF AND PUSH1 0x40 MLOAD PUSH1 0x24 ADD PUSH1 0x40 MLOAD PUSH1 0x20 DUP2 DUP4 SUB SUB DUP2 MSTORE SWAP1 PUSH1 0x40 MSTORE PUSH4 0x5C60DA1B PUSH1 0xE0 SHL PUSH1 0x20 DUP3 ADD DUP1 MLOAD PUSH28 0xFFFFFFFFFFFFFFFFFFFFFFFFFFFFFFFFFFFFFFFFFFFFFFFFFFFFFFFF DUP4 DUP2 DUP4 AND OR DUP4 MSTORE POP POP POP POP PUSH1 0x40 MLOAD PUSH2 0x186 SWAP2 SWAP1 PUSH2 0x705 JUMP JUMPDEST PUSH1 0x0 PUSH1 0x40 MLOAD DUP1 DUP4 SUB DUP2 DUP6 GAS STATICCALL SWAP2 POP POP RETURNDATASIZE DUP1 PUSH1 0x0 DUP2 EQ PUSH2 0x1C1 JUMPI PUSH1 0x40 MLOAD SWAP2 POP PUSH1 0x1F NOT PUSH1 0x3F RETURNDATASIZE ADD AND DUP3 ADD PUSH1 0x40 MSTORE RETURNDATASIZE DUP3 MSTORE RETURNDATASIZE PUSH1 0x0 PUSH1 0x20 DUP5 ADD RETURNDATACOPY PUSH2 0x1C6 JUMP JUMPDEST PUSH1 0x60 SWAP2 POP JUMPDEST POP SWAP2 POP SWAP2 POP DUP2 PUSH2 0x20B JUMPI PUSH1 0x40 MLOAD PUSH32 0x8C379A000000000000000000000000000000000000000000000000000000000 DUP2 MSTORE PUSH1 0x4 ADD PUSH2 0x202 SWAP1 PUSH2 0x779 JUMP JUMPDEST PUSH1 0x40 MLOAD DUP1 SWAP2 SUB SWAP1 REVERT JUMPDEST DUP1 DUP1 PUSH1 0x20 ADD SWAP1 MLOAD DUP2 ADD SWAP1 PUSH2 0x21F SWAP2 SWAP1 PUSH2 0x7AE JUMP JUMPDEST SWAP3 POP POP POP SWAP2 SWAP1 POP JUMP JUMPDEST CALLER PUSH20 0xFFFFFFFFFFFFFFFFFFFFFFFFFFFFFFFFFFFFFFFF AND PUSH1 0x0 DUP1 SLOAD SWAP1 PUSH2 0x100 EXP SWAP1 DIV PUSH20 0xFFFFFFFFFFFFFFFFFFFFFFFFFFFFFFFFFFFFFFFF AND PUSH20 0xFFFFFFFFFFFFFFFFFFFFFFFFFFFFFFFFFFFFFFFF AND EQ PUSH2 0x2B6 JUMPI PUSH1 0x40 MLOAD PUSH32 0x8C379A000000000000000000000000000000000000000000000000000000000 DUP2 MSTORE PUSH1 0x4 ADD PUSH2 0x2AD SWAP1 PUSH2 0x827 JUMP JUMPDEST PUSH1 0x40 MLOAD DUP1 SWAP2 SUB SWAP1 REVERT JUMPDEST DUP2 PUSH20 0xFFFFFFFFFFFFFFFFFFFFFFFFFFFFFFFFFFFFFFFF AND PUSH4 0x8F283970 DUP3 PUSH1 0x40 MLOAD DUP3 PUSH4 0xFFFFFFFF AND PUSH1 0xE0 SHL DUP2 MSTORE PUSH1 0x4 ADD PUSH2 0x2EF SWAP2 SWAP1 PUSH2 0x5FB JUMP JUMPDEST PUSH1 0x0 PUSH1 0x40 MLOAD DUP1 DUP4 SUB DUP2 PUSH1 0x0 DUP8 DUP1 EXTCODESIZE ISZERO DUP1 ISZERO PUSH2 0x309 JUMPI PUSH1 0x0 DUP1 REVERT JUMPDEST POP GAS CALL ISZERO DUP1 ISZERO PUSH2 0x31D JUMPI RETURNDATASIZE PUSH1 0x0 DUP1 RETURNDATACOPY RETURNDATASIZE PUSH1 0x0 REVERT JUMPDEST POP POP POP POP POP POP JUMP JUMPDEST PUSH1 0x0 DUP1 SLOAD SWAP1 PUSH2 0x100 EXP SWAP1 DIV PUSH20 0xFFFFFFFFFFFFFFFFFFFFFFFFFFFFFFFFFFFFFFFF AND DUP2 JUMP JUMPDEST CALLER PUSH20 0xFFFFFFFFFFFFFFFFFFFFFFFFFFFFFFFFFFFFFFFF AND PUSH1 0x0 DUP1 SLOAD SWAP1 PUSH2 0x100 EXP SWAP1 DIV PUSH20 0xFFFFFFFFFFFFFFFFFFFFFFFFFFFFFFFFFFFFFFFF AND PUSH20 0xFFFFFFFFFFFFFFFFFFFFFFFFFFFFFFFFFFFFFFFF AND EQ PUSH2 0x3D7 JUMPI PUSH1 0x40 MLOAD PUSH32 0x8C379A000000000000000000000000000000000000000000000000000000000 DUP2 MSTORE PUSH1 0x4 ADD PUSH2 0x3CE SWAP1 PUSH2 0x827 JUMP JUMPDEST PUSH1 0x40 MLOAD DUP1 SWAP2 SUB SWAP1 REVERT JUMPDEST DUP2 PUSH20 0xFFFFFFFFFFFFFFFFFFFFFFFFFFFFFFFFFFFFFFFF AND PUSH4 0x3659CFE6 DUP3 PUSH1 0x40 MLOAD DUP3 PUSH4 0xFFFFFFFF AND PUSH1 0xE0 SHL DUP2 MSTORE PUSH1 0x4 ADD PUSH2 0x410 SWAP2 SWAP1 PUSH2 0x5FB JUMP JUMPDEST PUSH1 0x0 PUSH1 0x40 MLOAD DUP1 DUP4 SUB DUP2 PUSH1 0x0 DUP8 DUP1 EXTCODESIZE ISZERO DUP1 ISZERO PUSH2 0x42A JUMPI PUSH1 0x0 DUP1 REVERT JUMPDEST POP GAS CALL ISZERO DUP1 ISZERO PUSH2 0x43E JUMPI RETURNDATASIZE PUSH1 0x0 DUP1 RETURNDATACOPY RETURNDATASIZE PUSH1 0x0 REVERT JUMPDEST POP POP POP POP POP POP JUMP JUMPDEST PUSH1 0x0 DUP1 PUSH1 0x0 DUP4 PUSH20 0xFFFFFFFFFFFFFFFFFFFFFFFFFFFFFFFFFFFFFFFF AND PUSH1 0x40 MLOAD PUSH1 0x24 ADD PUSH1 0x40 MLOAD PUSH1 0x20 DUP2 DUP4 SUB SUB DUP2 MSTORE SWAP1 PUSH1 0x40 MSTORE PUSH4 0xF851A440 PUSH1 0xE0 SHL PUSH1 0x20 DUP3 ADD DUP1 MLOAD PUSH28 0xFFFFFFFFFFFFFFFFFFFFFFFFFFFFFFFFFFFFFFFFFFFFFFFFFFFFFFFF DUP4 DUP2 DUP4 AND OR DUP4 MSTORE POP POP POP POP PUSH1 0x40 MLOAD PUSH2 0x4BA SWAP2 SWAP1 PUSH2 0x705 JUMP JUMPDEST PUSH1 0x0 PUSH1 0x40 MLOAD DUP1 DUP4 SUB DUP2 DUP6 GAS STATICCALL SWAP2 POP POP RETURNDATASIZE DUP1 PUSH1 0x0 DUP2 EQ PUSH2 0x4F5 JUMPI PUSH1 0x40 MLOAD SWAP2 POP PUSH1 0x1F NOT PUSH1 0x3F RETURNDATASIZE ADD AND DUP3 ADD PUSH1 0x40 MSTORE RETURNDATASIZE DUP3 MSTORE RETURNDATASIZE PUSH1 0x0 PUSH1 0x20 DUP5 ADD RETURNDATACOPY PUSH2 0x4FA JUMP JUMPDEST PUSH1 0x60 SWAP2 POP JUMPDEST POP SWAP2 POP SWAP2 POP DUP2 PUSH2 0x53F JUMPI PUSH1 0x40 MLOAD PUSH32 0x8C379A000000000000000000000000000000000000000000000000000000000 DUP2 MSTORE PUSH1 0x4 ADD PUSH2 0x536 SWAP1 PUSH2 0x779 JUMP JUMPDEST PUSH1 0x40 MLOAD DUP1 SWAP2 SUB SWAP1 REVERT JUMPDEST DUP1 DUP1 PUSH1 0x20 ADD SWAP1 MLOAD DUP2 ADD SWAP1 PUSH2 0x553 SWAP2 SWAP1 PUSH2 0x7AE JUMP JUMPDEST SWAP3 POP POP POP SWAP2 SWAP1 POP JUMP JUMPDEST PUSH1 0x0 DUP1 REVERT JUMPDEST PUSH1 0x0 PUSH20 0xFFFFFFFFFFFFFFFFFFFFFFFFFFFFFFFFFFFFFFFF DUP3 AND SWAP1 POP SWAP2 SWAP1 POP JUMP JUMPDEST PUSH1 0x0 PUSH2 0x58C DUP3 PUSH2 0x561 JUMP JUMPDEST SWAP1 POP SWAP2 SWAP1 POP JUMP JUMPDEST PUSH2 0x59C DUP2 PUSH2 0x581 JUMP JUMPDEST DUP2 EQ PUSH2 0x5A7 JUMPI PUSH1 0x0 DUP1 REVERT JUMPDEST POP JUMP JUMPDEST PUSH1 0x0 DUP2 CALLDATALOAD SWAP1 POP PUSH2 0x5B9 DUP2 PUSH2 0x593 JUMP JUMPDEST SWAP3 SWAP2 POP POP JUMP JUMPDEST PUSH1 0x0 PUSH1 0x20 DUP3 DUP5 SUB SLT ISZERO PUSH2 0x5D5 JUMPI PUSH2 0x5D4 PUSH2 0x55C JUMP JUMPDEST JUMPDEST PUSH1 0x0 PUSH2 0x5E3 DUP5 DUP3 DUP6 ADD PUSH2 0x5AA JUMP JUMPDEST SWAP2 POP POP SWAP3 SWAP2 POP POP JUMP JUMPDEST PUSH2 0x5F5 DUP2 PUSH2 0x581 JUMP JUMPDEST DUP3 MSTORE POP POP JUMP JUMPDEST PUSH1 0x0 PUSH1 0x20 DUP3 ADD SWAP1 POP PUSH2 0x610 PUSH1 0x0 DUP4 ADD DUP5 PUSH2 0x5EC JUMP JUMPDEST SWAP3 SWAP2 POP POP JUMP JUMPDEST PUSH1 0x0 PUSH2 0x621 DUP3 PUSH2 0x561 JUMP JUMPDEST SWAP1 POP SWAP2 SWAP1 POP JUMP JUMPDEST PUSH2 0x631 DUP2 PUSH2 0x616 JUMP JUMPDEST DUP2 EQ PUSH2 0x63C JUMPI PUSH1 0x0 DUP1 REVERT JUMPDEST POP JUMP JUMPDEST PUSH1 0x0 DUP2 CALLDATALOAD SWAP1 POP PUSH2 0x64E DUP2 PUSH2 0x628 JUMP JUMPDEST SWAP3 SWAP2 POP POP JUMP JUMPDEST PUSH1 0x0 DUP1 PUSH1 0x40 DUP4 DUP6 SUB SLT ISZERO PUSH2 0x66B JUMPI PUSH2 0x66A PUSH2 0x55C JUMP JUMPDEST JUMPDEST PUSH1 0x0 PUSH2 0x679 DUP6 DUP3 DUP7 ADD PUSH2 0x63F JUMP JUMPDEST SWAP3 POP POP PUSH1 0x20 PUSH2 0x68A DUP6 DUP3 DUP7 ADD PUSH2 0x5AA JUMP JUMPDEST SWAP2 POP POP SWAP3 POP SWAP3 SWAP1 POP JUMP JUMPDEST PUSH1 0x0 DUP2 MLOAD SWAP1 POP SWAP2 SWAP1 POP JUMP JUMPDEST PUSH1 0x0 DUP2 SWAP1 POP SWAP3 SWAP2 POP POP JUMP JUMPDEST PUSH1 0x0 JUMPDEST DUP4 DUP2 LT ISZERO PUSH2 0x6C8 JUMPI DUP1 DUP3 ADD MLOAD DUP2 DUP5 ADD MSTORE PUSH1 0x20 DUP2 ADD SWAP1 POP PUSH2 0x6AD JUMP JUMPDEST PUSH1 0x0 DUP5 DUP5 ADD MSTORE POP POP POP POP JUMP JUMPDEST PUSH1 0x0 PUSH2 0x6DF DUP3 PUSH2 0x694 JUMP JUMPDEST PUSH2 0x6E9 DUP2 DUP6 PUSH2 0x69F JUMP JUMPDEST SWAP4 POP PUSH2 0x6F9 DUP2 DUP6 PUSH1 0x20 DUP7 ADD PUSH2 0x6AA JUMP JUMPDEST DUP1 DUP5 ADD SWAP2 POP POP SWAP3 SWAP2 POP POP JUMP JUMPDEST PUSH1 0x0 PUSH2 0x711 DUP3 DUP5 PUSH2 0x6D4 JUMP JUMPDEST SWAP2 POP DUP2 SWAP1 POP SWAP3 SWAP2 POP POP JUMP JUMPDEST PUSH1 0x0 DUP3 DUP3 MSTORE PUSH1 0x20 DUP3 ADD SWAP1 POP SWAP3 SWAP2 POP POP JUMP JUMPDEST PUSH32 0x63616C6C206661696C6564000000000000000000000000000000000000000000 PUSH1 0x0 DUP3 ADD MSTORE POP JUMP JUMPDEST PUSH1 0x0 PUSH2 0x763 PUSH1 0xB DUP4 PUSH2 0x71C JUMP JUMPDEST SWAP2 POP PUSH2 0x76E DUP3 PUSH2 0x72D JUMP JUMPDEST PUSH1 0x20 DUP3 ADD SWAP1 POP SWAP2 SWAP1 POP JUMP JUMPDEST PUSH1 0x0 PUSH1 0x20 DUP3 ADD SWAP1 POP DUP2 DUP2 SUB PUSH1 0x0 DUP4 ADD MSTORE PUSH2 0x792 DUP2 PUSH2 0x756 JUMP JUMPDEST SWAP1 POP SWAP2 SWAP1 POP JUMP JUMPDEST PUSH1 0x0 DUP2 MLOAD SWAP1 POP PUSH2 0x7A8 DUP2 PUSH2 0x628 JUMP JUMPDEST SWAP3 SWAP2 POP POP JUMP JUMPDEST PUSH1 0x0 PUSH1 0x20 DUP3 DUP5 SUB SLT ISZERO PUSH2 0x7C4 JUMPI PUSH2 0x7C3 PUSH2 0x55C JUMP JUMPDEST JUMPDEST PUSH1 0x0 PUSH2 0x7D2 DUP5 DUP3 DUP6 ADD PUSH2 0x799 JUMP JUMPDEST SWAP2 POP POP SWAP3 SWAP2 POP POP JUMP JUMPDEST PUSH32 0x6E6F74206F776E65720000000000000000000000000000000000000000000000 PUSH1 0x0 DUP3 ADD MSTORE POP JUMP JUMPDEST PUSH1 0x0 PUSH2 0x811 PUSH1 0x9 DUP4 PUSH2 0x71C JUMP JUMPDEST SWAP2 POP PUSH2 0x81C DUP3 PUSH2 0x7DB JUMP JUMPDEST PUSH1 0x20 DUP3 ADD SWAP1 POP SWAP2 SWAP1 POP JUMP JUMPDEST PUSH1 0x0 PUSH1 0x20 DUP3 ADD SWAP1 POP DUP2 DUP2 SUB PUSH1 0x0 DUP4 ADD MSTORE PUSH2 0x840 DUP2 PUSH2 0x804 JUMP JUMPDEST SWAP1 POP SWAP2 SWAP1 POP JUMP INVALID LOG2 PUSH5 0x6970667358 0x22 SLT KECCAK256 0xC0 0xE GASLIMIT ORIGIN 0xED ADDMOD DUP11 CALLDATACOPY SLOAD PUSH32 0x1CA41F652B7F71EB1D78EF4E54EC72D8E7B25949215C64736F6C634300081200 CALLER "
				},
				"gasEstimates": {
					"creation": {
						"codeDepositCost": "434600",
						"executionCost": "24734",
						"totalCost": "459334"
					},
					"external": {
						"changeProxyAdmin(address,address)": "infinite",
						"getProxyAdmin(address)": "infinite",
						"getProxyImplementation(address)": "infinite",
						"owner()": "2533",
						"upgrade(address,address)": "infinite"
					}
				},
				"methodIdentifiers": {
					"changeProxyAdmin(address,address)": "7eff275e",
					"getProxyAdmin(address)": "f3b7dead",
					"getProxyImplementation(address)": "204e1c7a",
					"owner()": "8da5cb5b",
					"upgrade(address,address)": "99a88ec4"
				}
			},
			"storageLayout": {
				"storage": [
					{
						"astId": 255,
						"contract": "Upgradeable_Proxy_Pattern.sol:ProxyAdmin",
						"label": "owner",
						"offset": 0,
						"slot": "0",
						"type": "t_address"
					}
				],
				"types": {
					"t_address": {
						"encoding": "inplace",
						"label": "address",
						"numberOfBytes": "20"
					}
				}
			},
			"userdoc": {
				"kind": "user",
				"methods": {},
				"version": 1
			}
		}
	}
}