{
	"ArrayShift.sol": {
		"ArrayShift": {
			"abi": [
				{
					"inputs": [
						{
							"internalType": "uint256",
							"name": "",
							"type": "uint256"
						}
					],
					"name": "arr",
					"outputs": [
						{
							"internalType": "uint256",
							"name": "",
							"type": "uint256"
						}
					],
					"stateMutability": "view",
					"type": "function"
				},
				{
					"inputs": [],
					"name": "example",
					"outputs": [],
					"stateMutability": "nonpayable",
					"type": "function"
				},
				{
					"inputs": [
						{
							"internalType": "uint256",
							"name": "index",
							"type": "uint256"
						}
					],
					"name": "remove",
					"outputs": [],
					"stateMutability": "nonpayable",
					"type": "function"
				},
				{
					"inputs": [],
					"name": "test",
					"outputs": [],
					"stateMutability": "nonpayable",
					"type": "function"
				}
			],
			"devdoc": {
				"kind": "dev",
				"methods": {},
				"version": 1
			},
			"evm": {
				"assembly": "    /* \"ArrayShift.sol\":60:763  contract ArrayShift {... */\n  mstore(0x40, 0x80)\n  callvalue\n  dup1\n  iszero\n  tag_1\n  jumpi\n  0x00\n  dup1\n  revert\ntag_1:\n  pop\n  dataSize(sub_0)\n  dup1\n  dataOffset(sub_0)\n  0x00\n  codecopy\n  0x00\n  return\nstop\n\nsub_0: assembly {\n        /* \"ArrayShift.sol\":60:763  contract ArrayShift {... */\n      mstore(0x40, 0x80)\n      callvalue\n      dup1\n      iszero\n      tag_1\n      jumpi\n      0x00\n      dup1\n      revert\n    tag_1:\n      pop\n      jumpi(tag_2, lt(calldatasize, 0x04))\n      shr(0xe0, calldataload(0x00))\n      dup1\n      0x4cc82215\n      eq\n      tag_3\n      jumpi\n      dup1\n      0x54353f2f\n      eq\n      tag_4\n      jumpi\n      dup1\n      0x71e5ee5f\n      eq\n      tag_5\n      jumpi\n      dup1\n      0xf8a8fd6d\n      eq\n      tag_6\n      jumpi\n    tag_2:\n      0x00\n      dup1\n      revert\n        /* \"ArrayShift.sol\":217:440  function remove(uint index) public {... */\n    tag_3:\n      tag_7\n      0x04\n      dup1\n      calldatasize\n      sub\n      dup2\n      add\n      swap1\n      tag_8\n      swap2\n      swap1\n      tag_9\n      jump\t// in\n    tag_8:\n      tag_10\n      jump\t// in\n    tag_7:\n      stop\n        /* \"ArrayShift.sol\":113:209  function example() public {... */\n    tag_4:\n      tag_11\n      tag_12\n      jump\t// in\n    tag_11:\n      stop\n        /* \"ArrayShift.sol\":87:104  uint[] public arr */\n    tag_5:\n      tag_13\n      0x04\n      dup1\n      calldatasize\n      sub\n      dup2\n      add\n      swap1\n      tag_14\n      swap2\n      swap1\n      tag_9\n      jump\t// in\n    tag_14:\n      tag_15\n      jump\t// in\n    tag_13:\n      mload(0x40)\n      tag_16\n      swap2\n      swap1\n      tag_17\n      jump\t// in\n    tag_16:\n      mload(0x40)\n      dup1\n      swap2\n      sub\n      swap1\n      return\n        /* \"ArrayShift.sol\":448:760  function test () external {... */\n    tag_6:\n      tag_18\n      tag_19\n      jump\t// in\n    tag_18:\n      stop\n        /* \"ArrayShift.sol\":217:440  function remove(uint index) public {... */\n    tag_10:\n        /* \"ArrayShift.sol\":279:282  arr */\n      0x00\n        /* \"ArrayShift.sol\":279:289  arr.length */\n      dup1\n      sload\n      swap1\n      pop\n        /* \"ArrayShift.sol\":271:276  index */\n      dup2\n        /* \"ArrayShift.sol\":271:289  index < arr.length */\n      lt\n        /* \"ArrayShift.sol\":263:310  require(index < arr.length , \"IndexOutOfBound\") */\n      tag_21\n      jumpi\n      mload(0x40)\n      0x08c379a000000000000000000000000000000000000000000000000000000000\n      dup2\n      mstore\n      0x04\n      add\n      tag_22\n      swap1\n      tag_23\n      jump\t// in\n    tag_22:\n      mload(0x40)\n      dup1\n      swap2\n      sub\n      swap1\n      revert\n    tag_21:\n        /* \"ArrayShift.sol\":326:332  uint i */\n      0x00\n        /* \"ArrayShift.sol\":335:340  index */\n      dup2\n        /* \"ArrayShift.sol\":326:340  uint i = index */\n      swap1\n      pop\n        /* \"ArrayShift.sol\":321:413  for (uint i = index; i < arr.length - 1 ; i++ ) {... */\n    tag_24:\n        /* \"ArrayShift.sol\":359:360  1 */\n      0x01\n        /* \"ArrayShift.sol\":346:349  arr */\n      0x00\n        /* \"ArrayShift.sol\":346:356  arr.length */\n      dup1\n      sload\n      swap1\n      pop\n        /* \"ArrayShift.sol\":346:360  arr.length - 1 */\n      tag_27\n      swap2\n      swap1\n      tag_28\n      jump\t// in\n    tag_27:\n        /* \"ArrayShift.sol\":342:343  i */\n      dup2\n        /* \"ArrayShift.sol\":342:360  i < arr.length - 1 */\n      lt\n        /* \"ArrayShift.sol\":321:413  for (uint i = index; i < arr.length - 1 ; i++ ) {... */\n      iszero\n      tag_25\n      jumpi\n        /* \"ArrayShift.sol\":393:396  arr */\n      0x00\n        /* \"ArrayShift.sol\":399:400  1 */\n      0x01\n        /* \"ArrayShift.sol\":397:398  i */\n      dup3\n        /* \"ArrayShift.sol\":397:400  i+1 */\n      tag_29\n      swap2\n      swap1\n      tag_30\n      jump\t// in\n    tag_29:\n        /* \"ArrayShift.sol\":393:401  arr[i+1] */\n      dup2\n      sload\n      dup2\n      lt\n      tag_31\n      jumpi\n      tag_32\n      tag_33\n      jump\t// in\n    tag_32:\n    tag_31:\n      swap1\n      0x00\n      mstore\n      keccak256(0x00, 0x20)\n      add\n      sload\n        /* \"ArrayShift.sol\":384:387  arr */\n      0x00\n        /* \"ArrayShift.sol\":388:389  i */\n      dup3\n        /* \"ArrayShift.sol\":384:390  arr[i] */\n      dup2\n      sload\n      dup2\n      lt\n      tag_35\n      jumpi\n      tag_36\n      tag_33\n      jump\t// in\n    tag_36:\n    tag_35:\n      swap1\n      0x00\n      mstore\n      keccak256(0x00, 0x20)\n      add\n        /* \"ArrayShift.sol\":384:401  arr[i] = arr[i+1] */\n      dup2\n      swap1\n      sstore\n      pop\n        /* \"ArrayShift.sol\":363:366  i++ */\n      dup1\n      dup1\n      tag_38\n      swap1\n      tag_39\n      jump\t// in\n    tag_38:\n      swap2\n      pop\n      pop\n        /* \"ArrayShift.sol\":321:413  for (uint i = index; i < arr.length - 1 ; i++ ) {... */\n      jump(tag_24)\n    tag_25:\n      pop\n        /* \"ArrayShift.sol\":423:426  arr */\n      0x00\n        /* \"ArrayShift.sol\":423:432  arr.pop() */\n      dup1\n      sload\n      dup1\n      tag_40\n      jumpi\n      tag_41\n      tag_42\n      jump\t// in\n    tag_41:\n    tag_40:\n      0x01\n      swap1\n      sub\n      dup2\n      dup2\n      swap1\n      0x00\n      mstore\n      keccak256(0x00, 0x20)\n      add\n      0x00\n      swap1\n      sstore\n      swap1\n      sstore\n        /* \"ArrayShift.sol\":217:440  function remove(uint index) public {... */\n      pop\n      jump\t// out\n        /* \"ArrayShift.sol\":113:209  function example() public {... */\n    tag_12:\n        /* \"ArrayShift.sol\":150:163  arr = [1,2,3] */\n      mload(0x40)\n      dup1\n      0x60\n      add\n      0x40\n      mstore\n      dup1\n        /* \"ArrayShift.sol\":157:158  1 */\n      0x01\n        /* \"ArrayShift.sol\":150:163  arr = [1,2,3] */\n      0xff\n      and\n      dup2\n      mstore\n      0x20\n      add\n        /* \"ArrayShift.sol\":159:160  2 */\n      0x02\n        /* \"ArrayShift.sol\":150:163  arr = [1,2,3] */\n      0xff\n      and\n      dup2\n      mstore\n      0x20\n      add\n        /* \"ArrayShift.sol\":161:162  3 */\n      0x03\n        /* \"ArrayShift.sol\":150:163  arr = [1,2,3] */\n      0xff\n      and\n      dup2\n      mstore\n      pop\n        /* \"ArrayShift.sol\":150:153  arr */\n      0x00\n        /* \"ArrayShift.sol\":150:163  arr = [1,2,3] */\n      swap1\n      0x03\n      tag_45\n      swap3\n      swap2\n      swap1\n      tag_46\n      jump\t// in\n    tag_45:\n      pop\n        /* \"ArrayShift.sol\":181:184  arr */\n      0x00\n        /* \"ArrayShift.sol\":185:186  1 */\n      0x01\n        /* \"ArrayShift.sol\":181:187  arr[1] */\n      dup2\n      sload\n      dup2\n      lt\n      tag_47\n      jumpi\n      tag_48\n      tag_33\n      jump\t// in\n    tag_48:\n    tag_47:\n      swap1\n      0x00\n      mstore\n      keccak256(0x00, 0x20)\n      add\n        /* \"ArrayShift.sol\":174:187  delete arr[1] */\n      0x00\n      swap1\n      sstore\n        /* \"ArrayShift.sol\":113:209  function example() public {... */\n      jump\t// out\n        /* \"ArrayShift.sol\":87:104  uint[] public arr */\n    tag_15:\n      0x00\n      dup2\n      dup2\n      sload\n      dup2\n      lt\n      tag_50\n      jumpi\n      0x00\n      dup1\n      revert\n    tag_50:\n      swap1\n      0x00\n      mstore\n      keccak256(0x00, 0x20)\n      add\n      0x00\n      swap2\n      pop\n      swap1\n      pop\n      sload\n      dup2\n      jump\t// out\n        /* \"ArrayShift.sol\":448:760  function test () external {... */\n    tag_19:\n        /* \"ArrayShift.sol\":485:502  arr = [1,2,3,4,5] */\n      mload(0x40)\n      dup1\n      0xa0\n      add\n      0x40\n      mstore\n      dup1\n        /* \"ArrayShift.sol\":492:493  1 */\n      0x01\n        /* \"ArrayShift.sol\":485:502  arr = [1,2,3,4,5] */\n      0xff\n      and\n      dup2\n      mstore\n      0x20\n      add\n        /* \"ArrayShift.sol\":494:495  2 */\n      0x02\n        /* \"ArrayShift.sol\":485:502  arr = [1,2,3,4,5] */\n      0xff\n      and\n      dup2\n      mstore\n      0x20\n      add\n        /* \"ArrayShift.sol\":496:497  3 */\n      0x03\n        /* \"ArrayShift.sol\":485:502  arr = [1,2,3,4,5] */\n      0xff\n      and\n      dup2\n      mstore\n      0x20\n      add\n        /* \"ArrayShift.sol\":498:499  4 */\n      0x04\n        /* \"ArrayShift.sol\":485:502  arr = [1,2,3,4,5] */\n      0xff\n      and\n      dup2\n      mstore\n      0x20\n      add\n        /* \"ArrayShift.sol\":500:501  5 */\n      0x05\n        /* \"ArrayShift.sol\":485:502  arr = [1,2,3,4,5] */\n      0xff\n      and\n      dup2\n      mstore\n      pop\n        /* \"ArrayShift.sol\":485:488  arr */\n      0x00\n        /* \"ArrayShift.sol\":485:502  arr = [1,2,3,4,5] */\n      swap1\n      0x05\n      tag_53\n      swap3\n      swap2\n      swap1\n      tag_54\n      jump\t// in\n    tag_53:\n      pop\n        /* \"ArrayShift.sol\":513:522  remove(2) */\n      tag_55\n        /* \"ArrayShift.sol\":520:521  2 */\n      0x02\n        /* \"ArrayShift.sol\":513:519  remove */\n      tag_10\n        /* \"ArrayShift.sol\":513:522  remove(2) */\n      jump\t// in\n    tag_55:\n        /* \"ArrayShift.sol\":550:551  1 */\n      0x01\n        /* \"ArrayShift.sol\":540:543  arr */\n      0x00\n        /* \"ArrayShift.sol\":544:545  0 */\n      dup1\n        /* \"ArrayShift.sol\":540:546  arr[0] */\n      dup2\n      sload\n      dup2\n      lt\n      tag_56\n      jumpi\n      tag_57\n      tag_33\n      jump\t// in\n    tag_57:\n    tag_56:\n      swap1\n      0x00\n      mstore\n      keccak256(0x00, 0x20)\n      add\n      sload\n        /* \"ArrayShift.sol\":540:551  arr[0] == 1 */\n      eq\n        /* \"ArrayShift.sol\":533:552  assert(arr[0] == 1) */\n      tag_59\n      jumpi\n      tag_60\n      tag_61\n      jump\t// in\n    tag_60:\n    tag_59:\n        /* \"ArrayShift.sol\":580:581  2 */\n      0x02\n        /* \"ArrayShift.sol\":570:573  arr */\n      0x00\n        /* \"ArrayShift.sol\":574:575  1 */\n      0x01\n        /* \"ArrayShift.sol\":570:576  arr[1] */\n      dup2\n      sload\n      dup2\n      lt\n      tag_62\n      jumpi\n      tag_63\n      tag_33\n      jump\t// in\n    tag_63:\n    tag_62:\n      swap1\n      0x00\n      mstore\n      keccak256(0x00, 0x20)\n      add\n      sload\n        /* \"ArrayShift.sol\":570:581  arr[1] == 2 */\n      eq\n        /* \"ArrayShift.sol\":563:582  assert(arr[1] == 2) */\n      tag_65\n      jumpi\n      tag_66\n      tag_61\n      jump\t// in\n    tag_66:\n    tag_65:\n        /* \"ArrayShift.sol\":610:611  4 */\n      0x04\n        /* \"ArrayShift.sol\":600:603  arr */\n      0x00\n        /* \"ArrayShift.sol\":604:605  2 */\n      0x02\n        /* \"ArrayShift.sol\":600:606  arr[2] */\n      dup2\n      sload\n      dup2\n      lt\n      tag_67\n      jumpi\n      tag_68\n      tag_33\n      jump\t// in\n    tag_68:\n    tag_67:\n      swap1\n      0x00\n      mstore\n      keccak256(0x00, 0x20)\n      add\n      sload\n        /* \"ArrayShift.sol\":600:611  arr[2] == 4 */\n      eq\n        /* \"ArrayShift.sol\":593:612  assert(arr[2] == 4) */\n      tag_70\n      jumpi\n      tag_71\n      tag_61\n      jump\t// in\n    tag_71:\n    tag_70:\n        /* \"ArrayShift.sol\":640:641  5 */\n      0x05\n        /* \"ArrayShift.sol\":630:633  arr */\n      0x00\n        /* \"ArrayShift.sol\":634:635  3 */\n      0x03\n        /* \"ArrayShift.sol\":630:636  arr[3] */\n      dup2\n      sload\n      dup2\n      lt\n      tag_72\n      jumpi\n      tag_73\n      tag_33\n      jump\t// in\n    tag_73:\n    tag_72:\n      swap1\n      0x00\n      mstore\n      keccak256(0x00, 0x20)\n      add\n      sload\n        /* \"ArrayShift.sol\":630:641  arr[3] == 5 */\n      eq\n        /* \"ArrayShift.sol\":623:642  assert(arr[3] == 5) */\n      tag_75\n      jumpi\n      tag_76\n      tag_61\n      jump\t// in\n    tag_76:\n    tag_75:\n        /* \"ArrayShift.sol\":674:675  4 */\n      0x04\n        /* \"ArrayShift.sol\":660:663  arr */\n      0x00\n        /* \"ArrayShift.sol\":660:670  arr.length */\n      dup1\n      sload\n      swap1\n      pop\n        /* \"ArrayShift.sol\":660:675  arr.length == 4 */\n      eq\n        /* \"ArrayShift.sol\":653:676  assert(arr.length == 4) */\n      tag_77\n      jumpi\n      tag_78\n      tag_61\n      jump\t// in\n    tag_78:\n    tag_77:\n        /* \"ArrayShift.sol\":689:698  arr = [1] */\n      mload(0x40)\n      dup1\n      0x20\n      add\n      0x40\n      mstore\n      dup1\n        /* \"ArrayShift.sol\":696:697  1 */\n      0x01\n        /* \"ArrayShift.sol\":689:698  arr = [1] */\n      0xff\n      and\n      dup2\n      mstore\n      pop\n        /* \"ArrayShift.sol\":689:692  arr */\n      0x00\n        /* \"ArrayShift.sol\":689:698  arr = [1] */\n      swap1\n      0x01\n      tag_79\n      swap3\n      swap2\n      swap1\n      tag_80\n      jump\t// in\n    tag_79:\n      pop\n        /* \"ArrayShift.sol\":709:718  remove(0) */\n      tag_81\n        /* \"ArrayShift.sol\":716:717  0 */\n      0x00\n        /* \"ArrayShift.sol\":709:715  remove */\n      tag_10\n        /* \"ArrayShift.sol\":709:718  remove(0) */\n      jump\t// in\n    tag_81:\n        /* \"ArrayShift.sol\":750:751  0 */\n      0x00\n        /* \"ArrayShift.sol\":736:739  arr */\n      dup1\n        /* \"ArrayShift.sol\":736:746  arr.length */\n      dup1\n      sload\n      swap1\n      pop\n        /* \"ArrayShift.sol\":736:751  arr.length == 0 */\n      eq\n        /* \"ArrayShift.sol\":729:752  assert(arr.length == 0) */\n      tag_82\n      jumpi\n      tag_83\n      tag_61\n      jump\t// in\n    tag_83:\n    tag_82:\n        /* \"ArrayShift.sol\":448:760  function test () external {... */\n      jump\t// out\n    tag_46:\n      dup3\n      dup1\n      sload\n      dup3\n      dup3\n      sstore\n      swap1\n      0x00\n      mstore\n      keccak256(0x00, 0x20)\n      swap1\n      dup2\n      add\n      swap3\n      dup3\n      iszero\n      tag_84\n      jumpi\n      swap2\n      0x20\n      mul\n      dup3\n      add\n    tag_85:\n      dup3\n      dup2\n      gt\n      iszero\n      tag_86\n      jumpi\n      dup3\n      mload\n      dup3\n      swap1\n      0xff\n      and\n      swap1\n      sstore\n      swap2\n      0x20\n      add\n      swap2\n      swap1\n      0x01\n      add\n      swap1\n      jump(tag_85)\n    tag_86:\n    tag_84:\n      pop\n      swap1\n      pop\n      tag_87\n      swap2\n      swap1\n      tag_88\n      jump\t// in\n    tag_87:\n      pop\n      swap1\n      jump\t// out\n    tag_54:\n      dup3\n      dup1\n      sload\n      dup3\n      dup3\n      sstore\n      swap1\n      0x00\n      mstore\n      keccak256(0x00, 0x20)\n      swap1\n      dup2\n      add\n      swap3\n      dup3\n      iszero\n      tag_89\n      jumpi\n      swap2\n      0x20\n      mul\n      dup3\n      add\n    tag_90:\n      dup3\n      dup2\n      gt\n      iszero\n      tag_91\n      jumpi\n      dup3\n      mload\n      dup3\n      swap1\n      0xff\n      and\n      swap1\n      sstore\n      swap2\n      0x20\n      add\n      swap2\n      swap1\n      0x01\n      add\n      swap1\n      jump(tag_90)\n    tag_91:\n    tag_89:\n      pop\n      swap1\n      pop\n      tag_92\n      swap2\n      swap1\n      tag_88\n      jump\t// in\n    tag_92:\n      pop\n      swap1\n      jump\t// out\n    tag_80:\n      dup3\n      dup1\n      sload\n      dup3\n      dup3\n      sstore\n      swap1\n      0x00\n      mstore\n      keccak256(0x00, 0x20)\n      swap1\n      dup2\n      add\n      swap3\n      dup3\n      iszero\n      tag_93\n      jumpi\n      swap2\n      0x20\n      mul\n      dup3\n      add\n    tag_94:\n      dup3\n      dup2\n      gt\n      iszero\n      tag_95\n      jumpi\n      dup3\n      mload\n      dup3\n      swap1\n      0xff\n      and\n      swap1\n      sstore\n      swap2\n      0x20\n      add\n      swap2\n      swap1\n      0x01\n      add\n      swap1\n      jump(tag_94)\n    tag_95:\n    tag_93:\n      pop\n      swap1\n      pop\n      tag_96\n      swap2\n      swap1\n      tag_88\n      jump\t// in\n    tag_96:\n      pop\n      swap1\n      jump\t// out\n    tag_88:\n    tag_97:\n      dup1\n      dup3\n      gt\n      iszero\n      tag_98\n      jumpi\n      0x00\n      dup2\n      0x00\n      swap1\n      sstore\n      pop\n      0x01\n      add\n      jump(tag_97)\n    tag_98:\n      pop\n      swap1\n      jump\t// out\n        /* \"#utility.yul\":88:205   */\n    tag_100:\n        /* \"#utility.yul\":197:198   */\n      0x00\n        /* \"#utility.yul\":194:195   */\n      dup1\n        /* \"#utility.yul\":187:199   */\n      revert\n        /* \"#utility.yul\":334:411   */\n    tag_102:\n        /* \"#utility.yul\":371:378   */\n      0x00\n        /* \"#utility.yul\":400:405   */\n      dup2\n        /* \"#utility.yul\":389:405   */\n      swap1\n      pop\n        /* \"#utility.yul\":334:411   */\n      swap2\n      swap1\n      pop\n      jump\t// out\n        /* \"#utility.yul\":417:539   */\n    tag_103:\n        /* \"#utility.yul\":490:514   */\n      tag_116\n        /* \"#utility.yul\":508:513   */\n      dup2\n        /* \"#utility.yul\":490:514   */\n      tag_102\n      jump\t// in\n    tag_116:\n        /* \"#utility.yul\":483:488   */\n      dup2\n        /* \"#utility.yul\":480:515   */\n      eq\n        /* \"#utility.yul\":470:533   */\n      tag_117\n      jumpi\n        /* \"#utility.yul\":529:530   */\n      0x00\n        /* \"#utility.yul\":526:527   */\n      dup1\n        /* \"#utility.yul\":519:531   */\n      revert\n        /* \"#utility.yul\":470:533   */\n    tag_117:\n        /* \"#utility.yul\":417:539   */\n      pop\n      jump\t// out\n        /* \"#utility.yul\":545:684   */\n    tag_104:\n        /* \"#utility.yul\":591:596   */\n      0x00\n        /* \"#utility.yul\":629:635   */\n      dup2\n        /* \"#utility.yul\":616:636   */\n      calldataload\n        /* \"#utility.yul\":607:636   */\n      swap1\n      pop\n        /* \"#utility.yul\":645:678   */\n      tag_119\n        /* \"#utility.yul\":672:677   */\n      dup2\n        /* \"#utility.yul\":645:678   */\n      tag_103\n      jump\t// in\n    tag_119:\n        /* \"#utility.yul\":545:684   */\n      swap3\n      swap2\n      pop\n      pop\n      jump\t// out\n        /* \"#utility.yul\":690:1019   */\n    tag_9:\n        /* \"#utility.yul\":749:755   */\n      0x00\n        /* \"#utility.yul\":798:800   */\n      0x20\n        /* \"#utility.yul\":786:795   */\n      dup3\n        /* \"#utility.yul\":777:784   */\n      dup5\n        /* \"#utility.yul\":773:796   */\n      sub\n        /* \"#utility.yul\":769:801   */\n      slt\n        /* \"#utility.yul\":766:885   */\n      iszero\n      tag_121\n      jumpi\n        /* \"#utility.yul\":804:883   */\n      tag_122\n      tag_100\n      jump\t// in\n    tag_122:\n        /* \"#utility.yul\":766:885   */\n    tag_121:\n        /* \"#utility.yul\":924:925   */\n      0x00\n        /* \"#utility.yul\":949:1002   */\n      tag_123\n        /* \"#utility.yul\":994:1001   */\n      dup5\n        /* \"#utility.yul\":985:991   */\n      dup3\n        /* \"#utility.yul\":974:983   */\n      dup6\n        /* \"#utility.yul\":970:992   */\n      add\n        /* \"#utility.yul\":949:1002   */\n      tag_104\n      jump\t// in\n    tag_123:\n        /* \"#utility.yul\":939:1002   */\n      swap2\n      pop\n        /* \"#utility.yul\":895:1012   */\n      pop\n        /* \"#utility.yul\":690:1019   */\n      swap3\n      swap2\n      pop\n      pop\n      jump\t// out\n        /* \"#utility.yul\":1025:1143   */\n    tag_105:\n        /* \"#utility.yul\":1112:1136   */\n      tag_125\n        /* \"#utility.yul\":1130:1135   */\n      dup2\n        /* \"#utility.yul\":1112:1136   */\n      tag_102\n      jump\t// in\n    tag_125:\n        /* \"#utility.yul\":1107:1110   */\n      dup3\n        /* \"#utility.yul\":1100:1137   */\n      mstore\n        /* \"#utility.yul\":1025:1143   */\n      pop\n      pop\n      jump\t// out\n        /* \"#utility.yul\":1149:1371   */\n    tag_17:\n        /* \"#utility.yul\":1242:1246   */\n      0x00\n        /* \"#utility.yul\":1280:1282   */\n      0x20\n        /* \"#utility.yul\":1269:1278   */\n      dup3\n        /* \"#utility.yul\":1265:1283   */\n      add\n        /* \"#utility.yul\":1257:1283   */\n      swap1\n      pop\n        /* \"#utility.yul\":1293:1364   */\n      tag_127\n        /* \"#utility.yul\":1361:1362   */\n      0x00\n        /* \"#utility.yul\":1350:1359   */\n      dup4\n        /* \"#utility.yul\":1346:1363   */\n      add\n        /* \"#utility.yul\":1337:1343   */\n      dup5\n        /* \"#utility.yul\":1293:1364   */\n      tag_105\n      jump\t// in\n    tag_127:\n        /* \"#utility.yul\":1149:1371   */\n      swap3\n      swap2\n      pop\n      pop\n      jump\t// out\n        /* \"#utility.yul\":1377:1546   */\n    tag_106:\n        /* \"#utility.yul\":1461:1472   */\n      0x00\n        /* \"#utility.yul\":1495:1501   */\n      dup3\n        /* \"#utility.yul\":1490:1493   */\n      dup3\n        /* \"#utility.yul\":1483:1502   */\n      mstore\n        /* \"#utility.yul\":1535:1539   */\n      0x20\n        /* \"#utility.yul\":1530:1533   */\n      dup3\n        /* \"#utility.yul\":1526:1540   */\n      add\n        /* \"#utility.yul\":1511:1540   */\n      swap1\n      pop\n        /* \"#utility.yul\":1377:1546   */\n      swap3\n      swap2\n      pop\n      pop\n      jump\t// out\n        /* \"#utility.yul\":1552:1717   */\n    tag_107:\n        /* \"#utility.yul\":1692:1709   */\n      0x496e6465784f75744f66426f756e640000000000000000000000000000000000\n        /* \"#utility.yul\":1688:1689   */\n      0x00\n        /* \"#utility.yul\":1680:1686   */\n      dup3\n        /* \"#utility.yul\":1676:1690   */\n      add\n        /* \"#utility.yul\":1669:1710   */\n      mstore\n        /* \"#utility.yul\":1552:1717   */\n      pop\n      jump\t// out\n        /* \"#utility.yul\":1723:2089   */\n    tag_108:\n        /* \"#utility.yul\":1865:1868   */\n      0x00\n        /* \"#utility.yul\":1886:1953   */\n      tag_131\n        /* \"#utility.yul\":1950:1952   */\n      0x0f\n        /* \"#utility.yul\":1945:1948   */\n      dup4\n        /* \"#utility.yul\":1886:1953   */\n      tag_106\n      jump\t// in\n    tag_131:\n        /* \"#utility.yul\":1879:1953   */\n      swap2\n      pop\n        /* \"#utility.yul\":1962:2055   */\n      tag_132\n        /* \"#utility.yul\":2051:2054   */\n      dup3\n        /* \"#utility.yul\":1962:2055   */\n      tag_107\n      jump\t// in\n    tag_132:\n        /* \"#utility.yul\":2080:2082   */\n      0x20\n        /* \"#utility.yul\":2075:2078   */\n      dup3\n        /* \"#utility.yul\":2071:2083   */\n      add\n        /* \"#utility.yul\":2064:2083   */\n      swap1\n      pop\n        /* \"#utility.yul\":1723:2089   */\n      swap2\n      swap1\n      pop\n      jump\t// out\n        /* \"#utility.yul\":2095:2514   */\n    tag_23:\n        /* \"#utility.yul\":2261:2265   */\n      0x00\n        /* \"#utility.yul\":2299:2301   */\n      0x20\n        /* \"#utility.yul\":2288:2297   */\n      dup3\n        /* \"#utility.yul\":2284:2302   */\n      add\n        /* \"#utility.yul\":2276:2302   */\n      swap1\n      pop\n        /* \"#utility.yul\":2348:2357   */\n      dup2\n        /* \"#utility.yul\":2342:2346   */\n      dup2\n        /* \"#utility.yul\":2338:2358   */\n      sub\n        /* \"#utility.yul\":2334:2335   */\n      0x00\n        /* \"#utility.yul\":2323:2332   */\n      dup4\n        /* \"#utility.yul\":2319:2336   */\n      add\n        /* \"#utility.yul\":2312:2359   */\n      mstore\n        /* \"#utility.yul\":2376:2507   */\n      tag_134\n        /* \"#utility.yul\":2502:2506   */\n      dup2\n        /* \"#utility.yul\":2376:2507   */\n      tag_108\n      jump\t// in\n    tag_134:\n        /* \"#utility.yul\":2368:2507   */\n      swap1\n      pop\n        /* \"#utility.yul\":2095:2514   */\n      swap2\n      swap1\n      pop\n      jump\t// out\n        /* \"#utility.yul\":2520:2700   */\n    tag_109:\n        /* \"#utility.yul\":2568:2645   */\n      0x4e487b7100000000000000000000000000000000000000000000000000000000\n        /* \"#utility.yul\":2565:2566   */\n      0x00\n        /* \"#utility.yul\":2558:2646   */\n      mstore\n        /* \"#utility.yul\":2665:2669   */\n      0x11\n        /* \"#utility.yul\":2662:2663   */\n      0x04\n        /* \"#utility.yul\":2655:2670   */\n      mstore\n        /* \"#utility.yul\":2689:2693   */\n      0x24\n        /* \"#utility.yul\":2686:2687   */\n      0x00\n        /* \"#utility.yul\":2679:2694   */\n      revert\n        /* \"#utility.yul\":2706:2900   */\n    tag_28:\n        /* \"#utility.yul\":2746:2750   */\n      0x00\n        /* \"#utility.yul\":2766:2786   */\n      tag_137\n        /* \"#utility.yul\":2784:2785   */\n      dup3\n        /* \"#utility.yul\":2766:2786   */\n      tag_102\n      jump\t// in\n    tag_137:\n        /* \"#utility.yul\":2761:2786   */\n      swap2\n      pop\n        /* \"#utility.yul\":2800:2820   */\n      tag_138\n        /* \"#utility.yul\":2818:2819   */\n      dup4\n        /* \"#utility.yul\":2800:2820   */\n      tag_102\n      jump\t// in\n    tag_138:\n        /* \"#utility.yul\":2795:2820   */\n      swap3\n      pop\n        /* \"#utility.yul\":2844:2845   */\n      dup3\n        /* \"#utility.yul\":2841:2842   */\n      dup3\n        /* \"#utility.yul\":2837:2846   */\n      sub\n        /* \"#utility.yul\":2829:2846   */\n      swap1\n      pop\n        /* \"#utility.yul\":2868:2869   */\n      dup2\n        /* \"#utility.yul\":2862:2866   */\n      dup2\n        /* \"#utility.yul\":2859:2870   */\n      gt\n        /* \"#utility.yul\":2856:2893   */\n      iszero\n      tag_139\n      jumpi\n        /* \"#utility.yul\":2873:2891   */\n      tag_140\n      tag_109\n      jump\t// in\n    tag_140:\n        /* \"#utility.yul\":2856:2893   */\n    tag_139:\n        /* \"#utility.yul\":2706:2900   */\n      swap3\n      swap2\n      pop\n      pop\n      jump\t// out\n        /* \"#utility.yul\":2906:3097   */\n    tag_30:\n        /* \"#utility.yul\":2946:2949   */\n      0x00\n        /* \"#utility.yul\":2965:2985   */\n      tag_142\n        /* \"#utility.yul\":2983:2984   */\n      dup3\n        /* \"#utility.yul\":2965:2985   */\n      tag_102\n      jump\t// in\n    tag_142:\n        /* \"#utility.yul\":2960:2985   */\n      swap2\n      pop\n        /* \"#utility.yul\":2999:3019   */\n      tag_143\n        /* \"#utility.yul\":3017:3018   */\n      dup4\n        /* \"#utility.yul\":2999:3019   */\n      tag_102\n      jump\t// in\n    tag_143:\n        /* \"#utility.yul\":2994:3019   */\n      swap3\n      pop\n        /* \"#utility.yul\":3042:3043   */\n      dup3\n        /* \"#utility.yul\":3039:3040   */\n      dup3\n        /* \"#utility.yul\":3035:3044   */\n      add\n        /* \"#utility.yul\":3028:3044   */\n      swap1\n      pop\n        /* \"#utility.yul\":3063:3066   */\n      dup1\n        /* \"#utility.yul\":3060:3061   */\n      dup3\n        /* \"#utility.yul\":3057:3067   */\n      gt\n        /* \"#utility.yul\":3054:3090   */\n      iszero\n      tag_144\n      jumpi\n        /* \"#utility.yul\":3070:3088   */\n      tag_145\n      tag_109\n      jump\t// in\n    tag_145:\n        /* \"#utility.yul\":3054:3090   */\n    tag_144:\n        /* \"#utility.yul\":2906:3097   */\n      swap3\n      swap2\n      pop\n      pop\n      jump\t// out\n        /* \"#utility.yul\":3103:3283   */\n    tag_33:\n        /* \"#utility.yul\":3151:3228   */\n      0x4e487b7100000000000000000000000000000000000000000000000000000000\n        /* \"#utility.yul\":3148:3149   */\n      0x00\n        /* \"#utility.yul\":3141:3229   */\n      mstore\n        /* \"#utility.yul\":3248:3252   */\n      0x32\n        /* \"#utility.yul\":3245:3246   */\n      0x04\n        /* \"#utility.yul\":3238:3253   */\n      mstore\n        /* \"#utility.yul\":3272:3276   */\n      0x24\n        /* \"#utility.yul\":3269:3270   */\n      0x00\n        /* \"#utility.yul\":3262:3277   */\n      revert\n        /* \"#utility.yul\":3289:3522   */\n    tag_39:\n        /* \"#utility.yul\":3328:3331   */\n      0x00\n        /* \"#utility.yul\":3351:3375   */\n      tag_148\n        /* \"#utility.yul\":3369:3374   */\n      dup3\n        /* \"#utility.yul\":3351:3375   */\n      tag_102\n      jump\t// in\n    tag_148:\n        /* \"#utility.yul\":3342:3375   */\n      swap2\n      pop\n        /* \"#utility.yul\":3397:3463   */\n      0xffffffffffffffffffffffffffffffffffffffffffffffffffffffffffffffff\n        /* \"#utility.yul\":3390:3395   */\n      dup3\n        /* \"#utility.yul\":3387:3464   */\n      sub\n        /* \"#utility.yul\":3384:3487   */\n      tag_149\n      jumpi\n        /* \"#utility.yul\":3467:3485   */\n      tag_150\n      tag_109\n      jump\t// in\n    tag_150:\n        /* \"#utility.yul\":3384:3487   */\n    tag_149:\n        /* \"#utility.yul\":3514:3515   */\n      0x01\n        /* \"#utility.yul\":3507:3512   */\n      dup3\n        /* \"#utility.yul\":3503:3516   */\n      add\n        /* \"#utility.yul\":3496:3516   */\n      swap1\n      pop\n        /* \"#utility.yul\":3289:3522   */\n      swap2\n      swap1\n      pop\n      jump\t// out\n        /* \"#utility.yul\":3528:3708   */\n    tag_42:\n        /* \"#utility.yul\":3576:3653   */\n      0x4e487b7100000000000000000000000000000000000000000000000000000000\n        /* \"#utility.yul\":3573:3574   */\n      0x00\n        /* \"#utility.yul\":3566:3654   */\n      mstore\n        /* \"#utility.yul\":3673:3677   */\n      0x31\n        /* \"#utility.yul\":3670:3671   */\n      0x04\n        /* \"#utility.yul\":3663:3678   */\n      mstore\n        /* \"#utility.yul\":3697:3701   */\n      0x24\n        /* \"#utility.yul\":3694:3695   */\n      0x00\n        /* \"#utility.yul\":3687:3702   */\n      revert\n        /* \"#utility.yul\":3714:3894   */\n    tag_61:\n        /* \"#utility.yul\":3762:3839   */\n      0x4e487b7100000000000000000000000000000000000000000000000000000000\n        /* \"#utility.yul\":3759:3760   */\n      0x00\n        /* \"#utility.yul\":3752:3840   */\n      mstore\n        /* \"#utility.yul\":3859:3863   */\n      0x01\n        /* \"#utility.yul\":3856:3857   */\n      0x04\n        /* \"#utility.yul\":3849:3864   */\n      mstore\n        /* \"#utility.yul\":3883:3887   */\n      0x24\n        /* \"#utility.yul\":3880:3881   */\n      0x00\n        /* \"#utility.yul\":3873:3888   */\n      revert\n\n    auxdata: 0xa2646970667358221220b7ccdee52ab071eebdda24881bea80ddbcf3f06463fa89606d98bf968590e39a64736f6c63430008120033\n}\n",
				"bytecode": {
					"linkReferences": {},
					"object": "608060405234801561001057600080fd5b50610758806100206000396000f3fe608060405234801561001057600080fd5b506004361061004c5760003560e01c80634cc822151461005157806354353f2f1461006d57806371e5ee5f14610077578063f8a8fd6d146100a7575b600080fd5b61006b600480360381019061006691906104e2565b6100b1565b005b6100756101a3565b005b610091600480360381019061008c91906104e2565b610200565b60405161009e919061051e565b60405180910390f35b6100af610224565b005b60008054905081106100f8576040517f08c379a00000000000000000000000000000000000000000000000000000000081526004016100ef90610596565b60405180910390fd5b60008190505b600160008054905061011091906105e5565b8110156101775760006001826101269190610619565b815481106101375761013661064d565b5b9060005260206000200154600082815481106101565761015561064d565b5b9060005260206000200181905550808061016f9061067c565b9150506100fe565b50600080548061018a576101896106c4565b5b6001900381819060005260206000200160009055905550565b6040518060600160405280600160ff168152602001600260ff168152602001600360ff1681525060009060036101da929190610394565b5060006001815481106101f0576101ef61064d565b5b9060005260206000200160009055565b6000818154811061021057600080fd5b906000526020600020016000915090505481565b6040518060a00160405280600160ff168152602001600260ff168152602001600360ff168152602001600460ff168152602001600560ff16815250600090600561026f9291906103e6565b5061027a60026100b1565b6001600080815481106102905761028f61064d565b5b9060005260206000200154146102a9576102a86106f3565b5b600260006001815481106102c0576102bf61064d565b5b9060005260206000200154146102d9576102d86106f3565b5b600460006002815481106102f0576102ef61064d565b5b906000526020600020015414610309576103086106f3565b5b600560006003815481106103205761031f61064d565b5b906000526020600020015414610339576103386106f3565b5b60046000805490501461034f5761034e6106f3565b5b6040518060200160405280600160ff168152506000906001610372929190610438565b5061037d60006100b1565b6000808054905014610392576103916106f3565b5b565b8280548282559060005260206000209081019282156103d5579160200282015b828111156103d4578251829060ff169055916020019190600101906103b4565b5b5090506103e2919061048a565b5090565b828054828255906000526020600020908101928215610427579160200282015b82811115610426578251829060ff16905591602001919060010190610406565b5b509050610434919061048a565b5090565b828054828255906000526020600020908101928215610479579160200282015b82811115610478578251829060ff16905591602001919060010190610458565b5b509050610486919061048a565b5090565b5b808211156104a357600081600090555060010161048b565b5090565b600080fd5b6000819050919050565b6104bf816104ac565b81146104ca57600080fd5b50565b6000813590506104dc816104b6565b92915050565b6000602082840312156104f8576104f76104a7565b5b6000610506848285016104cd565b91505092915050565b610518816104ac565b82525050565b6000602082019050610533600083018461050f565b92915050565b600082825260208201905092915050565b7f496e6465784f75744f66426f756e640000000000000000000000000000000000600082015250565b6000610580600f83610539565b915061058b8261054a565b602082019050919050565b600060208201905081810360008301526105af81610573565b9050919050565b7f4e487b7100000000000000000000000000000000000000000000000000000000600052601160045260246000fd5b60006105f0826104ac565b91506105fb836104ac565b9250828203905081811115610613576106126105b6565b5b92915050565b6000610624826104ac565b915061062f836104ac565b9250828201905080821115610647576106466105b6565b5b92915050565b7f4e487b7100000000000000000000000000000000000000000000000000000000600052603260045260246000fd5b6000610687826104ac565b91507fffffffffffffffffffffffffffffffffffffffffffffffffffffffffffffffff82036106b9576106b86105b6565b5b600182019050919050565b7f4e487b7100000000000000000000000000000000000000000000000000000000600052603160045260246000fd5b7f4e487b7100000000000000000000000000000000000000000000000000000000600052600160045260246000fdfea2646970667358221220b7ccdee52ab071eebdda24881bea80ddbcf3f06463fa89606d98bf968590e39a64736f6c63430008120033",
					"opcodes": "PUSH1 0x80 PUSH1 0x40 MSTORE CALLVALUE DUP1 ISZERO PUSH2 0x10 JUMPI PUSH1 0x0 DUP1 REVERT JUMPDEST POP PUSH2 0x758 DUP1 PUSH2 0x20 PUSH1 0x0 CODECOPY PUSH1 0x0 RETURN INVALID PUSH1 0x80 PUSH1 0x40 MSTORE CALLVALUE DUP1 ISZERO PUSH2 0x10 JUMPI PUSH1 0x0 DUP1 REVERT JUMPDEST POP PUSH1 0x4 CALLDATASIZE LT PUSH2 0x4C JUMPI PUSH1 0x0 CALLDATALOAD PUSH1 0xE0 SHR DUP1 PUSH4 0x4CC82215 EQ PUSH2 0x51 JUMPI DUP1 PUSH4 0x54353F2F EQ PUSH2 0x6D JUMPI DUP1 PUSH4 0x71E5EE5F EQ PUSH2 0x77 JUMPI DUP1 PUSH4 0xF8A8FD6D EQ PUSH2 0xA7 JUMPI JUMPDEST PUSH1 0x0 DUP1 REVERT JUMPDEST PUSH2 0x6B PUSH1 0x4 DUP1 CALLDATASIZE SUB DUP2 ADD SWAP1 PUSH2 0x66 SWAP2 SWAP1 PUSH2 0x4E2 JUMP JUMPDEST PUSH2 0xB1 JUMP JUMPDEST STOP JUMPDEST PUSH2 0x75 PUSH2 0x1A3 JUMP JUMPDEST STOP JUMPDEST PUSH2 0x91 PUSH1 0x4 DUP1 CALLDATASIZE SUB DUP2 ADD SWAP1 PUSH2 0x8C SWAP2 SWAP1 PUSH2 0x4E2 JUMP JUMPDEST PUSH2 0x200 JUMP JUMPDEST PUSH1 0x40 MLOAD PUSH2 0x9E SWAP2 SWAP1 PUSH2 0x51E JUMP JUMPDEST PUSH1 0x40 MLOAD DUP1 SWAP2 SUB SWAP1 RETURN JUMPDEST PUSH2 0xAF PUSH2 0x224 JUMP JUMPDEST STOP JUMPDEST PUSH1 0x0 DUP1 SLOAD SWAP1 POP DUP2 LT PUSH2 0xF8 JUMPI PUSH1 0x40 MLOAD PUSH32 0x8C379A000000000000000000000000000000000000000000000000000000000 DUP2 MSTORE PUSH1 0x4 ADD PUSH2 0xEF SWAP1 PUSH2 0x596 JUMP JUMPDEST PUSH1 0x40 MLOAD DUP1 SWAP2 SUB SWAP1 REVERT JUMPDEST PUSH1 0x0 DUP2 SWAP1 POP JUMPDEST PUSH1 0x1 PUSH1 0x0 DUP1 SLOAD SWAP1 POP PUSH2 0x110 SWAP2 SWAP1 PUSH2 0x5E5 JUMP JUMPDEST DUP2 LT ISZERO PUSH2 0x177 JUMPI PUSH1 0x0 PUSH1 0x1 DUP3 PUSH2 0x126 SWAP2 SWAP1 PUSH2 0x619 JUMP JUMPDEST DUP2 SLOAD DUP2 LT PUSH2 0x137 JUMPI PUSH2 0x136 PUSH2 0x64D JUMP JUMPDEST JUMPDEST SWAP1 PUSH1 0x0 MSTORE PUSH1 0x20 PUSH1 0x0 KECCAK256 ADD SLOAD PUSH1 0x0 DUP3 DUP2 SLOAD DUP2 LT PUSH2 0x156 JUMPI PUSH2 0x155 PUSH2 0x64D JUMP JUMPDEST JUMPDEST SWAP1 PUSH1 0x0 MSTORE PUSH1 0x20 PUSH1 0x0 KECCAK256 ADD DUP2 SWAP1 SSTORE POP DUP1 DUP1 PUSH2 0x16F SWAP1 PUSH2 0x67C JUMP JUMPDEST SWAP2 POP POP PUSH2 0xFE JUMP JUMPDEST POP PUSH1 0x0 DUP1 SLOAD DUP1 PUSH2 0x18A JUMPI PUSH2 0x189 PUSH2 0x6C4 JUMP JUMPDEST JUMPDEST PUSH1 0x1 SWAP1 SUB DUP2 DUP2 SWAP1 PUSH1 0x0 MSTORE PUSH1 0x20 PUSH1 0x0 KECCAK256 ADD PUSH1 0x0 SWAP1 SSTORE SWAP1 SSTORE POP JUMP JUMPDEST PUSH1 0x40 MLOAD DUP1 PUSH1 0x60 ADD PUSH1 0x40 MSTORE DUP1 PUSH1 0x1 PUSH1 0xFF AND DUP2 MSTORE PUSH1 0x20 ADD PUSH1 0x2 PUSH1 0xFF AND DUP2 MSTORE PUSH1 0x20 ADD PUSH1 0x3 PUSH1 0xFF AND DUP2 MSTORE POP PUSH1 0x0 SWAP1 PUSH1 0x3 PUSH2 0x1DA SWAP3 SWAP2 SWAP1 PUSH2 0x394 JUMP JUMPDEST POP PUSH1 0x0 PUSH1 0x1 DUP2 SLOAD DUP2 LT PUSH2 0x1F0 JUMPI PUSH2 0x1EF PUSH2 0x64D JUMP JUMPDEST JUMPDEST SWAP1 PUSH1 0x0 MSTORE PUSH1 0x20 PUSH1 0x0 KECCAK256 ADD PUSH1 0x0 SWAP1 SSTORE JUMP JUMPDEST PUSH1 0x0 DUP2 DUP2 SLOAD DUP2 LT PUSH2 0x210 JUMPI PUSH1 0x0 DUP1 REVERT JUMPDEST SWAP1 PUSH1 0x0 MSTORE PUSH1 0x20 PUSH1 0x0 KECCAK256 ADD PUSH1 0x0 SWAP2 POP SWAP1 POP SLOAD DUP2 JUMP JUMPDEST PUSH1 0x40 MLOAD DUP1 PUSH1 0xA0 ADD PUSH1 0x40 MSTORE DUP1 PUSH1 0x1 PUSH1 0xFF AND DUP2 MSTORE PUSH1 0x20 ADD PUSH1 0x2 PUSH1 0xFF AND DUP2 MSTORE PUSH1 0x20 ADD PUSH1 0x3 PUSH1 0xFF AND DUP2 MSTORE PUSH1 0x20 ADD PUSH1 0x4 PUSH1 0xFF AND DUP2 MSTORE PUSH1 0x20 ADD PUSH1 0x5 PUSH1 0xFF AND DUP2 MSTORE POP PUSH1 0x0 SWAP1 PUSH1 0x5 PUSH2 0x26F SWAP3 SWAP2 SWAP1 PUSH2 0x3E6 JUMP JUMPDEST POP PUSH2 0x27A PUSH1 0x2 PUSH2 0xB1 JUMP JUMPDEST PUSH1 0x1 PUSH1 0x0 DUP1 DUP2 SLOAD DUP2 LT PUSH2 0x290 JUMPI PUSH2 0x28F PUSH2 0x64D JUMP JUMPDEST JUMPDEST SWAP1 PUSH1 0x0 MSTORE PUSH1 0x20 PUSH1 0x0 KECCAK256 ADD SLOAD EQ PUSH2 0x2A9 JUMPI PUSH2 0x2A8 PUSH2 0x6F3 JUMP JUMPDEST JUMPDEST PUSH1 0x2 PUSH1 0x0 PUSH1 0x1 DUP2 SLOAD DUP2 LT PUSH2 0x2C0 JUMPI PUSH2 0x2BF PUSH2 0x64D JUMP JUMPDEST JUMPDEST SWAP1 PUSH1 0x0 MSTORE PUSH1 0x20 PUSH1 0x0 KECCAK256 ADD SLOAD EQ PUSH2 0x2D9 JUMPI PUSH2 0x2D8 PUSH2 0x6F3 JUMP JUMPDEST JUMPDEST PUSH1 0x4 PUSH1 0x0 PUSH1 0x2 DUP2 SLOAD DUP2 LT PUSH2 0x2F0 JUMPI PUSH2 0x2EF PUSH2 0x64D JUMP JUMPDEST JUMPDEST SWAP1 PUSH1 0x0 MSTORE PUSH1 0x20 PUSH1 0x0 KECCAK256 ADD SLOAD EQ PUSH2 0x309 JUMPI PUSH2 0x308 PUSH2 0x6F3 JUMP JUMPDEST JUMPDEST PUSH1 0x5 PUSH1 0x0 PUSH1 0x3 DUP2 SLOAD DUP2 LT PUSH2 0x320 JUMPI PUSH2 0x31F PUSH2 0x64D JUMP JUMPDEST JUMPDEST SWAP1 PUSH1 0x0 MSTORE PUSH1 0x20 PUSH1 0x0 KECCAK256 ADD SLOAD EQ PUSH2 0x339 JUMPI PUSH2 0x338 PUSH2 0x6F3 JUMP JUMPDEST JUMPDEST PUSH1 0x4 PUSH1 0x0 DUP1 SLOAD SWAP1 POP EQ PUSH2 0x34F JUMPI PUSH2 0x34E PUSH2 0x6F3 JUMP JUMPDEST JUMPDEST PUSH1 0x40 MLOAD DUP1 PUSH1 0x20 ADD PUSH1 0x40 MSTORE DUP1 PUSH1 0x1 PUSH1 0xFF AND DUP2 MSTORE POP PUSH1 0x0 SWAP1 PUSH1 0x1 PUSH2 0x372 SWAP3 SWAP2 SWAP1 PUSH2 0x438 JUMP JUMPDEST POP PUSH2 0x37D PUSH1 0x0 PUSH2 0xB1 JUMP JUMPDEST PUSH1 0x0 DUP1 DUP1 SLOAD SWAP1 POP EQ PUSH2 0x392 JUMPI PUSH2 0x391 PUSH2 0x6F3 JUMP JUMPDEST JUMPDEST JUMP JUMPDEST DUP3 DUP1 SLOAD DUP3 DUP3 SSTORE SWAP1 PUSH1 0x0 MSTORE PUSH1 0x20 PUSH1 0x0 KECCAK256 SWAP1 DUP2 ADD SWAP3 DUP3 ISZERO PUSH2 0x3D5 JUMPI SWAP2 PUSH1 0x20 MUL DUP3 ADD JUMPDEST DUP3 DUP2 GT ISZERO PUSH2 0x3D4 JUMPI DUP3 MLOAD DUP3 SWAP1 PUSH1 0xFF AND SWAP1 SSTORE SWAP2 PUSH1 0x20 ADD SWAP2 SWAP1 PUSH1 0x1 ADD SWAP1 PUSH2 0x3B4 JUMP JUMPDEST JUMPDEST POP SWAP1 POP PUSH2 0x3E2 SWAP2 SWAP1 PUSH2 0x48A JUMP JUMPDEST POP SWAP1 JUMP JUMPDEST DUP3 DUP1 SLOAD DUP3 DUP3 SSTORE SWAP1 PUSH1 0x0 MSTORE PUSH1 0x20 PUSH1 0x0 KECCAK256 SWAP1 DUP2 ADD SWAP3 DUP3 ISZERO PUSH2 0x427 JUMPI SWAP2 PUSH1 0x20 MUL DUP3 ADD JUMPDEST DUP3 DUP2 GT ISZERO PUSH2 0x426 JUMPI DUP3 MLOAD DUP3 SWAP1 PUSH1 0xFF AND SWAP1 SSTORE SWAP2 PUSH1 0x20 ADD SWAP2 SWAP1 PUSH1 0x1 ADD SWAP1 PUSH2 0x406 JUMP JUMPDEST JUMPDEST POP SWAP1 POP PUSH2 0x434 SWAP2 SWAP1 PUSH2 0x48A JUMP JUMPDEST POP SWAP1 JUMP JUMPDEST DUP3 DUP1 SLOAD DUP3 DUP3 SSTORE SWAP1 PUSH1 0x0 MSTORE PUSH1 0x20 PUSH1 0x0 KECCAK256 SWAP1 DUP2 ADD SWAP3 DUP3 ISZERO PUSH2 0x479 JUMPI SWAP2 PUSH1 0x20 MUL DUP3 ADD JUMPDEST DUP3 DUP2 GT ISZERO PUSH2 0x478 JUMPI DUP3 MLOAD DUP3 SWAP1 PUSH1 0xFF AND SWAP1 SSTORE SWAP2 PUSH1 0x20 ADD SWAP2 SWAP1 PUSH1 0x1 ADD SWAP1 PUSH2 0x458 JUMP JUMPDEST JUMPDEST POP SWAP1 POP PUSH2 0x486 SWAP2 SWAP1 PUSH2 0x48A JUMP JUMPDEST POP SWAP1 JUMP JUMPDEST JUMPDEST DUP1 DUP3 GT ISZERO PUSH2 0x4A3 JUMPI PUSH1 0x0 DUP2 PUSH1 0x0 SWAP1 SSTORE POP PUSH1 0x1 ADD PUSH2 0x48B JUMP JUMPDEST POP SWAP1 JUMP JUMPDEST PUSH1 0x0 DUP1 REVERT JUMPDEST PUSH1 0x0 DUP2 SWAP1 POP SWAP2 SWAP1 POP JUMP JUMPDEST PUSH2 0x4BF DUP2 PUSH2 0x4AC JUMP JUMPDEST DUP2 EQ PUSH2 0x4CA JUMPI PUSH1 0x0 DUP1 REVERT JUMPDEST POP JUMP JUMPDEST PUSH1 0x0 DUP2 CALLDATALOAD SWAP1 POP PUSH2 0x4DC DUP2 PUSH2 0x4B6 JUMP JUMPDEST SWAP3 SWAP2 POP POP JUMP JUMPDEST PUSH1 0x0 PUSH1 0x20 DUP3 DUP5 SUB SLT ISZERO PUSH2 0x4F8 JUMPI PUSH2 0x4F7 PUSH2 0x4A7 JUMP JUMPDEST JUMPDEST PUSH1 0x0 PUSH2 0x506 DUP5 DUP3 DUP6 ADD PUSH2 0x4CD JUMP JUMPDEST SWAP2 POP POP SWAP3 SWAP2 POP POP JUMP JUMPDEST PUSH2 0x518 DUP2 PUSH2 0x4AC JUMP JUMPDEST DUP3 MSTORE POP POP JUMP JUMPDEST PUSH1 0x0 PUSH1 0x20 DUP3 ADD SWAP1 POP PUSH2 0x533 PUSH1 0x0 DUP4 ADD DUP5 PUSH2 0x50F JUMP JUMPDEST SWAP3 SWAP2 POP POP JUMP JUMPDEST PUSH1 0x0 DUP3 DUP3 MSTORE PUSH1 0x20 DUP3 ADD SWAP1 POP SWAP3 SWAP2 POP POP JUMP JUMPDEST PUSH32 0x496E6465784F75744F66426F756E640000000000000000000000000000000000 PUSH1 0x0 DUP3 ADD MSTORE POP JUMP JUMPDEST PUSH1 0x0 PUSH2 0x580 PUSH1 0xF DUP4 PUSH2 0x539 JUMP JUMPDEST SWAP2 POP PUSH2 0x58B DUP3 PUSH2 0x54A JUMP JUMPDEST PUSH1 0x20 DUP3 ADD SWAP1 POP SWAP2 SWAP1 POP JUMP JUMPDEST PUSH1 0x0 PUSH1 0x20 DUP3 ADD SWAP1 POP DUP2 DUP2 SUB PUSH1 0x0 DUP4 ADD MSTORE PUSH2 0x5AF DUP2 PUSH2 0x573 JUMP JUMPDEST SWAP1 POP SWAP2 SWAP1 POP JUMP JUMPDEST PUSH32 0x4E487B7100000000000000000000000000000000000000000000000000000000 PUSH1 0x0 MSTORE PUSH1 0x11 PUSH1 0x4 MSTORE PUSH1 0x24 PUSH1 0x0 REVERT JUMPDEST PUSH1 0x0 PUSH2 0x5F0 DUP3 PUSH2 0x4AC JUMP JUMPDEST SWAP2 POP PUSH2 0x5FB DUP4 PUSH2 0x4AC JUMP JUMPDEST SWAP3 POP DUP3 DUP3 SUB SWAP1 POP DUP2 DUP2 GT ISZERO PUSH2 0x613 JUMPI PUSH2 0x612 PUSH2 0x5B6 JUMP JUMPDEST JUMPDEST SWAP3 SWAP2 POP POP JUMP JUMPDEST PUSH1 0x0 PUSH2 0x624 DUP3 PUSH2 0x4AC JUMP JUMPDEST SWAP2 POP PUSH2 0x62F DUP4 PUSH2 0x4AC JUMP JUMPDEST SWAP3 POP DUP3 DUP3 ADD SWAP1 POP DUP1 DUP3 GT ISZERO PUSH2 0x647 JUMPI PUSH2 0x646 PUSH2 0x5B6 JUMP JUMPDEST JUMPDEST SWAP3 SWAP2 POP POP JUMP JUMPDEST PUSH32 0x4E487B7100000000000000000000000000000000000000000000000000000000 PUSH1 0x0 MSTORE PUSH1 0x32 PUSH1 0x4 MSTORE PUSH1 0x24 PUSH1 0x0 REVERT JUMPDEST PUSH1 0x0 PUSH2 0x687 DUP3 PUSH2 0x4AC JUMP JUMPDEST SWAP2 POP PUSH32 0xFFFFFFFFFFFFFFFFFFFFFFFFFFFFFFFFFFFFFFFFFFFFFFFFFFFFFFFFFFFFFFFF DUP3 SUB PUSH2 0x6B9 JUMPI PUSH2 0x6B8 PUSH2 0x5B6 JUMP JUMPDEST JUMPDEST PUSH1 0x1 DUP3 ADD SWAP1 POP SWAP2 SWAP1 POP JUMP JUMPDEST PUSH32 0x4E487B7100000000000000000000000000000000000000000000000000000000 PUSH1 0x0 MSTORE PUSH1 0x31 PUSH1 0x4 MSTORE PUSH1 0x24 PUSH1 0x0 REVERT JUMPDEST PUSH32 0x4E487B7100000000000000000000000000000000000000000000000000000000 PUSH1 0x0 MSTORE PUSH1 0x1 PUSH1 0x4 MSTORE PUSH1 0x24 PUSH1 0x0 REVERT INVALID LOG2 PUSH5 0x6970667358 0x22 SLT KECCAK256 0xB7 0xCC 0xDE 0xE5 0x2A 0xB0 PUSH18 0xEEBDDA24881BEA80DDBCF3F06463FA89606D SWAP9 0xBF SWAP7 DUP6 SWAP1 0xE3 SWAP11 PUSH5 0x736F6C6343 STOP ADDMOD SLT STOP CALLER "
				},
				"gasEstimates": {
					"creation": {
						"codeDepositCost": "376000",
						"executionCost": "411",
						"totalCost": "376411"
					},
					"external": {
						"arr(uint256)": "infinite",
						"example()": "infinite",
						"remove(uint256)": "infinite",
						"test()": "infinite"
					}
				},
				"methodIdentifiers": {
					"arr(uint256)": "71e5ee5f",
					"example()": "54353f2f",
					"remove(uint256)": "4cc82215",
					"test()": "f8a8fd6d"
				}
			},
			"storageLayout": {
				"storage": [
					{
						"astId": 4,
						"contract": "ArrayShift.sol:ArrayShift",
						"label": "arr",
						"offset": 0,
						"slot": "0",
						"type": "t_array(t_uint256)dyn_storage"
					}
				],
				"types": {
					"t_array(t_uint256)dyn_storage": {
						"base": "t_uint256",
						"encoding": "dynamic_array",
						"label": "uint256[]",
						"numberOfBytes": "32"
					},
					"t_uint256": {
						"encoding": "inplace",
						"label": "uint256",
						"numberOfBytes": "32"
					}
				}
			},
			"userdoc": {
				"kind": "user",
				"methods": {},
				"version": 1
			}
		}
	}
}