{
	"ViewAndPureFuntions.sol": {
		"viewandpure": {
			"abi": [
				{
					"inputs": [
						{
							"internalType": "uint256",
							"name": "x",
							"type": "uint256"
						},
						{
							"internalType": "uint256",
							"name": "y",
							"type": "uint256"
						}
					],
					"name": "add",
					"outputs": [
						{
							"internalType": "uint256",
							"name": "",
							"type": "uint256"
						}
					],
					"stateMutability": "pure",
					"type": "function"
				},
				{
					"inputs": [
						{
							"internalType": "uint256",
							"name": "x",
							"type": "uint256"
						}
					],
					"name": "addnum",
					"outputs": [
						{
							"internalType": "uint256",
							"name": "",
							"type": "uint256"
						}
					],
					"stateMutability": "view",
					"type": "function"
				},
				{
					"inputs": [],
					"name": "num",
					"outputs": [
						{
							"internalType": "uint256",
							"name": "",
							"type": "uint256"
						}
					],
					"stateMutability": "view",
					"type": "function"
				},
				{
					"inputs": [],
					"name": "pureFunc",
					"outputs": [
						{
							"internalType": "uint256",
							"name": "",
							"type": "uint256"
						}
					],
					"stateMutability": "pure",
					"type": "function"
				},
				{
					"inputs": [],
					"name": "viewFunc",
					"outputs": [
						{
							"internalType": "uint256",
							"name": "",
							"type": "uint256"
						}
					],
					"stateMutability": "view",
					"type": "function"
				}
			],
			"devdoc": {
				"kind": "dev",
				"methods": {},
				"version": 1
			},
			"evm": {
				"assembly": "    /* \"ViewAndPureFuntions.sol\":195:604  contract viewandpure {... */\n  mstore(0x40, 0x80)\n  callvalue\n  dup1\n  iszero\n  tag_1\n  jumpi\n  0x00\n  dup1\n  revert\ntag_1:\n  pop\n  dataSize(sub_0)\n  dup1\n  dataOffset(sub_0)\n  0x00\n  codecopy\n  0x00\n  return\nstop\n\nsub_0: assembly {\n        /* \"ViewAndPureFuntions.sol\":195:604  contract viewandpure {... */\n      mstore(0x40, 0x80)\n      callvalue\n      dup1\n      iszero\n      tag_1\n      jumpi\n      0x00\n      dup1\n      revert\n    tag_1:\n      pop\n      jumpi(tag_2, lt(calldatasize, 0x04))\n      shr(0xe0, calldataload(0x00))\n      dup1\n      0x231e18a9\n      eq\n      tag_3\n      jumpi\n      dup1\n      0x4e70b1dc\n      eq\n      tag_4\n      jumpi\n      dup1\n      0x771602f7\n      eq\n      tag_5\n      jumpi\n      dup1\n      0x7f2857b6\n      eq\n      tag_6\n      jumpi\n      dup1\n      0xb80c1750\n      eq\n      tag_7\n      jumpi\n    tag_2:\n      0x00\n      dup1\n      revert\n        /* \"ViewAndPureFuntions.sol\":331:407  function pureFunc() external pure returns (uint) {... */\n    tag_3:\n      tag_8\n      tag_9\n      jump\t// in\n    tag_8:\n      mload(0x40)\n      tag_10\n      swap2\n      swap1\n      tag_11\n      jump\t// in\n    tag_10:\n      mload(0x40)\n      dup1\n      swap2\n      sub\n      swap1\n      return\n        /* \"ViewAndPureFuntions.sol\":223:238  uint public num */\n    tag_4:\n      tag_12\n      tag_13\n      jump\t// in\n    tag_12:\n      mload(0x40)\n      tag_14\n      swap2\n      swap1\n      tag_11\n      jump\t// in\n    tag_14:\n      mload(0x40)\n      dup1\n      swap2\n      sub\n      swap1\n      return\n        /* \"ViewAndPureFuntions.sol\":510:599  function add (uint x,uint y) external pure returns (uint) {... */\n    tag_5:\n      tag_15\n      0x04\n      dup1\n      calldatasize\n      sub\n      dup2\n      add\n      swap1\n      tag_16\n      swap2\n      swap1\n      tag_17\n      jump\t// in\n    tag_16:\n      tag_18\n      jump\t// in\n    tag_15:\n      mload(0x40)\n      tag_19\n      swap2\n      swap1\n      tag_11\n      jump\t// in\n    tag_19:\n      mload(0x40)\n      dup1\n      swap2\n      sub\n      swap1\n      return\n        /* \"ViewAndPureFuntions.sol\":245:323  function viewFunc() external view returns (uint) {... */\n    tag_6:\n      tag_20\n      tag_21\n      jump\t// in\n    tag_20:\n      mload(0x40)\n      tag_22\n      swap2\n      swap1\n      tag_11\n      jump\t// in\n    tag_22:\n      mload(0x40)\n      dup1\n      swap2\n      sub\n      swap1\n      return\n        /* \"ViewAndPureFuntions.sol\":415:502  function addnum (uint x) external view returns (uint) {... */\n    tag_7:\n      tag_23\n      0x04\n      dup1\n      calldatasize\n      sub\n      dup2\n      add\n      swap1\n      tag_24\n      swap2\n      swap1\n      tag_25\n      jump\t// in\n    tag_24:\n      tag_26\n      jump\t// in\n    tag_23:\n      mload(0x40)\n      tag_27\n      swap2\n      swap1\n      tag_11\n      jump\t// in\n    tag_27:\n      mload(0x40)\n      dup1\n      swap2\n      sub\n      swap1\n      return\n        /* \"ViewAndPureFuntions.sol\":331:407  function pureFunc() external pure returns (uint) {... */\n    tag_9:\n        /* \"ViewAndPureFuntions.sol\":374:378  uint */\n      0x00\n        /* \"ViewAndPureFuntions.sol\":398:399  1 */\n      0x01\n        /* \"ViewAndPureFuntions.sol\":391:399  return 1 */\n      swap1\n      pop\n        /* \"ViewAndPureFuntions.sol\":331:407  function pureFunc() external pure returns (uint) {... */\n      swap1\n      jump\t// out\n        /* \"ViewAndPureFuntions.sol\":223:238  uint public num */\n    tag_13:\n      sload(0x00)\n      dup2\n      jump\t// out\n        /* \"ViewAndPureFuntions.sol\":510:599  function add (uint x,uint y) external pure returns (uint) {... */\n    tag_18:\n        /* \"ViewAndPureFuntions.sol\":562:566  uint */\n      0x00\n        /* \"ViewAndPureFuntions.sol\":590:591  y */\n      dup2\n        /* \"ViewAndPureFuntions.sol\":586:587  x */\n      dup4\n        /* \"ViewAndPureFuntions.sol\":586:591  x + y */\n      tag_30\n      swap2\n      swap1\n      tag_31\n      jump\t// in\n    tag_30:\n        /* \"ViewAndPureFuntions.sol\":579:591  return x + y */\n      swap1\n      pop\n        /* \"ViewAndPureFuntions.sol\":510:599  function add (uint x,uint y) external pure returns (uint) {... */\n      swap3\n      swap2\n      pop\n      pop\n      jump\t// out\n        /* \"ViewAndPureFuntions.sol\":245:323  function viewFunc() external view returns (uint) {... */\n    tag_21:\n        /* \"ViewAndPureFuntions.sol\":288:292  uint */\n      0x00\n        /* \"ViewAndPureFuntions.sol\":312:315  num */\n      dup1\n      sload\n        /* \"ViewAndPureFuntions.sol\":305:315  return num */\n      swap1\n      pop\n        /* \"ViewAndPureFuntions.sol\":245:323  function viewFunc() external view returns (uint) {... */\n      swap1\n      jump\t// out\n        /* \"ViewAndPureFuntions.sol\":415:502  function addnum (uint x) external view returns (uint) {... */\n    tag_26:\n        /* \"ViewAndPureFuntions.sol\":463:467  uint */\n      0x00\n        /* \"ViewAndPureFuntions.sol\":493:494  x */\n      dup2\n        /* \"ViewAndPureFuntions.sol\":487:490  num */\n      sload(0x00)\n        /* \"ViewAndPureFuntions.sol\":487:494  num + x */\n      tag_34\n      swap2\n      swap1\n      tag_31\n      jump\t// in\n    tag_34:\n        /* \"ViewAndPureFuntions.sol\":480:494  return num + x */\n      swap1\n      pop\n        /* \"ViewAndPureFuntions.sol\":415:502  function addnum (uint x) external view returns (uint) {... */\n      swap2\n      swap1\n      pop\n      jump\t// out\n        /* \"#utility.yul\":7:84   */\n    tag_35:\n        /* \"#utility.yul\":44:51   */\n      0x00\n        /* \"#utility.yul\":73:78   */\n      dup2\n        /* \"#utility.yul\":62:78   */\n      swap1\n      pop\n        /* \"#utility.yul\":7:84   */\n      swap2\n      swap1\n      pop\n      jump\t// out\n        /* \"#utility.yul\":90:208   */\n    tag_36:\n        /* \"#utility.yul\":177:201   */\n      tag_46\n        /* \"#utility.yul\":195:200   */\n      dup2\n        /* \"#utility.yul\":177:201   */\n      tag_35\n      jump\t// in\n    tag_46:\n        /* \"#utility.yul\":172:175   */\n      dup3\n        /* \"#utility.yul\":165:202   */\n      mstore\n        /* \"#utility.yul\":90:208   */\n      pop\n      pop\n      jump\t// out\n        /* \"#utility.yul\":214:436   */\n    tag_11:\n        /* \"#utility.yul\":307:311   */\n      0x00\n        /* \"#utility.yul\":345:347   */\n      0x20\n        /* \"#utility.yul\":334:343   */\n      dup3\n        /* \"#utility.yul\":330:348   */\n      add\n        /* \"#utility.yul\":322:348   */\n      swap1\n      pop\n        /* \"#utility.yul\":358:429   */\n      tag_48\n        /* \"#utility.yul\":426:427   */\n      0x00\n        /* \"#utility.yul\":415:424   */\n      dup4\n        /* \"#utility.yul\":411:428   */\n      add\n        /* \"#utility.yul\":402:408   */\n      dup5\n        /* \"#utility.yul\":358:429   */\n      tag_36\n      jump\t// in\n    tag_48:\n        /* \"#utility.yul\":214:436   */\n      swap3\n      swap2\n      pop\n      pop\n      jump\t// out\n        /* \"#utility.yul\":523:640   */\n    tag_38:\n        /* \"#utility.yul\":632:633   */\n      0x00\n        /* \"#utility.yul\":629:630   */\n      dup1\n        /* \"#utility.yul\":622:634   */\n      revert\n        /* \"#utility.yul\":769:891   */\n    tag_40:\n        /* \"#utility.yul\":842:866   */\n      tag_53\n        /* \"#utility.yul\":860:865   */\n      dup2\n        /* \"#utility.yul\":842:866   */\n      tag_35\n      jump\t// in\n    tag_53:\n        /* \"#utility.yul\":835:840   */\n      dup2\n        /* \"#utility.yul\":832:867   */\n      eq\n        /* \"#utility.yul\":822:885   */\n      tag_54\n      jumpi\n        /* \"#utility.yul\":881:882   */\n      0x00\n        /* \"#utility.yul\":878:879   */\n      dup1\n        /* \"#utility.yul\":871:883   */\n      revert\n        /* \"#utility.yul\":822:885   */\n    tag_54:\n        /* \"#utility.yul\":769:891   */\n      pop\n      jump\t// out\n        /* \"#utility.yul\":897:1036   */\n    tag_41:\n        /* \"#utility.yul\":943:948   */\n      0x00\n        /* \"#utility.yul\":981:987   */\n      dup2\n        /* \"#utility.yul\":968:988   */\n      calldataload\n        /* \"#utility.yul\":959:988   */\n      swap1\n      pop\n        /* \"#utility.yul\":997:1030   */\n      tag_56\n        /* \"#utility.yul\":1024:1029   */\n      dup2\n        /* \"#utility.yul\":997:1030   */\n      tag_40\n      jump\t// in\n    tag_56:\n        /* \"#utility.yul\":897:1036   */\n      swap3\n      swap2\n      pop\n      pop\n      jump\t// out\n        /* \"#utility.yul\":1042:1516   */\n    tag_17:\n        /* \"#utility.yul\":1110:1116   */\n      0x00\n        /* \"#utility.yul\":1118:1124   */\n      dup1\n        /* \"#utility.yul\":1167:1169   */\n      0x40\n        /* \"#utility.yul\":1155:1164   */\n      dup4\n        /* \"#utility.yul\":1146:1153   */\n      dup6\n        /* \"#utility.yul\":1142:1165   */\n      sub\n        /* \"#utility.yul\":1138:1170   */\n      slt\n        /* \"#utility.yul\":1135:1254   */\n      iszero\n      tag_58\n      jumpi\n        /* \"#utility.yul\":1173:1252   */\n      tag_59\n      tag_38\n      jump\t// in\n    tag_59:\n        /* \"#utility.yul\":1135:1254   */\n    tag_58:\n        /* \"#utility.yul\":1293:1294   */\n      0x00\n        /* \"#utility.yul\":1318:1371   */\n      tag_60\n        /* \"#utility.yul\":1363:1370   */\n      dup6\n        /* \"#utility.yul\":1354:1360   */\n      dup3\n        /* \"#utility.yul\":1343:1352   */\n      dup7\n        /* \"#utility.yul\":1339:1361   */\n      add\n        /* \"#utility.yul\":1318:1371   */\n      tag_41\n      jump\t// in\n    tag_60:\n        /* \"#utility.yul\":1308:1371   */\n      swap3\n      pop\n        /* \"#utility.yul\":1264:1381   */\n      pop\n        /* \"#utility.yul\":1420:1422   */\n      0x20\n        /* \"#utility.yul\":1446:1499   */\n      tag_61\n        /* \"#utility.yul\":1491:1498   */\n      dup6\n        /* \"#utility.yul\":1482:1488   */\n      dup3\n        /* \"#utility.yul\":1471:1480   */\n      dup7\n        /* \"#utility.yul\":1467:1489   */\n      add\n        /* \"#utility.yul\":1446:1499   */\n      tag_41\n      jump\t// in\n    tag_61:\n        /* \"#utility.yul\":1436:1499   */\n      swap2\n      pop\n        /* \"#utility.yul\":1391:1509   */\n      pop\n        /* \"#utility.yul\":1042:1516   */\n      swap3\n      pop\n      swap3\n      swap1\n      pop\n      jump\t// out\n        /* \"#utility.yul\":1522:1851   */\n    tag_25:\n        /* \"#utility.yul\":1581:1587   */\n      0x00\n        /* \"#utility.yul\":1630:1632   */\n      0x20\n        /* \"#utility.yul\":1618:1627   */\n      dup3\n        /* \"#utility.yul\":1609:1616   */\n      dup5\n        /* \"#utility.yul\":1605:1628   */\n      sub\n        /* \"#utility.yul\":1601:1633   */\n      slt\n        /* \"#utility.yul\":1598:1717   */\n      iszero\n      tag_63\n      jumpi\n        /* \"#utility.yul\":1636:1715   */\n      tag_64\n      tag_38\n      jump\t// in\n    tag_64:\n        /* \"#utility.yul\":1598:1717   */\n    tag_63:\n        /* \"#utility.yul\":1756:1757   */\n      0x00\n        /* \"#utility.yul\":1781:1834   */\n      tag_65\n        /* \"#utility.yul\":1826:1833   */\n      dup5\n        /* \"#utility.yul\":1817:1823   */\n      dup3\n        /* \"#utility.yul\":1806:1815   */\n      dup6\n        /* \"#utility.yul\":1802:1824   */\n      add\n        /* \"#utility.yul\":1781:1834   */\n      tag_41\n      jump\t// in\n    tag_65:\n        /* \"#utility.yul\":1771:1834   */\n      swap2\n      pop\n        /* \"#utility.yul\":1727:1844   */\n      pop\n        /* \"#utility.yul\":1522:1851   */\n      swap3\n      swap2\n      pop\n      pop\n      jump\t// out\n        /* \"#utility.yul\":1857:2037   */\n    tag_42:\n        /* \"#utility.yul\":1905:1982   */\n      0x4e487b7100000000000000000000000000000000000000000000000000000000\n        /* \"#utility.yul\":1902:1903   */\n      0x00\n        /* \"#utility.yul\":1895:1983   */\n      mstore\n        /* \"#utility.yul\":2002:2006   */\n      0x11\n        /* \"#utility.yul\":1999:2000   */\n      0x04\n        /* \"#utility.yul\":1992:2007   */\n      mstore\n        /* \"#utility.yul\":2026:2030   */\n      0x24\n        /* \"#utility.yul\":2023:2024   */\n      0x00\n        /* \"#utility.yul\":2016:2031   */\n      revert\n        /* \"#utility.yul\":2043:2234   */\n    tag_31:\n        /* \"#utility.yul\":2083:2086   */\n      0x00\n        /* \"#utility.yul\":2102:2122   */\n      tag_68\n        /* \"#utility.yul\":2120:2121   */\n      dup3\n        /* \"#utility.yul\":2102:2122   */\n      tag_35\n      jump\t// in\n    tag_68:\n        /* \"#utility.yul\":2097:2122   */\n      swap2\n      pop\n        /* \"#utility.yul\":2136:2156   */\n      tag_69\n        /* \"#utility.yul\":2154:2155   */\n      dup4\n        /* \"#utility.yul\":2136:2156   */\n      tag_35\n      jump\t// in\n    tag_69:\n        /* \"#utility.yul\":2131:2156   */\n      swap3\n      pop\n        /* \"#utility.yul\":2179:2180   */\n      dup3\n        /* \"#utility.yul\":2176:2177   */\n      dup3\n        /* \"#utility.yul\":2172:2181   */\n      add\n        /* \"#utility.yul\":2165:2181   */\n      swap1\n      pop\n        /* \"#utility.yul\":2200:2203   */\n      dup1\n        /* \"#utility.yul\":2197:2198   */\n      dup3\n        /* \"#utility.yul\":2194:2204   */\n      gt\n        /* \"#utility.yul\":2191:2227   */\n      iszero\n      tag_70\n      jumpi\n        /* \"#utility.yul\":2207:2225   */\n      tag_71\n      tag_42\n      jump\t// in\n    tag_71:\n        /* \"#utility.yul\":2191:2227   */\n    tag_70:\n        /* \"#utility.yul\":2043:2234   */\n      swap3\n      swap2\n      pop\n      pop\n      jump\t// out\n\n    auxdata: 0xa26469706673582212203ac565a7cba291de578cdb5f7001858ed20aa85d96017bc88da950e2ad5d0a4364736f6c63430008120033\n}\n",
				"bytecode": {
					"linkReferences": {},
					"object": "608060405234801561001057600080fd5b506102c6806100206000396000f3fe608060405234801561001057600080fd5b50600436106100575760003560e01c8063231e18a91461005c5780634e70b1dc1461007a578063771602f7146100985780637f2857b6146100c8578063b80c1750146100e6575b600080fd5b610064610116565b6040516100719190610174565b60405180910390f35b61008261011f565b60405161008f9190610174565b60405180910390f35b6100b260048036038101906100ad91906101c0565b610125565b6040516100bf9190610174565b60405180910390f35b6100d061013b565b6040516100dd9190610174565b60405180910390f35b61010060048036038101906100fb9190610200565b610144565b60405161010d9190610174565b60405180910390f35b60006001905090565b60005481565b60008183610133919061025c565b905092915050565b60008054905090565b600081600054610154919061025c565b9050919050565b6000819050919050565b61016e8161015b565b82525050565b60006020820190506101896000830184610165565b92915050565b600080fd5b61019d8161015b565b81146101a857600080fd5b50565b6000813590506101ba81610194565b92915050565b600080604083850312156101d7576101d661018f565b5b60006101e5858286016101ab565b92505060206101f6858286016101ab565b9150509250929050565b6000602082840312156102165761021561018f565b5b6000610224848285016101ab565b91505092915050565b7f4e487b7100000000000000000000000000000000000000000000000000000000600052601160045260246000fd5b60006102678261015b565b91506102728361015b565b925082820190508082111561028a5761028961022d565b5b9291505056fea26469706673582212203ac565a7cba291de578cdb5f7001858ed20aa85d96017bc88da950e2ad5d0a4364736f6c63430008120033",
					"opcodes": "PUSH1 0x80 PUSH1 0x40 MSTORE CALLVALUE DUP1 ISZERO PUSH2 0x10 JUMPI PUSH1 0x0 DUP1 REVERT JUMPDEST POP PUSH2 0x2C6 DUP1 PUSH2 0x20 PUSH1 0x0 CODECOPY PUSH1 0x0 RETURN INVALID PUSH1 0x80 PUSH1 0x40 MSTORE CALLVALUE DUP1 ISZERO PUSH2 0x10 JUMPI PUSH1 0x0 DUP1 REVERT JUMPDEST POP PUSH1 0x4 CALLDATASIZE LT PUSH2 0x57 JUMPI PUSH1 0x0 CALLDATALOAD PUSH1 0xE0 SHR DUP1 PUSH4 0x231E18A9 EQ PUSH2 0x5C JUMPI DUP1 PUSH4 0x4E70B1DC EQ PUSH2 0x7A JUMPI DUP1 PUSH4 0x771602F7 EQ PUSH2 0x98 JUMPI DUP1 PUSH4 0x7F2857B6 EQ PUSH2 0xC8 JUMPI DUP1 PUSH4 0xB80C1750 EQ PUSH2 0xE6 JUMPI JUMPDEST PUSH1 0x0 DUP1 REVERT JUMPDEST PUSH2 0x64 PUSH2 0x116 JUMP JUMPDEST PUSH1 0x40 MLOAD PUSH2 0x71 SWAP2 SWAP1 PUSH2 0x174 JUMP JUMPDEST PUSH1 0x40 MLOAD DUP1 SWAP2 SUB SWAP1 RETURN JUMPDEST PUSH2 0x82 PUSH2 0x11F JUMP JUMPDEST PUSH1 0x40 MLOAD PUSH2 0x8F SWAP2 SWAP1 PUSH2 0x174 JUMP JUMPDEST PUSH1 0x40 MLOAD DUP1 SWAP2 SUB SWAP1 RETURN JUMPDEST PUSH2 0xB2 PUSH1 0x4 DUP1 CALLDATASIZE SUB DUP2 ADD SWAP1 PUSH2 0xAD SWAP2 SWAP1 PUSH2 0x1C0 JUMP JUMPDEST PUSH2 0x125 JUMP JUMPDEST PUSH1 0x40 MLOAD PUSH2 0xBF SWAP2 SWAP1 PUSH2 0x174 JUMP JUMPDEST PUSH1 0x40 MLOAD DUP1 SWAP2 SUB SWAP1 RETURN JUMPDEST PUSH2 0xD0 PUSH2 0x13B JUMP JUMPDEST PUSH1 0x40 MLOAD PUSH2 0xDD SWAP2 SWAP1 PUSH2 0x174 JUMP JUMPDEST PUSH1 0x40 MLOAD DUP1 SWAP2 SUB SWAP1 RETURN JUMPDEST PUSH2 0x100 PUSH1 0x4 DUP1 CALLDATASIZE SUB DUP2 ADD SWAP1 PUSH2 0xFB SWAP2 SWAP1 PUSH2 0x200 JUMP JUMPDEST PUSH2 0x144 JUMP JUMPDEST PUSH1 0x40 MLOAD PUSH2 0x10D SWAP2 SWAP1 PUSH2 0x174 JUMP JUMPDEST PUSH1 0x40 MLOAD DUP1 SWAP2 SUB SWAP1 RETURN JUMPDEST PUSH1 0x0 PUSH1 0x1 SWAP1 POP SWAP1 JUMP JUMPDEST PUSH1 0x0 SLOAD DUP2 JUMP JUMPDEST PUSH1 0x0 DUP2 DUP4 PUSH2 0x133 SWAP2 SWAP1 PUSH2 0x25C JUMP JUMPDEST SWAP1 POP SWAP3 SWAP2 POP POP JUMP JUMPDEST PUSH1 0x0 DUP1 SLOAD SWAP1 POP SWAP1 JUMP JUMPDEST PUSH1 0x0 DUP2 PUSH1 0x0 SLOAD PUSH2 0x154 SWAP2 SWAP1 PUSH2 0x25C JUMP JUMPDEST SWAP1 POP SWAP2 SWAP1 POP JUMP JUMPDEST PUSH1 0x0 DUP2 SWAP1 POP SWAP2 SWAP1 POP JUMP JUMPDEST PUSH2 0x16E DUP2 PUSH2 0x15B JUMP JUMPDEST DUP3 MSTORE POP POP JUMP JUMPDEST PUSH1 0x0 PUSH1 0x20 DUP3 ADD SWAP1 POP PUSH2 0x189 PUSH1 0x0 DUP4 ADD DUP5 PUSH2 0x165 JUMP JUMPDEST SWAP3 SWAP2 POP POP JUMP JUMPDEST PUSH1 0x0 DUP1 REVERT JUMPDEST PUSH2 0x19D DUP2 PUSH2 0x15B JUMP JUMPDEST DUP2 EQ PUSH2 0x1A8 JUMPI PUSH1 0x0 DUP1 REVERT JUMPDEST POP JUMP JUMPDEST PUSH1 0x0 DUP2 CALLDATALOAD SWAP1 POP PUSH2 0x1BA DUP2 PUSH2 0x194 JUMP JUMPDEST SWAP3 SWAP2 POP POP JUMP JUMPDEST PUSH1 0x0 DUP1 PUSH1 0x40 DUP4 DUP6 SUB SLT ISZERO PUSH2 0x1D7 JUMPI PUSH2 0x1D6 PUSH2 0x18F JUMP JUMPDEST JUMPDEST PUSH1 0x0 PUSH2 0x1E5 DUP6 DUP3 DUP7 ADD PUSH2 0x1AB JUMP JUMPDEST SWAP3 POP POP PUSH1 0x20 PUSH2 0x1F6 DUP6 DUP3 DUP7 ADD PUSH2 0x1AB JUMP JUMPDEST SWAP2 POP POP SWAP3 POP SWAP3 SWAP1 POP JUMP JUMPDEST PUSH1 0x0 PUSH1 0x20 DUP3 DUP5 SUB SLT ISZERO PUSH2 0x216 JUMPI PUSH2 0x215 PUSH2 0x18F JUMP JUMPDEST JUMPDEST PUSH1 0x0 PUSH2 0x224 DUP5 DUP3 DUP6 ADD PUSH2 0x1AB JUMP JUMPDEST SWAP2 POP POP SWAP3 SWAP2 POP POP JUMP JUMPDEST PUSH32 0x4E487B7100000000000000000000000000000000000000000000000000000000 PUSH1 0x0 MSTORE PUSH1 0x11 PUSH1 0x4 MSTORE PUSH1 0x24 PUSH1 0x0 REVERT JUMPDEST PUSH1 0x0 PUSH2 0x267 DUP3 PUSH2 0x15B JUMP JUMPDEST SWAP2 POP PUSH2 0x272 DUP4 PUSH2 0x15B JUMP JUMPDEST SWAP3 POP DUP3 DUP3 ADD SWAP1 POP DUP1 DUP3 GT ISZERO PUSH2 0x28A JUMPI PUSH2 0x289 PUSH2 0x22D JUMP JUMPDEST JUMPDEST SWAP3 SWAP2 POP POP JUMP INVALID LOG2 PUSH5 0x6970667358 0x22 SLT KECCAK256 GASPRICE 0xC5 PUSH6 0xA7CBA291DE57 DUP13 0xDB 0x5F PUSH17 0x1858ED20AA85D96017BC88DA950E2AD5D EXP NUMBER PUSH5 0x736F6C6343 STOP ADDMOD SLT STOP CALLER "
				},
				"gasEstimates": {
					"creation": {
						"codeDepositCost": "142000",
						"executionCost": "190",
						"totalCost": "142190"
					},
					"external": {
						"add(uint256,uint256)": "infinite",
						"addnum(uint256)": "infinite",
						"num()": "2429",
						"pureFunc()": "315",
						"viewFunc()": "2481"
					}
				},
				"methodIdentifiers": {
					"add(uint256,uint256)": "771602f7",
					"addnum(uint256)": "b80c1750",
					"num()": "4e70b1dc",
					"pureFunc()": "231e18a9",
					"viewFunc()": "7f2857b6"
				}
			},
			"storageLayout": {
				"storage": [
					{
						"astId": 3,
						"contract": "ViewAndPureFuntions.sol:viewandpure",
						"label": "num",
						"offset": 0,
						"slot": "0",
						"type": "t_uint256"
					}
				],
				"types": {
					"t_uint256": {
						"encoding": "inplace",
						"label": "uint256",
						"numberOfBytes": "32"
					}
				}
			},
			"userdoc": {
				"kind": "user",
				"methods": {},
				"version": 1
			}
		}
	}
}