{
	"MultiDelegateCall.sol": {
		"TestMultiDelegateCall": {
			"abi": [
				{
					"inputs": [],
					"name": "delegatecallfailed",
					"type": "error"
				},
				{
					"anonymous": false,
					"inputs": [
						{
							"indexed": false,
							"internalType": "address",
							"name": "caller",
							"type": "address"
						},
						{
							"indexed": false,
							"internalType": "string",
							"name": "func",
							"type": "string"
						},
						{
							"indexed": false,
							"internalType": "uint256",
							"name": "i",
							"type": "uint256"
						}
					],
					"name": "Log",
					"type": "event"
				},
				{
					"inputs": [
						{
							"internalType": "address",
							"name": "",
							"type": "address"
						}
					],
					"name": "balanceOf",
					"outputs": [
						{
							"internalType": "uint256",
							"name": "",
							"type": "uint256"
						}
					],
					"stateMutability": "view",
					"type": "function"
				},
				{
					"inputs": [
						{
							"internalType": "uint256",
							"name": "x",
							"type": "uint256"
						},
						{
							"internalType": "uint256",
							"name": "y",
							"type": "uint256"
						}
					],
					"name": "f1",
					"outputs": [],
					"stateMutability": "nonpayable",
					"type": "function"
				},
				{
					"inputs": [],
					"name": "f2",
					"outputs": [
						{
							"internalType": "uint256",
							"name": "",
							"type": "uint256"
						}
					],
					"stateMutability": "nonpayable",
					"type": "function"
				},
				{
					"inputs": [],
					"name": "mint",
					"outputs": [],
					"stateMutability": "payable",
					"type": "function"
				},
				{
					"inputs": [
						{
							"internalType": "bytes[]",
							"name": "data",
							"type": "bytes[]"
						}
					],
					"name": "multidelegatecall",
					"outputs": [
						{
							"internalType": "bytes[]",
							"name": "results",
							"type": "bytes[]"
						}
					],
					"stateMutability": "payable",
					"type": "function"
				}
			],
			"devdoc": {
				"kind": "dev",
				"methods": {},
				"version": 1
			},
			"evm": {
				"assembly": "    /* \"MultiDelegateCall.sol\":729:1335  contract TestMultiDelegateCall is MultiDelegateCall {... */\n  mstore(0x40, 0x80)\n  callvalue\n  dup1\n  iszero\n  tag_1\n  jumpi\n  0x00\n  dup1\n  revert\ntag_1:\n  pop\n  dataSize(sub_0)\n  dup1\n  dataOffset(sub_0)\n  0x00\n  codecopy\n  0x00\n  return\nstop\n\nsub_0: assembly {\n        /* \"MultiDelegateCall.sol\":729:1335  contract TestMultiDelegateCall is MultiDelegateCall {... */\n      mstore(0x40, 0x80)\n      jumpi(tag_1, lt(calldatasize, 0x04))\n      shr(0xe0, calldataload(0x00))\n      dup1\n      0x1249c58b\n      eq\n      tag_2\n      jumpi\n      dup1\n      0x38230720\n      eq\n      tag_3\n      jumpi\n      dup1\n      0x70a08231\n      eq\n      tag_4\n      jumpi\n      dup1\n      0x7cb1442c\n      eq\n      tag_5\n      jumpi\n      dup1\n      0x9942ec6f\n      eq\n      tag_6\n      jumpi\n    tag_1:\n      0x00\n      dup1\n      revert\n        /* \"MultiDelegateCall.sol\":1244:1330  function mint() external payable {... */\n    tag_2:\n      tag_7\n      tag_8\n      jump\t// in\n    tag_7:\n      stop\n        /* \"MultiDelegateCall.sol\":129:598  function multidelegatecall(bytes[] calldata data) external payable returns (bytes[] memory results) {... */\n    tag_3:\n      tag_9\n      0x04\n      dup1\n      calldatasize\n      sub\n      dup2\n      add\n      swap1\n      tag_10\n      swap2\n      swap1\n      tag_11\n      jump\t// in\n    tag_10:\n      tag_12\n      jump\t// in\n    tag_9:\n      mload(0x40)\n      tag_13\n      swap2\n      swap1\n      tag_14\n      jump\t// in\n    tag_13:\n      mload(0x40)\n      dup1\n      swap2\n      sub\n      swap1\n      return\n        /* \"MultiDelegateCall.sol\":1062:1103  mapping(address => uint) public balanceOf */\n    tag_4:\n      callvalue\n      dup1\n      iszero\n      tag_15\n      jumpi\n      0x00\n      dup1\n      revert\n    tag_15:\n      pop\n      tag_16\n      0x04\n      dup1\n      calldatasize\n      sub\n      dup2\n      add\n      swap1\n      tag_17\n      swap2\n      swap1\n      tag_18\n      jump\t// in\n    tag_17:\n      tag_19\n      jump\t// in\n    tag_16:\n      mload(0x40)\n      tag_20\n      swap2\n      swap1\n      tag_21\n      jump\t// in\n    tag_20:\n      mload(0x40)\n      dup1\n      swap2\n      sub\n      swap1\n      return\n        /* \"MultiDelegateCall.sol\":844:935  function f1(uint x , uint y) external {... */\n    tag_5:\n      callvalue\n      dup1\n      iszero\n      tag_22\n      jumpi\n      0x00\n      dup1\n      revert\n    tag_22:\n      pop\n      tag_23\n      0x04\n      dup1\n      calldatasize\n      sub\n      dup2\n      add\n      swap1\n      tag_24\n      swap2\n      swap1\n      tag_25\n      jump\t// in\n    tag_24:\n      tag_26\n      jump\t// in\n    tag_23:\n      stop\n        /* \"MultiDelegateCall.sol\":943:1054  function f2() external returns (uint) {... */\n    tag_6:\n      callvalue\n      dup1\n      iszero\n      tag_27\n      jumpi\n      0x00\n      dup1\n      revert\n    tag_27:\n      pop\n      tag_28\n      tag_29\n      jump\t// in\n    tag_28:\n      mload(0x40)\n      tag_30\n      swap2\n      swap1\n      tag_21\n      jump\t// in\n    tag_30:\n      mload(0x40)\n      dup1\n      swap2\n      sub\n      swap1\n      return\n        /* \"MultiDelegateCall.sol\":1244:1330  function mint() external payable {... */\n    tag_8:\n        /* \"MultiDelegateCall.sol\":1313:1322  msg.value */\n      callvalue\n        /* \"MultiDelegateCall.sol\":1288:1297  balanceOf */\n      0x00\n        /* \"MultiDelegateCall.sol\":1288:1309  balanceOf[msg.sender] */\n      dup1\n        /* \"MultiDelegateCall.sol\":1298:1308  msg.sender */\n      caller\n        /* \"MultiDelegateCall.sol\":1288:1309  balanceOf[msg.sender] */\n      0xffffffffffffffffffffffffffffffffffffffff\n      and\n      0xffffffffffffffffffffffffffffffffffffffff\n      and\n      dup2\n      mstore\n      0x20\n      add\n      swap1\n      dup2\n      mstore\n      0x20\n      add\n      0x00\n      keccak256\n      0x00\n        /* \"MultiDelegateCall.sol\":1288:1322  balanceOf[msg.sender] += msg.value */\n      dup3\n      dup3\n      sload\n      tag_32\n      swap2\n      swap1\n      tag_33\n      jump\t// in\n    tag_32:\n      swap3\n      pop\n      pop\n      dup2\n      swap1\n      sstore\n      pop\n        /* \"MultiDelegateCall.sol\":1244:1330  function mint() external payable {... */\n      jump\t// out\n        /* \"MultiDelegateCall.sol\":129:598  function multidelegatecall(bytes[] calldata data) external payable returns (bytes[] memory results) {... */\n    tag_12:\n        /* \"MultiDelegateCall.sol\":205:227  bytes[] memory results */\n      0x60\n        /* \"MultiDelegateCall.sol\":262:266  data */\n      dup3\n      dup3\n        /* \"MultiDelegateCall.sol\":262:273  data.length */\n      swap1\n      pop\n        /* \"MultiDelegateCall.sol\":250:274  new bytes[](data.length) */\n      0xffffffffffffffff\n      dup2\n      gt\n      iszero\n      tag_35\n      jumpi\n      tag_36\n      tag_37\n      jump\t// in\n    tag_36:\n    tag_35:\n      mload(0x40)\n      swap1\n      dup1\n      dup3\n      mstore\n      dup1\n      0x20\n      mul\n      0x20\n      add\n      dup3\n      add\n      0x40\n      mstore\n      dup1\n      iszero\n      tag_38\n      jumpi\n      dup2\n      0x20\n      add\n    tag_39:\n      0x60\n      dup2\n      mstore\n      0x20\n      add\n      swap1\n      0x01\n      swap1\n      sub\n      swap1\n      dup2\n      tag_39\n      jumpi\n      swap1\n      pop\n    tag_38:\n      pop\n        /* \"MultiDelegateCall.sol\":240:274  results = new bytes[](data.length) */\n      swap1\n      pop\n        /* \"MultiDelegateCall.sol\":290:296  uint i */\n      0x00\n        /* \"MultiDelegateCall.sol\":285:591  for (uint i ; i < data.length ; i++) {... */\n    tag_40:\n        /* \"MultiDelegateCall.sol\":303:307  data */\n      dup4\n      dup4\n        /* \"MultiDelegateCall.sol\":303:314  data.length */\n      swap1\n      pop\n        /* \"MultiDelegateCall.sol\":299:300  i */\n      dup2\n        /* \"MultiDelegateCall.sol\":299:314  i < data.length */\n      lt\n        /* \"MultiDelegateCall.sol\":285:591  for (uint i ; i < data.length ; i++) {... */\n      iszero\n      tag_41\n      jumpi\n        /* \"MultiDelegateCall.sol\":338:350  bool success */\n      0x00\n        /* \"MultiDelegateCall.sol\":353:369  bytes memory res */\n      dup1\n        /* \"MultiDelegateCall.sol\":381:385  this */\n      address\n        /* \"MultiDelegateCall.sol\":373:399  address(this).delegatecall */\n      0xffffffffffffffffffffffffffffffffffffffff\n      and\n        /* \"MultiDelegateCall.sol\":400:404  data */\n      dup7\n      dup7\n        /* \"MultiDelegateCall.sol\":405:406  i */\n      dup6\n        /* \"MultiDelegateCall.sol\":400:407  data[i] */\n      dup2\n      dup2\n      lt\n      tag_43\n      jumpi\n      tag_44\n      tag_45\n      jump\t// in\n    tag_44:\n    tag_43:\n      swap1\n      pop\n      0x20\n      mul\n      dup2\n      add\n      swap1\n      tag_46\n      swap2\n      swap1\n      tag_47\n      jump\t// in\n    tag_46:\n        /* \"MultiDelegateCall.sol\":373:408  address(this).delegatecall(data[i]) */\n      mload(0x40)\n      tag_48\n      swap3\n      swap2\n      swap1\n      tag_49\n      jump\t// in\n    tag_48:\n      0x00\n      mload(0x40)\n      dup1\n      dup4\n      sub\n      dup2\n      dup6\n      gas\n      delegatecall\n      swap2\n      pop\n      pop\n      returndatasize\n      dup1\n      0x00\n      dup2\n      eq\n      tag_52\n      jumpi\n      mload(0x40)\n      swap2\n      pop\n      and(add(returndatasize, 0x3f), not(0x1f))\n      dup3\n      add\n      0x40\n      mstore\n      returndatasize\n      dup3\n      mstore\n      returndatasize\n      0x00\n      0x20\n      dup5\n      add\n      returndatacopy\n      jump(tag_51)\n    tag_52:\n      0x60\n      swap2\n      pop\n    tag_51:\n      pop\n        /* \"MultiDelegateCall.sol\":337:408  (bool success , bytes memory res) = address(this).delegatecall(data[i]) */\n      swap2\n      pop\n      swap2\n      pop\n        /* \"MultiDelegateCall.sol\":478:485  success */\n      dup2\n        /* \"MultiDelegateCall.sol\":473:549  if (!success) {... */\n      tag_53\n      jumpi\n        /* \"MultiDelegateCall.sol\":513:533  delegatecallfailed() */\n      mload(0x40)\n      0xf5544fd400000000000000000000000000000000000000000000000000000000\n      dup2\n      mstore\n      0x04\n      add\n      mload(0x40)\n      dup1\n      swap2\n      sub\n      swap1\n      revert\n        /* \"MultiDelegateCall.sol\":473:549  if (!success) {... */\n    tag_53:\n        /* \"MultiDelegateCall.sol\":576:579  res */\n      dup1\n        /* \"MultiDelegateCall.sol\":563:570  results */\n      dup5\n        /* \"MultiDelegateCall.sol\":571:572  i */\n      dup5\n        /* \"MultiDelegateCall.sol\":563:573  results[i] */\n      dup2\n      mload\n      dup2\n      lt\n      tag_54\n      jumpi\n      tag_55\n      tag_45\n      jump\t// in\n    tag_55:\n    tag_54:\n      0x20\n      mul\n      0x20\n      add\n      add\n        /* \"MultiDelegateCall.sol\":563:579  results[i] = res */\n      dup2\n      swap1\n      mstore\n      pop\n        /* \"MultiDelegateCall.sol\":322:591  {... */\n      pop\n      pop\n        /* \"MultiDelegateCall.sol\":317:320  i++ */\n      dup1\n      dup1\n      tag_56\n      swap1\n      tag_57\n      jump\t// in\n    tag_56:\n      swap2\n      pop\n      pop\n        /* \"MultiDelegateCall.sol\":285:591  for (uint i ; i < data.length ; i++) {... */\n      jump(tag_40)\n    tag_41:\n      pop\n        /* \"MultiDelegateCall.sol\":129:598  function multidelegatecall(bytes[] calldata data) external payable returns (bytes[] memory results) {... */\n      swap3\n      swap2\n      pop\n      pop\n      jump\t// out\n        /* \"MultiDelegateCall.sol\":1062:1103  mapping(address => uint) public balanceOf */\n    tag_19:\n      mstore(0x20, 0x00)\n      dup1\n      0x00\n      mstore\n      keccak256(0x00, 0x40)\n      0x00\n      swap2\n      pop\n      swap1\n      pop\n      sload\n      dup2\n      jump\t// out\n        /* \"MultiDelegateCall.sol\":844:935  function f1(uint x , uint y) external {... */\n    tag_26:\n        /* \"MultiDelegateCall.sol\":898:927  Log(msg.sender , \"f1\" ,x + y) */\n      0xfd33e90d0eac940755277aa91045b95664988beeeafc4ed7d1281a6d83afbc00\n        /* \"MultiDelegateCall.sol\":902:912  msg.sender */\n      caller\n        /* \"MultiDelegateCall.sol\":925:926  y */\n      dup3\n        /* \"MultiDelegateCall.sol\":921:922  x */\n      dup5\n        /* \"MultiDelegateCall.sol\":921:926  x + y */\n      tag_59\n      swap2\n      swap1\n      tag_33\n      jump\t// in\n    tag_59:\n        /* \"MultiDelegateCall.sol\":898:927  Log(msg.sender , \"f1\" ,x + y) */\n      mload(0x40)\n      tag_60\n      swap3\n      swap2\n      swap1\n      tag_61\n      jump\t// in\n    tag_60:\n      mload(0x40)\n      dup1\n      swap2\n      sub\n      swap1\n      log1\n        /* \"MultiDelegateCall.sol\":844:935  function f1(uint x , uint y) external {... */\n      pop\n      pop\n      jump\t// out\n        /* \"MultiDelegateCall.sol\":943:1054  function f2() external returns (uint) {... */\n    tag_29:\n        /* \"MultiDelegateCall.sol\":975:979  uint */\n      0x00\n        /* \"MultiDelegateCall.sol\":997:1023  Log(msg.sender , \"f2\" , 2) */\n      0xfd33e90d0eac940755277aa91045b95664988beeeafc4ed7d1281a6d83afbc00\n        /* \"MultiDelegateCall.sol\":1001:1011  msg.sender */\n      caller\n        /* \"MultiDelegateCall.sol\":1021:1022  2 */\n      0x02\n        /* \"MultiDelegateCall.sol\":997:1023  Log(msg.sender , \"f2\" , 2) */\n      mload(0x40)\n      tag_63\n      swap3\n      swap2\n      swap1\n      tag_64\n      jump\t// in\n    tag_63:\n      mload(0x40)\n      dup1\n      swap2\n      sub\n      swap1\n      log1\n        /* \"MultiDelegateCall.sol\":1041:1044  111 */\n      0x6f\n        /* \"MultiDelegateCall.sol\":1034:1044  return 111 */\n      swap1\n      pop\n        /* \"MultiDelegateCall.sol\":943:1054  function f2() external returns (uint) {... */\n      swap1\n      jump\t// out\n        /* \"#utility.yul\":88:205   */\n    tag_66:\n        /* \"#utility.yul\":197:198   */\n      0x00\n        /* \"#utility.yul\":194:195   */\n      dup1\n        /* \"#utility.yul\":187:199   */\n      revert\n        /* \"#utility.yul\":211:328   */\n    tag_67:\n        /* \"#utility.yul\":320:321   */\n      0x00\n        /* \"#utility.yul\":317:318   */\n      dup1\n        /* \"#utility.yul\":310:322   */\n      revert\n        /* \"#utility.yul\":334:451   */\n    tag_68:\n        /* \"#utility.yul\":443:444   */\n      0x00\n        /* \"#utility.yul\":440:441   */\n      dup1\n        /* \"#utility.yul\":433:445   */\n      revert\n        /* \"#utility.yul\":457:574   */\n    tag_69:\n        /* \"#utility.yul\":566:567   */\n      0x00\n        /* \"#utility.yul\":563:564   */\n      dup1\n        /* \"#utility.yul\":556:568   */\n      revert\n        /* \"#utility.yul\":580:697   */\n    tag_70:\n        /* \"#utility.yul\":689:690   */\n      0x00\n        /* \"#utility.yul\":686:687   */\n      dup1\n        /* \"#utility.yul\":679:691   */\n      revert\n        /* \"#utility.yul\":718:1297   */\n    tag_71:\n        /* \"#utility.yul\":802:810   */\n      0x00\n        /* \"#utility.yul\":812:818   */\n      dup1\n        /* \"#utility.yul\":862:865   */\n      dup4\n        /* \"#utility.yul\":855:859   */\n      0x1f\n        /* \"#utility.yul\":847:853   */\n      dup5\n        /* \"#utility.yul\":843:860   */\n      add\n        /* \"#utility.yul\":839:866   */\n      slt\n        /* \"#utility.yul\":829:951   */\n      tag_116\n      jumpi\n        /* \"#utility.yul\":870:949   */\n      tag_117\n      tag_68\n      jump\t// in\n    tag_117:\n        /* \"#utility.yul\":829:951   */\n    tag_116:\n        /* \"#utility.yul\":983:989   */\n      dup3\n        /* \"#utility.yul\":970:990   */\n      calldataload\n        /* \"#utility.yul\":960:990   */\n      swap1\n      pop\n        /* \"#utility.yul\":1013:1031   */\n      0xffffffffffffffff\n        /* \"#utility.yul\":1005:1011   */\n      dup2\n        /* \"#utility.yul\":1002:1032   */\n      gt\n        /* \"#utility.yul\":999:1116   */\n      iszero\n      tag_118\n      jumpi\n        /* \"#utility.yul\":1035:1114   */\n      tag_119\n      tag_69\n      jump\t// in\n    tag_119:\n        /* \"#utility.yul\":999:1116   */\n    tag_118:\n        /* \"#utility.yul\":1149:1153   */\n      0x20\n        /* \"#utility.yul\":1141:1147   */\n      dup4\n        /* \"#utility.yul\":1137:1154   */\n      add\n        /* \"#utility.yul\":1125:1154   */\n      swap2\n      pop\n        /* \"#utility.yul\":1203:1206   */\n      dup4\n        /* \"#utility.yul\":1195:1199   */\n      0x20\n        /* \"#utility.yul\":1187:1193   */\n      dup3\n        /* \"#utility.yul\":1183:1200   */\n      mul\n        /* \"#utility.yul\":1173:1181   */\n      dup4\n        /* \"#utility.yul\":1169:1201   */\n      add\n        /* \"#utility.yul\":1166:1207   */\n      gt\n        /* \"#utility.yul\":1163:1291   */\n      iszero\n      tag_120\n      jumpi\n        /* \"#utility.yul\":1210:1289   */\n      tag_121\n      tag_70\n      jump\t// in\n    tag_121:\n        /* \"#utility.yul\":1163:1291   */\n    tag_120:\n        /* \"#utility.yul\":718:1297   */\n      swap3\n      pop\n      swap3\n      swap1\n      pop\n      jump\t// out\n        /* \"#utility.yul\":1303:1884   */\n    tag_11:\n        /* \"#utility.yul\":1400:1406   */\n      0x00\n        /* \"#utility.yul\":1408:1414   */\n      dup1\n        /* \"#utility.yul\":1457:1459   */\n      0x20\n        /* \"#utility.yul\":1445:1454   */\n      dup4\n        /* \"#utility.yul\":1436:1443   */\n      dup6\n        /* \"#utility.yul\":1432:1455   */\n      sub\n        /* \"#utility.yul\":1428:1460   */\n      slt\n        /* \"#utility.yul\":1425:1544   */\n      iszero\n      tag_123\n      jumpi\n        /* \"#utility.yul\":1463:1542   */\n      tag_124\n      tag_66\n      jump\t// in\n    tag_124:\n        /* \"#utility.yul\":1425:1544   */\n    tag_123:\n        /* \"#utility.yul\":1611:1612   */\n      0x00\n        /* \"#utility.yul\":1600:1609   */\n      dup4\n        /* \"#utility.yul\":1596:1613   */\n      add\n        /* \"#utility.yul\":1583:1614   */\n      calldataload\n        /* \"#utility.yul\":1641:1659   */\n      0xffffffffffffffff\n        /* \"#utility.yul\":1633:1639   */\n      dup2\n        /* \"#utility.yul\":1630:1660   */\n      gt\n        /* \"#utility.yul\":1627:1744   */\n      iszero\n      tag_125\n      jumpi\n        /* \"#utility.yul\":1663:1742   */\n      tag_126\n      tag_67\n      jump\t// in\n    tag_126:\n        /* \"#utility.yul\":1627:1744   */\n    tag_125:\n        /* \"#utility.yul\":1776:1867   */\n      tag_127\n        /* \"#utility.yul\":1859:1866   */\n      dup6\n        /* \"#utility.yul\":1850:1856   */\n      dup3\n        /* \"#utility.yul\":1839:1848   */\n      dup7\n        /* \"#utility.yul\":1835:1857   */\n      add\n        /* \"#utility.yul\":1776:1867   */\n      tag_71\n      jump\t// in\n    tag_127:\n        /* \"#utility.yul\":1758:1867   */\n      swap3\n      pop\n      swap3\n      pop\n        /* \"#utility.yul\":1554:1877   */\n      pop\n        /* \"#utility.yul\":1303:1884   */\n      swap3\n      pop\n      swap3\n      swap1\n      pop\n      jump\t// out\n        /* \"#utility.yul\":1890:2013   */\n    tag_72:\n        /* \"#utility.yul\":1966:1972   */\n      0x00\n        /* \"#utility.yul\":2000:2005   */\n      dup2\n        /* \"#utility.yul\":1994:2006   */\n      mload\n        /* \"#utility.yul\":1984:2006   */\n      swap1\n      pop\n        /* \"#utility.yul\":1890:2013   */\n      swap2\n      swap1\n      pop\n      jump\t// out\n        /* \"#utility.yul\":2019:2212   */\n    tag_73:\n        /* \"#utility.yul\":2127:2138   */\n      0x00\n        /* \"#utility.yul\":2161:2167   */\n      dup3\n        /* \"#utility.yul\":2156:2159   */\n      dup3\n        /* \"#utility.yul\":2149:2168   */\n      mstore\n        /* \"#utility.yul\":2201:2205   */\n      0x20\n        /* \"#utility.yul\":2196:2199   */\n      dup3\n        /* \"#utility.yul\":2192:2206   */\n      add\n        /* \"#utility.yul\":2177:2206   */\n      swap1\n      pop\n        /* \"#utility.yul\":2019:2212   */\n      swap3\n      swap2\n      pop\n      pop\n      jump\t// out\n        /* \"#utility.yul\":2218:2359   */\n    tag_74:\n        /* \"#utility.yul\":2294:2298   */\n      0x00\n        /* \"#utility.yul\":2317:2320   */\n      dup2\n        /* \"#utility.yul\":2309:2320   */\n      swap1\n      pop\n        /* \"#utility.yul\":2347:2351   */\n      0x20\n        /* \"#utility.yul\":2342:2345   */\n      dup3\n        /* \"#utility.yul\":2338:2352   */\n      add\n        /* \"#utility.yul\":2330:2352   */\n      swap1\n      pop\n        /* \"#utility.yul\":2218:2359   */\n      swap2\n      swap1\n      pop\n      jump\t// out\n        /* \"#utility.yul\":2365:2463   */\n    tag_75:\n        /* \"#utility.yul\":2416:2422   */\n      0x00\n        /* \"#utility.yul\":2450:2455   */\n      dup2\n        /* \"#utility.yul\":2444:2456   */\n      mload\n        /* \"#utility.yul\":2434:2456   */\n      swap1\n      pop\n        /* \"#utility.yul\":2365:2463   */\n      swap2\n      swap1\n      pop\n      jump\t// out\n        /* \"#utility.yul\":2469:2627   */\n    tag_76:\n        /* \"#utility.yul\":2542:2553   */\n      0x00\n        /* \"#utility.yul\":2576:2582   */\n      dup3\n        /* \"#utility.yul\":2571:2574   */\n      dup3\n        /* \"#utility.yul\":2564:2583   */\n      mstore\n        /* \"#utility.yul\":2616:2620   */\n      0x20\n        /* \"#utility.yul\":2611:2614   */\n      dup3\n        /* \"#utility.yul\":2607:2621   */\n      add\n        /* \"#utility.yul\":2592:2621   */\n      swap1\n      pop\n        /* \"#utility.yul\":2469:2627   */\n      swap3\n      swap2\n      pop\n      pop\n      jump\t// out\n        /* \"#utility.yul\":2633:2879   */\n    tag_77:\n        /* \"#utility.yul\":2714:2715   */\n      0x00\n        /* \"#utility.yul\":2724:2837   */\n    tag_134:\n        /* \"#utility.yul\":2738:2744   */\n      dup4\n        /* \"#utility.yul\":2735:2736   */\n      dup2\n        /* \"#utility.yul\":2732:2745   */\n      lt\n        /* \"#utility.yul\":2724:2837   */\n      iszero\n      tag_136\n      jumpi\n        /* \"#utility.yul\":2823:2824   */\n      dup1\n        /* \"#utility.yul\":2818:2821   */\n      dup3\n        /* \"#utility.yul\":2814:2825   */\n      add\n        /* \"#utility.yul\":2808:2826   */\n      mload\n        /* \"#utility.yul\":2804:2805   */\n      dup2\n        /* \"#utility.yul\":2799:2802   */\n      dup5\n        /* \"#utility.yul\":2795:2806   */\n      add\n        /* \"#utility.yul\":2788:2827   */\n      mstore\n        /* \"#utility.yul\":2760:2762   */\n      0x20\n        /* \"#utility.yul\":2757:2758   */\n      dup2\n        /* \"#utility.yul\":2753:2763   */\n      add\n        /* \"#utility.yul\":2748:2763   */\n      swap1\n      pop\n        /* \"#utility.yul\":2724:2837   */\n      jump(tag_134)\n    tag_136:\n        /* \"#utility.yul\":2871:2872   */\n      0x00\n        /* \"#utility.yul\":2862:2868   */\n      dup5\n        /* \"#utility.yul\":2857:2860   */\n      dup5\n        /* \"#utility.yul\":2853:2869   */\n      add\n        /* \"#utility.yul\":2846:2873   */\n      mstore\n        /* \"#utility.yul\":2695:2879   */\n      pop\n        /* \"#utility.yul\":2633:2879   */\n      pop\n      pop\n      pop\n      jump\t// out\n        /* \"#utility.yul\":2885:2987   */\n    tag_78:\n        /* \"#utility.yul\":2926:2932   */\n      0x00\n        /* \"#utility.yul\":2977:2979   */\n      0x1f\n        /* \"#utility.yul\":2973:2980   */\n      not\n        /* \"#utility.yul\":2968:2970   */\n      0x1f\n        /* \"#utility.yul\":2961:2966   */\n      dup4\n        /* \"#utility.yul\":2957:2971   */\n      add\n        /* \"#utility.yul\":2953:2981   */\n      and\n        /* \"#utility.yul\":2943:2981   */\n      swap1\n      pop\n        /* \"#utility.yul\":2885:2987   */\n      swap2\n      swap1\n      pop\n      jump\t// out\n        /* \"#utility.yul\":2993:3346   */\n    tag_79:\n        /* \"#utility.yul\":3069:3072   */\n      0x00\n        /* \"#utility.yul\":3097:3135   */\n      tag_139\n        /* \"#utility.yul\":3129:3134   */\n      dup3\n        /* \"#utility.yul\":3097:3135   */\n      tag_75\n      jump\t// in\n    tag_139:\n        /* \"#utility.yul\":3151:3211   */\n      tag_140\n        /* \"#utility.yul\":3204:3210   */\n      dup2\n        /* \"#utility.yul\":3199:3202   */\n      dup6\n        /* \"#utility.yul\":3151:3211   */\n      tag_76\n      jump\t// in\n    tag_140:\n        /* \"#utility.yul\":3144:3211   */\n      swap4\n      pop\n        /* \"#utility.yul\":3220:3285   */\n      tag_141\n        /* \"#utility.yul\":3278:3284   */\n      dup2\n        /* \"#utility.yul\":3273:3276   */\n      dup6\n        /* \"#utility.yul\":3266:3270   */\n      0x20\n        /* \"#utility.yul\":3259:3264   */\n      dup7\n        /* \"#utility.yul\":3255:3271   */\n      add\n        /* \"#utility.yul\":3220:3285   */\n      tag_77\n      jump\t// in\n    tag_141:\n        /* \"#utility.yul\":3310:3339   */\n      tag_142\n        /* \"#utility.yul\":3332:3338   */\n      dup2\n        /* \"#utility.yul\":3310:3339   */\n      tag_78\n      jump\t// in\n    tag_142:\n        /* \"#utility.yul\":3305:3308   */\n      dup5\n        /* \"#utility.yul\":3301:3340   */\n      add\n        /* \"#utility.yul\":3294:3340   */\n      swap2\n      pop\n        /* \"#utility.yul\":3073:3346   */\n      pop\n        /* \"#utility.yul\":2993:3346   */\n      swap3\n      swap2\n      pop\n      pop\n      jump\t// out\n        /* \"#utility.yul\":3352:3544   */\n    tag_80:\n        /* \"#utility.yul\":3439:3449   */\n      0x00\n        /* \"#utility.yul\":3474:3538   */\n      tag_144\n        /* \"#utility.yul\":3534:3537   */\n      dup4\n        /* \"#utility.yul\":3526:3532   */\n      dup4\n        /* \"#utility.yul\":3474:3538   */\n      tag_79\n      jump\t// in\n    tag_144:\n        /* \"#utility.yul\":3460:3538   */\n      swap1\n      pop\n        /* \"#utility.yul\":3352:3544   */\n      swap3\n      swap2\n      pop\n      pop\n      jump\t// out\n        /* \"#utility.yul\":3550:3672   */\n    tag_81:\n        /* \"#utility.yul\":3629:3633   */\n      0x00\n        /* \"#utility.yul\":3661:3665   */\n      0x20\n        /* \"#utility.yul\":3656:3659   */\n      dup3\n        /* \"#utility.yul\":3652:3666   */\n      add\n        /* \"#utility.yul\":3644:3666   */\n      swap1\n      pop\n        /* \"#utility.yul\":3550:3672   */\n      swap2\n      swap1\n      pop\n      jump\t// out\n        /* \"#utility.yul\":3704:4687   */\n    tag_82:\n        /* \"#utility.yul\":3841:3844   */\n      0x00\n        /* \"#utility.yul\":3870:3933   */\n      tag_147\n        /* \"#utility.yul\":3927:3932   */\n      dup3\n        /* \"#utility.yul\":3870:3933   */\n      tag_72\n      jump\t// in\n    tag_147:\n        /* \"#utility.yul\":3949:4044   */\n      tag_148\n        /* \"#utility.yul\":4037:4043   */\n      dup2\n        /* \"#utility.yul\":4032:4035   */\n      dup6\n        /* \"#utility.yul\":3949:4044   */\n      tag_73\n      jump\t// in\n    tag_148:\n        /* \"#utility.yul\":3942:4044   */\n      swap4\n      pop\n        /* \"#utility.yul\":4070:4073   */\n      dup4\n        /* \"#utility.yul\":4115:4119   */\n      0x20\n        /* \"#utility.yul\":4107:4113   */\n      dup3\n        /* \"#utility.yul\":4103:4120   */\n      mul\n        /* \"#utility.yul\":4098:4101   */\n      dup6\n        /* \"#utility.yul\":4094:4121   */\n      add\n        /* \"#utility.yul\":4145:4210   */\n      tag_149\n        /* \"#utility.yul\":4204:4209   */\n      dup6\n        /* \"#utility.yul\":4145:4210   */\n      tag_74\n      jump\t// in\n    tag_149:\n        /* \"#utility.yul\":4233:4240   */\n      dup1\n        /* \"#utility.yul\":4264:4265   */\n      0x00\n        /* \"#utility.yul\":4249:4642   */\n    tag_150:\n        /* \"#utility.yul\":4274:4280   */\n      dup6\n        /* \"#utility.yul\":4271:4272   */\n      dup2\n        /* \"#utility.yul\":4268:4281   */\n      lt\n        /* \"#utility.yul\":4249:4642   */\n      iszero\n      tag_152\n      jumpi\n        /* \"#utility.yul\":4345:4354   */\n      dup5\n        /* \"#utility.yul\":4339:4343   */\n      dup5\n        /* \"#utility.yul\":4335:4355   */\n      sub\n        /* \"#utility.yul\":4330:4333   */\n      dup10\n        /* \"#utility.yul\":4323:4356   */\n      mstore\n        /* \"#utility.yul\":4396:4402   */\n      dup2\n        /* \"#utility.yul\":4390:4403   */\n      mload\n        /* \"#utility.yul\":4424:4506   */\n      tag_153\n        /* \"#utility.yul\":4501:4505   */\n      dup6\n        /* \"#utility.yul\":4486:4499   */\n      dup3\n        /* \"#utility.yul\":4424:4506   */\n      tag_80\n      jump\t// in\n    tag_153:\n        /* \"#utility.yul\":4416:4506   */\n      swap5\n      pop\n        /* \"#utility.yul\":4529:4598   */\n      tag_154\n        /* \"#utility.yul\":4591:4597   */\n      dup4\n        /* \"#utility.yul\":4529:4598   */\n      tag_81\n      jump\t// in\n    tag_154:\n        /* \"#utility.yul\":4519:4598   */\n      swap3\n      pop\n        /* \"#utility.yul\":4627:4631   */\n      0x20\n        /* \"#utility.yul\":4622:4625   */\n      dup11\n        /* \"#utility.yul\":4618:4632   */\n      add\n        /* \"#utility.yul\":4611:4632   */\n      swap10\n      pop\n        /* \"#utility.yul\":4309:4642   */\n      pop\n        /* \"#utility.yul\":4296:4297   */\n      0x01\n        /* \"#utility.yul\":4293:4294   */\n      dup2\n        /* \"#utility.yul\":4289:4298   */\n      add\n        /* \"#utility.yul\":4284:4298   */\n      swap1\n      pop\n        /* \"#utility.yul\":4249:4642   */\n      jump(tag_150)\n    tag_152:\n        /* \"#utility.yul\":4253:4267   */\n      pop\n        /* \"#utility.yul\":4658:4662   */\n      dup3\n        /* \"#utility.yul\":4651:4662   */\n      swap8\n      pop\n        /* \"#utility.yul\":4678:4681   */\n      dup8\n        /* \"#utility.yul\":4671:4681   */\n      swap6\n      pop\n        /* \"#utility.yul\":3846:4687   */\n      pop\n      pop\n      pop\n      pop\n      pop\n        /* \"#utility.yul\":3704:4687   */\n      swap3\n      swap2\n      pop\n      pop\n      jump\t// out\n        /* \"#utility.yul\":4693:5102   */\n    tag_14:\n        /* \"#utility.yul\":4854:4858   */\n      0x00\n        /* \"#utility.yul\":4892:4894   */\n      0x20\n        /* \"#utility.yul\":4881:4890   */\n      dup3\n        /* \"#utility.yul\":4877:4895   */\n      add\n        /* \"#utility.yul\":4869:4895   */\n      swap1\n      pop\n        /* \"#utility.yul\":4941:4950   */\n      dup2\n        /* \"#utility.yul\":4935:4939   */\n      dup2\n        /* \"#utility.yul\":4931:4951   */\n      sub\n        /* \"#utility.yul\":4927:4928   */\n      0x00\n        /* \"#utility.yul\":4916:4925   */\n      dup4\n        /* \"#utility.yul\":4912:4929   */\n      add\n        /* \"#utility.yul\":4905:4952   */\n      mstore\n        /* \"#utility.yul\":4969:5095   */\n      tag_156\n        /* \"#utility.yul\":5090:5094   */\n      dup2\n        /* \"#utility.yul\":5081:5087   */\n      dup5\n        /* \"#utility.yul\":4969:5095   */\n      tag_82\n      jump\t// in\n    tag_156:\n        /* \"#utility.yul\":4961:5095   */\n      swap1\n      pop\n        /* \"#utility.yul\":4693:5102   */\n      swap3\n      swap2\n      pop\n      pop\n      jump\t// out\n        /* \"#utility.yul\":5108:5234   */\n    tag_83:\n        /* \"#utility.yul\":5145:5152   */\n      0x00\n        /* \"#utility.yul\":5185:5227   */\n      0xffffffffffffffffffffffffffffffffffffffff\n        /* \"#utility.yul\":5178:5183   */\n      dup3\n        /* \"#utility.yul\":5174:5228   */\n      and\n        /* \"#utility.yul\":5163:5228   */\n      swap1\n      pop\n        /* \"#utility.yul\":5108:5234   */\n      swap2\n      swap1\n      pop\n      jump\t// out\n        /* \"#utility.yul\":5240:5336   */\n    tag_84:\n        /* \"#utility.yul\":5277:5284   */\n      0x00\n        /* \"#utility.yul\":5306:5330   */\n      tag_159\n        /* \"#utility.yul\":5324:5329   */\n      dup3\n        /* \"#utility.yul\":5306:5330   */\n      tag_83\n      jump\t// in\n    tag_159:\n        /* \"#utility.yul\":5295:5330   */\n      swap1\n      pop\n        /* \"#utility.yul\":5240:5336   */\n      swap2\n      swap1\n      pop\n      jump\t// out\n        /* \"#utility.yul\":5342:5464   */\n    tag_85:\n        /* \"#utility.yul\":5415:5439   */\n      tag_161\n        /* \"#utility.yul\":5433:5438   */\n      dup2\n        /* \"#utility.yul\":5415:5439   */\n      tag_84\n      jump\t// in\n    tag_161:\n        /* \"#utility.yul\":5408:5413   */\n      dup2\n        /* \"#utility.yul\":5405:5440   */\n      eq\n        /* \"#utility.yul\":5395:5458   */\n      tag_162\n      jumpi\n        /* \"#utility.yul\":5454:5455   */\n      0x00\n        /* \"#utility.yul\":5451:5452   */\n      dup1\n        /* \"#utility.yul\":5444:5456   */\n      revert\n        /* \"#utility.yul\":5395:5458   */\n    tag_162:\n        /* \"#utility.yul\":5342:5464   */\n      pop\n      jump\t// out\n        /* \"#utility.yul\":5470:5609   */\n    tag_86:\n        /* \"#utility.yul\":5516:5521   */\n      0x00\n        /* \"#utility.yul\":5554:5560   */\n      dup2\n        /* \"#utility.yul\":5541:5561   */\n      calldataload\n        /* \"#utility.yul\":5532:5561   */\n      swap1\n      pop\n        /* \"#utility.yul\":5570:5603   */\n      tag_164\n        /* \"#utility.yul\":5597:5602   */\n      dup2\n        /* \"#utility.yul\":5570:5603   */\n      tag_85\n      jump\t// in\n    tag_164:\n        /* \"#utility.yul\":5470:5609   */\n      swap3\n      swap2\n      pop\n      pop\n      jump\t// out\n        /* \"#utility.yul\":5615:5944   */\n    tag_18:\n        /* \"#utility.yul\":5674:5680   */\n      0x00\n        /* \"#utility.yul\":5723:5725   */\n      0x20\n        /* \"#utility.yul\":5711:5720   */\n      dup3\n        /* \"#utility.yul\":5702:5709   */\n      dup5\n        /* \"#utility.yul\":5698:5721   */\n      sub\n        /* \"#utility.yul\":5694:5726   */\n      slt\n        /* \"#utility.yul\":5691:5810   */\n      iszero\n      tag_166\n      jumpi\n        /* \"#utility.yul\":5729:5808   */\n      tag_167\n      tag_66\n      jump\t// in\n    tag_167:\n        /* \"#utility.yul\":5691:5810   */\n    tag_166:\n        /* \"#utility.yul\":5849:5850   */\n      0x00\n        /* \"#utility.yul\":5874:5927   */\n      tag_168\n        /* \"#utility.yul\":5919:5926   */\n      dup5\n        /* \"#utility.yul\":5910:5916   */\n      dup3\n        /* \"#utility.yul\":5899:5908   */\n      dup6\n        /* \"#utility.yul\":5895:5917   */\n      add\n        /* \"#utility.yul\":5874:5927   */\n      tag_86\n      jump\t// in\n    tag_168:\n        /* \"#utility.yul\":5864:5927   */\n      swap2\n      pop\n        /* \"#utility.yul\":5820:5937   */\n      pop\n        /* \"#utility.yul\":5615:5944   */\n      swap3\n      swap2\n      pop\n      pop\n      jump\t// out\n        /* \"#utility.yul\":5950:6027   */\n    tag_87:\n        /* \"#utility.yul\":5987:5994   */\n      0x00\n        /* \"#utility.yul\":6016:6021   */\n      dup2\n        /* \"#utility.yul\":6005:6021   */\n      swap1\n      pop\n        /* \"#utility.yul\":5950:6027   */\n      swap2\n      swap1\n      pop\n      jump\t// out\n        /* \"#utility.yul\":6033:6151   */\n    tag_88:\n        /* \"#utility.yul\":6120:6144   */\n      tag_171\n        /* \"#utility.yul\":6138:6143   */\n      dup2\n        /* \"#utility.yul\":6120:6144   */\n      tag_87\n      jump\t// in\n    tag_171:\n        /* \"#utility.yul\":6115:6118   */\n      dup3\n        /* \"#utility.yul\":6108:6145   */\n      mstore\n        /* \"#utility.yul\":6033:6151   */\n      pop\n      pop\n      jump\t// out\n        /* \"#utility.yul\":6157:6379   */\n    tag_21:\n        /* \"#utility.yul\":6250:6254   */\n      0x00\n        /* \"#utility.yul\":6288:6290   */\n      0x20\n        /* \"#utility.yul\":6277:6286   */\n      dup3\n        /* \"#utility.yul\":6273:6291   */\n      add\n        /* \"#utility.yul\":6265:6291   */\n      swap1\n      pop\n        /* \"#utility.yul\":6301:6372   */\n      tag_173\n        /* \"#utility.yul\":6369:6370   */\n      0x00\n        /* \"#utility.yul\":6358:6367   */\n      dup4\n        /* \"#utility.yul\":6354:6371   */\n      add\n        /* \"#utility.yul\":6345:6351   */\n      dup5\n        /* \"#utility.yul\":6301:6372   */\n      tag_88\n      jump\t// in\n    tag_173:\n        /* \"#utility.yul\":6157:6379   */\n      swap3\n      swap2\n      pop\n      pop\n      jump\t// out\n        /* \"#utility.yul\":6385:6507   */\n    tag_89:\n        /* \"#utility.yul\":6458:6482   */\n      tag_175\n        /* \"#utility.yul\":6476:6481   */\n      dup2\n        /* \"#utility.yul\":6458:6482   */\n      tag_87\n      jump\t// in\n    tag_175:\n        /* \"#utility.yul\":6451:6456   */\n      dup2\n        /* \"#utility.yul\":6448:6483   */\n      eq\n        /* \"#utility.yul\":6438:6501   */\n      tag_176\n      jumpi\n        /* \"#utility.yul\":6497:6498   */\n      0x00\n        /* \"#utility.yul\":6494:6495   */\n      dup1\n        /* \"#utility.yul\":6487:6499   */\n      revert\n        /* \"#utility.yul\":6438:6501   */\n    tag_176:\n        /* \"#utility.yul\":6385:6507   */\n      pop\n      jump\t// out\n        /* \"#utility.yul\":6513:6652   */\n    tag_90:\n        /* \"#utility.yul\":6559:6564   */\n      0x00\n        /* \"#utility.yul\":6597:6603   */\n      dup2\n        /* \"#utility.yul\":6584:6604   */\n      calldataload\n        /* \"#utility.yul\":6575:6604   */\n      swap1\n      pop\n        /* \"#utility.yul\":6613:6646   */\n      tag_178\n        /* \"#utility.yul\":6640:6645   */\n      dup2\n        /* \"#utility.yul\":6613:6646   */\n      tag_89\n      jump\t// in\n    tag_178:\n        /* \"#utility.yul\":6513:6652   */\n      swap3\n      swap2\n      pop\n      pop\n      jump\t// out\n        /* \"#utility.yul\":6658:7132   */\n    tag_25:\n        /* \"#utility.yul\":6726:6732   */\n      0x00\n        /* \"#utility.yul\":6734:6740   */\n      dup1\n        /* \"#utility.yul\":6783:6785   */\n      0x40\n        /* \"#utility.yul\":6771:6780   */\n      dup4\n        /* \"#utility.yul\":6762:6769   */\n      dup6\n        /* \"#utility.yul\":6758:6781   */\n      sub\n        /* \"#utility.yul\":6754:6786   */\n      slt\n        /* \"#utility.yul\":6751:6870   */\n      iszero\n      tag_180\n      jumpi\n        /* \"#utility.yul\":6789:6868   */\n      tag_181\n      tag_66\n      jump\t// in\n    tag_181:\n        /* \"#utility.yul\":6751:6870   */\n    tag_180:\n        /* \"#utility.yul\":6909:6910   */\n      0x00\n        /* \"#utility.yul\":6934:6987   */\n      tag_182\n        /* \"#utility.yul\":6979:6986   */\n      dup6\n        /* \"#utility.yul\":6970:6976   */\n      dup3\n        /* \"#utility.yul\":6959:6968   */\n      dup7\n        /* \"#utility.yul\":6955:6977   */\n      add\n        /* \"#utility.yul\":6934:6987   */\n      tag_90\n      jump\t// in\n    tag_182:\n        /* \"#utility.yul\":6924:6987   */\n      swap3\n      pop\n        /* \"#utility.yul\":6880:6997   */\n      pop\n        /* \"#utility.yul\":7036:7038   */\n      0x20\n        /* \"#utility.yul\":7062:7115   */\n      tag_183\n        /* \"#utility.yul\":7107:7114   */\n      dup6\n        /* \"#utility.yul\":7098:7104   */\n      dup3\n        /* \"#utility.yul\":7087:7096   */\n      dup7\n        /* \"#utility.yul\":7083:7105   */\n      add\n        /* \"#utility.yul\":7062:7115   */\n      tag_90\n      jump\t// in\n    tag_183:\n        /* \"#utility.yul\":7052:7115   */\n      swap2\n      pop\n        /* \"#utility.yul\":7007:7125   */\n      pop\n        /* \"#utility.yul\":6658:7132   */\n      swap3\n      pop\n      swap3\n      swap1\n      pop\n      jump\t// out\n        /* \"#utility.yul\":7138:7318   */\n    tag_91:\n        /* \"#utility.yul\":7186:7263   */\n      0x4e487b7100000000000000000000000000000000000000000000000000000000\n        /* \"#utility.yul\":7183:7184   */\n      0x00\n        /* \"#utility.yul\":7176:7264   */\n      mstore\n        /* \"#utility.yul\":7283:7287   */\n      0x11\n        /* \"#utility.yul\":7280:7281   */\n      0x04\n        /* \"#utility.yul\":7273:7288   */\n      mstore\n        /* \"#utility.yul\":7307:7311   */\n      0x24\n        /* \"#utility.yul\":7304:7305   */\n      0x00\n        /* \"#utility.yul\":7297:7312   */\n      revert\n        /* \"#utility.yul\":7324:7515   */\n    tag_33:\n        /* \"#utility.yul\":7364:7367   */\n      0x00\n        /* \"#utility.yul\":7383:7403   */\n      tag_186\n        /* \"#utility.yul\":7401:7402   */\n      dup3\n        /* \"#utility.yul\":7383:7403   */\n      tag_87\n      jump\t// in\n    tag_186:\n        /* \"#utility.yul\":7378:7403   */\n      swap2\n      pop\n        /* \"#utility.yul\":7417:7437   */\n      tag_187\n        /* \"#utility.yul\":7435:7436   */\n      dup4\n        /* \"#utility.yul\":7417:7437   */\n      tag_87\n      jump\t// in\n    tag_187:\n        /* \"#utility.yul\":7412:7437   */\n      swap3\n      pop\n        /* \"#utility.yul\":7460:7461   */\n      dup3\n        /* \"#utility.yul\":7457:7458   */\n      dup3\n        /* \"#utility.yul\":7453:7462   */\n      add\n        /* \"#utility.yul\":7446:7462   */\n      swap1\n      pop\n        /* \"#utility.yul\":7481:7484   */\n      dup1\n        /* \"#utility.yul\":7478:7479   */\n      dup3\n        /* \"#utility.yul\":7475:7485   */\n      gt\n        /* \"#utility.yul\":7472:7508   */\n      iszero\n      tag_188\n      jumpi\n        /* \"#utility.yul\":7488:7506   */\n      tag_189\n      tag_91\n      jump\t// in\n    tag_189:\n        /* \"#utility.yul\":7472:7508   */\n    tag_188:\n        /* \"#utility.yul\":7324:7515   */\n      swap3\n      swap2\n      pop\n      pop\n      jump\t// out\n        /* \"#utility.yul\":7521:7701   */\n    tag_37:\n        /* \"#utility.yul\":7569:7646   */\n      0x4e487b7100000000000000000000000000000000000000000000000000000000\n        /* \"#utility.yul\":7566:7567   */\n      0x00\n        /* \"#utility.yul\":7559:7647   */\n      mstore\n        /* \"#utility.yul\":7666:7670   */\n      0x41\n        /* \"#utility.yul\":7663:7664   */\n      0x04\n        /* \"#utility.yul\":7656:7671   */\n      mstore\n        /* \"#utility.yul\":7690:7694   */\n      0x24\n        /* \"#utility.yul\":7687:7688   */\n      0x00\n        /* \"#utility.yul\":7680:7695   */\n      revert\n        /* \"#utility.yul\":7707:7887   */\n    tag_45:\n        /* \"#utility.yul\":7755:7832   */\n      0x4e487b7100000000000000000000000000000000000000000000000000000000\n        /* \"#utility.yul\":7752:7753   */\n      0x00\n        /* \"#utility.yul\":7745:7833   */\n      mstore\n        /* \"#utility.yul\":7852:7856   */\n      0x32\n        /* \"#utility.yul\":7849:7850   */\n      0x04\n        /* \"#utility.yul\":7842:7857   */\n      mstore\n        /* \"#utility.yul\":7876:7880   */\n      0x24\n        /* \"#utility.yul\":7873:7874   */\n      0x00\n        /* \"#utility.yul\":7866:7881   */\n      revert\n        /* \"#utility.yul\":7893:8010   */\n    tag_92:\n        /* \"#utility.yul\":8002:8003   */\n      0x00\n        /* \"#utility.yul\":7999:8000   */\n      dup1\n        /* \"#utility.yul\":7992:8004   */\n      revert\n        /* \"#utility.yul\":8016:8133   */\n    tag_93:\n        /* \"#utility.yul\":8125:8126   */\n      0x00\n        /* \"#utility.yul\":8122:8123   */\n      dup1\n        /* \"#utility.yul\":8115:8127   */\n      revert\n        /* \"#utility.yul\":8139:8256   */\n    tag_94:\n        /* \"#utility.yul\":8248:8249   */\n      0x00\n        /* \"#utility.yul\":8245:8246   */\n      dup1\n        /* \"#utility.yul\":8238:8250   */\n      revert\n        /* \"#utility.yul\":8262:8986   */\n    tag_47:\n        /* \"#utility.yul\":8339:8343   */\n      0x00\n        /* \"#utility.yul\":8345:8351   */\n      dup1\n        /* \"#utility.yul\":8401:8412   */\n      dup4\n        /* \"#utility.yul\":8388:8413   */\n      calldataload\n        /* \"#utility.yul\":8501:8502   */\n      0x01\n        /* \"#utility.yul\":8495:8499   */\n      0x20\n        /* \"#utility.yul\":8491:8503   */\n      sub\n        /* \"#utility.yul\":8480:8488   */\n      dup5\n        /* \"#utility.yul\":8464:8478   */\n      calldatasize\n        /* \"#utility.yul\":8460:8489   */\n      sub\n        /* \"#utility.yul\":8456:8504   */\n      sub\n        /* \"#utility.yul\":8436:8454   */\n      dup2\n        /* \"#utility.yul\":8432:8505   */\n      slt\n        /* \"#utility.yul\":8422:8590   */\n      tag_196\n      jumpi\n        /* \"#utility.yul\":8509:8588   */\n      tag_197\n      tag_92\n      jump\t// in\n    tag_197:\n        /* \"#utility.yul\":8422:8590   */\n    tag_196:\n        /* \"#utility.yul\":8621:8639   */\n      dup1\n        /* \"#utility.yul\":8611:8619   */\n      dup5\n        /* \"#utility.yul\":8607:8640   */\n      add\n        /* \"#utility.yul\":8599:8640   */\n      swap3\n      pop\n        /* \"#utility.yul\":8673:8677   */\n      dup3\n        /* \"#utility.yul\":8660:8678   */\n      calldataload\n        /* \"#utility.yul\":8650:8678   */\n      swap2\n      pop\n        /* \"#utility.yul\":8701:8719   */\n      0xffffffffffffffff\n        /* \"#utility.yul\":8693:8699   */\n      dup3\n        /* \"#utility.yul\":8690:8720   */\n      gt\n        /* \"#utility.yul\":8687:8804   */\n      iszero\n      tag_198\n      jumpi\n        /* \"#utility.yul\":8723:8802   */\n      tag_199\n      tag_93\n      jump\t// in\n    tag_199:\n        /* \"#utility.yul\":8687:8804   */\n    tag_198:\n        /* \"#utility.yul\":8831:8833   */\n      0x20\n        /* \"#utility.yul\":8825:8829   */\n      dup4\n        /* \"#utility.yul\":8821:8834   */\n      add\n        /* \"#utility.yul\":8813:8834   */\n      swap3\n      pop\n        /* \"#utility.yul\":8888:8892   */\n      0x01\n        /* \"#utility.yul\":8880:8886   */\n      dup3\n        /* \"#utility.yul\":8876:8893   */\n      mul\n        /* \"#utility.yul\":8860:8874   */\n      calldatasize\n        /* \"#utility.yul\":8856:8894   */\n      sub\n        /* \"#utility.yul\":8850:8854   */\n      dup4\n        /* \"#utility.yul\":8846:8895   */\n      sgt\n        /* \"#utility.yul\":8843:8979   */\n      iszero\n      tag_200\n      jumpi\n        /* \"#utility.yul\":8898:8977   */\n      tag_201\n      tag_94\n      jump\t// in\n    tag_201:\n        /* \"#utility.yul\":8843:8979   */\n    tag_200:\n        /* \"#utility.yul\":8352:8986   */\n      pop\n        /* \"#utility.yul\":8262:8986   */\n      swap3\n      pop\n      swap3\n      swap1\n      pop\n      jump\t// out\n        /* \"#utility.yul\":8992:9139   */\n    tag_95:\n        /* \"#utility.yul\":9093:9104   */\n      0x00\n        /* \"#utility.yul\":9130:9133   */\n      dup2\n        /* \"#utility.yul\":9115:9133   */\n      swap1\n      pop\n        /* \"#utility.yul\":8992:9139   */\n      swap3\n      swap2\n      pop\n      pop\n      jump\t// out\n        /* \"#utility.yul\":9145:9291   */\n    tag_96:\n        /* \"#utility.yul\":9242:9248   */\n      dup3\n        /* \"#utility.yul\":9237:9240   */\n      dup2\n        /* \"#utility.yul\":9232:9235   */\n      dup4\n        /* \"#utility.yul\":9219:9249   */\n      calldatacopy\n        /* \"#utility.yul\":9283:9284   */\n      0x00\n        /* \"#utility.yul\":9274:9280   */\n      dup4\n        /* \"#utility.yul\":9269:9272   */\n      dup4\n        /* \"#utility.yul\":9265:9281   */\n      add\n        /* \"#utility.yul\":9258:9285   */\n      mstore\n        /* \"#utility.yul\":9145:9291   */\n      pop\n      pop\n      pop\n      jump\t// out\n        /* \"#utility.yul\":9319:9646   */\n    tag_97:\n        /* \"#utility.yul\":9433:9436   */\n      0x00\n        /* \"#utility.yul\":9454:9542   */\n      tag_205\n        /* \"#utility.yul\":9535:9541   */\n      dup4\n        /* \"#utility.yul\":9530:9533   */\n      dup6\n        /* \"#utility.yul\":9454:9542   */\n      tag_95\n      jump\t// in\n    tag_205:\n        /* \"#utility.yul\":9447:9542   */\n      swap4\n      pop\n        /* \"#utility.yul\":9552:9608   */\n      tag_206\n        /* \"#utility.yul\":9601:9607   */\n      dup4\n        /* \"#utility.yul\":9596:9599   */\n      dup6\n        /* \"#utility.yul\":9589:9594   */\n      dup5\n        /* \"#utility.yul\":9552:9608   */\n      tag_96\n      jump\t// in\n    tag_206:\n        /* \"#utility.yul\":9633:9639   */\n      dup3\n        /* \"#utility.yul\":9628:9631   */\n      dup5\n        /* \"#utility.yul\":9624:9640   */\n      add\n        /* \"#utility.yul\":9617:9640   */\n      swap1\n      pop\n        /* \"#utility.yul\":9319:9646   */\n      swap4\n      swap3\n      pop\n      pop\n      pop\n      jump\t// out\n        /* \"#utility.yul\":9652:9943   */\n    tag_49:\n        /* \"#utility.yul\":9792:9795   */\n      0x00\n        /* \"#utility.yul\":9814:9917   */\n      tag_208\n        /* \"#utility.yul\":9913:9916   */\n      dup3\n        /* \"#utility.yul\":9904:9910   */\n      dup5\n        /* \"#utility.yul\":9896:9902   */\n      dup7\n        /* \"#utility.yul\":9814:9917   */\n      tag_97\n      jump\t// in\n    tag_208:\n        /* \"#utility.yul\":9807:9917   */\n      swap2\n      pop\n        /* \"#utility.yul\":9934:9937   */\n      dup2\n        /* \"#utility.yul\":9927:9937   */\n      swap1\n      pop\n        /* \"#utility.yul\":9652:9943   */\n      swap4\n      swap3\n      pop\n      pop\n      pop\n      jump\t// out\n        /* \"#utility.yul\":9949:10182   */\n    tag_57:\n        /* \"#utility.yul\":9988:9991   */\n      0x00\n        /* \"#utility.yul\":10011:10035   */\n      tag_210\n        /* \"#utility.yul\":10029:10034   */\n      dup3\n        /* \"#utility.yul\":10011:10035   */\n      tag_87\n      jump\t// in\n    tag_210:\n        /* \"#utility.yul\":10002:10035   */\n      swap2\n      pop\n        /* \"#utility.yul\":10057:10123   */\n      0xffffffffffffffffffffffffffffffffffffffffffffffffffffffffffffffff\n        /* \"#utility.yul\":10050:10055   */\n      dup3\n        /* \"#utility.yul\":10047:10124   */\n      sub\n        /* \"#utility.yul\":10044:10147   */\n      tag_211\n      jumpi\n        /* \"#utility.yul\":10127:10145   */\n      tag_212\n      tag_91\n      jump\t// in\n    tag_212:\n        /* \"#utility.yul\":10044:10147   */\n    tag_211:\n        /* \"#utility.yul\":10174:10175   */\n      0x01\n        /* \"#utility.yul\":10167:10172   */\n      dup3\n        /* \"#utility.yul\":10163:10176   */\n      add\n        /* \"#utility.yul\":10156:10176   */\n      swap1\n      pop\n        /* \"#utility.yul\":9949:10182   */\n      swap2\n      swap1\n      pop\n      jump\t// out\n        /* \"#utility.yul\":10188:10306   */\n    tag_98:\n        /* \"#utility.yul\":10275:10299   */\n      tag_214\n        /* \"#utility.yul\":10293:10298   */\n      dup2\n        /* \"#utility.yul\":10275:10299   */\n      tag_84\n      jump\t// in\n    tag_214:\n        /* \"#utility.yul\":10270:10273   */\n      dup3\n        /* \"#utility.yul\":10263:10300   */\n      mstore\n        /* \"#utility.yul\":10188:10306   */\n      pop\n      pop\n      jump\t// out\n        /* \"#utility.yul\":10312:10481   */\n    tag_99:\n        /* \"#utility.yul\":10396:10407   */\n      0x00\n        /* \"#utility.yul\":10430:10436   */\n      dup3\n        /* \"#utility.yul\":10425:10428   */\n      dup3\n        /* \"#utility.yul\":10418:10437   */\n      mstore\n        /* \"#utility.yul\":10470:10474   */\n      0x20\n        /* \"#utility.yul\":10465:10468   */\n      dup3\n        /* \"#utility.yul\":10461:10475   */\n      add\n        /* \"#utility.yul\":10446:10475   */\n      swap1\n      pop\n        /* \"#utility.yul\":10312:10481   */\n      swap3\n      swap2\n      pop\n      pop\n      jump\t// out\n        /* \"#utility.yul\":10487:10639   */\n    tag_100:\n        /* \"#utility.yul\":10627:10631   */\n      0x6631000000000000000000000000000000000000000000000000000000000000\n        /* \"#utility.yul\":10623:10624   */\n      0x00\n        /* \"#utility.yul\":10615:10621   */\n      dup3\n        /* \"#utility.yul\":10611:10625   */\n      add\n        /* \"#utility.yul\":10604:10632   */\n      mstore\n        /* \"#utility.yul\":10487:10639   */\n      pop\n      jump\t// out\n        /* \"#utility.yul\":10645:11010   */\n    tag_101:\n        /* \"#utility.yul\":10787:10790   */\n      0x00\n        /* \"#utility.yul\":10808:10874   */\n      tag_218\n        /* \"#utility.yul\":10872:10873   */\n      0x02\n        /* \"#utility.yul\":10867:10870   */\n      dup4\n        /* \"#utility.yul\":10808:10874   */\n      tag_99\n      jump\t// in\n    tag_218:\n        /* \"#utility.yul\":10801:10874   */\n      swap2\n      pop\n        /* \"#utility.yul\":10883:10976   */\n      tag_219\n        /* \"#utility.yul\":10972:10975   */\n      dup3\n        /* \"#utility.yul\":10883:10976   */\n      tag_100\n      jump\t// in\n    tag_219:\n        /* \"#utility.yul\":11001:11003   */\n      0x20\n        /* \"#utility.yul\":10996:10999   */\n      dup3\n        /* \"#utility.yul\":10992:11004   */\n      add\n        /* \"#utility.yul\":10985:11004   */\n      swap1\n      pop\n        /* \"#utility.yul\":10645:11010   */\n      swap2\n      swap1\n      pop\n      jump\t// out\n        /* \"#utility.yul\":11016:11655   */\n    tag_61:\n        /* \"#utility.yul\":11238:11242   */\n      0x00\n        /* \"#utility.yul\":11276:11278   */\n      0x60\n        /* \"#utility.yul\":11265:11274   */\n      dup3\n        /* \"#utility.yul\":11261:11279   */\n      add\n        /* \"#utility.yul\":11253:11279   */\n      swap1\n      pop\n        /* \"#utility.yul\":11289:11360   */\n      tag_221\n        /* \"#utility.yul\":11357:11358   */\n      0x00\n        /* \"#utility.yul\":11346:11355   */\n      dup4\n        /* \"#utility.yul\":11342:11359   */\n      add\n        /* \"#utility.yul\":11333:11339   */\n      dup6\n        /* \"#utility.yul\":11289:11360   */\n      tag_98\n      jump\t// in\n    tag_221:\n        /* \"#utility.yul\":11407:11416   */\n      dup2\n        /* \"#utility.yul\":11401:11405   */\n      dup2\n        /* \"#utility.yul\":11397:11417   */\n      sub\n        /* \"#utility.yul\":11392:11394   */\n      0x20\n        /* \"#utility.yul\":11381:11390   */\n      dup4\n        /* \"#utility.yul\":11377:11395   */\n      add\n        /* \"#utility.yul\":11370:11418   */\n      mstore\n        /* \"#utility.yul\":11435:11566   */\n      tag_222\n        /* \"#utility.yul\":11561:11565   */\n      dup2\n        /* \"#utility.yul\":11435:11566   */\n      tag_101\n      jump\t// in\n    tag_222:\n        /* \"#utility.yul\":11427:11566   */\n      swap1\n      pop\n        /* \"#utility.yul\":11576:11648   */\n      tag_223\n        /* \"#utility.yul\":11644:11646   */\n      0x40\n        /* \"#utility.yul\":11633:11642   */\n      dup4\n        /* \"#utility.yul\":11629:11647   */\n      add\n        /* \"#utility.yul\":11620:11626   */\n      dup5\n        /* \"#utility.yul\":11576:11648   */\n      tag_88\n      jump\t// in\n    tag_223:\n        /* \"#utility.yul\":11016:11655   */\n      swap4\n      swap3\n      pop\n      pop\n      pop\n      jump\t// out\n        /* \"#utility.yul\":11661:11813   */\n    tag_102:\n        /* \"#utility.yul\":11801:11805   */\n      0x6632000000000000000000000000000000000000000000000000000000000000\n        /* \"#utility.yul\":11797:11798   */\n      0x00\n        /* \"#utility.yul\":11789:11795   */\n      dup3\n        /* \"#utility.yul\":11785:11799   */\n      add\n        /* \"#utility.yul\":11778:11806   */\n      mstore\n        /* \"#utility.yul\":11661:11813   */\n      pop\n      jump\t// out\n        /* \"#utility.yul\":11819:12184   */\n    tag_103:\n        /* \"#utility.yul\":11961:11964   */\n      0x00\n        /* \"#utility.yul\":11982:12048   */\n      tag_226\n        /* \"#utility.yul\":12046:12047   */\n      0x02\n        /* \"#utility.yul\":12041:12044   */\n      dup4\n        /* \"#utility.yul\":11982:12048   */\n      tag_99\n      jump\t// in\n    tag_226:\n        /* \"#utility.yul\":11975:12048   */\n      swap2\n      pop\n        /* \"#utility.yul\":12057:12150   */\n      tag_227\n        /* \"#utility.yul\":12146:12149   */\n      dup3\n        /* \"#utility.yul\":12057:12150   */\n      tag_102\n      jump\t// in\n    tag_227:\n        /* \"#utility.yul\":12175:12177   */\n      0x20\n        /* \"#utility.yul\":12170:12173   */\n      dup3\n        /* \"#utility.yul\":12166:12178   */\n      add\n        /* \"#utility.yul\":12159:12178   */\n      swap1\n      pop\n        /* \"#utility.yul\":11819:12184   */\n      swap2\n      swap1\n      pop\n      jump\t// out\n        /* \"#utility.yul\":12190:12275   */\n    tag_104:\n        /* \"#utility.yul\":12235:12242   */\n      0x00\n        /* \"#utility.yul\":12264:12269   */\n      dup2\n        /* \"#utility.yul\":12253:12269   */\n      swap1\n      pop\n        /* \"#utility.yul\":12190:12275   */\n      swap2\n      swap1\n      pop\n      jump\t// out\n        /* \"#utility.yul\":12281:12341   */\n    tag_105:\n        /* \"#utility.yul\":12309:12312   */\n      0x00\n        /* \"#utility.yul\":12330:12335   */\n      dup2\n        /* \"#utility.yul\":12323:12335   */\n      swap1\n      pop\n        /* \"#utility.yul\":12281:12341   */\n      swap2\n      swap1\n      pop\n      jump\t// out\n        /* \"#utility.yul\":12347:12505   */\n    tag_106:\n        /* \"#utility.yul\":12405:12414   */\n      0x00\n        /* \"#utility.yul\":12438:12499   */\n      tag_231\n        /* \"#utility.yul\":12456:12498   */\n      tag_232\n        /* \"#utility.yul\":12465:12497   */\n      tag_233\n        /* \"#utility.yul\":12491:12496   */\n      dup5\n        /* \"#utility.yul\":12465:12497   */\n      tag_104\n      jump\t// in\n    tag_233:\n        /* \"#utility.yul\":12456:12498   */\n      tag_105\n      jump\t// in\n    tag_232:\n        /* \"#utility.yul\":12438:12499   */\n      tag_87\n      jump\t// in\n    tag_231:\n        /* \"#utility.yul\":12425:12499   */\n      swap1\n      pop\n        /* \"#utility.yul\":12347:12505   */\n      swap2\n      swap1\n      pop\n      jump\t// out\n        /* \"#utility.yul\":12511:12658   */\n    tag_107:\n        /* \"#utility.yul\":12606:12651   */\n      tag_235\n        /* \"#utility.yul\":12645:12650   */\n      dup2\n        /* \"#utility.yul\":12606:12651   */\n      tag_106\n      jump\t// in\n    tag_235:\n        /* \"#utility.yul\":12601:12604   */\n      dup3\n        /* \"#utility.yul\":12594:12652   */\n      mstore\n        /* \"#utility.yul\":12511:12658   */\n      pop\n      pop\n      jump\t// out\n        /* \"#utility.yul\":12664:13319   */\n    tag_64:\n        /* \"#utility.yul\":12894:12898   */\n      0x00\n        /* \"#utility.yul\":12932:12934   */\n      0x60\n        /* \"#utility.yul\":12921:12930   */\n      dup3\n        /* \"#utility.yul\":12917:12935   */\n      add\n        /* \"#utility.yul\":12909:12935   */\n      swap1\n      pop\n        /* \"#utility.yul\":12945:13016   */\n      tag_237\n        /* \"#utility.yul\":13013:13014   */\n      0x00\n        /* \"#utility.yul\":13002:13011   */\n      dup4\n        /* \"#utility.yul\":12998:13015   */\n      add\n        /* \"#utility.yul\":12989:12995   */\n      dup6\n        /* \"#utility.yul\":12945:13016   */\n      tag_98\n      jump\t// in\n    tag_237:\n        /* \"#utility.yul\":13063:13072   */\n      dup2\n        /* \"#utility.yul\":13057:13061   */\n      dup2\n        /* \"#utility.yul\":13053:13073   */\n      sub\n        /* \"#utility.yul\":13048:13050   */\n      0x20\n        /* \"#utility.yul\":13037:13046   */\n      dup4\n        /* \"#utility.yul\":13033:13051   */\n      add\n        /* \"#utility.yul\":13026:13074   */\n      mstore\n        /* \"#utility.yul\":13091:13222   */\n      tag_238\n        /* \"#utility.yul\":13217:13221   */\n      dup2\n        /* \"#utility.yul\":13091:13222   */\n      tag_103\n      jump\t// in\n    tag_238:\n        /* \"#utility.yul\":13083:13222   */\n      swap1\n      pop\n        /* \"#utility.yul\":13232:13312   */\n      tag_239\n        /* \"#utility.yul\":13308:13310   */\n      0x40\n        /* \"#utility.yul\":13297:13306   */\n      dup4\n        /* \"#utility.yul\":13293:13311   */\n      add\n        /* \"#utility.yul\":13284:13290   */\n      dup5\n        /* \"#utility.yul\":13232:13312   */\n      tag_107\n      jump\t// in\n    tag_239:\n        /* \"#utility.yul\":12664:13319   */\n      swap4\n      swap3\n      pop\n      pop\n      pop\n      jump\t// out\n\n    auxdata: 0xa26469706673582212201e4580461da37eae9f6b3f9e37798c59afd959d9e0e176c688b4a7968ea5104664736f6c63430008120033\n}\n",
				"bytecode": {
					"linkReferences": {},
					"object": "608060405234801561001057600080fd5b50610a54806100206000396000f3fe60806040526004361061004a5760003560e01c80631249c58b1461004f578063382307201461005957806370a08231146100895780637cb1442c146100c65780639942ec6f146100ef575b600080fd5b61005761011a565b005b610073600480360381019061006e91906103ea565b610171565b6040516100809190610589565b60405180910390f35b34801561009557600080fd5b506100b060048036038101906100ab9190610609565b6102d8565b6040516100bd919061064f565b60405180910390f35b3480156100d257600080fd5b506100ed60048036038101906100e89190610696565b6102f0565b005b3480156100fb57600080fd5b50610104610338565b604051610111919061064f565b60405180910390f35b346000803373ffffffffffffffffffffffffffffffffffffffff1673ffffffffffffffffffffffffffffffffffffffff16815260200190815260200160002060008282546101689190610705565b92505081905550565b60608282905067ffffffffffffffff8111156101905761018f610739565b5b6040519080825280602002602001820160405280156101c357816020015b60608152602001906001900390816101ae5790505b50905060005b838390508110156102d1576000803073ffffffffffffffffffffffffffffffffffffffff1686868581811061020157610200610768565b5b905060200281019061021391906107a6565b604051610221929190610848565b600060405180830381855af49150503d806000811461025c576040519150601f19603f3d011682016040523d82523d6000602084013e610261565b606091505b50915091508161029d576040517ff5544fd400000000000000000000000000000000000000000000000000000000815260040160405180910390fd5b808484815181106102b1576102b0610768565b5b6020026020010181905250505080806102c990610861565b9150506101c9565b5092915050565b60006020528060005260406000206000915090505481565b7ffd33e90d0eac940755277aa91045b95664988beeeafc4ed7d1281a6d83afbc0033828461031e9190610705565b60405161032c929190610915565b60405180910390a15050565b60007ffd33e90d0eac940755277aa91045b95664988beeeafc4ed7d1281a6d83afbc0033600260405161036c9291906109e2565b60405180910390a1606f905090565b600080fd5b600080fd5b600080fd5b600080fd5b600080fd5b60008083601f8401126103aa576103a9610385565b5b8235905067ffffffffffffffff8111156103c7576103c661038a565b5b6020830191508360208202830111156103e3576103e261038f565b5b9250929050565b600080602083850312156104015761040061037b565b5b600083013567ffffffffffffffff81111561041f5761041e610380565b5b61042b85828601610394565b92509250509250929050565b600081519050919050565b600082825260208201905092915050565b6000819050602082019050919050565b600081519050919050565b600082825260208201905092915050565b60005b8381101561049d578082015181840152602081019050610482565b60008484015250505050565b6000601f19601f8301169050919050565b60006104c582610463565b6104cf818561046e565b93506104df81856020860161047f565b6104e8816104a9565b840191505092915050565b60006104ff83836104ba565b905092915050565b6000602082019050919050565b600061051f82610437565b6105298185610442565b93508360208202850161053b85610453565b8060005b85811015610577578484038952815161055885826104f3565b945061056383610507565b925060208a0199505060018101905061053f565b50829750879550505050505092915050565b600060208201905081810360008301526105a38184610514565b905092915050565b600073ffffffffffffffffffffffffffffffffffffffff82169050919050565b60006105d6826105ab565b9050919050565b6105e6816105cb565b81146105f157600080fd5b50565b600081359050610603816105dd565b92915050565b60006020828403121561061f5761061e61037b565b5b600061062d848285016105f4565b91505092915050565b6000819050919050565b61064981610636565b82525050565b60006020820190506106646000830184610640565b92915050565b61067381610636565b811461067e57600080fd5b50565b6000813590506106908161066a565b92915050565b600080604083850312156106ad576106ac61037b565b5b60006106bb85828601610681565b92505060206106cc85828601610681565b9150509250929050565b7f4e487b7100000000000000000000000000000000000000000000000000000000600052601160045260246000fd5b600061071082610636565b915061071b83610636565b9250828201905080821115610733576107326106d6565b5b92915050565b7f4e487b7100000000000000000000000000000000000000000000000000000000600052604160045260246000fd5b7f4e487b7100000000000000000000000000000000000000000000000000000000600052603260045260246000fd5b600080fd5b600080fd5b600080fd5b600080833560016020038436030381126107c3576107c2610797565b5b80840192508235915067ffffffffffffffff8211156107e5576107e461079c565b5b602083019250600182023603831315610801576108006107a1565b5b509250929050565b600081905092915050565b82818337600083830152505050565b600061082f8385610809565b935061083c838584610814565b82840190509392505050565b6000610855828486610823565b91508190509392505050565b600061086c82610636565b91507fffffffffffffffffffffffffffffffffffffffffffffffffffffffffffffffff820361089e5761089d6106d6565b5b600182019050919050565b6108b2816105cb565b82525050565b600082825260208201905092915050565b7f6631000000000000000000000000000000000000000000000000000000000000600082015250565b60006108ff6002836108b8565b915061090a826108c9565b602082019050919050565b600060608201905061092a60008301856108a9565b818103602083015261093b816108f2565b905061094a6040830184610640565b9392505050565b7f6632000000000000000000000000000000000000000000000000000000000000600082015250565b60006109876002836108b8565b915061099282610951565b602082019050919050565b6000819050919050565b6000819050919050565b60006109cc6109c76109c28461099d565b6109a7565b610636565b9050919050565b6109dc816109b1565b82525050565b60006060820190506109f760008301856108a9565b8181036020830152610a088161097a565b9050610a1760408301846109d3565b939250505056fea26469706673582212201e4580461da37eae9f6b3f9e37798c59afd959d9e0e176c688b4a7968ea5104664736f6c63430008120033",
					"opcodes": "PUSH1 0x80 PUSH1 0x40 MSTORE CALLVALUE DUP1 ISZERO PUSH2 0x10 JUMPI PUSH1 0x0 DUP1 REVERT JUMPDEST POP PUSH2 0xA54 DUP1 PUSH2 0x20 PUSH1 0x0 CODECOPY PUSH1 0x0 RETURN INVALID PUSH1 0x80 PUSH1 0x40 MSTORE PUSH1 0x4 CALLDATASIZE LT PUSH2 0x4A JUMPI PUSH1 0x0 CALLDATALOAD PUSH1 0xE0 SHR DUP1 PUSH4 0x1249C58B EQ PUSH2 0x4F JUMPI DUP1 PUSH4 0x38230720 EQ PUSH2 0x59 JUMPI DUP1 PUSH4 0x70A08231 EQ PUSH2 0x89 JUMPI DUP1 PUSH4 0x7CB1442C EQ PUSH2 0xC6 JUMPI DUP1 PUSH4 0x9942EC6F EQ PUSH2 0xEF JUMPI JUMPDEST PUSH1 0x0 DUP1 REVERT JUMPDEST PUSH2 0x57 PUSH2 0x11A JUMP JUMPDEST STOP JUMPDEST PUSH2 0x73 PUSH1 0x4 DUP1 CALLDATASIZE SUB DUP2 ADD SWAP1 PUSH2 0x6E SWAP2 SWAP1 PUSH2 0x3EA JUMP JUMPDEST PUSH2 0x171 JUMP JUMPDEST PUSH1 0x40 MLOAD PUSH2 0x80 SWAP2 SWAP1 PUSH2 0x589 JUMP JUMPDEST PUSH1 0x40 MLOAD DUP1 SWAP2 SUB SWAP1 RETURN JUMPDEST CALLVALUE DUP1 ISZERO PUSH2 0x95 JUMPI PUSH1 0x0 DUP1 REVERT JUMPDEST POP PUSH2 0xB0 PUSH1 0x4 DUP1 CALLDATASIZE SUB DUP2 ADD SWAP1 PUSH2 0xAB SWAP2 SWAP1 PUSH2 0x609 JUMP JUMPDEST PUSH2 0x2D8 JUMP JUMPDEST PUSH1 0x40 MLOAD PUSH2 0xBD SWAP2 SWAP1 PUSH2 0x64F JUMP JUMPDEST PUSH1 0x40 MLOAD DUP1 SWAP2 SUB SWAP1 RETURN JUMPDEST CALLVALUE DUP1 ISZERO PUSH2 0xD2 JUMPI PUSH1 0x0 DUP1 REVERT JUMPDEST POP PUSH2 0xED PUSH1 0x4 DUP1 CALLDATASIZE SUB DUP2 ADD SWAP1 PUSH2 0xE8 SWAP2 SWAP1 PUSH2 0x696 JUMP JUMPDEST PUSH2 0x2F0 JUMP JUMPDEST STOP JUMPDEST CALLVALUE DUP1 ISZERO PUSH2 0xFB JUMPI PUSH1 0x0 DUP1 REVERT JUMPDEST POP PUSH2 0x104 PUSH2 0x338 JUMP JUMPDEST PUSH1 0x40 MLOAD PUSH2 0x111 SWAP2 SWAP1 PUSH2 0x64F JUMP JUMPDEST PUSH1 0x40 MLOAD DUP1 SWAP2 SUB SWAP1 RETURN JUMPDEST CALLVALUE PUSH1 0x0 DUP1 CALLER PUSH20 0xFFFFFFFFFFFFFFFFFFFFFFFFFFFFFFFFFFFFFFFF AND PUSH20 0xFFFFFFFFFFFFFFFFFFFFFFFFFFFFFFFFFFFFFFFF AND DUP2 MSTORE PUSH1 0x20 ADD SWAP1 DUP2 MSTORE PUSH1 0x20 ADD PUSH1 0x0 KECCAK256 PUSH1 0x0 DUP3 DUP3 SLOAD PUSH2 0x168 SWAP2 SWAP1 PUSH2 0x705 JUMP JUMPDEST SWAP3 POP POP DUP2 SWAP1 SSTORE POP JUMP JUMPDEST PUSH1 0x60 DUP3 DUP3 SWAP1 POP PUSH8 0xFFFFFFFFFFFFFFFF DUP2 GT ISZERO PUSH2 0x190 JUMPI PUSH2 0x18F PUSH2 0x739 JUMP JUMPDEST JUMPDEST PUSH1 0x40 MLOAD SWAP1 DUP1 DUP3 MSTORE DUP1 PUSH1 0x20 MUL PUSH1 0x20 ADD DUP3 ADD PUSH1 0x40 MSTORE DUP1 ISZERO PUSH2 0x1C3 JUMPI DUP2 PUSH1 0x20 ADD JUMPDEST PUSH1 0x60 DUP2 MSTORE PUSH1 0x20 ADD SWAP1 PUSH1 0x1 SWAP1 SUB SWAP1 DUP2 PUSH2 0x1AE JUMPI SWAP1 POP JUMPDEST POP SWAP1 POP PUSH1 0x0 JUMPDEST DUP4 DUP4 SWAP1 POP DUP2 LT ISZERO PUSH2 0x2D1 JUMPI PUSH1 0x0 DUP1 ADDRESS PUSH20 0xFFFFFFFFFFFFFFFFFFFFFFFFFFFFFFFFFFFFFFFF AND DUP7 DUP7 DUP6 DUP2 DUP2 LT PUSH2 0x201 JUMPI PUSH2 0x200 PUSH2 0x768 JUMP JUMPDEST JUMPDEST SWAP1 POP PUSH1 0x20 MUL DUP2 ADD SWAP1 PUSH2 0x213 SWAP2 SWAP1 PUSH2 0x7A6 JUMP JUMPDEST PUSH1 0x40 MLOAD PUSH2 0x221 SWAP3 SWAP2 SWAP1 PUSH2 0x848 JUMP JUMPDEST PUSH1 0x0 PUSH1 0x40 MLOAD DUP1 DUP4 SUB DUP2 DUP6 GAS DELEGATECALL SWAP2 POP POP RETURNDATASIZE DUP1 PUSH1 0x0 DUP2 EQ PUSH2 0x25C JUMPI PUSH1 0x40 MLOAD SWAP2 POP PUSH1 0x1F NOT PUSH1 0x3F RETURNDATASIZE ADD AND DUP3 ADD PUSH1 0x40 MSTORE RETURNDATASIZE DUP3 MSTORE RETURNDATASIZE PUSH1 0x0 PUSH1 0x20 DUP5 ADD RETURNDATACOPY PUSH2 0x261 JUMP JUMPDEST PUSH1 0x60 SWAP2 POP JUMPDEST POP SWAP2 POP SWAP2 POP DUP2 PUSH2 0x29D JUMPI PUSH1 0x40 MLOAD PUSH32 0xF5544FD400000000000000000000000000000000000000000000000000000000 DUP2 MSTORE PUSH1 0x4 ADD PUSH1 0x40 MLOAD DUP1 SWAP2 SUB SWAP1 REVERT JUMPDEST DUP1 DUP5 DUP5 DUP2 MLOAD DUP2 LT PUSH2 0x2B1 JUMPI PUSH2 0x2B0 PUSH2 0x768 JUMP JUMPDEST JUMPDEST PUSH1 0x20 MUL PUSH1 0x20 ADD ADD DUP2 SWAP1 MSTORE POP POP POP DUP1 DUP1 PUSH2 0x2C9 SWAP1 PUSH2 0x861 JUMP JUMPDEST SWAP2 POP POP PUSH2 0x1C9 JUMP JUMPDEST POP SWAP3 SWAP2 POP POP JUMP JUMPDEST PUSH1 0x0 PUSH1 0x20 MSTORE DUP1 PUSH1 0x0 MSTORE PUSH1 0x40 PUSH1 0x0 KECCAK256 PUSH1 0x0 SWAP2 POP SWAP1 POP SLOAD DUP2 JUMP JUMPDEST PUSH32 0xFD33E90D0EAC940755277AA91045B95664988BEEEAFC4ED7D1281A6D83AFBC00 CALLER DUP3 DUP5 PUSH2 0x31E SWAP2 SWAP1 PUSH2 0x705 JUMP JUMPDEST PUSH1 0x40 MLOAD PUSH2 0x32C SWAP3 SWAP2 SWAP1 PUSH2 0x915 JUMP JUMPDEST PUSH1 0x40 MLOAD DUP1 SWAP2 SUB SWAP1 LOG1 POP POP JUMP JUMPDEST PUSH1 0x0 PUSH32 0xFD33E90D0EAC940755277AA91045B95664988BEEEAFC4ED7D1281A6D83AFBC00 CALLER PUSH1 0x2 PUSH1 0x40 MLOAD PUSH2 0x36C SWAP3 SWAP2 SWAP1 PUSH2 0x9E2 JUMP JUMPDEST PUSH1 0x40 MLOAD DUP1 SWAP2 SUB SWAP1 LOG1 PUSH1 0x6F SWAP1 POP SWAP1 JUMP JUMPDEST PUSH1 0x0 DUP1 REVERT JUMPDEST PUSH1 0x0 DUP1 REVERT JUMPDEST PUSH1 0x0 DUP1 REVERT JUMPDEST PUSH1 0x0 DUP1 REVERT JUMPDEST PUSH1 0x0 DUP1 REVERT JUMPDEST PUSH1 0x0 DUP1 DUP4 PUSH1 0x1F DUP5 ADD SLT PUSH2 0x3AA JUMPI PUSH2 0x3A9 PUSH2 0x385 JUMP JUMPDEST JUMPDEST DUP3 CALLDATALOAD SWAP1 POP PUSH8 0xFFFFFFFFFFFFFFFF DUP2 GT ISZERO PUSH2 0x3C7 JUMPI PUSH2 0x3C6 PUSH2 0x38A JUMP JUMPDEST JUMPDEST PUSH1 0x20 DUP4 ADD SWAP2 POP DUP4 PUSH1 0x20 DUP3 MUL DUP4 ADD GT ISZERO PUSH2 0x3E3 JUMPI PUSH2 0x3E2 PUSH2 0x38F JUMP JUMPDEST JUMPDEST SWAP3 POP SWAP3 SWAP1 POP JUMP JUMPDEST PUSH1 0x0 DUP1 PUSH1 0x20 DUP4 DUP6 SUB SLT ISZERO PUSH2 0x401 JUMPI PUSH2 0x400 PUSH2 0x37B JUMP JUMPDEST JUMPDEST PUSH1 0x0 DUP4 ADD CALLDATALOAD PUSH8 0xFFFFFFFFFFFFFFFF DUP2 GT ISZERO PUSH2 0x41F JUMPI PUSH2 0x41E PUSH2 0x380 JUMP JUMPDEST JUMPDEST PUSH2 0x42B DUP6 DUP3 DUP7 ADD PUSH2 0x394 JUMP JUMPDEST SWAP3 POP SWAP3 POP POP SWAP3 POP SWAP3 SWAP1 POP JUMP JUMPDEST PUSH1 0x0 DUP2 MLOAD SWAP1 POP SWAP2 SWAP1 POP JUMP JUMPDEST PUSH1 0x0 DUP3 DUP3 MSTORE PUSH1 0x20 DUP3 ADD SWAP1 POP SWAP3 SWAP2 POP POP JUMP JUMPDEST PUSH1 0x0 DUP2 SWAP1 POP PUSH1 0x20 DUP3 ADD SWAP1 POP SWAP2 SWAP1 POP JUMP JUMPDEST PUSH1 0x0 DUP2 MLOAD SWAP1 POP SWAP2 SWAP1 POP JUMP JUMPDEST PUSH1 0x0 DUP3 DUP3 MSTORE PUSH1 0x20 DUP3 ADD SWAP1 POP SWAP3 SWAP2 POP POP JUMP JUMPDEST PUSH1 0x0 JUMPDEST DUP4 DUP2 LT ISZERO PUSH2 0x49D JUMPI DUP1 DUP3 ADD MLOAD DUP2 DUP5 ADD MSTORE PUSH1 0x20 DUP2 ADD SWAP1 POP PUSH2 0x482 JUMP JUMPDEST PUSH1 0x0 DUP5 DUP5 ADD MSTORE POP POP POP POP JUMP JUMPDEST PUSH1 0x0 PUSH1 0x1F NOT PUSH1 0x1F DUP4 ADD AND SWAP1 POP SWAP2 SWAP1 POP JUMP JUMPDEST PUSH1 0x0 PUSH2 0x4C5 DUP3 PUSH2 0x463 JUMP JUMPDEST PUSH2 0x4CF DUP2 DUP6 PUSH2 0x46E JUMP JUMPDEST SWAP4 POP PUSH2 0x4DF DUP2 DUP6 PUSH1 0x20 DUP7 ADD PUSH2 0x47F JUMP JUMPDEST PUSH2 0x4E8 DUP2 PUSH2 0x4A9 JUMP JUMPDEST DUP5 ADD SWAP2 POP POP SWAP3 SWAP2 POP POP JUMP JUMPDEST PUSH1 0x0 PUSH2 0x4FF DUP4 DUP4 PUSH2 0x4BA JUMP JUMPDEST SWAP1 POP SWAP3 SWAP2 POP POP JUMP JUMPDEST PUSH1 0x0 PUSH1 0x20 DUP3 ADD SWAP1 POP SWAP2 SWAP1 POP JUMP JUMPDEST PUSH1 0x0 PUSH2 0x51F DUP3 PUSH2 0x437 JUMP JUMPDEST PUSH2 0x529 DUP2 DUP6 PUSH2 0x442 JUMP JUMPDEST SWAP4 POP DUP4 PUSH1 0x20 DUP3 MUL DUP6 ADD PUSH2 0x53B DUP6 PUSH2 0x453 JUMP JUMPDEST DUP1 PUSH1 0x0 JUMPDEST DUP6 DUP2 LT ISZERO PUSH2 0x577 JUMPI DUP5 DUP5 SUB DUP10 MSTORE DUP2 MLOAD PUSH2 0x558 DUP6 DUP3 PUSH2 0x4F3 JUMP JUMPDEST SWAP5 POP PUSH2 0x563 DUP4 PUSH2 0x507 JUMP JUMPDEST SWAP3 POP PUSH1 0x20 DUP11 ADD SWAP10 POP POP PUSH1 0x1 DUP2 ADD SWAP1 POP PUSH2 0x53F JUMP JUMPDEST POP DUP3 SWAP8 POP DUP8 SWAP6 POP POP POP POP POP POP SWAP3 SWAP2 POP POP JUMP JUMPDEST PUSH1 0x0 PUSH1 0x20 DUP3 ADD SWAP1 POP DUP2 DUP2 SUB PUSH1 0x0 DUP4 ADD MSTORE PUSH2 0x5A3 DUP2 DUP5 PUSH2 0x514 JUMP JUMPDEST SWAP1 POP SWAP3 SWAP2 POP POP JUMP JUMPDEST PUSH1 0x0 PUSH20 0xFFFFFFFFFFFFFFFFFFFFFFFFFFFFFFFFFFFFFFFF DUP3 AND SWAP1 POP SWAP2 SWAP1 POP JUMP JUMPDEST PUSH1 0x0 PUSH2 0x5D6 DUP3 PUSH2 0x5AB JUMP JUMPDEST SWAP1 POP SWAP2 SWAP1 POP JUMP JUMPDEST PUSH2 0x5E6 DUP2 PUSH2 0x5CB JUMP JUMPDEST DUP2 EQ PUSH2 0x5F1 JUMPI PUSH1 0x0 DUP1 REVERT JUMPDEST POP JUMP JUMPDEST PUSH1 0x0 DUP2 CALLDATALOAD SWAP1 POP PUSH2 0x603 DUP2 PUSH2 0x5DD JUMP JUMPDEST SWAP3 SWAP2 POP POP JUMP JUMPDEST PUSH1 0x0 PUSH1 0x20 DUP3 DUP5 SUB SLT ISZERO PUSH2 0x61F JUMPI PUSH2 0x61E PUSH2 0x37B JUMP JUMPDEST JUMPDEST PUSH1 0x0 PUSH2 0x62D DUP5 DUP3 DUP6 ADD PUSH2 0x5F4 JUMP JUMPDEST SWAP2 POP POP SWAP3 SWAP2 POP POP JUMP JUMPDEST PUSH1 0x0 DUP2 SWAP1 POP SWAP2 SWAP1 POP JUMP JUMPDEST PUSH2 0x649 DUP2 PUSH2 0x636 JUMP JUMPDEST DUP3 MSTORE POP POP JUMP JUMPDEST PUSH1 0x0 PUSH1 0x20 DUP3 ADD SWAP1 POP PUSH2 0x664 PUSH1 0x0 DUP4 ADD DUP5 PUSH2 0x640 JUMP JUMPDEST SWAP3 SWAP2 POP POP JUMP JUMPDEST PUSH2 0x673 DUP2 PUSH2 0x636 JUMP JUMPDEST DUP2 EQ PUSH2 0x67E JUMPI PUSH1 0x0 DUP1 REVERT JUMPDEST POP JUMP JUMPDEST PUSH1 0x0 DUP2 CALLDATALOAD SWAP1 POP PUSH2 0x690 DUP2 PUSH2 0x66A JUMP JUMPDEST SWAP3 SWAP2 POP POP JUMP JUMPDEST PUSH1 0x0 DUP1 PUSH1 0x40 DUP4 DUP6 SUB SLT ISZERO PUSH2 0x6AD JUMPI PUSH2 0x6AC PUSH2 0x37B JUMP JUMPDEST JUMPDEST PUSH1 0x0 PUSH2 0x6BB DUP6 DUP3 DUP7 ADD PUSH2 0x681 JUMP JUMPDEST SWAP3 POP POP PUSH1 0x20 PUSH2 0x6CC DUP6 DUP3 DUP7 ADD PUSH2 0x681 JUMP JUMPDEST SWAP2 POP POP SWAP3 POP SWAP3 SWAP1 POP JUMP JUMPDEST PUSH32 0x4E487B7100000000000000000000000000000000000000000000000000000000 PUSH1 0x0 MSTORE PUSH1 0x11 PUSH1 0x4 MSTORE PUSH1 0x24 PUSH1 0x0 REVERT JUMPDEST PUSH1 0x0 PUSH2 0x710 DUP3 PUSH2 0x636 JUMP JUMPDEST SWAP2 POP PUSH2 0x71B DUP4 PUSH2 0x636 JUMP JUMPDEST SWAP3 POP DUP3 DUP3 ADD SWAP1 POP DUP1 DUP3 GT ISZERO PUSH2 0x733 JUMPI PUSH2 0x732 PUSH2 0x6D6 JUMP JUMPDEST JUMPDEST SWAP3 SWAP2 POP POP JUMP JUMPDEST PUSH32 0x4E487B7100000000000000000000000000000000000000000000000000000000 PUSH1 0x0 MSTORE PUSH1 0x41 PUSH1 0x4 MSTORE PUSH1 0x24 PUSH1 0x0 REVERT JUMPDEST PUSH32 0x4E487B7100000000000000000000000000000000000000000000000000000000 PUSH1 0x0 MSTORE PUSH1 0x32 PUSH1 0x4 MSTORE PUSH1 0x24 PUSH1 0x0 REVERT JUMPDEST PUSH1 0x0 DUP1 REVERT JUMPDEST PUSH1 0x0 DUP1 REVERT JUMPDEST PUSH1 0x0 DUP1 REVERT JUMPDEST PUSH1 0x0 DUP1 DUP4 CALLDATALOAD PUSH1 0x1 PUSH1 0x20 SUB DUP5 CALLDATASIZE SUB SUB DUP2 SLT PUSH2 0x7C3 JUMPI PUSH2 0x7C2 PUSH2 0x797 JUMP JUMPDEST JUMPDEST DUP1 DUP5 ADD SWAP3 POP DUP3 CALLDATALOAD SWAP2 POP PUSH8 0xFFFFFFFFFFFFFFFF DUP3 GT ISZERO PUSH2 0x7E5 JUMPI PUSH2 0x7E4 PUSH2 0x79C JUMP JUMPDEST JUMPDEST PUSH1 0x20 DUP4 ADD SWAP3 POP PUSH1 0x1 DUP3 MUL CALLDATASIZE SUB DUP4 SGT ISZERO PUSH2 0x801 JUMPI PUSH2 0x800 PUSH2 0x7A1 JUMP JUMPDEST JUMPDEST POP SWAP3 POP SWAP3 SWAP1 POP JUMP JUMPDEST PUSH1 0x0 DUP2 SWAP1 POP SWAP3 SWAP2 POP POP JUMP JUMPDEST DUP3 DUP2 DUP4 CALLDATACOPY PUSH1 0x0 DUP4 DUP4 ADD MSTORE POP POP POP JUMP JUMPDEST PUSH1 0x0 PUSH2 0x82F DUP4 DUP6 PUSH2 0x809 JUMP JUMPDEST SWAP4 POP PUSH2 0x83C DUP4 DUP6 DUP5 PUSH2 0x814 JUMP JUMPDEST DUP3 DUP5 ADD SWAP1 POP SWAP4 SWAP3 POP POP POP JUMP JUMPDEST PUSH1 0x0 PUSH2 0x855 DUP3 DUP5 DUP7 PUSH2 0x823 JUMP JUMPDEST SWAP2 POP DUP2 SWAP1 POP SWAP4 SWAP3 POP POP POP JUMP JUMPDEST PUSH1 0x0 PUSH2 0x86C DUP3 PUSH2 0x636 JUMP JUMPDEST SWAP2 POP PUSH32 0xFFFFFFFFFFFFFFFFFFFFFFFFFFFFFFFFFFFFFFFFFFFFFFFFFFFFFFFFFFFFFFFF DUP3 SUB PUSH2 0x89E JUMPI PUSH2 0x89D PUSH2 0x6D6 JUMP JUMPDEST JUMPDEST PUSH1 0x1 DUP3 ADD SWAP1 POP SWAP2 SWAP1 POP JUMP JUMPDEST PUSH2 0x8B2 DUP2 PUSH2 0x5CB JUMP JUMPDEST DUP3 MSTORE POP POP JUMP JUMPDEST PUSH1 0x0 DUP3 DUP3 MSTORE PUSH1 0x20 DUP3 ADD SWAP1 POP SWAP3 SWAP2 POP POP JUMP JUMPDEST PUSH32 0x6631000000000000000000000000000000000000000000000000000000000000 PUSH1 0x0 DUP3 ADD MSTORE POP JUMP JUMPDEST PUSH1 0x0 PUSH2 0x8FF PUSH1 0x2 DUP4 PUSH2 0x8B8 JUMP JUMPDEST SWAP2 POP PUSH2 0x90A DUP3 PUSH2 0x8C9 JUMP JUMPDEST PUSH1 0x20 DUP3 ADD SWAP1 POP SWAP2 SWAP1 POP JUMP JUMPDEST PUSH1 0x0 PUSH1 0x60 DUP3 ADD SWAP1 POP PUSH2 0x92A PUSH1 0x0 DUP4 ADD DUP6 PUSH2 0x8A9 JUMP JUMPDEST DUP2 DUP2 SUB PUSH1 0x20 DUP4 ADD MSTORE PUSH2 0x93B DUP2 PUSH2 0x8F2 JUMP JUMPDEST SWAP1 POP PUSH2 0x94A PUSH1 0x40 DUP4 ADD DUP5 PUSH2 0x640 JUMP JUMPDEST SWAP4 SWAP3 POP POP POP JUMP JUMPDEST PUSH32 0x6632000000000000000000000000000000000000000000000000000000000000 PUSH1 0x0 DUP3 ADD MSTORE POP JUMP JUMPDEST PUSH1 0x0 PUSH2 0x987 PUSH1 0x2 DUP4 PUSH2 0x8B8 JUMP JUMPDEST SWAP2 POP PUSH2 0x992 DUP3 PUSH2 0x951 JUMP JUMPDEST PUSH1 0x20 DUP3 ADD SWAP1 POP SWAP2 SWAP1 POP JUMP JUMPDEST PUSH1 0x0 DUP2 SWAP1 POP SWAP2 SWAP1 POP JUMP JUMPDEST PUSH1 0x0 DUP2 SWAP1 POP SWAP2 SWAP1 POP JUMP JUMPDEST PUSH1 0x0 PUSH2 0x9CC PUSH2 0x9C7 PUSH2 0x9C2 DUP5 PUSH2 0x99D JUMP JUMPDEST PUSH2 0x9A7 JUMP JUMPDEST PUSH2 0x636 JUMP JUMPDEST SWAP1 POP SWAP2 SWAP1 POP JUMP JUMPDEST PUSH2 0x9DC DUP2 PUSH2 0x9B1 JUMP JUMPDEST DUP3 MSTORE POP POP JUMP JUMPDEST PUSH1 0x0 PUSH1 0x60 DUP3 ADD SWAP1 POP PUSH2 0x9F7 PUSH1 0x0 DUP4 ADD DUP6 PUSH2 0x8A9 JUMP JUMPDEST DUP2 DUP2 SUB PUSH1 0x20 DUP4 ADD MSTORE PUSH2 0xA08 DUP2 PUSH2 0x97A JUMP JUMPDEST SWAP1 POP PUSH2 0xA17 PUSH1 0x40 DUP4 ADD DUP5 PUSH2 0x9D3 JUMP JUMPDEST SWAP4 SWAP3 POP POP POP JUMP INVALID LOG2 PUSH5 0x6970667358 0x22 SLT KECCAK256 0x1E GASLIMIT DUP1 CHAINID SAR LOG3 PUSH31 0xAE9F6B3F9E37798C59AFD959D9E0E176C688B4A7968EA5104664736F6C6343 STOP ADDMOD SLT STOP CALLER "
				},
				"gasEstimates": {
					"creation": {
						"codeDepositCost": "528800",
						"executionCost": "562",
						"totalCost": "529362"
					},
					"external": {
						"balanceOf(address)": "2836",
						"f1(uint256,uint256)": "infinite",
						"f2()": "infinite",
						"mint()": "infinite",
						"multidelegatecall(bytes[])": "infinite"
					}
				},
				"methodIdentifiers": {
					"balanceOf(address)": "70a08231",
					"f1(uint256,uint256)": "7cb1442c",
					"f2()": "9942ec6f",
					"mint()": "1249c58b",
					"multidelegatecall(bytes[])": "38230720"
				}
			},
			"storageLayout": {
				"storage": [
					{
						"astId": 108,
						"contract": "MultiDelegateCall.sol:TestMultiDelegateCall",
						"label": "balanceOf",
						"offset": 0,
						"slot": "0",
						"type": "t_mapping(t_address,t_uint256)"
					}
				],
				"types": {
					"t_address": {
						"encoding": "inplace",
						"label": "address",
						"numberOfBytes": "20"
					},
					"t_mapping(t_address,t_uint256)": {
						"encoding": "mapping",
						"key": "t_address",
						"label": "mapping(address => uint256)",
						"numberOfBytes": "32",
						"value": "t_uint256"
					},
					"t_uint256": {
						"encoding": "inplace",
						"label": "uint256",
						"numberOfBytes": "32"
					}
				}
			},
			"userdoc": {
				"kind": "user",
				"methods": {},
				"version": 1
			}
		}
	}
}