{
	"MultiDelegateCall.sol": {
		"helper": {
			"abi": [
				{
					"inputs": [],
					"name": "getMintData",
					"outputs": [
						{
							"internalType": "bytes",
							"name": "",
							"type": "bytes"
						}
					],
					"stateMutability": "pure",
					"type": "function"
				},
				{
					"inputs": [
						{
							"internalType": "uint256",
							"name": "x",
							"type": "uint256"
						},
						{
							"internalType": "uint256",
							"name": "y",
							"type": "uint256"
						}
					],
					"name": "getfunc1data",
					"outputs": [
						{
							"internalType": "bytes",
							"name": "",
							"type": "bytes"
						}
					],
					"stateMutability": "pure",
					"type": "function"
				},
				{
					"inputs": [],
					"name": "getfunc2data",
					"outputs": [
						{
							"internalType": "bytes",
							"name": "",
							"type": "bytes"
						}
					],
					"stateMutability": "pure",
					"type": "function"
				}
			],
			"devdoc": {
				"kind": "dev",
				"methods": {},
				"version": 1
			},
			"evm": {
				"assembly": "    /* \"MultiDelegateCall.sol\":1339:1839  contract helper {... */\n  mstore(0x40, 0x80)\n  callvalue\n  dup1\n  iszero\n  tag_1\n  jumpi\n  0x00\n  dup1\n  revert\ntag_1:\n  pop\n  dataSize(sub_0)\n  dup1\n  dataOffset(sub_0)\n  0x00\n  codecopy\n  0x00\n  return\nstop\n\nsub_0: assembly {\n        /* \"MultiDelegateCall.sol\":1339:1839  contract helper {... */\n      mstore(0x40, 0x80)\n      callvalue\n      dup1\n      iszero\n      tag_1\n      jumpi\n      0x00\n      dup1\n      revert\n    tag_1:\n      pop\n      jumpi(tag_2, lt(calldatasize, 0x04))\n      shr(0xe0, calldataload(0x00))\n      dup1\n      0x72ee6dd5\n      eq\n      tag_3\n      jumpi\n      dup1\n      0xb483ebb6\n      eq\n      tag_4\n      jumpi\n      dup1\n      0xe64258f4\n      eq\n      tag_5\n      jumpi\n    tag_2:\n      0x00\n      dup1\n      revert\n        /* \"MultiDelegateCall.sol\":1362:1525  function getfunc1data(uint x ,uint y) external pure returns (bytes memory) {... */\n    tag_3:\n      tag_6\n      0x04\n      dup1\n      calldatasize\n      sub\n      dup2\n      add\n      swap1\n      tag_7\n      swap2\n      swap1\n      tag_8\n      jump\t// in\n    tag_7:\n      tag_9\n      jump\t// in\n    tag_6:\n      mload(0x40)\n      tag_10\n      swap2\n      swap1\n      tag_11\n      jump\t// in\n    tag_10:\n      mload(0x40)\n      dup1\n      swap2\n      sub\n      swap1\n      return\n        /* \"MultiDelegateCall.sol\":1685:1830  function getMintData() external pure returns (bytes memory) {... */\n    tag_4:\n      tag_12\n      tag_13\n      jump\t// in\n    tag_12:\n      mload(0x40)\n      tag_14\n      swap2\n      swap1\n      tag_11\n      jump\t// in\n    tag_14:\n      mload(0x40)\n      dup1\n      swap2\n      sub\n      swap1\n      return\n        /* \"MultiDelegateCall.sol\":1533:1677  function getfunc2data() external pure returns (bytes memory) {... */\n    tag_5:\n      tag_15\n      tag_16\n      jump\t// in\n    tag_15:\n      mload(0x40)\n      tag_17\n      swap2\n      swap1\n      tag_11\n      jump\t// in\n    tag_17:\n      mload(0x40)\n      dup1\n      swap2\n      sub\n      swap1\n      return\n        /* \"MultiDelegateCall.sol\":1362:1525  function getfunc1data(uint x ,uint y) external pure returns (bytes memory) {... */\n    tag_9:\n        /* \"MultiDelegateCall.sol\":1423:1435  bytes memory */\n      0x60\n        /* \"MultiDelegateCall.sol\":1478:1511  TestMultiDelegateCall.f1.selector */\n      shl(0xe0, 0x7cb1442c)\n        /* \"MultiDelegateCall.sol\":1513:1514  x */\n      dup4\n        /* \"MultiDelegateCall.sol\":1515:1516  y */\n      dup4\n        /* \"MultiDelegateCall.sol\":1455:1517  abi.encodeWithSelector(TestMultiDelegateCall.f1.selector ,x,y) */\n      add(0x24, mload(0x40))\n      tag_19\n      swap3\n      swap2\n      swap1\n      tag_20\n      jump\t// in\n    tag_19:\n      mload(0x40)\n      0x20\n      dup2\n      dup4\n      sub\n      sub\n      dup2\n      mstore\n      swap1\n      0x40\n      mstore\n      swap1\n      not(0xffffffffffffffffffffffffffffffffffffffffffffffffffffffff)\n      and\n      0x20\n      dup3\n      add\n      dup1\n      mload\n      0xffffffffffffffffffffffffffffffffffffffffffffffffffffffff\n      dup4\n      dup2\n      dup4\n      and\n      or\n      dup4\n      mstore\n      pop\n      pop\n      pop\n      pop\n        /* \"MultiDelegateCall.sol\":1448:1517  return abi.encodeWithSelector(TestMultiDelegateCall.f1.selector ,x,y) */\n      swap1\n      pop\n        /* \"MultiDelegateCall.sol\":1362:1525  function getfunc1data(uint x ,uint y) external pure returns (bytes memory) {... */\n      swap3\n      swap2\n      pop\n      pop\n      jump\t// out\n        /* \"MultiDelegateCall.sol\":1685:1830  function getMintData() external pure returns (bytes memory) {... */\n    tag_13:\n        /* \"MultiDelegateCall.sol\":1731:1743  bytes memory */\n      0x60\n        /* \"MultiDelegateCall.sol\":1786:1821  TestMultiDelegateCall.mint.selector */\n      shl(0xe0, 0x1249c58b)\n        /* \"MultiDelegateCall.sol\":1763:1822  abi.encodeWithSelector(TestMultiDelegateCall.mint.selector) */\n      add(0x24, mload(0x40))\n      mload(0x40)\n      0x20\n      dup2\n      dup4\n      sub\n      sub\n      dup2\n      mstore\n      swap1\n      0x40\n      mstore\n      swap1\n      not(0xffffffffffffffffffffffffffffffffffffffffffffffffffffffff)\n      and\n      0x20\n      dup3\n      add\n      dup1\n      mload\n      0xffffffffffffffffffffffffffffffffffffffffffffffffffffffff\n      dup4\n      dup2\n      dup4\n      and\n      or\n      dup4\n      mstore\n      pop\n      pop\n      pop\n      pop\n        /* \"MultiDelegateCall.sol\":1756:1822  return abi.encodeWithSelector(TestMultiDelegateCall.mint.selector) */\n      swap1\n      pop\n        /* \"MultiDelegateCall.sol\":1685:1830  function getMintData() external pure returns (bytes memory) {... */\n      swap1\n      jump\t// out\n        /* \"MultiDelegateCall.sol\":1533:1677  function getfunc2data() external pure returns (bytes memory) {... */\n    tag_16:\n        /* \"MultiDelegateCall.sol\":1580:1592  bytes memory */\n      0x60\n        /* \"MultiDelegateCall.sol\":1635:1668  TestMultiDelegateCall.f2.selector */\n      shl(0xe0, 0x9942ec6f)\n        /* \"MultiDelegateCall.sol\":1612:1669  abi.encodeWithSelector(TestMultiDelegateCall.f2.selector) */\n      add(0x24, mload(0x40))\n      mload(0x40)\n      0x20\n      dup2\n      dup4\n      sub\n      sub\n      dup2\n      mstore\n      swap1\n      0x40\n      mstore\n      swap1\n      not(0xffffffffffffffffffffffffffffffffffffffffffffffffffffffff)\n      and\n      0x20\n      dup3\n      add\n      dup1\n      mload\n      0xffffffffffffffffffffffffffffffffffffffffffffffffffffffff\n      dup4\n      dup2\n      dup4\n      and\n      or\n      dup4\n      mstore\n      pop\n      pop\n      pop\n      pop\n        /* \"MultiDelegateCall.sol\":1605:1669  return abi.encodeWithSelector(TestMultiDelegateCall.f2.selector) */\n      swap1\n      pop\n        /* \"MultiDelegateCall.sol\":1533:1677  function getfunc2data() external pure returns (bytes memory) {... */\n      swap1\n      jump\t// out\n        /* \"#utility.yul\":88:205   */\n    tag_24:\n        /* \"#utility.yul\":197:198   */\n      0x00\n        /* \"#utility.yul\":194:195   */\n      dup1\n        /* \"#utility.yul\":187:199   */\n      revert\n        /* \"#utility.yul\":334:411   */\n    tag_26:\n        /* \"#utility.yul\":371:378   */\n      0x00\n        /* \"#utility.yul\":400:405   */\n      dup2\n        /* \"#utility.yul\":389:405   */\n      swap1\n      pop\n        /* \"#utility.yul\":334:411   */\n      swap2\n      swap1\n      pop\n      jump\t// out\n        /* \"#utility.yul\":417:539   */\n    tag_27:\n        /* \"#utility.yul\":490:514   */\n      tag_41\n        /* \"#utility.yul\":508:513   */\n      dup2\n        /* \"#utility.yul\":490:514   */\n      tag_26\n      jump\t// in\n    tag_41:\n        /* \"#utility.yul\":483:488   */\n      dup2\n        /* \"#utility.yul\":480:515   */\n      eq\n        /* \"#utility.yul\":470:533   */\n      tag_42\n      jumpi\n        /* \"#utility.yul\":529:530   */\n      0x00\n        /* \"#utility.yul\":526:527   */\n      dup1\n        /* \"#utility.yul\":519:531   */\n      revert\n        /* \"#utility.yul\":470:533   */\n    tag_42:\n        /* \"#utility.yul\":417:539   */\n      pop\n      jump\t// out\n        /* \"#utility.yul\":545:684   */\n    tag_28:\n        /* \"#utility.yul\":591:596   */\n      0x00\n        /* \"#utility.yul\":629:635   */\n      dup2\n        /* \"#utility.yul\":616:636   */\n      calldataload\n        /* \"#utility.yul\":607:636   */\n      swap1\n      pop\n        /* \"#utility.yul\":645:678   */\n      tag_44\n        /* \"#utility.yul\":672:677   */\n      dup2\n        /* \"#utility.yul\":645:678   */\n      tag_27\n      jump\t// in\n    tag_44:\n        /* \"#utility.yul\":545:684   */\n      swap3\n      swap2\n      pop\n      pop\n      jump\t// out\n        /* \"#utility.yul\":690:1164   */\n    tag_8:\n        /* \"#utility.yul\":758:764   */\n      0x00\n        /* \"#utility.yul\":766:772   */\n      dup1\n        /* \"#utility.yul\":815:817   */\n      0x40\n        /* \"#utility.yul\":803:812   */\n      dup4\n        /* \"#utility.yul\":794:801   */\n      dup6\n        /* \"#utility.yul\":790:813   */\n      sub\n        /* \"#utility.yul\":786:818   */\n      slt\n        /* \"#utility.yul\":783:902   */\n      iszero\n      tag_46\n      jumpi\n        /* \"#utility.yul\":821:900   */\n      tag_47\n      tag_24\n      jump\t// in\n    tag_47:\n        /* \"#utility.yul\":783:902   */\n    tag_46:\n        /* \"#utility.yul\":941:942   */\n      0x00\n        /* \"#utility.yul\":966:1019   */\n      tag_48\n        /* \"#utility.yul\":1011:1018   */\n      dup6\n        /* \"#utility.yul\":1002:1008   */\n      dup3\n        /* \"#utility.yul\":991:1000   */\n      dup7\n        /* \"#utility.yul\":987:1009   */\n      add\n        /* \"#utility.yul\":966:1019   */\n      tag_28\n      jump\t// in\n    tag_48:\n        /* \"#utility.yul\":956:1019   */\n      swap3\n      pop\n        /* \"#utility.yul\":912:1029   */\n      pop\n        /* \"#utility.yul\":1068:1070   */\n      0x20\n        /* \"#utility.yul\":1094:1147   */\n      tag_49\n        /* \"#utility.yul\":1139:1146   */\n      dup6\n        /* \"#utility.yul\":1130:1136   */\n      dup3\n        /* \"#utility.yul\":1119:1128   */\n      dup7\n        /* \"#utility.yul\":1115:1137   */\n      add\n        /* \"#utility.yul\":1094:1147   */\n      tag_28\n      jump\t// in\n    tag_49:\n        /* \"#utility.yul\":1084:1147   */\n      swap2\n      pop\n        /* \"#utility.yul\":1039:1157   */\n      pop\n        /* \"#utility.yul\":690:1164   */\n      swap3\n      pop\n      swap3\n      swap1\n      pop\n      jump\t// out\n        /* \"#utility.yul\":1170:1268   */\n    tag_29:\n        /* \"#utility.yul\":1221:1227   */\n      0x00\n        /* \"#utility.yul\":1255:1260   */\n      dup2\n        /* \"#utility.yul\":1249:1261   */\n      mload\n        /* \"#utility.yul\":1239:1261   */\n      swap1\n      pop\n        /* \"#utility.yul\":1170:1268   */\n      swap2\n      swap1\n      pop\n      jump\t// out\n        /* \"#utility.yul\":1274:1442   */\n    tag_30:\n        /* \"#utility.yul\":1357:1368   */\n      0x00\n        /* \"#utility.yul\":1391:1397   */\n      dup3\n        /* \"#utility.yul\":1386:1389   */\n      dup3\n        /* \"#utility.yul\":1379:1398   */\n      mstore\n        /* \"#utility.yul\":1431:1435   */\n      0x20\n        /* \"#utility.yul\":1426:1429   */\n      dup3\n        /* \"#utility.yul\":1422:1436   */\n      add\n        /* \"#utility.yul\":1407:1436   */\n      swap1\n      pop\n        /* \"#utility.yul\":1274:1442   */\n      swap3\n      swap2\n      pop\n      pop\n      jump\t// out\n        /* \"#utility.yul\":1448:1694   */\n    tag_31:\n        /* \"#utility.yul\":1529:1530   */\n      0x00\n        /* \"#utility.yul\":1539:1652   */\n    tag_53:\n        /* \"#utility.yul\":1553:1559   */\n      dup4\n        /* \"#utility.yul\":1550:1551   */\n      dup2\n        /* \"#utility.yul\":1547:1560   */\n      lt\n        /* \"#utility.yul\":1539:1652   */\n      iszero\n      tag_55\n      jumpi\n        /* \"#utility.yul\":1638:1639   */\n      dup1\n        /* \"#utility.yul\":1633:1636   */\n      dup3\n        /* \"#utility.yul\":1629:1640   */\n      add\n        /* \"#utility.yul\":1623:1641   */\n      mload\n        /* \"#utility.yul\":1619:1620   */\n      dup2\n        /* \"#utility.yul\":1614:1617   */\n      dup5\n        /* \"#utility.yul\":1610:1621   */\n      add\n        /* \"#utility.yul\":1603:1642   */\n      mstore\n        /* \"#utility.yul\":1575:1577   */\n      0x20\n        /* \"#utility.yul\":1572:1573   */\n      dup2\n        /* \"#utility.yul\":1568:1578   */\n      add\n        /* \"#utility.yul\":1563:1578   */\n      swap1\n      pop\n        /* \"#utility.yul\":1539:1652   */\n      jump(tag_53)\n    tag_55:\n        /* \"#utility.yul\":1686:1687   */\n      0x00\n        /* \"#utility.yul\":1677:1683   */\n      dup5\n        /* \"#utility.yul\":1672:1675   */\n      dup5\n        /* \"#utility.yul\":1668:1684   */\n      add\n        /* \"#utility.yul\":1661:1688   */\n      mstore\n        /* \"#utility.yul\":1510:1694   */\n      pop\n        /* \"#utility.yul\":1448:1694   */\n      pop\n      pop\n      pop\n      jump\t// out\n        /* \"#utility.yul\":1700:1802   */\n    tag_32:\n        /* \"#utility.yul\":1741:1747   */\n      0x00\n        /* \"#utility.yul\":1792:1794   */\n      0x1f\n        /* \"#utility.yul\":1788:1795   */\n      not\n        /* \"#utility.yul\":1783:1785   */\n      0x1f\n        /* \"#utility.yul\":1776:1781   */\n      dup4\n        /* \"#utility.yul\":1772:1786   */\n      add\n        /* \"#utility.yul\":1768:1796   */\n      and\n        /* \"#utility.yul\":1758:1796   */\n      swap1\n      pop\n        /* \"#utility.yul\":1700:1802   */\n      swap2\n      swap1\n      pop\n      jump\t// out\n        /* \"#utility.yul\":1808:2181   */\n    tag_33:\n        /* \"#utility.yul\":1894:1897   */\n      0x00\n        /* \"#utility.yul\":1922:1960   */\n      tag_58\n        /* \"#utility.yul\":1954:1959   */\n      dup3\n        /* \"#utility.yul\":1922:1960   */\n      tag_29\n      jump\t// in\n    tag_58:\n        /* \"#utility.yul\":1976:2046   */\n      tag_59\n        /* \"#utility.yul\":2039:2045   */\n      dup2\n        /* \"#utility.yul\":2034:2037   */\n      dup6\n        /* \"#utility.yul\":1976:2046   */\n      tag_30\n      jump\t// in\n    tag_59:\n        /* \"#utility.yul\":1969:2046   */\n      swap4\n      pop\n        /* \"#utility.yul\":2055:2120   */\n      tag_60\n        /* \"#utility.yul\":2113:2119   */\n      dup2\n        /* \"#utility.yul\":2108:2111   */\n      dup6\n        /* \"#utility.yul\":2101:2105   */\n      0x20\n        /* \"#utility.yul\":2094:2099   */\n      dup7\n        /* \"#utility.yul\":2090:2106   */\n      add\n        /* \"#utility.yul\":2055:2120   */\n      tag_31\n      jump\t// in\n    tag_60:\n        /* \"#utility.yul\":2145:2174   */\n      tag_61\n        /* \"#utility.yul\":2167:2173   */\n      dup2\n        /* \"#utility.yul\":2145:2174   */\n      tag_32\n      jump\t// in\n    tag_61:\n        /* \"#utility.yul\":2140:2143   */\n      dup5\n        /* \"#utility.yul\":2136:2175   */\n      add\n        /* \"#utility.yul\":2129:2175   */\n      swap2\n      pop\n        /* \"#utility.yul\":1898:2181   */\n      pop\n        /* \"#utility.yul\":1808:2181   */\n      swap3\n      swap2\n      pop\n      pop\n      jump\t// out\n        /* \"#utility.yul\":2187:2496   */\n    tag_11:\n        /* \"#utility.yul\":2298:2302   */\n      0x00\n        /* \"#utility.yul\":2336:2338   */\n      0x20\n        /* \"#utility.yul\":2325:2334   */\n      dup3\n        /* \"#utility.yul\":2321:2339   */\n      add\n        /* \"#utility.yul\":2313:2339   */\n      swap1\n      pop\n        /* \"#utility.yul\":2385:2394   */\n      dup2\n        /* \"#utility.yul\":2379:2383   */\n      dup2\n        /* \"#utility.yul\":2375:2395   */\n      sub\n        /* \"#utility.yul\":2371:2372   */\n      0x00\n        /* \"#utility.yul\":2360:2369   */\n      dup4\n        /* \"#utility.yul\":2356:2373   */\n      add\n        /* \"#utility.yul\":2349:2396   */\n      mstore\n        /* \"#utility.yul\":2413:2489   */\n      tag_63\n        /* \"#utility.yul\":2484:2488   */\n      dup2\n        /* \"#utility.yul\":2475:2481   */\n      dup5\n        /* \"#utility.yul\":2413:2489   */\n      tag_33\n      jump\t// in\n    tag_63:\n        /* \"#utility.yul\":2405:2489   */\n      swap1\n      pop\n        /* \"#utility.yul\":2187:2496   */\n      swap3\n      swap2\n      pop\n      pop\n      jump\t// out\n        /* \"#utility.yul\":2502:2620   */\n    tag_34:\n        /* \"#utility.yul\":2589:2613   */\n      tag_65\n        /* \"#utility.yul\":2607:2612   */\n      dup2\n        /* \"#utility.yul\":2589:2613   */\n      tag_26\n      jump\t// in\n    tag_65:\n        /* \"#utility.yul\":2584:2587   */\n      dup3\n        /* \"#utility.yul\":2577:2614   */\n      mstore\n        /* \"#utility.yul\":2502:2620   */\n      pop\n      pop\n      jump\t// out\n        /* \"#utility.yul\":2626:2958   */\n    tag_20:\n        /* \"#utility.yul\":2747:2751   */\n      0x00\n        /* \"#utility.yul\":2785:2787   */\n      0x40\n        /* \"#utility.yul\":2774:2783   */\n      dup3\n        /* \"#utility.yul\":2770:2788   */\n      add\n        /* \"#utility.yul\":2762:2788   */\n      swap1\n      pop\n        /* \"#utility.yul\":2798:2869   */\n      tag_67\n        /* \"#utility.yul\":2866:2867   */\n      0x00\n        /* \"#utility.yul\":2855:2864   */\n      dup4\n        /* \"#utility.yul\":2851:2868   */\n      add\n        /* \"#utility.yul\":2842:2848   */\n      dup6\n        /* \"#utility.yul\":2798:2869   */\n      tag_34\n      jump\t// in\n    tag_67:\n        /* \"#utility.yul\":2879:2951   */\n      tag_68\n        /* \"#utility.yul\":2947:2949   */\n      0x20\n        /* \"#utility.yul\":2936:2945   */\n      dup4\n        /* \"#utility.yul\":2932:2950   */\n      add\n        /* \"#utility.yul\":2923:2929   */\n      dup5\n        /* \"#utility.yul\":2879:2951   */\n      tag_34\n      jump\t// in\n    tag_68:\n        /* \"#utility.yul\":2626:2958   */\n      swap4\n      swap3\n      pop\n      pop\n      pop\n      jump\t// out\n\n    auxdata: 0xa2646970667358221220c4e87ed216ecb65912111279f367c6f8f11a330483c29fc44ac432c5fdb95e9164736f6c63430008120033\n}\n",
				"bytecode": {
					"linkReferences": {},
					"object": "608060405234801561001057600080fd5b506103b3806100206000396000f3fe608060405234801561001057600080fd5b50600436106100415760003560e01c806372ee6dd514610046578063b483ebb614610076578063e64258f414610094575b600080fd5b610060600480360381019061005b9190610253565b6100b2565b60405161006d9190610323565b60405180910390f35b61007e610134565b60405161008b9190610323565b60405180910390f35b61009c6101a6565b6040516100a99190610323565b60405180910390f35b6060637cb1442c60e01b83836040516024016100cf929190610354565b604051602081830303815290604052907bffffffffffffffffffffffffffffffffffffffffffffffffffffffff19166020820180517bffffffffffffffffffffffffffffffffffffffffffffffffffffffff8381831617835250505050905092915050565b6060631249c58b60e01b604051602401604051602081830303815290604052907bffffffffffffffffffffffffffffffffffffffffffffffffffffffff19166020820180517bffffffffffffffffffffffffffffffffffffffffffffffffffffffff8381831617835250505050905090565b6060639942ec6f60e01b604051602401604051602081830303815290604052907bffffffffffffffffffffffffffffffffffffffffffffffffffffffff19166020820180517bffffffffffffffffffffffffffffffffffffffffffffffffffffffff8381831617835250505050905090565b600080fd5b6000819050919050565b6102308161021d565b811461023b57600080fd5b50565b60008135905061024d81610227565b92915050565b6000806040838503121561026a57610269610218565b5b60006102788582860161023e565b92505060206102898582860161023e565b9150509250929050565b600081519050919050565b600082825260208201905092915050565b60005b838110156102cd5780820151818401526020810190506102b2565b60008484015250505050565b6000601f19601f8301169050919050565b60006102f582610293565b6102ff818561029e565b935061030f8185602086016102af565b610318816102d9565b840191505092915050565b6000602082019050818103600083015261033d81846102ea565b905092915050565b61034e8161021d565b82525050565b60006040820190506103696000830185610345565b6103766020830184610345565b939250505056fea2646970667358221220c4e87ed216ecb65912111279f367c6f8f11a330483c29fc44ac432c5fdb95e9164736f6c63430008120033",
					"opcodes": "PUSH1 0x80 PUSH1 0x40 MSTORE CALLVALUE DUP1 ISZERO PUSH2 0x10 JUMPI PUSH1 0x0 DUP1 REVERT JUMPDEST POP PUSH2 0x3B3 DUP1 PUSH2 0x20 PUSH1 0x0 CODECOPY PUSH1 0x0 RETURN INVALID PUSH1 0x80 PUSH1 0x40 MSTORE CALLVALUE DUP1 ISZERO PUSH2 0x10 JUMPI PUSH1 0x0 DUP1 REVERT JUMPDEST POP PUSH1 0x4 CALLDATASIZE LT PUSH2 0x41 JUMPI PUSH1 0x0 CALLDATALOAD PUSH1 0xE0 SHR DUP1 PUSH4 0x72EE6DD5 EQ PUSH2 0x46 JUMPI DUP1 PUSH4 0xB483EBB6 EQ PUSH2 0x76 JUMPI DUP1 PUSH4 0xE64258F4 EQ PUSH2 0x94 JUMPI JUMPDEST PUSH1 0x0 DUP1 REVERT JUMPDEST PUSH2 0x60 PUSH1 0x4 DUP1 CALLDATASIZE SUB DUP2 ADD SWAP1 PUSH2 0x5B SWAP2 SWAP1 PUSH2 0x253 JUMP JUMPDEST PUSH2 0xB2 JUMP JUMPDEST PUSH1 0x40 MLOAD PUSH2 0x6D SWAP2 SWAP1 PUSH2 0x323 JUMP JUMPDEST PUSH1 0x40 MLOAD DUP1 SWAP2 SUB SWAP1 RETURN JUMPDEST PUSH2 0x7E PUSH2 0x134 JUMP JUMPDEST PUSH1 0x40 MLOAD PUSH2 0x8B SWAP2 SWAP1 PUSH2 0x323 JUMP JUMPDEST PUSH1 0x40 MLOAD DUP1 SWAP2 SUB SWAP1 RETURN JUMPDEST PUSH2 0x9C PUSH2 0x1A6 JUMP JUMPDEST PUSH1 0x40 MLOAD PUSH2 0xA9 SWAP2 SWAP1 PUSH2 0x323 JUMP JUMPDEST PUSH1 0x40 MLOAD DUP1 SWAP2 SUB SWAP1 RETURN JUMPDEST PUSH1 0x60 PUSH4 0x7CB1442C PUSH1 0xE0 SHL DUP4 DUP4 PUSH1 0x40 MLOAD PUSH1 0x24 ADD PUSH2 0xCF SWAP3 SWAP2 SWAP1 PUSH2 0x354 JUMP JUMPDEST PUSH1 0x40 MLOAD PUSH1 0x20 DUP2 DUP4 SUB SUB DUP2 MSTORE SWAP1 PUSH1 0x40 MSTORE SWAP1 PUSH28 0xFFFFFFFFFFFFFFFFFFFFFFFFFFFFFFFFFFFFFFFFFFFFFFFFFFFFFFFF NOT AND PUSH1 0x20 DUP3 ADD DUP1 MLOAD PUSH28 0xFFFFFFFFFFFFFFFFFFFFFFFFFFFFFFFFFFFFFFFFFFFFFFFFFFFFFFFF DUP4 DUP2 DUP4 AND OR DUP4 MSTORE POP POP POP POP SWAP1 POP SWAP3 SWAP2 POP POP JUMP JUMPDEST PUSH1 0x60 PUSH4 0x1249C58B PUSH1 0xE0 SHL PUSH1 0x40 MLOAD PUSH1 0x24 ADD PUSH1 0x40 MLOAD PUSH1 0x20 DUP2 DUP4 SUB SUB DUP2 MSTORE SWAP1 PUSH1 0x40 MSTORE SWAP1 PUSH28 0xFFFFFFFFFFFFFFFFFFFFFFFFFFFFFFFFFFFFFFFFFFFFFFFFFFFFFFFF NOT AND PUSH1 0x20 DUP3 ADD DUP1 MLOAD PUSH28 0xFFFFFFFFFFFFFFFFFFFFFFFFFFFFFFFFFFFFFFFFFFFFFFFFFFFFFFFF DUP4 DUP2 DUP4 AND OR DUP4 MSTORE POP POP POP POP SWAP1 POP SWAP1 JUMP JUMPDEST PUSH1 0x60 PUSH4 0x9942EC6F PUSH1 0xE0 SHL PUSH1 0x40 MLOAD PUSH1 0x24 ADD PUSH1 0x40 MLOAD PUSH1 0x20 DUP2 DUP4 SUB SUB DUP2 MSTORE SWAP1 PUSH1 0x40 MSTORE SWAP1 PUSH28 0xFFFFFFFFFFFFFFFFFFFFFFFFFFFFFFFFFFFFFFFFFFFFFFFFFFFFFFFF NOT AND PUSH1 0x20 DUP3 ADD DUP1 MLOAD PUSH28 0xFFFFFFFFFFFFFFFFFFFFFFFFFFFFFFFFFFFFFFFFFFFFFFFFFFFFFFFF DUP4 DUP2 DUP4 AND OR DUP4 MSTORE POP POP POP POP SWAP1 POP SWAP1 JUMP JUMPDEST PUSH1 0x0 DUP1 REVERT JUMPDEST PUSH1 0x0 DUP2 SWAP1 POP SWAP2 SWAP1 POP JUMP JUMPDEST PUSH2 0x230 DUP2 PUSH2 0x21D JUMP JUMPDEST DUP2 EQ PUSH2 0x23B JUMPI PUSH1 0x0 DUP1 REVERT JUMPDEST POP JUMP JUMPDEST PUSH1 0x0 DUP2 CALLDATALOAD SWAP1 POP PUSH2 0x24D DUP2 PUSH2 0x227 JUMP JUMPDEST SWAP3 SWAP2 POP POP JUMP JUMPDEST PUSH1 0x0 DUP1 PUSH1 0x40 DUP4 DUP6 SUB SLT ISZERO PUSH2 0x26A JUMPI PUSH2 0x269 PUSH2 0x218 JUMP JUMPDEST JUMPDEST PUSH1 0x0 PUSH2 0x278 DUP6 DUP3 DUP7 ADD PUSH2 0x23E JUMP JUMPDEST SWAP3 POP POP PUSH1 0x20 PUSH2 0x289 DUP6 DUP3 DUP7 ADD PUSH2 0x23E JUMP JUMPDEST SWAP2 POP POP SWAP3 POP SWAP3 SWAP1 POP JUMP JUMPDEST PUSH1 0x0 DUP2 MLOAD SWAP1 POP SWAP2 SWAP1 POP JUMP JUMPDEST PUSH1 0x0 DUP3 DUP3 MSTORE PUSH1 0x20 DUP3 ADD SWAP1 POP SWAP3 SWAP2 POP POP JUMP JUMPDEST PUSH1 0x0 JUMPDEST DUP4 DUP2 LT ISZERO PUSH2 0x2CD JUMPI DUP1 DUP3 ADD MLOAD DUP2 DUP5 ADD MSTORE PUSH1 0x20 DUP2 ADD SWAP1 POP PUSH2 0x2B2 JUMP JUMPDEST PUSH1 0x0 DUP5 DUP5 ADD MSTORE POP POP POP POP JUMP JUMPDEST PUSH1 0x0 PUSH1 0x1F NOT PUSH1 0x1F DUP4 ADD AND SWAP1 POP SWAP2 SWAP1 POP JUMP JUMPDEST PUSH1 0x0 PUSH2 0x2F5 DUP3 PUSH2 0x293 JUMP JUMPDEST PUSH2 0x2FF DUP2 DUP6 PUSH2 0x29E JUMP JUMPDEST SWAP4 POP PUSH2 0x30F DUP2 DUP6 PUSH1 0x20 DUP7 ADD PUSH2 0x2AF JUMP JUMPDEST PUSH2 0x318 DUP2 PUSH2 0x2D9 JUMP JUMPDEST DUP5 ADD SWAP2 POP POP SWAP3 SWAP2 POP POP JUMP JUMPDEST PUSH1 0x0 PUSH1 0x20 DUP3 ADD SWAP1 POP DUP2 DUP2 SUB PUSH1 0x0 DUP4 ADD MSTORE PUSH2 0x33D DUP2 DUP5 PUSH2 0x2EA JUMP JUMPDEST SWAP1 POP SWAP3 SWAP2 POP POP JUMP JUMPDEST PUSH2 0x34E DUP2 PUSH2 0x21D JUMP JUMPDEST DUP3 MSTORE POP POP JUMP JUMPDEST PUSH1 0x0 PUSH1 0x40 DUP3 ADD SWAP1 POP PUSH2 0x369 PUSH1 0x0 DUP4 ADD DUP6 PUSH2 0x345 JUMP JUMPDEST PUSH2 0x376 PUSH1 0x20 DUP4 ADD DUP5 PUSH2 0x345 JUMP JUMPDEST SWAP4 SWAP3 POP POP POP JUMP INVALID LOG2 PUSH5 0x6970667358 0x22 SLT KECCAK256 0xC4 0xE8 PUSH31 0xD216ECB65912111279F367C6F8F11A330483C29FC44AC432C5FDB95E916473 PUSH16 0x6C634300081200330000000000000000 "
				},
				"gasEstimates": {
					"creation": {
						"codeDepositCost": "189400",
						"executionCost": "232",
						"totalCost": "189632"
					},
					"external": {
						"getMintData()": "infinite",
						"getfunc1data(uint256,uint256)": "infinite",
						"getfunc2data()": "infinite"
					}
				},
				"methodIdentifiers": {
					"getMintData()": "b483ebb6",
					"getfunc1data(uint256,uint256)": "72ee6dd5",
					"getfunc2data()": "e64258f4"
				}
			},
			"storageLayout": {
				"storage": [],
				"types": null
			},
			"userdoc": {
				"kind": "user",
				"methods": {},
				"version": 1
			}
		}
	}
}