{
	"CSAMM.sol": {
		"CSAMM": {
			"abi": [
				{
					"inputs": [
						{
							"internalType": "address",
							"name": "_token0",
							"type": "address"
						},
						{
							"internalType": "address",
							"name": "_token1",
							"type": "address"
						}
					],
					"stateMutability": "nonpayable",
					"type": "constructor"
				},
				{
					"inputs": [
						{
							"internalType": "uint256",
							"name": "_amount0",
							"type": "uint256"
						},
						{
							"internalType": "uint256",
							"name": "_amount1",
							"type": "uint256"
						}
					],
					"name": "addLiquidity",
					"outputs": [
						{
							"internalType": "uint256",
							"name": "shares",
							"type": "uint256"
						}
					],
					"stateMutability": "nonpayable",
					"type": "function"
				},
				{
					"inputs": [
						{
							"internalType": "address",
							"name": "",
							"type": "address"
						}
					],
					"name": "balanceOf",
					"outputs": [
						{
							"internalType": "uint256",
							"name": "",
							"type": "uint256"
						}
					],
					"stateMutability": "view",
					"type": "function"
				},
				{
					"inputs": [
						{
							"internalType": "uint256",
							"name": "_shares",
							"type": "uint256"
						}
					],
					"name": "removeLiquidity",
					"outputs": [
						{
							"internalType": "uint256",
							"name": "d0",
							"type": "uint256"
						},
						{
							"internalType": "uint256",
							"name": "d1",
							"type": "uint256"
						}
					],
					"stateMutability": "nonpayable",
					"type": "function"
				},
				{
					"inputs": [],
					"name": "reserve0",
					"outputs": [
						{
							"internalType": "uint256",
							"name": "",
							"type": "uint256"
						}
					],
					"stateMutability": "view",
					"type": "function"
				},
				{
					"inputs": [],
					"name": "reserve1",
					"outputs": [
						{
							"internalType": "uint256",
							"name": "",
							"type": "uint256"
						}
					],
					"stateMutability": "view",
					"type": "function"
				},
				{
					"inputs": [
						{
							"internalType": "address",
							"name": "tokenIn",
							"type": "address"
						},
						{
							"internalType": "uint256",
							"name": "amountIn",
							"type": "uint256"
						}
					],
					"name": "swap",
					"outputs": [
						{
							"internalType": "uint256",
							"name": "amountOut",
							"type": "uint256"
						}
					],
					"stateMutability": "nonpayable",
					"type": "function"
				},
				{
					"inputs": [],
					"name": "token0",
					"outputs": [
						{
							"internalType": "contract IERC20",
							"name": "",
							"type": "address"
						}
					],
					"stateMutability": "view",
					"type": "function"
				},
				{
					"inputs": [],
					"name": "token1",
					"outputs": [
						{
							"internalType": "contract IERC20",
							"name": "",
							"type": "address"
						}
					],
					"stateMutability": "view",
					"type": "function"
				},
				{
					"inputs": [],
					"name": "totalSupply",
					"outputs": [
						{
							"internalType": "uint256",
							"name": "",
							"type": "uint256"
						}
					],
					"stateMutability": "view",
					"type": "function"
				}
			],
			"devdoc": {
				"kind": "dev",
				"methods": {},
				"version": 1
			},
			"evm": {
				"assembly": "    /* \"CSAMM.sol\":137:3474  contract CSAMM {... */\n  mstore(0x40, 0xc0)\n    /* \"CSAMM.sol\":371:494  constructor(address _token0,address _token1) {... */\n  callvalue\n  dup1\n  iszero\n  tag_1\n  jumpi\n  0x00\n  dup1\n  revert\ntag_1:\n  pop\n  mload(0x40)\n  sub(codesize, bytecodeSize)\n  dup1\n  bytecodeSize\n  dup4\n  codecopy\n  dup2\n  dup2\n  add\n  0x40\n  mstore\n  dup2\n  add\n  swap1\n  tag_2\n  swap2\n  swap1\n  tag_3\n  jump\t// in\ntag_2:\n    /* \"CSAMM.sol\":443:450  _token0 */\n  dup2\n    /* \"CSAMM.sol\":427:451  token0 = IERC20(_token0) */\n  0xffffffffffffffffffffffffffffffffffffffff\n  and\n  0x80\n  dup2\n  0xffffffffffffffffffffffffffffffffffffffff\n  and\n  dup2\n  mstore\n  pop\n  pop\n    /* \"CSAMM.sol\":478:485  _token1 */\n  dup1\n    /* \"CSAMM.sol\":462:486  token1 = IERC20(_token1) */\n  0xffffffffffffffffffffffffffffffffffffffff\n  and\n  0xa0\n  dup2\n  0xffffffffffffffffffffffffffffffffffffffff\n  and\n  dup2\n  mstore\n  pop\n  pop\n    /* \"CSAMM.sol\":371:494  constructor(address _token0,address _token1) {... */\n  pop\n  pop\n    /* \"CSAMM.sol\":137:3474  contract CSAMM {... */\n  jump(tag_6)\n    /* \"#utility.yul\":88:205   */\ntag_8:\n    /* \"#utility.yul\":197:198   */\n  0x00\n    /* \"#utility.yul\":194:195   */\n  dup1\n    /* \"#utility.yul\":187:199   */\n  revert\n    /* \"#utility.yul\":334:460   */\ntag_10:\n    /* \"#utility.yul\":371:378   */\n  0x00\n    /* \"#utility.yul\":411:453   */\n  0xffffffffffffffffffffffffffffffffffffffff\n    /* \"#utility.yul\":404:409   */\n  dup3\n    /* \"#utility.yul\":400:454   */\n  and\n    /* \"#utility.yul\":389:454   */\n  swap1\n  pop\n    /* \"#utility.yul\":334:460   */\n  swap2\n  swap1\n  pop\n  jump\t// out\n    /* \"#utility.yul\":466:562   */\ntag_11:\n    /* \"#utility.yul\":503:510   */\n  0x00\n    /* \"#utility.yul\":532:556   */\n  tag_20\n    /* \"#utility.yul\":550:555   */\n  dup3\n    /* \"#utility.yul\":532:556   */\n  tag_10\n  jump\t// in\ntag_20:\n    /* \"#utility.yul\":521:556   */\n  swap1\n  pop\n    /* \"#utility.yul\":466:562   */\n  swap2\n  swap1\n  pop\n  jump\t// out\n    /* \"#utility.yul\":568:690   */\ntag_12:\n    /* \"#utility.yul\":641:665   */\n  tag_22\n    /* \"#utility.yul\":659:664   */\n  dup2\n    /* \"#utility.yul\":641:665   */\n  tag_11\n  jump\t// in\ntag_22:\n    /* \"#utility.yul\":634:639   */\n  dup2\n    /* \"#utility.yul\":631:666   */\n  eq\n    /* \"#utility.yul\":621:684   */\n  tag_23\n  jumpi\n    /* \"#utility.yul\":680:681   */\n  0x00\n    /* \"#utility.yul\":677:678   */\n  dup1\n    /* \"#utility.yul\":670:682   */\n  revert\n    /* \"#utility.yul\":621:684   */\ntag_23:\n    /* \"#utility.yul\":568:690   */\n  pop\n  jump\t// out\n    /* \"#utility.yul\":696:839   */\ntag_13:\n    /* \"#utility.yul\":753:758   */\n  0x00\n    /* \"#utility.yul\":784:790   */\n  dup2\n    /* \"#utility.yul\":778:791   */\n  mload\n    /* \"#utility.yul\":769:791   */\n  swap1\n  pop\n    /* \"#utility.yul\":800:833   */\n  tag_25\n    /* \"#utility.yul\":827:832   */\n  dup2\n    /* \"#utility.yul\":800:833   */\n  tag_12\n  jump\t// in\ntag_25:\n    /* \"#utility.yul\":696:839   */\n  swap3\n  swap2\n  pop\n  pop\n  jump\t// out\n    /* \"#utility.yul\":845:1352   */\ntag_3:\n    /* \"#utility.yul\":924:930   */\n  0x00\n    /* \"#utility.yul\":932:938   */\n  dup1\n    /* \"#utility.yul\":981:983   */\n  0x40\n    /* \"#utility.yul\":969:978   */\n  dup4\n    /* \"#utility.yul\":960:967   */\n  dup6\n    /* \"#utility.yul\":956:979   */\n  sub\n    /* \"#utility.yul\":952:984   */\n  slt\n    /* \"#utility.yul\":949:1068   */\n  iszero\n  tag_27\n  jumpi\n    /* \"#utility.yul\":987:1066   */\n  tag_28\n  tag_8\n  jump\t// in\ntag_28:\n    /* \"#utility.yul\":949:1068   */\ntag_27:\n    /* \"#utility.yul\":1107:1108   */\n  0x00\n    /* \"#utility.yul\":1132:1196   */\n  tag_29\n    /* \"#utility.yul\":1188:1195   */\n  dup6\n    /* \"#utility.yul\":1179:1185   */\n  dup3\n    /* \"#utility.yul\":1168:1177   */\n  dup7\n    /* \"#utility.yul\":1164:1186   */\n  add\n    /* \"#utility.yul\":1132:1196   */\n  tag_13\n  jump\t// in\ntag_29:\n    /* \"#utility.yul\":1122:1196   */\n  swap3\n  pop\n    /* \"#utility.yul\":1078:1206   */\n  pop\n    /* \"#utility.yul\":1245:1247   */\n  0x20\n    /* \"#utility.yul\":1271:1335   */\n  tag_30\n    /* \"#utility.yul\":1327:1334   */\n  dup6\n    /* \"#utility.yul\":1318:1324   */\n  dup3\n    /* \"#utility.yul\":1307:1316   */\n  dup7\n    /* \"#utility.yul\":1303:1325   */\n  add\n    /* \"#utility.yul\":1271:1335   */\n  tag_13\n  jump\t// in\ntag_30:\n    /* \"#utility.yul\":1261:1335   */\n  swap2\n  pop\n    /* \"#utility.yul\":1216:1345   */\n  pop\n    /* \"#utility.yul\":845:1352   */\n  swap3\n  pop\n  swap3\n  swap1\n  pop\n  jump\t// out\n    /* \"CSAMM.sol\":137:3474  contract CSAMM {... */\ntag_6:\n  mload(0x80)\n  mload(0xa0)\n  codecopy(0x00, dataOffset(sub_0), dataSize(sub_0))\n  0x00\n  assignImmutable(\"0xe4b1702d9298fee62dfeccc57d322a463ad55ca201256d01f62b45b2e1c21c10\")\n  0x00\n  assignImmutable(\"0xceebf77a833b30520287ddd9478ff51abbdffa30aa90a8d655dba0e8a79ce0c1\")\n  return(0x00, dataSize(sub_0))\nstop\n\nsub_0: assembly {\n        /* \"CSAMM.sol\":137:3474  contract CSAMM {... */\n      mstore(0x40, 0x80)\n      callvalue\n      dup1\n      iszero\n      tag_1\n      jumpi\n      0x00\n      dup1\n      revert\n    tag_1:\n      pop\n      jumpi(tag_2, lt(calldatasize, 0x04))\n      shr(0xe0, calldataload(0x00))\n      dup1\n      0x70a08231\n      gt\n      tag_12\n      jumpi\n      dup1\n      0x70a08231\n      eq\n      tag_7\n      jumpi\n      dup1\n      0x9c8f9f23\n      eq\n      tag_8\n      jumpi\n      dup1\n      0x9cd441da\n      eq\n      tag_9\n      jumpi\n      dup1\n      0xd004f0f7\n      eq\n      tag_10\n      jumpi\n      dup1\n      0xd21220a7\n      eq\n      tag_11\n      jumpi\n      jump(tag_2)\n    tag_12:\n      dup1\n      0x0dfe1681\n      eq\n      tag_3\n      jumpi\n      dup1\n      0x18160ddd\n      eq\n      tag_4\n      jumpi\n      dup1\n      0x443cb4bc\n      eq\n      tag_5\n      jumpi\n      dup1\n      0x5a76f25e\n      eq\n      tag_6\n      jumpi\n    tag_2:\n      0x00\n      dup1\n      revert\n        /* \"CSAMM.sol\":159:189  IERC20 public immutable token0 */\n    tag_3:\n      tag_13\n      tag_14\n      jump\t// in\n    tag_13:\n      mload(0x40)\n      tag_15\n      swap2\n      swap1\n      tag_16\n      jump\t// in\n    tag_15:\n      mload(0x40)\n      dup1\n      swap2\n      sub\n      swap1\n      return\n        /* \"CSAMM.sol\":291:314  uint public totalSupply */\n    tag_4:\n      tag_17\n      tag_18\n      jump\t// in\n    tag_17:\n      mload(0x40)\n      tag_19\n      swap2\n      swap1\n      tag_20\n      jump\t// in\n    tag_19:\n      mload(0x40)\n      dup1\n      swap2\n      sub\n      swap1\n      return\n        /* \"CSAMM.sol\":235:255  uint public reserve0 */\n    tag_5:\n      tag_21\n      tag_22\n      jump\t// in\n    tag_21:\n      mload(0x40)\n      tag_23\n      swap2\n      swap1\n      tag_20\n      jump\t// in\n    tag_23:\n      mload(0x40)\n      dup1\n      swap2\n      sub\n      swap1\n      return\n        /* \"CSAMM.sol\":262:282  uint public reserve1 */\n    tag_6:\n      tag_24\n      tag_25\n      jump\t// in\n    tag_24:\n      mload(0x40)\n      tag_26\n      swap2\n      swap1\n      tag_20\n      jump\t// in\n    tag_26:\n      mload(0x40)\n      dup1\n      swap2\n      sub\n      swap1\n      return\n        /* \"CSAMM.sol\":321:362  mapping(address => uint) public balanceOf */\n    tag_7:\n      tag_27\n      0x04\n      dup1\n      calldatasize\n      sub\n      dup2\n      add\n      swap1\n      tag_28\n      swap2\n      swap1\n      tag_29\n      jump\t// in\n    tag_28:\n      tag_30\n      jump\t// in\n    tag_27:\n      mload(0x40)\n      tag_31\n      swap2\n      swap1\n      tag_20\n      jump\t// in\n    tag_31:\n      mload(0x40)\n      dup1\n      swap2\n      sub\n      swap1\n      return\n        /* \"CSAMM.sol\":2818:3471  function removeLiquidity(uint _shares) external returns (uint d0,uint d1)  {... */\n    tag_8:\n      tag_32\n      0x04\n      dup1\n      calldatasize\n      sub\n      dup2\n      add\n      swap1\n      tag_33\n      swap2\n      swap1\n      tag_34\n      jump\t// in\n    tag_33:\n      tag_35\n      jump\t// in\n    tag_32:\n      mload(0x40)\n      tag_36\n      swap3\n      swap2\n      swap1\n      tag_37\n      jump\t// in\n    tag_36:\n      mload(0x40)\n      dup1\n      swap2\n      sub\n      swap1\n      return\n        /* \"CSAMM.sol\":1970:2810  function addLiquidity(uint _amount0,uint _amount1) external returns (uint shares){... */\n    tag_9:\n      tag_38\n      0x04\n      dup1\n      calldatasize\n      sub\n      dup2\n      add\n      swap1\n      tag_39\n      swap2\n      swap1\n      tag_40\n      jump\t// in\n    tag_39:\n      tag_41\n      jump\t// in\n    tag_38:\n      mload(0x40)\n      tag_42\n      swap2\n      swap1\n      tag_20\n      jump\t// in\n    tag_42:\n      mload(0x40)\n      dup1\n      swap2\n      sub\n      swap1\n      return\n        /* \"CSAMM.sol\":949:1910  function swap(address tokenIn,uint amountIn) external returns(uint amountOut) {... */\n    tag_10:\n      tag_43\n      0x04\n      dup1\n      calldatasize\n      sub\n      dup2\n      add\n      swap1\n      tag_44\n      swap2\n      swap1\n      tag_45\n      jump\t// in\n    tag_44:\n      tag_46\n      jump\t// in\n    tag_43:\n      mload(0x40)\n      tag_47\n      swap2\n      swap1\n      tag_20\n      jump\t// in\n    tag_47:\n      mload(0x40)\n      dup1\n      swap2\n      sub\n      swap1\n      return\n        /* \"CSAMM.sol\":196:226  IERC20 public immutable token1 */\n    tag_11:\n      tag_48\n      tag_49\n      jump\t// in\n    tag_48:\n      mload(0x40)\n      tag_50\n      swap2\n      swap1\n      tag_16\n      jump\t// in\n    tag_50:\n      mload(0x40)\n      dup1\n      swap2\n      sub\n      swap1\n      return\n        /* \"CSAMM.sol\":159:189  IERC20 public immutable token0 */\n    tag_14:\n      immutable(\"0xceebf77a833b30520287ddd9478ff51abbdffa30aa90a8d655dba0e8a79ce0c1\")\n      dup2\n      jump\t// out\n        /* \"CSAMM.sol\":291:314  uint public totalSupply */\n    tag_18:\n      sload(0x02)\n      dup2\n      jump\t// out\n        /* \"CSAMM.sol\":235:255  uint public reserve0 */\n    tag_22:\n      sload(0x00)\n      dup2\n      jump\t// out\n        /* \"CSAMM.sol\":262:282  uint public reserve1 */\n    tag_25:\n      sload(0x01)\n      dup2\n      jump\t// out\n        /* \"CSAMM.sol\":321:362  mapping(address => uint) public balanceOf */\n    tag_30:\n      mstore(0x20, 0x03)\n      dup1\n      0x00\n      mstore\n      keccak256(0x00, 0x40)\n      0x00\n      swap2\n      pop\n      swap1\n      pop\n      sload\n      dup2\n      jump\t// out\n        /* \"CSAMM.sol\":2818:3471  function removeLiquidity(uint _shares) external returns (uint d0,uint d1)  {... */\n    tag_35:\n        /* \"CSAMM.sol\":2875:2882  uint d0 */\n      0x00\n        /* \"CSAMM.sol\":2883:2890  uint d1 */\n      dup1\n        /* \"CSAMM.sol\":3156:3167  totalSupply */\n      sload(0x02)\n        /* \"CSAMM.sol\":3145:3152  _shares */\n      dup4\n        /* \"CSAMM.sol\":3134:3142  reserve0 */\n      sload(0x00)\n        /* \"CSAMM.sol\":3134:3152  reserve0 * _shares */\n      tag_52\n      swap2\n      swap1\n      tag_53\n      jump\t// in\n    tag_52:\n        /* \"CSAMM.sol\":3133:3167  (reserve0 * _shares) / totalSupply */\n      tag_54\n      swap2\n      swap1\n      tag_55\n      jump\t// in\n    tag_54:\n        /* \"CSAMM.sol\":3128:3167  d0 = (reserve0 * _shares) / totalSupply */\n      swap2\n      pop\n        /* \"CSAMM.sol\":3206:3217  totalSupply */\n      sload(0x02)\n        /* \"CSAMM.sol\":3195:3202  _shares */\n      dup4\n        /* \"CSAMM.sol\":3184:3192  reserve1 */\n      sload(0x01)\n        /* \"CSAMM.sol\":3184:3202  reserve1 * _shares */\n      tag_56\n      swap2\n      swap1\n      tag_53\n      jump\t// in\n    tag_56:\n        /* \"CSAMM.sol\":3183:3217  (reserve1 * _shares) / totalSupply */\n      tag_57\n      swap2\n      swap1\n      tag_55\n      jump\t// in\n    tag_57:\n        /* \"CSAMM.sol\":3178:3217  d1 = (reserve1 * _shares) / totalSupply */\n      swap1\n      pop\n        /* \"CSAMM.sol\":3230:3255  _burn(msg.sender,_shares) */\n      tag_58\n        /* \"CSAMM.sol\":3236:3246  msg.sender */\n      caller\n        /* \"CSAMM.sol\":3247:3254  _shares */\n      dup5\n        /* \"CSAMM.sol\":3230:3235  _burn */\n      tag_59\n        /* \"CSAMM.sol\":3230:3255  _burn(msg.sender,_shares) */\n      jump\t// in\n    tag_58:\n        /* \"CSAMM.sol\":3266:3301  update(reserve0 - d0,reserve1 - d1) */\n      tag_60\n        /* \"CSAMM.sol\":3284:3286  d0 */\n      dup3\n        /* \"CSAMM.sol\":3273:3281  reserve0 */\n      sload(0x00)\n        /* \"CSAMM.sol\":3273:3286  reserve0 - d0 */\n      tag_61\n      swap2\n      swap1\n      tag_62\n      jump\t// in\n    tag_61:\n        /* \"CSAMM.sol\":3298:3300  d1 */\n      dup3\n        /* \"CSAMM.sol\":3287:3295  reserve1 */\n      sload(0x01)\n        /* \"CSAMM.sol\":3287:3300  reserve1 - d1 */\n      tag_63\n      swap2\n      swap1\n      tag_62\n      jump\t// in\n    tag_63:\n        /* \"CSAMM.sol\":3266:3272  update */\n      tag_64\n        /* \"CSAMM.sol\":3266:3301  update(reserve0 - d0,reserve1 - d1) */\n      jump\t// in\n    tag_60:\n        /* \"CSAMM.sol\":3323:3324  0 */\n      0x00\n        /* \"CSAMM.sol\":3318:3320  d0 */\n      dup3\n        /* \"CSAMM.sol\":3318:3324  d0 > 0 */\n      gt\n        /* \"CSAMM.sol\":3314:3383  if (d0 > 0) {... */\n      iszero\n      tag_65\n      jumpi\n        /* \"CSAMM.sol\":3341:3347  token0 */\n      immutable(\"0xceebf77a833b30520287ddd9478ff51abbdffa30aa90a8d655dba0e8a79ce0c1\")\n        /* \"CSAMM.sol\":3341:3356  token0.transfer */\n      0xffffffffffffffffffffffffffffffffffffffff\n      and\n      0xa9059cbb\n        /* \"CSAMM.sol\":3357:3367  msg.sender */\n      caller\n        /* \"CSAMM.sol\":3368:3370  d0 */\n      dup5\n        /* \"CSAMM.sol\":3341:3371  token0.transfer(msg.sender,d0) */\n      mload(0x40)\n      dup4\n      0xffffffff\n      and\n      0xe0\n      shl\n      dup2\n      mstore\n      0x04\n      add\n      tag_66\n      swap3\n      swap2\n      swap1\n      tag_67\n      jump\t// in\n    tag_66:\n      0x20\n      mload(0x40)\n      dup1\n      dup4\n      sub\n      dup2\n      0x00\n      dup8\n      gas\n      call\n      iszero\n      dup1\n      iszero\n      tag_69\n      jumpi\n      returndatasize\n      0x00\n      dup1\n      returndatacopy\n      revert(0x00, returndatasize)\n    tag_69:\n      pop\n      pop\n      pop\n      pop\n      mload(0x40)\n      returndatasize\n      not(0x1f)\n      0x1f\n      dup3\n      add\n      and\n      dup3\n      add\n      dup1\n      0x40\n      mstore\n      pop\n      dup2\n      add\n      swap1\n      tag_70\n      swap2\n      swap1\n      tag_71\n      jump\t// in\n    tag_70:\n      pop\n        /* \"CSAMM.sol\":3314:3383  if (d0 > 0) {... */\n    tag_65:\n        /* \"CSAMM.sol\":3404:3405  0 */\n      0x00\n        /* \"CSAMM.sol\":3399:3401  d1 */\n      dup2\n        /* \"CSAMM.sol\":3399:3405  d1 > 0 */\n      gt\n        /* \"CSAMM.sol\":3395:3464  if (d1 > 0) {... */\n      iszero\n      tag_72\n      jumpi\n        /* \"CSAMM.sol\":3422:3428  token1 */\n      immutable(\"0xe4b1702d9298fee62dfeccc57d322a463ad55ca201256d01f62b45b2e1c21c10\")\n        /* \"CSAMM.sol\":3422:3437  token1.transfer */\n      0xffffffffffffffffffffffffffffffffffffffff\n      and\n      0xa9059cbb\n        /* \"CSAMM.sol\":3438:3448  msg.sender */\n      caller\n        /* \"CSAMM.sol\":3449:3451  d1 */\n      dup4\n        /* \"CSAMM.sol\":3422:3452  token1.transfer(msg.sender,d1) */\n      mload(0x40)\n      dup4\n      0xffffffff\n      and\n      0xe0\n      shl\n      dup2\n      mstore\n      0x04\n      add\n      tag_73\n      swap3\n      swap2\n      swap1\n      tag_67\n      jump\t// in\n    tag_73:\n      0x20\n      mload(0x40)\n      dup1\n      dup4\n      sub\n      dup2\n      0x00\n      dup8\n      gas\n      call\n      iszero\n      dup1\n      iszero\n      tag_75\n      jumpi\n      returndatasize\n      0x00\n      dup1\n      returndatacopy\n      revert(0x00, returndatasize)\n    tag_75:\n      pop\n      pop\n      pop\n      pop\n      mload(0x40)\n      returndatasize\n      not(0x1f)\n      0x1f\n      dup3\n      add\n      and\n      dup3\n      add\n      dup1\n      0x40\n      mstore\n      pop\n      dup2\n      add\n      swap1\n      tag_76\n      swap2\n      swap1\n      tag_71\n      jump\t// in\n    tag_76:\n      pop\n        /* \"CSAMM.sol\":3395:3464  if (d1 > 0) {... */\n    tag_72:\n        /* \"CSAMM.sol\":2818:3471  function removeLiquidity(uint _shares) external returns (uint d0,uint d1)  {... */\n      swap2\n      pop\n      swap2\n      jump\t// out\n        /* \"CSAMM.sol\":1970:2810  function addLiquidity(uint _amount0,uint _amount1) external returns (uint shares){... */\n    tag_41:\n        /* \"CSAMM.sol\":2039:2050  uint shares */\n      0x00\n        /* \"CSAMM.sol\":2062:2068  token0 */\n      immutable(\"0xceebf77a833b30520287ddd9478ff51abbdffa30aa90a8d655dba0e8a79ce0c1\")\n        /* \"CSAMM.sol\":2062:2081  token0.transferFrom */\n      0xffffffffffffffffffffffffffffffffffffffff\n      and\n      0x23b872dd\n        /* \"CSAMM.sol\":2082:2092  msg.sender */\n      caller\n        /* \"CSAMM.sol\":2101:2105  this */\n      address\n        /* \"CSAMM.sol\":2107:2115  _amount0 */\n      dup7\n        /* \"CSAMM.sol\":2062:2116  token0.transferFrom(msg.sender,address(this),_amount0) */\n      mload(0x40)\n      dup5\n      0xffffffff\n      and\n      0xe0\n      shl\n      dup2\n      mstore\n      0x04\n      add\n      tag_78\n      swap4\n      swap3\n      swap2\n      swap1\n      tag_79\n      jump\t// in\n    tag_78:\n      0x20\n      mload(0x40)\n      dup1\n      dup4\n      sub\n      dup2\n      0x00\n      dup8\n      gas\n      call\n      iszero\n      dup1\n      iszero\n      tag_81\n      jumpi\n      returndatasize\n      0x00\n      dup1\n      returndatacopy\n      revert(0x00, returndatasize)\n    tag_81:\n      pop\n      pop\n      pop\n      pop\n      mload(0x40)\n      returndatasize\n      not(0x1f)\n      0x1f\n      dup3\n      add\n      and\n      dup3\n      add\n      dup1\n      0x40\n      mstore\n      pop\n      dup2\n      add\n      swap1\n      tag_82\n      swap2\n      swap1\n      tag_71\n      jump\t// in\n    tag_82:\n      pop\n        /* \"CSAMM.sol\":2127:2133  token1 */\n      immutable(\"0xe4b1702d9298fee62dfeccc57d322a463ad55ca201256d01f62b45b2e1c21c10\")\n        /* \"CSAMM.sol\":2127:2146  token1.transferFrom */\n      0xffffffffffffffffffffffffffffffffffffffff\n      and\n      0x23b872dd\n        /* \"CSAMM.sol\":2147:2157  msg.sender */\n      caller\n        /* \"CSAMM.sol\":2166:2170  this */\n      address\n        /* \"CSAMM.sol\":2172:2180  _amount1 */\n      dup6\n        /* \"CSAMM.sol\":2127:2181  token1.transferFrom(msg.sender,address(this),_amount1) */\n      mload(0x40)\n      dup5\n      0xffffffff\n      and\n      0xe0\n      shl\n      dup2\n      mstore\n      0x04\n      add\n      tag_83\n      swap4\n      swap3\n      swap2\n      swap1\n      tag_79\n      jump\t// in\n    tag_83:\n      0x20\n      mload(0x40)\n      dup1\n      dup4\n      sub\n      dup2\n      0x00\n      dup8\n      gas\n      call\n      iszero\n      dup1\n      iszero\n      tag_85\n      jumpi\n      returndatasize\n      0x00\n      dup1\n      returndatacopy\n      revert(0x00, returndatasize)\n    tag_85:\n      pop\n      pop\n      pop\n      pop\n      mload(0x40)\n      returndatasize\n      not(0x1f)\n      0x1f\n      dup3\n      add\n      and\n      dup3\n      add\n      dup1\n      0x40\n      mstore\n      pop\n      dup2\n      add\n      swap1\n      tag_86\n      swap2\n      swap1\n      tag_71\n      jump\t// in\n    tag_86:\n      pop\n        /* \"CSAMM.sol\":2194:2203  uint bal0 */\n      0x00\n        /* \"CSAMM.sol\":2206:2212  token0 */\n      immutable(\"0xceebf77a833b30520287ddd9478ff51abbdffa30aa90a8d655dba0e8a79ce0c1\")\n        /* \"CSAMM.sol\":2206:2222  token0.balanceOf */\n      0xffffffffffffffffffffffffffffffffffffffff\n      and\n      0x70a08231\n        /* \"CSAMM.sol\":2231:2235  this */\n      address\n        /* \"CSAMM.sol\":2206:2237  token0.balanceOf(address(this)) */\n      mload(0x40)\n      dup3\n      0xffffffff\n      and\n      0xe0\n      shl\n      dup2\n      mstore\n      0x04\n      add\n      tag_87\n      swap2\n      swap1\n      tag_88\n      jump\t// in\n    tag_87:\n      0x20\n      mload(0x40)\n      dup1\n      dup4\n      sub\n      dup2\n      dup7\n      gas\n      staticcall\n      iszero\n      dup1\n      iszero\n      tag_90\n      jumpi\n      returndatasize\n      0x00\n      dup1\n      returndatacopy\n      revert(0x00, returndatasize)\n    tag_90:\n      pop\n      pop\n      pop\n      pop\n      mload(0x40)\n      returndatasize\n      not(0x1f)\n      0x1f\n      dup3\n      add\n      and\n      dup3\n      add\n      dup1\n      0x40\n      mstore\n      pop\n      dup2\n      add\n      swap1\n      tag_91\n      swap2\n      swap1\n      tag_92\n      jump\t// in\n    tag_91:\n        /* \"CSAMM.sol\":2194:2237  uint bal0 = token0.balanceOf(address(this)) */\n      swap1\n      pop\n        /* \"CSAMM.sol\":2248:2257  uint bal1 */\n      0x00\n        /* \"CSAMM.sol\":2260:2266  token1 */\n      immutable(\"0xe4b1702d9298fee62dfeccc57d322a463ad55ca201256d01f62b45b2e1c21c10\")\n        /* \"CSAMM.sol\":2260:2276  token1.balanceOf */\n      0xffffffffffffffffffffffffffffffffffffffff\n      and\n      0x70a08231\n        /* \"CSAMM.sol\":2285:2289  this */\n      address\n        /* \"CSAMM.sol\":2260:2291  token1.balanceOf(address(this)) */\n      mload(0x40)\n      dup3\n      0xffffffff\n      and\n      0xe0\n      shl\n      dup2\n      mstore\n      0x04\n      add\n      tag_93\n      swap2\n      swap1\n      tag_88\n      jump\t// in\n    tag_93:\n      0x20\n      mload(0x40)\n      dup1\n      dup4\n      sub\n      dup2\n      dup7\n      gas\n      staticcall\n      iszero\n      dup1\n      iszero\n      tag_95\n      jumpi\n      returndatasize\n      0x00\n      dup1\n      returndatacopy\n      revert(0x00, returndatasize)\n    tag_95:\n      pop\n      pop\n      pop\n      pop\n      mload(0x40)\n      returndatasize\n      not(0x1f)\n      0x1f\n      dup3\n      add\n      and\n      dup3\n      add\n      dup1\n      0x40\n      mstore\n      pop\n      dup2\n      add\n      swap1\n      tag_96\n      swap2\n      swap1\n      tag_92\n      jump\t// in\n    tag_96:\n        /* \"CSAMM.sol\":2248:2291  uint bal1 = token1.balanceOf(address(this)) */\n      swap1\n      pop\n        /* \"CSAMM.sol\":2304:2311  uint d0 */\n      0x00\n        /* \"CSAMM.sol\":2321:2329  reserve0 */\n      dup1\n      sload\n        /* \"CSAMM.sol\":2314:2318  bal0 */\n      dup4\n        /* \"CSAMM.sol\":2314:2329  bal0 - reserve0 */\n      tag_97\n      swap2\n      swap1\n      tag_62\n      jump\t// in\n    tag_97:\n        /* \"CSAMM.sol\":2304:2329  uint d0 = bal0 - reserve0 */\n      swap1\n      pop\n        /* \"CSAMM.sol\":2340:2347  uint d1 */\n      0x00\n        /* \"CSAMM.sol\":2357:2365  reserve1 */\n      sload(0x01)\n        /* \"CSAMM.sol\":2350:2354  bal1 */\n      dup4\n        /* \"CSAMM.sol\":2350:2365  bal1 - reserve1 */\n      tag_98\n      swap2\n      swap1\n      tag_62\n      jump\t// in\n    tag_98:\n        /* \"CSAMM.sol\":2340:2365  uint d1 = bal1 - reserve1 */\n      swap1\n      pop\n        /* \"CSAMM.sol\":2547:2548  0 */\n      0x00\n        /* \"CSAMM.sol\":2532:2543  totalSupply */\n      sload(0x02)\n        /* \"CSAMM.sol\":2532:2548  totalSupply == 0 */\n      sub\n        /* \"CSAMM.sol\":2529:2693  if(totalSupply == 0) {... */\n      tag_99\n      jumpi\n        /* \"CSAMM.sol\":2579:2581  d1 */\n      dup1\n        /* \"CSAMM.sol\":2574:2576  d0 */\n      dup3\n        /* \"CSAMM.sol\":2574:2581  d0 + d1 */\n      tag_100\n      swap2\n      swap1\n      tag_101\n      jump\t// in\n    tag_100:\n        /* \"CSAMM.sol\":2565:2581  shares = d0 + d1 */\n      swap5\n      pop\n        /* \"CSAMM.sol\":2529:2693  if(totalSupply == 0) {... */\n      jump(tag_102)\n    tag_99:\n        /* \"CSAMM.sol\":2672:2680  reserve1 */\n      sload(0x01)\n        /* \"CSAMM.sol\":2661:2669  reserve0 */\n      sload(0x00)\n        /* \"CSAMM.sol\":2661:2680  reserve0 + reserve1 */\n      tag_103\n      swap2\n      swap1\n      tag_101\n      jump\t// in\n    tag_103:\n        /* \"CSAMM.sol\":2645:2656  totalSupply */\n      sload(0x02)\n        /* \"CSAMM.sol\":2639:2641  d1 */\n      dup3\n        /* \"CSAMM.sol\":2634:2636  d0 */\n      dup5\n        /* \"CSAMM.sol\":2634:2641  d0 + d1 */\n      tag_104\n      swap2\n      swap1\n      tag_101\n      jump\t// in\n    tag_104:\n        /* \"CSAMM.sol\":2633:2656  (d0 + d1) * totalSupply */\n      tag_105\n      swap2\n      swap1\n      tag_53\n      jump\t// in\n    tag_105:\n        /* \"CSAMM.sol\":2632:2681  ((d0 + d1) * totalSupply) / (reserve0 + reserve1) */\n      tag_106\n      swap2\n      swap1\n      tag_55\n      jump\t// in\n    tag_106:\n        /* \"CSAMM.sol\":2623:2681  shares = ((d0 + d1) * totalSupply) / (reserve0 + reserve1) */\n      swap5\n      pop\n        /* \"CSAMM.sol\":2529:2693  if(totalSupply == 0) {... */\n    tag_102:\n        /* \"CSAMM.sol\":2722:2723  0 */\n      0x00\n        /* \"CSAMM.sol\":2713:2719  shares */\n      dup6\n        /* \"CSAMM.sol\":2713:2723  shares > 0 */\n      gt\n        /* \"CSAMM.sol\":2705:2737  require(shares > 0,\"shares = 0\") */\n      tag_107\n      jumpi\n      mload(0x40)\n      0x08c379a000000000000000000000000000000000000000000000000000000000\n      dup2\n      mstore\n      0x04\n      add\n      tag_108\n      swap1\n      tag_109\n      jump\t// in\n    tag_108:\n      mload(0x40)\n      dup1\n      swap2\n      sub\n      swap1\n      revert\n    tag_107:\n        /* \"CSAMM.sol\":2748:2772  _mint(msg.sender,shares) */\n      tag_110\n        /* \"CSAMM.sol\":2754:2764  msg.sender */\n      caller\n        /* \"CSAMM.sol\":2765:2771  shares */\n      dup7\n        /* \"CSAMM.sol\":2748:2753  _mint */\n      tag_111\n        /* \"CSAMM.sol\":2748:2772  _mint(msg.sender,shares) */\n      jump\t// in\n    tag_110:\n        /* \"CSAMM.sol\":2785:2802  update(bal0,bal1) */\n      tag_112\n        /* \"CSAMM.sol\":2792:2796  bal0 */\n      dup5\n        /* \"CSAMM.sol\":2797:2801  bal1 */\n      dup5\n        /* \"CSAMM.sol\":2785:2791  update */\n      tag_64\n        /* \"CSAMM.sol\":2785:2802  update(bal0,bal1) */\n      jump\t// in\n    tag_112:\n        /* \"CSAMM.sol\":2051:2810  {... */\n      pop\n      pop\n      pop\n      pop\n        /* \"CSAMM.sol\":1970:2810  function addLiquidity(uint _amount0,uint _amount1) external returns (uint shares){... */\n      swap3\n      swap2\n      pop\n      pop\n      jump\t// out\n        /* \"CSAMM.sol\":949:1910  function swap(address tokenIn,uint amountIn) external returns(uint amountOut) {... */\n    tag_46:\n        /* \"CSAMM.sol\":1011:1025  uint amountOut */\n      0x00\n        /* \"CSAMM.sol\":1065:1071  token0 */\n      immutable(\"0xceebf77a833b30520287ddd9478ff51abbdffa30aa90a8d655dba0e8a79ce0c1\")\n        /* \"CSAMM.sol\":1046:1072  tokenIn == address(token0) */\n      0xffffffffffffffffffffffffffffffffffffffff\n      and\n        /* \"CSAMM.sol\":1046:1053  tokenIn */\n      dup4\n        /* \"CSAMM.sol\":1046:1072  tokenIn == address(token0) */\n      0xffffffffffffffffffffffffffffffffffffffff\n      and\n      eq\n        /* \"CSAMM.sol\":1046:1102  tokenIn == address(token0) || tokenIn == address(token1) */\n      dup1\n      tag_114\n      jumpi\n      pop\n        /* \"CSAMM.sol\":1095:1101  token1 */\n      immutable(\"0xe4b1702d9298fee62dfeccc57d322a463ad55ca201256d01f62b45b2e1c21c10\")\n        /* \"CSAMM.sol\":1076:1102  tokenIn == address(token1) */\n      0xffffffffffffffffffffffffffffffffffffffff\n      and\n        /* \"CSAMM.sol\":1076:1083  tokenIn */\n      dup4\n        /* \"CSAMM.sol\":1076:1102  tokenIn == address(token1) */\n      0xffffffffffffffffffffffffffffffffffffffff\n      and\n      eq\n        /* \"CSAMM.sol\":1046:1102  tokenIn == address(token0) || tokenIn == address(token1) */\n    tag_114:\n        /* \"CSAMM.sol\":1038:1119  require(tokenIn == address(token0) || tokenIn == address(token1),\"invalid token\") */\n      tag_115\n      jumpi\n      mload(0x40)\n      0x08c379a000000000000000000000000000000000000000000000000000000000\n      dup2\n      mstore\n      0x04\n      add\n      tag_116\n      swap1\n      tag_117\n      jump\t// in\n    tag_116:\n      mload(0x40)\n      dup1\n      swap2\n      sub\n      swap1\n      revert\n    tag_115:\n        /* \"CSAMM.sol\":1132:1145  bool istoken0 */\n      0x00\n        /* \"CSAMM.sol\":1167:1173  token0 */\n      immutable(\"0xceebf77a833b30520287ddd9478ff51abbdffa30aa90a8d655dba0e8a79ce0c1\")\n        /* \"CSAMM.sol\":1148:1174  tokenIn == address(token0) */\n      0xffffffffffffffffffffffffffffffffffffffff\n      and\n        /* \"CSAMM.sol\":1148:1155  tokenIn */\n      dup5\n        /* \"CSAMM.sol\":1148:1174  tokenIn == address(token0) */\n      0xffffffffffffffffffffffffffffffffffffffff\n      and\n      eq\n        /* \"CSAMM.sol\":1132:1174  bool istoken0 = tokenIn == address(token0) */\n      swap1\n      pop\n        /* \"CSAMM.sol\":1186:1200  IERC20 tokenin */\n      0x00\n        /* \"CSAMM.sol\":1203:1218  IERC20 tokenout */\n      dup1\n        /* \"CSAMM.sol\":1220:1230  uint resIn */\n      0x00\n        /* \"CSAMM.sol\":1232:1243  uint resOut */\n      dup1\n        /* \"CSAMM.sol\":1247:1255  istoken0 */\n      dup5\n        /* \"CSAMM.sol\":1247:1329  istoken0 ? (token0,token1,reserve0 ,reserve1 ) : (token1,token0,reserve1,reserve0) */\n      tag_118\n      jumpi\n        /* \"CSAMM.sol\":1297:1303  token1 */\n      immutable(\"0xe4b1702d9298fee62dfeccc57d322a463ad55ca201256d01f62b45b2e1c21c10\")\n        /* \"CSAMM.sol\":1304:1310  token0 */\n      immutable(\"0xceebf77a833b30520287ddd9478ff51abbdffa30aa90a8d655dba0e8a79ce0c1\")\n        /* \"CSAMM.sol\":1311:1319  reserve1 */\n      sload(0x01)\n        /* \"CSAMM.sol\":1320:1328  reserve0 */\n      sload(0x00)\n        /* \"CSAMM.sol\":1247:1329  istoken0 ? (token0,token1,reserve0 ,reserve1 ) : (token1,token0,reserve1,reserve0) */\n      jump(tag_119)\n    tag_118:\n        /* \"CSAMM.sol\":1259:1265  token0 */\n      immutable(\"0xceebf77a833b30520287ddd9478ff51abbdffa30aa90a8d655dba0e8a79ce0c1\")\n        /* \"CSAMM.sol\":1266:1272  token1 */\n      immutable(\"0xe4b1702d9298fee62dfeccc57d322a463ad55ca201256d01f62b45b2e1c21c10\")\n        /* \"CSAMM.sol\":1273:1281  reserve0 */\n      sload(0x00)\n        /* \"CSAMM.sol\":1283:1291  reserve1 */\n      sload(0x01)\n        /* \"CSAMM.sol\":1247:1329  istoken0 ? (token0,token1,reserve0 ,reserve1 ) : (token1,token0,reserve1,reserve0) */\n    tag_119:\n        /* \"CSAMM.sol\":1185:1329  (IERC20 tokenin , IERC20 tokenout ,uint resIn ,uint resOut) = istoken0 ? (token0,token1,reserve0 ,reserve1 ) : (token1,token0,reserve1,reserve0) */\n      swap4\n      pop\n      swap4\n      pop\n      swap4\n      pop\n      swap4\n      pop\n        /* \"CSAMM.sol\":1342:1349  tokenin */\n      dup4\n        /* \"CSAMM.sol\":1342:1362  tokenin.transferFrom */\n      0xffffffffffffffffffffffffffffffffffffffff\n      and\n      0x23b872dd\n        /* \"CSAMM.sol\":1363:1373  msg.sender */\n      caller\n        /* \"CSAMM.sol\":1383:1387  this */\n      address\n        /* \"CSAMM.sol\":1390:1398  amountIn */\n      dup11\n        /* \"CSAMM.sol\":1342:1399  tokenin.transferFrom(msg.sender, address(this), amountIn) */\n      mload(0x40)\n      dup5\n      0xffffffff\n      and\n      0xe0\n      shl\n      dup2\n      mstore\n      0x04\n      add\n      tag_120\n      swap4\n      swap3\n      swap2\n      swap1\n      tag_79\n      jump\t// in\n    tag_120:\n      0x20\n      mload(0x40)\n      dup1\n      dup4\n      sub\n      dup2\n      0x00\n      dup8\n      gas\n      call\n      iszero\n      dup1\n      iszero\n      tag_122\n      jumpi\n      returndatasize\n      0x00\n      dup1\n      returndatacopy\n      revert(0x00, returndatasize)\n    tag_122:\n      pop\n      pop\n      pop\n      pop\n      mload(0x40)\n      returndatasize\n      not(0x1f)\n      0x1f\n      dup3\n      add\n      and\n      dup3\n      add\n      dup1\n      0x40\n      mstore\n      pop\n      dup2\n      add\n      swap1\n      tag_123\n      swap2\n      swap1\n      tag_71\n      jump\t// in\n    tag_123:\n      pop\n        /* \"CSAMM.sol\":1410:1421  uint amount */\n      0x00\n        /* \"CSAMM.sol\":1459:1464  resIn */\n      dup3\n        /* \"CSAMM.sol\":1424:1431  tokenin */\n      dup6\n        /* \"CSAMM.sol\":1424:1441  tokenin.balanceOf */\n      0xffffffffffffffffffffffffffffffffffffffff\n      and\n      0x70a08231\n        /* \"CSAMM.sol\":1450:1454  this */\n      address\n        /* \"CSAMM.sol\":1424:1456  tokenin.balanceOf(address(this)) */\n      mload(0x40)\n      dup3\n      0xffffffff\n      and\n      0xe0\n      shl\n      dup2\n      mstore\n      0x04\n      add\n      tag_124\n      swap2\n      swap1\n      tag_88\n      jump\t// in\n    tag_124:\n      0x20\n      mload(0x40)\n      dup1\n      dup4\n      sub\n      dup2\n      dup7\n      gas\n      staticcall\n      iszero\n      dup1\n      iszero\n      tag_126\n      jumpi\n      returndatasize\n      0x00\n      dup1\n      returndatacopy\n      revert(0x00, returndatasize)\n    tag_126:\n      pop\n      pop\n      pop\n      pop\n      mload(0x40)\n      returndatasize\n      not(0x1f)\n      0x1f\n      dup3\n      add\n      and\n      dup3\n      add\n      dup1\n      0x40\n      mstore\n      pop\n      dup2\n      add\n      swap1\n      tag_127\n      swap2\n      swap1\n      tag_92\n      jump\t// in\n    tag_127:\n        /* \"CSAMM.sol\":1424:1464  tokenin.balanceOf(address(this)) - resIn */\n      tag_128\n      swap2\n      swap1\n      tag_62\n      jump\t// in\n    tag_128:\n        /* \"CSAMM.sol\":1410:1464  uint amount = tokenin.balanceOf(address(this)) - resIn */\n      swap1\n      pop\n        /* \"CSAMM.sol\":1597:1601  1000 */\n      0x03e8\n        /* \"CSAMM.sol\":1590:1593  997 */\n      0x03e5\n        /* \"CSAMM.sol\":1581:1587  amount */\n      dup3\n        /* \"CSAMM.sol\":1581:1593  amount * 997 */\n      tag_129\n      swap2\n      swap1\n      tag_53\n      jump\t// in\n    tag_129:\n        /* \"CSAMM.sol\":1580:1601  (amount * 997) / 1000 */\n      tag_130\n      swap2\n      swap1\n      tag_55\n      jump\t// in\n    tag_130:\n        /* \"CSAMM.sol\":1568:1601  amountOut = (amount * 997) / 1000 */\n      swap7\n      pop\n        /* \"CSAMM.sol\":1656:1665  uint res0 */\n      0x00\n        /* \"CSAMM.sol\":1667:1676  uint res1 */\n      dup1\n        /* \"CSAMM.sol\":1680:1688  istoken0 */\n      dup8\n        /* \"CSAMM.sol\":1680:1786  istoken0 ? ... */\n      tag_131\n      jumpi\n        /* \"CSAMM.sol\":1757:1766  amountOut */\n      dup9\n        /* \"CSAMM.sol\":1748:1754  resOut */\n      dup5\n        /* \"CSAMM.sol\":1748:1766  resOut - amountOut */\n      tag_132\n      swap2\n      swap1\n      tag_62\n      jump\t// in\n    tag_132:\n        /* \"CSAMM.sol\":1777:1785  amountIn */\n      dup11\n        /* \"CSAMM.sol\":1769:1774  resIn */\n      dup7\n        /* \"CSAMM.sol\":1769:1785  resIn + amountIn */\n      tag_133\n      swap2\n      swap1\n      tag_101\n      jump\t// in\n    tag_133:\n        /* \"CSAMM.sol\":1680:1786  istoken0 ? ... */\n      jump(tag_134)\n    tag_131:\n        /* \"CSAMM.sol\":1714:1722  amountIn */\n      dup10\n        /* \"CSAMM.sol\":1706:1711  resIn */\n      dup6\n        /* \"CSAMM.sol\":1706:1722  resIn + amountIn */\n      tag_135\n      swap2\n      swap1\n      tag_101\n      jump\t// in\n    tag_135:\n        /* \"CSAMM.sol\":1734:1743  amountOut */\n      dup10\n        /* \"CSAMM.sol\":1725:1731  resOut */\n      dup6\n        /* \"CSAMM.sol\":1725:1743  resOut - amountOut */\n      tag_136\n      swap2\n      swap1\n      tag_62\n      jump\t// in\n    tag_136:\n        /* \"CSAMM.sol\":1680:1786  istoken0 ? ... */\n    tag_134:\n        /* \"CSAMM.sol\":1655:1786  (uint res0 ,uint res1) = istoken0 ? ... */\n      swap2\n      pop\n      swap2\n      pop\n        /* \"CSAMM.sol\":1799:1816  update(res0,res1) */\n      tag_137\n        /* \"CSAMM.sol\":1806:1810  res0 */\n      dup3\n        /* \"CSAMM.sol\":1811:1815  res1 */\n      dup3\n        /* \"CSAMM.sol\":1799:1805  update */\n      tag_64\n        /* \"CSAMM.sol\":1799:1816  update(res0,res1) */\n      jump\t// in\n    tag_137:\n        /* \"CSAMM.sol\":1862:1870  tokenout */\n      dup6\n        /* \"CSAMM.sol\":1862:1879  tokenout.transfer */\n      0xffffffffffffffffffffffffffffffffffffffff\n      and\n      0xa9059cbb\n        /* \"CSAMM.sol\":1880:1890  msg.sender */\n      caller\n        /* \"CSAMM.sol\":1892:1901  amountOut */\n      dup12\n        /* \"CSAMM.sol\":1862:1902  tokenout.transfer(msg.sender, amountOut) */\n      mload(0x40)\n      dup4\n      0xffffffff\n      and\n      0xe0\n      shl\n      dup2\n      mstore\n      0x04\n      add\n      tag_138\n      swap3\n      swap2\n      swap1\n      tag_67\n      jump\t// in\n    tag_138:\n      0x20\n      mload(0x40)\n      dup1\n      dup4\n      sub\n      dup2\n      0x00\n      dup8\n      gas\n      call\n      iszero\n      dup1\n      iszero\n      tag_140\n      jumpi\n      returndatasize\n      0x00\n      dup1\n      returndatacopy\n      revert(0x00, returndatasize)\n    tag_140:\n      pop\n      pop\n      pop\n      pop\n      mload(0x40)\n      returndatasize\n      not(0x1f)\n      0x1f\n      dup3\n      add\n      and\n      dup3\n      add\n      dup1\n      0x40\n      mstore\n      pop\n      dup2\n      add\n      swap1\n      tag_141\n      swap2\n      swap1\n      tag_71\n      jump\t// in\n    tag_141:\n      pop\n        /* \"CSAMM.sol\":1027:1910  {... */\n      pop\n      pop\n      pop\n      pop\n      pop\n      pop\n      pop\n      pop\n        /* \"CSAMM.sol\":949:1910  function swap(address tokenIn,uint amountIn) external returns(uint amountOut) {... */\n      swap3\n      swap2\n      pop\n      pop\n      jump\t// out\n        /* \"CSAMM.sol\":196:226  IERC20 public immutable token1 */\n    tag_49:\n      immutable(\"0xe4b1702d9298fee62dfeccc57d322a463ad55ca201256d01f62b45b2e1c21c10\")\n      dup2\n      jump\t// out\n        /* \"CSAMM.sol\":636:766  function _burn(address _from,uint _amount) private {... */\n    tag_59:\n        /* \"CSAMM.sol\":718:725  _amount */\n      dup1\n        /* \"CSAMM.sol\":698:707  balanceOf */\n      0x03\n        /* \"CSAMM.sol\":698:714  balanceOf[_from] */\n      0x00\n        /* \"CSAMM.sol\":708:713  _from */\n      dup5\n        /* \"CSAMM.sol\":698:714  balanceOf[_from] */\n      0xffffffffffffffffffffffffffffffffffffffff\n      and\n      0xffffffffffffffffffffffffffffffffffffffff\n      and\n      dup2\n      mstore\n      0x20\n      add\n      swap1\n      dup2\n      mstore\n      0x20\n      add\n      0x00\n      keccak256\n      0x00\n        /* \"CSAMM.sol\":698:725  balanceOf[_from] -= _amount */\n      dup3\n      dup3\n      sload\n      tag_143\n      swap2\n      swap1\n      tag_62\n      jump\t// in\n    tag_143:\n      swap3\n      pop\n      pop\n      dup2\n      swap1\n      sstore\n      pop\n        /* \"CSAMM.sol\":751:758  _amount */\n      dup1\n        /* \"CSAMM.sol\":736:747  totalSupply */\n      0x02\n      0x00\n        /* \"CSAMM.sol\":736:758  totalSupply -= _amount */\n      dup3\n      dup3\n      sload\n      tag_144\n      swap2\n      swap1\n      tag_62\n      jump\t// in\n    tag_144:\n      swap3\n      pop\n      pop\n      dup2\n      swap1\n      sstore\n      pop\n        /* \"CSAMM.sol\":636:766  function _burn(address _from,uint _amount) private {... */\n      pop\n      pop\n      jump\t// out\n        /* \"CSAMM.sol\":774:883  function update(uint _res0,uint _res1) private {... */\n    tag_64:\n        /* \"CSAMM.sol\":843:848  _res0 */\n      dup2\n        /* \"CSAMM.sol\":832:840  reserve0 */\n      0x00\n        /* \"CSAMM.sol\":832:848  reserve0 = _res0 */\n      dup2\n      swap1\n      sstore\n      pop\n        /* \"CSAMM.sol\":870:875  _res1 */\n      dup1\n        /* \"CSAMM.sol\":859:867  reserve1 */\n      0x01\n        /* \"CSAMM.sol\":859:875  reserve1 = _res1 */\n      dup2\n      swap1\n      sstore\n      pop\n        /* \"CSAMM.sol\":774:883  function update(uint _res0,uint _res1) private {... */\n      pop\n      pop\n      jump\t// out\n        /* \"CSAMM.sol\":502:628  function _mint(address _to,uint _amount) private {... */\n    tag_111:\n        /* \"CSAMM.sol\":580:587  _amount */\n      dup1\n        /* \"CSAMM.sol\":562:571  balanceOf */\n      0x03\n        /* \"CSAMM.sol\":562:576  balanceOf[_to] */\n      0x00\n        /* \"CSAMM.sol\":572:575  _to */\n      dup5\n        /* \"CSAMM.sol\":562:576  balanceOf[_to] */\n      0xffffffffffffffffffffffffffffffffffffffff\n      and\n      0xffffffffffffffffffffffffffffffffffffffff\n      and\n      dup2\n      mstore\n      0x20\n      add\n      swap1\n      dup2\n      mstore\n      0x20\n      add\n      0x00\n      keccak256\n      0x00\n        /* \"CSAMM.sol\":562:587  balanceOf[_to] += _amount */\n      dup3\n      dup3\n      sload\n      tag_147\n      swap2\n      swap1\n      tag_101\n      jump\t// in\n    tag_147:\n      swap3\n      pop\n      pop\n      dup2\n      swap1\n      sstore\n      pop\n        /* \"CSAMM.sol\":613:620  _amount */\n      dup1\n        /* \"CSAMM.sol\":598:609  totalSupply */\n      0x02\n      0x00\n        /* \"CSAMM.sol\":598:620  totalSupply += _amount */\n      dup3\n      dup3\n      sload\n      tag_148\n      swap2\n      swap1\n      tag_101\n      jump\t// in\n    tag_148:\n      swap3\n      pop\n      pop\n      dup2\n      swap1\n      sstore\n      pop\n        /* \"CSAMM.sol\":502:628  function _mint(address _to,uint _amount) private {... */\n      pop\n      pop\n      jump\t// out\n        /* \"#utility.yul\":7:133   */\n    tag_149:\n        /* \"#utility.yul\":44:51   */\n      0x00\n        /* \"#utility.yul\":84:126   */\n      0xffffffffffffffffffffffffffffffffffffffff\n        /* \"#utility.yul\":77:82   */\n      dup3\n        /* \"#utility.yul\":73:127   */\n      and\n        /* \"#utility.yul\":62:127   */\n      swap1\n      pop\n        /* \"#utility.yul\":7:133   */\n      swap2\n      swap1\n      pop\n      jump\t// out\n        /* \"#utility.yul\":139:199   */\n    tag_150:\n        /* \"#utility.yul\":167:170   */\n      0x00\n        /* \"#utility.yul\":188:193   */\n      dup2\n        /* \"#utility.yul\":181:193   */\n      swap1\n      pop\n        /* \"#utility.yul\":139:199   */\n      swap2\n      swap1\n      pop\n      jump\t// out\n        /* \"#utility.yul\":205:347   */\n    tag_151:\n        /* \"#utility.yul\":255:264   */\n      0x00\n        /* \"#utility.yul\":288:341   */\n      tag_181\n        /* \"#utility.yul\":306:340   */\n      tag_182\n        /* \"#utility.yul\":315:339   */\n      tag_183\n        /* \"#utility.yul\":333:338   */\n      dup5\n        /* \"#utility.yul\":315:339   */\n      tag_149\n      jump\t// in\n    tag_183:\n        /* \"#utility.yul\":306:340   */\n      tag_150\n      jump\t// in\n    tag_182:\n        /* \"#utility.yul\":288:341   */\n      tag_149\n      jump\t// in\n    tag_181:\n        /* \"#utility.yul\":275:341   */\n      swap1\n      pop\n        /* \"#utility.yul\":205:347   */\n      swap2\n      swap1\n      pop\n      jump\t// out\n        /* \"#utility.yul\":353:479   */\n    tag_152:\n        /* \"#utility.yul\":403:412   */\n      0x00\n        /* \"#utility.yul\":436:473   */\n      tag_185\n        /* \"#utility.yul\":467:472   */\n      dup3\n        /* \"#utility.yul\":436:473   */\n      tag_151\n      jump\t// in\n    tag_185:\n        /* \"#utility.yul\":423:473   */\n      swap1\n      pop\n        /* \"#utility.yul\":353:479   */\n      swap2\n      swap1\n      pop\n      jump\t// out\n        /* \"#utility.yul\":485:625   */\n    tag_153:\n        /* \"#utility.yul\":549:558   */\n      0x00\n        /* \"#utility.yul\":582:619   */\n      tag_187\n        /* \"#utility.yul\":613:618   */\n      dup3\n        /* \"#utility.yul\":582:619   */\n      tag_152\n      jump\t// in\n    tag_187:\n        /* \"#utility.yul\":569:619   */\n      swap1\n      pop\n        /* \"#utility.yul\":485:625   */\n      swap2\n      swap1\n      pop\n      jump\t// out\n        /* \"#utility.yul\":631:790   */\n    tag_154:\n        /* \"#utility.yul\":732:783   */\n      tag_189\n        /* \"#utility.yul\":777:782   */\n      dup2\n        /* \"#utility.yul\":732:783   */\n      tag_153\n      jump\t// in\n    tag_189:\n        /* \"#utility.yul\":727:730   */\n      dup3\n        /* \"#utility.yul\":720:784   */\n      mstore\n        /* \"#utility.yul\":631:790   */\n      pop\n      pop\n      jump\t// out\n        /* \"#utility.yul\":796:1046   */\n    tag_16:\n        /* \"#utility.yul\":903:907   */\n      0x00\n        /* \"#utility.yul\":941:943   */\n      0x20\n        /* \"#utility.yul\":930:939   */\n      dup3\n        /* \"#utility.yul\":926:944   */\n      add\n        /* \"#utility.yul\":918:944   */\n      swap1\n      pop\n        /* \"#utility.yul\":954:1039   */\n      tag_191\n        /* \"#utility.yul\":1036:1037   */\n      0x00\n        /* \"#utility.yul\":1025:1034   */\n      dup4\n        /* \"#utility.yul\":1021:1038   */\n      add\n        /* \"#utility.yul\":1012:1018   */\n      dup5\n        /* \"#utility.yul\":954:1039   */\n      tag_154\n      jump\t// in\n    tag_191:\n        /* \"#utility.yul\":796:1046   */\n      swap3\n      swap2\n      pop\n      pop\n      jump\t// out\n        /* \"#utility.yul\":1052:1129   */\n    tag_155:\n        /* \"#utility.yul\":1089:1096   */\n      0x00\n        /* \"#utility.yul\":1118:1123   */\n      dup2\n        /* \"#utility.yul\":1107:1123   */\n      swap1\n      pop\n        /* \"#utility.yul\":1052:1129   */\n      swap2\n      swap1\n      pop\n      jump\t// out\n        /* \"#utility.yul\":1135:1253   */\n    tag_156:\n        /* \"#utility.yul\":1222:1246   */\n      tag_194\n        /* \"#utility.yul\":1240:1245   */\n      dup2\n        /* \"#utility.yul\":1222:1246   */\n      tag_155\n      jump\t// in\n    tag_194:\n        /* \"#utility.yul\":1217:1220   */\n      dup3\n        /* \"#utility.yul\":1210:1247   */\n      mstore\n        /* \"#utility.yul\":1135:1253   */\n      pop\n      pop\n      jump\t// out\n        /* \"#utility.yul\":1259:1481   */\n    tag_20:\n        /* \"#utility.yul\":1352:1356   */\n      0x00\n        /* \"#utility.yul\":1390:1392   */\n      0x20\n        /* \"#utility.yul\":1379:1388   */\n      dup3\n        /* \"#utility.yul\":1375:1393   */\n      add\n        /* \"#utility.yul\":1367:1393   */\n      swap1\n      pop\n        /* \"#utility.yul\":1403:1474   */\n      tag_196\n        /* \"#utility.yul\":1471:1472   */\n      0x00\n        /* \"#utility.yul\":1460:1469   */\n      dup4\n        /* \"#utility.yul\":1456:1473   */\n      add\n        /* \"#utility.yul\":1447:1453   */\n      dup5\n        /* \"#utility.yul\":1403:1474   */\n      tag_156\n      jump\t// in\n    tag_196:\n        /* \"#utility.yul\":1259:1481   */\n      swap3\n      swap2\n      pop\n      pop\n      jump\t// out\n        /* \"#utility.yul\":1568:1685   */\n    tag_158:\n        /* \"#utility.yul\":1677:1678   */\n      0x00\n        /* \"#utility.yul\":1674:1675   */\n      dup1\n        /* \"#utility.yul\":1667:1679   */\n      revert\n        /* \"#utility.yul\":1814:1910   */\n    tag_160:\n        /* \"#utility.yul\":1851:1858   */\n      0x00\n        /* \"#utility.yul\":1880:1904   */\n      tag_201\n        /* \"#utility.yul\":1898:1903   */\n      dup3\n        /* \"#utility.yul\":1880:1904   */\n      tag_149\n      jump\t// in\n    tag_201:\n        /* \"#utility.yul\":1869:1904   */\n      swap1\n      pop\n        /* \"#utility.yul\":1814:1910   */\n      swap2\n      swap1\n      pop\n      jump\t// out\n        /* \"#utility.yul\":1916:2038   */\n    tag_161:\n        /* \"#utility.yul\":1989:2013   */\n      tag_203\n        /* \"#utility.yul\":2007:2012   */\n      dup2\n        /* \"#utility.yul\":1989:2013   */\n      tag_160\n      jump\t// in\n    tag_203:\n        /* \"#utility.yul\":1982:1987   */\n      dup2\n        /* \"#utility.yul\":1979:2014   */\n      eq\n        /* \"#utility.yul\":1969:2032   */\n      tag_204\n      jumpi\n        /* \"#utility.yul\":2028:2029   */\n      0x00\n        /* \"#utility.yul\":2025:2026   */\n      dup1\n        /* \"#utility.yul\":2018:2030   */\n      revert\n        /* \"#utility.yul\":1969:2032   */\n    tag_204:\n        /* \"#utility.yul\":1916:2038   */\n      pop\n      jump\t// out\n        /* \"#utility.yul\":2044:2183   */\n    tag_162:\n        /* \"#utility.yul\":2090:2095   */\n      0x00\n        /* \"#utility.yul\":2128:2134   */\n      dup2\n        /* \"#utility.yul\":2115:2135   */\n      calldataload\n        /* \"#utility.yul\":2106:2135   */\n      swap1\n      pop\n        /* \"#utility.yul\":2144:2177   */\n      tag_206\n        /* \"#utility.yul\":2171:2176   */\n      dup2\n        /* \"#utility.yul\":2144:2177   */\n      tag_161\n      jump\t// in\n    tag_206:\n        /* \"#utility.yul\":2044:2183   */\n      swap3\n      swap2\n      pop\n      pop\n      jump\t// out\n        /* \"#utility.yul\":2189:2518   */\n    tag_29:\n        /* \"#utility.yul\":2248:2254   */\n      0x00\n        /* \"#utility.yul\":2297:2299   */\n      0x20\n        /* \"#utility.yul\":2285:2294   */\n      dup3\n        /* \"#utility.yul\":2276:2283   */\n      dup5\n        /* \"#utility.yul\":2272:2295   */\n      sub\n        /* \"#utility.yul\":2268:2300   */\n      slt\n        /* \"#utility.yul\":2265:2384   */\n      iszero\n      tag_208\n      jumpi\n        /* \"#utility.yul\":2303:2382   */\n      tag_209\n      tag_158\n      jump\t// in\n    tag_209:\n        /* \"#utility.yul\":2265:2384   */\n    tag_208:\n        /* \"#utility.yul\":2423:2424   */\n      0x00\n        /* \"#utility.yul\":2448:2501   */\n      tag_210\n        /* \"#utility.yul\":2493:2500   */\n      dup5\n        /* \"#utility.yul\":2484:2490   */\n      dup3\n        /* \"#utility.yul\":2473:2482   */\n      dup6\n        /* \"#utility.yul\":2469:2491   */\n      add\n        /* \"#utility.yul\":2448:2501   */\n      tag_162\n      jump\t// in\n    tag_210:\n        /* \"#utility.yul\":2438:2501   */\n      swap2\n      pop\n        /* \"#utility.yul\":2394:2511   */\n      pop\n        /* \"#utility.yul\":2189:2518   */\n      swap3\n      swap2\n      pop\n      pop\n      jump\t// out\n        /* \"#utility.yul\":2524:2646   */\n    tag_163:\n        /* \"#utility.yul\":2597:2621   */\n      tag_212\n        /* \"#utility.yul\":2615:2620   */\n      dup2\n        /* \"#utility.yul\":2597:2621   */\n      tag_155\n      jump\t// in\n    tag_212:\n        /* \"#utility.yul\":2590:2595   */\n      dup2\n        /* \"#utility.yul\":2587:2622   */\n      eq\n        /* \"#utility.yul\":2577:2640   */\n      tag_213\n      jumpi\n        /* \"#utility.yul\":2636:2637   */\n      0x00\n        /* \"#utility.yul\":2633:2634   */\n      dup1\n        /* \"#utility.yul\":2626:2638   */\n      revert\n        /* \"#utility.yul\":2577:2640   */\n    tag_213:\n        /* \"#utility.yul\":2524:2646   */\n      pop\n      jump\t// out\n        /* \"#utility.yul\":2652:2791   */\n    tag_164:\n        /* \"#utility.yul\":2698:2703   */\n      0x00\n        /* \"#utility.yul\":2736:2742   */\n      dup2\n        /* \"#utility.yul\":2723:2743   */\n      calldataload\n        /* \"#utility.yul\":2714:2743   */\n      swap1\n      pop\n        /* \"#utility.yul\":2752:2785   */\n      tag_215\n        /* \"#utility.yul\":2779:2784   */\n      dup2\n        /* \"#utility.yul\":2752:2785   */\n      tag_163\n      jump\t// in\n    tag_215:\n        /* \"#utility.yul\":2652:2791   */\n      swap3\n      swap2\n      pop\n      pop\n      jump\t// out\n        /* \"#utility.yul\":2797:3126   */\n    tag_34:\n        /* \"#utility.yul\":2856:2862   */\n      0x00\n        /* \"#utility.yul\":2905:2907   */\n      0x20\n        /* \"#utility.yul\":2893:2902   */\n      dup3\n        /* \"#utility.yul\":2884:2891   */\n      dup5\n        /* \"#utility.yul\":2880:2903   */\n      sub\n        /* \"#utility.yul\":2876:2908   */\n      slt\n        /* \"#utility.yul\":2873:2992   */\n      iszero\n      tag_217\n      jumpi\n        /* \"#utility.yul\":2911:2990   */\n      tag_218\n      tag_158\n      jump\t// in\n    tag_218:\n        /* \"#utility.yul\":2873:2992   */\n    tag_217:\n        /* \"#utility.yul\":3031:3032   */\n      0x00\n        /* \"#utility.yul\":3056:3109   */\n      tag_219\n        /* \"#utility.yul\":3101:3108   */\n      dup5\n        /* \"#utility.yul\":3092:3098   */\n      dup3\n        /* \"#utility.yul\":3081:3090   */\n      dup6\n        /* \"#utility.yul\":3077:3099   */\n      add\n        /* \"#utility.yul\":3056:3109   */\n      tag_164\n      jump\t// in\n    tag_219:\n        /* \"#utility.yul\":3046:3109   */\n      swap2\n      pop\n        /* \"#utility.yul\":3002:3119   */\n      pop\n        /* \"#utility.yul\":2797:3126   */\n      swap3\n      swap2\n      pop\n      pop\n      jump\t// out\n        /* \"#utility.yul\":3132:3464   */\n    tag_37:\n        /* \"#utility.yul\":3253:3257   */\n      0x00\n        /* \"#utility.yul\":3291:3293   */\n      0x40\n        /* \"#utility.yul\":3280:3289   */\n      dup3\n        /* \"#utility.yul\":3276:3294   */\n      add\n        /* \"#utility.yul\":3268:3294   */\n      swap1\n      pop\n        /* \"#utility.yul\":3304:3375   */\n      tag_221\n        /* \"#utility.yul\":3372:3373   */\n      0x00\n        /* \"#utility.yul\":3361:3370   */\n      dup4\n        /* \"#utility.yul\":3357:3374   */\n      add\n        /* \"#utility.yul\":3348:3354   */\n      dup6\n        /* \"#utility.yul\":3304:3375   */\n      tag_156\n      jump\t// in\n    tag_221:\n        /* \"#utility.yul\":3385:3457   */\n      tag_222\n        /* \"#utility.yul\":3453:3455   */\n      0x20\n        /* \"#utility.yul\":3442:3451   */\n      dup4\n        /* \"#utility.yul\":3438:3456   */\n      add\n        /* \"#utility.yul\":3429:3435   */\n      dup5\n        /* \"#utility.yul\":3385:3457   */\n      tag_156\n      jump\t// in\n    tag_222:\n        /* \"#utility.yul\":3132:3464   */\n      swap4\n      swap3\n      pop\n      pop\n      pop\n      jump\t// out\n        /* \"#utility.yul\":3470:3944   */\n    tag_40:\n        /* \"#utility.yul\":3538:3544   */\n      0x00\n        /* \"#utility.yul\":3546:3552   */\n      dup1\n        /* \"#utility.yul\":3595:3597   */\n      0x40\n        /* \"#utility.yul\":3583:3592   */\n      dup4\n        /* \"#utility.yul\":3574:3581   */\n      dup6\n        /* \"#utility.yul\":3570:3593   */\n      sub\n        /* \"#utility.yul\":3566:3598   */\n      slt\n        /* \"#utility.yul\":3563:3682   */\n      iszero\n      tag_224\n      jumpi\n        /* \"#utility.yul\":3601:3680   */\n      tag_225\n      tag_158\n      jump\t// in\n    tag_225:\n        /* \"#utility.yul\":3563:3682   */\n    tag_224:\n        /* \"#utility.yul\":3721:3722   */\n      0x00\n        /* \"#utility.yul\":3746:3799   */\n      tag_226\n        /* \"#utility.yul\":3791:3798   */\n      dup6\n        /* \"#utility.yul\":3782:3788   */\n      dup3\n        /* \"#utility.yul\":3771:3780   */\n      dup7\n        /* \"#utility.yul\":3767:3789   */\n      add\n        /* \"#utility.yul\":3746:3799   */\n      tag_164\n      jump\t// in\n    tag_226:\n        /* \"#utility.yul\":3736:3799   */\n      swap3\n      pop\n        /* \"#utility.yul\":3692:3809   */\n      pop\n        /* \"#utility.yul\":3848:3850   */\n      0x20\n        /* \"#utility.yul\":3874:3927   */\n      tag_227\n        /* \"#utility.yul\":3919:3926   */\n      dup6\n        /* \"#utility.yul\":3910:3916   */\n      dup3\n        /* \"#utility.yul\":3899:3908   */\n      dup7\n        /* \"#utility.yul\":3895:3917   */\n      add\n        /* \"#utility.yul\":3874:3927   */\n      tag_164\n      jump\t// in\n    tag_227:\n        /* \"#utility.yul\":3864:3927   */\n      swap2\n      pop\n        /* \"#utility.yul\":3819:3937   */\n      pop\n        /* \"#utility.yul\":3470:3944   */\n      swap3\n      pop\n      swap3\n      swap1\n      pop\n      jump\t// out\n        /* \"#utility.yul\":3950:4424   */\n    tag_45:\n        /* \"#utility.yul\":4018:4024   */\n      0x00\n        /* \"#utility.yul\":4026:4032   */\n      dup1\n        /* \"#utility.yul\":4075:4077   */\n      0x40\n        /* \"#utility.yul\":4063:4072   */\n      dup4\n        /* \"#utility.yul\":4054:4061   */\n      dup6\n        /* \"#utility.yul\":4050:4073   */\n      sub\n        /* \"#utility.yul\":4046:4078   */\n      slt\n        /* \"#utility.yul\":4043:4162   */\n      iszero\n      tag_229\n      jumpi\n        /* \"#utility.yul\":4081:4160   */\n      tag_230\n      tag_158\n      jump\t// in\n    tag_230:\n        /* \"#utility.yul\":4043:4162   */\n    tag_229:\n        /* \"#utility.yul\":4201:4202   */\n      0x00\n        /* \"#utility.yul\":4226:4279   */\n      tag_231\n        /* \"#utility.yul\":4271:4278   */\n      dup6\n        /* \"#utility.yul\":4262:4268   */\n      dup3\n        /* \"#utility.yul\":4251:4260   */\n      dup7\n        /* \"#utility.yul\":4247:4269   */\n      add\n        /* \"#utility.yul\":4226:4279   */\n      tag_162\n      jump\t// in\n    tag_231:\n        /* \"#utility.yul\":4216:4279   */\n      swap3\n      pop\n        /* \"#utility.yul\":4172:4289   */\n      pop\n        /* \"#utility.yul\":4328:4330   */\n      0x20\n        /* \"#utility.yul\":4354:4407   */\n      tag_232\n        /* \"#utility.yul\":4399:4406   */\n      dup6\n        /* \"#utility.yul\":4390:4396   */\n      dup3\n        /* \"#utility.yul\":4379:4388   */\n      dup7\n        /* \"#utility.yul\":4375:4397   */\n      add\n        /* \"#utility.yul\":4354:4407   */\n      tag_164\n      jump\t// in\n    tag_232:\n        /* \"#utility.yul\":4344:4407   */\n      swap2\n      pop\n        /* \"#utility.yul\":4299:4417   */\n      pop\n        /* \"#utility.yul\":3950:4424   */\n      swap3\n      pop\n      swap3\n      swap1\n      pop\n      jump\t// out\n        /* \"#utility.yul\":4430:4610   */\n    tag_165:\n        /* \"#utility.yul\":4478:4555   */\n      0x4e487b7100000000000000000000000000000000000000000000000000000000\n        /* \"#utility.yul\":4475:4476   */\n      0x00\n        /* \"#utility.yul\":4468:4556   */\n      mstore\n        /* \"#utility.yul\":4575:4579   */\n      0x11\n        /* \"#utility.yul\":4572:4573   */\n      0x04\n        /* \"#utility.yul\":4565:4580   */\n      mstore\n        /* \"#utility.yul\":4599:4603   */\n      0x24\n        /* \"#utility.yul\":4596:4597   */\n      0x00\n        /* \"#utility.yul\":4589:4604   */\n      revert\n        /* \"#utility.yul\":4616:5026   */\n    tag_53:\n        /* \"#utility.yul\":4656:4663   */\n      0x00\n        /* \"#utility.yul\":4679:4699   */\n      tag_235\n        /* \"#utility.yul\":4697:4698   */\n      dup3\n        /* \"#utility.yul\":4679:4699   */\n      tag_155\n      jump\t// in\n    tag_235:\n        /* \"#utility.yul\":4674:4699   */\n      swap2\n      pop\n        /* \"#utility.yul\":4713:4733   */\n      tag_236\n        /* \"#utility.yul\":4731:4732   */\n      dup4\n        /* \"#utility.yul\":4713:4733   */\n      tag_155\n      jump\t// in\n    tag_236:\n        /* \"#utility.yul\":4708:4733   */\n      swap3\n      pop\n        /* \"#utility.yul\":4768:4769   */\n      dup3\n        /* \"#utility.yul\":4765:4766   */\n      dup3\n        /* \"#utility.yul\":4761:4770   */\n      mul\n        /* \"#utility.yul\":4790:4820   */\n      tag_237\n        /* \"#utility.yul\":4808:4819   */\n      dup2\n        /* \"#utility.yul\":4790:4820   */\n      tag_155\n      jump\t// in\n    tag_237:\n        /* \"#utility.yul\":4779:4820   */\n      swap2\n      pop\n        /* \"#utility.yul\":4969:4970   */\n      dup3\n        /* \"#utility.yul\":4960:4967   */\n      dup3\n        /* \"#utility.yul\":4956:4971   */\n      div\n        /* \"#utility.yul\":4953:4954   */\n      dup5\n        /* \"#utility.yul\":4950:4972   */\n      eq\n        /* \"#utility.yul\":4930:4931   */\n      dup4\n        /* \"#utility.yul\":4923:4932   */\n      iszero\n        /* \"#utility.yul\":4903:4986   */\n      or\n        /* \"#utility.yul\":4880:5019   */\n      tag_238\n      jumpi\n        /* \"#utility.yul\":4999:5017   */\n      tag_239\n      tag_165\n      jump\t// in\n    tag_239:\n        /* \"#utility.yul\":4880:5019   */\n    tag_238:\n        /* \"#utility.yul\":4664:5026   */\n      pop\n        /* \"#utility.yul\":4616:5026   */\n      swap3\n      swap2\n      pop\n      pop\n      jump\t// out\n        /* \"#utility.yul\":5032:5212   */\n    tag_166:\n        /* \"#utility.yul\":5080:5157   */\n      0x4e487b7100000000000000000000000000000000000000000000000000000000\n        /* \"#utility.yul\":5077:5078   */\n      0x00\n        /* \"#utility.yul\":5070:5158   */\n      mstore\n        /* \"#utility.yul\":5177:5181   */\n      0x12\n        /* \"#utility.yul\":5174:5175   */\n      0x04\n        /* \"#utility.yul\":5167:5182   */\n      mstore\n        /* \"#utility.yul\":5201:5205   */\n      0x24\n        /* \"#utility.yul\":5198:5199   */\n      0x00\n        /* \"#utility.yul\":5191:5206   */\n      revert\n        /* \"#utility.yul\":5218:5403   */\n    tag_55:\n        /* \"#utility.yul\":5258:5259   */\n      0x00\n        /* \"#utility.yul\":5275:5295   */\n      tag_242\n        /* \"#utility.yul\":5293:5294   */\n      dup3\n        /* \"#utility.yul\":5275:5295   */\n      tag_155\n      jump\t// in\n    tag_242:\n        /* \"#utility.yul\":5270:5295   */\n      swap2\n      pop\n        /* \"#utility.yul\":5309:5329   */\n      tag_243\n        /* \"#utility.yul\":5327:5328   */\n      dup4\n        /* \"#utility.yul\":5309:5329   */\n      tag_155\n      jump\t// in\n    tag_243:\n        /* \"#utility.yul\":5304:5329   */\n      swap3\n      pop\n        /* \"#utility.yul\":5348:5349   */\n      dup3\n        /* \"#utility.yul\":5338:5373   */\n      tag_244\n      jumpi\n        /* \"#utility.yul\":5353:5371   */\n      tag_245\n      tag_166\n      jump\t// in\n    tag_245:\n        /* \"#utility.yul\":5338:5373   */\n    tag_244:\n        /* \"#utility.yul\":5395:5396   */\n      dup3\n        /* \"#utility.yul\":5392:5393   */\n      dup3\n        /* \"#utility.yul\":5388:5397   */\n      div\n        /* \"#utility.yul\":5383:5397   */\n      swap1\n      pop\n        /* \"#utility.yul\":5218:5403   */\n      swap3\n      swap2\n      pop\n      pop\n      jump\t// out\n        /* \"#utility.yul\":5409:5603   */\n    tag_62:\n        /* \"#utility.yul\":5449:5453   */\n      0x00\n        /* \"#utility.yul\":5469:5489   */\n      tag_247\n        /* \"#utility.yul\":5487:5488   */\n      dup3\n        /* \"#utility.yul\":5469:5489   */\n      tag_155\n      jump\t// in\n    tag_247:\n        /* \"#utility.yul\":5464:5489   */\n      swap2\n      pop\n        /* \"#utility.yul\":5503:5523   */\n      tag_248\n        /* \"#utility.yul\":5521:5522   */\n      dup4\n        /* \"#utility.yul\":5503:5523   */\n      tag_155\n      jump\t// in\n    tag_248:\n        /* \"#utility.yul\":5498:5523   */\n      swap3\n      pop\n        /* \"#utility.yul\":5547:5548   */\n      dup3\n        /* \"#utility.yul\":5544:5545   */\n      dup3\n        /* \"#utility.yul\":5540:5549   */\n      sub\n        /* \"#utility.yul\":5532:5549   */\n      swap1\n      pop\n        /* \"#utility.yul\":5571:5572   */\n      dup2\n        /* \"#utility.yul\":5565:5569   */\n      dup2\n        /* \"#utility.yul\":5562:5573   */\n      gt\n        /* \"#utility.yul\":5559:5596   */\n      iszero\n      tag_249\n      jumpi\n        /* \"#utility.yul\":5576:5594   */\n      tag_250\n      tag_165\n      jump\t// in\n    tag_250:\n        /* \"#utility.yul\":5559:5596   */\n    tag_249:\n        /* \"#utility.yul\":5409:5603   */\n      swap3\n      swap2\n      pop\n      pop\n      jump\t// out\n        /* \"#utility.yul\":5609:5727   */\n    tag_167:\n        /* \"#utility.yul\":5696:5720   */\n      tag_252\n        /* \"#utility.yul\":5714:5719   */\n      dup2\n        /* \"#utility.yul\":5696:5720   */\n      tag_160\n      jump\t// in\n    tag_252:\n        /* \"#utility.yul\":5691:5694   */\n      dup3\n        /* \"#utility.yul\":5684:5721   */\n      mstore\n        /* \"#utility.yul\":5609:5727   */\n      pop\n      pop\n      jump\t// out\n        /* \"#utility.yul\":5733:6065   */\n    tag_67:\n        /* \"#utility.yul\":5854:5858   */\n      0x00\n        /* \"#utility.yul\":5892:5894   */\n      0x40\n        /* \"#utility.yul\":5881:5890   */\n      dup3\n        /* \"#utility.yul\":5877:5895   */\n      add\n        /* \"#utility.yul\":5869:5895   */\n      swap1\n      pop\n        /* \"#utility.yul\":5905:5976   */\n      tag_254\n        /* \"#utility.yul\":5973:5974   */\n      0x00\n        /* \"#utility.yul\":5962:5971   */\n      dup4\n        /* \"#utility.yul\":5958:5975   */\n      add\n        /* \"#utility.yul\":5949:5955   */\n      dup6\n        /* \"#utility.yul\":5905:5976   */\n      tag_167\n      jump\t// in\n    tag_254:\n        /* \"#utility.yul\":5986:6058   */\n      tag_255\n        /* \"#utility.yul\":6054:6056   */\n      0x20\n        /* \"#utility.yul\":6043:6052   */\n      dup4\n        /* \"#utility.yul\":6039:6057   */\n      add\n        /* \"#utility.yul\":6030:6036   */\n      dup5\n        /* \"#utility.yul\":5986:6058   */\n      tag_156\n      jump\t// in\n    tag_255:\n        /* \"#utility.yul\":5733:6065   */\n      swap4\n      swap3\n      pop\n      pop\n      pop\n      jump\t// out\n        /* \"#utility.yul\":6071:6161   */\n    tag_168:\n        /* \"#utility.yul\":6105:6112   */\n      0x00\n        /* \"#utility.yul\":6148:6153   */\n      dup2\n        /* \"#utility.yul\":6141:6154   */\n      iszero\n        /* \"#utility.yul\":6134:6155   */\n      iszero\n        /* \"#utility.yul\":6123:6155   */\n      swap1\n      pop\n        /* \"#utility.yul\":6071:6161   */\n      swap2\n      swap1\n      pop\n      jump\t// out\n        /* \"#utility.yul\":6167:6283   */\n    tag_169:\n        /* \"#utility.yul\":6237:6258   */\n      tag_258\n        /* \"#utility.yul\":6252:6257   */\n      dup2\n        /* \"#utility.yul\":6237:6258   */\n      tag_168\n      jump\t// in\n    tag_258:\n        /* \"#utility.yul\":6230:6235   */\n      dup2\n        /* \"#utility.yul\":6227:6259   */\n      eq\n        /* \"#utility.yul\":6217:6277   */\n      tag_259\n      jumpi\n        /* \"#utility.yul\":6273:6274   */\n      0x00\n        /* \"#utility.yul\":6270:6271   */\n      dup1\n        /* \"#utility.yul\":6263:6275   */\n      revert\n        /* \"#utility.yul\":6217:6277   */\n    tag_259:\n        /* \"#utility.yul\":6167:6283   */\n      pop\n      jump\t// out\n        /* \"#utility.yul\":6289:6426   */\n    tag_170:\n        /* \"#utility.yul\":6343:6348   */\n      0x00\n        /* \"#utility.yul\":6374:6380   */\n      dup2\n        /* \"#utility.yul\":6368:6381   */\n      mload\n        /* \"#utility.yul\":6359:6381   */\n      swap1\n      pop\n        /* \"#utility.yul\":6390:6420   */\n      tag_261\n        /* \"#utility.yul\":6414:6419   */\n      dup2\n        /* \"#utility.yul\":6390:6420   */\n      tag_169\n      jump\t// in\n    tag_261:\n        /* \"#utility.yul\":6289:6426   */\n      swap3\n      swap2\n      pop\n      pop\n      jump\t// out\n        /* \"#utility.yul\":6432:6777   */\n    tag_71:\n        /* \"#utility.yul\":6499:6505   */\n      0x00\n        /* \"#utility.yul\":6548:6550   */\n      0x20\n        /* \"#utility.yul\":6536:6545   */\n      dup3\n        /* \"#utility.yul\":6527:6534   */\n      dup5\n        /* \"#utility.yul\":6523:6546   */\n      sub\n        /* \"#utility.yul\":6519:6551   */\n      slt\n        /* \"#utility.yul\":6516:6635   */\n      iszero\n      tag_263\n      jumpi\n        /* \"#utility.yul\":6554:6633   */\n      tag_264\n      tag_158\n      jump\t// in\n    tag_264:\n        /* \"#utility.yul\":6516:6635   */\n    tag_263:\n        /* \"#utility.yul\":6674:6675   */\n      0x00\n        /* \"#utility.yul\":6699:6760   */\n      tag_265\n        /* \"#utility.yul\":6752:6759   */\n      dup5\n        /* \"#utility.yul\":6743:6749   */\n      dup3\n        /* \"#utility.yul\":6732:6741   */\n      dup6\n        /* \"#utility.yul\":6728:6750   */\n      add\n        /* \"#utility.yul\":6699:6760   */\n      tag_170\n      jump\t// in\n    tag_265:\n        /* \"#utility.yul\":6689:6760   */\n      swap2\n      pop\n        /* \"#utility.yul\":6645:6770   */\n      pop\n        /* \"#utility.yul\":6432:6777   */\n      swap3\n      swap2\n      pop\n      pop\n      jump\t// out\n        /* \"#utility.yul\":6783:7225   */\n    tag_79:\n        /* \"#utility.yul\":6932:6936   */\n      0x00\n        /* \"#utility.yul\":6970:6972   */\n      0x60\n        /* \"#utility.yul\":6959:6968   */\n      dup3\n        /* \"#utility.yul\":6955:6973   */\n      add\n        /* \"#utility.yul\":6947:6973   */\n      swap1\n      pop\n        /* \"#utility.yul\":6983:7054   */\n      tag_267\n        /* \"#utility.yul\":7051:7052   */\n      0x00\n        /* \"#utility.yul\":7040:7049   */\n      dup4\n        /* \"#utility.yul\":7036:7053   */\n      add\n        /* \"#utility.yul\":7027:7033   */\n      dup7\n        /* \"#utility.yul\":6983:7054   */\n      tag_167\n      jump\t// in\n    tag_267:\n        /* \"#utility.yul\":7064:7136   */\n      tag_268\n        /* \"#utility.yul\":7132:7134   */\n      0x20\n        /* \"#utility.yul\":7121:7130   */\n      dup4\n        /* \"#utility.yul\":7117:7135   */\n      add\n        /* \"#utility.yul\":7108:7114   */\n      dup6\n        /* \"#utility.yul\":7064:7136   */\n      tag_167\n      jump\t// in\n    tag_268:\n        /* \"#utility.yul\":7146:7218   */\n      tag_269\n        /* \"#utility.yul\":7214:7216   */\n      0x40\n        /* \"#utility.yul\":7203:7212   */\n      dup4\n        /* \"#utility.yul\":7199:7217   */\n      add\n        /* \"#utility.yul\":7190:7196   */\n      dup5\n        /* \"#utility.yul\":7146:7218   */\n      tag_156\n      jump\t// in\n    tag_269:\n        /* \"#utility.yul\":6783:7225   */\n      swap5\n      swap4\n      pop\n      pop\n      pop\n      pop\n      jump\t// out\n        /* \"#utility.yul\":7231:7453   */\n    tag_88:\n        /* \"#utility.yul\":7324:7328   */\n      0x00\n        /* \"#utility.yul\":7362:7364   */\n      0x20\n        /* \"#utility.yul\":7351:7360   */\n      dup3\n        /* \"#utility.yul\":7347:7365   */\n      add\n        /* \"#utility.yul\":7339:7365   */\n      swap1\n      pop\n        /* \"#utility.yul\":7375:7446   */\n      tag_271\n        /* \"#utility.yul\":7443:7444   */\n      0x00\n        /* \"#utility.yul\":7432:7441   */\n      dup4\n        /* \"#utility.yul\":7428:7445   */\n      add\n        /* \"#utility.yul\":7419:7425   */\n      dup5\n        /* \"#utility.yul\":7375:7446   */\n      tag_167\n      jump\t// in\n    tag_271:\n        /* \"#utility.yul\":7231:7453   */\n      swap3\n      swap2\n      pop\n      pop\n      jump\t// out\n        /* \"#utility.yul\":7459:7602   */\n    tag_171:\n        /* \"#utility.yul\":7516:7521   */\n      0x00\n        /* \"#utility.yul\":7547:7553   */\n      dup2\n        /* \"#utility.yul\":7541:7554   */\n      mload\n        /* \"#utility.yul\":7532:7554   */\n      swap1\n      pop\n        /* \"#utility.yul\":7563:7596   */\n      tag_273\n        /* \"#utility.yul\":7590:7595   */\n      dup2\n        /* \"#utility.yul\":7563:7596   */\n      tag_163\n      jump\t// in\n    tag_273:\n        /* \"#utility.yul\":7459:7602   */\n      swap3\n      swap2\n      pop\n      pop\n      jump\t// out\n        /* \"#utility.yul\":7608:7959   */\n    tag_92:\n        /* \"#utility.yul\":7678:7684   */\n      0x00\n        /* \"#utility.yul\":7727:7729   */\n      0x20\n        /* \"#utility.yul\":7715:7724   */\n      dup3\n        /* \"#utility.yul\":7706:7713   */\n      dup5\n        /* \"#utility.yul\":7702:7725   */\n      sub\n        /* \"#utility.yul\":7698:7730   */\n      slt\n        /* \"#utility.yul\":7695:7814   */\n      iszero\n      tag_275\n      jumpi\n        /* \"#utility.yul\":7733:7812   */\n      tag_276\n      tag_158\n      jump\t// in\n    tag_276:\n        /* \"#utility.yul\":7695:7814   */\n    tag_275:\n        /* \"#utility.yul\":7853:7854   */\n      0x00\n        /* \"#utility.yul\":7878:7942   */\n      tag_277\n        /* \"#utility.yul\":7934:7941   */\n      dup5\n        /* \"#utility.yul\":7925:7931   */\n      dup3\n        /* \"#utility.yul\":7914:7923   */\n      dup6\n        /* \"#utility.yul\":7910:7932   */\n      add\n        /* \"#utility.yul\":7878:7942   */\n      tag_171\n      jump\t// in\n    tag_277:\n        /* \"#utility.yul\":7868:7942   */\n      swap2\n      pop\n        /* \"#utility.yul\":7824:7952   */\n      pop\n        /* \"#utility.yul\":7608:7959   */\n      swap3\n      swap2\n      pop\n      pop\n      jump\t// out\n        /* \"#utility.yul\":7965:8156   */\n    tag_101:\n        /* \"#utility.yul\":8005:8008   */\n      0x00\n        /* \"#utility.yul\":8024:8044   */\n      tag_279\n        /* \"#utility.yul\":8042:8043   */\n      dup3\n        /* \"#utility.yul\":8024:8044   */\n      tag_155\n      jump\t// in\n    tag_279:\n        /* \"#utility.yul\":8019:8044   */\n      swap2\n      pop\n        /* \"#utility.yul\":8058:8078   */\n      tag_280\n        /* \"#utility.yul\":8076:8077   */\n      dup4\n        /* \"#utility.yul\":8058:8078   */\n      tag_155\n      jump\t// in\n    tag_280:\n        /* \"#utility.yul\":8053:8078   */\n      swap3\n      pop\n        /* \"#utility.yul\":8101:8102   */\n      dup3\n        /* \"#utility.yul\":8098:8099   */\n      dup3\n        /* \"#utility.yul\":8094:8103   */\n      add\n        /* \"#utility.yul\":8087:8103   */\n      swap1\n      pop\n        /* \"#utility.yul\":8122:8125   */\n      dup1\n        /* \"#utility.yul\":8119:8120   */\n      dup3\n        /* \"#utility.yul\":8116:8126   */\n      gt\n        /* \"#utility.yul\":8113:8149   */\n      iszero\n      tag_281\n      jumpi\n        /* \"#utility.yul\":8129:8147   */\n      tag_282\n      tag_165\n      jump\t// in\n    tag_282:\n        /* \"#utility.yul\":8113:8149   */\n    tag_281:\n        /* \"#utility.yul\":7965:8156   */\n      swap3\n      swap2\n      pop\n      pop\n      jump\t// out\n        /* \"#utility.yul\":8162:8331   */\n    tag_172:\n        /* \"#utility.yul\":8246:8257   */\n      0x00\n        /* \"#utility.yul\":8280:8286   */\n      dup3\n        /* \"#utility.yul\":8275:8278   */\n      dup3\n        /* \"#utility.yul\":8268:8287   */\n      mstore\n        /* \"#utility.yul\":8320:8324   */\n      0x20\n        /* \"#utility.yul\":8315:8318   */\n      dup3\n        /* \"#utility.yul\":8311:8325   */\n      add\n        /* \"#utility.yul\":8296:8325   */\n      swap1\n      pop\n        /* \"#utility.yul\":8162:8331   */\n      swap3\n      swap2\n      pop\n      pop\n      jump\t// out\n        /* \"#utility.yul\":8337:8497   */\n    tag_173:\n        /* \"#utility.yul\":8477:8489   */\n      0x736861726573203d203000000000000000000000000000000000000000000000\n        /* \"#utility.yul\":8473:8474   */\n      0x00\n        /* \"#utility.yul\":8465:8471   */\n      dup3\n        /* \"#utility.yul\":8461:8475   */\n      add\n        /* \"#utility.yul\":8454:8490   */\n      mstore\n        /* \"#utility.yul\":8337:8497   */\n      pop\n      jump\t// out\n        /* \"#utility.yul\":8503:8869   */\n    tag_174:\n        /* \"#utility.yul\":8645:8648   */\n      0x00\n        /* \"#utility.yul\":8666:8733   */\n      tag_286\n        /* \"#utility.yul\":8730:8732   */\n      0x0a\n        /* \"#utility.yul\":8725:8728   */\n      dup4\n        /* \"#utility.yul\":8666:8733   */\n      tag_172\n      jump\t// in\n    tag_286:\n        /* \"#utility.yul\":8659:8733   */\n      swap2\n      pop\n        /* \"#utility.yul\":8742:8835   */\n      tag_287\n        /* \"#utility.yul\":8831:8834   */\n      dup3\n        /* \"#utility.yul\":8742:8835   */\n      tag_173\n      jump\t// in\n    tag_287:\n        /* \"#utility.yul\":8860:8862   */\n      0x20\n        /* \"#utility.yul\":8855:8858   */\n      dup3\n        /* \"#utility.yul\":8851:8863   */\n      add\n        /* \"#utility.yul\":8844:8863   */\n      swap1\n      pop\n        /* \"#utility.yul\":8503:8869   */\n      swap2\n      swap1\n      pop\n      jump\t// out\n        /* \"#utility.yul\":8875:9294   */\n    tag_109:\n        /* \"#utility.yul\":9041:9045   */\n      0x00\n        /* \"#utility.yul\":9079:9081   */\n      0x20\n        /* \"#utility.yul\":9068:9077   */\n      dup3\n        /* \"#utility.yul\":9064:9082   */\n      add\n        /* \"#utility.yul\":9056:9082   */\n      swap1\n      pop\n        /* \"#utility.yul\":9128:9137   */\n      dup2\n        /* \"#utility.yul\":9122:9126   */\n      dup2\n        /* \"#utility.yul\":9118:9138   */\n      sub\n        /* \"#utility.yul\":9114:9115   */\n      0x00\n        /* \"#utility.yul\":9103:9112   */\n      dup4\n        /* \"#utility.yul\":9099:9116   */\n      add\n        /* \"#utility.yul\":9092:9139   */\n      mstore\n        /* \"#utility.yul\":9156:9287   */\n      tag_289\n        /* \"#utility.yul\":9282:9286   */\n      dup2\n        /* \"#utility.yul\":9156:9287   */\n      tag_174\n      jump\t// in\n    tag_289:\n        /* \"#utility.yul\":9148:9287   */\n      swap1\n      pop\n        /* \"#utility.yul\":8875:9294   */\n      swap2\n      swap1\n      pop\n      jump\t// out\n        /* \"#utility.yul\":9300:9463   */\n    tag_175:\n        /* \"#utility.yul\":9440:9455   */\n      0x696e76616c696420746f6b656e00000000000000000000000000000000000000\n        /* \"#utility.yul\":9436:9437   */\n      0x00\n        /* \"#utility.yul\":9428:9434   */\n      dup3\n        /* \"#utility.yul\":9424:9438   */\n      add\n        /* \"#utility.yul\":9417:9456   */\n      mstore\n        /* \"#utility.yul\":9300:9463   */\n      pop\n      jump\t// out\n        /* \"#utility.yul\":9469:9835   */\n    tag_176:\n        /* \"#utility.yul\":9611:9614   */\n      0x00\n        /* \"#utility.yul\":9632:9699   */\n      tag_292\n        /* \"#utility.yul\":9696:9698   */\n      0x0d\n        /* \"#utility.yul\":9691:9694   */\n      dup4\n        /* \"#utility.yul\":9632:9699   */\n      tag_172\n      jump\t// in\n    tag_292:\n        /* \"#utility.yul\":9625:9699   */\n      swap2\n      pop\n        /* \"#utility.yul\":9708:9801   */\n      tag_293\n        /* \"#utility.yul\":9797:9800   */\n      dup3\n        /* \"#utility.yul\":9708:9801   */\n      tag_175\n      jump\t// in\n    tag_293:\n        /* \"#utility.yul\":9826:9828   */\n      0x20\n        /* \"#utility.yul\":9821:9824   */\n      dup3\n        /* \"#utility.yul\":9817:9829   */\n      add\n        /* \"#utility.yul\":9810:9829   */\n      swap1\n      pop\n        /* \"#utility.yul\":9469:9835   */\n      swap2\n      swap1\n      pop\n      jump\t// out\n        /* \"#utility.yul\":9841:10260   */\n    tag_117:\n        /* \"#utility.yul\":10007:10011   */\n      0x00\n        /* \"#utility.yul\":10045:10047   */\n      0x20\n        /* \"#utility.yul\":10034:10043   */\n      dup3\n        /* \"#utility.yul\":10030:10048   */\n      add\n        /* \"#utility.yul\":10022:10048   */\n      swap1\n      pop\n        /* \"#utility.yul\":10094:10103   */\n      dup2\n        /* \"#utility.yul\":10088:10092   */\n      dup2\n        /* \"#utility.yul\":10084:10104   */\n      sub\n        /* \"#utility.yul\":10080:10081   */\n      0x00\n        /* \"#utility.yul\":10069:10078   */\n      dup4\n        /* \"#utility.yul\":10065:10082   */\n      add\n        /* \"#utility.yul\":10058:10105   */\n      mstore\n        /* \"#utility.yul\":10122:10253   */\n      tag_295\n        /* \"#utility.yul\":10248:10252   */\n      dup2\n        /* \"#utility.yul\":10122:10253   */\n      tag_176\n      jump\t// in\n    tag_295:\n        /* \"#utility.yul\":10114:10253   */\n      swap1\n      pop\n        /* \"#utility.yul\":9841:10260   */\n      swap2\n      swap1\n      pop\n      jump\t// out\n\n    auxdata: 0xa2646970667358221220931486dfd579598bd1b3418ba8bdd6cc2fabe338f1a9a65d9297809ef3b7d24664736f6c63430008120033\n}\n",
				"bytecode": {
					"linkReferences": {},
					"object": "60c06040523480156200001157600080fd5b50604051620013f6380380620013f6833981810160405281019062000037919062000111565b8173ffffffffffffffffffffffffffffffffffffffff1660808173ffffffffffffffffffffffffffffffffffffffff16815250508073ffffffffffffffffffffffffffffffffffffffff1660a08173ffffffffffffffffffffffffffffffffffffffff1681525050505062000158565b600080fd5b600073ffffffffffffffffffffffffffffffffffffffff82169050919050565b6000620000d982620000ac565b9050919050565b620000eb81620000cc565b8114620000f757600080fd5b50565b6000815190506200010b81620000e0565b92915050565b600080604083850312156200012b576200012a620000a7565b5b60006200013b85828601620000fa565b92505060206200014e85828601620000fa565b9150509250929050565b60805160a05161121d620001d96000396000818161035c015281816104a4015281816105e5015281816107af0152818161089c0152818161090a0152610b3a0152600081816101f1015281816102b301528181610403015281816105470152818161075a01528181610840015281816108bd01526108e9015261121d6000f3fe608060405234801561001057600080fd5b50600436106100935760003560e01c806370a082311161006657806370a08231146101105780639c8f9f23146101405780639cd441da14610171578063d004f0f7146101a1578063d21220a7146101d157610093565b80630dfe16811461009857806318160ddd146100b6578063443cb4bc146100d45780635a76f25e146100f2575b600080fd5b6100a06101ef565b6040516100ad9190610cd3565b60405180910390f35b6100be610213565b6040516100cb9190610d07565b60405180910390f35b6100dc610219565b6040516100e99190610d07565b60405180910390f35b6100fa61021f565b6040516101079190610d07565b60405180910390f35b61012a60048036038101906101259190610d65565b610225565b6040516101379190610d07565b60405180910390f35b61015a60048036038101906101559190610dbe565b61023d565b604051610168929190610deb565b60405180910390f35b61018b60048036038101906101869190610e14565b6103ff565b6040516101989190610d07565b60405180910390f35b6101bb60048036038101906101b69190610e54565b610756565b6040516101c89190610d07565b60405180910390f35b6101d9610b38565b6040516101e69190610cd3565b60405180910390f35b7f000000000000000000000000000000000000000000000000000000000000000081565b60025481565b60005481565b60015481565b60036020528060005260406000206000915090505481565b600080600254836000546102519190610ec3565b61025b9190610f34565b91506002548360015461026e9190610ec3565b6102789190610f34565b90506102843384610b5c565b6102a8826000546102959190610f65565b826001546102a39190610f65565b610bcf565b6000821115610351577f000000000000000000000000000000000000000000000000000000000000000073ffffffffffffffffffffffffffffffffffffffff1663a9059cbb33846040518363ffffffff1660e01b815260040161030c929190610fa8565b6020604051808303816000875af115801561032b573d6000803e3d6000fd5b505050506040513d601f19601f8201168201806040525081019061034f9190611009565b505b60008111156103fa577f000000000000000000000000000000000000000000000000000000000000000073ffffffffffffffffffffffffffffffffffffffff1663a9059cbb33836040518363ffffffff1660e01b81526004016103b5929190610fa8565b6020604051808303816000875af11580156103d4573d6000803e3d6000fd5b505050506040513d601f19601f820116820180604052508101906103f89190611009565b505b915091565b60007f000000000000000000000000000000000000000000000000000000000000000073ffffffffffffffffffffffffffffffffffffffff166323b872dd3330866040518463ffffffff1660e01b815260040161045e93929190611036565b6020604051808303816000875af115801561047d573d6000803e3d6000fd5b505050506040513d601f19601f820116820180604052508101906104a19190611009565b507f000000000000000000000000000000000000000000000000000000000000000073ffffffffffffffffffffffffffffffffffffffff166323b872dd3330856040518463ffffffff1660e01b81526004016104ff93929190611036565b6020604051808303816000875af115801561051e573d6000803e3d6000fd5b505050506040513d601f19601f820116820180604052508101906105429190611009565b5060007f000000000000000000000000000000000000000000000000000000000000000073ffffffffffffffffffffffffffffffffffffffff166370a08231306040518263ffffffff1660e01b815260040161059e919061106d565b602060405180830381865afa1580156105bb573d6000803e3d6000fd5b505050506040513d601f19601f820116820180604052508101906105df919061109d565b905060007f000000000000000000000000000000000000000000000000000000000000000073ffffffffffffffffffffffffffffffffffffffff166370a08231306040518263ffffffff1660e01b815260040161063c919061106d565b602060405180830381865afa158015610659573d6000803e3d6000fd5b505050506040513d601f19601f8201168201806040525081019061067d919061109d565b9050600080548361068e9190610f65565b90506000600154836106a09190610f65565b90506000600254036106bf5780826106b891906110ca565b94506106f5565b6001546000546106cf91906110ca565b60025482846106de91906110ca565b6106e89190610ec3565b6106f29190610f34565b94505b60008511610738576040517f08c379a000000000000000000000000000000000000000000000000000000000815260040161072f9061115b565b60405180910390fd5b6107423386610be1565b61074c8484610bcf565b5050505092915050565b60007f000000000000000000000000000000000000000000000000000000000000000073ffffffffffffffffffffffffffffffffffffffff168373ffffffffffffffffffffffffffffffffffffffff1614806107fd57507f000000000000000000000000000000000000000000000000000000000000000073ffffffffffffffffffffffffffffffffffffffff168373ffffffffffffffffffffffffffffffffffffffff16145b61083c576040517f08c379a0000000000000000000000000000000000000000000000000000000008152600401610833906111c7565b60405180910390fd5b60007f000000000000000000000000000000000000000000000000000000000000000073ffffffffffffffffffffffffffffffffffffffff168473ffffffffffffffffffffffffffffffffffffffff16149050600080600080846108e7577f00000000000000000000000000000000000000000000000000000000000000007f0000000000000000000000000000000000000000000000000000000000000000600154600054610930565b7f00000000000000000000000000000000000000000000000000000000000000007f00000000000000000000000000000000000000000000000000000000000000006000546001545b93509350935093508373ffffffffffffffffffffffffffffffffffffffff166323b872dd33308a6040518463ffffffff1660e01b815260040161097593929190611036565b6020604051808303816000875af1158015610994573d6000803e3d6000fd5b505050506040513d601f19601f820116820180604052508101906109b89190611009565b506000828573ffffffffffffffffffffffffffffffffffffffff166370a08231306040518263ffffffff1660e01b81526004016109f5919061106d565b602060405180830381865afa158015610a12573d6000803e3d6000fd5b505050506040513d601f19601f82011682018060405250810190610a36919061109d565b610a409190610f65565b90506103e86103e582610a539190610ec3565b610a5d9190610f34565b965060008087610a84578884610a739190610f65565b8a86610a7f91906110ca565b610a9d565b8985610a9091906110ca565b8985610a9c9190610f65565b5b91509150610aab8282610bcf565b8573ffffffffffffffffffffffffffffffffffffffff1663a9059cbb338b6040518363ffffffff1660e01b8152600401610ae6929190610fa8565b6020604051808303816000875af1158015610b05573d6000803e3d6000fd5b505050506040513d601f19601f82011682018060405250810190610b299190611009565b50505050505050505092915050565b7f000000000000000000000000000000000000000000000000000000000000000081565b80600360008473ffffffffffffffffffffffffffffffffffffffff1673ffffffffffffffffffffffffffffffffffffffff1681526020019081526020016000206000828254610bab9190610f65565b925050819055508060026000828254610bc49190610f65565b925050819055505050565b81600081905550806001819055505050565b80600360008473ffffffffffffffffffffffffffffffffffffffff1673ffffffffffffffffffffffffffffffffffffffff1681526020019081526020016000206000828254610c3091906110ca565b925050819055508060026000828254610c4991906110ca565b925050819055505050565b600073ffffffffffffffffffffffffffffffffffffffff82169050919050565b6000819050919050565b6000610c99610c94610c8f84610c54565b610c74565b610c54565b9050919050565b6000610cab82610c7e565b9050919050565b6000610cbd82610ca0565b9050919050565b610ccd81610cb2565b82525050565b6000602082019050610ce86000830184610cc4565b92915050565b6000819050919050565b610d0181610cee565b82525050565b6000602082019050610d1c6000830184610cf8565b92915050565b600080fd5b6000610d3282610c54565b9050919050565b610d4281610d27565b8114610d4d57600080fd5b50565b600081359050610d5f81610d39565b92915050565b600060208284031215610d7b57610d7a610d22565b5b6000610d8984828501610d50565b91505092915050565b610d9b81610cee565b8114610da657600080fd5b50565b600081359050610db881610d92565b92915050565b600060208284031215610dd457610dd3610d22565b5b6000610de284828501610da9565b91505092915050565b6000604082019050610e006000830185610cf8565b610e0d6020830184610cf8565b9392505050565b60008060408385031215610e2b57610e2a610d22565b5b6000610e3985828601610da9565b9250506020610e4a85828601610da9565b9150509250929050565b60008060408385031215610e6b57610e6a610d22565b5b6000610e7985828601610d50565b9250506020610e8a85828601610da9565b9150509250929050565b7f4e487b7100000000000000000000000000000000000000000000000000000000600052601160045260246000fd5b6000610ece82610cee565b9150610ed983610cee565b9250828202610ee781610cee565b91508282048414831517610efe57610efd610e94565b5b5092915050565b7f4e487b7100000000000000000000000000000000000000000000000000000000600052601260045260246000fd5b6000610f3f82610cee565b9150610f4a83610cee565b925082610f5a57610f59610f05565b5b828204905092915050565b6000610f7082610cee565b9150610f7b83610cee565b9250828203905081811115610f9357610f92610e94565b5b92915050565b610fa281610d27565b82525050565b6000604082019050610fbd6000830185610f99565b610fca6020830184610cf8565b9392505050565b60008115159050919050565b610fe681610fd1565b8114610ff157600080fd5b50565b60008151905061100381610fdd565b92915050565b60006020828403121561101f5761101e610d22565b5b600061102d84828501610ff4565b91505092915050565b600060608201905061104b6000830186610f99565b6110586020830185610f99565b6110656040830184610cf8565b949350505050565b60006020820190506110826000830184610f99565b92915050565b60008151905061109781610d92565b92915050565b6000602082840312156110b3576110b2610d22565b5b60006110c184828501611088565b91505092915050565b60006110d582610cee565b91506110e083610cee565b92508282019050808211156110f8576110f7610e94565b5b92915050565b600082825260208201905092915050565b7f736861726573203d203000000000000000000000000000000000000000000000600082015250565b6000611145600a836110fe565b91506111508261110f565b602082019050919050565b6000602082019050818103600083015261117481611138565b9050919050565b7f696e76616c696420746f6b656e00000000000000000000000000000000000000600082015250565b60006111b1600d836110fe565b91506111bc8261117b565b602082019050919050565b600060208201905081810360008301526111e0816111a4565b905091905056fea2646970667358221220931486dfd579598bd1b3418ba8bdd6cc2fabe338f1a9a65d9297809ef3b7d24664736f6c63430008120033",
					"opcodes": "PUSH1 0xC0 PUSH1 0x40 MSTORE CALLVALUE DUP1 ISZERO PUSH3 0x11 JUMPI PUSH1 0x0 DUP1 REVERT JUMPDEST POP PUSH1 0x40 MLOAD PUSH3 0x13F6 CODESIZE SUB DUP1 PUSH3 0x13F6 DUP4 CODECOPY DUP2 DUP2 ADD PUSH1 0x40 MSTORE DUP2 ADD SWAP1 PUSH3 0x37 SWAP2 SWAP1 PUSH3 0x111 JUMP JUMPDEST DUP2 PUSH20 0xFFFFFFFFFFFFFFFFFFFFFFFFFFFFFFFFFFFFFFFF AND PUSH1 0x80 DUP2 PUSH20 0xFFFFFFFFFFFFFFFFFFFFFFFFFFFFFFFFFFFFFFFF AND DUP2 MSTORE POP POP DUP1 PUSH20 0xFFFFFFFFFFFFFFFFFFFFFFFFFFFFFFFFFFFFFFFF AND PUSH1 0xA0 DUP2 PUSH20 0xFFFFFFFFFFFFFFFFFFFFFFFFFFFFFFFFFFFFFFFF AND DUP2 MSTORE POP POP POP POP PUSH3 0x158 JUMP JUMPDEST PUSH1 0x0 DUP1 REVERT JUMPDEST PUSH1 0x0 PUSH20 0xFFFFFFFFFFFFFFFFFFFFFFFFFFFFFFFFFFFFFFFF DUP3 AND SWAP1 POP SWAP2 SWAP1 POP JUMP JUMPDEST PUSH1 0x0 PUSH3 0xD9 DUP3 PUSH3 0xAC JUMP JUMPDEST SWAP1 POP SWAP2 SWAP1 POP JUMP JUMPDEST PUSH3 0xEB DUP2 PUSH3 0xCC JUMP JUMPDEST DUP2 EQ PUSH3 0xF7 JUMPI PUSH1 0x0 DUP1 REVERT JUMPDEST POP JUMP JUMPDEST PUSH1 0x0 DUP2 MLOAD SWAP1 POP PUSH3 0x10B DUP2 PUSH3 0xE0 JUMP JUMPDEST SWAP3 SWAP2 POP POP JUMP JUMPDEST PUSH1 0x0 DUP1 PUSH1 0x40 DUP4 DUP6 SUB SLT ISZERO PUSH3 0x12B JUMPI PUSH3 0x12A PUSH3 0xA7 JUMP JUMPDEST JUMPDEST PUSH1 0x0 PUSH3 0x13B DUP6 DUP3 DUP7 ADD PUSH3 0xFA JUMP JUMPDEST SWAP3 POP POP PUSH1 0x20 PUSH3 0x14E DUP6 DUP3 DUP7 ADD PUSH3 0xFA JUMP JUMPDEST SWAP2 POP POP SWAP3 POP SWAP3 SWAP1 POP JUMP JUMPDEST PUSH1 0x80 MLOAD PUSH1 0xA0 MLOAD PUSH2 0x121D PUSH3 0x1D9 PUSH1 0x0 CODECOPY PUSH1 0x0 DUP2 DUP2 PUSH2 0x35C ADD MSTORE DUP2 DUP2 PUSH2 0x4A4 ADD MSTORE DUP2 DUP2 PUSH2 0x5E5 ADD MSTORE DUP2 DUP2 PUSH2 0x7AF ADD MSTORE DUP2 DUP2 PUSH2 0x89C ADD MSTORE DUP2 DUP2 PUSH2 0x90A ADD MSTORE PUSH2 0xB3A ADD MSTORE PUSH1 0x0 DUP2 DUP2 PUSH2 0x1F1 ADD MSTORE DUP2 DUP2 PUSH2 0x2B3 ADD MSTORE DUP2 DUP2 PUSH2 0x403 ADD MSTORE DUP2 DUP2 PUSH2 0x547 ADD MSTORE DUP2 DUP2 PUSH2 0x75A ADD MSTORE DUP2 DUP2 PUSH2 0x840 ADD MSTORE DUP2 DUP2 PUSH2 0x8BD ADD MSTORE PUSH2 0x8E9 ADD MSTORE PUSH2 0x121D PUSH1 0x0 RETURN INVALID PUSH1 0x80 PUSH1 0x40 MSTORE CALLVALUE DUP1 ISZERO PUSH2 0x10 JUMPI PUSH1 0x0 DUP1 REVERT JUMPDEST POP PUSH1 0x4 CALLDATASIZE LT PUSH2 0x93 JUMPI PUSH1 0x0 CALLDATALOAD PUSH1 0xE0 SHR DUP1 PUSH4 0x70A08231 GT PUSH2 0x66 JUMPI DUP1 PUSH4 0x70A08231 EQ PUSH2 0x110 JUMPI DUP1 PUSH4 0x9C8F9F23 EQ PUSH2 0x140 JUMPI DUP1 PUSH4 0x9CD441DA EQ PUSH2 0x171 JUMPI DUP1 PUSH4 0xD004F0F7 EQ PUSH2 0x1A1 JUMPI DUP1 PUSH4 0xD21220A7 EQ PUSH2 0x1D1 JUMPI PUSH2 0x93 JUMP JUMPDEST DUP1 PUSH4 0xDFE1681 EQ PUSH2 0x98 JUMPI DUP1 PUSH4 0x18160DDD EQ PUSH2 0xB6 JUMPI DUP1 PUSH4 0x443CB4BC EQ PUSH2 0xD4 JUMPI DUP1 PUSH4 0x5A76F25E EQ PUSH2 0xF2 JUMPI JUMPDEST PUSH1 0x0 DUP1 REVERT JUMPDEST PUSH2 0xA0 PUSH2 0x1EF JUMP JUMPDEST PUSH1 0x40 MLOAD PUSH2 0xAD SWAP2 SWAP1 PUSH2 0xCD3 JUMP JUMPDEST PUSH1 0x40 MLOAD DUP1 SWAP2 SUB SWAP1 RETURN JUMPDEST PUSH2 0xBE PUSH2 0x213 JUMP JUMPDEST PUSH1 0x40 MLOAD PUSH2 0xCB SWAP2 SWAP1 PUSH2 0xD07 JUMP JUMPDEST PUSH1 0x40 MLOAD DUP1 SWAP2 SUB SWAP1 RETURN JUMPDEST PUSH2 0xDC PUSH2 0x219 JUMP JUMPDEST PUSH1 0x40 MLOAD PUSH2 0xE9 SWAP2 SWAP1 PUSH2 0xD07 JUMP JUMPDEST PUSH1 0x40 MLOAD DUP1 SWAP2 SUB SWAP1 RETURN JUMPDEST PUSH2 0xFA PUSH2 0x21F JUMP JUMPDEST PUSH1 0x40 MLOAD PUSH2 0x107 SWAP2 SWAP1 PUSH2 0xD07 JUMP JUMPDEST PUSH1 0x40 MLOAD DUP1 SWAP2 SUB SWAP1 RETURN JUMPDEST PUSH2 0x12A PUSH1 0x4 DUP1 CALLDATASIZE SUB DUP2 ADD SWAP1 PUSH2 0x125 SWAP2 SWAP1 PUSH2 0xD65 JUMP JUMPDEST PUSH2 0x225 JUMP JUMPDEST PUSH1 0x40 MLOAD PUSH2 0x137 SWAP2 SWAP1 PUSH2 0xD07 JUMP JUMPDEST PUSH1 0x40 MLOAD DUP1 SWAP2 SUB SWAP1 RETURN JUMPDEST PUSH2 0x15A PUSH1 0x4 DUP1 CALLDATASIZE SUB DUP2 ADD SWAP1 PUSH2 0x155 SWAP2 SWAP1 PUSH2 0xDBE JUMP JUMPDEST PUSH2 0x23D JUMP JUMPDEST PUSH1 0x40 MLOAD PUSH2 0x168 SWAP3 SWAP2 SWAP1 PUSH2 0xDEB JUMP JUMPDEST PUSH1 0x40 MLOAD DUP1 SWAP2 SUB SWAP1 RETURN JUMPDEST PUSH2 0x18B PUSH1 0x4 DUP1 CALLDATASIZE SUB DUP2 ADD SWAP1 PUSH2 0x186 SWAP2 SWAP1 PUSH2 0xE14 JUMP JUMPDEST PUSH2 0x3FF JUMP JUMPDEST PUSH1 0x40 MLOAD PUSH2 0x198 SWAP2 SWAP1 PUSH2 0xD07 JUMP JUMPDEST PUSH1 0x40 MLOAD DUP1 SWAP2 SUB SWAP1 RETURN JUMPDEST PUSH2 0x1BB PUSH1 0x4 DUP1 CALLDATASIZE SUB DUP2 ADD SWAP1 PUSH2 0x1B6 SWAP2 SWAP1 PUSH2 0xE54 JUMP JUMPDEST PUSH2 0x756 JUMP JUMPDEST PUSH1 0x40 MLOAD PUSH2 0x1C8 SWAP2 SWAP1 PUSH2 0xD07 JUMP JUMPDEST PUSH1 0x40 MLOAD DUP1 SWAP2 SUB SWAP1 RETURN JUMPDEST PUSH2 0x1D9 PUSH2 0xB38 JUMP JUMPDEST PUSH1 0x40 MLOAD PUSH2 0x1E6 SWAP2 SWAP1 PUSH2 0xCD3 JUMP JUMPDEST PUSH1 0x40 MLOAD DUP1 SWAP2 SUB SWAP1 RETURN JUMPDEST PUSH32 0x0 DUP2 JUMP JUMPDEST PUSH1 0x2 SLOAD DUP2 JUMP JUMPDEST PUSH1 0x0 SLOAD DUP2 JUMP JUMPDEST PUSH1 0x1 SLOAD DUP2 JUMP JUMPDEST PUSH1 0x3 PUSH1 0x20 MSTORE DUP1 PUSH1 0x0 MSTORE PUSH1 0x40 PUSH1 0x0 KECCAK256 PUSH1 0x0 SWAP2 POP SWAP1 POP SLOAD DUP2 JUMP JUMPDEST PUSH1 0x0 DUP1 PUSH1 0x2 SLOAD DUP4 PUSH1 0x0 SLOAD PUSH2 0x251 SWAP2 SWAP1 PUSH2 0xEC3 JUMP JUMPDEST PUSH2 0x25B SWAP2 SWAP1 PUSH2 0xF34 JUMP JUMPDEST SWAP2 POP PUSH1 0x2 SLOAD DUP4 PUSH1 0x1 SLOAD PUSH2 0x26E SWAP2 SWAP1 PUSH2 0xEC3 JUMP JUMPDEST PUSH2 0x278 SWAP2 SWAP1 PUSH2 0xF34 JUMP JUMPDEST SWAP1 POP PUSH2 0x284 CALLER DUP5 PUSH2 0xB5C JUMP JUMPDEST PUSH2 0x2A8 DUP3 PUSH1 0x0 SLOAD PUSH2 0x295 SWAP2 SWAP1 PUSH2 0xF65 JUMP JUMPDEST DUP3 PUSH1 0x1 SLOAD PUSH2 0x2A3 SWAP2 SWAP1 PUSH2 0xF65 JUMP JUMPDEST PUSH2 0xBCF JUMP JUMPDEST PUSH1 0x0 DUP3 GT ISZERO PUSH2 0x351 JUMPI PUSH32 0x0 PUSH20 0xFFFFFFFFFFFFFFFFFFFFFFFFFFFFFFFFFFFFFFFF AND PUSH4 0xA9059CBB CALLER DUP5 PUSH1 0x40 MLOAD DUP4 PUSH4 0xFFFFFFFF AND PUSH1 0xE0 SHL DUP2 MSTORE PUSH1 0x4 ADD PUSH2 0x30C SWAP3 SWAP2 SWAP1 PUSH2 0xFA8 JUMP JUMPDEST PUSH1 0x20 PUSH1 0x40 MLOAD DUP1 DUP4 SUB DUP2 PUSH1 0x0 DUP8 GAS CALL ISZERO DUP1 ISZERO PUSH2 0x32B JUMPI RETURNDATASIZE PUSH1 0x0 DUP1 RETURNDATACOPY RETURNDATASIZE PUSH1 0x0 REVERT JUMPDEST POP POP POP POP PUSH1 0x40 MLOAD RETURNDATASIZE PUSH1 0x1F NOT PUSH1 0x1F DUP3 ADD AND DUP3 ADD DUP1 PUSH1 0x40 MSTORE POP DUP2 ADD SWAP1 PUSH2 0x34F SWAP2 SWAP1 PUSH2 0x1009 JUMP JUMPDEST POP JUMPDEST PUSH1 0x0 DUP2 GT ISZERO PUSH2 0x3FA JUMPI PUSH32 0x0 PUSH20 0xFFFFFFFFFFFFFFFFFFFFFFFFFFFFFFFFFFFFFFFF AND PUSH4 0xA9059CBB CALLER DUP4 PUSH1 0x40 MLOAD DUP4 PUSH4 0xFFFFFFFF AND PUSH1 0xE0 SHL DUP2 MSTORE PUSH1 0x4 ADD PUSH2 0x3B5 SWAP3 SWAP2 SWAP1 PUSH2 0xFA8 JUMP JUMPDEST PUSH1 0x20 PUSH1 0x40 MLOAD DUP1 DUP4 SUB DUP2 PUSH1 0x0 DUP8 GAS CALL ISZERO DUP1 ISZERO PUSH2 0x3D4 JUMPI RETURNDATASIZE PUSH1 0x0 DUP1 RETURNDATACOPY RETURNDATASIZE PUSH1 0x0 REVERT JUMPDEST POP POP POP POP PUSH1 0x40 MLOAD RETURNDATASIZE PUSH1 0x1F NOT PUSH1 0x1F DUP3 ADD AND DUP3 ADD DUP1 PUSH1 0x40 MSTORE POP DUP2 ADD SWAP1 PUSH2 0x3F8 SWAP2 SWAP1 PUSH2 0x1009 JUMP JUMPDEST POP JUMPDEST SWAP2 POP SWAP2 JUMP JUMPDEST PUSH1 0x0 PUSH32 0x0 PUSH20 0xFFFFFFFFFFFFFFFFFFFFFFFFFFFFFFFFFFFFFFFF AND PUSH4 0x23B872DD CALLER ADDRESS DUP7 PUSH1 0x40 MLOAD DUP5 PUSH4 0xFFFFFFFF AND PUSH1 0xE0 SHL DUP2 MSTORE PUSH1 0x4 ADD PUSH2 0x45E SWAP4 SWAP3 SWAP2 SWAP1 PUSH2 0x1036 JUMP JUMPDEST PUSH1 0x20 PUSH1 0x40 MLOAD DUP1 DUP4 SUB DUP2 PUSH1 0x0 DUP8 GAS CALL ISZERO DUP1 ISZERO PUSH2 0x47D JUMPI RETURNDATASIZE PUSH1 0x0 DUP1 RETURNDATACOPY RETURNDATASIZE PUSH1 0x0 REVERT JUMPDEST POP POP POP POP PUSH1 0x40 MLOAD RETURNDATASIZE PUSH1 0x1F NOT PUSH1 0x1F DUP3 ADD AND DUP3 ADD DUP1 PUSH1 0x40 MSTORE POP DUP2 ADD SWAP1 PUSH2 0x4A1 SWAP2 SWAP1 PUSH2 0x1009 JUMP JUMPDEST POP PUSH32 0x0 PUSH20 0xFFFFFFFFFFFFFFFFFFFFFFFFFFFFFFFFFFFFFFFF AND PUSH4 0x23B872DD CALLER ADDRESS DUP6 PUSH1 0x40 MLOAD DUP5 PUSH4 0xFFFFFFFF AND PUSH1 0xE0 SHL DUP2 MSTORE PUSH1 0x4 ADD PUSH2 0x4FF SWAP4 SWAP3 SWAP2 SWAP1 PUSH2 0x1036 JUMP JUMPDEST PUSH1 0x20 PUSH1 0x40 MLOAD DUP1 DUP4 SUB DUP2 PUSH1 0x0 DUP8 GAS CALL ISZERO DUP1 ISZERO PUSH2 0x51E JUMPI RETURNDATASIZE PUSH1 0x0 DUP1 RETURNDATACOPY RETURNDATASIZE PUSH1 0x0 REVERT JUMPDEST POP POP POP POP PUSH1 0x40 MLOAD RETURNDATASIZE PUSH1 0x1F NOT PUSH1 0x1F DUP3 ADD AND DUP3 ADD DUP1 PUSH1 0x40 MSTORE POP DUP2 ADD SWAP1 PUSH2 0x542 SWAP2 SWAP1 PUSH2 0x1009 JUMP JUMPDEST POP PUSH1 0x0 PUSH32 0x0 PUSH20 0xFFFFFFFFFFFFFFFFFFFFFFFFFFFFFFFFFFFFFFFF AND PUSH4 0x70A08231 ADDRESS PUSH1 0x40 MLOAD DUP3 PUSH4 0xFFFFFFFF AND PUSH1 0xE0 SHL DUP2 MSTORE PUSH1 0x4 ADD PUSH2 0x59E SWAP2 SWAP1 PUSH2 0x106D JUMP JUMPDEST PUSH1 0x20 PUSH1 0x40 MLOAD DUP1 DUP4 SUB DUP2 DUP7 GAS STATICCALL ISZERO DUP1 ISZERO PUSH2 0x5BB JUMPI RETURNDATASIZE PUSH1 0x0 DUP1 RETURNDATACOPY RETURNDATASIZE PUSH1 0x0 REVERT JUMPDEST POP POP POP POP PUSH1 0x40 MLOAD RETURNDATASIZE PUSH1 0x1F NOT PUSH1 0x1F DUP3 ADD AND DUP3 ADD DUP1 PUSH1 0x40 MSTORE POP DUP2 ADD SWAP1 PUSH2 0x5DF SWAP2 SWAP1 PUSH2 0x109D JUMP JUMPDEST SWAP1 POP PUSH1 0x0 PUSH32 0x0 PUSH20 0xFFFFFFFFFFFFFFFFFFFFFFFFFFFFFFFFFFFFFFFF AND PUSH4 0x70A08231 ADDRESS PUSH1 0x40 MLOAD DUP3 PUSH4 0xFFFFFFFF AND PUSH1 0xE0 SHL DUP2 MSTORE PUSH1 0x4 ADD PUSH2 0x63C SWAP2 SWAP1 PUSH2 0x106D JUMP JUMPDEST PUSH1 0x20 PUSH1 0x40 MLOAD DUP1 DUP4 SUB DUP2 DUP7 GAS STATICCALL ISZERO DUP1 ISZERO PUSH2 0x659 JUMPI RETURNDATASIZE PUSH1 0x0 DUP1 RETURNDATACOPY RETURNDATASIZE PUSH1 0x0 REVERT JUMPDEST POP POP POP POP PUSH1 0x40 MLOAD RETURNDATASIZE PUSH1 0x1F NOT PUSH1 0x1F DUP3 ADD AND DUP3 ADD DUP1 PUSH1 0x40 MSTORE POP DUP2 ADD SWAP1 PUSH2 0x67D SWAP2 SWAP1 PUSH2 0x109D JUMP JUMPDEST SWAP1 POP PUSH1 0x0 DUP1 SLOAD DUP4 PUSH2 0x68E SWAP2 SWAP1 PUSH2 0xF65 JUMP JUMPDEST SWAP1 POP PUSH1 0x0 PUSH1 0x1 SLOAD DUP4 PUSH2 0x6A0 SWAP2 SWAP1 PUSH2 0xF65 JUMP JUMPDEST SWAP1 POP PUSH1 0x0 PUSH1 0x2 SLOAD SUB PUSH2 0x6BF JUMPI DUP1 DUP3 PUSH2 0x6B8 SWAP2 SWAP1 PUSH2 0x10CA JUMP JUMPDEST SWAP5 POP PUSH2 0x6F5 JUMP JUMPDEST PUSH1 0x1 SLOAD PUSH1 0x0 SLOAD PUSH2 0x6CF SWAP2 SWAP1 PUSH2 0x10CA JUMP JUMPDEST PUSH1 0x2 SLOAD DUP3 DUP5 PUSH2 0x6DE SWAP2 SWAP1 PUSH2 0x10CA JUMP JUMPDEST PUSH2 0x6E8 SWAP2 SWAP1 PUSH2 0xEC3 JUMP JUMPDEST PUSH2 0x6F2 SWAP2 SWAP1 PUSH2 0xF34 JUMP JUMPDEST SWAP5 POP JUMPDEST PUSH1 0x0 DUP6 GT PUSH2 0x738 JUMPI PUSH1 0x40 MLOAD PUSH32 0x8C379A000000000000000000000000000000000000000000000000000000000 DUP2 MSTORE PUSH1 0x4 ADD PUSH2 0x72F SWAP1 PUSH2 0x115B JUMP JUMPDEST PUSH1 0x40 MLOAD DUP1 SWAP2 SUB SWAP1 REVERT JUMPDEST PUSH2 0x742 CALLER DUP7 PUSH2 0xBE1 JUMP JUMPDEST PUSH2 0x74C DUP5 DUP5 PUSH2 0xBCF JUMP JUMPDEST POP POP POP POP SWAP3 SWAP2 POP POP JUMP JUMPDEST PUSH1 0x0 PUSH32 0x0 PUSH20 0xFFFFFFFFFFFFFFFFFFFFFFFFFFFFFFFFFFFFFFFF AND DUP4 PUSH20 0xFFFFFFFFFFFFFFFFFFFFFFFFFFFFFFFFFFFFFFFF AND EQ DUP1 PUSH2 0x7FD JUMPI POP PUSH32 0x0 PUSH20 0xFFFFFFFFFFFFFFFFFFFFFFFFFFFFFFFFFFFFFFFF AND DUP4 PUSH20 0xFFFFFFFFFFFFFFFFFFFFFFFFFFFFFFFFFFFFFFFF AND EQ JUMPDEST PUSH2 0x83C JUMPI PUSH1 0x40 MLOAD PUSH32 0x8C379A000000000000000000000000000000000000000000000000000000000 DUP2 MSTORE PUSH1 0x4 ADD PUSH2 0x833 SWAP1 PUSH2 0x11C7 JUMP JUMPDEST PUSH1 0x40 MLOAD DUP1 SWAP2 SUB SWAP1 REVERT JUMPDEST PUSH1 0x0 PUSH32 0x0 PUSH20 0xFFFFFFFFFFFFFFFFFFFFFFFFFFFFFFFFFFFFFFFF AND DUP5 PUSH20 0xFFFFFFFFFFFFFFFFFFFFFFFFFFFFFFFFFFFFFFFF AND EQ SWAP1 POP PUSH1 0x0 DUP1 PUSH1 0x0 DUP1 DUP5 PUSH2 0x8E7 JUMPI PUSH32 0x0 PUSH32 0x0 PUSH1 0x1 SLOAD PUSH1 0x0 SLOAD PUSH2 0x930 JUMP JUMPDEST PUSH32 0x0 PUSH32 0x0 PUSH1 0x0 SLOAD PUSH1 0x1 SLOAD JUMPDEST SWAP4 POP SWAP4 POP SWAP4 POP SWAP4 POP DUP4 PUSH20 0xFFFFFFFFFFFFFFFFFFFFFFFFFFFFFFFFFFFFFFFF AND PUSH4 0x23B872DD CALLER ADDRESS DUP11 PUSH1 0x40 MLOAD DUP5 PUSH4 0xFFFFFFFF AND PUSH1 0xE0 SHL DUP2 MSTORE PUSH1 0x4 ADD PUSH2 0x975 SWAP4 SWAP3 SWAP2 SWAP1 PUSH2 0x1036 JUMP JUMPDEST PUSH1 0x20 PUSH1 0x40 MLOAD DUP1 DUP4 SUB DUP2 PUSH1 0x0 DUP8 GAS CALL ISZERO DUP1 ISZERO PUSH2 0x994 JUMPI RETURNDATASIZE PUSH1 0x0 DUP1 RETURNDATACOPY RETURNDATASIZE PUSH1 0x0 REVERT JUMPDEST POP POP POP POP PUSH1 0x40 MLOAD RETURNDATASIZE PUSH1 0x1F NOT PUSH1 0x1F DUP3 ADD AND DUP3 ADD DUP1 PUSH1 0x40 MSTORE POP DUP2 ADD SWAP1 PUSH2 0x9B8 SWAP2 SWAP1 PUSH2 0x1009 JUMP JUMPDEST POP PUSH1 0x0 DUP3 DUP6 PUSH20 0xFFFFFFFFFFFFFFFFFFFFFFFFFFFFFFFFFFFFFFFF AND PUSH4 0x70A08231 ADDRESS PUSH1 0x40 MLOAD DUP3 PUSH4 0xFFFFFFFF AND PUSH1 0xE0 SHL DUP2 MSTORE PUSH1 0x4 ADD PUSH2 0x9F5 SWAP2 SWAP1 PUSH2 0x106D JUMP JUMPDEST PUSH1 0x20 PUSH1 0x40 MLOAD DUP1 DUP4 SUB DUP2 DUP7 GAS STATICCALL ISZERO DUP1 ISZERO PUSH2 0xA12 JUMPI RETURNDATASIZE PUSH1 0x0 DUP1 RETURNDATACOPY RETURNDATASIZE PUSH1 0x0 REVERT JUMPDEST POP POP POP POP PUSH1 0x40 MLOAD RETURNDATASIZE PUSH1 0x1F NOT PUSH1 0x1F DUP3 ADD AND DUP3 ADD DUP1 PUSH1 0x40 MSTORE POP DUP2 ADD SWAP1 PUSH2 0xA36 SWAP2 SWAP1 PUSH2 0x109D JUMP JUMPDEST PUSH2 0xA40 SWAP2 SWAP1 PUSH2 0xF65 JUMP JUMPDEST SWAP1 POP PUSH2 0x3E8 PUSH2 0x3E5 DUP3 PUSH2 0xA53 SWAP2 SWAP1 PUSH2 0xEC3 JUMP JUMPDEST PUSH2 0xA5D SWAP2 SWAP1 PUSH2 0xF34 JUMP JUMPDEST SWAP7 POP PUSH1 0x0 DUP1 DUP8 PUSH2 0xA84 JUMPI DUP9 DUP5 PUSH2 0xA73 SWAP2 SWAP1 PUSH2 0xF65 JUMP JUMPDEST DUP11 DUP7 PUSH2 0xA7F SWAP2 SWAP1 PUSH2 0x10CA JUMP JUMPDEST PUSH2 0xA9D JUMP JUMPDEST DUP10 DUP6 PUSH2 0xA90 SWAP2 SWAP1 PUSH2 0x10CA JUMP JUMPDEST DUP10 DUP6 PUSH2 0xA9C SWAP2 SWAP1 PUSH2 0xF65 JUMP JUMPDEST JUMPDEST SWAP2 POP SWAP2 POP PUSH2 0xAAB DUP3 DUP3 PUSH2 0xBCF JUMP JUMPDEST DUP6 PUSH20 0xFFFFFFFFFFFFFFFFFFFFFFFFFFFFFFFFFFFFFFFF AND PUSH4 0xA9059CBB CALLER DUP12 PUSH1 0x40 MLOAD DUP4 PUSH4 0xFFFFFFFF AND PUSH1 0xE0 SHL DUP2 MSTORE PUSH1 0x4 ADD PUSH2 0xAE6 SWAP3 SWAP2 SWAP1 PUSH2 0xFA8 JUMP JUMPDEST PUSH1 0x20 PUSH1 0x40 MLOAD DUP1 DUP4 SUB DUP2 PUSH1 0x0 DUP8 GAS CALL ISZERO DUP1 ISZERO PUSH2 0xB05 JUMPI RETURNDATASIZE PUSH1 0x0 DUP1 RETURNDATACOPY RETURNDATASIZE PUSH1 0x0 REVERT JUMPDEST POP POP POP POP PUSH1 0x40 MLOAD RETURNDATASIZE PUSH1 0x1F NOT PUSH1 0x1F DUP3 ADD AND DUP3 ADD DUP1 PUSH1 0x40 MSTORE POP DUP2 ADD SWAP1 PUSH2 0xB29 SWAP2 SWAP1 PUSH2 0x1009 JUMP JUMPDEST POP POP POP POP POP POP POP POP POP SWAP3 SWAP2 POP POP JUMP JUMPDEST PUSH32 0x0 DUP2 JUMP JUMPDEST DUP1 PUSH1 0x3 PUSH1 0x0 DUP5 PUSH20 0xFFFFFFFFFFFFFFFFFFFFFFFFFFFFFFFFFFFFFFFF AND PUSH20 0xFFFFFFFFFFFFFFFFFFFFFFFFFFFFFFFFFFFFFFFF AND DUP2 MSTORE PUSH1 0x20 ADD SWAP1 DUP2 MSTORE PUSH1 0x20 ADD PUSH1 0x0 KECCAK256 PUSH1 0x0 DUP3 DUP3 SLOAD PUSH2 0xBAB SWAP2 SWAP1 PUSH2 0xF65 JUMP JUMPDEST SWAP3 POP POP DUP2 SWAP1 SSTORE POP DUP1 PUSH1 0x2 PUSH1 0x0 DUP3 DUP3 SLOAD PUSH2 0xBC4 SWAP2 SWAP1 PUSH2 0xF65 JUMP JUMPDEST SWAP3 POP POP DUP2 SWAP1 SSTORE POP POP POP JUMP JUMPDEST DUP2 PUSH1 0x0 DUP2 SWAP1 SSTORE POP DUP1 PUSH1 0x1 DUP2 SWAP1 SSTORE POP POP POP JUMP JUMPDEST DUP1 PUSH1 0x3 PUSH1 0x0 DUP5 PUSH20 0xFFFFFFFFFFFFFFFFFFFFFFFFFFFFFFFFFFFFFFFF AND PUSH20 0xFFFFFFFFFFFFFFFFFFFFFFFFFFFFFFFFFFFFFFFF AND DUP2 MSTORE PUSH1 0x20 ADD SWAP1 DUP2 MSTORE PUSH1 0x20 ADD PUSH1 0x0 KECCAK256 PUSH1 0x0 DUP3 DUP3 SLOAD PUSH2 0xC30 SWAP2 SWAP1 PUSH2 0x10CA JUMP JUMPDEST SWAP3 POP POP DUP2 SWAP1 SSTORE POP DUP1 PUSH1 0x2 PUSH1 0x0 DUP3 DUP3 SLOAD PUSH2 0xC49 SWAP2 SWAP1 PUSH2 0x10CA JUMP JUMPDEST SWAP3 POP POP DUP2 SWAP1 SSTORE POP POP POP JUMP JUMPDEST PUSH1 0x0 PUSH20 0xFFFFFFFFFFFFFFFFFFFFFFFFFFFFFFFFFFFFFFFF DUP3 AND SWAP1 POP SWAP2 SWAP1 POP JUMP JUMPDEST PUSH1 0x0 DUP2 SWAP1 POP SWAP2 SWAP1 POP JUMP JUMPDEST PUSH1 0x0 PUSH2 0xC99 PUSH2 0xC94 PUSH2 0xC8F DUP5 PUSH2 0xC54 JUMP JUMPDEST PUSH2 0xC74 JUMP JUMPDEST PUSH2 0xC54 JUMP JUMPDEST SWAP1 POP SWAP2 SWAP1 POP JUMP JUMPDEST PUSH1 0x0 PUSH2 0xCAB DUP3 PUSH2 0xC7E JUMP JUMPDEST SWAP1 POP SWAP2 SWAP1 POP JUMP JUMPDEST PUSH1 0x0 PUSH2 0xCBD DUP3 PUSH2 0xCA0 JUMP JUMPDEST SWAP1 POP SWAP2 SWAP1 POP JUMP JUMPDEST PUSH2 0xCCD DUP2 PUSH2 0xCB2 JUMP JUMPDEST DUP3 MSTORE POP POP JUMP JUMPDEST PUSH1 0x0 PUSH1 0x20 DUP3 ADD SWAP1 POP PUSH2 0xCE8 PUSH1 0x0 DUP4 ADD DUP5 PUSH2 0xCC4 JUMP JUMPDEST SWAP3 SWAP2 POP POP JUMP JUMPDEST PUSH1 0x0 DUP2 SWAP1 POP SWAP2 SWAP1 POP JUMP JUMPDEST PUSH2 0xD01 DUP2 PUSH2 0xCEE JUMP JUMPDEST DUP3 MSTORE POP POP JUMP JUMPDEST PUSH1 0x0 PUSH1 0x20 DUP3 ADD SWAP1 POP PUSH2 0xD1C PUSH1 0x0 DUP4 ADD DUP5 PUSH2 0xCF8 JUMP JUMPDEST SWAP3 SWAP2 POP POP JUMP JUMPDEST PUSH1 0x0 DUP1 REVERT JUMPDEST PUSH1 0x0 PUSH2 0xD32 DUP3 PUSH2 0xC54 JUMP JUMPDEST SWAP1 POP SWAP2 SWAP1 POP JUMP JUMPDEST PUSH2 0xD42 DUP2 PUSH2 0xD27 JUMP JUMPDEST DUP2 EQ PUSH2 0xD4D JUMPI PUSH1 0x0 DUP1 REVERT JUMPDEST POP JUMP JUMPDEST PUSH1 0x0 DUP2 CALLDATALOAD SWAP1 POP PUSH2 0xD5F DUP2 PUSH2 0xD39 JUMP JUMPDEST SWAP3 SWAP2 POP POP JUMP JUMPDEST PUSH1 0x0 PUSH1 0x20 DUP3 DUP5 SUB SLT ISZERO PUSH2 0xD7B JUMPI PUSH2 0xD7A PUSH2 0xD22 JUMP JUMPDEST JUMPDEST PUSH1 0x0 PUSH2 0xD89 DUP5 DUP3 DUP6 ADD PUSH2 0xD50 JUMP JUMPDEST SWAP2 POP POP SWAP3 SWAP2 POP POP JUMP JUMPDEST PUSH2 0xD9B DUP2 PUSH2 0xCEE JUMP JUMPDEST DUP2 EQ PUSH2 0xDA6 JUMPI PUSH1 0x0 DUP1 REVERT JUMPDEST POP JUMP JUMPDEST PUSH1 0x0 DUP2 CALLDATALOAD SWAP1 POP PUSH2 0xDB8 DUP2 PUSH2 0xD92 JUMP JUMPDEST SWAP3 SWAP2 POP POP JUMP JUMPDEST PUSH1 0x0 PUSH1 0x20 DUP3 DUP5 SUB SLT ISZERO PUSH2 0xDD4 JUMPI PUSH2 0xDD3 PUSH2 0xD22 JUMP JUMPDEST JUMPDEST PUSH1 0x0 PUSH2 0xDE2 DUP5 DUP3 DUP6 ADD PUSH2 0xDA9 JUMP JUMPDEST SWAP2 POP POP SWAP3 SWAP2 POP POP JUMP JUMPDEST PUSH1 0x0 PUSH1 0x40 DUP3 ADD SWAP1 POP PUSH2 0xE00 PUSH1 0x0 DUP4 ADD DUP6 PUSH2 0xCF8 JUMP JUMPDEST PUSH2 0xE0D PUSH1 0x20 DUP4 ADD DUP5 PUSH2 0xCF8 JUMP JUMPDEST SWAP4 SWAP3 POP POP POP JUMP JUMPDEST PUSH1 0x0 DUP1 PUSH1 0x40 DUP4 DUP6 SUB SLT ISZERO PUSH2 0xE2B JUMPI PUSH2 0xE2A PUSH2 0xD22 JUMP JUMPDEST JUMPDEST PUSH1 0x0 PUSH2 0xE39 DUP6 DUP3 DUP7 ADD PUSH2 0xDA9 JUMP JUMPDEST SWAP3 POP POP PUSH1 0x20 PUSH2 0xE4A DUP6 DUP3 DUP7 ADD PUSH2 0xDA9 JUMP JUMPDEST SWAP2 POP POP SWAP3 POP SWAP3 SWAP1 POP JUMP JUMPDEST PUSH1 0x0 DUP1 PUSH1 0x40 DUP4 DUP6 SUB SLT ISZERO PUSH2 0xE6B JUMPI PUSH2 0xE6A PUSH2 0xD22 JUMP JUMPDEST JUMPDEST PUSH1 0x0 PUSH2 0xE79 DUP6 DUP3 DUP7 ADD PUSH2 0xD50 JUMP JUMPDEST SWAP3 POP POP PUSH1 0x20 PUSH2 0xE8A DUP6 DUP3 DUP7 ADD PUSH2 0xDA9 JUMP JUMPDEST SWAP2 POP POP SWAP3 POP SWAP3 SWAP1 POP JUMP JUMPDEST PUSH32 0x4E487B7100000000000000000000000000000000000000000000000000000000 PUSH1 0x0 MSTORE PUSH1 0x11 PUSH1 0x4 MSTORE PUSH1 0x24 PUSH1 0x0 REVERT JUMPDEST PUSH1 0x0 PUSH2 0xECE DUP3 PUSH2 0xCEE JUMP JUMPDEST SWAP2 POP PUSH2 0xED9 DUP4 PUSH2 0xCEE JUMP JUMPDEST SWAP3 POP DUP3 DUP3 MUL PUSH2 0xEE7 DUP2 PUSH2 0xCEE JUMP JUMPDEST SWAP2 POP DUP3 DUP3 DIV DUP5 EQ DUP4 ISZERO OR PUSH2 0xEFE JUMPI PUSH2 0xEFD PUSH2 0xE94 JUMP JUMPDEST JUMPDEST POP SWAP3 SWAP2 POP POP JUMP JUMPDEST PUSH32 0x4E487B7100000000000000000000000000000000000000000000000000000000 PUSH1 0x0 MSTORE PUSH1 0x12 PUSH1 0x4 MSTORE PUSH1 0x24 PUSH1 0x0 REVERT JUMPDEST PUSH1 0x0 PUSH2 0xF3F DUP3 PUSH2 0xCEE JUMP JUMPDEST SWAP2 POP PUSH2 0xF4A DUP4 PUSH2 0xCEE JUMP JUMPDEST SWAP3 POP DUP3 PUSH2 0xF5A JUMPI PUSH2 0xF59 PUSH2 0xF05 JUMP JUMPDEST JUMPDEST DUP3 DUP3 DIV SWAP1 POP SWAP3 SWAP2 POP POP JUMP JUMPDEST PUSH1 0x0 PUSH2 0xF70 DUP3 PUSH2 0xCEE JUMP JUMPDEST SWAP2 POP PUSH2 0xF7B DUP4 PUSH2 0xCEE JUMP JUMPDEST SWAP3 POP DUP3 DUP3 SUB SWAP1 POP DUP2 DUP2 GT ISZERO PUSH2 0xF93 JUMPI PUSH2 0xF92 PUSH2 0xE94 JUMP JUMPDEST JUMPDEST SWAP3 SWAP2 POP POP JUMP JUMPDEST PUSH2 0xFA2 DUP2 PUSH2 0xD27 JUMP JUMPDEST DUP3 MSTORE POP POP JUMP JUMPDEST PUSH1 0x0 PUSH1 0x40 DUP3 ADD SWAP1 POP PUSH2 0xFBD PUSH1 0x0 DUP4 ADD DUP6 PUSH2 0xF99 JUMP JUMPDEST PUSH2 0xFCA PUSH1 0x20 DUP4 ADD DUP5 PUSH2 0xCF8 JUMP JUMPDEST SWAP4 SWAP3 POP POP POP JUMP JUMPDEST PUSH1 0x0 DUP2 ISZERO ISZERO SWAP1 POP SWAP2 SWAP1 POP JUMP JUMPDEST PUSH2 0xFE6 DUP2 PUSH2 0xFD1 JUMP JUMPDEST DUP2 EQ PUSH2 0xFF1 JUMPI PUSH1 0x0 DUP1 REVERT JUMPDEST POP JUMP JUMPDEST PUSH1 0x0 DUP2 MLOAD SWAP1 POP PUSH2 0x1003 DUP2 PUSH2 0xFDD JUMP JUMPDEST SWAP3 SWAP2 POP POP JUMP JUMPDEST PUSH1 0x0 PUSH1 0x20 DUP3 DUP5 SUB SLT ISZERO PUSH2 0x101F JUMPI PUSH2 0x101E PUSH2 0xD22 JUMP JUMPDEST JUMPDEST PUSH1 0x0 PUSH2 0x102D DUP5 DUP3 DUP6 ADD PUSH2 0xFF4 JUMP JUMPDEST SWAP2 POP POP SWAP3 SWAP2 POP POP JUMP JUMPDEST PUSH1 0x0 PUSH1 0x60 DUP3 ADD SWAP1 POP PUSH2 0x104B PUSH1 0x0 DUP4 ADD DUP7 PUSH2 0xF99 JUMP JUMPDEST PUSH2 0x1058 PUSH1 0x20 DUP4 ADD DUP6 PUSH2 0xF99 JUMP JUMPDEST PUSH2 0x1065 PUSH1 0x40 DUP4 ADD DUP5 PUSH2 0xCF8 JUMP JUMPDEST SWAP5 SWAP4 POP POP POP POP JUMP JUMPDEST PUSH1 0x0 PUSH1 0x20 DUP3 ADD SWAP1 POP PUSH2 0x1082 PUSH1 0x0 DUP4 ADD DUP5 PUSH2 0xF99 JUMP JUMPDEST SWAP3 SWAP2 POP POP JUMP JUMPDEST PUSH1 0x0 DUP2 MLOAD SWAP1 POP PUSH2 0x1097 DUP2 PUSH2 0xD92 JUMP JUMPDEST SWAP3 SWAP2 POP POP JUMP JUMPDEST PUSH1 0x0 PUSH1 0x20 DUP3 DUP5 SUB SLT ISZERO PUSH2 0x10B3 JUMPI PUSH2 0x10B2 PUSH2 0xD22 JUMP JUMPDEST JUMPDEST PUSH1 0x0 PUSH2 0x10C1 DUP5 DUP3 DUP6 ADD PUSH2 0x1088 JUMP JUMPDEST SWAP2 POP POP SWAP3 SWAP2 POP POP JUMP JUMPDEST PUSH1 0x0 PUSH2 0x10D5 DUP3 PUSH2 0xCEE JUMP JUMPDEST SWAP2 POP PUSH2 0x10E0 DUP4 PUSH2 0xCEE JUMP JUMPDEST SWAP3 POP DUP3 DUP3 ADD SWAP1 POP DUP1 DUP3 GT ISZERO PUSH2 0x10F8 JUMPI PUSH2 0x10F7 PUSH2 0xE94 JUMP JUMPDEST JUMPDEST SWAP3 SWAP2 POP POP JUMP JUMPDEST PUSH1 0x0 DUP3 DUP3 MSTORE PUSH1 0x20 DUP3 ADD SWAP1 POP SWAP3 SWAP2 POP POP JUMP JUMPDEST PUSH32 0x736861726573203D203000000000000000000000000000000000000000000000 PUSH1 0x0 DUP3 ADD MSTORE POP JUMP JUMPDEST PUSH1 0x0 PUSH2 0x1145 PUSH1 0xA DUP4 PUSH2 0x10FE JUMP JUMPDEST SWAP2 POP PUSH2 0x1150 DUP3 PUSH2 0x110F JUMP JUMPDEST PUSH1 0x20 DUP3 ADD SWAP1 POP SWAP2 SWAP1 POP JUMP JUMPDEST PUSH1 0x0 PUSH1 0x20 DUP3 ADD SWAP1 POP DUP2 DUP2 SUB PUSH1 0x0 DUP4 ADD MSTORE PUSH2 0x1174 DUP2 PUSH2 0x1138 JUMP JUMPDEST SWAP1 POP SWAP2 SWAP1 POP JUMP JUMPDEST PUSH32 0x696E76616C696420746F6B656E00000000000000000000000000000000000000 PUSH1 0x0 DUP3 ADD MSTORE POP JUMP JUMPDEST PUSH1 0x0 PUSH2 0x11B1 PUSH1 0xD DUP4 PUSH2 0x10FE JUMP JUMPDEST SWAP2 POP PUSH2 0x11BC DUP3 PUSH2 0x117B JUMP JUMPDEST PUSH1 0x20 DUP3 ADD SWAP1 POP SWAP2 SWAP1 POP JUMP JUMPDEST PUSH1 0x0 PUSH1 0x20 DUP3 ADD SWAP1 POP DUP2 DUP2 SUB PUSH1 0x0 DUP4 ADD MSTORE PUSH2 0x11E0 DUP2 PUSH2 0x11A4 JUMP JUMPDEST SWAP1 POP SWAP2 SWAP1 POP JUMP INVALID LOG2 PUSH5 0x6970667358 0x22 SLT KECCAK256 SWAP4 EQ DUP7 0xDF 0xD5 PUSH26 0x598BD1B3418BA8BDD6CC2FABE338F1A9A65D9297809EF3B7D246 PUSH5 0x736F6C6343 STOP ADDMOD SLT STOP CALLER "
				},
				"gasEstimates": {
					"creation": {
						"codeDepositCost": "927400",
						"executionCost": "infinite",
						"totalCost": "infinite"
					},
					"external": {
						"addLiquidity(uint256,uint256)": "infinite",
						"balanceOf(address)": "2814",
						"removeLiquidity(uint256)": "infinite",
						"reserve0()": "2474",
						"reserve1()": "2496",
						"swap(address,uint256)": "infinite",
						"token0()": "infinite",
						"token1()": "infinite",
						"totalSupply()": "2452"
					},
					"internal": {
						"_burn(address,uint256)": "infinite",
						"_mint(address,uint256)": "infinite",
						"update(uint256,uint256)": "44241"
					}
				},
				"methodIdentifiers": {
					"addLiquidity(uint256,uint256)": "9cd441da",
					"balanceOf(address)": "70a08231",
					"removeLiquidity(uint256)": "9c8f9f23",
					"reserve0()": "443cb4bc",
					"reserve1()": "5a76f25e",
					"swap(address,uint256)": "d004f0f7",
					"token0()": "0dfe1681",
					"token1()": "d21220a7",
					"totalSupply()": "18160ddd"
				}
			},
			"storageLayout": {
				"storage": [
					{
						"astId": 10,
						"contract": "CSAMM.sol:CSAMM",
						"label": "reserve0",
						"offset": 0,
						"slot": "0",
						"type": "t_uint256"
					},
					{
						"astId": 12,
						"contract": "CSAMM.sol:CSAMM",
						"label": "reserve1",
						"offset": 0,
						"slot": "1",
						"type": "t_uint256"
					},
					{
						"astId": 14,
						"contract": "CSAMM.sol:CSAMM",
						"label": "totalSupply",
						"offset": 0,
						"slot": "2",
						"type": "t_uint256"
					},
					{
						"astId": 18,
						"contract": "CSAMM.sol:CSAMM",
						"label": "balanceOf",
						"offset": 0,
						"slot": "3",
						"type": "t_mapping(t_address,t_uint256)"
					}
				],
				"types": {
					"t_address": {
						"encoding": "inplace",
						"label": "address",
						"numberOfBytes": "20"
					},
					"t_mapping(t_address,t_uint256)": {
						"encoding": "mapping",
						"key": "t_address",
						"label": "mapping(address => uint256)",
						"numberOfBytes": "32",
						"value": "t_uint256"
					},
					"t_uint256": {
						"encoding": "inplace",
						"label": "uint256",
						"numberOfBytes": "32"
					}
				}
			},
			"userdoc": {
				"kind": "user",
				"methods": {},
				"version": 1
			}
		}
	}
}