{
	"CallOtherContracts.sol": {
		"CallTestContract": {
			"abi": [
				{
					"inputs": [
						{
							"internalType": "address",
							"name": "_test",
							"type": "address"
						},
						{
							"internalType": "uint256",
							"name": "_x",
							"type": "uint256"
						}
					],
					"name": "SetXandSendEther",
					"outputs": [],
					"stateMutability": "payable",
					"type": "function"
				},
				{
					"inputs": [
						{
							"internalType": "contract TestContract",
							"name": "_test",
							"type": "address"
						}
					],
					"name": "getX",
					"outputs": [
						{
							"internalType": "uint256",
							"name": "",
							"type": "uint256"
						}
					],
					"stateMutability": "view",
					"type": "function"
				},
				{
					"inputs": [
						{
							"internalType": "contract TestContract",
							"name": "_test",
							"type": "address"
						}
					],
					"name": "getXandValue",
					"outputs": [
						{
							"internalType": "uint256",
							"name": "x",
							"type": "uint256"
						},
						{
							"internalType": "uint256",
							"name": "value",
							"type": "uint256"
						}
					],
					"stateMutability": "view",
					"type": "function"
				},
				{
					"inputs": [
						{
							"internalType": "contract TestContract",
							"name": "_test",
							"type": "address"
						},
						{
							"internalType": "uint256",
							"name": "_x",
							"type": "uint256"
						}
					],
					"name": "setX",
					"outputs": [],
					"stateMutability": "nonpayable",
					"type": "function"
				}
			],
			"devdoc": {
				"kind": "dev",
				"methods": {},
				"version": 1
			},
			"evm": {
				"assembly": "    /* \"CallOtherContracts.sol\":60:592  contract CallTestContract{... */\n  mstore(0x40, 0x80)\n  callvalue\n  dup1\n  iszero\n  tag_1\n  jumpi\n  0x00\n  dup1\n  revert\ntag_1:\n  pop\n  dataSize(sub_0)\n  dup1\n  dataOffset(sub_0)\n  0x00\n  codecopy\n  0x00\n  return\nstop\n\nsub_0: assembly {\n        /* \"CallOtherContracts.sol\":60:592  contract CallTestContract{... */\n      mstore(0x40, 0x80)\n      jumpi(tag_1, lt(calldatasize, 0x04))\n      shr(0xe0, calldataload(0x00))\n      dup1\n      0x37e2621b\n      eq\n      tag_2\n      jumpi\n      dup1\n      0x4a2ad99f\n      eq\n      tag_3\n      jumpi\n      dup1\n      0x7c94c8ca\n      eq\n      tag_4\n      jumpi\n      dup1\n      0xdccfa6f1\n      eq\n      tag_5\n      jumpi\n    tag_1:\n      0x00\n      dup1\n      revert\n        /* \"CallOtherContracts.sol\":450:589  function getXandValue(TestContract _test) external view returns (uint x,uint value) {... */\n    tag_2:\n      callvalue\n      dup1\n      iszero\n      tag_6\n      jumpi\n      0x00\n      dup1\n      revert\n    tag_6:\n      pop\n      tag_7\n      0x04\n      dup1\n      calldatasize\n      sub\n      dup2\n      add\n      swap1\n      tag_8\n      swap2\n      swap1\n      tag_9\n      jump\t// in\n    tag_8:\n      tag_10\n      jump\t// in\n    tag_7:\n      mload(0x40)\n      tag_11\n      swap3\n      swap2\n      swap1\n      tag_12\n      jump\t// in\n    tag_11:\n      mload(0x40)\n      dup1\n      swap2\n      sub\n      swap1\n      return\n        /* \"CallOtherContracts.sol\":92:178  function setX(TestContract _test , uint _x) external {... */\n    tag_3:\n      callvalue\n      dup1\n      iszero\n      tag_13\n      jumpi\n      0x00\n      dup1\n      revert\n    tag_13:\n      pop\n      tag_14\n      0x04\n      dup1\n      calldatasize\n      sub\n      dup2\n      add\n      swap1\n      tag_15\n      swap2\n      swap1\n      tag_16\n      jump\t// in\n    tag_15:\n      tag_17\n      jump\t// in\n    tag_14:\n      stop\n        /* \"CallOtherContracts.sol\":186:287  function getX(TestContract _test) external view returns (uint) {... */\n    tag_4:\n      callvalue\n      dup1\n      iszero\n      tag_18\n      jumpi\n      0x00\n      dup1\n      revert\n    tag_18:\n      pop\n      tag_19\n      0x04\n      dup1\n      calldatasize\n      sub\n      dup2\n      add\n      swap1\n      tag_20\n      swap2\n      swap1\n      tag_9\n      jump\t// in\n    tag_20:\n      tag_21\n      jump\t// in\n    tag_19:\n      mload(0x40)\n      tag_22\n      swap2\n      swap1\n      tag_23\n      jump\t// in\n    tag_22:\n      mload(0x40)\n      dup1\n      swap2\n      sub\n      swap1\n      return\n        /* \"CallOtherContracts.sol\":295:442  function SetXandSendEther(address _test, uint _x) external payable{... */\n    tag_5:\n      tag_24\n      0x04\n      dup1\n      calldatasize\n      sub\n      dup2\n      add\n      swap1\n      tag_25\n      swap2\n      swap1\n      tag_26\n      jump\t// in\n    tag_25:\n      tag_27\n      jump\t// in\n    tag_24:\n      stop\n        /* \"CallOtherContracts.sol\":450:589  function getXandValue(TestContract _test) external view returns (uint x,uint value) {... */\n    tag_10:\n        /* \"CallOtherContracts.sol\":515:521  uint x */\n      0x00\n        /* \"CallOtherContracts.sol\":522:532  uint value */\n      dup1\n        /* \"CallOtherContracts.sol\":560:565  _test */\n      dup3\n        /* \"CallOtherContracts.sol\":560:578  _test.getXandValue */\n      0xffffffffffffffffffffffffffffffffffffffff\n      and\n      0xd6c7a3be\n        /* \"CallOtherContracts.sol\":560:580  _test.getXandValue() */\n      mload(0x40)\n      dup2\n      0xffffffff\n      and\n      0xe0\n      shl\n      dup2\n      mstore\n      0x04\n      add\n      0x40\n      dup1\n      mload\n      dup1\n      dup4\n      sub\n      dup2\n      dup7\n      gas\n      staticcall\n      iszero\n      dup1\n      iszero\n      tag_30\n      jumpi\n      returndatasize\n      0x00\n      dup1\n      returndatacopy\n      revert(0x00, returndatasize)\n    tag_30:\n      pop\n      pop\n      pop\n      pop\n      mload(0x40)\n      returndatasize\n      not(0x1f)\n      0x1f\n      dup3\n      add\n      and\n      dup3\n      add\n      dup1\n      0x40\n      mstore\n      pop\n      dup2\n      add\n      swap1\n      tag_31\n      swap2\n      swap1\n      tag_32\n      jump\t// in\n    tag_31:\n        /* \"CallOtherContracts.sol\":545:581  (x , value) = (_test.getXandValue()) */\n      dup1\n      swap3\n      pop\n      dup2\n      swap4\n      pop\n      pop\n      pop\n        /* \"CallOtherContracts.sol\":450:589  function getXandValue(TestContract _test) external view returns (uint x,uint value) {... */\n      swap2\n      pop\n      swap2\n      jump\t// out\n        /* \"CallOtherContracts.sol\":92:178  function setX(TestContract _test , uint _x) external {... */\n    tag_17:\n        /* \"CallOtherContracts.sol\":156:161  _test */\n      dup2\n        /* \"CallOtherContracts.sol\":156:166  _test.setX */\n      0xffffffffffffffffffffffffffffffffffffffff\n      and\n      0x4018d9aa\n        /* \"CallOtherContracts.sol\":167:169  _x */\n      dup3\n        /* \"CallOtherContracts.sol\":156:170  _test.setX(_x) */\n      mload(0x40)\n      dup3\n      0xffffffff\n      and\n      0xe0\n      shl\n      dup2\n      mstore\n      0x04\n      add\n      tag_34\n      swap2\n      swap1\n      tag_23\n      jump\t// in\n    tag_34:\n      0x00\n      mload(0x40)\n      dup1\n      dup4\n      sub\n      dup2\n      0x00\n      dup8\n      dup1\n      extcodesize\n      iszero\n      dup1\n      iszero\n      tag_35\n      jumpi\n      0x00\n      dup1\n      revert\n    tag_35:\n      pop\n      gas\n      call\n      iszero\n      dup1\n      iszero\n      tag_37\n      jumpi\n      returndatasize\n      0x00\n      dup1\n      returndatacopy\n      revert(0x00, returndatasize)\n    tag_37:\n      pop\n      pop\n      pop\n      pop\n        /* \"CallOtherContracts.sol\":92:178  function setX(TestContract _test , uint _x) external {... */\n      pop\n      pop\n      jump\t// out\n        /* \"CallOtherContracts.sol\":186:287  function getX(TestContract _test) external view returns (uint) {... */\n    tag_21:\n        /* \"CallOtherContracts.sol\":243:247  uint */\n      0x00\n        /* \"CallOtherContracts.sol\":267:272  _test */\n      dup2\n        /* \"CallOtherContracts.sol\":267:277  _test.getX */\n      0xffffffffffffffffffffffffffffffffffffffff\n      and\n      0x5197c7aa\n        /* \"CallOtherContracts.sol\":267:279  _test.getX() */\n      mload(0x40)\n      dup2\n      0xffffffff\n      and\n      0xe0\n      shl\n      dup2\n      mstore\n      0x04\n      add\n      0x20\n      mload(0x40)\n      dup1\n      dup4\n      sub\n      dup2\n      dup7\n      gas\n      staticcall\n      iszero\n      dup1\n      iszero\n      tag_40\n      jumpi\n      returndatasize\n      0x00\n      dup1\n      returndatacopy\n      revert(0x00, returndatasize)\n    tag_40:\n      pop\n      pop\n      pop\n      pop\n      mload(0x40)\n      returndatasize\n      not(0x1f)\n      0x1f\n      dup3\n      add\n      and\n      dup3\n      add\n      dup1\n      0x40\n      mstore\n      pop\n      dup2\n      add\n      swap1\n      tag_41\n      swap2\n      swap1\n      tag_42\n      jump\t// in\n    tag_41:\n        /* \"CallOtherContracts.sol\":260:279  return _test.getX() */\n      swap1\n      pop\n        /* \"CallOtherContracts.sol\":186:287  function getX(TestContract _test) external view returns (uint) {... */\n      swap2\n      swap1\n      pop\n      jump\t// out\n        /* \"CallOtherContracts.sol\":295:442  function SetXandSendEther(address _test, uint _x) external payable{... */\n    tag_27:\n        /* \"CallOtherContracts.sol\":385:390  _test */\n      dup2\n        /* \"CallOtherContracts.sol\":372:411  TestContract(_test).setXandReceiveEther */\n      0xffffffffffffffffffffffffffffffffffffffff\n      and\n      0x02f42be9\n        /* \"CallOtherContracts.sol\":420:429  msg.value */\n      callvalue\n        /* \"CallOtherContracts.sol\":431:433  _x */\n      dup4\n        /* \"CallOtherContracts.sol\":372:434  TestContract(_test).setXandReceiveEther{value : msg.value}(_x) */\n      mload(0x40)\n      dup4\n      0xffffffff\n      and\n      0xe0\n      shl\n      dup2\n      mstore\n      0x04\n      add\n      tag_44\n      swap2\n      swap1\n      tag_23\n      jump\t// in\n    tag_44:\n      0x00\n      mload(0x40)\n      dup1\n      dup4\n      sub\n      dup2\n      dup6\n      dup9\n      dup1\n      extcodesize\n      iszero\n      dup1\n      iszero\n      tag_45\n      jumpi\n      0x00\n      dup1\n      revert\n    tag_45:\n      pop\n      gas\n      call\n      iszero\n      dup1\n      iszero\n      tag_47\n      jumpi\n      returndatasize\n      0x00\n      dup1\n      returndatacopy\n      revert(0x00, returndatasize)\n    tag_47:\n      pop\n      pop\n      pop\n      pop\n      pop\n        /* \"CallOtherContracts.sol\":295:442  function SetXandSendEther(address _test, uint _x) external payable{... */\n      pop\n      pop\n      jump\t// out\n        /* \"#utility.yul\":88:205   */\n    tag_49:\n        /* \"#utility.yul\":197:198   */\n      0x00\n        /* \"#utility.yul\":194:195   */\n      dup1\n        /* \"#utility.yul\":187:199   */\n      revert\n        /* \"#utility.yul\":334:460   */\n    tag_51:\n        /* \"#utility.yul\":371:378   */\n      0x00\n        /* \"#utility.yul\":411:453   */\n      0xffffffffffffffffffffffffffffffffffffffff\n        /* \"#utility.yul\":404:409   */\n      dup3\n        /* \"#utility.yul\":400:454   */\n      and\n        /* \"#utility.yul\":389:454   */\n      swap1\n      pop\n        /* \"#utility.yul\":334:460   */\n      swap2\n      swap1\n      pop\n      jump\t// out\n        /* \"#utility.yul\":466:562   */\n    tag_52:\n        /* \"#utility.yul\":503:510   */\n      0x00\n        /* \"#utility.yul\":532:556   */\n      tag_69\n        /* \"#utility.yul\":550:555   */\n      dup3\n        /* \"#utility.yul\":532:556   */\n      tag_51\n      jump\t// in\n    tag_69:\n        /* \"#utility.yul\":521:556   */\n      swap1\n      pop\n        /* \"#utility.yul\":466:562   */\n      swap2\n      swap1\n      pop\n      jump\t// out\n        /* \"#utility.yul\":568:684   */\n    tag_53:\n        /* \"#utility.yul\":625:632   */\n      0x00\n        /* \"#utility.yul\":654:678   */\n      tag_71\n        /* \"#utility.yul\":672:677   */\n      dup3\n        /* \"#utility.yul\":654:678   */\n      tag_52\n      jump\t// in\n    tag_71:\n        /* \"#utility.yul\":643:678   */\n      swap1\n      pop\n        /* \"#utility.yul\":568:684   */\n      swap2\n      swap1\n      pop\n      jump\t// out\n        /* \"#utility.yul\":690:852   */\n    tag_54:\n        /* \"#utility.yul\":783:827   */\n      tag_73\n        /* \"#utility.yul\":821:826   */\n      dup2\n        /* \"#utility.yul\":783:827   */\n      tag_53\n      jump\t// in\n    tag_73:\n        /* \"#utility.yul\":776:781   */\n      dup2\n        /* \"#utility.yul\":773:828   */\n      eq\n        /* \"#utility.yul\":763:846   */\n      tag_74\n      jumpi\n        /* \"#utility.yul\":842:843   */\n      0x00\n        /* \"#utility.yul\":839:840   */\n      dup1\n        /* \"#utility.yul\":832:844   */\n      revert\n        /* \"#utility.yul\":763:846   */\n    tag_74:\n        /* \"#utility.yul\":690:852   */\n      pop\n      jump\t// out\n        /* \"#utility.yul\":858:1037   */\n    tag_55:\n        /* \"#utility.yul\":924:929   */\n      0x00\n        /* \"#utility.yul\":962:968   */\n      dup2\n        /* \"#utility.yul\":949:969   */\n      calldataload\n        /* \"#utility.yul\":940:969   */\n      swap1\n      pop\n        /* \"#utility.yul\":978:1031   */\n      tag_76\n        /* \"#utility.yul\":1025:1030   */\n      dup2\n        /* \"#utility.yul\":978:1031   */\n      tag_54\n      jump\t// in\n    tag_76:\n        /* \"#utility.yul\":858:1037   */\n      swap3\n      swap2\n      pop\n      pop\n      jump\t// out\n        /* \"#utility.yul\":1043:1412   */\n    tag_9:\n        /* \"#utility.yul\":1122:1128   */\n      0x00\n        /* \"#utility.yul\":1171:1173   */\n      0x20\n        /* \"#utility.yul\":1159:1168   */\n      dup3\n        /* \"#utility.yul\":1150:1157   */\n      dup5\n        /* \"#utility.yul\":1146:1169   */\n      sub\n        /* \"#utility.yul\":1142:1174   */\n      slt\n        /* \"#utility.yul\":1139:1258   */\n      iszero\n      tag_78\n      jumpi\n        /* \"#utility.yul\":1177:1256   */\n      tag_79\n      tag_49\n      jump\t// in\n    tag_79:\n        /* \"#utility.yul\":1139:1258   */\n    tag_78:\n        /* \"#utility.yul\":1297:1298   */\n      0x00\n        /* \"#utility.yul\":1322:1395   */\n      tag_80\n        /* \"#utility.yul\":1387:1394   */\n      dup5\n        /* \"#utility.yul\":1378:1384   */\n      dup3\n        /* \"#utility.yul\":1367:1376   */\n      dup6\n        /* \"#utility.yul\":1363:1385   */\n      add\n        /* \"#utility.yul\":1322:1395   */\n      tag_55\n      jump\t// in\n    tag_80:\n        /* \"#utility.yul\":1312:1395   */\n      swap2\n      pop\n        /* \"#utility.yul\":1268:1405   */\n      pop\n        /* \"#utility.yul\":1043:1412   */\n      swap3\n      swap2\n      pop\n      pop\n      jump\t// out\n        /* \"#utility.yul\":1418:1495   */\n    tag_56:\n        /* \"#utility.yul\":1455:1462   */\n      0x00\n        /* \"#utility.yul\":1484:1489   */\n      dup2\n        /* \"#utility.yul\":1473:1489   */\n      swap1\n      pop\n        /* \"#utility.yul\":1418:1495   */\n      swap2\n      swap1\n      pop\n      jump\t// out\n        /* \"#utility.yul\":1501:1619   */\n    tag_57:\n        /* \"#utility.yul\":1588:1612   */\n      tag_83\n        /* \"#utility.yul\":1606:1611   */\n      dup2\n        /* \"#utility.yul\":1588:1612   */\n      tag_56\n      jump\t// in\n    tag_83:\n        /* \"#utility.yul\":1583:1586   */\n      dup3\n        /* \"#utility.yul\":1576:1613   */\n      mstore\n        /* \"#utility.yul\":1501:1619   */\n      pop\n      pop\n      jump\t// out\n        /* \"#utility.yul\":1625:1957   */\n    tag_12:\n        /* \"#utility.yul\":1746:1750   */\n      0x00\n        /* \"#utility.yul\":1784:1786   */\n      0x40\n        /* \"#utility.yul\":1773:1782   */\n      dup3\n        /* \"#utility.yul\":1769:1787   */\n      add\n        /* \"#utility.yul\":1761:1787   */\n      swap1\n      pop\n        /* \"#utility.yul\":1797:1868   */\n      tag_85\n        /* \"#utility.yul\":1865:1866   */\n      0x00\n        /* \"#utility.yul\":1854:1863   */\n      dup4\n        /* \"#utility.yul\":1850:1867   */\n      add\n        /* \"#utility.yul\":1841:1847   */\n      dup6\n        /* \"#utility.yul\":1797:1868   */\n      tag_57\n      jump\t// in\n    tag_85:\n        /* \"#utility.yul\":1878:1950   */\n      tag_86\n        /* \"#utility.yul\":1946:1948   */\n      0x20\n        /* \"#utility.yul\":1935:1944   */\n      dup4\n        /* \"#utility.yul\":1931:1949   */\n      add\n        /* \"#utility.yul\":1922:1928   */\n      dup5\n        /* \"#utility.yul\":1878:1950   */\n      tag_57\n      jump\t// in\n    tag_86:\n        /* \"#utility.yul\":1625:1957   */\n      swap4\n      swap3\n      pop\n      pop\n      pop\n      jump\t// out\n        /* \"#utility.yul\":1963:2085   */\n    tag_58:\n        /* \"#utility.yul\":2036:2060   */\n      tag_88\n        /* \"#utility.yul\":2054:2059   */\n      dup2\n        /* \"#utility.yul\":2036:2060   */\n      tag_56\n      jump\t// in\n    tag_88:\n        /* \"#utility.yul\":2029:2034   */\n      dup2\n        /* \"#utility.yul\":2026:2061   */\n      eq\n        /* \"#utility.yul\":2016:2079   */\n      tag_89\n      jumpi\n        /* \"#utility.yul\":2075:2076   */\n      0x00\n        /* \"#utility.yul\":2072:2073   */\n      dup1\n        /* \"#utility.yul\":2065:2077   */\n      revert\n        /* \"#utility.yul\":2016:2079   */\n    tag_89:\n        /* \"#utility.yul\":1963:2085   */\n      pop\n      jump\t// out\n        /* \"#utility.yul\":2091:2230   */\n    tag_59:\n        /* \"#utility.yul\":2137:2142   */\n      0x00\n        /* \"#utility.yul\":2175:2181   */\n      dup2\n        /* \"#utility.yul\":2162:2182   */\n      calldataload\n        /* \"#utility.yul\":2153:2182   */\n      swap1\n      pop\n        /* \"#utility.yul\":2191:2224   */\n      tag_91\n        /* \"#utility.yul\":2218:2223   */\n      dup2\n        /* \"#utility.yul\":2191:2224   */\n      tag_58\n      jump\t// in\n    tag_91:\n        /* \"#utility.yul\":2091:2230   */\n      swap3\n      swap2\n      pop\n      pop\n      jump\t// out\n        /* \"#utility.yul\":2236:2750   */\n    tag_16:\n        /* \"#utility.yul\":2324:2330   */\n      0x00\n        /* \"#utility.yul\":2332:2338   */\n      dup1\n        /* \"#utility.yul\":2381:2383   */\n      0x40\n        /* \"#utility.yul\":2369:2378   */\n      dup4\n        /* \"#utility.yul\":2360:2367   */\n      dup6\n        /* \"#utility.yul\":2356:2379   */\n      sub\n        /* \"#utility.yul\":2352:2384   */\n      slt\n        /* \"#utility.yul\":2349:2468   */\n      iszero\n      tag_93\n      jumpi\n        /* \"#utility.yul\":2387:2466   */\n      tag_94\n      tag_49\n      jump\t// in\n    tag_94:\n        /* \"#utility.yul\":2349:2468   */\n    tag_93:\n        /* \"#utility.yul\":2507:2508   */\n      0x00\n        /* \"#utility.yul\":2532:2605   */\n      tag_95\n        /* \"#utility.yul\":2597:2604   */\n      dup6\n        /* \"#utility.yul\":2588:2594   */\n      dup3\n        /* \"#utility.yul\":2577:2586   */\n      dup7\n        /* \"#utility.yul\":2573:2595   */\n      add\n        /* \"#utility.yul\":2532:2605   */\n      tag_55\n      jump\t// in\n    tag_95:\n        /* \"#utility.yul\":2522:2605   */\n      swap3\n      pop\n        /* \"#utility.yul\":2478:2615   */\n      pop\n        /* \"#utility.yul\":2654:2656   */\n      0x20\n        /* \"#utility.yul\":2680:2733   */\n      tag_96\n        /* \"#utility.yul\":2725:2732   */\n      dup6\n        /* \"#utility.yul\":2716:2722   */\n      dup3\n        /* \"#utility.yul\":2705:2714   */\n      dup7\n        /* \"#utility.yul\":2701:2723   */\n      add\n        /* \"#utility.yul\":2680:2733   */\n      tag_59\n      jump\t// in\n    tag_96:\n        /* \"#utility.yul\":2670:2733   */\n      swap2\n      pop\n        /* \"#utility.yul\":2625:2743   */\n      pop\n        /* \"#utility.yul\":2236:2750   */\n      swap3\n      pop\n      swap3\n      swap1\n      pop\n      jump\t// out\n        /* \"#utility.yul\":2756:2978   */\n    tag_23:\n        /* \"#utility.yul\":2849:2853   */\n      0x00\n        /* \"#utility.yul\":2887:2889   */\n      0x20\n        /* \"#utility.yul\":2876:2885   */\n      dup3\n        /* \"#utility.yul\":2872:2890   */\n      add\n        /* \"#utility.yul\":2864:2890   */\n      swap1\n      pop\n        /* \"#utility.yul\":2900:2971   */\n      tag_98\n        /* \"#utility.yul\":2968:2969   */\n      0x00\n        /* \"#utility.yul\":2957:2966   */\n      dup4\n        /* \"#utility.yul\":2953:2970   */\n      add\n        /* \"#utility.yul\":2944:2950   */\n      dup5\n        /* \"#utility.yul\":2900:2971   */\n      tag_57\n      jump\t// in\n    tag_98:\n        /* \"#utility.yul\":2756:2978   */\n      swap3\n      swap2\n      pop\n      pop\n      jump\t// out\n        /* \"#utility.yul\":2984:3106   */\n    tag_60:\n        /* \"#utility.yul\":3057:3081   */\n      tag_100\n        /* \"#utility.yul\":3075:3080   */\n      dup2\n        /* \"#utility.yul\":3057:3081   */\n      tag_52\n      jump\t// in\n    tag_100:\n        /* \"#utility.yul\":3050:3055   */\n      dup2\n        /* \"#utility.yul\":3047:3082   */\n      eq\n        /* \"#utility.yul\":3037:3100   */\n      tag_101\n      jumpi\n        /* \"#utility.yul\":3096:3097   */\n      0x00\n        /* \"#utility.yul\":3093:3094   */\n      dup1\n        /* \"#utility.yul\":3086:3098   */\n      revert\n        /* \"#utility.yul\":3037:3100   */\n    tag_101:\n        /* \"#utility.yul\":2984:3106   */\n      pop\n      jump\t// out\n        /* \"#utility.yul\":3112:3251   */\n    tag_61:\n        /* \"#utility.yul\":3158:3163   */\n      0x00\n        /* \"#utility.yul\":3196:3202   */\n      dup2\n        /* \"#utility.yul\":3183:3203   */\n      calldataload\n        /* \"#utility.yul\":3174:3203   */\n      swap1\n      pop\n        /* \"#utility.yul\":3212:3245   */\n      tag_103\n        /* \"#utility.yul\":3239:3244   */\n      dup2\n        /* \"#utility.yul\":3212:3245   */\n      tag_60\n      jump\t// in\n    tag_103:\n        /* \"#utility.yul\":3112:3251   */\n      swap3\n      swap2\n      pop\n      pop\n      jump\t// out\n        /* \"#utility.yul\":3257:3731   */\n    tag_26:\n        /* \"#utility.yul\":3325:3331   */\n      0x00\n        /* \"#utility.yul\":3333:3339   */\n      dup1\n        /* \"#utility.yul\":3382:3384   */\n      0x40\n        /* \"#utility.yul\":3370:3379   */\n      dup4\n        /* \"#utility.yul\":3361:3368   */\n      dup6\n        /* \"#utility.yul\":3357:3380   */\n      sub\n        /* \"#utility.yul\":3353:3385   */\n      slt\n        /* \"#utility.yul\":3350:3469   */\n      iszero\n      tag_105\n      jumpi\n        /* \"#utility.yul\":3388:3467   */\n      tag_106\n      tag_49\n      jump\t// in\n    tag_106:\n        /* \"#utility.yul\":3350:3469   */\n    tag_105:\n        /* \"#utility.yul\":3508:3509   */\n      0x00\n        /* \"#utility.yul\":3533:3586   */\n      tag_107\n        /* \"#utility.yul\":3578:3585   */\n      dup6\n        /* \"#utility.yul\":3569:3575   */\n      dup3\n        /* \"#utility.yul\":3558:3567   */\n      dup7\n        /* \"#utility.yul\":3554:3576   */\n      add\n        /* \"#utility.yul\":3533:3586   */\n      tag_61\n      jump\t// in\n    tag_107:\n        /* \"#utility.yul\":3523:3586   */\n      swap3\n      pop\n        /* \"#utility.yul\":3479:3596   */\n      pop\n        /* \"#utility.yul\":3635:3637   */\n      0x20\n        /* \"#utility.yul\":3661:3714   */\n      tag_108\n        /* \"#utility.yul\":3706:3713   */\n      dup6\n        /* \"#utility.yul\":3697:3703   */\n      dup3\n        /* \"#utility.yul\":3686:3695   */\n      dup7\n        /* \"#utility.yul\":3682:3704   */\n      add\n        /* \"#utility.yul\":3661:3714   */\n      tag_59\n      jump\t// in\n    tag_108:\n        /* \"#utility.yul\":3651:3714   */\n      swap2\n      pop\n        /* \"#utility.yul\":3606:3724   */\n      pop\n        /* \"#utility.yul\":3257:3731   */\n      swap3\n      pop\n      swap3\n      swap1\n      pop\n      jump\t// out\n        /* \"#utility.yul\":3737:3880   */\n    tag_62:\n        /* \"#utility.yul\":3794:3799   */\n      0x00\n        /* \"#utility.yul\":3825:3831   */\n      dup2\n        /* \"#utility.yul\":3819:3832   */\n      mload\n        /* \"#utility.yul\":3810:3832   */\n      swap1\n      pop\n        /* \"#utility.yul\":3841:3874   */\n      tag_110\n        /* \"#utility.yul\":3868:3873   */\n      dup2\n        /* \"#utility.yul\":3841:3874   */\n      tag_58\n      jump\t// in\n    tag_110:\n        /* \"#utility.yul\":3737:3880   */\n      swap3\n      swap2\n      pop\n      pop\n      jump\t// out\n        /* \"#utility.yul\":3886:4393   */\n    tag_32:\n        /* \"#utility.yul\":3965:3971   */\n      0x00\n        /* \"#utility.yul\":3973:3979   */\n      dup1\n        /* \"#utility.yul\":4022:4024   */\n      0x40\n        /* \"#utility.yul\":4010:4019   */\n      dup4\n        /* \"#utility.yul\":4001:4008   */\n      dup6\n        /* \"#utility.yul\":3997:4020   */\n      sub\n        /* \"#utility.yul\":3993:4025   */\n      slt\n        /* \"#utility.yul\":3990:4109   */\n      iszero\n      tag_112\n      jumpi\n        /* \"#utility.yul\":4028:4107   */\n      tag_113\n      tag_49\n      jump\t// in\n    tag_113:\n        /* \"#utility.yul\":3990:4109   */\n    tag_112:\n        /* \"#utility.yul\":4148:4149   */\n      0x00\n        /* \"#utility.yul\":4173:4237   */\n      tag_114\n        /* \"#utility.yul\":4229:4236   */\n      dup6\n        /* \"#utility.yul\":4220:4226   */\n      dup3\n        /* \"#utility.yul\":4209:4218   */\n      dup7\n        /* \"#utility.yul\":4205:4227   */\n      add\n        /* \"#utility.yul\":4173:4237   */\n      tag_62\n      jump\t// in\n    tag_114:\n        /* \"#utility.yul\":4163:4237   */\n      swap3\n      pop\n        /* \"#utility.yul\":4119:4247   */\n      pop\n        /* \"#utility.yul\":4286:4288   */\n      0x20\n        /* \"#utility.yul\":4312:4376   */\n      tag_115\n        /* \"#utility.yul\":4368:4375   */\n      dup6\n        /* \"#utility.yul\":4359:4365   */\n      dup3\n        /* \"#utility.yul\":4348:4357   */\n      dup7\n        /* \"#utility.yul\":4344:4366   */\n      add\n        /* \"#utility.yul\":4312:4376   */\n      tag_62\n      jump\t// in\n    tag_115:\n        /* \"#utility.yul\":4302:4376   */\n      swap2\n      pop\n        /* \"#utility.yul\":4257:4386   */\n      pop\n        /* \"#utility.yul\":3886:4393   */\n      swap3\n      pop\n      swap3\n      swap1\n      pop\n      jump\t// out\n        /* \"#utility.yul\":4399:4750   */\n    tag_42:\n        /* \"#utility.yul\":4469:4475   */\n      0x00\n        /* \"#utility.yul\":4518:4520   */\n      0x20\n        /* \"#utility.yul\":4506:4515   */\n      dup3\n        /* \"#utility.yul\":4497:4504   */\n      dup5\n        /* \"#utility.yul\":4493:4516   */\n      sub\n        /* \"#utility.yul\":4489:4521   */\n      slt\n        /* \"#utility.yul\":4486:4605   */\n      iszero\n      tag_117\n      jumpi\n        /* \"#utility.yul\":4524:4603   */\n      tag_118\n      tag_49\n      jump\t// in\n    tag_118:\n        /* \"#utility.yul\":4486:4605   */\n    tag_117:\n        /* \"#utility.yul\":4644:4645   */\n      0x00\n        /* \"#utility.yul\":4669:4733   */\n      tag_119\n        /* \"#utility.yul\":4725:4732   */\n      dup5\n        /* \"#utility.yul\":4716:4722   */\n      dup3\n        /* \"#utility.yul\":4705:4714   */\n      dup6\n        /* \"#utility.yul\":4701:4723   */\n      add\n        /* \"#utility.yul\":4669:4733   */\n      tag_62\n      jump\t// in\n    tag_119:\n        /* \"#utility.yul\":4659:4733   */\n      swap2\n      pop\n        /* \"#utility.yul\":4615:4743   */\n      pop\n        /* \"#utility.yul\":4399:4750   */\n      swap3\n      swap2\n      pop\n      pop\n      jump\t// out\n\n    auxdata: 0xa26469706673582212205b66a07f38a15dd44892f1fb79a4abf974cf37f69a36565eff1802097ef168e764736f6c63430008120033\n}\n",
				"bytecode": {
					"linkReferences": {},
					"object": "608060405234801561001057600080fd5b50610568806100206000396000f3fe60806040526004361061003f5760003560e01c806337e2621b146100445780634a2ad99f146100825780637c94c8ca146100ab578063dccfa6f1146100e8575b600080fd5b34801561005057600080fd5b5061006b6004803603810190610066919061034e565b610104565b604051610079929190610394565b60405180910390f35b34801561008e57600080fd5b506100a960048036038101906100a491906103e9565b610182565b005b3480156100b757600080fd5b506100d260048036038101906100cd919061034e565b6101f1565b6040516100df9190610429565b60405180910390f35b61010260048036038101906100fd9190610470565b610269565b005b6000808273ffffffffffffffffffffffffffffffffffffffff1663d6c7a3be6040518163ffffffff1660e01b81526004016040805180830381865afa158015610151573d6000803e3d6000fd5b505050506040513d601f19601f8201168201806040525081019061017591906104c5565b8092508193505050915091565b8173ffffffffffffffffffffffffffffffffffffffff16634018d9aa826040518263ffffffff1660e01b81526004016101bb9190610429565b600060405180830381600087803b1580156101d557600080fd5b505af11580156101e9573d6000803e3d6000fd5b505050505050565b60008173ffffffffffffffffffffffffffffffffffffffff16635197c7aa6040518163ffffffff1660e01b8152600401602060405180830381865afa15801561023e573d6000803e3d6000fd5b505050506040513d601f19601f820116820180604052508101906102629190610505565b9050919050565b8173ffffffffffffffffffffffffffffffffffffffff166302f42be934836040518363ffffffff1660e01b81526004016102a39190610429565b6000604051808303818588803b1580156102bc57600080fd5b505af11580156102d0573d6000803e3d6000fd5b50505050505050565b600080fd5b600073ffffffffffffffffffffffffffffffffffffffff82169050919050565b6000610309826102de565b9050919050565b600061031b826102fe565b9050919050565b61032b81610310565b811461033657600080fd5b50565b60008135905061034881610322565b92915050565b600060208284031215610364576103636102d9565b5b600061037284828501610339565b91505092915050565b6000819050919050565b61038e8161037b565b82525050565b60006040820190506103a96000830185610385565b6103b66020830184610385565b9392505050565b6103c68161037b565b81146103d157600080fd5b50565b6000813590506103e3816103bd565b92915050565b60008060408385031215610400576103ff6102d9565b5b600061040e85828601610339565b925050602061041f858286016103d4565b9150509250929050565b600060208201905061043e6000830184610385565b92915050565b61044d816102fe565b811461045857600080fd5b50565b60008135905061046a81610444565b92915050565b60008060408385031215610487576104866102d9565b5b60006104958582860161045b565b92505060206104a6858286016103d4565b9150509250929050565b6000815190506104bf816103bd565b92915050565b600080604083850312156104dc576104db6102d9565b5b60006104ea858286016104b0565b92505060206104fb858286016104b0565b9150509250929050565b60006020828403121561051b5761051a6102d9565b5b6000610529848285016104b0565b9150509291505056fea26469706673582212205b66a07f38a15dd44892f1fb79a4abf974cf37f69a36565eff1802097ef168e764736f6c63430008120033",
					"opcodes": "PUSH1 0x80 PUSH1 0x40 MSTORE CALLVALUE DUP1 ISZERO PUSH2 0x10 JUMPI PUSH1 0x0 DUP1 REVERT JUMPDEST POP PUSH2 0x568 DUP1 PUSH2 0x20 PUSH1 0x0 CODECOPY PUSH1 0x0 RETURN INVALID PUSH1 0x80 PUSH1 0x40 MSTORE PUSH1 0x4 CALLDATASIZE LT PUSH2 0x3F JUMPI PUSH1 0x0 CALLDATALOAD PUSH1 0xE0 SHR DUP1 PUSH4 0x37E2621B EQ PUSH2 0x44 JUMPI DUP1 PUSH4 0x4A2AD99F EQ PUSH2 0x82 JUMPI DUP1 PUSH4 0x7C94C8CA EQ PUSH2 0xAB JUMPI DUP1 PUSH4 0xDCCFA6F1 EQ PUSH2 0xE8 JUMPI JUMPDEST PUSH1 0x0 DUP1 REVERT JUMPDEST CALLVALUE DUP1 ISZERO PUSH2 0x50 JUMPI PUSH1 0x0 DUP1 REVERT JUMPDEST POP PUSH2 0x6B PUSH1 0x4 DUP1 CALLDATASIZE SUB DUP2 ADD SWAP1 PUSH2 0x66 SWAP2 SWAP1 PUSH2 0x34E JUMP JUMPDEST PUSH2 0x104 JUMP JUMPDEST PUSH1 0x40 MLOAD PUSH2 0x79 SWAP3 SWAP2 SWAP1 PUSH2 0x394 JUMP JUMPDEST PUSH1 0x40 MLOAD DUP1 SWAP2 SUB SWAP1 RETURN JUMPDEST CALLVALUE DUP1 ISZERO PUSH2 0x8E JUMPI PUSH1 0x0 DUP1 REVERT JUMPDEST POP PUSH2 0xA9 PUSH1 0x4 DUP1 CALLDATASIZE SUB DUP2 ADD SWAP1 PUSH2 0xA4 SWAP2 SWAP1 PUSH2 0x3E9 JUMP JUMPDEST PUSH2 0x182 JUMP JUMPDEST STOP JUMPDEST CALLVALUE DUP1 ISZERO PUSH2 0xB7 JUMPI PUSH1 0x0 DUP1 REVERT JUMPDEST POP PUSH2 0xD2 PUSH1 0x4 DUP1 CALLDATASIZE SUB DUP2 ADD SWAP1 PUSH2 0xCD SWAP2 SWAP1 PUSH2 0x34E JUMP JUMPDEST PUSH2 0x1F1 JUMP JUMPDEST PUSH1 0x40 MLOAD PUSH2 0xDF SWAP2 SWAP1 PUSH2 0x429 JUMP JUMPDEST PUSH1 0x40 MLOAD DUP1 SWAP2 SUB SWAP1 RETURN JUMPDEST PUSH2 0x102 PUSH1 0x4 DUP1 CALLDATASIZE SUB DUP2 ADD SWAP1 PUSH2 0xFD SWAP2 SWAP1 PUSH2 0x470 JUMP JUMPDEST PUSH2 0x269 JUMP JUMPDEST STOP JUMPDEST PUSH1 0x0 DUP1 DUP3 PUSH20 0xFFFFFFFFFFFFFFFFFFFFFFFFFFFFFFFFFFFFFFFF AND PUSH4 0xD6C7A3BE PUSH1 0x40 MLOAD DUP2 PUSH4 0xFFFFFFFF AND PUSH1 0xE0 SHL DUP2 MSTORE PUSH1 0x4 ADD PUSH1 0x40 DUP1 MLOAD DUP1 DUP4 SUB DUP2 DUP7 GAS STATICCALL ISZERO DUP1 ISZERO PUSH2 0x151 JUMPI RETURNDATASIZE PUSH1 0x0 DUP1 RETURNDATACOPY RETURNDATASIZE PUSH1 0x0 REVERT JUMPDEST POP POP POP POP PUSH1 0x40 MLOAD RETURNDATASIZE PUSH1 0x1F NOT PUSH1 0x1F DUP3 ADD AND DUP3 ADD DUP1 PUSH1 0x40 MSTORE POP DUP2 ADD SWAP1 PUSH2 0x175 SWAP2 SWAP1 PUSH2 0x4C5 JUMP JUMPDEST DUP1 SWAP3 POP DUP2 SWAP4 POP POP POP SWAP2 POP SWAP2 JUMP JUMPDEST DUP2 PUSH20 0xFFFFFFFFFFFFFFFFFFFFFFFFFFFFFFFFFFFFFFFF AND PUSH4 0x4018D9AA DUP3 PUSH1 0x40 MLOAD DUP3 PUSH4 0xFFFFFFFF AND PUSH1 0xE0 SHL DUP2 MSTORE PUSH1 0x4 ADD PUSH2 0x1BB SWAP2 SWAP1 PUSH2 0x429 JUMP JUMPDEST PUSH1 0x0 PUSH1 0x40 MLOAD DUP1 DUP4 SUB DUP2 PUSH1 0x0 DUP8 DUP1 EXTCODESIZE ISZERO DUP1 ISZERO PUSH2 0x1D5 JUMPI PUSH1 0x0 DUP1 REVERT JUMPDEST POP GAS CALL ISZERO DUP1 ISZERO PUSH2 0x1E9 JUMPI RETURNDATASIZE PUSH1 0x0 DUP1 RETURNDATACOPY RETURNDATASIZE PUSH1 0x0 REVERT JUMPDEST POP POP POP POP POP POP JUMP JUMPDEST PUSH1 0x0 DUP2 PUSH20 0xFFFFFFFFFFFFFFFFFFFFFFFFFFFFFFFFFFFFFFFF AND PUSH4 0x5197C7AA PUSH1 0x40 MLOAD DUP2 PUSH4 0xFFFFFFFF AND PUSH1 0xE0 SHL DUP2 MSTORE PUSH1 0x4 ADD PUSH1 0x20 PUSH1 0x40 MLOAD DUP1 DUP4 SUB DUP2 DUP7 GAS STATICCALL ISZERO DUP1 ISZERO PUSH2 0x23E JUMPI RETURNDATASIZE PUSH1 0x0 DUP1 RETURNDATACOPY RETURNDATASIZE PUSH1 0x0 REVERT JUMPDEST POP POP POP POP PUSH1 0x40 MLOAD RETURNDATASIZE PUSH1 0x1F NOT PUSH1 0x1F DUP3 ADD AND DUP3 ADD DUP1 PUSH1 0x40 MSTORE POP DUP2 ADD SWAP1 PUSH2 0x262 SWAP2 SWAP1 PUSH2 0x505 JUMP JUMPDEST SWAP1 POP SWAP2 SWAP1 POP JUMP JUMPDEST DUP2 PUSH20 0xFFFFFFFFFFFFFFFFFFFFFFFFFFFFFFFFFFFFFFFF AND PUSH4 0x2F42BE9 CALLVALUE DUP4 PUSH1 0x40 MLOAD DUP4 PUSH4 0xFFFFFFFF AND PUSH1 0xE0 SHL DUP2 MSTORE PUSH1 0x4 ADD PUSH2 0x2A3 SWAP2 SWAP1 PUSH2 0x429 JUMP JUMPDEST PUSH1 0x0 PUSH1 0x40 MLOAD DUP1 DUP4 SUB DUP2 DUP6 DUP9 DUP1 EXTCODESIZE ISZERO DUP1 ISZERO PUSH2 0x2BC JUMPI PUSH1 0x0 DUP1 REVERT JUMPDEST POP GAS CALL ISZERO DUP1 ISZERO PUSH2 0x2D0 JUMPI RETURNDATASIZE PUSH1 0x0 DUP1 RETURNDATACOPY RETURNDATASIZE PUSH1 0x0 REVERT JUMPDEST POP POP POP POP POP POP POP JUMP JUMPDEST PUSH1 0x0 DUP1 REVERT JUMPDEST PUSH1 0x0 PUSH20 0xFFFFFFFFFFFFFFFFFFFFFFFFFFFFFFFFFFFFFFFF DUP3 AND SWAP1 POP SWAP2 SWAP1 POP JUMP JUMPDEST PUSH1 0x0 PUSH2 0x309 DUP3 PUSH2 0x2DE JUMP JUMPDEST SWAP1 POP SWAP2 SWAP1 POP JUMP JUMPDEST PUSH1 0x0 PUSH2 0x31B DUP3 PUSH2 0x2FE JUMP JUMPDEST SWAP1 POP SWAP2 SWAP1 POP JUMP JUMPDEST PUSH2 0x32B DUP2 PUSH2 0x310 JUMP JUMPDEST DUP2 EQ PUSH2 0x336 JUMPI PUSH1 0x0 DUP1 REVERT JUMPDEST POP JUMP JUMPDEST PUSH1 0x0 DUP2 CALLDATALOAD SWAP1 POP PUSH2 0x348 DUP2 PUSH2 0x322 JUMP JUMPDEST SWAP3 SWAP2 POP POP JUMP JUMPDEST PUSH1 0x0 PUSH1 0x20 DUP3 DUP5 SUB SLT ISZERO PUSH2 0x364 JUMPI PUSH2 0x363 PUSH2 0x2D9 JUMP JUMPDEST JUMPDEST PUSH1 0x0 PUSH2 0x372 DUP5 DUP3 DUP6 ADD PUSH2 0x339 JUMP JUMPDEST SWAP2 POP POP SWAP3 SWAP2 POP POP JUMP JUMPDEST PUSH1 0x0 DUP2 SWAP1 POP SWAP2 SWAP1 POP JUMP JUMPDEST PUSH2 0x38E DUP2 PUSH2 0x37B JUMP JUMPDEST DUP3 MSTORE POP POP JUMP JUMPDEST PUSH1 0x0 PUSH1 0x40 DUP3 ADD SWAP1 POP PUSH2 0x3A9 PUSH1 0x0 DUP4 ADD DUP6 PUSH2 0x385 JUMP JUMPDEST PUSH2 0x3B6 PUSH1 0x20 DUP4 ADD DUP5 PUSH2 0x385 JUMP JUMPDEST SWAP4 SWAP3 POP POP POP JUMP JUMPDEST PUSH2 0x3C6 DUP2 PUSH2 0x37B JUMP JUMPDEST DUP2 EQ PUSH2 0x3D1 JUMPI PUSH1 0x0 DUP1 REVERT JUMPDEST POP JUMP JUMPDEST PUSH1 0x0 DUP2 CALLDATALOAD SWAP1 POP PUSH2 0x3E3 DUP2 PUSH2 0x3BD JUMP JUMPDEST SWAP3 SWAP2 POP POP JUMP JUMPDEST PUSH1 0x0 DUP1 PUSH1 0x40 DUP4 DUP6 SUB SLT ISZERO PUSH2 0x400 JUMPI PUSH2 0x3FF PUSH2 0x2D9 JUMP JUMPDEST JUMPDEST PUSH1 0x0 PUSH2 0x40E DUP6 DUP3 DUP7 ADD PUSH2 0x339 JUMP JUMPDEST SWAP3 POP POP PUSH1 0x20 PUSH2 0x41F DUP6 DUP3 DUP7 ADD PUSH2 0x3D4 JUMP JUMPDEST SWAP2 POP POP SWAP3 POP SWAP3 SWAP1 POP JUMP JUMPDEST PUSH1 0x0 PUSH1 0x20 DUP3 ADD SWAP1 POP PUSH2 0x43E PUSH1 0x0 DUP4 ADD DUP5 PUSH2 0x385 JUMP JUMPDEST SWAP3 SWAP2 POP POP JUMP JUMPDEST PUSH2 0x44D DUP2 PUSH2 0x2FE JUMP JUMPDEST DUP2 EQ PUSH2 0x458 JUMPI PUSH1 0x0 DUP1 REVERT JUMPDEST POP JUMP JUMPDEST PUSH1 0x0 DUP2 CALLDATALOAD SWAP1 POP PUSH2 0x46A DUP2 PUSH2 0x444 JUMP JUMPDEST SWAP3 SWAP2 POP POP JUMP JUMPDEST PUSH1 0x0 DUP1 PUSH1 0x40 DUP4 DUP6 SUB SLT ISZERO PUSH2 0x487 JUMPI PUSH2 0x486 PUSH2 0x2D9 JUMP JUMPDEST JUMPDEST PUSH1 0x0 PUSH2 0x495 DUP6 DUP3 DUP7 ADD PUSH2 0x45B JUMP JUMPDEST SWAP3 POP POP PUSH1 0x20 PUSH2 0x4A6 DUP6 DUP3 DUP7 ADD PUSH2 0x3D4 JUMP JUMPDEST SWAP2 POP POP SWAP3 POP SWAP3 SWAP1 POP JUMP JUMPDEST PUSH1 0x0 DUP2 MLOAD SWAP1 POP PUSH2 0x4BF DUP2 PUSH2 0x3BD JUMP JUMPDEST SWAP3 SWAP2 POP POP JUMP JUMPDEST PUSH1 0x0 DUP1 PUSH1 0x40 DUP4 DUP6 SUB SLT ISZERO PUSH2 0x4DC JUMPI PUSH2 0x4DB PUSH2 0x2D9 JUMP JUMPDEST JUMPDEST PUSH1 0x0 PUSH2 0x4EA DUP6 DUP3 DUP7 ADD PUSH2 0x4B0 JUMP JUMPDEST SWAP3 POP POP PUSH1 0x20 PUSH2 0x4FB DUP6 DUP3 DUP7 ADD PUSH2 0x4B0 JUMP JUMPDEST SWAP2 POP POP SWAP3 POP SWAP3 SWAP1 POP JUMP JUMPDEST PUSH1 0x0 PUSH1 0x20 DUP3 DUP5 SUB SLT ISZERO PUSH2 0x51B JUMPI PUSH2 0x51A PUSH2 0x2D9 JUMP JUMPDEST JUMPDEST PUSH1 0x0 PUSH2 0x529 DUP5 DUP3 DUP6 ADD PUSH2 0x4B0 JUMP JUMPDEST SWAP2 POP POP SWAP3 SWAP2 POP POP JUMP INVALID LOG2 PUSH5 0x6970667358 0x22 SLT KECCAK256 JUMPDEST PUSH7 0xA07F38A15DD448 SWAP3 CALL 0xFB PUSH26 0xA4ABF974CF37F69A36565EFF1802097EF168E764736F6C634300 ADDMOD SLT STOP CALLER "
				},
				"gasEstimates": {
					"creation": {
						"codeDepositCost": "276800",
						"executionCost": "318",
						"totalCost": "277118"
					},
					"external": {
						"SetXandSendEther(address,uint256)": "infinite",
						"getX(address)": "infinite",
						"getXandValue(address)": "infinite",
						"setX(address,uint256)": "infinite"
					}
				},
				"methodIdentifiers": {
					"SetXandSendEther(address,uint256)": "dccfa6f1",
					"getX(address)": "7c94c8ca",
					"getXandValue(address)": "37e2621b",
					"setX(address,uint256)": "4a2ad99f"
				}
			},
			"storageLayout": {
				"storage": [],
				"types": null
			},
			"userdoc": {
				"kind": "user",
				"methods": {},
				"version": 1
			}
		}
	}
}