{
	"GasGolf(save gas).sol": {
		"GasGolf": {
			"abi": [
				{
					"inputs": [
						{
							"internalType": "uint256[]",
							"name": "nums",
							"type": "uint256[]"
						}
					],
					"name": "sumIfEvenAndLessthan99",
					"outputs": [],
					"stateMutability": "nonpayable",
					"type": "function"
				},
				{
					"inputs": [],
					"name": "total",
					"outputs": [
						{
							"internalType": "uint256",
							"name": "",
							"type": "uint256"
						}
					],
					"stateMutability": "view",
					"type": "function"
				}
			],
			"devdoc": {
				"kind": "dev",
				"methods": {},
				"version": 1
			},
			"evm": {
				"assembly": "    /* \"GasGolf(save gas).sol\":294:709  contract GasGolf {... */\n  mstore(0x40, 0x80)\n  callvalue\n  dup1\n  iszero\n  tag_1\n  jumpi\n  0x00\n  dup1\n  revert\ntag_1:\n  pop\n  dataSize(sub_0)\n  dup1\n  dataOffset(sub_0)\n  0x00\n  codecopy\n  0x00\n  return\nstop\n\nsub_0: assembly {\n        /* \"GasGolf(save gas).sol\":294:709  contract GasGolf {... */\n      mstore(0x40, 0x80)\n      callvalue\n      dup1\n      iszero\n      tag_1\n      jumpi\n      0x00\n      dup1\n      revert\n    tag_1:\n      pop\n      jumpi(tag_2, lt(calldatasize, 0x04))\n      shr(0xe0, calldataload(0x00))\n      dup1\n      0x2ddbd13a\n      eq\n      tag_3\n      jumpi\n      dup1\n      0xc4caea80\n      eq\n      tag_4\n      jumpi\n    tag_2:\n      0x00\n      dup1\n      revert\n        /* \"GasGolf(save gas).sol\":318:335  uint public total */\n    tag_3:\n      tag_5\n      tag_6\n      jump\t// in\n    tag_5:\n      mload(0x40)\n      tag_7\n      swap2\n      swap1\n      tag_8\n      jump\t// in\n    tag_7:\n      mload(0x40)\n      dup1\n      swap2\n      sub\n      swap1\n      return\n        /* \"GasGolf(save gas).sol\":368:706  function sumIfEvenAndLessthan99(uint[] calldata nums) external {... */\n    tag_4:\n      tag_9\n      0x04\n      dup1\n      calldatasize\n      sub\n      dup2\n      add\n      swap1\n      tag_10\n      swap2\n      swap1\n      tag_11\n      jump\t// in\n    tag_10:\n      tag_12\n      jump\t// in\n    tag_9:\n      stop\n        /* \"GasGolf(save gas).sol\":318:335  uint public total */\n    tag_6:\n      sload(0x00)\n      dup2\n      jump\t// out\n        /* \"GasGolf(save gas).sol\":368:706  function sumIfEvenAndLessthan99(uint[] calldata nums) external {... */\n    tag_12:\n        /* \"GasGolf(save gas).sol\":442:453  uint _total */\n      0x00\n        /* \"GasGolf(save gas).sol\":456:461  total */\n      dup1\n      sload\n        /* \"GasGolf(save gas).sol\":442:461  uint _total = total */\n      swap1\n      pop\n        /* \"GasGolf(save gas).sol\":472:480  uint len */\n      0x00\n        /* \"GasGolf(save gas).sol\":483:487  nums */\n      dup4\n      dup4\n        /* \"GasGolf(save gas).sol\":483:494  nums.length */\n      swap1\n      pop\n        /* \"GasGolf(save gas).sol\":472:494  uint len = nums.length */\n      swap1\n      pop\n        /* \"GasGolf(save gas).sol\":510:516  uint i */\n      0x00\n        /* \"GasGolf(save gas).sol\":505:674  for (uint i = 0; i < len ; ++i) {... */\n    tag_14:\n        /* \"GasGolf(save gas).sol\":526:529  len */\n      dup2\n        /* \"GasGolf(save gas).sol\":522:523  i */\n      dup2\n        /* \"GasGolf(save gas).sol\":522:529  i < len */\n      lt\n        /* \"GasGolf(save gas).sol\":505:674  for (uint i = 0; i < len ; ++i) {... */\n      iszero\n      tag_15\n      jumpi\n        /* \"GasGolf(save gas).sol\":552:560  uint num */\n      0x00\n        /* \"GasGolf(save gas).sol\":563:567  nums */\n      dup6\n      dup6\n        /* \"GasGolf(save gas).sol\":568:569  i */\n      dup4\n        /* \"GasGolf(save gas).sol\":563:570  nums[i] */\n      dup2\n      dup2\n      lt\n      tag_17\n      jumpi\n      tag_18\n      tag_19\n      jump\t// in\n    tag_18:\n    tag_17:\n      swap1\n      pop\n      0x20\n      mul\n      add\n      calldataload\n        /* \"GasGolf(save gas).sol\":552:570  uint num = nums[i] */\n      swap1\n      pop\n        /* \"GasGolf(save gas).sol\":600:601  0 */\n      0x00\n        /* \"GasGolf(save gas).sol\":595:596  2 */\n      0x02\n        /* \"GasGolf(save gas).sol\":589:592  num */\n      dup3\n        /* \"GasGolf(save gas).sol\":589:596  num % 2 */\n      tag_20\n      swap2\n      swap1\n      tag_21\n      jump\t// in\n    tag_20:\n        /* \"GasGolf(save gas).sol\":589:601  num % 2 == 0 */\n      eq\n        /* \"GasGolf(save gas).sol\":589:613  num % 2 == 0 && num < 99 */\n      dup1\n      iszero\n      tag_22\n      jumpi\n      pop\n        /* \"GasGolf(save gas).sol\":611:613  99 */\n      0x63\n        /* \"GasGolf(save gas).sol\":605:608  num */\n      dup2\n        /* \"GasGolf(save gas).sol\":605:613  num < 99 */\n      lt\n        /* \"GasGolf(save gas).sol\":589:613  num % 2 == 0 && num < 99 */\n    tag_22:\n        /* \"GasGolf(save gas).sol\":585:663  if (num % 2 == 0 && num < 99) {... */\n      iszero\n      tag_23\n      jumpi\n        /* \"GasGolf(save gas).sol\":644:647  num */\n      dup1\n        /* \"GasGolf(save gas).sol\":634:647  _total += num */\n      dup5\n      tag_24\n      swap2\n      swap1\n      tag_25\n      jump\t// in\n    tag_24:\n      swap4\n      pop\n        /* \"GasGolf(save gas).sol\":585:663  if (num % 2 == 0 && num < 99) {... */\n    tag_23:\n        /* \"GasGolf(save gas).sol\":537:674  {... */\n      pop\n        /* \"GasGolf(save gas).sol\":532:535  ++i */\n      dup1\n      tag_26\n      swap1\n      tag_27\n      jump\t// in\n    tag_26:\n      swap1\n      pop\n        /* \"GasGolf(save gas).sol\":505:674  for (uint i = 0; i < len ; ++i) {... */\n      jump(tag_14)\n    tag_15:\n      pop\n        /* \"GasGolf(save gas).sol\":692:698  _total */\n      dup2\n        /* \"GasGolf(save gas).sol\":684:689  total */\n      0x00\n        /* \"GasGolf(save gas).sol\":684:698  total = _total */\n      dup2\n      swap1\n      sstore\n      pop\n        /* \"GasGolf(save gas).sol\":431:706  {... */\n      pop\n      pop\n        /* \"GasGolf(save gas).sol\":368:706  function sumIfEvenAndLessthan99(uint[] calldata nums) external {... */\n      pop\n      pop\n      jump\t// out\n        /* \"#utility.yul\":7:84   */\n    tag_28:\n        /* \"#utility.yul\":44:51   */\n      0x00\n        /* \"#utility.yul\":73:78   */\n      dup2\n        /* \"#utility.yul\":62:78   */\n      swap1\n      pop\n        /* \"#utility.yul\":7:84   */\n      swap2\n      swap1\n      pop\n      jump\t// out\n        /* \"#utility.yul\":90:208   */\n    tag_29:\n        /* \"#utility.yul\":177:201   */\n      tag_42\n        /* \"#utility.yul\":195:200   */\n      dup2\n        /* \"#utility.yul\":177:201   */\n      tag_28\n      jump\t// in\n    tag_42:\n        /* \"#utility.yul\":172:175   */\n      dup3\n        /* \"#utility.yul\":165:202   */\n      mstore\n        /* \"#utility.yul\":90:208   */\n      pop\n      pop\n      jump\t// out\n        /* \"#utility.yul\":214:436   */\n    tag_8:\n        /* \"#utility.yul\":307:311   */\n      0x00\n        /* \"#utility.yul\":345:347   */\n      0x20\n        /* \"#utility.yul\":334:343   */\n      dup3\n        /* \"#utility.yul\":330:348   */\n      add\n        /* \"#utility.yul\":322:348   */\n      swap1\n      pop\n        /* \"#utility.yul\":358:429   */\n      tag_44\n        /* \"#utility.yul\":426:427   */\n      0x00\n        /* \"#utility.yul\":415:424   */\n      dup4\n        /* \"#utility.yul\":411:428   */\n      add\n        /* \"#utility.yul\":402:408   */\n      dup5\n        /* \"#utility.yul\":358:429   */\n      tag_29\n      jump\t// in\n    tag_44:\n        /* \"#utility.yul\":214:436   */\n      swap3\n      swap2\n      pop\n      pop\n      jump\t// out\n        /* \"#utility.yul\":523:640   */\n    tag_31:\n        /* \"#utility.yul\":632:633   */\n      0x00\n        /* \"#utility.yul\":629:630   */\n      dup1\n        /* \"#utility.yul\":622:634   */\n      revert\n        /* \"#utility.yul\":646:763   */\n    tag_32:\n        /* \"#utility.yul\":755:756   */\n      0x00\n        /* \"#utility.yul\":752:753   */\n      dup1\n        /* \"#utility.yul\":745:757   */\n      revert\n        /* \"#utility.yul\":769:886   */\n    tag_33:\n        /* \"#utility.yul\":878:879   */\n      0x00\n        /* \"#utility.yul\":875:876   */\n      dup1\n        /* \"#utility.yul\":868:880   */\n      revert\n        /* \"#utility.yul\":892:1009   */\n    tag_34:\n        /* \"#utility.yul\":1001:1002   */\n      0x00\n        /* \"#utility.yul\":998:999   */\n      dup1\n        /* \"#utility.yul\":991:1003   */\n      revert\n        /* \"#utility.yul\":1015:1132   */\n    tag_35:\n        /* \"#utility.yul\":1124:1125   */\n      0x00\n        /* \"#utility.yul\":1121:1122   */\n      dup1\n        /* \"#utility.yul\":1114:1126   */\n      revert\n        /* \"#utility.yul\":1155:1723   */\n    tag_36:\n        /* \"#utility.yul\":1228:1236   */\n      0x00\n        /* \"#utility.yul\":1238:1244   */\n      dup1\n        /* \"#utility.yul\":1288:1291   */\n      dup4\n        /* \"#utility.yul\":1281:1285   */\n      0x1f\n        /* \"#utility.yul\":1273:1279   */\n      dup5\n        /* \"#utility.yul\":1269:1286   */\n      add\n        /* \"#utility.yul\":1265:1292   */\n      slt\n        /* \"#utility.yul\":1255:1377   */\n      tag_52\n      jumpi\n        /* \"#utility.yul\":1296:1375   */\n      tag_53\n      tag_33\n      jump\t// in\n    tag_53:\n        /* \"#utility.yul\":1255:1377   */\n    tag_52:\n        /* \"#utility.yul\":1409:1415   */\n      dup3\n        /* \"#utility.yul\":1396:1416   */\n      calldataload\n        /* \"#utility.yul\":1386:1416   */\n      swap1\n      pop\n        /* \"#utility.yul\":1439:1457   */\n      0xffffffffffffffff\n        /* \"#utility.yul\":1431:1437   */\n      dup2\n        /* \"#utility.yul\":1428:1458   */\n      gt\n        /* \"#utility.yul\":1425:1542   */\n      iszero\n      tag_54\n      jumpi\n        /* \"#utility.yul\":1461:1540   */\n      tag_55\n      tag_34\n      jump\t// in\n    tag_55:\n        /* \"#utility.yul\":1425:1542   */\n    tag_54:\n        /* \"#utility.yul\":1575:1579   */\n      0x20\n        /* \"#utility.yul\":1567:1573   */\n      dup4\n        /* \"#utility.yul\":1563:1580   */\n      add\n        /* \"#utility.yul\":1551:1580   */\n      swap2\n      pop\n        /* \"#utility.yul\":1629:1632   */\n      dup4\n        /* \"#utility.yul\":1621:1625   */\n      0x20\n        /* \"#utility.yul\":1613:1619   */\n      dup3\n        /* \"#utility.yul\":1609:1626   */\n      mul\n        /* \"#utility.yul\":1599:1607   */\n      dup4\n        /* \"#utility.yul\":1595:1627   */\n      add\n        /* \"#utility.yul\":1592:1633   */\n      gt\n        /* \"#utility.yul\":1589:1717   */\n      iszero\n      tag_56\n      jumpi\n        /* \"#utility.yul\":1636:1715   */\n      tag_57\n      tag_35\n      jump\t// in\n    tag_57:\n        /* \"#utility.yul\":1589:1717   */\n    tag_56:\n        /* \"#utility.yul\":1155:1723   */\n      swap3\n      pop\n      swap3\n      swap1\n      pop\n      jump\t// out\n        /* \"#utility.yul\":1729:2288   */\n    tag_11:\n        /* \"#utility.yul\":1815:1821   */\n      0x00\n        /* \"#utility.yul\":1823:1829   */\n      dup1\n        /* \"#utility.yul\":1872:1874   */\n      0x20\n        /* \"#utility.yul\":1860:1869   */\n      dup4\n        /* \"#utility.yul\":1851:1858   */\n      dup6\n        /* \"#utility.yul\":1847:1870   */\n      sub\n        /* \"#utility.yul\":1843:1875   */\n      slt\n        /* \"#utility.yul\":1840:1959   */\n      iszero\n      tag_59\n      jumpi\n        /* \"#utility.yul\":1878:1957   */\n      tag_60\n      tag_31\n      jump\t// in\n    tag_60:\n        /* \"#utility.yul\":1840:1959   */\n    tag_59:\n        /* \"#utility.yul\":2026:2027   */\n      0x00\n        /* \"#utility.yul\":2015:2024   */\n      dup4\n        /* \"#utility.yul\":2011:2028   */\n      add\n        /* \"#utility.yul\":1998:2029   */\n      calldataload\n        /* \"#utility.yul\":2056:2074   */\n      0xffffffffffffffff\n        /* \"#utility.yul\":2048:2054   */\n      dup2\n        /* \"#utility.yul\":2045:2075   */\n      gt\n        /* \"#utility.yul\":2042:2159   */\n      iszero\n      tag_61\n      jumpi\n        /* \"#utility.yul\":2078:2157   */\n      tag_62\n      tag_32\n      jump\t// in\n    tag_62:\n        /* \"#utility.yul\":2042:2159   */\n    tag_61:\n        /* \"#utility.yul\":2191:2271   */\n      tag_63\n        /* \"#utility.yul\":2263:2270   */\n      dup6\n        /* \"#utility.yul\":2254:2260   */\n      dup3\n        /* \"#utility.yul\":2243:2252   */\n      dup7\n        /* \"#utility.yul\":2239:2261   */\n      add\n        /* \"#utility.yul\":2191:2271   */\n      tag_36\n      jump\t// in\n    tag_63:\n        /* \"#utility.yul\":2173:2271   */\n      swap3\n      pop\n      swap3\n      pop\n        /* \"#utility.yul\":1969:2281   */\n      pop\n        /* \"#utility.yul\":1729:2288   */\n      swap3\n      pop\n      swap3\n      swap1\n      pop\n      jump\t// out\n        /* \"#utility.yul\":2294:2474   */\n    tag_19:\n        /* \"#utility.yul\":2342:2419   */\n      0x4e487b7100000000000000000000000000000000000000000000000000000000\n        /* \"#utility.yul\":2339:2340   */\n      0x00\n        /* \"#utility.yul\":2332:2420   */\n      mstore\n        /* \"#utility.yul\":2439:2443   */\n      0x32\n        /* \"#utility.yul\":2436:2437   */\n      0x04\n        /* \"#utility.yul\":2429:2444   */\n      mstore\n        /* \"#utility.yul\":2463:2467   */\n      0x24\n        /* \"#utility.yul\":2460:2461   */\n      0x00\n        /* \"#utility.yul\":2453:2468   */\n      revert\n        /* \"#utility.yul\":2480:2660   */\n    tag_37:\n        /* \"#utility.yul\":2528:2605   */\n      0x4e487b7100000000000000000000000000000000000000000000000000000000\n        /* \"#utility.yul\":2525:2526   */\n      0x00\n        /* \"#utility.yul\":2518:2606   */\n      mstore\n        /* \"#utility.yul\":2625:2629   */\n      0x12\n        /* \"#utility.yul\":2622:2623   */\n      0x04\n        /* \"#utility.yul\":2615:2630   */\n      mstore\n        /* \"#utility.yul\":2649:2653   */\n      0x24\n        /* \"#utility.yul\":2646:2647   */\n      0x00\n        /* \"#utility.yul\":2639:2654   */\n      revert\n        /* \"#utility.yul\":2666:2842   */\n    tag_21:\n        /* \"#utility.yul\":2698:2699   */\n      0x00\n        /* \"#utility.yul\":2715:2735   */\n      tag_67\n        /* \"#utility.yul\":2733:2734   */\n      dup3\n        /* \"#utility.yul\":2715:2735   */\n      tag_28\n      jump\t// in\n    tag_67:\n        /* \"#utility.yul\":2710:2735   */\n      swap2\n      pop\n        /* \"#utility.yul\":2749:2769   */\n      tag_68\n        /* \"#utility.yul\":2767:2768   */\n      dup4\n        /* \"#utility.yul\":2749:2769   */\n      tag_28\n      jump\t// in\n    tag_68:\n        /* \"#utility.yul\":2744:2769   */\n      swap3\n      pop\n        /* \"#utility.yul\":2788:2789   */\n      dup3\n        /* \"#utility.yul\":2778:2813   */\n      tag_69\n      jumpi\n        /* \"#utility.yul\":2793:2811   */\n      tag_70\n      tag_37\n      jump\t// in\n    tag_70:\n        /* \"#utility.yul\":2778:2813   */\n    tag_69:\n        /* \"#utility.yul\":2834:2835   */\n      dup3\n        /* \"#utility.yul\":2831:2832   */\n      dup3\n        /* \"#utility.yul\":2827:2836   */\n      mod\n        /* \"#utility.yul\":2822:2836   */\n      swap1\n      pop\n        /* \"#utility.yul\":2666:2842   */\n      swap3\n      swap2\n      pop\n      pop\n      jump\t// out\n        /* \"#utility.yul\":2848:3028   */\n    tag_38:\n        /* \"#utility.yul\":2896:2973   */\n      0x4e487b7100000000000000000000000000000000000000000000000000000000\n        /* \"#utility.yul\":2893:2894   */\n      0x00\n        /* \"#utility.yul\":2886:2974   */\n      mstore\n        /* \"#utility.yul\":2993:2997   */\n      0x11\n        /* \"#utility.yul\":2990:2991   */\n      0x04\n        /* \"#utility.yul\":2983:2998   */\n      mstore\n        /* \"#utility.yul\":3017:3021   */\n      0x24\n        /* \"#utility.yul\":3014:3015   */\n      0x00\n        /* \"#utility.yul\":3007:3022   */\n      revert\n        /* \"#utility.yul\":3034:3225   */\n    tag_25:\n        /* \"#utility.yul\":3074:3077   */\n      0x00\n        /* \"#utility.yul\":3093:3113   */\n      tag_73\n        /* \"#utility.yul\":3111:3112   */\n      dup3\n        /* \"#utility.yul\":3093:3113   */\n      tag_28\n      jump\t// in\n    tag_73:\n        /* \"#utility.yul\":3088:3113   */\n      swap2\n      pop\n        /* \"#utility.yul\":3127:3147   */\n      tag_74\n        /* \"#utility.yul\":3145:3146   */\n      dup4\n        /* \"#utility.yul\":3127:3147   */\n      tag_28\n      jump\t// in\n    tag_74:\n        /* \"#utility.yul\":3122:3147   */\n      swap3\n      pop\n        /* \"#utility.yul\":3170:3171   */\n      dup3\n        /* \"#utility.yul\":3167:3168   */\n      dup3\n        /* \"#utility.yul\":3163:3172   */\n      add\n        /* \"#utility.yul\":3156:3172   */\n      swap1\n      pop\n        /* \"#utility.yul\":3191:3194   */\n      dup1\n        /* \"#utility.yul\":3188:3189   */\n      dup3\n        /* \"#utility.yul\":3185:3195   */\n      gt\n        /* \"#utility.yul\":3182:3218   */\n      iszero\n      tag_75\n      jumpi\n        /* \"#utility.yul\":3198:3216   */\n      tag_76\n      tag_38\n      jump\t// in\n    tag_76:\n        /* \"#utility.yul\":3182:3218   */\n    tag_75:\n        /* \"#utility.yul\":3034:3225   */\n      swap3\n      swap2\n      pop\n      pop\n      jump\t// out\n        /* \"#utility.yul\":3231:3464   */\n    tag_27:\n        /* \"#utility.yul\":3270:3273   */\n      0x00\n        /* \"#utility.yul\":3293:3317   */\n      tag_78\n        /* \"#utility.yul\":3311:3316   */\n      dup3\n        /* \"#utility.yul\":3293:3317   */\n      tag_28\n      jump\t// in\n    tag_78:\n        /* \"#utility.yul\":3284:3317   */\n      swap2\n      pop\n        /* \"#utility.yul\":3339:3405   */\n      0xffffffffffffffffffffffffffffffffffffffffffffffffffffffffffffffff\n        /* \"#utility.yul\":3332:3337   */\n      dup3\n        /* \"#utility.yul\":3329:3406   */\n      sub\n        /* \"#utility.yul\":3326:3429   */\n      tag_79\n      jumpi\n        /* \"#utility.yul\":3409:3427   */\n      tag_80\n      tag_38\n      jump\t// in\n    tag_80:\n        /* \"#utility.yul\":3326:3429   */\n    tag_79:\n        /* \"#utility.yul\":3456:3457   */\n      0x01\n        /* \"#utility.yul\":3449:3454   */\n      dup3\n        /* \"#utility.yul\":3445:3458   */\n      add\n        /* \"#utility.yul\":3438:3458   */\n      swap1\n      pop\n        /* \"#utility.yul\":3231:3464   */\n      swap2\n      swap1\n      pop\n      jump\t// out\n\n    auxdata: 0xa2646970667358221220873b82fe2823db3d083e00af9858d9d67b12968e371d5bd378a0e74dc051ad7764736f6c63430008120033\n}\n",
				"bytecode": {
					"linkReferences": {},
					"object": "608060405234801561001057600080fd5b50610362806100206000396000f3fe608060405234801561001057600080fd5b50600436106100365760003560e01c80632ddbd13a1461003b578063c4caea8014610059575b600080fd5b610043610075565b604051610050919061011b565b60405180910390f35b610073600480360381019061006e91906101a5565b61007b565b005b60005481565b600080549050600083839050905060005b818110156100f45760008585838181106100a9576100a86101f2565b5b90506020020135905060006002826100c19190610250565b1480156100ce5750606381105b156100e25780846100df91906102b0565b93505b50806100ed906102e4565b905061008c565b508160008190555050505050565b6000819050919050565b61011581610102565b82525050565b6000602082019050610130600083018461010c565b92915050565b600080fd5b600080fd5b600080fd5b600080fd5b600080fd5b60008083601f84011261016557610164610140565b5b8235905067ffffffffffffffff81111561018257610181610145565b5b60208301915083602082028301111561019e5761019d61014a565b5b9250929050565b600080602083850312156101bc576101bb610136565b5b600083013567ffffffffffffffff8111156101da576101d961013b565b5b6101e68582860161014f565b92509250509250929050565b7f4e487b7100000000000000000000000000000000000000000000000000000000600052603260045260246000fd5b7f4e487b7100000000000000000000000000000000000000000000000000000000600052601260045260246000fd5b600061025b82610102565b915061026683610102565b92508261027657610275610221565b5b828206905092915050565b7f4e487b7100000000000000000000000000000000000000000000000000000000600052601160045260246000fd5b60006102bb82610102565b91506102c683610102565b92508282019050808211156102de576102dd610281565b5b92915050565b60006102ef82610102565b91507fffffffffffffffffffffffffffffffffffffffffffffffffffffffffffffffff820361032157610320610281565b5b60018201905091905056fea2646970667358221220873b82fe2823db3d083e00af9858d9d67b12968e371d5bd378a0e74dc051ad7764736f6c63430008120033",
					"opcodes": "PUSH1 0x80 PUSH1 0x40 MSTORE CALLVALUE DUP1 ISZERO PUSH2 0x10 JUMPI PUSH1 0x0 DUP1 REVERT JUMPDEST POP PUSH2 0x362 DUP1 PUSH2 0x20 PUSH1 0x0 CODECOPY PUSH1 0x0 RETURN INVALID PUSH1 0x80 PUSH1 0x40 MSTORE CALLVALUE DUP1 ISZERO PUSH2 0x10 JUMPI PUSH1 0x0 DUP1 REVERT JUMPDEST POP PUSH1 0x4 CALLDATASIZE LT PUSH2 0x36 JUMPI PUSH1 0x0 CALLDATALOAD PUSH1 0xE0 SHR DUP1 PUSH4 0x2DDBD13A EQ PUSH2 0x3B JUMPI DUP1 PUSH4 0xC4CAEA80 EQ PUSH2 0x59 JUMPI JUMPDEST PUSH1 0x0 DUP1 REVERT JUMPDEST PUSH2 0x43 PUSH2 0x75 JUMP JUMPDEST PUSH1 0x40 MLOAD PUSH2 0x50 SWAP2 SWAP1 PUSH2 0x11B JUMP JUMPDEST PUSH1 0x40 MLOAD DUP1 SWAP2 SUB SWAP1 RETURN JUMPDEST PUSH2 0x73 PUSH1 0x4 DUP1 CALLDATASIZE SUB DUP2 ADD SWAP1 PUSH2 0x6E SWAP2 SWAP1 PUSH2 0x1A5 JUMP JUMPDEST PUSH2 0x7B JUMP JUMPDEST STOP JUMPDEST PUSH1 0x0 SLOAD DUP2 JUMP JUMPDEST PUSH1 0x0 DUP1 SLOAD SWAP1 POP PUSH1 0x0 DUP4 DUP4 SWAP1 POP SWAP1 POP PUSH1 0x0 JUMPDEST DUP2 DUP2 LT ISZERO PUSH2 0xF4 JUMPI PUSH1 0x0 DUP6 DUP6 DUP4 DUP2 DUP2 LT PUSH2 0xA9 JUMPI PUSH2 0xA8 PUSH2 0x1F2 JUMP JUMPDEST JUMPDEST SWAP1 POP PUSH1 0x20 MUL ADD CALLDATALOAD SWAP1 POP PUSH1 0x0 PUSH1 0x2 DUP3 PUSH2 0xC1 SWAP2 SWAP1 PUSH2 0x250 JUMP JUMPDEST EQ DUP1 ISZERO PUSH2 0xCE JUMPI POP PUSH1 0x63 DUP2 LT JUMPDEST ISZERO PUSH2 0xE2 JUMPI DUP1 DUP5 PUSH2 0xDF SWAP2 SWAP1 PUSH2 0x2B0 JUMP JUMPDEST SWAP4 POP JUMPDEST POP DUP1 PUSH2 0xED SWAP1 PUSH2 0x2E4 JUMP JUMPDEST SWAP1 POP PUSH2 0x8C JUMP JUMPDEST POP DUP2 PUSH1 0x0 DUP2 SWAP1 SSTORE POP POP POP POP POP JUMP JUMPDEST PUSH1 0x0 DUP2 SWAP1 POP SWAP2 SWAP1 POP JUMP JUMPDEST PUSH2 0x115 DUP2 PUSH2 0x102 JUMP JUMPDEST DUP3 MSTORE POP POP JUMP JUMPDEST PUSH1 0x0 PUSH1 0x20 DUP3 ADD SWAP1 POP PUSH2 0x130 PUSH1 0x0 DUP4 ADD DUP5 PUSH2 0x10C JUMP JUMPDEST SWAP3 SWAP2 POP POP JUMP JUMPDEST PUSH1 0x0 DUP1 REVERT JUMPDEST PUSH1 0x0 DUP1 REVERT JUMPDEST PUSH1 0x0 DUP1 REVERT JUMPDEST PUSH1 0x0 DUP1 REVERT JUMPDEST PUSH1 0x0 DUP1 REVERT JUMPDEST PUSH1 0x0 DUP1 DUP4 PUSH1 0x1F DUP5 ADD SLT PUSH2 0x165 JUMPI PUSH2 0x164 PUSH2 0x140 JUMP JUMPDEST JUMPDEST DUP3 CALLDATALOAD SWAP1 POP PUSH8 0xFFFFFFFFFFFFFFFF DUP2 GT ISZERO PUSH2 0x182 JUMPI PUSH2 0x181 PUSH2 0x145 JUMP JUMPDEST JUMPDEST PUSH1 0x20 DUP4 ADD SWAP2 POP DUP4 PUSH1 0x20 DUP3 MUL DUP4 ADD GT ISZERO PUSH2 0x19E JUMPI PUSH2 0x19D PUSH2 0x14A JUMP JUMPDEST JUMPDEST SWAP3 POP SWAP3 SWAP1 POP JUMP JUMPDEST PUSH1 0x0 DUP1 PUSH1 0x20 DUP4 DUP6 SUB SLT ISZERO PUSH2 0x1BC JUMPI PUSH2 0x1BB PUSH2 0x136 JUMP JUMPDEST JUMPDEST PUSH1 0x0 DUP4 ADD CALLDATALOAD PUSH8 0xFFFFFFFFFFFFFFFF DUP2 GT ISZERO PUSH2 0x1DA JUMPI PUSH2 0x1D9 PUSH2 0x13B JUMP JUMPDEST JUMPDEST PUSH2 0x1E6 DUP6 DUP3 DUP7 ADD PUSH2 0x14F JUMP JUMPDEST SWAP3 POP SWAP3 POP POP SWAP3 POP SWAP3 SWAP1 POP JUMP JUMPDEST PUSH32 0x4E487B7100000000000000000000000000000000000000000000000000000000 PUSH1 0x0 MSTORE PUSH1 0x32 PUSH1 0x4 MSTORE PUSH1 0x24 PUSH1 0x0 REVERT JUMPDEST PUSH32 0x4E487B7100000000000000000000000000000000000000000000000000000000 PUSH1 0x0 MSTORE PUSH1 0x12 PUSH1 0x4 MSTORE PUSH1 0x24 PUSH1 0x0 REVERT JUMPDEST PUSH1 0x0 PUSH2 0x25B DUP3 PUSH2 0x102 JUMP JUMPDEST SWAP2 POP PUSH2 0x266 DUP4 PUSH2 0x102 JUMP JUMPDEST SWAP3 POP DUP3 PUSH2 0x276 JUMPI PUSH2 0x275 PUSH2 0x221 JUMP JUMPDEST JUMPDEST DUP3 DUP3 MOD SWAP1 POP SWAP3 SWAP2 POP POP JUMP JUMPDEST PUSH32 0x4E487B7100000000000000000000000000000000000000000000000000000000 PUSH1 0x0 MSTORE PUSH1 0x11 PUSH1 0x4 MSTORE PUSH1 0x24 PUSH1 0x0 REVERT JUMPDEST PUSH1 0x0 PUSH2 0x2BB DUP3 PUSH2 0x102 JUMP JUMPDEST SWAP2 POP PUSH2 0x2C6 DUP4 PUSH2 0x102 JUMP JUMPDEST SWAP3 POP DUP3 DUP3 ADD SWAP1 POP DUP1 DUP3 GT ISZERO PUSH2 0x2DE JUMPI PUSH2 0x2DD PUSH2 0x281 JUMP JUMPDEST JUMPDEST SWAP3 SWAP2 POP POP JUMP JUMPDEST PUSH1 0x0 PUSH2 0x2EF DUP3 PUSH2 0x102 JUMP JUMPDEST SWAP2 POP PUSH32 0xFFFFFFFFFFFFFFFFFFFFFFFFFFFFFFFFFFFFFFFFFFFFFFFFFFFFFFFFFFFFFFFF DUP3 SUB PUSH2 0x321 JUMPI PUSH2 0x320 PUSH2 0x281 JUMP JUMPDEST JUMPDEST PUSH1 0x1 DUP3 ADD SWAP1 POP SWAP2 SWAP1 POP JUMP INVALID LOG2 PUSH5 0x6970667358 0x22 SLT KECCAK256 DUP8 EXTCODESIZE DUP3 INVALID 0x28 0x23 0xDB RETURNDATASIZE ADDMOD RETURNDATACOPY STOP 0xAF SWAP9 PC 0xD9 0xD6 PUSH28 0x12968E371D5BD378A0E74DC051AD7764736F6C634300081200330000 "
				},
				"gasEstimates": {
					"creation": {
						"codeDepositCost": "173200",
						"executionCost": "220",
						"totalCost": "173420"
					},
					"external": {
						"sumIfEvenAndLessthan99(uint256[])": "infinite",
						"total()": "2407"
					}
				},
				"methodIdentifiers": {
					"sumIfEvenAndLessthan99(uint256[])": "c4caea80",
					"total()": "2ddbd13a"
				}
			},
			"storageLayout": {
				"storage": [
					{
						"astId": 3,
						"contract": "GasGolf(save gas).sol:GasGolf",
						"label": "total",
						"offset": 0,
						"slot": "0",
						"type": "t_uint256"
					}
				],
				"types": {
					"t_uint256": {
						"encoding": "inplace",
						"label": "uint256",
						"numberOfBytes": "32"
					}
				}
			},
			"userdoc": {
				"kind": "user",
				"methods": {},
				"version": 1
			}
		}
	}
}