{
	"Parent_Functions.sol": {
		"G": {
			"abi": [
				{
					"anonymous": false,
					"inputs": [
						{
							"indexed": false,
							"internalType": "string",
							"name": "message",
							"type": "string"
						}
					],
					"name": "Log",
					"type": "event"
				},
				{
					"inputs": [],
					"name": "bar",
					"outputs": [],
					"stateMutability": "nonpayable",
					"type": "function"
				},
				{
					"inputs": [],
					"name": "foo",
					"outputs": [],
					"stateMutability": "nonpayable",
					"type": "function"
				}
			],
			"devdoc": {
				"kind": "dev",
				"methods": {},
				"version": 1
			},
			"evm": {
				"assembly": "    /* \"Parent_Functions.sol\":650:878  contract G is E {... */\n  mstore(0x40, 0x80)\n  callvalue\n  dup1\n  iszero\n  tag_1\n  jumpi\n  0x00\n  dup1\n  revert\ntag_1:\n  pop\n  dataSize(sub_0)\n  dup1\n  dataOffset(sub_0)\n  0x00\n  codecopy\n  0x00\n  return\nstop\n\nsub_0: assembly {\n        /* \"Parent_Functions.sol\":650:878  contract G is E {... */\n      mstore(0x40, 0x80)\n      callvalue\n      dup1\n      iszero\n      tag_1\n      jumpi\n      0x00\n      dup1\n      revert\n    tag_1:\n      pop\n      jumpi(tag_2, lt(calldatasize, 0x04))\n      shr(0xe0, calldataload(0x00))\n      dup1\n      0xc2985578\n      eq\n      tag_3\n      jumpi\n      dup1\n      0xfebb0f7e\n      eq\n      tag_4\n      jumpi\n    tag_2:\n      0x00\n      dup1\n      revert\n        /* \"Parent_Functions.sol\":673:768  function foo() public virtual override {... */\n    tag_3:\n      tag_5\n      tag_6\n      jump\t// in\n    tag_5:\n      stop\n        /* \"Parent_Functions.sol\":776:875  function bar() public virtual override {... */\n    tag_4:\n      tag_7\n      tag_8\n      jump\t// in\n    tag_7:\n      stop\n        /* \"Parent_Functions.sol\":673:768  function foo() public virtual override {... */\n    tag_6:\n        /* \"Parent_Functions.sol\":728:742  Log (\"G. foo\") */\n      0xcf34ef537ac33ee1ac626ca1587a0a7e8e51561e5514f8cb36afa1c5102b3bab\n      mload(0x40)\n      tag_10\n      swap1\n      tag_11\n      jump\t// in\n    tag_10:\n      mload(0x40)\n      dup1\n      swap2\n      sub\n      swap1\n      log1\n        /* \"Parent_Functions.sol\":753:760  E.foo() */\n      tag_12\n        /* \"Parent_Functions.sol\":753:758  E.foo */\n      tag_13\n        /* \"Parent_Functions.sol\":753:760  E.foo() */\n      jump\t// in\n    tag_12:\n        /* \"Parent_Functions.sol\":673:768  function foo() public virtual override {... */\n      jump\t// out\n        /* \"Parent_Functions.sol\":776:875  function bar() public virtual override {... */\n    tag_8:\n        /* \"Parent_Functions.sol\":831:845  Log (\"G. foo\") */\n      0xcf34ef537ac33ee1ac626ca1587a0a7e8e51561e5514f8cb36afa1c5102b3bab\n      mload(0x40)\n      tag_15\n      swap1\n      tag_11\n      jump\t// in\n    tag_15:\n      mload(0x40)\n      dup1\n      swap2\n      sub\n      swap1\n      log1\n        /* \"Parent_Functions.sol\":856:867  super.bar() */\n      tag_16\n        /* \"Parent_Functions.sol\":856:865  super.bar */\n      tag_17\n        /* \"Parent_Functions.sol\":856:867  super.bar() */\n      jump\t// in\n    tag_16:\n        /* \"Parent_Functions.sol\":776:875  function bar() public virtual override {... */\n      jump\t// out\n        /* \"Parent_Functions.sol\":269:337  function foo() public virtual {... */\n    tag_13:\n        /* \"Parent_Functions.sol\":315:329  Log (\"E. foo\") */\n      0xcf34ef537ac33ee1ac626ca1587a0a7e8e51561e5514f8cb36afa1c5102b3bab\n      mload(0x40)\n      tag_19\n      swap1\n      tag_20\n      jump\t// in\n    tag_19:\n      mload(0x40)\n      dup1\n      swap2\n      sub\n      swap1\n      log1\n        /* \"Parent_Functions.sol\":269:337  function foo() public virtual {... */\n      jump\t// out\n        /* \"Parent_Functions.sol\":345:411  function bar() public virtual {... */\n    tag_17:\n        /* \"Parent_Functions.sol\":391:403  Log(\"E.bar\") */\n      0xcf34ef537ac33ee1ac626ca1587a0a7e8e51561e5514f8cb36afa1c5102b3bab\n      mload(0x40)\n      tag_22\n      swap1\n      tag_23\n      jump\t// in\n    tag_22:\n      mload(0x40)\n      dup1\n      swap2\n      sub\n      swap1\n      log1\n        /* \"Parent_Functions.sol\":345:411  function bar() public virtual {... */\n      jump\t// out\n        /* \"#utility.yul\":7:176   */\n    tag_24:\n        /* \"#utility.yul\":91:102   */\n      0x00\n        /* \"#utility.yul\":125:131   */\n      dup3\n        /* \"#utility.yul\":120:123   */\n      dup3\n        /* \"#utility.yul\":113:132   */\n      mstore\n        /* \"#utility.yul\":165:169   */\n      0x20\n        /* \"#utility.yul\":160:163   */\n      dup3\n        /* \"#utility.yul\":156:170   */\n      add\n        /* \"#utility.yul\":141:170   */\n      swap1\n      pop\n        /* \"#utility.yul\":7:176   */\n      swap3\n      swap2\n      pop\n      pop\n      jump\t// out\n        /* \"#utility.yul\":182:338   */\n    tag_25:\n        /* \"#utility.yul\":322:330   */\n      0x472e20666f6f0000000000000000000000000000000000000000000000000000\n        /* \"#utility.yul\":318:319   */\n      0x00\n        /* \"#utility.yul\":310:316   */\n      dup3\n        /* \"#utility.yul\":306:320   */\n      add\n        /* \"#utility.yul\":299:331   */\n      mstore\n        /* \"#utility.yul\":182:338   */\n      pop\n      jump\t// out\n        /* \"#utility.yul\":344:709   */\n    tag_26:\n        /* \"#utility.yul\":486:489   */\n      0x00\n        /* \"#utility.yul\":507:573   */\n      tag_35\n        /* \"#utility.yul\":571:572   */\n      0x06\n        /* \"#utility.yul\":566:569   */\n      dup4\n        /* \"#utility.yul\":507:573   */\n      tag_24\n      jump\t// in\n    tag_35:\n        /* \"#utility.yul\":500:573   */\n      swap2\n      pop\n        /* \"#utility.yul\":582:675   */\n      tag_36\n        /* \"#utility.yul\":671:674   */\n      dup3\n        /* \"#utility.yul\":582:675   */\n      tag_25\n      jump\t// in\n    tag_36:\n        /* \"#utility.yul\":700:702   */\n      0x20\n        /* \"#utility.yul\":695:698   */\n      dup3\n        /* \"#utility.yul\":691:703   */\n      add\n        /* \"#utility.yul\":684:703   */\n      swap1\n      pop\n        /* \"#utility.yul\":344:709   */\n      swap2\n      swap1\n      pop\n      jump\t// out\n        /* \"#utility.yul\":715:1134   */\n    tag_11:\n        /* \"#utility.yul\":881:885   */\n      0x00\n        /* \"#utility.yul\":919:921   */\n      0x20\n        /* \"#utility.yul\":908:917   */\n      dup3\n        /* \"#utility.yul\":904:922   */\n      add\n        /* \"#utility.yul\":896:922   */\n      swap1\n      pop\n        /* \"#utility.yul\":968:977   */\n      dup2\n        /* \"#utility.yul\":962:966   */\n      dup2\n        /* \"#utility.yul\":958:978   */\n      sub\n        /* \"#utility.yul\":954:955   */\n      0x00\n        /* \"#utility.yul\":943:952   */\n      dup4\n        /* \"#utility.yul\":939:956   */\n      add\n        /* \"#utility.yul\":932:979   */\n      mstore\n        /* \"#utility.yul\":996:1127   */\n      tag_38\n        /* \"#utility.yul\":1122:1126   */\n      dup2\n        /* \"#utility.yul\":996:1127   */\n      tag_26\n      jump\t// in\n    tag_38:\n        /* \"#utility.yul\":988:1127   */\n      swap1\n      pop\n        /* \"#utility.yul\":715:1134   */\n      swap2\n      swap1\n      pop\n      jump\t// out\n        /* \"#utility.yul\":1140:1296   */\n    tag_27:\n        /* \"#utility.yul\":1280:1288   */\n      0x452e20666f6f0000000000000000000000000000000000000000000000000000\n        /* \"#utility.yul\":1276:1277   */\n      0x00\n        /* \"#utility.yul\":1268:1274   */\n      dup3\n        /* \"#utility.yul\":1264:1278   */\n      add\n        /* \"#utility.yul\":1257:1289   */\n      mstore\n        /* \"#utility.yul\":1140:1296   */\n      pop\n      jump\t// out\n        /* \"#utility.yul\":1302:1667   */\n    tag_28:\n        /* \"#utility.yul\":1444:1447   */\n      0x00\n        /* \"#utility.yul\":1465:1531   */\n      tag_41\n        /* \"#utility.yul\":1529:1530   */\n      0x06\n        /* \"#utility.yul\":1524:1527   */\n      dup4\n        /* \"#utility.yul\":1465:1531   */\n      tag_24\n      jump\t// in\n    tag_41:\n        /* \"#utility.yul\":1458:1531   */\n      swap2\n      pop\n        /* \"#utility.yul\":1540:1633   */\n      tag_42\n        /* \"#utility.yul\":1629:1632   */\n      dup3\n        /* \"#utility.yul\":1540:1633   */\n      tag_27\n      jump\t// in\n    tag_42:\n        /* \"#utility.yul\":1658:1660   */\n      0x20\n        /* \"#utility.yul\":1653:1656   */\n      dup3\n        /* \"#utility.yul\":1649:1661   */\n      add\n        /* \"#utility.yul\":1642:1661   */\n      swap1\n      pop\n        /* \"#utility.yul\":1302:1667   */\n      swap2\n      swap1\n      pop\n      jump\t// out\n        /* \"#utility.yul\":1673:2092   */\n    tag_20:\n        /* \"#utility.yul\":1839:1843   */\n      0x00\n        /* \"#utility.yul\":1877:1879   */\n      0x20\n        /* \"#utility.yul\":1866:1875   */\n      dup3\n        /* \"#utility.yul\":1862:1880   */\n      add\n        /* \"#utility.yul\":1854:1880   */\n      swap1\n      pop\n        /* \"#utility.yul\":1926:1935   */\n      dup2\n        /* \"#utility.yul\":1920:1924   */\n      dup2\n        /* \"#utility.yul\":1916:1936   */\n      sub\n        /* \"#utility.yul\":1912:1913   */\n      0x00\n        /* \"#utility.yul\":1901:1910   */\n      dup4\n        /* \"#utility.yul\":1897:1914   */\n      add\n        /* \"#utility.yul\":1890:1937   */\n      mstore\n        /* \"#utility.yul\":1954:2085   */\n      tag_44\n        /* \"#utility.yul\":2080:2084   */\n      dup2\n        /* \"#utility.yul\":1954:2085   */\n      tag_28\n      jump\t// in\n    tag_44:\n        /* \"#utility.yul\":1946:2085   */\n      swap1\n      pop\n        /* \"#utility.yul\":1673:2092   */\n      swap2\n      swap1\n      pop\n      jump\t// out\n        /* \"#utility.yul\":2098:2253   */\n    tag_29:\n        /* \"#utility.yul\":2238:2245   */\n      0x452e626172000000000000000000000000000000000000000000000000000000\n        /* \"#utility.yul\":2234:2235   */\n      0x00\n        /* \"#utility.yul\":2226:2232   */\n      dup3\n        /* \"#utility.yul\":2222:2236   */\n      add\n        /* \"#utility.yul\":2215:2246   */\n      mstore\n        /* \"#utility.yul\":2098:2253   */\n      pop\n      jump\t// out\n        /* \"#utility.yul\":2259:2624   */\n    tag_30:\n        /* \"#utility.yul\":2401:2404   */\n      0x00\n        /* \"#utility.yul\":2422:2488   */\n      tag_47\n        /* \"#utility.yul\":2486:2487   */\n      0x05\n        /* \"#utility.yul\":2481:2484   */\n      dup4\n        /* \"#utility.yul\":2422:2488   */\n      tag_24\n      jump\t// in\n    tag_47:\n        /* \"#utility.yul\":2415:2488   */\n      swap2\n      pop\n        /* \"#utility.yul\":2497:2590   */\n      tag_48\n        /* \"#utility.yul\":2586:2589   */\n      dup3\n        /* \"#utility.yul\":2497:2590   */\n      tag_29\n      jump\t// in\n    tag_48:\n        /* \"#utility.yul\":2615:2617   */\n      0x20\n        /* \"#utility.yul\":2610:2613   */\n      dup3\n        /* \"#utility.yul\":2606:2618   */\n      add\n        /* \"#utility.yul\":2599:2618   */\n      swap1\n      pop\n        /* \"#utility.yul\":2259:2624   */\n      swap2\n      swap1\n      pop\n      jump\t// out\n        /* \"#utility.yul\":2630:3049   */\n    tag_23:\n        /* \"#utility.yul\":2796:2800   */\n      0x00\n        /* \"#utility.yul\":2834:2836   */\n      0x20\n        /* \"#utility.yul\":2823:2832   */\n      dup3\n        /* \"#utility.yul\":2819:2837   */\n      add\n        /* \"#utility.yul\":2811:2837   */\n      swap1\n      pop\n        /* \"#utility.yul\":2883:2892   */\n      dup2\n        /* \"#utility.yul\":2877:2881   */\n      dup2\n        /* \"#utility.yul\":2873:2893   */\n      sub\n        /* \"#utility.yul\":2869:2870   */\n      0x00\n        /* \"#utility.yul\":2858:2867   */\n      dup4\n        /* \"#utility.yul\":2854:2871   */\n      add\n        /* \"#utility.yul\":2847:2894   */\n      mstore\n        /* \"#utility.yul\":2911:3042   */\n      tag_50\n        /* \"#utility.yul\":3037:3041   */\n      dup2\n        /* \"#utility.yul\":2911:3042   */\n      tag_30\n      jump\t// in\n    tag_50:\n        /* \"#utility.yul\":2903:3042   */\n      swap1\n      pop\n        /* \"#utility.yul\":2630:3049   */\n      swap2\n      swap1\n      pop\n      jump\t// out\n\n    auxdata: 0xa2646970667358221220de557b9d518b31b5b0fb617fd2785c77e66b058cc336be3eb250a38b68fd65a864736f6c63430008120033\n}\n",
				"bytecode": {
					"linkReferences": {},
					"object": "608060405234801561001057600080fd5b506102c6806100206000396000f3fe608060405234801561001057600080fd5b50600436106100365760003560e01c8063c29855781461003b578063febb0f7e14610045575b600080fd5b61004361004f565b005b61004d61008e565b005b7fcf34ef537ac33ee1ac626ca1587a0a7e8e51561e5514f8cb36afa1c5102b3bab60405161007c90610198565b60405180910390a161008c6100cd565b565b7fcf34ef537ac33ee1ac626ca1587a0a7e8e51561e5514f8cb36afa1c5102b3bab6040516100bb90610198565b60405180910390a16100cb610104565b565b7fcf34ef537ac33ee1ac626ca1587a0a7e8e51561e5514f8cb36afa1c5102b3bab6040516100fa90610204565b60405180910390a1565b7fcf34ef537ac33ee1ac626ca1587a0a7e8e51561e5514f8cb36afa1c5102b3bab60405161013190610270565b60405180910390a1565b600082825260208201905092915050565b7f472e20666f6f0000000000000000000000000000000000000000000000000000600082015250565b600061018260068361013b565b915061018d8261014c565b602082019050919050565b600060208201905081810360008301526101b181610175565b9050919050565b7f452e20666f6f0000000000000000000000000000000000000000000000000000600082015250565b60006101ee60068361013b565b91506101f9826101b8565b602082019050919050565b6000602082019050818103600083015261021d816101e1565b9050919050565b7f452e626172000000000000000000000000000000000000000000000000000000600082015250565b600061025a60058361013b565b915061026582610224565b602082019050919050565b600060208201905081810360008301526102898161024d565b905091905056fea2646970667358221220de557b9d518b31b5b0fb617fd2785c77e66b058cc336be3eb250a38b68fd65a864736f6c63430008120033",
					"opcodes": "PUSH1 0x80 PUSH1 0x40 MSTORE CALLVALUE DUP1 ISZERO PUSH2 0x10 JUMPI PUSH1 0x0 DUP1 REVERT JUMPDEST POP PUSH2 0x2C6 DUP1 PUSH2 0x20 PUSH1 0x0 CODECOPY PUSH1 0x0 RETURN INVALID PUSH1 0x80 PUSH1 0x40 MSTORE CALLVALUE DUP1 ISZERO PUSH2 0x10 JUMPI PUSH1 0x0 DUP1 REVERT JUMPDEST POP PUSH1 0x4 CALLDATASIZE LT PUSH2 0x36 JUMPI PUSH1 0x0 CALLDATALOAD PUSH1 0xE0 SHR DUP1 PUSH4 0xC2985578 EQ PUSH2 0x3B JUMPI DUP1 PUSH4 0xFEBB0F7E EQ PUSH2 0x45 JUMPI JUMPDEST PUSH1 0x0 DUP1 REVERT JUMPDEST PUSH2 0x43 PUSH2 0x4F JUMP JUMPDEST STOP JUMPDEST PUSH2 0x4D PUSH2 0x8E JUMP JUMPDEST STOP JUMPDEST PUSH32 0xCF34EF537AC33EE1AC626CA1587A0A7E8E51561E5514F8CB36AFA1C5102B3BAB PUSH1 0x40 MLOAD PUSH2 0x7C SWAP1 PUSH2 0x198 JUMP JUMPDEST PUSH1 0x40 MLOAD DUP1 SWAP2 SUB SWAP1 LOG1 PUSH2 0x8C PUSH2 0xCD JUMP JUMPDEST JUMP JUMPDEST PUSH32 0xCF34EF537AC33EE1AC626CA1587A0A7E8E51561E5514F8CB36AFA1C5102B3BAB PUSH1 0x40 MLOAD PUSH2 0xBB SWAP1 PUSH2 0x198 JUMP JUMPDEST PUSH1 0x40 MLOAD DUP1 SWAP2 SUB SWAP1 LOG1 PUSH2 0xCB PUSH2 0x104 JUMP JUMPDEST JUMP JUMPDEST PUSH32 0xCF34EF537AC33EE1AC626CA1587A0A7E8E51561E5514F8CB36AFA1C5102B3BAB PUSH1 0x40 MLOAD PUSH2 0xFA SWAP1 PUSH2 0x204 JUMP JUMPDEST PUSH1 0x40 MLOAD DUP1 SWAP2 SUB SWAP1 LOG1 JUMP JUMPDEST PUSH32 0xCF34EF537AC33EE1AC626CA1587A0A7E8E51561E5514F8CB36AFA1C5102B3BAB PUSH1 0x40 MLOAD PUSH2 0x131 SWAP1 PUSH2 0x270 JUMP JUMPDEST PUSH1 0x40 MLOAD DUP1 SWAP2 SUB SWAP1 LOG1 JUMP JUMPDEST PUSH1 0x0 DUP3 DUP3 MSTORE PUSH1 0x20 DUP3 ADD SWAP1 POP SWAP3 SWAP2 POP POP JUMP JUMPDEST PUSH32 0x472E20666F6F0000000000000000000000000000000000000000000000000000 PUSH1 0x0 DUP3 ADD MSTORE POP JUMP JUMPDEST PUSH1 0x0 PUSH2 0x182 PUSH1 0x6 DUP4 PUSH2 0x13B JUMP JUMPDEST SWAP2 POP PUSH2 0x18D DUP3 PUSH2 0x14C JUMP JUMPDEST PUSH1 0x20 DUP3 ADD SWAP1 POP SWAP2 SWAP1 POP JUMP JUMPDEST PUSH1 0x0 PUSH1 0x20 DUP3 ADD SWAP1 POP DUP2 DUP2 SUB PUSH1 0x0 DUP4 ADD MSTORE PUSH2 0x1B1 DUP2 PUSH2 0x175 JUMP JUMPDEST SWAP1 POP SWAP2 SWAP1 POP JUMP JUMPDEST PUSH32 0x452E20666F6F0000000000000000000000000000000000000000000000000000 PUSH1 0x0 DUP3 ADD MSTORE POP JUMP JUMPDEST PUSH1 0x0 PUSH2 0x1EE PUSH1 0x6 DUP4 PUSH2 0x13B JUMP JUMPDEST SWAP2 POP PUSH2 0x1F9 DUP3 PUSH2 0x1B8 JUMP JUMPDEST PUSH1 0x20 DUP3 ADD SWAP1 POP SWAP2 SWAP1 POP JUMP JUMPDEST PUSH1 0x0 PUSH1 0x20 DUP3 ADD SWAP1 POP DUP2 DUP2 SUB PUSH1 0x0 DUP4 ADD MSTORE PUSH2 0x21D DUP2 PUSH2 0x1E1 JUMP JUMPDEST SWAP1 POP SWAP2 SWAP1 POP JUMP JUMPDEST PUSH32 0x452E626172000000000000000000000000000000000000000000000000000000 PUSH1 0x0 DUP3 ADD MSTORE POP JUMP JUMPDEST PUSH1 0x0 PUSH2 0x25A PUSH1 0x5 DUP4 PUSH2 0x13B JUMP JUMPDEST SWAP2 POP PUSH2 0x265 DUP3 PUSH2 0x224 JUMP JUMPDEST PUSH1 0x20 DUP3 ADD SWAP1 POP SWAP2 SWAP1 POP JUMP JUMPDEST PUSH1 0x0 PUSH1 0x20 DUP3 ADD SWAP1 POP DUP2 DUP2 SUB PUSH1 0x0 DUP4 ADD MSTORE PUSH2 0x289 DUP2 PUSH2 0x24D JUMP JUMPDEST SWAP1 POP SWAP2 SWAP1 POP JUMP INVALID LOG2 PUSH5 0x6970667358 0x22 SLT KECCAK256 0xDE SSTORE PUSH28 0x9D518B31B5B0FB617FD2785C77E66B058CC336BE3EB250A38B68FD65 0xA8 PUSH5 0x736F6C6343 STOP ADDMOD SLT STOP CALLER "
				},
				"gasEstimates": {
					"creation": {
						"codeDepositCost": "142000",
						"executionCost": "190",
						"totalCost": "142190"
					},
					"external": {
						"bar()": "infinite",
						"foo()": "infinite"
					}
				},
				"methodIdentifiers": {
					"bar()": "febb0f7e",
					"foo()": "c2985578"
				}
			},
			"storageLayout": {
				"storage": [],
				"types": null
			},
			"userdoc": {
				"kind": "user",
				"methods": {},
				"version": 1
			}
		}
	}
}