{
	"MostSignificantBit.sol": {
		"MostSignificantBitAssembly": {
			"abi": [
				{
					"inputs": [],
					"name": "MAX_UINT",
					"outputs": [
						{
							"internalType": "uint256",
							"name": "",
							"type": "uint256"
						}
					],
					"stateMutability": "view",
					"type": "function"
				},
				{
					"inputs": [
						{
							"internalType": "uint256",
							"name": "x",
							"type": "uint256"
						}
					],
					"name": "mostSignificantBit",
					"outputs": [
						{
							"internalType": "uint256",
							"name": "msb",
							"type": "uint256"
						}
					],
					"stateMutability": "pure",
					"type": "function"
				}
			],
			"devdoc": {
				"kind": "dev",
				"methods": {},
				"version": 1
			},
			"evm": {
				"assembly": "    /* \"MostSignificantBit.sol\":61:1356  contract MostSignificantBitAssembly {... */\n  mstore(0x40, 0x80)\n  callvalue\n  dup1\n  iszero\n  tag_1\n  jumpi\n  0x00\n  dup1\n  revert\ntag_1:\n  pop\n  dataSize(sub_0)\n  dup1\n  dataOffset(sub_0)\n  0x00\n  codecopy\n  0x00\n  return\nstop\n\nsub_0: assembly {\n        /* \"MostSignificantBit.sol\":61:1356  contract MostSignificantBitAssembly {... */\n      mstore(0x40, 0x80)\n      callvalue\n      dup1\n      iszero\n      tag_1\n      jumpi\n      0x00\n      dup1\n      revert\n    tag_1:\n      pop\n      jumpi(tag_2, lt(calldatasize, 0x04))\n      shr(0xe0, calldataload(0x00))\n      dup1\n      0xe5b5019a\n      eq\n      tag_3\n      jumpi\n      dup1\n      0xe6bcbc65\n      eq\n      tag_4\n      jumpi\n    tag_2:\n      0x00\n      dup1\n      revert\n        /* \"MostSignificantBit.sol\":104:150  uint public constant MAX_UINT = type(uint).max */\n    tag_3:\n      tag_5\n      tag_6\n      jump\t// in\n    tag_5:\n      mload(0x40)\n      tag_7\n      swap2\n      swap1\n      tag_8\n      jump\t// in\n    tag_7:\n      mload(0x40)\n      dup1\n      swap2\n      sub\n      swap1\n      return\n        /* \"MostSignificantBit.sol\":163:1353  function mostSignificantBit(uint x) external pure returns (uint msb) {... */\n    tag_4:\n      tag_9\n      0x04\n      dup1\n      calldatasize\n      sub\n      dup2\n      add\n      swap1\n      tag_10\n      swap2\n      swap1\n      tag_11\n      jump\t// in\n    tag_10:\n      tag_12\n      jump\t// in\n    tag_9:\n      mload(0x40)\n      tag_13\n      swap2\n      swap1\n      tag_8\n      jump\t// in\n    tag_13:\n      mload(0x40)\n      dup1\n      swap2\n      sub\n      swap1\n      return\n        /* \"MostSignificantBit.sol\":104:150  uint public constant MAX_UINT = type(uint).max */\n    tag_6:\n        /* \"MostSignificantBit.sol\":136:150  type(uint).max */\n      0xffffffffffffffffffffffffffffffffffffffffffffffffffffffffffffffff\n        /* \"MostSignificantBit.sol\":104:150  uint public constant MAX_UINT = type(uint).max */\n      dup2\n      jump\t// out\n        /* \"MostSignificantBit.sol\":163:1353  function mostSignificantBit(uint x) external pure returns (uint msb) {... */\n    tag_12:\n        /* \"MostSignificantBit.sol\":222:230  uint msb */\n      0x00\n        /* \"MostSignificantBit.sol\":289:323  0xFFFFFFFFFFFFFFFFFFFFFFFFFFFFFFFF */\n      0xffffffffffffffffffffffffffffffff\n        /* \"MostSignificantBit.sol\":286:287  x */\n      dup3\n        /* \"MostSignificantBit.sol\":283:324  gt(x, 0xFFFFFFFFFFFFFFFFFFFFFFFFFFFFFFFF) */\n      gt\n        /* \"MostSignificantBit.sol\":280:281  7 */\n      0x07\n        /* \"MostSignificantBit.sol\":276:325  shl(7, gt(x, 0xFFFFFFFFFFFFFFFFFFFFFFFFFFFFFFFF)) */\n      shl\n        /* \"MostSignificantBit.sol\":351:352  x */\n      dup3\n        /* \"MostSignificantBit.sol\":348:349  f */\n      dup2\n        /* \"MostSignificantBit.sol\":344:353  shr(f, x) */\n      shr\n        /* \"MostSignificantBit.sol\":339:353  x := shr(f, x) */\n      swap3\n      pop\n        /* \"MostSignificantBit.sol\":426:427  f */\n      dup1\n        /* \"MostSignificantBit.sol\":421:424  msb */\n      dup3\n        /* \"MostSignificantBit.sol\":418:428  or(msb, f) */\n      or\n        /* \"MostSignificantBit.sol\":411:428  msb := or(msb, f) */\n      swap2\n      pop\n        /* \"MostSignificantBit.sol\":252:439  {... */\n      pop\n        /* \"MostSignificantBit.sol\":495:513  0xFFFFFFFFFFFFFFFF */\n      0xffffffffffffffff\n        /* \"MostSignificantBit.sol\":492:493  x */\n      dup3\n        /* \"MostSignificantBit.sol\":489:514  gt(x, 0xFFFFFFFFFFFFFFFF) */\n      gt\n        /* \"MostSignificantBit.sol\":486:487  6 */\n      0x06\n        /* \"MostSignificantBit.sol\":482:515  shl(6, gt(x, 0xFFFFFFFFFFFFFFFF)) */\n      shl\n        /* \"MostSignificantBit.sol\":541:542  x */\n      dup3\n        /* \"MostSignificantBit.sol\":538:539  f */\n      dup2\n        /* \"MostSignificantBit.sol\":534:543  shr(f, x) */\n      shr\n        /* \"MostSignificantBit.sol\":529:543  x := shr(f, x) */\n      swap3\n      pop\n        /* \"MostSignificantBit.sol\":572:573  f */\n      dup1\n        /* \"MostSignificantBit.sol\":567:570  msb */\n      dup3\n        /* \"MostSignificantBit.sol\":564:574  or(msb, f) */\n      or\n        /* \"MostSignificantBit.sol\":557:574  msb := or(msb, f) */\n      swap2\n      pop\n        /* \"MostSignificantBit.sol\":458:585  {... */\n      pop\n        /* \"MostSignificantBit.sol\":641:651  0xFFFFFFFF */\n      0xffffffff\n        /* \"MostSignificantBit.sol\":638:639  x */\n      dup3\n        /* \"MostSignificantBit.sol\":635:652  gt(x, 0xFFFFFFFF) */\n      gt\n        /* \"MostSignificantBit.sol\":632:633  5 */\n      0x05\n        /* \"MostSignificantBit.sol\":628:653  shl(5, gt(x, 0xFFFFFFFF)) */\n      shl\n        /* \"MostSignificantBit.sol\":679:680  x */\n      dup3\n        /* \"MostSignificantBit.sol\":676:677  f */\n      dup2\n        /* \"MostSignificantBit.sol\":672:681  shr(f, x) */\n      shr\n        /* \"MostSignificantBit.sol\":667:681  x := shr(f, x) */\n      swap3\n      pop\n        /* \"MostSignificantBit.sol\":710:711  f */\n      dup1\n        /* \"MostSignificantBit.sol\":705:708  msb */\n      dup3\n        /* \"MostSignificantBit.sol\":702:712  or(msb, f) */\n      or\n        /* \"MostSignificantBit.sol\":695:712  msb := or(msb, f) */\n      swap2\n      pop\n        /* \"MostSignificantBit.sol\":604:723  {... */\n      pop\n        /* \"MostSignificantBit.sol\":779:785  0xFFFF */\n      0xffff\n        /* \"MostSignificantBit.sol\":776:777  x */\n      dup3\n        /* \"MostSignificantBit.sol\":773:786  gt(x, 0xFFFF) */\n      gt\n        /* \"MostSignificantBit.sol\":770:771  4 */\n      0x04\n        /* \"MostSignificantBit.sol\":766:787  shl(4, gt(x, 0xFFFF)) */\n      shl\n        /* \"MostSignificantBit.sol\":813:814  x */\n      dup3\n        /* \"MostSignificantBit.sol\":810:811  f */\n      dup2\n        /* \"MostSignificantBit.sol\":806:815  shr(f, x) */\n      shr\n        /* \"MostSignificantBit.sol\":801:815  x := shr(f, x) */\n      swap3\n      pop\n        /* \"MostSignificantBit.sol\":844:845  f */\n      dup1\n        /* \"MostSignificantBit.sol\":839:842  msb */\n      dup3\n        /* \"MostSignificantBit.sol\":836:846  or(msb, f) */\n      or\n        /* \"MostSignificantBit.sol\":829:846  msb := or(msb, f) */\n      swap2\n      pop\n        /* \"MostSignificantBit.sol\":742:857  {... */\n      pop\n        /* \"MostSignificantBit.sol\":913:917  0xFF */\n      0xff\n        /* \"MostSignificantBit.sol\":910:911  x */\n      dup3\n        /* \"MostSignificantBit.sol\":907:918  gt(x, 0xFF) */\n      gt\n        /* \"MostSignificantBit.sol\":904:905  3 */\n      0x03\n        /* \"MostSignificantBit.sol\":900:919  shl(3, gt(x, 0xFF)) */\n      shl\n        /* \"MostSignificantBit.sol\":945:946  x */\n      dup3\n        /* \"MostSignificantBit.sol\":942:943  f */\n      dup2\n        /* \"MostSignificantBit.sol\":938:947  shr(f, x) */\n      shr\n        /* \"MostSignificantBit.sol\":933:947  x := shr(f, x) */\n      swap3\n      pop\n        /* \"MostSignificantBit.sol\":976:977  f */\n      dup1\n        /* \"MostSignificantBit.sol\":971:974  msb */\n      dup3\n        /* \"MostSignificantBit.sol\":968:978  or(msb, f) */\n      or\n        /* \"MostSignificantBit.sol\":961:978  msb := or(msb, f) */\n      swap2\n      pop\n        /* \"MostSignificantBit.sol\":876:989  {... */\n      pop\n        /* \"MostSignificantBit.sol\":1045:1048  0xF */\n      0x0f\n        /* \"MostSignificantBit.sol\":1042:1043  x */\n      dup3\n        /* \"MostSignificantBit.sol\":1039:1049  gt(x, 0xF) */\n      gt\n        /* \"MostSignificantBit.sol\":1036:1037  2 */\n      0x02\n        /* \"MostSignificantBit.sol\":1032:1050  shl(2, gt(x, 0xF)) */\n      shl\n        /* \"MostSignificantBit.sol\":1076:1077  x */\n      dup3\n        /* \"MostSignificantBit.sol\":1073:1074  f */\n      dup2\n        /* \"MostSignificantBit.sol\":1069:1078  shr(f, x) */\n      shr\n        /* \"MostSignificantBit.sol\":1064:1078  x := shr(f, x) */\n      swap3\n      pop\n        /* \"MostSignificantBit.sol\":1107:1108  f */\n      dup1\n        /* \"MostSignificantBit.sol\":1102:1105  msb */\n      dup3\n        /* \"MostSignificantBit.sol\":1099:1109  or(msb, f) */\n      or\n        /* \"MostSignificantBit.sol\":1092:1109  msb := or(msb, f) */\n      swap2\n      pop\n        /* \"MostSignificantBit.sol\":1008:1120  {... */\n      pop\n        /* \"MostSignificantBit.sol\":1176:1179  0x3 */\n      0x03\n        /* \"MostSignificantBit.sol\":1173:1174  x */\n      dup3\n        /* \"MostSignificantBit.sol\":1170:1180  gt(x, 0x3) */\n      gt\n        /* \"MostSignificantBit.sol\":1167:1168  1 */\n      0x01\n        /* \"MostSignificantBit.sol\":1163:1181  shl(1, gt(x, 0x3)) */\n      shl\n        /* \"MostSignificantBit.sol\":1207:1208  x */\n      dup3\n        /* \"MostSignificantBit.sol\":1204:1205  f */\n      dup2\n        /* \"MostSignificantBit.sol\":1200:1209  shr(f, x) */\n      shr\n        /* \"MostSignificantBit.sol\":1195:1209  x := shr(f, x) */\n      swap3\n      pop\n        /* \"MostSignificantBit.sol\":1238:1239  f */\n      dup1\n        /* \"MostSignificantBit.sol\":1233:1236  msb */\n      dup3\n        /* \"MostSignificantBit.sol\":1230:1240  or(msb, f) */\n      or\n        /* \"MostSignificantBit.sol\":1223:1240  msb := or(msb, f) */\n      swap2\n      pop\n        /* \"MostSignificantBit.sol\":1139:1251  {... */\n      pop\n        /* \"MostSignificantBit.sol\":1300:1303  0x1 */\n      0x01\n        /* \"MostSignificantBit.sol\":1297:1298  x */\n      dup3\n        /* \"MostSignificantBit.sol\":1294:1304  gt(x, 0x1) */\n      gt\n        /* \"MostSignificantBit.sol\":1333:1334  f */\n      dup1\n        /* \"MostSignificantBit.sol\":1328:1331  msb */\n      dup3\n        /* \"MostSignificantBit.sol\":1325:1335  or(msb, f) */\n      or\n        /* \"MostSignificantBit.sol\":1318:1335  msb := or(msb, f) */\n      swap2\n      pop\n        /* \"MostSignificantBit.sol\":1270:1346  {... */\n      pop\n        /* \"MostSignificantBit.sol\":163:1353  function mostSignificantBit(uint x) external pure returns (uint msb) {... */\n      swap2\n      swap1\n      pop\n      jump\t// out\n        /* \"#utility.yul\":7:84   */\n    tag_15:\n        /* \"#utility.yul\":44:51   */\n      0x00\n        /* \"#utility.yul\":73:78   */\n      dup2\n        /* \"#utility.yul\":62:78   */\n      swap1\n      pop\n        /* \"#utility.yul\":7:84   */\n      swap2\n      swap1\n      pop\n      jump\t// out\n        /* \"#utility.yul\":90:208   */\n    tag_16:\n        /* \"#utility.yul\":177:201   */\n      tag_25\n        /* \"#utility.yul\":195:200   */\n      dup2\n        /* \"#utility.yul\":177:201   */\n      tag_15\n      jump\t// in\n    tag_25:\n        /* \"#utility.yul\":172:175   */\n      dup3\n        /* \"#utility.yul\":165:202   */\n      mstore\n        /* \"#utility.yul\":90:208   */\n      pop\n      pop\n      jump\t// out\n        /* \"#utility.yul\":214:436   */\n    tag_8:\n        /* \"#utility.yul\":307:311   */\n      0x00\n        /* \"#utility.yul\":345:347   */\n      0x20\n        /* \"#utility.yul\":334:343   */\n      dup3\n        /* \"#utility.yul\":330:348   */\n      add\n        /* \"#utility.yul\":322:348   */\n      swap1\n      pop\n        /* \"#utility.yul\":358:429   */\n      tag_27\n        /* \"#utility.yul\":426:427   */\n      0x00\n        /* \"#utility.yul\":415:424   */\n      dup4\n        /* \"#utility.yul\":411:428   */\n      add\n        /* \"#utility.yul\":402:408   */\n      dup5\n        /* \"#utility.yul\":358:429   */\n      tag_16\n      jump\t// in\n    tag_27:\n        /* \"#utility.yul\":214:436   */\n      swap3\n      swap2\n      pop\n      pop\n      jump\t// out\n        /* \"#utility.yul\":523:640   */\n    tag_18:\n        /* \"#utility.yul\":632:633   */\n      0x00\n        /* \"#utility.yul\":629:630   */\n      dup1\n        /* \"#utility.yul\":622:634   */\n      revert\n        /* \"#utility.yul\":769:891   */\n    tag_20:\n        /* \"#utility.yul\":842:866   */\n      tag_32\n        /* \"#utility.yul\":860:865   */\n      dup2\n        /* \"#utility.yul\":842:866   */\n      tag_15\n      jump\t// in\n    tag_32:\n        /* \"#utility.yul\":835:840   */\n      dup2\n        /* \"#utility.yul\":832:867   */\n      eq\n        /* \"#utility.yul\":822:885   */\n      tag_33\n      jumpi\n        /* \"#utility.yul\":881:882   */\n      0x00\n        /* \"#utility.yul\":878:879   */\n      dup1\n        /* \"#utility.yul\":871:883   */\n      revert\n        /* \"#utility.yul\":822:885   */\n    tag_33:\n        /* \"#utility.yul\":769:891   */\n      pop\n      jump\t// out\n        /* \"#utility.yul\":897:1036   */\n    tag_21:\n        /* \"#utility.yul\":943:948   */\n      0x00\n        /* \"#utility.yul\":981:987   */\n      dup2\n        /* \"#utility.yul\":968:988   */\n      calldataload\n        /* \"#utility.yul\":959:988   */\n      swap1\n      pop\n        /* \"#utility.yul\":997:1030   */\n      tag_35\n        /* \"#utility.yul\":1024:1029   */\n      dup2\n        /* \"#utility.yul\":997:1030   */\n      tag_20\n      jump\t// in\n    tag_35:\n        /* \"#utility.yul\":897:1036   */\n      swap3\n      swap2\n      pop\n      pop\n      jump\t// out\n        /* \"#utility.yul\":1042:1371   */\n    tag_11:\n        /* \"#utility.yul\":1101:1107   */\n      0x00\n        /* \"#utility.yul\":1150:1152   */\n      0x20\n        /* \"#utility.yul\":1138:1147   */\n      dup3\n        /* \"#utility.yul\":1129:1136   */\n      dup5\n        /* \"#utility.yul\":1125:1148   */\n      sub\n        /* \"#utility.yul\":1121:1153   */\n      slt\n        /* \"#utility.yul\":1118:1237   */\n      iszero\n      tag_37\n      jumpi\n        /* \"#utility.yul\":1156:1235   */\n      tag_38\n      tag_18\n      jump\t// in\n    tag_38:\n        /* \"#utility.yul\":1118:1237   */\n    tag_37:\n        /* \"#utility.yul\":1276:1277   */\n      0x00\n        /* \"#utility.yul\":1301:1354   */\n      tag_39\n        /* \"#utility.yul\":1346:1353   */\n      dup5\n        /* \"#utility.yul\":1337:1343   */\n      dup3\n        /* \"#utility.yul\":1326:1335   */\n      dup6\n        /* \"#utility.yul\":1322:1344   */\n      add\n        /* \"#utility.yul\":1301:1354   */\n      tag_21\n      jump\t// in\n    tag_39:\n        /* \"#utility.yul\":1291:1354   */\n      swap2\n      pop\n        /* \"#utility.yul\":1247:1364   */\n      pop\n        /* \"#utility.yul\":1042:1371   */\n      swap3\n      swap2\n      pop\n      pop\n      jump\t// out\n\n    auxdata: 0xa2646970667358221220279dcd58f859c96af91079588fb60ab1297d342d2c93d7ceed0817a46911826164736f6c63430008120033\n}\n",
				"bytecode": {
					"linkReferences": {},
					"object": "608060405234801561001057600080fd5b5061021e806100206000396000f3fe608060405234801561001057600080fd5b50600436106100365760003560e01c8063e5b5019a1461003b578063e6bcbc6514610059575b600080fd5b610043610089565b604051610050919061016f565b60405180910390f35b610073600480360381019061006e91906101bb565b6100ad565b604051610080919061016f565b60405180910390f35b7fffffffffffffffffffffffffffffffffffffffffffffffffffffffffffffffff81565b60006fffffffffffffffffffffffffffffffff821160071b82811c925080821791505067ffffffffffffffff821160061b82811c925080821791505063ffffffff821160051b82811c925080821791505061ffff821160041b82811c925080821791505060ff821160031b82811c9250808217915050600f821160021b82811c92508082179150506003821160011b82811c925080821791505060018211808217915050919050565b6000819050919050565b61016981610156565b82525050565b60006020820190506101846000830184610160565b92915050565b600080fd5b61019881610156565b81146101a357600080fd5b50565b6000813590506101b58161018f565b92915050565b6000602082840312156101d1576101d061018a565b5b60006101df848285016101a6565b9150509291505056fea2646970667358221220279dcd58f859c96af91079588fb60ab1297d342d2c93d7ceed0817a46911826164736f6c63430008120033",
					"opcodes": "PUSH1 0x80 PUSH1 0x40 MSTORE CALLVALUE DUP1 ISZERO PUSH2 0x10 JUMPI PUSH1 0x0 DUP1 REVERT JUMPDEST POP PUSH2 0x21E DUP1 PUSH2 0x20 PUSH1 0x0 CODECOPY PUSH1 0x0 RETURN INVALID PUSH1 0x80 PUSH1 0x40 MSTORE CALLVALUE DUP1 ISZERO PUSH2 0x10 JUMPI PUSH1 0x0 DUP1 REVERT JUMPDEST POP PUSH1 0x4 CALLDATASIZE LT PUSH2 0x36 JUMPI PUSH1 0x0 CALLDATALOAD PUSH1 0xE0 SHR DUP1 PUSH4 0xE5B5019A EQ PUSH2 0x3B JUMPI DUP1 PUSH4 0xE6BCBC65 EQ PUSH2 0x59 JUMPI JUMPDEST PUSH1 0x0 DUP1 REVERT JUMPDEST PUSH2 0x43 PUSH2 0x89 JUMP JUMPDEST PUSH1 0x40 MLOAD PUSH2 0x50 SWAP2 SWAP1 PUSH2 0x16F JUMP JUMPDEST PUSH1 0x40 MLOAD DUP1 SWAP2 SUB SWAP1 RETURN JUMPDEST PUSH2 0x73 PUSH1 0x4 DUP1 CALLDATASIZE SUB DUP2 ADD SWAP1 PUSH2 0x6E SWAP2 SWAP1 PUSH2 0x1BB JUMP JUMPDEST PUSH2 0xAD JUMP JUMPDEST PUSH1 0x40 MLOAD PUSH2 0x80 SWAP2 SWAP1 PUSH2 0x16F JUMP JUMPDEST PUSH1 0x40 MLOAD DUP1 SWAP2 SUB SWAP1 RETURN JUMPDEST PUSH32 0xFFFFFFFFFFFFFFFFFFFFFFFFFFFFFFFFFFFFFFFFFFFFFFFFFFFFFFFFFFFFFFFF DUP2 JUMP JUMPDEST PUSH1 0x0 PUSH16 0xFFFFFFFFFFFFFFFFFFFFFFFFFFFFFFFF DUP3 GT PUSH1 0x7 SHL DUP3 DUP2 SHR SWAP3 POP DUP1 DUP3 OR SWAP2 POP POP PUSH8 0xFFFFFFFFFFFFFFFF DUP3 GT PUSH1 0x6 SHL DUP3 DUP2 SHR SWAP3 POP DUP1 DUP3 OR SWAP2 POP POP PUSH4 0xFFFFFFFF DUP3 GT PUSH1 0x5 SHL DUP3 DUP2 SHR SWAP3 POP DUP1 DUP3 OR SWAP2 POP POP PUSH2 0xFFFF DUP3 GT PUSH1 0x4 SHL DUP3 DUP2 SHR SWAP3 POP DUP1 DUP3 OR SWAP2 POP POP PUSH1 0xFF DUP3 GT PUSH1 0x3 SHL DUP3 DUP2 SHR SWAP3 POP DUP1 DUP3 OR SWAP2 POP POP PUSH1 0xF DUP3 GT PUSH1 0x2 SHL DUP3 DUP2 SHR SWAP3 POP DUP1 DUP3 OR SWAP2 POP POP PUSH1 0x3 DUP3 GT PUSH1 0x1 SHL DUP3 DUP2 SHR SWAP3 POP DUP1 DUP3 OR SWAP2 POP POP PUSH1 0x1 DUP3 GT DUP1 DUP3 OR SWAP2 POP POP SWAP2 SWAP1 POP JUMP JUMPDEST PUSH1 0x0 DUP2 SWAP1 POP SWAP2 SWAP1 POP JUMP JUMPDEST PUSH2 0x169 DUP2 PUSH2 0x156 JUMP JUMPDEST DUP3 MSTORE POP POP JUMP JUMPDEST PUSH1 0x0 PUSH1 0x20 DUP3 ADD SWAP1 POP PUSH2 0x184 PUSH1 0x0 DUP4 ADD DUP5 PUSH2 0x160 JUMP JUMPDEST SWAP3 SWAP2 POP POP JUMP JUMPDEST PUSH1 0x0 DUP1 REVERT JUMPDEST PUSH2 0x198 DUP2 PUSH2 0x156 JUMP JUMPDEST DUP2 EQ PUSH2 0x1A3 JUMPI PUSH1 0x0 DUP1 REVERT JUMPDEST POP JUMP JUMPDEST PUSH1 0x0 DUP2 CALLDATALOAD SWAP1 POP PUSH2 0x1B5 DUP2 PUSH2 0x18F JUMP JUMPDEST SWAP3 SWAP2 POP POP JUMP JUMPDEST PUSH1 0x0 PUSH1 0x20 DUP3 DUP5 SUB SLT ISZERO PUSH2 0x1D1 JUMPI PUSH2 0x1D0 PUSH2 0x18A JUMP JUMPDEST JUMPDEST PUSH1 0x0 PUSH2 0x1DF DUP5 DUP3 DUP6 ADD PUSH2 0x1A6 JUMP JUMPDEST SWAP2 POP POP SWAP3 SWAP2 POP POP JUMP INVALID LOG2 PUSH5 0x6970667358 0x22 SLT KECCAK256 0x27 SWAP14 0xCD PC 0xF8 MSIZE 0xC9 PUSH11 0xF91079588FB60AB1297D34 0x2D 0x2C SWAP4 0xD7 0xCE 0xED ADDMOD OR LOG4 PUSH10 0x11826164736F6C634300 ADDMOD SLT STOP CALLER "
				},
				"gasEstimates": {
					"creation": {
						"codeDepositCost": "108400",
						"executionCost": "153",
						"totalCost": "108553"
					},
					"external": {
						"MAX_UINT()": "307",
						"mostSignificantBit(uint256)": "infinite"
					}
				},
				"methodIdentifiers": {
					"MAX_UINT()": "e5b5019a",
					"mostSignificantBit(uint256)": "e6bcbc65"
				}
			},
			"storageLayout": {
				"storage": [],
				"types": null
			},
			"userdoc": {
				"kind": "user",
				"methods": {},
				"version": 1
			}
		}
	}
}