{
	"MultiCall.sol": {
		"MultiCall": {
			"abi": [
				{
					"inputs": [
						{
							"internalType": "address[]",
							"name": "targets",
							"type": "address[]"
						},
						{
							"internalType": "bytes[]",
							"name": "data",
							"type": "bytes[]"
						}
					],
					"name": "multicall",
					"outputs": [
						{
							"internalType": "bytes[]",
							"name": "",
							"type": "bytes[]"
						}
					],
					"stateMutability": "nonpayable",
					"type": "function"
				}
			],
			"devdoc": {
				"kind": "dev",
				"methods": {},
				"version": 1
			},
			"evm": {
				"assembly": "    /* \"MultiCall.sol\":651:1185  contract MultiCall {... */\n  mstore(0x40, 0x80)\n  callvalue\n  dup1\n  iszero\n  tag_1\n  jumpi\n  0x00\n  dup1\n  revert\ntag_1:\n  pop\n  dataSize(sub_0)\n  dup1\n  dataOffset(sub_0)\n  0x00\n  codecopy\n  0x00\n  return\nstop\n\nsub_0: assembly {\n        /* \"MultiCall.sol\":651:1185  contract MultiCall {... */\n      mstore(0x40, 0x80)\n      callvalue\n      dup1\n      iszero\n      tag_1\n      jumpi\n      0x00\n      dup1\n      revert\n    tag_1:\n      pop\n      jumpi(tag_2, lt(calldatasize, 0x04))\n      shr(0xe0, calldataload(0x00))\n      dup1\n      0x63fb0b96\n      eq\n      tag_3\n      jumpi\n    tag_2:\n      0x00\n      dup1\n      revert\n        /* \"MultiCall.sol\":677:1182  function multicall(address[] calldata targets , bytes[] calldata data) external returns (bytes[] memory) {... */\n    tag_3:\n      tag_4\n      0x04\n      dup1\n      calldatasize\n      sub\n      dup2\n      add\n      swap1\n      tag_5\n      swap2\n      swap1\n      tag_6\n      jump\t// in\n    tag_5:\n      tag_7\n      jump\t// in\n    tag_4:\n      mload(0x40)\n      tag_8\n      swap2\n      swap1\n      tag_9\n      jump\t// in\n    tag_8:\n      mload(0x40)\n      dup1\n      swap2\n      sub\n      swap1\n      return\n    tag_7:\n        /* \"MultiCall.sol\":766:780  bytes[] memory */\n      0x60\n        /* \"MultiCall.sol\":819:823  data */\n      dup3\n      dup3\n        /* \"MultiCall.sol\":819:830  data.length */\n      swap1\n      pop\n        /* \"MultiCall.sol\":801:808  targets */\n      dup6\n      dup6\n        /* \"MultiCall.sol\":801:815  targets.length */\n      swap1\n      pop\n        /* \"MultiCall.sol\":801:830  targets.length == data.length */\n      eq\n        /* \"MultiCall.sol\":793:864  require(targets.length == data.length ,\"targets length != data length\") */\n      tag_11\n      jumpi\n      mload(0x40)\n      0x08c379a000000000000000000000000000000000000000000000000000000000\n      dup2\n      mstore\n      0x04\n      add\n      tag_12\n      swap1\n      tag_13\n      jump\t// in\n    tag_12:\n      mload(0x40)\n      dup1\n      swap2\n      sub\n      swap1\n      revert\n    tag_11:\n        /* \"MultiCall.sol\":875:897  bytes[] memory results */\n      0x00\n        /* \"MultiCall.sol\":912:916  data */\n      dup4\n      dup4\n        /* \"MultiCall.sol\":912:923  data.length */\n      swap1\n      pop\n        /* \"MultiCall.sol\":900:924  new bytes[](data.length) */\n      0xffffffffffffffff\n      dup2\n      gt\n      iszero\n      tag_14\n      jumpi\n      tag_15\n      tag_16\n      jump\t// in\n    tag_15:\n    tag_14:\n      mload(0x40)\n      swap1\n      dup1\n      dup3\n      mstore\n      dup1\n      0x20\n      mul\n      0x20\n      add\n      dup3\n      add\n      0x40\n      mstore\n      dup1\n      iszero\n      tag_17\n      jumpi\n      dup2\n      0x20\n      add\n    tag_18:\n      0x60\n      dup2\n      mstore\n      0x20\n      add\n      swap1\n      0x01\n      swap1\n      sub\n      swap1\n      dup2\n      tag_18\n      jumpi\n      swap1\n      pop\n    tag_17:\n      pop\n        /* \"MultiCall.sol\":875:924  bytes[] memory results = new bytes[](data.length) */\n      swap1\n      pop\n        /* \"MultiCall.sol\":941:947  uint i */\n      0x00\n        /* \"MultiCall.sol\":937:1145  for(uint i ; i < targets.length; i++) {... */\n    tag_19:\n        /* \"MultiCall.sol\":954:961  targets */\n      dup7\n      dup7\n        /* \"MultiCall.sol\":954:968  targets.length */\n      swap1\n      pop\n        /* \"MultiCall.sol\":950:951  i */\n      dup2\n        /* \"MultiCall.sol\":950:968  i < targets.length */\n      lt\n        /* \"MultiCall.sol\":937:1145  for(uint i ; i < targets.length; i++) {... */\n      iszero\n      tag_20\n      jumpi\n        /* \"MultiCall.sol\":991:1003  bool success */\n      0x00\n        /* \"MultiCall.sol\":1005:1024  bytes memory result */\n      dup1\n        /* \"MultiCall.sol\":1028:1035  targets */\n      dup9\n      dup9\n        /* \"MultiCall.sol\":1036:1037  i */\n      dup5\n        /* \"MultiCall.sol\":1028:1038  targets[i] */\n      dup2\n      dup2\n      lt\n      tag_22\n      jumpi\n      tag_23\n      tag_24\n      jump\t// in\n    tag_23:\n    tag_22:\n      swap1\n      pop\n      0x20\n      mul\n      add\n      0x20\n      dup2\n      add\n      swap1\n      tag_25\n      swap2\n      swap1\n      tag_26\n      jump\t// in\n    tag_25:\n        /* \"MultiCall.sol\":1028:1043  targets[i].call */\n      0xffffffffffffffffffffffffffffffffffffffff\n      and\n        /* \"MultiCall.sol\":1044:1048  data */\n      dup8\n      dup8\n        /* \"MultiCall.sol\":1049:1050  i */\n      dup6\n        /* \"MultiCall.sol\":1044:1051  data[i] */\n      dup2\n      dup2\n      lt\n      tag_27\n      jumpi\n      tag_28\n      tag_24\n      jump\t// in\n    tag_28:\n    tag_27:\n      swap1\n      pop\n      0x20\n      mul\n      dup2\n      add\n      swap1\n      tag_29\n      swap2\n      swap1\n      tag_30\n      jump\t// in\n    tag_29:\n        /* \"MultiCall.sol\":1028:1052  targets[i].call(data[i]) */\n      mload(0x40)\n      tag_31\n      swap3\n      swap2\n      swap1\n      tag_32\n      jump\t// in\n    tag_31:\n      0x00\n      mload(0x40)\n      dup1\n      dup4\n      sub\n      dup2\n      0x00\n      dup7\n      gas\n      call\n      swap2\n      pop\n      pop\n      returndatasize\n      dup1\n      0x00\n      dup2\n      eq\n      tag_35\n      jumpi\n      mload(0x40)\n      swap2\n      pop\n      and(add(returndatasize, 0x3f), not(0x1f))\n      dup3\n      add\n      0x40\n      mstore\n      returndatasize\n      dup3\n      mstore\n      returndatasize\n      0x00\n      0x20\n      dup5\n      add\n      returndatacopy\n      jump(tag_34)\n    tag_35:\n      0x60\n      swap2\n      pop\n    tag_34:\n      pop\n        /* \"MultiCall.sol\":990:1052  (bool success ,bytes memory result) = targets[i].call(data[i]) */\n      swap2\n      pop\n      swap2\n      pop\n        /* \"MultiCall.sol\":1075:1082  success */\n      dup2\n        /* \"MultiCall.sol\":1067:1099  require(success , \"call failed\") */\n      tag_36\n      jumpi\n      mload(0x40)\n      0x08c379a000000000000000000000000000000000000000000000000000000000\n      dup2\n      mstore\n      0x04\n      add\n      tag_37\n      swap1\n      tag_38\n      jump\t// in\n    tag_37:\n      mload(0x40)\n      dup1\n      swap2\n      sub\n      swap1\n      revert\n    tag_36:\n        /* \"MultiCall.sol\":1127:1133  result */\n      dup1\n        /* \"MultiCall.sol\":1114:1121  results */\n      dup5\n        /* \"MultiCall.sol\":1122:1123  i */\n      dup5\n        /* \"MultiCall.sol\":1114:1124  results[i] */\n      dup2\n      mload\n      dup2\n      lt\n      tag_39\n      jumpi\n      tag_40\n      tag_24\n      jump\t// in\n    tag_40:\n    tag_39:\n      0x20\n      mul\n      0x20\n      add\n      add\n        /* \"MultiCall.sol\":1114:1133  results[i] = result */\n      dup2\n      swap1\n      mstore\n      pop\n        /* \"MultiCall.sol\":975:1145  {... */\n      pop\n      pop\n        /* \"MultiCall.sol\":970:973  i++ */\n      dup1\n      dup1\n      tag_41\n      swap1\n      tag_42\n      jump\t// in\n    tag_41:\n      swap2\n      pop\n      pop\n        /* \"MultiCall.sol\":937:1145  for(uint i ; i < targets.length; i++) {... */\n      jump(tag_19)\n    tag_20:\n      pop\n        /* \"MultiCall.sol\":1167:1174  results */\n      dup1\n        /* \"MultiCall.sol\":1160:1174  return results */\n      swap2\n      pop\n      pop\n        /* \"MultiCall.sol\":677:1182  function multicall(address[] calldata targets , bytes[] calldata data) external returns (bytes[] memory) {... */\n      swap5\n      swap4\n      pop\n      pop\n      pop\n      pop\n      jump\t// out\n        /* \"#utility.yul\":88:205   */\n    tag_44:\n        /* \"#utility.yul\":197:198   */\n      0x00\n        /* \"#utility.yul\":194:195   */\n      dup1\n        /* \"#utility.yul\":187:199   */\n      revert\n        /* \"#utility.yul\":211:328   */\n    tag_45:\n        /* \"#utility.yul\":320:321   */\n      0x00\n        /* \"#utility.yul\":317:318   */\n      dup1\n        /* \"#utility.yul\":310:322   */\n      revert\n        /* \"#utility.yul\":334:451   */\n    tag_46:\n        /* \"#utility.yul\":443:444   */\n      0x00\n        /* \"#utility.yul\":440:441   */\n      dup1\n        /* \"#utility.yul\":433:445   */\n      revert\n        /* \"#utility.yul\":457:574   */\n    tag_47:\n        /* \"#utility.yul\":566:567   */\n      0x00\n        /* \"#utility.yul\":563:564   */\n      dup1\n        /* \"#utility.yul\":556:568   */\n      revert\n        /* \"#utility.yul\":580:697   */\n    tag_48:\n        /* \"#utility.yul\":689:690   */\n      0x00\n        /* \"#utility.yul\":686:687   */\n      dup1\n        /* \"#utility.yul\":679:691   */\n      revert\n        /* \"#utility.yul\":720:1288   */\n    tag_49:\n        /* \"#utility.yul\":793:801   */\n      0x00\n        /* \"#utility.yul\":803:809   */\n      dup1\n        /* \"#utility.yul\":853:856   */\n      dup4\n        /* \"#utility.yul\":846:850   */\n      0x1f\n        /* \"#utility.yul\":838:844   */\n      dup5\n        /* \"#utility.yul\":834:851   */\n      add\n        /* \"#utility.yul\":830:857   */\n      slt\n        /* \"#utility.yul\":820:942   */\n      tag_87\n      jumpi\n        /* \"#utility.yul\":861:940   */\n      tag_88\n      tag_46\n      jump\t// in\n    tag_88:\n        /* \"#utility.yul\":820:942   */\n    tag_87:\n        /* \"#utility.yul\":974:980   */\n      dup3\n        /* \"#utility.yul\":961:981   */\n      calldataload\n        /* \"#utility.yul\":951:981   */\n      swap1\n      pop\n        /* \"#utility.yul\":1004:1022   */\n      0xffffffffffffffff\n        /* \"#utility.yul\":996:1002   */\n      dup2\n        /* \"#utility.yul\":993:1023   */\n      gt\n        /* \"#utility.yul\":990:1107   */\n      iszero\n      tag_89\n      jumpi\n        /* \"#utility.yul\":1026:1105   */\n      tag_90\n      tag_47\n      jump\t// in\n    tag_90:\n        /* \"#utility.yul\":990:1107   */\n    tag_89:\n        /* \"#utility.yul\":1140:1144   */\n      0x20\n        /* \"#utility.yul\":1132:1138   */\n      dup4\n        /* \"#utility.yul\":1128:1145   */\n      add\n        /* \"#utility.yul\":1116:1145   */\n      swap2\n      pop\n        /* \"#utility.yul\":1194:1197   */\n      dup4\n        /* \"#utility.yul\":1186:1190   */\n      0x20\n        /* \"#utility.yul\":1178:1184   */\n      dup3\n        /* \"#utility.yul\":1174:1191   */\n      mul\n        /* \"#utility.yul\":1164:1172   */\n      dup4\n        /* \"#utility.yul\":1160:1192   */\n      add\n        /* \"#utility.yul\":1157:1198   */\n      gt\n        /* \"#utility.yul\":1154:1282   */\n      iszero\n      tag_91\n      jumpi\n        /* \"#utility.yul\":1201:1280   */\n      tag_92\n      tag_48\n      jump\t// in\n    tag_92:\n        /* \"#utility.yul\":1154:1282   */\n    tag_91:\n        /* \"#utility.yul\":720:1288   */\n      swap3\n      pop\n      swap3\n      swap1\n      pop\n      jump\t// out\n        /* \"#utility.yul\":1309:1888   */\n    tag_50:\n        /* \"#utility.yul\":1393:1401   */\n      0x00\n        /* \"#utility.yul\":1403:1409   */\n      dup1\n        /* \"#utility.yul\":1453:1456   */\n      dup4\n        /* \"#utility.yul\":1446:1450   */\n      0x1f\n        /* \"#utility.yul\":1438:1444   */\n      dup5\n        /* \"#utility.yul\":1434:1451   */\n      add\n        /* \"#utility.yul\":1430:1457   */\n      slt\n        /* \"#utility.yul\":1420:1542   */\n      tag_94\n      jumpi\n        /* \"#utility.yul\":1461:1540   */\n      tag_95\n      tag_46\n      jump\t// in\n    tag_95:\n        /* \"#utility.yul\":1420:1542   */\n    tag_94:\n        /* \"#utility.yul\":1574:1580   */\n      dup3\n        /* \"#utility.yul\":1561:1581   */\n      calldataload\n        /* \"#utility.yul\":1551:1581   */\n      swap1\n      pop\n        /* \"#utility.yul\":1604:1622   */\n      0xffffffffffffffff\n        /* \"#utility.yul\":1596:1602   */\n      dup2\n        /* \"#utility.yul\":1593:1623   */\n      gt\n        /* \"#utility.yul\":1590:1707   */\n      iszero\n      tag_96\n      jumpi\n        /* \"#utility.yul\":1626:1705   */\n      tag_97\n      tag_47\n      jump\t// in\n    tag_97:\n        /* \"#utility.yul\":1590:1707   */\n    tag_96:\n        /* \"#utility.yul\":1740:1744   */\n      0x20\n        /* \"#utility.yul\":1732:1738   */\n      dup4\n        /* \"#utility.yul\":1728:1745   */\n      add\n        /* \"#utility.yul\":1716:1745   */\n      swap2\n      pop\n        /* \"#utility.yul\":1794:1797   */\n      dup4\n        /* \"#utility.yul\":1786:1790   */\n      0x20\n        /* \"#utility.yul\":1778:1784   */\n      dup3\n        /* \"#utility.yul\":1774:1791   */\n      mul\n        /* \"#utility.yul\":1764:1772   */\n      dup4\n        /* \"#utility.yul\":1760:1792   */\n      add\n        /* \"#utility.yul\":1757:1798   */\n      gt\n        /* \"#utility.yul\":1754:1882   */\n      iszero\n      tag_98\n      jumpi\n        /* \"#utility.yul\":1801:1880   */\n      tag_99\n      tag_48\n      jump\t// in\n    tag_99:\n        /* \"#utility.yul\":1754:1882   */\n    tag_98:\n        /* \"#utility.yul\":1309:1888   */\n      swap3\n      pop\n      swap3\n      swap1\n      pop\n      jump\t// out\n        /* \"#utility.yul\":1894:2850   */\n    tag_6:\n        /* \"#utility.yul\":2027:2033   */\n      0x00\n        /* \"#utility.yul\":2035:2041   */\n      dup1\n        /* \"#utility.yul\":2043:2049   */\n      0x00\n        /* \"#utility.yul\":2051:2057   */\n      dup1\n        /* \"#utility.yul\":2100:2102   */\n      0x40\n        /* \"#utility.yul\":2088:2097   */\n      dup6\n        /* \"#utility.yul\":2079:2086   */\n      dup8\n        /* \"#utility.yul\":2075:2098   */\n      sub\n        /* \"#utility.yul\":2071:2103   */\n      slt\n        /* \"#utility.yul\":2068:2187   */\n      iszero\n      tag_101\n      jumpi\n        /* \"#utility.yul\":2106:2185   */\n      tag_102\n      tag_44\n      jump\t// in\n    tag_102:\n        /* \"#utility.yul\":2068:2187   */\n    tag_101:\n        /* \"#utility.yul\":2254:2255   */\n      0x00\n        /* \"#utility.yul\":2243:2252   */\n      dup6\n        /* \"#utility.yul\":2239:2256   */\n      add\n        /* \"#utility.yul\":2226:2257   */\n      calldataload\n        /* \"#utility.yul\":2284:2302   */\n      0xffffffffffffffff\n        /* \"#utility.yul\":2276:2282   */\n      dup2\n        /* \"#utility.yul\":2273:2303   */\n      gt\n        /* \"#utility.yul\":2270:2387   */\n      iszero\n      tag_103\n      jumpi\n        /* \"#utility.yul\":2306:2385   */\n      tag_104\n      tag_45\n      jump\t// in\n    tag_104:\n        /* \"#utility.yul\":2270:2387   */\n    tag_103:\n        /* \"#utility.yul\":2419:2499   */\n      tag_105\n        /* \"#utility.yul\":2491:2498   */\n      dup8\n        /* \"#utility.yul\":2482:2488   */\n      dup3\n        /* \"#utility.yul\":2471:2480   */\n      dup9\n        /* \"#utility.yul\":2467:2489   */\n      add\n        /* \"#utility.yul\":2419:2499   */\n      tag_49\n      jump\t// in\n    tag_105:\n        /* \"#utility.yul\":2401:2499   */\n      swap5\n      pop\n      swap5\n      pop\n        /* \"#utility.yul\":2197:2509   */\n      pop\n        /* \"#utility.yul\":2576:2578   */\n      0x20\n        /* \"#utility.yul\":2565:2574   */\n      dup6\n        /* \"#utility.yul\":2561:2579   */\n      add\n        /* \"#utility.yul\":2548:2580   */\n      calldataload\n        /* \"#utility.yul\":2607:2625   */\n      0xffffffffffffffff\n        /* \"#utility.yul\":2599:2605   */\n      dup2\n        /* \"#utility.yul\":2596:2626   */\n      gt\n        /* \"#utility.yul\":2593:2710   */\n      iszero\n      tag_106\n      jumpi\n        /* \"#utility.yul\":2629:2708   */\n      tag_107\n      tag_45\n      jump\t// in\n    tag_107:\n        /* \"#utility.yul\":2593:2710   */\n    tag_106:\n        /* \"#utility.yul\":2742:2833   */\n      tag_108\n        /* \"#utility.yul\":2825:2832   */\n      dup8\n        /* \"#utility.yul\":2816:2822   */\n      dup3\n        /* \"#utility.yul\":2805:2814   */\n      dup9\n        /* \"#utility.yul\":2801:2823   */\n      add\n        /* \"#utility.yul\":2742:2833   */\n      tag_50\n      jump\t// in\n    tag_108:\n        /* \"#utility.yul\":2724:2833   */\n      swap3\n      pop\n      swap3\n      pop\n        /* \"#utility.yul\":2519:2843   */\n      pop\n        /* \"#utility.yul\":1894:2850   */\n      swap3\n      swap6\n      swap2\n      swap5\n      pop\n      swap3\n      pop\n      jump\t// out\n        /* \"#utility.yul\":2856:2979   */\n    tag_51:\n        /* \"#utility.yul\":2932:2938   */\n      0x00\n        /* \"#utility.yul\":2966:2971   */\n      dup2\n        /* \"#utility.yul\":2960:2972   */\n      mload\n        /* \"#utility.yul\":2950:2972   */\n      swap1\n      pop\n        /* \"#utility.yul\":2856:2979   */\n      swap2\n      swap1\n      pop\n      jump\t// out\n        /* \"#utility.yul\":2985:3178   */\n    tag_52:\n        /* \"#utility.yul\":3093:3104   */\n      0x00\n        /* \"#utility.yul\":3127:3133   */\n      dup3\n        /* \"#utility.yul\":3122:3125   */\n      dup3\n        /* \"#utility.yul\":3115:3134   */\n      mstore\n        /* \"#utility.yul\":3167:3171   */\n      0x20\n        /* \"#utility.yul\":3162:3165   */\n      dup3\n        /* \"#utility.yul\":3158:3172   */\n      add\n        /* \"#utility.yul\":3143:3172   */\n      swap1\n      pop\n        /* \"#utility.yul\":2985:3178   */\n      swap3\n      swap2\n      pop\n      pop\n      jump\t// out\n        /* \"#utility.yul\":3184:3325   */\n    tag_53:\n        /* \"#utility.yul\":3260:3264   */\n      0x00\n        /* \"#utility.yul\":3283:3286   */\n      dup2\n        /* \"#utility.yul\":3275:3286   */\n      swap1\n      pop\n        /* \"#utility.yul\":3313:3317   */\n      0x20\n        /* \"#utility.yul\":3308:3311   */\n      dup3\n        /* \"#utility.yul\":3304:3318   */\n      add\n        /* \"#utility.yul\":3296:3318   */\n      swap1\n      pop\n        /* \"#utility.yul\":3184:3325   */\n      swap2\n      swap1\n      pop\n      jump\t// out\n        /* \"#utility.yul\":3331:3429   */\n    tag_54:\n        /* \"#utility.yul\":3382:3388   */\n      0x00\n        /* \"#utility.yul\":3416:3421   */\n      dup2\n        /* \"#utility.yul\":3410:3422   */\n      mload\n        /* \"#utility.yul\":3400:3422   */\n      swap1\n      pop\n        /* \"#utility.yul\":3331:3429   */\n      swap2\n      swap1\n      pop\n      jump\t// out\n        /* \"#utility.yul\":3435:3593   */\n    tag_55:\n        /* \"#utility.yul\":3508:3519   */\n      0x00\n        /* \"#utility.yul\":3542:3548   */\n      dup3\n        /* \"#utility.yul\":3537:3540   */\n      dup3\n        /* \"#utility.yul\":3530:3549   */\n      mstore\n        /* \"#utility.yul\":3582:3586   */\n      0x20\n        /* \"#utility.yul\":3577:3580   */\n      dup3\n        /* \"#utility.yul\":3573:3587   */\n      add\n        /* \"#utility.yul\":3558:3587   */\n      swap1\n      pop\n        /* \"#utility.yul\":3435:3593   */\n      swap3\n      swap2\n      pop\n      pop\n      jump\t// out\n        /* \"#utility.yul\":3599:3845   */\n    tag_56:\n        /* \"#utility.yul\":3680:3681   */\n      0x00\n        /* \"#utility.yul\":3690:3803   */\n    tag_115:\n        /* \"#utility.yul\":3704:3710   */\n      dup4\n        /* \"#utility.yul\":3701:3702   */\n      dup2\n        /* \"#utility.yul\":3698:3711   */\n      lt\n        /* \"#utility.yul\":3690:3803   */\n      iszero\n      tag_117\n      jumpi\n        /* \"#utility.yul\":3789:3790   */\n      dup1\n        /* \"#utility.yul\":3784:3787   */\n      dup3\n        /* \"#utility.yul\":3780:3791   */\n      add\n        /* \"#utility.yul\":3774:3792   */\n      mload\n        /* \"#utility.yul\":3770:3771   */\n      dup2\n        /* \"#utility.yul\":3765:3768   */\n      dup5\n        /* \"#utility.yul\":3761:3772   */\n      add\n        /* \"#utility.yul\":3754:3793   */\n      mstore\n        /* \"#utility.yul\":3726:3728   */\n      0x20\n        /* \"#utility.yul\":3723:3724   */\n      dup2\n        /* \"#utility.yul\":3719:3729   */\n      add\n        /* \"#utility.yul\":3714:3729   */\n      swap1\n      pop\n        /* \"#utility.yul\":3690:3803   */\n      jump(tag_115)\n    tag_117:\n        /* \"#utility.yul\":3837:3838   */\n      0x00\n        /* \"#utility.yul\":3828:3834   */\n      dup5\n        /* \"#utility.yul\":3823:3826   */\n      dup5\n        /* \"#utility.yul\":3819:3835   */\n      add\n        /* \"#utility.yul\":3812:3839   */\n      mstore\n        /* \"#utility.yul\":3661:3845   */\n      pop\n        /* \"#utility.yul\":3599:3845   */\n      pop\n      pop\n      pop\n      jump\t// out\n        /* \"#utility.yul\":3851:3953   */\n    tag_57:\n        /* \"#utility.yul\":3892:3898   */\n      0x00\n        /* \"#utility.yul\":3943:3945   */\n      0x1f\n        /* \"#utility.yul\":3939:3946   */\n      not\n        /* \"#utility.yul\":3934:3936   */\n      0x1f\n        /* \"#utility.yul\":3927:3932   */\n      dup4\n        /* \"#utility.yul\":3923:3937   */\n      add\n        /* \"#utility.yul\":3919:3947   */\n      and\n        /* \"#utility.yul\":3909:3947   */\n      swap1\n      pop\n        /* \"#utility.yul\":3851:3953   */\n      swap2\n      swap1\n      pop\n      jump\t// out\n        /* \"#utility.yul\":3959:4312   */\n    tag_58:\n        /* \"#utility.yul\":4035:4038   */\n      0x00\n        /* \"#utility.yul\":4063:4101   */\n      tag_120\n        /* \"#utility.yul\":4095:4100   */\n      dup3\n        /* \"#utility.yul\":4063:4101   */\n      tag_54\n      jump\t// in\n    tag_120:\n        /* \"#utility.yul\":4117:4177   */\n      tag_121\n        /* \"#utility.yul\":4170:4176   */\n      dup2\n        /* \"#utility.yul\":4165:4168   */\n      dup6\n        /* \"#utility.yul\":4117:4177   */\n      tag_55\n      jump\t// in\n    tag_121:\n        /* \"#utility.yul\":4110:4177   */\n      swap4\n      pop\n        /* \"#utility.yul\":4186:4251   */\n      tag_122\n        /* \"#utility.yul\":4244:4250   */\n      dup2\n        /* \"#utility.yul\":4239:4242   */\n      dup6\n        /* \"#utility.yul\":4232:4236   */\n      0x20\n        /* \"#utility.yul\":4225:4230   */\n      dup7\n        /* \"#utility.yul\":4221:4237   */\n      add\n        /* \"#utility.yul\":4186:4251   */\n      tag_56\n      jump\t// in\n    tag_122:\n        /* \"#utility.yul\":4276:4305   */\n      tag_123\n        /* \"#utility.yul\":4298:4304   */\n      dup2\n        /* \"#utility.yul\":4276:4305   */\n      tag_57\n      jump\t// in\n    tag_123:\n        /* \"#utility.yul\":4271:4274   */\n      dup5\n        /* \"#utility.yul\":4267:4306   */\n      add\n        /* \"#utility.yul\":4260:4306   */\n      swap2\n      pop\n        /* \"#utility.yul\":4039:4312   */\n      pop\n        /* \"#utility.yul\":3959:4312   */\n      swap3\n      swap2\n      pop\n      pop\n      jump\t// out\n        /* \"#utility.yul\":4318:4510   */\n    tag_59:\n        /* \"#utility.yul\":4405:4415   */\n      0x00\n        /* \"#utility.yul\":4440:4504   */\n      tag_125\n        /* \"#utility.yul\":4500:4503   */\n      dup4\n        /* \"#utility.yul\":4492:4498   */\n      dup4\n        /* \"#utility.yul\":4440:4504   */\n      tag_58\n      jump\t// in\n    tag_125:\n        /* \"#utility.yul\":4426:4504   */\n      swap1\n      pop\n        /* \"#utility.yul\":4318:4510   */\n      swap3\n      swap2\n      pop\n      pop\n      jump\t// out\n        /* \"#utility.yul\":4516:4638   */\n    tag_60:\n        /* \"#utility.yul\":4595:4599   */\n      0x00\n        /* \"#utility.yul\":4627:4631   */\n      0x20\n        /* \"#utility.yul\":4622:4625   */\n      dup3\n        /* \"#utility.yul\":4618:4632   */\n      add\n        /* \"#utility.yul\":4610:4632   */\n      swap1\n      pop\n        /* \"#utility.yul\":4516:4638   */\n      swap2\n      swap1\n      pop\n      jump\t// out\n        /* \"#utility.yul\":4670:5653   */\n    tag_61:\n        /* \"#utility.yul\":4807:4810   */\n      0x00\n        /* \"#utility.yul\":4836:4899   */\n      tag_128\n        /* \"#utility.yul\":4893:4898   */\n      dup3\n        /* \"#utility.yul\":4836:4899   */\n      tag_51\n      jump\t// in\n    tag_128:\n        /* \"#utility.yul\":4915:5010   */\n      tag_129\n        /* \"#utility.yul\":5003:5009   */\n      dup2\n        /* \"#utility.yul\":4998:5001   */\n      dup6\n        /* \"#utility.yul\":4915:5010   */\n      tag_52\n      jump\t// in\n    tag_129:\n        /* \"#utility.yul\":4908:5010   */\n      swap4\n      pop\n        /* \"#utility.yul\":5036:5039   */\n      dup4\n        /* \"#utility.yul\":5081:5085   */\n      0x20\n        /* \"#utility.yul\":5073:5079   */\n      dup3\n        /* \"#utility.yul\":5069:5086   */\n      mul\n        /* \"#utility.yul\":5064:5067   */\n      dup6\n        /* \"#utility.yul\":5060:5087   */\n      add\n        /* \"#utility.yul\":5111:5176   */\n      tag_130\n        /* \"#utility.yul\":5170:5175   */\n      dup6\n        /* \"#utility.yul\":5111:5176   */\n      tag_53\n      jump\t// in\n    tag_130:\n        /* \"#utility.yul\":5199:5206   */\n      dup1\n        /* \"#utility.yul\":5230:5231   */\n      0x00\n        /* \"#utility.yul\":5215:5608   */\n    tag_131:\n        /* \"#utility.yul\":5240:5246   */\n      dup6\n        /* \"#utility.yul\":5237:5238   */\n      dup2\n        /* \"#utility.yul\":5234:5247   */\n      lt\n        /* \"#utility.yul\":5215:5608   */\n      iszero\n      tag_133\n      jumpi\n        /* \"#utility.yul\":5311:5320   */\n      dup5\n        /* \"#utility.yul\":5305:5309   */\n      dup5\n        /* \"#utility.yul\":5301:5321   */\n      sub\n        /* \"#utility.yul\":5296:5299   */\n      dup10\n        /* \"#utility.yul\":5289:5322   */\n      mstore\n        /* \"#utility.yul\":5362:5368   */\n      dup2\n        /* \"#utility.yul\":5356:5369   */\n      mload\n        /* \"#utility.yul\":5390:5472   */\n      tag_134\n        /* \"#utility.yul\":5467:5471   */\n      dup6\n        /* \"#utility.yul\":5452:5465   */\n      dup3\n        /* \"#utility.yul\":5390:5472   */\n      tag_59\n      jump\t// in\n    tag_134:\n        /* \"#utility.yul\":5382:5472   */\n      swap5\n      pop\n        /* \"#utility.yul\":5495:5564   */\n      tag_135\n        /* \"#utility.yul\":5557:5563   */\n      dup4\n        /* \"#utility.yul\":5495:5564   */\n      tag_60\n      jump\t// in\n    tag_135:\n        /* \"#utility.yul\":5485:5564   */\n      swap3\n      pop\n        /* \"#utility.yul\":5593:5597   */\n      0x20\n        /* \"#utility.yul\":5588:5591   */\n      dup11\n        /* \"#utility.yul\":5584:5598   */\n      add\n        /* \"#utility.yul\":5577:5598   */\n      swap10\n      pop\n        /* \"#utility.yul\":5275:5608   */\n      pop\n        /* \"#utility.yul\":5262:5263   */\n      0x01\n        /* \"#utility.yul\":5259:5260   */\n      dup2\n        /* \"#utility.yul\":5255:5264   */\n      add\n        /* \"#utility.yul\":5250:5264   */\n      swap1\n      pop\n        /* \"#utility.yul\":5215:5608   */\n      jump(tag_131)\n    tag_133:\n        /* \"#utility.yul\":5219:5233   */\n      pop\n        /* \"#utility.yul\":5624:5628   */\n      dup3\n        /* \"#utility.yul\":5617:5628   */\n      swap8\n      pop\n        /* \"#utility.yul\":5644:5647   */\n      dup8\n        /* \"#utility.yul\":5637:5647   */\n      swap6\n      pop\n        /* \"#utility.yul\":4812:5653   */\n      pop\n      pop\n      pop\n      pop\n      pop\n        /* \"#utility.yul\":4670:5653   */\n      swap3\n      swap2\n      pop\n      pop\n      jump\t// out\n        /* \"#utility.yul\":5659:6068   */\n    tag_9:\n        /* \"#utility.yul\":5820:5824   */\n      0x00\n        /* \"#utility.yul\":5858:5860   */\n      0x20\n        /* \"#utility.yul\":5847:5856   */\n      dup3\n        /* \"#utility.yul\":5843:5861   */\n      add\n        /* \"#utility.yul\":5835:5861   */\n      swap1\n      pop\n        /* \"#utility.yul\":5907:5916   */\n      dup2\n        /* \"#utility.yul\":5901:5905   */\n      dup2\n        /* \"#utility.yul\":5897:5917   */\n      sub\n        /* \"#utility.yul\":5893:5894   */\n      0x00\n        /* \"#utility.yul\":5882:5891   */\n      dup4\n        /* \"#utility.yul\":5878:5895   */\n      add\n        /* \"#utility.yul\":5871:5918   */\n      mstore\n        /* \"#utility.yul\":5935:6061   */\n      tag_137\n        /* \"#utility.yul\":6056:6060   */\n      dup2\n        /* \"#utility.yul\":6047:6053   */\n      dup5\n        /* \"#utility.yul\":5935:6061   */\n      tag_61\n      jump\t// in\n    tag_137:\n        /* \"#utility.yul\":5927:6061   */\n      swap1\n      pop\n        /* \"#utility.yul\":5659:6068   */\n      swap3\n      swap2\n      pop\n      pop\n      jump\t// out\n        /* \"#utility.yul\":6074:6243   */\n    tag_62:\n        /* \"#utility.yul\":6158:6169   */\n      0x00\n        /* \"#utility.yul\":6192:6198   */\n      dup3\n        /* \"#utility.yul\":6187:6190   */\n      dup3\n        /* \"#utility.yul\":6180:6199   */\n      mstore\n        /* \"#utility.yul\":6232:6236   */\n      0x20\n        /* \"#utility.yul\":6227:6230   */\n      dup3\n        /* \"#utility.yul\":6223:6237   */\n      add\n        /* \"#utility.yul\":6208:6237   */\n      swap1\n      pop\n        /* \"#utility.yul\":6074:6243   */\n      swap3\n      swap2\n      pop\n      pop\n      jump\t// out\n        /* \"#utility.yul\":6249:6428   */\n    tag_63:\n        /* \"#utility.yul\":6389:6420   */\n      0x74617267657473206c656e67746820213d2064617461206c656e677468000000\n        /* \"#utility.yul\":6385:6386   */\n      0x00\n        /* \"#utility.yul\":6377:6383   */\n      dup3\n        /* \"#utility.yul\":6373:6387   */\n      add\n        /* \"#utility.yul\":6366:6421   */\n      mstore\n        /* \"#utility.yul\":6249:6428   */\n      pop\n      jump\t// out\n        /* \"#utility.yul\":6434:6800   */\n    tag_64:\n        /* \"#utility.yul\":6576:6579   */\n      0x00\n        /* \"#utility.yul\":6597:6664   */\n      tag_141\n        /* \"#utility.yul\":6661:6663   */\n      0x1d\n        /* \"#utility.yul\":6656:6659   */\n      dup4\n        /* \"#utility.yul\":6597:6664   */\n      tag_62\n      jump\t// in\n    tag_141:\n        /* \"#utility.yul\":6590:6664   */\n      swap2\n      pop\n        /* \"#utility.yul\":6673:6766   */\n      tag_142\n        /* \"#utility.yul\":6762:6765   */\n      dup3\n        /* \"#utility.yul\":6673:6766   */\n      tag_63\n      jump\t// in\n    tag_142:\n        /* \"#utility.yul\":6791:6793   */\n      0x20\n        /* \"#utility.yul\":6786:6789   */\n      dup3\n        /* \"#utility.yul\":6782:6794   */\n      add\n        /* \"#utility.yul\":6775:6794   */\n      swap1\n      pop\n        /* \"#utility.yul\":6434:6800   */\n      swap2\n      swap1\n      pop\n      jump\t// out\n        /* \"#utility.yul\":6806:7225   */\n    tag_13:\n        /* \"#utility.yul\":6972:6976   */\n      0x00\n        /* \"#utility.yul\":7010:7012   */\n      0x20\n        /* \"#utility.yul\":6999:7008   */\n      dup3\n        /* \"#utility.yul\":6995:7013   */\n      add\n        /* \"#utility.yul\":6987:7013   */\n      swap1\n      pop\n        /* \"#utility.yul\":7059:7068   */\n      dup2\n        /* \"#utility.yul\":7053:7057   */\n      dup2\n        /* \"#utility.yul\":7049:7069   */\n      sub\n        /* \"#utility.yul\":7045:7046   */\n      0x00\n        /* \"#utility.yul\":7034:7043   */\n      dup4\n        /* \"#utility.yul\":7030:7047   */\n      add\n        /* \"#utility.yul\":7023:7070   */\n      mstore\n        /* \"#utility.yul\":7087:7218   */\n      tag_144\n        /* \"#utility.yul\":7213:7217   */\n      dup2\n        /* \"#utility.yul\":7087:7218   */\n      tag_64\n      jump\t// in\n    tag_144:\n        /* \"#utility.yul\":7079:7218   */\n      swap1\n      pop\n        /* \"#utility.yul\":6806:7225   */\n      swap2\n      swap1\n      pop\n      jump\t// out\n        /* \"#utility.yul\":7231:7411   */\n    tag_16:\n        /* \"#utility.yul\":7279:7356   */\n      0x4e487b7100000000000000000000000000000000000000000000000000000000\n        /* \"#utility.yul\":7276:7277   */\n      0x00\n        /* \"#utility.yul\":7269:7357   */\n      mstore\n        /* \"#utility.yul\":7376:7380   */\n      0x41\n        /* \"#utility.yul\":7373:7374   */\n      0x04\n        /* \"#utility.yul\":7366:7381   */\n      mstore\n        /* \"#utility.yul\":7400:7404   */\n      0x24\n        /* \"#utility.yul\":7397:7398   */\n      0x00\n        /* \"#utility.yul\":7390:7405   */\n      revert\n        /* \"#utility.yul\":7417:7597   */\n    tag_24:\n        /* \"#utility.yul\":7465:7542   */\n      0x4e487b7100000000000000000000000000000000000000000000000000000000\n        /* \"#utility.yul\":7462:7463   */\n      0x00\n        /* \"#utility.yul\":7455:7543   */\n      mstore\n        /* \"#utility.yul\":7562:7566   */\n      0x32\n        /* \"#utility.yul\":7559:7560   */\n      0x04\n        /* \"#utility.yul\":7552:7567   */\n      mstore\n        /* \"#utility.yul\":7586:7590   */\n      0x24\n        /* \"#utility.yul\":7583:7584   */\n      0x00\n        /* \"#utility.yul\":7576:7591   */\n      revert\n        /* \"#utility.yul\":7603:7729   */\n    tag_65:\n        /* \"#utility.yul\":7640:7647   */\n      0x00\n        /* \"#utility.yul\":7680:7722   */\n      0xffffffffffffffffffffffffffffffffffffffff\n        /* \"#utility.yul\":7673:7678   */\n      dup3\n        /* \"#utility.yul\":7669:7723   */\n      and\n        /* \"#utility.yul\":7658:7723   */\n      swap1\n      pop\n        /* \"#utility.yul\":7603:7729   */\n      swap2\n      swap1\n      pop\n      jump\t// out\n        /* \"#utility.yul\":7735:7831   */\n    tag_66:\n        /* \"#utility.yul\":7772:7779   */\n      0x00\n        /* \"#utility.yul\":7801:7825   */\n      tag_149\n        /* \"#utility.yul\":7819:7824   */\n      dup3\n        /* \"#utility.yul\":7801:7825   */\n      tag_65\n      jump\t// in\n    tag_149:\n        /* \"#utility.yul\":7790:7825   */\n      swap1\n      pop\n        /* \"#utility.yul\":7735:7831   */\n      swap2\n      swap1\n      pop\n      jump\t// out\n        /* \"#utility.yul\":7837:7959   */\n    tag_67:\n        /* \"#utility.yul\":7910:7934   */\n      tag_151\n        /* \"#utility.yul\":7928:7933   */\n      dup2\n        /* \"#utility.yul\":7910:7934   */\n      tag_66\n      jump\t// in\n    tag_151:\n        /* \"#utility.yul\":7903:7908   */\n      dup2\n        /* \"#utility.yul\":7900:7935   */\n      eq\n        /* \"#utility.yul\":7890:7953   */\n      tag_152\n      jumpi\n        /* \"#utility.yul\":7949:7950   */\n      0x00\n        /* \"#utility.yul\":7946:7947   */\n      dup1\n        /* \"#utility.yul\":7939:7951   */\n      revert\n        /* \"#utility.yul\":7890:7953   */\n    tag_152:\n        /* \"#utility.yul\":7837:7959   */\n      pop\n      jump\t// out\n        /* \"#utility.yul\":7965:8104   */\n    tag_68:\n        /* \"#utility.yul\":8011:8016   */\n      0x00\n        /* \"#utility.yul\":8049:8055   */\n      dup2\n        /* \"#utility.yul\":8036:8056   */\n      calldataload\n        /* \"#utility.yul\":8027:8056   */\n      swap1\n      pop\n        /* \"#utility.yul\":8065:8098   */\n      tag_154\n        /* \"#utility.yul\":8092:8097   */\n      dup2\n        /* \"#utility.yul\":8065:8098   */\n      tag_67\n      jump\t// in\n    tag_154:\n        /* \"#utility.yul\":7965:8104   */\n      swap3\n      swap2\n      pop\n      pop\n      jump\t// out\n        /* \"#utility.yul\":8110:8439   */\n    tag_26:\n        /* \"#utility.yul\":8169:8175   */\n      0x00\n        /* \"#utility.yul\":8218:8220   */\n      0x20\n        /* \"#utility.yul\":8206:8215   */\n      dup3\n        /* \"#utility.yul\":8197:8204   */\n      dup5\n        /* \"#utility.yul\":8193:8216   */\n      sub\n        /* \"#utility.yul\":8189:8221   */\n      slt\n        /* \"#utility.yul\":8186:8305   */\n      iszero\n      tag_156\n      jumpi\n        /* \"#utility.yul\":8224:8303   */\n      tag_157\n      tag_44\n      jump\t// in\n    tag_157:\n        /* \"#utility.yul\":8186:8305   */\n    tag_156:\n        /* \"#utility.yul\":8344:8345   */\n      0x00\n        /* \"#utility.yul\":8369:8422   */\n      tag_158\n        /* \"#utility.yul\":8414:8421   */\n      dup5\n        /* \"#utility.yul\":8405:8411   */\n      dup3\n        /* \"#utility.yul\":8394:8403   */\n      dup6\n        /* \"#utility.yul\":8390:8412   */\n      add\n        /* \"#utility.yul\":8369:8422   */\n      tag_68\n      jump\t// in\n    tag_158:\n        /* \"#utility.yul\":8359:8422   */\n      swap2\n      pop\n        /* \"#utility.yul\":8315:8432   */\n      pop\n        /* \"#utility.yul\":8110:8439   */\n      swap3\n      swap2\n      pop\n      pop\n      jump\t// out\n        /* \"#utility.yul\":8445:8562   */\n    tag_69:\n        /* \"#utility.yul\":8554:8555   */\n      0x00\n        /* \"#utility.yul\":8551:8552   */\n      dup1\n        /* \"#utility.yul\":8544:8556   */\n      revert\n        /* \"#utility.yul\":8568:8685   */\n    tag_70:\n        /* \"#utility.yul\":8677:8678   */\n      0x00\n        /* \"#utility.yul\":8674:8675   */\n      dup1\n        /* \"#utility.yul\":8667:8679   */\n      revert\n        /* \"#utility.yul\":8691:8808   */\n    tag_71:\n        /* \"#utility.yul\":8800:8801   */\n      0x00\n        /* \"#utility.yul\":8797:8798   */\n      dup1\n        /* \"#utility.yul\":8790:8802   */\n      revert\n        /* \"#utility.yul\":8814:9538   */\n    tag_30:\n        /* \"#utility.yul\":8891:8895   */\n      0x00\n        /* \"#utility.yul\":8897:8903   */\n      dup1\n        /* \"#utility.yul\":8953:8964   */\n      dup4\n        /* \"#utility.yul\":8940:8965   */\n      calldataload\n        /* \"#utility.yul\":9053:9054   */\n      0x01\n        /* \"#utility.yul\":9047:9051   */\n      0x20\n        /* \"#utility.yul\":9043:9055   */\n      sub\n        /* \"#utility.yul\":9032:9040   */\n      dup5\n        /* \"#utility.yul\":9016:9030   */\n      calldatasize\n        /* \"#utility.yul\":9012:9041   */\n      sub\n        /* \"#utility.yul\":9008:9056   */\n      sub\n        /* \"#utility.yul\":8988:9006   */\n      dup2\n        /* \"#utility.yul\":8984:9057   */\n      slt\n        /* \"#utility.yul\":8974:9142   */\n      tag_163\n      jumpi\n        /* \"#utility.yul\":9061:9140   */\n      tag_164\n      tag_69\n      jump\t// in\n    tag_164:\n        /* \"#utility.yul\":8974:9142   */\n    tag_163:\n        /* \"#utility.yul\":9173:9191   */\n      dup1\n        /* \"#utility.yul\":9163:9171   */\n      dup5\n        /* \"#utility.yul\":9159:9192   */\n      add\n        /* \"#utility.yul\":9151:9192   */\n      swap3\n      pop\n        /* \"#utility.yul\":9225:9229   */\n      dup3\n        /* \"#utility.yul\":9212:9230   */\n      calldataload\n        /* \"#utility.yul\":9202:9230   */\n      swap2\n      pop\n        /* \"#utility.yul\":9253:9271   */\n      0xffffffffffffffff\n        /* \"#utility.yul\":9245:9251   */\n      dup3\n        /* \"#utility.yul\":9242:9272   */\n      gt\n        /* \"#utility.yul\":9239:9356   */\n      iszero\n      tag_165\n      jumpi\n        /* \"#utility.yul\":9275:9354   */\n      tag_166\n      tag_70\n      jump\t// in\n    tag_166:\n        /* \"#utility.yul\":9239:9356   */\n    tag_165:\n        /* \"#utility.yul\":9383:9385   */\n      0x20\n        /* \"#utility.yul\":9377:9381   */\n      dup4\n        /* \"#utility.yul\":9373:9386   */\n      add\n        /* \"#utility.yul\":9365:9386   */\n      swap3\n      pop\n        /* \"#utility.yul\":9440:9444   */\n      0x01\n        /* \"#utility.yul\":9432:9438   */\n      dup3\n        /* \"#utility.yul\":9428:9445   */\n      mul\n        /* \"#utility.yul\":9412:9426   */\n      calldatasize\n        /* \"#utility.yul\":9408:9446   */\n      sub\n        /* \"#utility.yul\":9402:9406   */\n      dup4\n        /* \"#utility.yul\":9398:9447   */\n      sgt\n        /* \"#utility.yul\":9395:9531   */\n      iszero\n      tag_167\n      jumpi\n        /* \"#utility.yul\":9450:9529   */\n      tag_168\n      tag_71\n      jump\t// in\n    tag_168:\n        /* \"#utility.yul\":9395:9531   */\n    tag_167:\n        /* \"#utility.yul\":8904:9538   */\n      pop\n        /* \"#utility.yul\":8814:9538   */\n      swap3\n      pop\n      swap3\n      swap1\n      pop\n      jump\t// out\n        /* \"#utility.yul\":9544:9691   */\n    tag_72:\n        /* \"#utility.yul\":9645:9656   */\n      0x00\n        /* \"#utility.yul\":9682:9685   */\n      dup2\n        /* \"#utility.yul\":9667:9685   */\n      swap1\n      pop\n        /* \"#utility.yul\":9544:9691   */\n      swap3\n      swap2\n      pop\n      pop\n      jump\t// out\n        /* \"#utility.yul\":9697:9843   */\n    tag_73:\n        /* \"#utility.yul\":9794:9800   */\n      dup3\n        /* \"#utility.yul\":9789:9792   */\n      dup2\n        /* \"#utility.yul\":9784:9787   */\n      dup4\n        /* \"#utility.yul\":9771:9801   */\n      calldatacopy\n        /* \"#utility.yul\":9835:9836   */\n      0x00\n        /* \"#utility.yul\":9826:9832   */\n      dup4\n        /* \"#utility.yul\":9821:9824   */\n      dup4\n        /* \"#utility.yul\":9817:9833   */\n      add\n        /* \"#utility.yul\":9810:9837   */\n      mstore\n        /* \"#utility.yul\":9697:9843   */\n      pop\n      pop\n      pop\n      jump\t// out\n        /* \"#utility.yul\":9871:10198   */\n    tag_74:\n        /* \"#utility.yul\":9985:9988   */\n      0x00\n        /* \"#utility.yul\":10006:10094   */\n      tag_172\n        /* \"#utility.yul\":10087:10093   */\n      dup4\n        /* \"#utility.yul\":10082:10085   */\n      dup6\n        /* \"#utility.yul\":10006:10094   */\n      tag_72\n      jump\t// in\n    tag_172:\n        /* \"#utility.yul\":9999:10094   */\n      swap4\n      pop\n        /* \"#utility.yul\":10104:10160   */\n      tag_173\n        /* \"#utility.yul\":10153:10159   */\n      dup4\n        /* \"#utility.yul\":10148:10151   */\n      dup6\n        /* \"#utility.yul\":10141:10146   */\n      dup5\n        /* \"#utility.yul\":10104:10160   */\n      tag_73\n      jump\t// in\n    tag_173:\n        /* \"#utility.yul\":10185:10191   */\n      dup3\n        /* \"#utility.yul\":10180:10183   */\n      dup5\n        /* \"#utility.yul\":10176:10192   */\n      add\n        /* \"#utility.yul\":10169:10192   */\n      swap1\n      pop\n        /* \"#utility.yul\":9871:10198   */\n      swap4\n      swap3\n      pop\n      pop\n      pop\n      jump\t// out\n        /* \"#utility.yul\":10204:10495   */\n    tag_32:\n        /* \"#utility.yul\":10344:10347   */\n      0x00\n        /* \"#utility.yul\":10366:10469   */\n      tag_175\n        /* \"#utility.yul\":10465:10468   */\n      dup3\n        /* \"#utility.yul\":10456:10462   */\n      dup5\n        /* \"#utility.yul\":10448:10454   */\n      dup7\n        /* \"#utility.yul\":10366:10469   */\n      tag_74\n      jump\t// in\n    tag_175:\n        /* \"#utility.yul\":10359:10469   */\n      swap2\n      pop\n        /* \"#utility.yul\":10486:10489   */\n      dup2\n        /* \"#utility.yul\":10479:10489   */\n      swap1\n      pop\n        /* \"#utility.yul\":10204:10495   */\n      swap4\n      swap3\n      pop\n      pop\n      pop\n      jump\t// out\n        /* \"#utility.yul\":10501:10662   */\n    tag_75:\n        /* \"#utility.yul\":10641:10654   */\n      0x63616c6c206661696c6564000000000000000000000000000000000000000000\n        /* \"#utility.yul\":10637:10638   */\n      0x00\n        /* \"#utility.yul\":10629:10635   */\n      dup3\n        /* \"#utility.yul\":10625:10639   */\n      add\n        /* \"#utility.yul\":10618:10655   */\n      mstore\n        /* \"#utility.yul\":10501:10662   */\n      pop\n      jump\t// out\n        /* \"#utility.yul\":10668:11034   */\n    tag_76:\n        /* \"#utility.yul\":10810:10813   */\n      0x00\n        /* \"#utility.yul\":10831:10898   */\n      tag_178\n        /* \"#utility.yul\":10895:10897   */\n      0x0b\n        /* \"#utility.yul\":10890:10893   */\n      dup4\n        /* \"#utility.yul\":10831:10898   */\n      tag_62\n      jump\t// in\n    tag_178:\n        /* \"#utility.yul\":10824:10898   */\n      swap2\n      pop\n        /* \"#utility.yul\":10907:11000   */\n      tag_179\n        /* \"#utility.yul\":10996:10999   */\n      dup3\n        /* \"#utility.yul\":10907:11000   */\n      tag_75\n      jump\t// in\n    tag_179:\n        /* \"#utility.yul\":11025:11027   */\n      0x20\n        /* \"#utility.yul\":11020:11023   */\n      dup3\n        /* \"#utility.yul\":11016:11028   */\n      add\n        /* \"#utility.yul\":11009:11028   */\n      swap1\n      pop\n        /* \"#utility.yul\":10668:11034   */\n      swap2\n      swap1\n      pop\n      jump\t// out\n        /* \"#utility.yul\":11040:11459   */\n    tag_38:\n        /* \"#utility.yul\":11206:11210   */\n      0x00\n        /* \"#utility.yul\":11244:11246   */\n      0x20\n        /* \"#utility.yul\":11233:11242   */\n      dup3\n        /* \"#utility.yul\":11229:11247   */\n      add\n        /* \"#utility.yul\":11221:11247   */\n      swap1\n      pop\n        /* \"#utility.yul\":11293:11302   */\n      dup2\n        /* \"#utility.yul\":11287:11291   */\n      dup2\n        /* \"#utility.yul\":11283:11303   */\n      sub\n        /* \"#utility.yul\":11279:11280   */\n      0x00\n        /* \"#utility.yul\":11268:11277   */\n      dup4\n        /* \"#utility.yul\":11264:11281   */\n      add\n        /* \"#utility.yul\":11257:11304   */\n      mstore\n        /* \"#utility.yul\":11321:11452   */\n      tag_181\n        /* \"#utility.yul\":11447:11451   */\n      dup2\n        /* \"#utility.yul\":11321:11452   */\n      tag_76\n      jump\t// in\n    tag_181:\n        /* \"#utility.yul\":11313:11452   */\n      swap1\n      pop\n        /* \"#utility.yul\":11040:11459   */\n      swap2\n      swap1\n      pop\n      jump\t// out\n        /* \"#utility.yul\":11465:11645   */\n    tag_77:\n        /* \"#utility.yul\":11513:11590   */\n      0x4e487b7100000000000000000000000000000000000000000000000000000000\n        /* \"#utility.yul\":11510:11511   */\n      0x00\n        /* \"#utility.yul\":11503:11591   */\n      mstore\n        /* \"#utility.yul\":11610:11614   */\n      0x11\n        /* \"#utility.yul\":11607:11608   */\n      0x04\n        /* \"#utility.yul\":11600:11615   */\n      mstore\n        /* \"#utility.yul\":11634:11638   */\n      0x24\n        /* \"#utility.yul\":11631:11632   */\n      0x00\n        /* \"#utility.yul\":11624:11639   */\n      revert\n        /* \"#utility.yul\":11651:11728   */\n    tag_78:\n        /* \"#utility.yul\":11688:11695   */\n      0x00\n        /* \"#utility.yul\":11717:11722   */\n      dup2\n        /* \"#utility.yul\":11706:11722   */\n      swap1\n      pop\n        /* \"#utility.yul\":11651:11728   */\n      swap2\n      swap1\n      pop\n      jump\t// out\n        /* \"#utility.yul\":11734:11967   */\n    tag_42:\n        /* \"#utility.yul\":11773:11776   */\n      0x00\n        /* \"#utility.yul\":11796:11820   */\n      tag_185\n        /* \"#utility.yul\":11814:11819   */\n      dup3\n        /* \"#utility.yul\":11796:11820   */\n      tag_78\n      jump\t// in\n    tag_185:\n        /* \"#utility.yul\":11787:11820   */\n      swap2\n      pop\n        /* \"#utility.yul\":11842:11908   */\n      0xffffffffffffffffffffffffffffffffffffffffffffffffffffffffffffffff\n        /* \"#utility.yul\":11835:11840   */\n      dup3\n        /* \"#utility.yul\":11832:11909   */\n      sub\n        /* \"#utility.yul\":11829:11932   */\n      tag_186\n      jumpi\n        /* \"#utility.yul\":11912:11930   */\n      tag_187\n      tag_77\n      jump\t// in\n    tag_187:\n        /* \"#utility.yul\":11829:11932   */\n    tag_186:\n        /* \"#utility.yul\":11959:11960   */\n      0x01\n        /* \"#utility.yul\":11952:11957   */\n      dup3\n        /* \"#utility.yul\":11948:11961   */\n      add\n        /* \"#utility.yul\":11941:11961   */\n      swap1\n      pop\n        /* \"#utility.yul\":11734:11967   */\n      swap2\n      swap1\n      pop\n      jump\t// out\n\n    auxdata: 0xa26469706673582212208eadc910f1187f16f79715201f0fc0970f0e2e3a1e885695facb8d927df1c82e64736f6c63430008120033\n}\n",
				"bytecode": {
					"linkReferences": {},
					"object": "608060405234801561001057600080fd5b50610856806100206000396000f3fe608060405234801561001057600080fd5b506004361061002b5760003560e01c806363fb0b9614610030575b600080fd5b61004a6004803603810190610045919061030e565b610060565b60405161005791906104e1565b60405180910390f35b60608282905085859050146100aa576040517f08c379a00000000000000000000000000000000000000000000000000000000081526004016100a190610560565b60405180910390fd5b60008383905067ffffffffffffffff8111156100c9576100c8610580565b5b6040519080825280602002602001820160405280156100fc57816020015b60608152602001906001900390816100e75790505b50905060005b8686905081101561023c57600080888884818110610123576101226105af565b5b9050602002016020810190610138919061063c565b73ffffffffffffffffffffffffffffffffffffffff16878785818110610161576101606105af565b5b90506020028101906101739190610678565b60405161018192919061071a565b6000604051808303816000865af19150503d80600081146101be576040519150601f19603f3d011682016040523d82523d6000602084013e6101c3565b606091505b509150915081610208576040517f08c379a00000000000000000000000000000000000000000000000000000000081526004016101ff9061077f565b60405180910390fd5b8084848151811061021c5761021b6105af565b5b602002602001018190525050508080610234906107d8565b915050610102565b5080915050949350505050565b600080fd5b600080fd5b600080fd5b600080fd5b600080fd5b60008083601f84011261027857610277610253565b5b8235905067ffffffffffffffff81111561029557610294610258565b5b6020830191508360208202830111156102b1576102b061025d565b5b9250929050565b60008083601f8401126102ce576102cd610253565b5b8235905067ffffffffffffffff8111156102eb576102ea610258565b5b6020830191508360208202830111156103075761030661025d565b5b9250929050565b6000806000806040858703121561032857610327610249565b5b600085013567ffffffffffffffff8111156103465761034561024e565b5b61035287828801610262565b9450945050602085013567ffffffffffffffff8111156103755761037461024e565b5b610381878288016102b8565b925092505092959194509250565b600081519050919050565b600082825260208201905092915050565b6000819050602082019050919050565b600081519050919050565b600082825260208201905092915050565b60005b838110156103f55780820151818401526020810190506103da565b60008484015250505050565b6000601f19601f8301169050919050565b600061041d826103bb565b61042781856103c6565b93506104378185602086016103d7565b61044081610401565b840191505092915050565b60006104578383610412565b905092915050565b6000602082019050919050565b60006104778261038f565b610481818561039a565b935083602082028501610493856103ab565b8060005b858110156104cf57848403895281516104b0858261044b565b94506104bb8361045f565b925060208a01995050600181019050610497565b50829750879550505050505092915050565b600060208201905081810360008301526104fb818461046c565b905092915050565b600082825260208201905092915050565b7f74617267657473206c656e67746820213d2064617461206c656e677468000000600082015250565b600061054a601d83610503565b915061055582610514565b602082019050919050565b600060208201905081810360008301526105798161053d565b9050919050565b7f4e487b7100000000000000000000000000000000000000000000000000000000600052604160045260246000fd5b7f4e487b7100000000000000000000000000000000000000000000000000000000600052603260045260246000fd5b600073ffffffffffffffffffffffffffffffffffffffff82169050919050565b6000610609826105de565b9050919050565b610619816105fe565b811461062457600080fd5b50565b60008135905061063681610610565b92915050565b60006020828403121561065257610651610249565b5b600061066084828501610627565b91505092915050565b600080fd5b600080fd5b600080fd5b6000808335600160200384360303811261069557610694610669565b5b80840192508235915067ffffffffffffffff8211156106b7576106b661066e565b5b6020830192506001820236038313156106d3576106d2610673565b5b509250929050565b600081905092915050565b82818337600083830152505050565b600061070183856106db565b935061070e8385846106e6565b82840190509392505050565b60006107278284866106f5565b91508190509392505050565b7f63616c6c206661696c6564000000000000000000000000000000000000000000600082015250565b6000610769600b83610503565b915061077482610733565b602082019050919050565b600060208201905081810360008301526107988161075c565b9050919050565b7f4e487b7100000000000000000000000000000000000000000000000000000000600052601160045260246000fd5b6000819050919050565b60006107e3826107ce565b91507fffffffffffffffffffffffffffffffffffffffffffffffffffffffffffffffff82036108155761081461079f565b5b60018201905091905056fea26469706673582212208eadc910f1187f16f79715201f0fc0970f0e2e3a1e885695facb8d927df1c82e64736f6c63430008120033",
					"opcodes": "PUSH1 0x80 PUSH1 0x40 MSTORE CALLVALUE DUP1 ISZERO PUSH2 0x10 JUMPI PUSH1 0x0 DUP1 REVERT JUMPDEST POP PUSH2 0x856 DUP1 PUSH2 0x20 PUSH1 0x0 CODECOPY PUSH1 0x0 RETURN INVALID PUSH1 0x80 PUSH1 0x40 MSTORE CALLVALUE DUP1 ISZERO PUSH2 0x10 JUMPI PUSH1 0x0 DUP1 REVERT JUMPDEST POP PUSH1 0x4 CALLDATASIZE LT PUSH2 0x2B JUMPI PUSH1 0x0 CALLDATALOAD PUSH1 0xE0 SHR DUP1 PUSH4 0x63FB0B96 EQ PUSH2 0x30 JUMPI JUMPDEST PUSH1 0x0 DUP1 REVERT JUMPDEST PUSH2 0x4A PUSH1 0x4 DUP1 CALLDATASIZE SUB DUP2 ADD SWAP1 PUSH2 0x45 SWAP2 SWAP1 PUSH2 0x30E JUMP JUMPDEST PUSH2 0x60 JUMP JUMPDEST PUSH1 0x40 MLOAD PUSH2 0x57 SWAP2 SWAP1 PUSH2 0x4E1 JUMP JUMPDEST PUSH1 0x40 MLOAD DUP1 SWAP2 SUB SWAP1 RETURN JUMPDEST PUSH1 0x60 DUP3 DUP3 SWAP1 POP DUP6 DUP6 SWAP1 POP EQ PUSH2 0xAA JUMPI PUSH1 0x40 MLOAD PUSH32 0x8C379A000000000000000000000000000000000000000000000000000000000 DUP2 MSTORE PUSH1 0x4 ADD PUSH2 0xA1 SWAP1 PUSH2 0x560 JUMP JUMPDEST PUSH1 0x40 MLOAD DUP1 SWAP2 SUB SWAP1 REVERT JUMPDEST PUSH1 0x0 DUP4 DUP4 SWAP1 POP PUSH8 0xFFFFFFFFFFFFFFFF DUP2 GT ISZERO PUSH2 0xC9 JUMPI PUSH2 0xC8 PUSH2 0x580 JUMP JUMPDEST JUMPDEST PUSH1 0x40 MLOAD SWAP1 DUP1 DUP3 MSTORE DUP1 PUSH1 0x20 MUL PUSH1 0x20 ADD DUP3 ADD PUSH1 0x40 MSTORE DUP1 ISZERO PUSH2 0xFC JUMPI DUP2 PUSH1 0x20 ADD JUMPDEST PUSH1 0x60 DUP2 MSTORE PUSH1 0x20 ADD SWAP1 PUSH1 0x1 SWAP1 SUB SWAP1 DUP2 PUSH2 0xE7 JUMPI SWAP1 POP JUMPDEST POP SWAP1 POP PUSH1 0x0 JUMPDEST DUP7 DUP7 SWAP1 POP DUP2 LT ISZERO PUSH2 0x23C JUMPI PUSH1 0x0 DUP1 DUP9 DUP9 DUP5 DUP2 DUP2 LT PUSH2 0x123 JUMPI PUSH2 0x122 PUSH2 0x5AF JUMP JUMPDEST JUMPDEST SWAP1 POP PUSH1 0x20 MUL ADD PUSH1 0x20 DUP2 ADD SWAP1 PUSH2 0x138 SWAP2 SWAP1 PUSH2 0x63C JUMP JUMPDEST PUSH20 0xFFFFFFFFFFFFFFFFFFFFFFFFFFFFFFFFFFFFFFFF AND DUP8 DUP8 DUP6 DUP2 DUP2 LT PUSH2 0x161 JUMPI PUSH2 0x160 PUSH2 0x5AF JUMP JUMPDEST JUMPDEST SWAP1 POP PUSH1 0x20 MUL DUP2 ADD SWAP1 PUSH2 0x173 SWAP2 SWAP1 PUSH2 0x678 JUMP JUMPDEST PUSH1 0x40 MLOAD PUSH2 0x181 SWAP3 SWAP2 SWAP1 PUSH2 0x71A JUMP JUMPDEST PUSH1 0x0 PUSH1 0x40 MLOAD DUP1 DUP4 SUB DUP2 PUSH1 0x0 DUP7 GAS CALL SWAP2 POP POP RETURNDATASIZE DUP1 PUSH1 0x0 DUP2 EQ PUSH2 0x1BE JUMPI PUSH1 0x40 MLOAD SWAP2 POP PUSH1 0x1F NOT PUSH1 0x3F RETURNDATASIZE ADD AND DUP3 ADD PUSH1 0x40 MSTORE RETURNDATASIZE DUP3 MSTORE RETURNDATASIZE PUSH1 0x0 PUSH1 0x20 DUP5 ADD RETURNDATACOPY PUSH2 0x1C3 JUMP JUMPDEST PUSH1 0x60 SWAP2 POP JUMPDEST POP SWAP2 POP SWAP2 POP DUP2 PUSH2 0x208 JUMPI PUSH1 0x40 MLOAD PUSH32 0x8C379A000000000000000000000000000000000000000000000000000000000 DUP2 MSTORE PUSH1 0x4 ADD PUSH2 0x1FF SWAP1 PUSH2 0x77F JUMP JUMPDEST PUSH1 0x40 MLOAD DUP1 SWAP2 SUB SWAP1 REVERT JUMPDEST DUP1 DUP5 DUP5 DUP2 MLOAD DUP2 LT PUSH2 0x21C JUMPI PUSH2 0x21B PUSH2 0x5AF JUMP JUMPDEST JUMPDEST PUSH1 0x20 MUL PUSH1 0x20 ADD ADD DUP2 SWAP1 MSTORE POP POP POP DUP1 DUP1 PUSH2 0x234 SWAP1 PUSH2 0x7D8 JUMP JUMPDEST SWAP2 POP POP PUSH2 0x102 JUMP JUMPDEST POP DUP1 SWAP2 POP POP SWAP5 SWAP4 POP POP POP POP JUMP JUMPDEST PUSH1 0x0 DUP1 REVERT JUMPDEST PUSH1 0x0 DUP1 REVERT JUMPDEST PUSH1 0x0 DUP1 REVERT JUMPDEST PUSH1 0x0 DUP1 REVERT JUMPDEST PUSH1 0x0 DUP1 REVERT JUMPDEST PUSH1 0x0 DUP1 DUP4 PUSH1 0x1F DUP5 ADD SLT PUSH2 0x278 JUMPI PUSH2 0x277 PUSH2 0x253 JUMP JUMPDEST JUMPDEST DUP3 CALLDATALOAD SWAP1 POP PUSH8 0xFFFFFFFFFFFFFFFF DUP2 GT ISZERO PUSH2 0x295 JUMPI PUSH2 0x294 PUSH2 0x258 JUMP JUMPDEST JUMPDEST PUSH1 0x20 DUP4 ADD SWAP2 POP DUP4 PUSH1 0x20 DUP3 MUL DUP4 ADD GT ISZERO PUSH2 0x2B1 JUMPI PUSH2 0x2B0 PUSH2 0x25D JUMP JUMPDEST JUMPDEST SWAP3 POP SWAP3 SWAP1 POP JUMP JUMPDEST PUSH1 0x0 DUP1 DUP4 PUSH1 0x1F DUP5 ADD SLT PUSH2 0x2CE JUMPI PUSH2 0x2CD PUSH2 0x253 JUMP JUMPDEST JUMPDEST DUP3 CALLDATALOAD SWAP1 POP PUSH8 0xFFFFFFFFFFFFFFFF DUP2 GT ISZERO PUSH2 0x2EB JUMPI PUSH2 0x2EA PUSH2 0x258 JUMP JUMPDEST JUMPDEST PUSH1 0x20 DUP4 ADD SWAP2 POP DUP4 PUSH1 0x20 DUP3 MUL DUP4 ADD GT ISZERO PUSH2 0x307 JUMPI PUSH2 0x306 PUSH2 0x25D JUMP JUMPDEST JUMPDEST SWAP3 POP SWAP3 SWAP1 POP JUMP JUMPDEST PUSH1 0x0 DUP1 PUSH1 0x0 DUP1 PUSH1 0x40 DUP6 DUP8 SUB SLT ISZERO PUSH2 0x328 JUMPI PUSH2 0x327 PUSH2 0x249 JUMP JUMPDEST JUMPDEST PUSH1 0x0 DUP6 ADD CALLDATALOAD PUSH8 0xFFFFFFFFFFFFFFFF DUP2 GT ISZERO PUSH2 0x346 JUMPI PUSH2 0x345 PUSH2 0x24E JUMP JUMPDEST JUMPDEST PUSH2 0x352 DUP8 DUP3 DUP9 ADD PUSH2 0x262 JUMP JUMPDEST SWAP5 POP SWAP5 POP POP PUSH1 0x20 DUP6 ADD CALLDATALOAD PUSH8 0xFFFFFFFFFFFFFFFF DUP2 GT ISZERO PUSH2 0x375 JUMPI PUSH2 0x374 PUSH2 0x24E JUMP JUMPDEST JUMPDEST PUSH2 0x381 DUP8 DUP3 DUP9 ADD PUSH2 0x2B8 JUMP JUMPDEST SWAP3 POP SWAP3 POP POP SWAP3 SWAP6 SWAP2 SWAP5 POP SWAP3 POP JUMP JUMPDEST PUSH1 0x0 DUP2 MLOAD SWAP1 POP SWAP2 SWAP1 POP JUMP JUMPDEST PUSH1 0x0 DUP3 DUP3 MSTORE PUSH1 0x20 DUP3 ADD SWAP1 POP SWAP3 SWAP2 POP POP JUMP JUMPDEST PUSH1 0x0 DUP2 SWAP1 POP PUSH1 0x20 DUP3 ADD SWAP1 POP SWAP2 SWAP1 POP JUMP JUMPDEST PUSH1 0x0 DUP2 MLOAD SWAP1 POP SWAP2 SWAP1 POP JUMP JUMPDEST PUSH1 0x0 DUP3 DUP3 MSTORE PUSH1 0x20 DUP3 ADD SWAP1 POP SWAP3 SWAP2 POP POP JUMP JUMPDEST PUSH1 0x0 JUMPDEST DUP4 DUP2 LT ISZERO PUSH2 0x3F5 JUMPI DUP1 DUP3 ADD MLOAD DUP2 DUP5 ADD MSTORE PUSH1 0x20 DUP2 ADD SWAP1 POP PUSH2 0x3DA JUMP JUMPDEST PUSH1 0x0 DUP5 DUP5 ADD MSTORE POP POP POP POP JUMP JUMPDEST PUSH1 0x0 PUSH1 0x1F NOT PUSH1 0x1F DUP4 ADD AND SWAP1 POP SWAP2 SWAP1 POP JUMP JUMPDEST PUSH1 0x0 PUSH2 0x41D DUP3 PUSH2 0x3BB JUMP JUMPDEST PUSH2 0x427 DUP2 DUP6 PUSH2 0x3C6 JUMP JUMPDEST SWAP4 POP PUSH2 0x437 DUP2 DUP6 PUSH1 0x20 DUP7 ADD PUSH2 0x3D7 JUMP JUMPDEST PUSH2 0x440 DUP2 PUSH2 0x401 JUMP JUMPDEST DUP5 ADD SWAP2 POP POP SWAP3 SWAP2 POP POP JUMP JUMPDEST PUSH1 0x0 PUSH2 0x457 DUP4 DUP4 PUSH2 0x412 JUMP JUMPDEST SWAP1 POP SWAP3 SWAP2 POP POP JUMP JUMPDEST PUSH1 0x0 PUSH1 0x20 DUP3 ADD SWAP1 POP SWAP2 SWAP1 POP JUMP JUMPDEST PUSH1 0x0 PUSH2 0x477 DUP3 PUSH2 0x38F JUMP JUMPDEST PUSH2 0x481 DUP2 DUP6 PUSH2 0x39A JUMP JUMPDEST SWAP4 POP DUP4 PUSH1 0x20 DUP3 MUL DUP6 ADD PUSH2 0x493 DUP6 PUSH2 0x3AB JUMP JUMPDEST DUP1 PUSH1 0x0 JUMPDEST DUP6 DUP2 LT ISZERO PUSH2 0x4CF JUMPI DUP5 DUP5 SUB DUP10 MSTORE DUP2 MLOAD PUSH2 0x4B0 DUP6 DUP3 PUSH2 0x44B JUMP JUMPDEST SWAP5 POP PUSH2 0x4BB DUP4 PUSH2 0x45F JUMP JUMPDEST SWAP3 POP PUSH1 0x20 DUP11 ADD SWAP10 POP POP PUSH1 0x1 DUP2 ADD SWAP1 POP PUSH2 0x497 JUMP JUMPDEST POP DUP3 SWAP8 POP DUP8 SWAP6 POP POP POP POP POP POP SWAP3 SWAP2 POP POP JUMP JUMPDEST PUSH1 0x0 PUSH1 0x20 DUP3 ADD SWAP1 POP DUP2 DUP2 SUB PUSH1 0x0 DUP4 ADD MSTORE PUSH2 0x4FB DUP2 DUP5 PUSH2 0x46C JUMP JUMPDEST SWAP1 POP SWAP3 SWAP2 POP POP JUMP JUMPDEST PUSH1 0x0 DUP3 DUP3 MSTORE PUSH1 0x20 DUP3 ADD SWAP1 POP SWAP3 SWAP2 POP POP JUMP JUMPDEST PUSH32 0x74617267657473206C656E67746820213D2064617461206C656E677468000000 PUSH1 0x0 DUP3 ADD MSTORE POP JUMP JUMPDEST PUSH1 0x0 PUSH2 0x54A PUSH1 0x1D DUP4 PUSH2 0x503 JUMP JUMPDEST SWAP2 POP PUSH2 0x555 DUP3 PUSH2 0x514 JUMP JUMPDEST PUSH1 0x20 DUP3 ADD SWAP1 POP SWAP2 SWAP1 POP JUMP JUMPDEST PUSH1 0x0 PUSH1 0x20 DUP3 ADD SWAP1 POP DUP2 DUP2 SUB PUSH1 0x0 DUP4 ADD MSTORE PUSH2 0x579 DUP2 PUSH2 0x53D JUMP JUMPDEST SWAP1 POP SWAP2 SWAP1 POP JUMP JUMPDEST PUSH32 0x4E487B7100000000000000000000000000000000000000000000000000000000 PUSH1 0x0 MSTORE PUSH1 0x41 PUSH1 0x4 MSTORE PUSH1 0x24 PUSH1 0x0 REVERT JUMPDEST PUSH32 0x4E487B7100000000000000000000000000000000000000000000000000000000 PUSH1 0x0 MSTORE PUSH1 0x32 PUSH1 0x4 MSTORE PUSH1 0x24 PUSH1 0x0 REVERT JUMPDEST PUSH1 0x0 PUSH20 0xFFFFFFFFFFFFFFFFFFFFFFFFFFFFFFFFFFFFFFFF DUP3 AND SWAP1 POP SWAP2 SWAP1 POP JUMP JUMPDEST PUSH1 0x0 PUSH2 0x609 DUP3 PUSH2 0x5DE JUMP JUMPDEST SWAP1 POP SWAP2 SWAP1 POP JUMP JUMPDEST PUSH2 0x619 DUP2 PUSH2 0x5FE JUMP JUMPDEST DUP2 EQ PUSH2 0x624 JUMPI PUSH1 0x0 DUP1 REVERT JUMPDEST POP JUMP JUMPDEST PUSH1 0x0 DUP2 CALLDATALOAD SWAP1 POP PUSH2 0x636 DUP2 PUSH2 0x610 JUMP JUMPDEST SWAP3 SWAP2 POP POP JUMP JUMPDEST PUSH1 0x0 PUSH1 0x20 DUP3 DUP5 SUB SLT ISZERO PUSH2 0x652 JUMPI PUSH2 0x651 PUSH2 0x249 JUMP JUMPDEST JUMPDEST PUSH1 0x0 PUSH2 0x660 DUP5 DUP3 DUP6 ADD PUSH2 0x627 JUMP JUMPDEST SWAP2 POP POP SWAP3 SWAP2 POP POP JUMP JUMPDEST PUSH1 0x0 DUP1 REVERT JUMPDEST PUSH1 0x0 DUP1 REVERT JUMPDEST PUSH1 0x0 DUP1 REVERT JUMPDEST PUSH1 0x0 DUP1 DUP4 CALLDATALOAD PUSH1 0x1 PUSH1 0x20 SUB DUP5 CALLDATASIZE SUB SUB DUP2 SLT PUSH2 0x695 JUMPI PUSH2 0x694 PUSH2 0x669 JUMP JUMPDEST JUMPDEST DUP1 DUP5 ADD SWAP3 POP DUP3 CALLDATALOAD SWAP2 POP PUSH8 0xFFFFFFFFFFFFFFFF DUP3 GT ISZERO PUSH2 0x6B7 JUMPI PUSH2 0x6B6 PUSH2 0x66E JUMP JUMPDEST JUMPDEST PUSH1 0x20 DUP4 ADD SWAP3 POP PUSH1 0x1 DUP3 MUL CALLDATASIZE SUB DUP4 SGT ISZERO PUSH2 0x6D3 JUMPI PUSH2 0x6D2 PUSH2 0x673 JUMP JUMPDEST JUMPDEST POP SWAP3 POP SWAP3 SWAP1 POP JUMP JUMPDEST PUSH1 0x0 DUP2 SWAP1 POP SWAP3 SWAP2 POP POP JUMP JUMPDEST DUP3 DUP2 DUP4 CALLDATACOPY PUSH1 0x0 DUP4 DUP4 ADD MSTORE POP POP POP JUMP JUMPDEST PUSH1 0x0 PUSH2 0x701 DUP4 DUP6 PUSH2 0x6DB JUMP JUMPDEST SWAP4 POP PUSH2 0x70E DUP4 DUP6 DUP5 PUSH2 0x6E6 JUMP JUMPDEST DUP3 DUP5 ADD SWAP1 POP SWAP4 SWAP3 POP POP POP JUMP JUMPDEST PUSH1 0x0 PUSH2 0x727 DUP3 DUP5 DUP7 PUSH2 0x6F5 JUMP JUMPDEST SWAP2 POP DUP2 SWAP1 POP SWAP4 SWAP3 POP POP POP JUMP JUMPDEST PUSH32 0x63616C6C206661696C6564000000000000000000000000000000000000000000 PUSH1 0x0 DUP3 ADD MSTORE POP JUMP JUMPDEST PUSH1 0x0 PUSH2 0x769 PUSH1 0xB DUP4 PUSH2 0x503 JUMP JUMPDEST SWAP2 POP PUSH2 0x774 DUP3 PUSH2 0x733 JUMP JUMPDEST PUSH1 0x20 DUP3 ADD SWAP1 POP SWAP2 SWAP1 POP JUMP JUMPDEST PUSH1 0x0 PUSH1 0x20 DUP3 ADD SWAP1 POP DUP2 DUP2 SUB PUSH1 0x0 DUP4 ADD MSTORE PUSH2 0x798 DUP2 PUSH2 0x75C JUMP JUMPDEST SWAP1 POP SWAP2 SWAP1 POP JUMP JUMPDEST PUSH32 0x4E487B7100000000000000000000000000000000000000000000000000000000 PUSH1 0x0 MSTORE PUSH1 0x11 PUSH1 0x4 MSTORE PUSH1 0x24 PUSH1 0x0 REVERT JUMPDEST PUSH1 0x0 DUP2 SWAP1 POP SWAP2 SWAP1 POP JUMP JUMPDEST PUSH1 0x0 PUSH2 0x7E3 DUP3 PUSH2 0x7CE JUMP JUMPDEST SWAP2 POP PUSH32 0xFFFFFFFFFFFFFFFFFFFFFFFFFFFFFFFFFFFFFFFFFFFFFFFFFFFFFFFFFFFFFFFF DUP3 SUB PUSH2 0x815 JUMPI PUSH2 0x814 PUSH2 0x79F JUMP JUMPDEST JUMPDEST PUSH1 0x1 DUP3 ADD SWAP1 POP SWAP2 SWAP1 POP JUMP INVALID LOG2 PUSH5 0x6970667358 0x22 SLT KECCAK256 DUP15 0xAD 0xC9 LT CALL XOR PUSH32 0x16F79715201F0FC0970F0E2E3A1E885695FACB8D927DF1C82E64736F6C634300 ADDMOD SLT STOP CALLER "
				},
				"gasEstimates": {
					"creation": {
						"codeDepositCost": "426800",
						"executionCost": "461",
						"totalCost": "427261"
					},
					"external": {
						"multicall(address[],bytes[])": "infinite"
					}
				},
				"methodIdentifiers": {
					"multicall(address[],bytes[])": "63fb0b96"
				}
			},
			"storageLayout": {
				"storage": [],
				"types": null
			},
			"userdoc": {
				"kind": "user",
				"methods": {},
				"version": 1
			}
		}
	}
}