{
	"data": {
		"bytecode": {
			"linkReferences": {},
			"object": "608060405234801561001057600080fd5b50610666806100206000396000f3fe608060405234801561001057600080fd5b506004361061009e5760003560e01c8063903b984211610066578063903b9842146101935780639ed41ba1146101c3578063a589d212146101f3578063e6bcbc6514610223578063ecc43a0e146102535761009e565b8063097c2cb2146100a35780630a7d4a39146100d35780631180f8c3146101035780631685fa981461013357806321a9529614610163575b600080fd5b6100bd60048036038101906100b891906103ab565b610283565b6040516100ca91906103fa565b60405180910390f35b6100ed60048036038101906100e89190610415565b610290565b6040516100fa91906103fa565b60405180910390f35b61011d600480360381019061011891906104a1565b6102c1565b60405161012a91906104dd565b60405180910390f35b61014d600480360381019061014891906103ab565b6102cc565b60405161015a91906103fa565b60405180910390f35b61017d600480360381019061017891906103ab565b6102da565b60405161018a91906103fa565b60405180910390f35b6101ad60048036038101906101a891906103ab565b6102fc565b6040516101ba91906103fa565b60405180910390f35b6101dd60048036038101906101d891906103ab565b610309565b6040516101ea91906103fa565b60405180910390f35b61020d600480360381019061020891906103ab565b610316565b60405161021a91906103fa565b60405180910390f35b61023d600480360381019061023891906104f8565b610324565b60405161024a91906103fa565b60405180910390f35b61026d600480360381019061026891906103ab565b610356565b60405161027a91906103fa565b60405180910390f35b6000818317905092915050565b600080838361029f9190610554565b6001856001901b6102b09190610554565b901b90508085169150509392505050565b600081199050919050565b60008183901c905092915050565b6000806001836001901b6102ee9190610554565b905080841691505092915050565b6000818316905092915050565b6000818318905092915050565b60008183901b905092915050565b600080600090505b6000600184901c935083111561034d578061034690610588565b905061032c565b80915050919050565b6000816001901b8361036891906105ff565b905092915050565b600080fd5b6000819050919050565b61038881610375565b811461039357600080fd5b50565b6000813590506103a58161037f565b92915050565b600080604083850312156103c2576103c1610370565b5b60006103d085828601610396565b92505060206103e185828601610396565b9150509250929050565b6103f481610375565b82525050565b600060208201905061040f60008301846103eb565b92915050565b60008060006060848603121561042e5761042d610370565b5b600061043c86828701610396565b935050602061044d86828701610396565b925050604061045e86828701610396565b9150509250925092565b600060ff82169050919050565b61047e81610468565b811461048957600080fd5b50565b60008135905061049b81610475565b92915050565b6000602082840312156104b7576104b6610370565b5b60006104c58482850161048c565b91505092915050565b6104d781610468565b82525050565b60006020820190506104f260008301846104ce565b92915050565b60006020828403121561050e5761050d610370565b5b600061051c84828501610396565b91505092915050565b7f4e487b7100000000000000000000000000000000000000000000000000000000600052601160045260246000fd5b600061055f82610375565b915061056a83610375565b925082820390508181111561058257610581610525565b5b92915050565b600061059382610375565b91507fffffffffffffffffffffffffffffffffffffffffffffffffffffffffffffffff82036105c5576105c4610525565b5b600182019050919050565b7f4e487b7100000000000000000000000000000000000000000000000000000000600052601260045260246000fd5b600061060a82610375565b915061061583610375565b925082610625576106246105d0565b5b82820690509291505056fea2646970667358221220dfa0fc25d6960765f3f0888228597b6d938aa0e2e15caa7c7a499e28a575948464736f6c63430008120033",
			"opcodes": "PUSH1 0x80 PUSH1 0x40 MSTORE CALLVALUE DUP1 ISZERO PUSH2 0x10 JUMPI PUSH1 0x0 DUP1 REVERT JUMPDEST POP PUSH2 0x666 DUP1 PUSH2 0x20 PUSH1 0x0 CODECOPY PUSH1 0x0 RETURN INVALID PUSH1 0x80 PUSH1 0x40 MSTORE CALLVALUE DUP1 ISZERO PUSH2 0x10 JUMPI PUSH1 0x0 DUP1 REVERT JUMPDEST POP PUSH1 0x4 CALLDATASIZE LT PUSH2 0x9E JUMPI PUSH1 0x0 CALLDATALOAD PUSH1 0xE0 SHR DUP1 PUSH4 0x903B9842 GT PUSH2 0x66 JUMPI DUP1 PUSH4 0x903B9842 EQ PUSH2 0x193 JUMPI DUP1 PUSH4 0x9ED41BA1 EQ PUSH2 0x1C3 JUMPI DUP1 PUSH4 0xA589D212 EQ PUSH2 0x1F3 JUMPI DUP1 PUSH4 0xE6BCBC65 EQ PUSH2 0x223 JUMPI DUP1 PUSH4 0xECC43A0E EQ PUSH2 0x253 JUMPI PUSH2 0x9E JUMP JUMPDEST DUP1 PUSH4 0x97C2CB2 EQ PUSH2 0xA3 JUMPI DUP1 PUSH4 0xA7D4A39 EQ PUSH2 0xD3 JUMPI DUP1 PUSH4 0x1180F8C3 EQ PUSH2 0x103 JUMPI DUP1 PUSH4 0x1685FA98 EQ PUSH2 0x133 JUMPI DUP1 PUSH4 0x21A95296 EQ PUSH2 0x163 JUMPI JUMPDEST PUSH1 0x0 DUP1 REVERT JUMPDEST PUSH2 0xBD PUSH1 0x4 DUP1 CALLDATASIZE SUB DUP2 ADD SWAP1 PUSH2 0xB8 SWAP2 SWAP1 PUSH2 0x3AB JUMP JUMPDEST PUSH2 0x283 JUMP JUMPDEST PUSH1 0x40 MLOAD PUSH2 0xCA SWAP2 SWAP1 PUSH2 0x3FA JUMP JUMPDEST PUSH1 0x40 MLOAD DUP1 SWAP2 SUB SWAP1 RETURN JUMPDEST PUSH2 0xED PUSH1 0x4 DUP1 CALLDATASIZE SUB DUP2 ADD SWAP1 PUSH2 0xE8 SWAP2 SWAP1 PUSH2 0x415 JUMP JUMPDEST PUSH2 0x290 JUMP JUMPDEST PUSH1 0x40 MLOAD PUSH2 0xFA SWAP2 SWAP1 PUSH2 0x3FA JUMP JUMPDEST PUSH1 0x40 MLOAD DUP1 SWAP2 SUB SWAP1 RETURN JUMPDEST PUSH2 0x11D PUSH1 0x4 DUP1 CALLDATASIZE SUB DUP2 ADD SWAP1 PUSH2 0x118 SWAP2 SWAP1 PUSH2 0x4A1 JUMP JUMPDEST PUSH2 0x2C1 JUMP JUMPDEST PUSH1 0x40 MLOAD PUSH2 0x12A SWAP2 SWAP1 PUSH2 0x4DD JUMP JUMPDEST PUSH1 0x40 MLOAD DUP1 SWAP2 SUB SWAP1 RETURN JUMPDEST PUSH2 0x14D PUSH1 0x4 DUP1 CALLDATASIZE SUB DUP2 ADD SWAP1 PUSH2 0x148 SWAP2 SWAP1 PUSH2 0x3AB JUMP JUMPDEST PUSH2 0x2CC JUMP JUMPDEST PUSH1 0x40 MLOAD PUSH2 0x15A SWAP2 SWAP1 PUSH2 0x3FA JUMP JUMPDEST PUSH1 0x40 MLOAD DUP1 SWAP2 SUB SWAP1 RETURN JUMPDEST PUSH2 0x17D PUSH1 0x4 DUP1 CALLDATASIZE SUB DUP2 ADD SWAP1 PUSH2 0x178 SWAP2 SWAP1 PUSH2 0x3AB JUMP JUMPDEST PUSH2 0x2DA JUMP JUMPDEST PUSH1 0x40 MLOAD PUSH2 0x18A SWAP2 SWAP1 PUSH2 0x3FA JUMP JUMPDEST PUSH1 0x40 MLOAD DUP1 SWAP2 SUB SWAP1 RETURN JUMPDEST PUSH2 0x1AD PUSH1 0x4 DUP1 CALLDATASIZE SUB DUP2 ADD SWAP1 PUSH2 0x1A8 SWAP2 SWAP1 PUSH2 0x3AB JUMP JUMPDEST PUSH2 0x2FC JUMP JUMPDEST PUSH1 0x40 MLOAD PUSH2 0x1BA SWAP2 SWAP1 PUSH2 0x3FA JUMP JUMPDEST PUSH1 0x40 MLOAD DUP1 SWAP2 SUB SWAP1 RETURN JUMPDEST PUSH2 0x1DD PUSH1 0x4 DUP1 CALLDATASIZE SUB DUP2 ADD SWAP1 PUSH2 0x1D8 SWAP2 SWAP1 PUSH2 0x3AB JUMP JUMPDEST PUSH2 0x309 JUMP JUMPDEST PUSH1 0x40 MLOAD PUSH2 0x1EA SWAP2 SWAP1 PUSH2 0x3FA JUMP JUMPDEST PUSH1 0x40 MLOAD DUP1 SWAP2 SUB SWAP1 RETURN JUMPDEST PUSH2 0x20D PUSH1 0x4 DUP1 CALLDATASIZE SUB DUP2 ADD SWAP1 PUSH2 0x208 SWAP2 SWAP1 PUSH2 0x3AB JUMP JUMPDEST PUSH2 0x316 JUMP JUMPDEST PUSH1 0x40 MLOAD PUSH2 0x21A SWAP2 SWAP1 PUSH2 0x3FA JUMP JUMPDEST PUSH1 0x40 MLOAD DUP1 SWAP2 SUB SWAP1 RETURN JUMPDEST PUSH2 0x23D PUSH1 0x4 DUP1 CALLDATASIZE SUB DUP2 ADD SWAP1 PUSH2 0x238 SWAP2 SWAP1 PUSH2 0x4F8 JUMP JUMPDEST PUSH2 0x324 JUMP JUMPDEST PUSH1 0x40 MLOAD PUSH2 0x24A SWAP2 SWAP1 PUSH2 0x3FA JUMP JUMPDEST PUSH1 0x40 MLOAD DUP1 SWAP2 SUB SWAP1 RETURN JUMPDEST PUSH2 0x26D PUSH1 0x4 DUP1 CALLDATASIZE SUB DUP2 ADD SWAP1 PUSH2 0x268 SWAP2 SWAP1 PUSH2 0x3AB JUMP JUMPDEST PUSH2 0x356 JUMP JUMPDEST PUSH1 0x40 MLOAD PUSH2 0x27A SWAP2 SWAP1 PUSH2 0x3FA JUMP JUMPDEST PUSH1 0x40 MLOAD DUP1 SWAP2 SUB SWAP1 RETURN JUMPDEST PUSH1 0x0 DUP2 DUP4 OR SWAP1 POP SWAP3 SWAP2 POP POP JUMP JUMPDEST PUSH1 0x0 DUP1 DUP4 DUP4 PUSH2 0x29F SWAP2 SWAP1 PUSH2 0x554 JUMP JUMPDEST PUSH1 0x1 DUP6 PUSH1 0x1 SWAP1 SHL PUSH2 0x2B0 SWAP2 SWAP1 PUSH2 0x554 JUMP JUMPDEST SWAP1 SHL SWAP1 POP DUP1 DUP6 AND SWAP2 POP POP SWAP4 SWAP3 POP POP POP JUMP JUMPDEST PUSH1 0x0 DUP2 NOT SWAP1 POP SWAP2 SWAP1 POP JUMP JUMPDEST PUSH1 0x0 DUP2 DUP4 SWAP1 SHR SWAP1 POP SWAP3 SWAP2 POP POP JUMP JUMPDEST PUSH1 0x0 DUP1 PUSH1 0x1 DUP4 PUSH1 0x1 SWAP1 SHL PUSH2 0x2EE SWAP2 SWAP1 PUSH2 0x554 JUMP JUMPDEST SWAP1 POP DUP1 DUP5 AND SWAP2 POP POP SWAP3 SWAP2 POP POP JUMP JUMPDEST PUSH1 0x0 DUP2 DUP4 AND SWAP1 POP SWAP3 SWAP2 POP POP JUMP JUMPDEST PUSH1 0x0 DUP2 DUP4 XOR SWAP1 POP SWAP3 SWAP2 POP POP JUMP JUMPDEST PUSH1 0x0 DUP2 DUP4 SWAP1 SHL SWAP1 POP SWAP3 SWAP2 POP POP JUMP JUMPDEST PUSH1 0x0 DUP1 PUSH1 0x0 SWAP1 POP JUMPDEST PUSH1 0x0 PUSH1 0x1 DUP5 SWAP1 SHR SWAP4 POP DUP4 GT ISZERO PUSH2 0x34D JUMPI DUP1 PUSH2 0x346 SWAP1 PUSH2 0x588 JUMP JUMPDEST SWAP1 POP PUSH2 0x32C JUMP JUMPDEST DUP1 SWAP2 POP POP SWAP2 SWAP1 POP JUMP JUMPDEST PUSH1 0x0 DUP2 PUSH1 0x1 SWAP1 SHL DUP4 PUSH2 0x368 SWAP2 SWAP1 PUSH2 0x5FF JUMP JUMPDEST SWAP1 POP SWAP3 SWAP2 POP POP JUMP JUMPDEST PUSH1 0x0 DUP1 REVERT JUMPDEST PUSH1 0x0 DUP2 SWAP1 POP SWAP2 SWAP1 POP JUMP JUMPDEST PUSH2 0x388 DUP2 PUSH2 0x375 JUMP JUMPDEST DUP2 EQ PUSH2 0x393 JUMPI PUSH1 0x0 DUP1 REVERT JUMPDEST POP JUMP JUMPDEST PUSH1 0x0 DUP2 CALLDATALOAD SWAP1 POP PUSH2 0x3A5 DUP2 PUSH2 0x37F JUMP JUMPDEST SWAP3 SWAP2 POP POP JUMP JUMPDEST PUSH1 0x0 DUP1 PUSH1 0x40 DUP4 DUP6 SUB SLT ISZERO PUSH2 0x3C2 JUMPI PUSH2 0x3C1 PUSH2 0x370 JUMP JUMPDEST JUMPDEST PUSH1 0x0 PUSH2 0x3D0 DUP6 DUP3 DUP7 ADD PUSH2 0x396 JUMP JUMPDEST SWAP3 POP POP PUSH1 0x20 PUSH2 0x3E1 DUP6 DUP3 DUP7 ADD PUSH2 0x396 JUMP JUMPDEST SWAP2 POP POP SWAP3 POP SWAP3 SWAP1 POP JUMP JUMPDEST PUSH2 0x3F4 DUP2 PUSH2 0x375 JUMP JUMPDEST DUP3 MSTORE POP POP JUMP JUMPDEST PUSH1 0x0 PUSH1 0x20 DUP3 ADD SWAP1 POP PUSH2 0x40F PUSH1 0x0 DUP4 ADD DUP5 PUSH2 0x3EB JUMP JUMPDEST SWAP3 SWAP2 POP POP JUMP JUMPDEST PUSH1 0x0 DUP1 PUSH1 0x0 PUSH1 0x60 DUP5 DUP7 SUB SLT ISZERO PUSH2 0x42E JUMPI PUSH2 0x42D PUSH2 0x370 JUMP JUMPDEST JUMPDEST PUSH1 0x0 PUSH2 0x43C DUP7 DUP3 DUP8 ADD PUSH2 0x396 JUMP JUMPDEST SWAP4 POP POP PUSH1 0x20 PUSH2 0x44D DUP7 DUP3 DUP8 ADD PUSH2 0x396 JUMP JUMPDEST SWAP3 POP POP PUSH1 0x40 PUSH2 0x45E DUP7 DUP3 DUP8 ADD PUSH2 0x396 JUMP JUMPDEST SWAP2 POP POP SWAP3 POP SWAP3 POP SWAP3 JUMP JUMPDEST PUSH1 0x0 PUSH1 0xFF DUP3 AND SWAP1 POP SWAP2 SWAP1 POP JUMP JUMPDEST PUSH2 0x47E DUP2 PUSH2 0x468 JUMP JUMPDEST DUP2 EQ PUSH2 0x489 JUMPI PUSH1 0x0 DUP1 REVERT JUMPDEST POP JUMP JUMPDEST PUSH1 0x0 DUP2 CALLDATALOAD SWAP1 POP PUSH2 0x49B DUP2 PUSH2 0x475 JUMP JUMPDEST SWAP3 SWAP2 POP POP JUMP JUMPDEST PUSH1 0x0 PUSH1 0x20 DUP3 DUP5 SUB SLT ISZERO PUSH2 0x4B7 JUMPI PUSH2 0x4B6 PUSH2 0x370 JUMP JUMPDEST JUMPDEST PUSH1 0x0 PUSH2 0x4C5 DUP5 DUP3 DUP6 ADD PUSH2 0x48C JUMP JUMPDEST SWAP2 POP POP SWAP3 SWAP2 POP POP JUMP JUMPDEST PUSH2 0x4D7 DUP2 PUSH2 0x468 JUMP JUMPDEST DUP3 MSTORE POP POP JUMP JUMPDEST PUSH1 0x0 PUSH1 0x20 DUP3 ADD SWAP1 POP PUSH2 0x4F2 PUSH1 0x0 DUP4 ADD DUP5 PUSH2 0x4CE JUMP JUMPDEST SWAP3 SWAP2 POP POP JUMP JUMPDEST PUSH1 0x0 PUSH1 0x20 DUP3 DUP5 SUB SLT ISZERO PUSH2 0x50E JUMPI PUSH2 0x50D PUSH2 0x370 JUMP JUMPDEST JUMPDEST PUSH1 0x0 PUSH2 0x51C DUP5 DUP3 DUP6 ADD PUSH2 0x396 JUMP JUMPDEST SWAP2 POP POP SWAP3 SWAP2 POP POP JUMP JUMPDEST PUSH32 0x4E487B7100000000000000000000000000000000000000000000000000000000 PUSH1 0x0 MSTORE PUSH1 0x11 PUSH1 0x4 MSTORE PUSH1 0x24 PUSH1 0x0 REVERT JUMPDEST PUSH1 0x0 PUSH2 0x55F DUP3 PUSH2 0x375 JUMP JUMPDEST SWAP2 POP PUSH2 0x56A DUP4 PUSH2 0x375 JUMP JUMPDEST SWAP3 POP DUP3 DUP3 SUB SWAP1 POP DUP2 DUP2 GT ISZERO PUSH2 0x582 JUMPI PUSH2 0x581 PUSH2 0x525 JUMP JUMPDEST JUMPDEST SWAP3 SWAP2 POP POP JUMP JUMPDEST PUSH1 0x0 PUSH2 0x593 DUP3 PUSH2 0x375 JUMP JUMPDEST SWAP2 POP PUSH32 0xFFFFFFFFFFFFFFFFFFFFFFFFFFFFFFFFFFFFFFFFFFFFFFFFFFFFFFFFFFFFFFFF DUP3 SUB PUSH2 0x5C5 JUMPI PUSH2 0x5C4 PUSH2 0x525 JUMP JUMPDEST JUMPDEST PUSH1 0x1 DUP3 ADD SWAP1 POP SWAP2 SWAP1 POP JUMP JUMPDEST PUSH32 0x4E487B7100000000000000000000000000000000000000000000000000000000 PUSH1 0x0 MSTORE PUSH1 0x12 PUSH1 0x4 MSTORE PUSH1 0x24 PUSH1 0x0 REVERT JUMPDEST PUSH1 0x0 PUSH2 0x60A DUP3 PUSH2 0x375 JUMP JUMPDEST SWAP2 POP PUSH2 0x615 DUP4 PUSH2 0x375 JUMP JUMPDEST SWAP3 POP DUP3 PUSH2 0x625 JUMPI PUSH2 0x624 PUSH2 0x5D0 JUMP JUMPDEST JUMPDEST DUP3 DUP3 MOD SWAP1 POP SWAP3 SWAP2 POP POP JUMP INVALID LOG2 PUSH5 0x6970667358 0x22 SLT KECCAK256 0xDF LOG0 0xFC 0x25 0xD6 SWAP7 SMOD PUSH6 0xF3F088822859 PUSH28 0x6D938AA0E2E15CAA7C7A499E28A575948464736F6C63430008120033 "
		},
		"gasEstimates": {
			"creation": {
				"codeDepositCost": "327600",
				"executionCost": "368",
				"totalCost": "327968"
			},
			"external": {
				"and(uint256,uint256)": "infinite",
				"getFirstNBits(uint256,uint256,uint256)": "infinite",
				"getLastNBits(uint256,uint256)": "infinite",
				"getLastNBitsUsingMod(uint256,uint256)": "infinite",
				"mostSignificantBit(uint256)": "infinite",
				"not(uint8)": "infinite",
				"or(uint256,uint256)": "infinite",
				"shiftLeft(uint256,uint256)": "infinite",
				"shiftRight(uint256,uint256)": "infinite",
				"xor(uint256,uint256)": "infinite"
			}
		},
		"methodIdentifiers": {
			"and(uint256,uint256)": "903b9842",
			"getFirstNBits(uint256,uint256,uint256)": "0a7d4a39",
			"getLastNBits(uint256,uint256)": "21a95296",
			"getLastNBitsUsingMod(uint256,uint256)": "ecc43a0e",
			"mostSignificantBit(uint256)": "e6bcbc65",
			"not(uint8)": "1180f8c3",
			"or(uint256,uint256)": "097c2cb2",
			"shiftLeft(uint256,uint256)": "a589d212",
			"shiftRight(uint256,uint256)": "1685fa98",
			"xor(uint256,uint256)": "9ed41ba1"
		}
	},
	"abi": [
		{
			"inputs": [
				{
					"internalType": "uint256",
					"name": "x",
					"type": "uint256"
				},
				{
					"internalType": "uint256",
					"name": "y",
					"type": "uint256"
				}
			],
			"name": "and",
			"outputs": [
				{
					"internalType": "uint256",
					"name": "",
					"type": "uint256"
				}
			],
			"stateMutability": "pure",
			"type": "function"
		},
		{
			"inputs": [
				{
					"internalType": "uint256",
					"name": "x",
					"type": "uint256"
				},
				{
					"internalType": "uint256",
					"name": "n",
					"type": "uint256"
				},
				{
					"internalType": "uint256",
					"name": "len",
					"type": "uint256"
				}
			],
			"name": "getFirstNBits",
			"outputs": [
				{
					"internalType": "uint256",
					"name": "",
					"type": "uint256"
				}
			],
			"stateMutability": "pure",
			"type": "function"
		},
		{
			"inputs": [
				{
					"internalType": "uint256",
					"name": "x",
					"type": "uint256"
				},
				{
					"internalType": "uint256",
					"name": "n",
					"type": "uint256"
				}
			],
			"name": "getLastNBits",
			"outputs": [
				{
					"internalType": "uint256",
					"name": "",
					"type": "uint256"
				}
			],
			"stateMutability": "pure",
			"type": "function"
		},
		{
			"inputs": [
				{
					"internalType": "uint256",
					"name": "x",
					"type": "uint256"
				},
				{
					"internalType": "uint256",
					"name": "n",
					"type": "uint256"
				}
			],
			"name": "getLastNBitsUsingMod",
			"outputs": [
				{
					"internalType": "uint256",
					"name": "",
					"type": "uint256"
				}
			],
			"stateMutability": "pure",
			"type": "function"
		},
		{
			"inputs": [
				{
					"internalType": "uint256",
					"name": "x",
					"type": "uint256"
				}
			],
			"name": "mostSignificantBit",
			"outputs": [
				{
					"internalType": "uint256",
					"name": "",
					"type": "uint256"
				}
			],
			"stateMutability": "pure",
			"type": "function"
		},
		{
			"inputs": [
				{
					"internalType": "uint8",
					"name": "x",
					"type": "uint8"
				}
			],
			"name": "not",
			"outputs": [
				{
					"internalType": "uint8",
					"name": "",
					"type": "uint8"
				}
			],
			"stateMutability": "pure",
			"type": "function"
		},
		{
			"inputs": [
				{
					"internalType": "uint256",
					"name": "x",
					"type": "uint256"
				},
				{
					"internalType": "uint256",
					"name": "y",
					"type": "uint256"
				}
			],
			"name": "or",
			"outputs": [
				{
					"internalType": "uint256",
					"name": "",
					"type": "uint256"
				}
			],
			"stateMutability": "pure",
			"type": "function"
		},
		{
			"inputs": [
				{
					"internalType": "uint256",
					"name": "x",
					"type": "uint256"
				},
				{
					"internalType": "uint256",
					"name": "bits",
					"type": "uint256"
				}
			],
			"name": "shiftLeft",
			"outputs": [
				{
					"internalType": "uint256",
					"name": "",
					"type": "uint256"
				}
			],
			"stateMutability": "pure",
			"type": "function"
		},
		{
			"inputs": [
				{
					"internalType": "uint256",
					"name": "x",
					"type": "uint256"
				},
				{
					"internalType": "uint256",
					"name": "bits",
					"type": "uint256"
				}
			],
			"name": "shiftRight",
			"outputs": [
				{
					"internalType": "uint256",
					"name": "",
					"type": "uint256"
				}
			],
			"stateMutability": "pure",
			"type": "function"
		},
		{
			"inputs": [
				{
					"internalType": "uint256",
					"name": "x",
					"type": "uint256"
				},
				{
					"internalType": "uint256",
					"name": "y",
					"type": "uint256"
				}
			],
			"name": "xor",
			"outputs": [
				{
					"internalType": "uint256",
					"name": "",
					"type": "uint256"
				}
			],
			"stateMutability": "pure",
			"type": "function"
		}
	]
}