{
	"data": {
		"bytecode": {
			"linkReferences": {},
			"object": "608060405234801561001057600080fd5b5061021c806100206000396000f3fe608060405234801561001057600080fd5b50600436106100365760003560e01c8063209877671461003b578063b8bd717f14610057575b600080fd5b6100556004803603810190610050919061013c565b610073565b005b610071600480360381019061006c919061013c565b6100ba565b005b600a8111156100b7576040517f08c379a00000000000000000000000000000000000000000000000000000000081526004016100ae906101c6565b60405180910390fd5b50565b600a8111156100fe576040517f08c379a00000000000000000000000000000000000000000000000000000000081526004016100f5906101c6565b60405180910390fd5b50565b600080fd5b6000819050919050565b61011981610106565b811461012457600080fd5b50565b60008135905061013681610110565b92915050565b60006020828403121561015257610151610101565b5b600061016084828501610127565b91505092915050565b600082825260208201905092915050565b7f69203e2031300000000000000000000000000000000000000000000000000000600082015250565b60006101b0600683610169565b91506101bb8261017a565b602082019050919050565b600060208201905081810360008301526101df816101a3565b905091905056fea26469706673582212206398e2699aaf6d0461ea6a043ed103508eb6ff611790a65dc59ca652637372b764736f6c63430008120033",
			"opcodes": "PUSH1 0x80 PUSH1 0x40 MSTORE CALLVALUE DUP1 ISZERO PUSH2 0x10 JUMPI PUSH1 0x0 DUP1 REVERT JUMPDEST POP PUSH2 0x21C DUP1 PUSH2 0x20 PUSH1 0x0 CODECOPY PUSH1 0x0 RETURN INVALID PUSH1 0x80 PUSH1 0x40 MSTORE CALLVALUE DUP1 ISZERO PUSH2 0x10 JUMPI PUSH1 0x0 DUP1 REVERT JUMPDEST POP PUSH1 0x4 CALLDATASIZE LT PUSH2 0x36 JUMPI PUSH1 0x0 CALLDATALOAD PUSH1 0xE0 SHR DUP1 PUSH4 0x20987767 EQ PUSH2 0x3B JUMPI DUP1 PUSH4 0xB8BD717F EQ PUSH2 0x57 JUMPI JUMPDEST PUSH1 0x0 DUP1 REVERT JUMPDEST PUSH2 0x55 PUSH1 0x4 DUP1 CALLDATASIZE SUB DUP2 ADD SWAP1 PUSH2 0x50 SWAP2 SWAP1 PUSH2 0x13C JUMP JUMPDEST PUSH2 0x73 JUMP JUMPDEST STOP JUMPDEST PUSH2 0x71 PUSH1 0x4 DUP1 CALLDATASIZE SUB DUP2 ADD SWAP1 PUSH2 0x6C SWAP2 SWAP1 PUSH2 0x13C JUMP JUMPDEST PUSH2 0xBA JUMP JUMPDEST STOP JUMPDEST PUSH1 0xA DUP2 GT ISZERO PUSH2 0xB7 JUMPI PUSH1 0x40 MLOAD PUSH32 0x8C379A000000000000000000000000000000000000000000000000000000000 DUP2 MSTORE PUSH1 0x4 ADD PUSH2 0xAE SWAP1 PUSH2 0x1C6 JUMP JUMPDEST PUSH1 0x40 MLOAD DUP1 SWAP2 SUB SWAP1 REVERT JUMPDEST POP JUMP JUMPDEST PUSH1 0xA DUP2 GT ISZERO PUSH2 0xFE JUMPI PUSH1 0x40 MLOAD PUSH32 0x8C379A000000000000000000000000000000000000000000000000000000000 DUP2 MSTORE PUSH1 0x4 ADD PUSH2 0xF5 SWAP1 PUSH2 0x1C6 JUMP JUMPDEST PUSH1 0x40 MLOAD DUP1 SWAP2 SUB SWAP1 REVERT JUMPDEST POP JUMP JUMPDEST PUSH1 0x0 DUP1 REVERT JUMPDEST PUSH1 0x0 DUP2 SWAP1 POP SWAP2 SWAP1 POP JUMP JUMPDEST PUSH2 0x119 DUP2 PUSH2 0x106 JUMP JUMPDEST DUP2 EQ PUSH2 0x124 JUMPI PUSH1 0x0 DUP1 REVERT JUMPDEST POP JUMP JUMPDEST PUSH1 0x0 DUP2 CALLDATALOAD SWAP1 POP PUSH2 0x136 DUP2 PUSH2 0x110 JUMP JUMPDEST SWAP3 SWAP2 POP POP JUMP JUMPDEST PUSH1 0x0 PUSH1 0x20 DUP3 DUP5 SUB SLT ISZERO PUSH2 0x152 JUMPI PUSH2 0x151 PUSH2 0x101 JUMP JUMPDEST JUMPDEST PUSH1 0x0 PUSH2 0x160 DUP5 DUP3 DUP6 ADD PUSH2 0x127 JUMP JUMPDEST SWAP2 POP POP SWAP3 SWAP2 POP POP JUMP JUMPDEST PUSH1 0x0 DUP3 DUP3 MSTORE PUSH1 0x20 DUP3 ADD SWAP1 POP SWAP3 SWAP2 POP POP JUMP JUMPDEST PUSH32 0x69203E2031300000000000000000000000000000000000000000000000000000 PUSH1 0x0 DUP3 ADD MSTORE POP JUMP JUMPDEST PUSH1 0x0 PUSH2 0x1B0 PUSH1 0x6 DUP4 PUSH2 0x169 JUMP JUMPDEST SWAP2 POP PUSH2 0x1BB DUP3 PUSH2 0x17A JUMP JUMPDEST PUSH1 0x20 DUP3 ADD SWAP1 POP SWAP2 SWAP1 POP JUMP JUMPDEST PUSH1 0x0 PUSH1 0x20 DUP3 ADD SWAP1 POP DUP2 DUP2 SUB PUSH1 0x0 DUP4 ADD MSTORE PUSH2 0x1DF DUP2 PUSH2 0x1A3 JUMP JUMPDEST SWAP1 POP SWAP2 SWAP1 POP JUMP INVALID LOG2 PUSH5 0x6970667358 0x22 SLT KECCAK256 PUSH4 0x98E2699A 0xAF PUSH14 0x461EA6A043ED103508EB6FF6117 SWAP1 0xA6 0x5D 0xC5 SWAP13 0xA6 MSTORE PUSH4 0x7372B764 PUSH20 0x6F6C634300081200330000000000000000000000 "
		},
		"gasEstimates": {
			"creation": {
				"codeDepositCost": "108000",
				"executionCost": "153",
				"totalCost": "108153"
			},
			"external": {
				"testRequire(uint256)": "719",
				"testRevert(uint256)": "697"
			}
		},
		"methodIdentifiers": {
			"testRequire(uint256)": "b8bd717f",
			"testRevert(uint256)": "20987767"
		}
	},
	"abi": [
		{
			"inputs": [
				{
					"internalType": "uint256",
					"name": "i",
					"type": "uint256"
				}
			],
			"name": "testRequire",
			"outputs": [],
			"stateMutability": "pure",
			"type": "function"
		},
		{
			"inputs": [
				{
					"internalType": "uint256",
					"name": "i",
					"type": "uint256"
				}
			],
			"name": "testRevert",
			"outputs": [],
			"stateMutability": "pure",
			"type": "function"
		}
	]
}