{
	"data": {
		"bytecode": {
			"linkReferences": {},
			"object": "608060405234801561001057600080fd5b50610740806100206000396000f3fe608060405234801561001057600080fd5b506004361061004c5760003560e01c806317fe2da2146100515780635dda416e146100815780637b7fb982146100b1578063892e5d01146100e1575b600080fd5b61006b6004803603810190610066919061032c565b610111565b6040516100789190610423565b60405180910390f35b61009b600480360381019061009691906104d9565b61013d565b6040516100a89190610561565b60405180910390f35b6100cb60048036038101906100c6919061032c565b610173565b6040516100d89190610561565b60405180910390f35b6100fb60048036038101906100f6919061032c565b6101a6565b6040516101089190610423565b60405180910390f35b606082826040516020016101269291906105d1565b604051602081830303815290604052905092915050565b6000838383604051602001610154939291906106ad565b6040516020818303038152906040528051906020012090509392505050565b600082826040516020016101889291906106e6565b60405160208183030381529060405280519060200120905092915050565b606082826040516020016101bb9291906106e6565b604051602081830303815290604052905092915050565b6000604051905090565b600080fd5b600080fd5b600080fd5b600080fd5b6000601f19601f8301169050919050565b7f4e487b7100000000000000000000000000000000000000000000000000000000600052604160045260246000fd5b610239826101f0565b810181811067ffffffffffffffff8211171561025857610257610201565b5b80604052505050565b600061026b6101d2565b90506102778282610230565b919050565b600067ffffffffffffffff82111561029757610296610201565b5b6102a0826101f0565b9050602081019050919050565b82818337600083830152505050565b60006102cf6102ca8461027c565b610261565b9050828152602081018484840111156102eb576102ea6101eb565b5b6102f68482856102ad565b509392505050565b600082601f830112610313576103126101e6565b5b81356103238482602086016102bc565b91505092915050565b60008060408385031215610343576103426101dc565b5b600083013567ffffffffffffffff811115610361576103606101e1565b5b61036d858286016102fe565b925050602083013567ffffffffffffffff81111561038e5761038d6101e1565b5b61039a858286016102fe565b9150509250929050565b600081519050919050565b600082825260208201905092915050565b60005b838110156103de5780820151818401526020810190506103c3565b60008484015250505050565b60006103f5826103a4565b6103ff81856103af565b935061040f8185602086016103c0565b610418816101f0565b840191505092915050565b6000602082019050818103600083015261043d81846103ea565b905092915050565b6000819050919050565b61045881610445565b811461046357600080fd5b50565b6000813590506104758161044f565b92915050565b600073ffffffffffffffffffffffffffffffffffffffff82169050919050565b60006104a68261047b565b9050919050565b6104b68161049b565b81146104c157600080fd5b50565b6000813590506104d3816104ad565b92915050565b6000806000606084860312156104f2576104f16101dc565b5b600084013567ffffffffffffffff8111156105105761050f6101e1565b5b61051c868287016102fe565b935050602061052d86828701610466565b925050604061053e868287016104c4565b9150509250925092565b6000819050919050565b61055b81610548565b82525050565b60006020820190506105766000830184610552565b92915050565b600081519050919050565b600082825260208201905092915050565b60006105a38261057c565b6105ad8185610587565b93506105bd8185602086016103c0565b6105c6816101f0565b840191505092915050565b600060408201905081810360008301526105eb8185610598565b905081810360208301526105ff8184610598565b90509392505050565b600081905092915050565b600061061e8261057c565b6106288185610608565b93506106388185602086016103c0565b80840191505092915050565b6000819050919050565b61065f61065a82610445565b610644565b82525050565b60008160601b9050919050565b600061067d82610665565b9050919050565b600061068f82610672565b9050919050565b6106a76106a28261049b565b610684565b82525050565b60006106b98286610613565b91506106c5828561064e565b6020820191506106d58284610696565b601482019150819050949350505050565b60006106f28285610613565b91506106fe8284610613565b9150819050939250505056fea264697066735822122026af340c32b8cbcf4362a1bf6023383ae0e0652ea93eec35e95aae4eeb62a8a864736f6c63430008120033",
			"opcodes": "PUSH1 0x80 PUSH1 0x40 MSTORE CALLVALUE DUP1 ISZERO PUSH2 0x10 JUMPI PUSH1 0x0 DUP1 REVERT JUMPDEST POP PUSH2 0x740 DUP1 PUSH2 0x20 PUSH1 0x0 CODECOPY PUSH1 0x0 RETURN INVALID PUSH1 0x80 PUSH1 0x40 MSTORE CALLVALUE DUP1 ISZERO PUSH2 0x10 JUMPI PUSH1 0x0 DUP1 REVERT JUMPDEST POP PUSH1 0x4 CALLDATASIZE LT PUSH2 0x4C JUMPI PUSH1 0x0 CALLDATALOAD PUSH1 0xE0 SHR DUP1 PUSH4 0x17FE2DA2 EQ PUSH2 0x51 JUMPI DUP1 PUSH4 0x5DDA416E EQ PUSH2 0x81 JUMPI DUP1 PUSH4 0x7B7FB982 EQ PUSH2 0xB1 JUMPI DUP1 PUSH4 0x892E5D01 EQ PUSH2 0xE1 JUMPI JUMPDEST PUSH1 0x0 DUP1 REVERT JUMPDEST PUSH2 0x6B PUSH1 0x4 DUP1 CALLDATASIZE SUB DUP2 ADD SWAP1 PUSH2 0x66 SWAP2 SWAP1 PUSH2 0x32C JUMP JUMPDEST PUSH2 0x111 JUMP JUMPDEST PUSH1 0x40 MLOAD PUSH2 0x78 SWAP2 SWAP1 PUSH2 0x423 JUMP JUMPDEST PUSH1 0x40 MLOAD DUP1 SWAP2 SUB SWAP1 RETURN JUMPDEST PUSH2 0x9B PUSH1 0x4 DUP1 CALLDATASIZE SUB DUP2 ADD SWAP1 PUSH2 0x96 SWAP2 SWAP1 PUSH2 0x4D9 JUMP JUMPDEST PUSH2 0x13D JUMP JUMPDEST PUSH1 0x40 MLOAD PUSH2 0xA8 SWAP2 SWAP1 PUSH2 0x561 JUMP JUMPDEST PUSH1 0x40 MLOAD DUP1 SWAP2 SUB SWAP1 RETURN JUMPDEST PUSH2 0xCB PUSH1 0x4 DUP1 CALLDATASIZE SUB DUP2 ADD SWAP1 PUSH2 0xC6 SWAP2 SWAP1 PUSH2 0x32C JUMP JUMPDEST PUSH2 0x173 JUMP JUMPDEST PUSH1 0x40 MLOAD PUSH2 0xD8 SWAP2 SWAP1 PUSH2 0x561 JUMP JUMPDEST PUSH1 0x40 MLOAD DUP1 SWAP2 SUB SWAP1 RETURN JUMPDEST PUSH2 0xFB PUSH1 0x4 DUP1 CALLDATASIZE SUB DUP2 ADD SWAP1 PUSH2 0xF6 SWAP2 SWAP1 PUSH2 0x32C JUMP JUMPDEST PUSH2 0x1A6 JUMP JUMPDEST PUSH1 0x40 MLOAD PUSH2 0x108 SWAP2 SWAP1 PUSH2 0x423 JUMP JUMPDEST PUSH1 0x40 MLOAD DUP1 SWAP2 SUB SWAP1 RETURN JUMPDEST PUSH1 0x60 DUP3 DUP3 PUSH1 0x40 MLOAD PUSH1 0x20 ADD PUSH2 0x126 SWAP3 SWAP2 SWAP1 PUSH2 0x5D1 JUMP JUMPDEST PUSH1 0x40 MLOAD PUSH1 0x20 DUP2 DUP4 SUB SUB DUP2 MSTORE SWAP1 PUSH1 0x40 MSTORE SWAP1 POP SWAP3 SWAP2 POP POP JUMP JUMPDEST PUSH1 0x0 DUP4 DUP4 DUP4 PUSH1 0x40 MLOAD PUSH1 0x20 ADD PUSH2 0x154 SWAP4 SWAP3 SWAP2 SWAP1 PUSH2 0x6AD JUMP JUMPDEST PUSH1 0x40 MLOAD PUSH1 0x20 DUP2 DUP4 SUB SUB DUP2 MSTORE SWAP1 PUSH1 0x40 MSTORE DUP1 MLOAD SWAP1 PUSH1 0x20 ADD KECCAK256 SWAP1 POP SWAP4 SWAP3 POP POP POP JUMP JUMPDEST PUSH1 0x0 DUP3 DUP3 PUSH1 0x40 MLOAD PUSH1 0x20 ADD PUSH2 0x188 SWAP3 SWAP2 SWAP1 PUSH2 0x6E6 JUMP JUMPDEST PUSH1 0x40 MLOAD PUSH1 0x20 DUP2 DUP4 SUB SUB DUP2 MSTORE SWAP1 PUSH1 0x40 MSTORE DUP1 MLOAD SWAP1 PUSH1 0x20 ADD KECCAK256 SWAP1 POP SWAP3 SWAP2 POP POP JUMP JUMPDEST PUSH1 0x60 DUP3 DUP3 PUSH1 0x40 MLOAD PUSH1 0x20 ADD PUSH2 0x1BB SWAP3 SWAP2 SWAP1 PUSH2 0x6E6 JUMP JUMPDEST PUSH1 0x40 MLOAD PUSH1 0x20 DUP2 DUP4 SUB SUB DUP2 MSTORE SWAP1 PUSH1 0x40 MSTORE SWAP1 POP SWAP3 SWAP2 POP POP JUMP JUMPDEST PUSH1 0x0 PUSH1 0x40 MLOAD SWAP1 POP SWAP1 JUMP JUMPDEST PUSH1 0x0 DUP1 REVERT JUMPDEST PUSH1 0x0 DUP1 REVERT JUMPDEST PUSH1 0x0 DUP1 REVERT JUMPDEST PUSH1 0x0 DUP1 REVERT JUMPDEST PUSH1 0x0 PUSH1 0x1F NOT PUSH1 0x1F DUP4 ADD AND SWAP1 POP SWAP2 SWAP1 POP JUMP JUMPDEST PUSH32 0x4E487B7100000000000000000000000000000000000000000000000000000000 PUSH1 0x0 MSTORE PUSH1 0x41 PUSH1 0x4 MSTORE PUSH1 0x24 PUSH1 0x0 REVERT JUMPDEST PUSH2 0x239 DUP3 PUSH2 0x1F0 JUMP JUMPDEST DUP2 ADD DUP2 DUP2 LT PUSH8 0xFFFFFFFFFFFFFFFF DUP3 GT OR ISZERO PUSH2 0x258 JUMPI PUSH2 0x257 PUSH2 0x201 JUMP JUMPDEST JUMPDEST DUP1 PUSH1 0x40 MSTORE POP POP POP JUMP JUMPDEST PUSH1 0x0 PUSH2 0x26B PUSH2 0x1D2 JUMP JUMPDEST SWAP1 POP PUSH2 0x277 DUP3 DUP3 PUSH2 0x230 JUMP JUMPDEST SWAP2 SWAP1 POP JUMP JUMPDEST PUSH1 0x0 PUSH8 0xFFFFFFFFFFFFFFFF DUP3 GT ISZERO PUSH2 0x297 JUMPI PUSH2 0x296 PUSH2 0x201 JUMP JUMPDEST JUMPDEST PUSH2 0x2A0 DUP3 PUSH2 0x1F0 JUMP JUMPDEST SWAP1 POP PUSH1 0x20 DUP2 ADD SWAP1 POP SWAP2 SWAP1 POP JUMP JUMPDEST DUP3 DUP2 DUP4 CALLDATACOPY PUSH1 0x0 DUP4 DUP4 ADD MSTORE POP POP POP JUMP JUMPDEST PUSH1 0x0 PUSH2 0x2CF PUSH2 0x2CA DUP5 PUSH2 0x27C JUMP JUMPDEST PUSH2 0x261 JUMP JUMPDEST SWAP1 POP DUP3 DUP2 MSTORE PUSH1 0x20 DUP2 ADD DUP5 DUP5 DUP5 ADD GT ISZERO PUSH2 0x2EB JUMPI PUSH2 0x2EA PUSH2 0x1EB JUMP JUMPDEST JUMPDEST PUSH2 0x2F6 DUP5 DUP3 DUP6 PUSH2 0x2AD JUMP JUMPDEST POP SWAP4 SWAP3 POP POP POP JUMP JUMPDEST PUSH1 0x0 DUP3 PUSH1 0x1F DUP4 ADD SLT PUSH2 0x313 JUMPI PUSH2 0x312 PUSH2 0x1E6 JUMP JUMPDEST JUMPDEST DUP2 CALLDATALOAD PUSH2 0x323 DUP5 DUP3 PUSH1 0x20 DUP7 ADD PUSH2 0x2BC JUMP JUMPDEST SWAP2 POP POP SWAP3 SWAP2 POP POP JUMP JUMPDEST PUSH1 0x0 DUP1 PUSH1 0x40 DUP4 DUP6 SUB SLT ISZERO PUSH2 0x343 JUMPI PUSH2 0x342 PUSH2 0x1DC JUMP JUMPDEST JUMPDEST PUSH1 0x0 DUP4 ADD CALLDATALOAD PUSH8 0xFFFFFFFFFFFFFFFF DUP2 GT ISZERO PUSH2 0x361 JUMPI PUSH2 0x360 PUSH2 0x1E1 JUMP JUMPDEST JUMPDEST PUSH2 0x36D DUP6 DUP3 DUP7 ADD PUSH2 0x2FE JUMP JUMPDEST SWAP3 POP POP PUSH1 0x20 DUP4 ADD CALLDATALOAD PUSH8 0xFFFFFFFFFFFFFFFF DUP2 GT ISZERO PUSH2 0x38E JUMPI PUSH2 0x38D PUSH2 0x1E1 JUMP JUMPDEST JUMPDEST PUSH2 0x39A DUP6 DUP3 DUP7 ADD PUSH2 0x2FE JUMP JUMPDEST SWAP2 POP POP SWAP3 POP SWAP3 SWAP1 POP JUMP JUMPDEST PUSH1 0x0 DUP2 MLOAD SWAP1 POP SWAP2 SWAP1 POP JUMP JUMPDEST PUSH1 0x0 DUP3 DUP3 MSTORE PUSH1 0x20 DUP3 ADD SWAP1 POP SWAP3 SWAP2 POP POP JUMP JUMPDEST PUSH1 0x0 JUMPDEST DUP4 DUP2 LT ISZERO PUSH2 0x3DE JUMPI DUP1 DUP3 ADD MLOAD DUP2 DUP5 ADD MSTORE PUSH1 0x20 DUP2 ADD SWAP1 POP PUSH2 0x3C3 JUMP JUMPDEST PUSH1 0x0 DUP5 DUP5 ADD MSTORE POP POP POP POP JUMP JUMPDEST PUSH1 0x0 PUSH2 0x3F5 DUP3 PUSH2 0x3A4 JUMP JUMPDEST PUSH2 0x3FF DUP2 DUP6 PUSH2 0x3AF JUMP JUMPDEST SWAP4 POP PUSH2 0x40F DUP2 DUP6 PUSH1 0x20 DUP7 ADD PUSH2 0x3C0 JUMP JUMPDEST PUSH2 0x418 DUP2 PUSH2 0x1F0 JUMP JUMPDEST DUP5 ADD SWAP2 POP POP SWAP3 SWAP2 POP POP JUMP JUMPDEST PUSH1 0x0 PUSH1 0x20 DUP3 ADD SWAP1 POP DUP2 DUP2 SUB PUSH1 0x0 DUP4 ADD MSTORE PUSH2 0x43D DUP2 DUP5 PUSH2 0x3EA JUMP JUMPDEST SWAP1 POP SWAP3 SWAP2 POP POP JUMP JUMPDEST PUSH1 0x0 DUP2 SWAP1 POP SWAP2 SWAP1 POP JUMP JUMPDEST PUSH2 0x458 DUP2 PUSH2 0x445 JUMP JUMPDEST DUP2 EQ PUSH2 0x463 JUMPI PUSH1 0x0 DUP1 REVERT JUMPDEST POP JUMP JUMPDEST PUSH1 0x0 DUP2 CALLDATALOAD SWAP1 POP PUSH2 0x475 DUP2 PUSH2 0x44F JUMP JUMPDEST SWAP3 SWAP2 POP POP JUMP JUMPDEST PUSH1 0x0 PUSH20 0xFFFFFFFFFFFFFFFFFFFFFFFFFFFFFFFFFFFFFFFF DUP3 AND SWAP1 POP SWAP2 SWAP1 POP JUMP JUMPDEST PUSH1 0x0 PUSH2 0x4A6 DUP3 PUSH2 0x47B JUMP JUMPDEST SWAP1 POP SWAP2 SWAP1 POP JUMP JUMPDEST PUSH2 0x4B6 DUP2 PUSH2 0x49B JUMP JUMPDEST DUP2 EQ PUSH2 0x4C1 JUMPI PUSH1 0x0 DUP1 REVERT JUMPDEST POP JUMP JUMPDEST PUSH1 0x0 DUP2 CALLDATALOAD SWAP1 POP PUSH2 0x4D3 DUP2 PUSH2 0x4AD JUMP JUMPDEST SWAP3 SWAP2 POP POP JUMP JUMPDEST PUSH1 0x0 DUP1 PUSH1 0x0 PUSH1 0x60 DUP5 DUP7 SUB SLT ISZERO PUSH2 0x4F2 JUMPI PUSH2 0x4F1 PUSH2 0x1DC JUMP JUMPDEST JUMPDEST PUSH1 0x0 DUP5 ADD CALLDATALOAD PUSH8 0xFFFFFFFFFFFFFFFF DUP2 GT ISZERO PUSH2 0x510 JUMPI PUSH2 0x50F PUSH2 0x1E1 JUMP JUMPDEST JUMPDEST PUSH2 0x51C DUP7 DUP3 DUP8 ADD PUSH2 0x2FE JUMP JUMPDEST SWAP4 POP POP PUSH1 0x20 PUSH2 0x52D DUP7 DUP3 DUP8 ADD PUSH2 0x466 JUMP JUMPDEST SWAP3 POP POP PUSH1 0x40 PUSH2 0x53E DUP7 DUP3 DUP8 ADD PUSH2 0x4C4 JUMP JUMPDEST SWAP2 POP POP SWAP3 POP SWAP3 POP SWAP3 JUMP JUMPDEST PUSH1 0x0 DUP2 SWAP1 POP SWAP2 SWAP1 POP JUMP JUMPDEST PUSH2 0x55B DUP2 PUSH2 0x548 JUMP JUMPDEST DUP3 MSTORE POP POP JUMP JUMPDEST PUSH1 0x0 PUSH1 0x20 DUP3 ADD SWAP1 POP PUSH2 0x576 PUSH1 0x0 DUP4 ADD DUP5 PUSH2 0x552 JUMP JUMPDEST SWAP3 SWAP2 POP POP JUMP JUMPDEST PUSH1 0x0 DUP2 MLOAD SWAP1 POP SWAP2 SWAP1 POP JUMP JUMPDEST PUSH1 0x0 DUP3 DUP3 MSTORE PUSH1 0x20 DUP3 ADD SWAP1 POP SWAP3 SWAP2 POP POP JUMP JUMPDEST PUSH1 0x0 PUSH2 0x5A3 DUP3 PUSH2 0x57C JUMP JUMPDEST PUSH2 0x5AD DUP2 DUP6 PUSH2 0x587 JUMP JUMPDEST SWAP4 POP PUSH2 0x5BD DUP2 DUP6 PUSH1 0x20 DUP7 ADD PUSH2 0x3C0 JUMP JUMPDEST PUSH2 0x5C6 DUP2 PUSH2 0x1F0 JUMP JUMPDEST DUP5 ADD SWAP2 POP POP SWAP3 SWAP2 POP POP JUMP JUMPDEST PUSH1 0x0 PUSH1 0x40 DUP3 ADD SWAP1 POP DUP2 DUP2 SUB PUSH1 0x0 DUP4 ADD MSTORE PUSH2 0x5EB DUP2 DUP6 PUSH2 0x598 JUMP JUMPDEST SWAP1 POP DUP2 DUP2 SUB PUSH1 0x20 DUP4 ADD MSTORE PUSH2 0x5FF DUP2 DUP5 PUSH2 0x598 JUMP JUMPDEST SWAP1 POP SWAP4 SWAP3 POP POP POP JUMP JUMPDEST PUSH1 0x0 DUP2 SWAP1 POP SWAP3 SWAP2 POP POP JUMP JUMPDEST PUSH1 0x0 PUSH2 0x61E DUP3 PUSH2 0x57C JUMP JUMPDEST PUSH2 0x628 DUP2 DUP6 PUSH2 0x608 JUMP JUMPDEST SWAP4 POP PUSH2 0x638 DUP2 DUP6 PUSH1 0x20 DUP7 ADD PUSH2 0x3C0 JUMP JUMPDEST DUP1 DUP5 ADD SWAP2 POP POP SWAP3 SWAP2 POP POP JUMP JUMPDEST PUSH1 0x0 DUP2 SWAP1 POP SWAP2 SWAP1 POP JUMP JUMPDEST PUSH2 0x65F PUSH2 0x65A DUP3 PUSH2 0x445 JUMP JUMPDEST PUSH2 0x644 JUMP JUMPDEST DUP3 MSTORE POP POP JUMP JUMPDEST PUSH1 0x0 DUP2 PUSH1 0x60 SHL SWAP1 POP SWAP2 SWAP1 POP JUMP JUMPDEST PUSH1 0x0 PUSH2 0x67D DUP3 PUSH2 0x665 JUMP JUMPDEST SWAP1 POP SWAP2 SWAP1 POP JUMP JUMPDEST PUSH1 0x0 PUSH2 0x68F DUP3 PUSH2 0x672 JUMP JUMPDEST SWAP1 POP SWAP2 SWAP1 POP JUMP JUMPDEST PUSH2 0x6A7 PUSH2 0x6A2 DUP3 PUSH2 0x49B JUMP JUMPDEST PUSH2 0x684 JUMP JUMPDEST DUP3 MSTORE POP POP JUMP JUMPDEST PUSH1 0x0 PUSH2 0x6B9 DUP3 DUP7 PUSH2 0x613 JUMP JUMPDEST SWAP2 POP PUSH2 0x6C5 DUP3 DUP6 PUSH2 0x64E JUMP JUMPDEST PUSH1 0x20 DUP3 ADD SWAP2 POP PUSH2 0x6D5 DUP3 DUP5 PUSH2 0x696 JUMP JUMPDEST PUSH1 0x14 DUP3 ADD SWAP2 POP DUP2 SWAP1 POP SWAP5 SWAP4 POP POP POP POP JUMP JUMPDEST PUSH1 0x0 PUSH2 0x6F2 DUP3 DUP6 PUSH2 0x613 JUMP JUMPDEST SWAP2 POP PUSH2 0x6FE DUP3 DUP5 PUSH2 0x613 JUMP JUMPDEST SWAP2 POP DUP2 SWAP1 POP SWAP4 SWAP3 POP POP POP JUMP INVALID LOG2 PUSH5 0x6970667358 0x22 SLT KECCAK256 0x26 0xAF CALLVALUE 0xC ORIGIN 0xB8 0xCB 0xCF NUMBER PUSH3 0xA1BF60 0x23 CODESIZE GASPRICE 0xE0 0xE0 PUSH6 0x2EA93EEC35E9 GAS 0xAE 0x4E 0xEB PUSH3 0xA8A864 PUSH20 0x6F6C634300081200330000000000000000000000 "
		},
		"gasEstimates": {
			"creation": {
				"codeDepositCost": "371200",
				"executionCost": "405",
				"totalCost": "371605"
			},
			"external": {
				"collision(string,string)": "infinite",
				"encode(string,string)": "infinite",
				"encodePacked(string,string)": "infinite",
				"hash(string,uint256,address)": "infinite"
			}
		},
		"methodIdentifiers": {
			"collision(string,string)": "7b7fb982",
			"encode(string,string)": "17fe2da2",
			"encodePacked(string,string)": "892e5d01",
			"hash(string,uint256,address)": "5dda416e"
		}
	},
	"abi": [
		{
			"inputs": [
				{
					"internalType": "string",
					"name": "text0",
					"type": "string"
				},
				{
					"internalType": "string",
					"name": "text1",
					"type": "string"
				}
			],
			"name": "collision",
			"outputs": [
				{
					"internalType": "bytes32",
					"name": "",
					"type": "bytes32"
				}
			],
			"stateMutability": "pure",
			"type": "function"
		},
		{
			"inputs": [
				{
					"internalType": "string",
					"name": "text0",
					"type": "string"
				},
				{
					"internalType": "string",
					"name": "text1",
					"type": "string"
				}
			],
			"name": "encode",
			"outputs": [
				{
					"internalType": "bytes",
					"name": "",
					"type": "bytes"
				}
			],
			"stateMutability": "pure",
			"type": "function"
		},
		{
			"inputs": [
				{
					"internalType": "string",
					"name": "text0",
					"type": "string"
				},
				{
					"internalType": "string",
					"name": "text1",
					"type": "string"
				}
			],
			"name": "encodePacked",
			"outputs": [
				{
					"internalType": "bytes",
					"name": "",
					"type": "bytes"
				}
			],
			"stateMutability": "pure",
			"type": "function"
		},
		{
			"inputs": [
				{
					"internalType": "string",
					"name": "text",
					"type": "string"
				},
				{
					"internalType": "uint256",
					"name": "num",
					"type": "uint256"
				},
				{
					"internalType": "address",
					"name": "addr",
					"type": "address"
				}
			],
			"name": "hash",
			"outputs": [
				{
					"internalType": "bytes32",
					"name": "",
					"type": "bytes32"
				}
			],
			"stateMutability": "pure",
			"type": "function"
		}
	]
}