{
	"data": {
		"bytecode": {
			"linkReferences": {},
			"object": "608060405234801561001057600080fd5b506100203361002560201b60201c565b610212565b600073ffffffffffffffffffffffffffffffffffffffff168173ffffffffffffffffffffffffffffffffffffffff1603610094576040517f08c379a000000000000000000000000000000000000000000000000000000000815260040161008b90610185565b60405180910390fd5b806100da60017fb53127684a568b3173ae13b9f8a6016e243e63b6e8ee1178d6a717850b5d610460001c6100c891906101de565b60001b61011e60201b61026c1760201c565b60000160006101000a81548173ffffffffffffffffffffffffffffffffffffffff021916908373ffffffffffffffffffffffffffffffffffffffff16021790555050565b6000819050919050565b600082825260208201905092915050565b7f61646d696e206973207a65726f20616464726573730000000000000000000000600082015250565b600061016f601583610128565b915061017a82610139565b602082019050919050565b6000602082019050818103600083015261019e81610162565b9050919050565b6000819050919050565b7f4e487b7100000000000000000000000000000000000000000000000000000000600052601160045260246000fd5b60006101e9826101a5565b91506101f4836101a5565b925082820390508181111561020c5761020b6101af565b5b92915050565b610777806102216000396000f3fe6080604052600436106100435760003560e01c80633659cfe61461005c5780635c60da1b146100855780638f283970146100b0578063f851a440146100d957610052565b3661005257610050610104565b005b61005a610104565b005b34801561006857600080fd5b50610083600480360381019061007e9190610594565b610116565b005b34801561009157600080fd5b5061009a61016a565b6040516100a791906105d0565b60405180910390f35b3480156100bc57600080fd5b506100d760048036038101906100d29190610594565b6101c1565b005b3480156100e557600080fd5b506100ee610215565b6040516100fb91906105d0565b60405180910390f35b61011461010f610276565b6102dc565b565b61011e610302565b73ffffffffffffffffffffffffffffffffffffffff163373ffffffffffffffffffffffffffffffffffffffff160361015e5761015981610368565b610167565b610166610104565b5b50565b6000610174610302565b73ffffffffffffffffffffffffffffffffffffffff163373ffffffffffffffffffffffffffffffffffffffff16036101b5576101ae610276565b90506101be565b6101bd610104565b5b90565b6101c9610302565b73ffffffffffffffffffffffffffffffffffffffff163373ffffffffffffffffffffffffffffffffffffffff16036102095761020481610442565b610212565b610211610104565b5b50565b600061021f610302565b73ffffffffffffffffffffffffffffffffffffffff163373ffffffffffffffffffffffffffffffffffffffff160361026057610259610302565b9050610269565b610268610104565b5b90565b6000819050919050565b60006102b360017fcf0fd1661cc2da5e58358a9905e3d718a4eb32831616a3b85e4df1ce9fe6316e60001c6102ab9190610624565b60001b61026c565b60000160009054906101000a900473ffffffffffffffffffffffffffffffffffffffff16905090565b3660008037600080366000845af43d6000803e80600081146102fd573d6000f35b3d6000fd5b600061033f60017fb53127684a568b3173ae13b9f8a6016e243e63b6e8ee1178d6a717850b5d610460001c6103379190610624565b60001b61026c565b60000160009054906101000a900473ffffffffffffffffffffffffffffffffffffffff16905090565b60008173ffffffffffffffffffffffffffffffffffffffff163b116103c2576040517f08c379a00000000000000000000000000000000000000000000000000000000081526004016103b9906106b5565b60405180910390fd5b806103fe60017fcf0fd1661cc2da5e58358a9905e3d718a4eb32831616a3b85e4df1ce9fe6316e60001c6103f69190610624565b60001b61026c565b60000160006101000a81548173ffffffffffffffffffffffffffffffffffffffff021916908373ffffffffffffffffffffffffffffffffffffffff16021790555050565b600073ffffffffffffffffffffffffffffffffffffffff168173ffffffffffffffffffffffffffffffffffffffff16036104b1576040517f08c379a00000000000000000000000000000000000000000000000000000000081526004016104a890610721565b60405180910390fd5b806104ed60017fb53127684a568b3173ae13b9f8a6016e243e63b6e8ee1178d6a717850b5d610460001c6104e59190610624565b60001b61026c565b60000160006101000a81548173ffffffffffffffffffffffffffffffffffffffff021916908373ffffffffffffffffffffffffffffffffffffffff16021790555050565b600080fd5b600073ffffffffffffffffffffffffffffffffffffffff82169050919050565b600061056182610536565b9050919050565b61057181610556565b811461057c57600080fd5b50565b60008135905061058e81610568565b92915050565b6000602082840312156105aa576105a9610531565b5b60006105b88482850161057f565b91505092915050565b6105ca81610556565b82525050565b60006020820190506105e560008301846105c1565b92915050565b6000819050919050565b7f4e487b7100000000000000000000000000000000000000000000000000000000600052601160045260246000fd5b600061062f826105eb565b915061063a836105eb565b9250828203905081811115610652576106516105f5565b5b92915050565b600082825260208201905092915050565b7f6e6f74206120636f6e7472616374000000000000000000000000000000000000600082015250565b600061069f600e83610658565b91506106aa82610669565b602082019050919050565b600060208201905081810360008301526106ce81610692565b9050919050565b7f61646d696e206973207a65726f20616464726573730000000000000000000000600082015250565b600061070b601583610658565b9150610716826106d5565b602082019050919050565b6000602082019050818103600083015261073a816106fe565b905091905056fea2646970667358221220fcd7ea0a4ff84d678e0b7563a8c9ec7894be912fab7bf1fed39eb53dedca0abe64736f6c63430008120033",
			"opcodes": "PUSH1 0x80 PUSH1 0x40 MSTORE CALLVALUE DUP1 ISZERO PUSH2 0x10 JUMPI PUSH1 0x0 DUP1 REVERT JUMPDEST POP PUSH2 0x20 CALLER PUSH2 0x25 PUSH1 0x20 SHL PUSH1 0x20 SHR JUMP JUMPDEST PUSH2 0x212 JUMP JUMPDEST PUSH1 0x0 PUSH20 0xFFFFFFFFFFFFFFFFFFFFFFFFFFFFFFFFFFFFFFFF AND DUP2 PUSH20 0xFFFFFFFFFFFFFFFFFFFFFFFFFFFFFFFFFFFFFFFF AND SUB PUSH2 0x94 JUMPI PUSH1 0x40 MLOAD PUSH32 0x8C379A000000000000000000000000000000000000000000000000000000000 DUP2 MSTORE PUSH1 0x4 ADD PUSH2 0x8B SWAP1 PUSH2 0x185 JUMP JUMPDEST PUSH1 0x40 MLOAD DUP1 SWAP2 SUB SWAP1 REVERT JUMPDEST DUP1 PUSH2 0xDA PUSH1 0x1 PUSH32 0xB53127684A568B3173AE13B9F8A6016E243E63B6E8EE1178D6A717850B5D6104 PUSH1 0x0 SHR PUSH2 0xC8 SWAP2 SWAP1 PUSH2 0x1DE JUMP JUMPDEST PUSH1 0x0 SHL PUSH2 0x11E PUSH1 0x20 SHL PUSH2 0x26C OR PUSH1 0x20 SHR JUMP JUMPDEST PUSH1 0x0 ADD PUSH1 0x0 PUSH2 0x100 EXP DUP2 SLOAD DUP2 PUSH20 0xFFFFFFFFFFFFFFFFFFFFFFFFFFFFFFFFFFFFFFFF MUL NOT AND SWAP1 DUP4 PUSH20 0xFFFFFFFFFFFFFFFFFFFFFFFFFFFFFFFFFFFFFFFF AND MUL OR SWAP1 SSTORE POP POP JUMP JUMPDEST PUSH1 0x0 DUP2 SWAP1 POP SWAP2 SWAP1 POP JUMP JUMPDEST PUSH1 0x0 DUP3 DUP3 MSTORE PUSH1 0x20 DUP3 ADD SWAP1 POP SWAP3 SWAP2 POP POP JUMP JUMPDEST PUSH32 0x61646D696E206973207A65726F20616464726573730000000000000000000000 PUSH1 0x0 DUP3 ADD MSTORE POP JUMP JUMPDEST PUSH1 0x0 PUSH2 0x16F PUSH1 0x15 DUP4 PUSH2 0x128 JUMP JUMPDEST SWAP2 POP PUSH2 0x17A DUP3 PUSH2 0x139 JUMP JUMPDEST PUSH1 0x20 DUP3 ADD SWAP1 POP SWAP2 SWAP1 POP JUMP JUMPDEST PUSH1 0x0 PUSH1 0x20 DUP3 ADD SWAP1 POP DUP2 DUP2 SUB PUSH1 0x0 DUP4 ADD MSTORE PUSH2 0x19E DUP2 PUSH2 0x162 JUMP JUMPDEST SWAP1 POP SWAP2 SWAP1 POP JUMP JUMPDEST PUSH1 0x0 DUP2 SWAP1 POP SWAP2 SWAP1 POP JUMP JUMPDEST PUSH32 0x4E487B7100000000000000000000000000000000000000000000000000000000 PUSH1 0x0 MSTORE PUSH1 0x11 PUSH1 0x4 MSTORE PUSH1 0x24 PUSH1 0x0 REVERT JUMPDEST PUSH1 0x0 PUSH2 0x1E9 DUP3 PUSH2 0x1A5 JUMP JUMPDEST SWAP2 POP PUSH2 0x1F4 DUP4 PUSH2 0x1A5 JUMP JUMPDEST SWAP3 POP DUP3 DUP3 SUB SWAP1 POP DUP2 DUP2 GT ISZERO PUSH2 0x20C JUMPI PUSH2 0x20B PUSH2 0x1AF JUMP JUMPDEST JUMPDEST SWAP3 SWAP2 POP POP JUMP JUMPDEST PUSH2 0x777 DUP1 PUSH2 0x221 PUSH1 0x0 CODECOPY PUSH1 0x0 RETURN INVALID PUSH1 0x80 PUSH1 0x40 MSTORE PUSH1 0x4 CALLDATASIZE LT PUSH2 0x43 JUMPI PUSH1 0x0 CALLDATALOAD PUSH1 0xE0 SHR DUP1 PUSH4 0x3659CFE6 EQ PUSH2 0x5C JUMPI DUP1 PUSH4 0x5C60DA1B EQ PUSH2 0x85 JUMPI DUP1 PUSH4 0x8F283970 EQ PUSH2 0xB0 JUMPI DUP1 PUSH4 0xF851A440 EQ PUSH2 0xD9 JUMPI PUSH2 0x52 JUMP JUMPDEST CALLDATASIZE PUSH2 0x52 JUMPI PUSH2 0x50 PUSH2 0x104 JUMP JUMPDEST STOP JUMPDEST PUSH2 0x5A PUSH2 0x104 JUMP JUMPDEST STOP JUMPDEST CALLVALUE DUP1 ISZERO PUSH2 0x68 JUMPI PUSH1 0x0 DUP1 REVERT JUMPDEST POP PUSH2 0x83 PUSH1 0x4 DUP1 CALLDATASIZE SUB DUP2 ADD SWAP1 PUSH2 0x7E SWAP2 SWAP1 PUSH2 0x594 JUMP JUMPDEST PUSH2 0x116 JUMP JUMPDEST STOP JUMPDEST CALLVALUE DUP1 ISZERO PUSH2 0x91 JUMPI PUSH1 0x0 DUP1 REVERT JUMPDEST POP PUSH2 0x9A PUSH2 0x16A JUMP JUMPDEST PUSH1 0x40 MLOAD PUSH2 0xA7 SWAP2 SWAP1 PUSH2 0x5D0 JUMP JUMPDEST PUSH1 0x40 MLOAD DUP1 SWAP2 SUB SWAP1 RETURN JUMPDEST CALLVALUE DUP1 ISZERO PUSH2 0xBC JUMPI PUSH1 0x0 DUP1 REVERT JUMPDEST POP PUSH2 0xD7 PUSH1 0x4 DUP1 CALLDATASIZE SUB DUP2 ADD SWAP1 PUSH2 0xD2 SWAP2 SWAP1 PUSH2 0x594 JUMP JUMPDEST PUSH2 0x1C1 JUMP JUMPDEST STOP JUMPDEST CALLVALUE DUP1 ISZERO PUSH2 0xE5 JUMPI PUSH1 0x0 DUP1 REVERT JUMPDEST POP PUSH2 0xEE PUSH2 0x215 JUMP JUMPDEST PUSH1 0x40 MLOAD PUSH2 0xFB SWAP2 SWAP1 PUSH2 0x5D0 JUMP JUMPDEST PUSH1 0x40 MLOAD DUP1 SWAP2 SUB SWAP1 RETURN JUMPDEST PUSH2 0x114 PUSH2 0x10F PUSH2 0x276 JUMP JUMPDEST PUSH2 0x2DC JUMP JUMPDEST JUMP JUMPDEST PUSH2 0x11E PUSH2 0x302 JUMP JUMPDEST PUSH20 0xFFFFFFFFFFFFFFFFFFFFFFFFFFFFFFFFFFFFFFFF AND CALLER PUSH20 0xFFFFFFFFFFFFFFFFFFFFFFFFFFFFFFFFFFFFFFFF AND SUB PUSH2 0x15E JUMPI PUSH2 0x159 DUP2 PUSH2 0x368 JUMP JUMPDEST PUSH2 0x167 JUMP JUMPDEST PUSH2 0x166 PUSH2 0x104 JUMP JUMPDEST JUMPDEST POP JUMP JUMPDEST PUSH1 0x0 PUSH2 0x174 PUSH2 0x302 JUMP JUMPDEST PUSH20 0xFFFFFFFFFFFFFFFFFFFFFFFFFFFFFFFFFFFFFFFF AND CALLER PUSH20 0xFFFFFFFFFFFFFFFFFFFFFFFFFFFFFFFFFFFFFFFF AND SUB PUSH2 0x1B5 JUMPI PUSH2 0x1AE PUSH2 0x276 JUMP JUMPDEST SWAP1 POP PUSH2 0x1BE JUMP JUMPDEST PUSH2 0x1BD PUSH2 0x104 JUMP JUMPDEST JUMPDEST SWAP1 JUMP JUMPDEST PUSH2 0x1C9 PUSH2 0x302 JUMP JUMPDEST PUSH20 0xFFFFFFFFFFFFFFFFFFFFFFFFFFFFFFFFFFFFFFFF AND CALLER PUSH20 0xFFFFFFFFFFFFFFFFFFFFFFFFFFFFFFFFFFFFFFFF AND SUB PUSH2 0x209 JUMPI PUSH2 0x204 DUP2 PUSH2 0x442 JUMP JUMPDEST PUSH2 0x212 JUMP JUMPDEST PUSH2 0x211 PUSH2 0x104 JUMP JUMPDEST JUMPDEST POP JUMP JUMPDEST PUSH1 0x0 PUSH2 0x21F PUSH2 0x302 JUMP JUMPDEST PUSH20 0xFFFFFFFFFFFFFFFFFFFFFFFFFFFFFFFFFFFFFFFF AND CALLER PUSH20 0xFFFFFFFFFFFFFFFFFFFFFFFFFFFFFFFFFFFFFFFF AND SUB PUSH2 0x260 JUMPI PUSH2 0x259 PUSH2 0x302 JUMP JUMPDEST SWAP1 POP PUSH2 0x269 JUMP JUMPDEST PUSH2 0x268 PUSH2 0x104 JUMP JUMPDEST JUMPDEST SWAP1 JUMP JUMPDEST PUSH1 0x0 DUP2 SWAP1 POP SWAP2 SWAP1 POP JUMP JUMPDEST PUSH1 0x0 PUSH2 0x2B3 PUSH1 0x1 PUSH32 0xCF0FD1661CC2DA5E58358A9905E3D718A4EB32831616A3B85E4DF1CE9FE6316E PUSH1 0x0 SHR PUSH2 0x2AB SWAP2 SWAP1 PUSH2 0x624 JUMP JUMPDEST PUSH1 0x0 SHL PUSH2 0x26C JUMP JUMPDEST PUSH1 0x0 ADD PUSH1 0x0 SWAP1 SLOAD SWAP1 PUSH2 0x100 EXP SWAP1 DIV PUSH20 0xFFFFFFFFFFFFFFFFFFFFFFFFFFFFFFFFFFFFFFFF AND SWAP1 POP SWAP1 JUMP JUMPDEST CALLDATASIZE PUSH1 0x0 DUP1 CALLDATACOPY PUSH1 0x0 DUP1 CALLDATASIZE PUSH1 0x0 DUP5 GAS DELEGATECALL RETURNDATASIZE PUSH1 0x0 DUP1 RETURNDATACOPY DUP1 PUSH1 0x0 DUP2 EQ PUSH2 0x2FD JUMPI RETURNDATASIZE PUSH1 0x0 RETURN JUMPDEST RETURNDATASIZE PUSH1 0x0 REVERT JUMPDEST PUSH1 0x0 PUSH2 0x33F PUSH1 0x1 PUSH32 0xB53127684A568B3173AE13B9F8A6016E243E63B6E8EE1178D6A717850B5D6104 PUSH1 0x0 SHR PUSH2 0x337 SWAP2 SWAP1 PUSH2 0x624 JUMP JUMPDEST PUSH1 0x0 SHL PUSH2 0x26C JUMP JUMPDEST PUSH1 0x0 ADD PUSH1 0x0 SWAP1 SLOAD SWAP1 PUSH2 0x100 EXP SWAP1 DIV PUSH20 0xFFFFFFFFFFFFFFFFFFFFFFFFFFFFFFFFFFFFFFFF AND SWAP1 POP SWAP1 JUMP JUMPDEST PUSH1 0x0 DUP2 PUSH20 0xFFFFFFFFFFFFFFFFFFFFFFFFFFFFFFFFFFFFFFFF AND EXTCODESIZE GT PUSH2 0x3C2 JUMPI PUSH1 0x40 MLOAD PUSH32 0x8C379A000000000000000000000000000000000000000000000000000000000 DUP2 MSTORE PUSH1 0x4 ADD PUSH2 0x3B9 SWAP1 PUSH2 0x6B5 JUMP JUMPDEST PUSH1 0x40 MLOAD DUP1 SWAP2 SUB SWAP1 REVERT JUMPDEST DUP1 PUSH2 0x3FE PUSH1 0x1 PUSH32 0xCF0FD1661CC2DA5E58358A9905E3D718A4EB32831616A3B85E4DF1CE9FE6316E PUSH1 0x0 SHR PUSH2 0x3F6 SWAP2 SWAP1 PUSH2 0x624 JUMP JUMPDEST PUSH1 0x0 SHL PUSH2 0x26C JUMP JUMPDEST PUSH1 0x0 ADD PUSH1 0x0 PUSH2 0x100 EXP DUP2 SLOAD DUP2 PUSH20 0xFFFFFFFFFFFFFFFFFFFFFFFFFFFFFFFFFFFFFFFF MUL NOT AND SWAP1 DUP4 PUSH20 0xFFFFFFFFFFFFFFFFFFFFFFFFFFFFFFFFFFFFFFFF AND MUL OR SWAP1 SSTORE POP POP JUMP JUMPDEST PUSH1 0x0 PUSH20 0xFFFFFFFFFFFFFFFFFFFFFFFFFFFFFFFFFFFFFFFF AND DUP2 PUSH20 0xFFFFFFFFFFFFFFFFFFFFFFFFFFFFFFFFFFFFFFFF AND SUB PUSH2 0x4B1 JUMPI PUSH1 0x40 MLOAD PUSH32 0x8C379A000000000000000000000000000000000000000000000000000000000 DUP2 MSTORE PUSH1 0x4 ADD PUSH2 0x4A8 SWAP1 PUSH2 0x721 JUMP JUMPDEST PUSH1 0x40 MLOAD DUP1 SWAP2 SUB SWAP1 REVERT JUMPDEST DUP1 PUSH2 0x4ED PUSH1 0x1 PUSH32 0xB53127684A568B3173AE13B9F8A6016E243E63B6E8EE1178D6A717850B5D6104 PUSH1 0x0 SHR PUSH2 0x4E5 SWAP2 SWAP1 PUSH2 0x624 JUMP JUMPDEST PUSH1 0x0 SHL PUSH2 0x26C JUMP JUMPDEST PUSH1 0x0 ADD PUSH1 0x0 PUSH2 0x100 EXP DUP2 SLOAD DUP2 PUSH20 0xFFFFFFFFFFFFFFFFFFFFFFFFFFFFFFFFFFFFFFFF MUL NOT AND SWAP1 DUP4 PUSH20 0xFFFFFFFFFFFFFFFFFFFFFFFFFFFFFFFFFFFFFFFF AND MUL OR SWAP1 SSTORE POP POP JUMP JUMPDEST PUSH1 0x0 DUP1 REVERT JUMPDEST PUSH1 0x0 PUSH20 0xFFFFFFFFFFFFFFFFFFFFFFFFFFFFFFFFFFFFFFFF DUP3 AND SWAP1 POP SWAP2 SWAP1 POP JUMP JUMPDEST PUSH1 0x0 PUSH2 0x561 DUP3 PUSH2 0x536 JUMP JUMPDEST SWAP1 POP SWAP2 SWAP1 POP JUMP JUMPDEST PUSH2 0x571 DUP2 PUSH2 0x556 JUMP JUMPDEST DUP2 EQ PUSH2 0x57C JUMPI PUSH1 0x0 DUP1 REVERT JUMPDEST POP JUMP JUMPDEST PUSH1 0x0 DUP2 CALLDATALOAD SWAP1 POP PUSH2 0x58E DUP2 PUSH2 0x568 JUMP JUMPDEST SWAP3 SWAP2 POP POP JUMP JUMPDEST PUSH1 0x0 PUSH1 0x20 DUP3 DUP5 SUB SLT ISZERO PUSH2 0x5AA JUMPI PUSH2 0x5A9 PUSH2 0x531 JUMP JUMPDEST JUMPDEST PUSH1 0x0 PUSH2 0x5B8 DUP5 DUP3 DUP6 ADD PUSH2 0x57F JUMP JUMPDEST SWAP2 POP POP SWAP3 SWAP2 POP POP JUMP JUMPDEST PUSH2 0x5CA DUP2 PUSH2 0x556 JUMP JUMPDEST DUP3 MSTORE POP POP JUMP JUMPDEST PUSH1 0x0 PUSH1 0x20 DUP3 ADD SWAP1 POP PUSH2 0x5E5 PUSH1 0x0 DUP4 ADD DUP5 PUSH2 0x5C1 JUMP JUMPDEST SWAP3 SWAP2 POP POP JUMP JUMPDEST PUSH1 0x0 DUP2 SWAP1 POP SWAP2 SWAP1 POP JUMP JUMPDEST PUSH32 0x4E487B7100000000000000000000000000000000000000000000000000000000 PUSH1 0x0 MSTORE PUSH1 0x11 PUSH1 0x4 MSTORE PUSH1 0x24 PUSH1 0x0 REVERT JUMPDEST PUSH1 0x0 PUSH2 0x62F DUP3 PUSH2 0x5EB JUMP JUMPDEST SWAP2 POP PUSH2 0x63A DUP4 PUSH2 0x5EB JUMP JUMPDEST SWAP3 POP DUP3 DUP3 SUB SWAP1 POP DUP2 DUP2 GT ISZERO PUSH2 0x652 JUMPI PUSH2 0x651 PUSH2 0x5F5 JUMP JUMPDEST JUMPDEST SWAP3 SWAP2 POP POP JUMP JUMPDEST PUSH1 0x0 DUP3 DUP3 MSTORE PUSH1 0x20 DUP3 ADD SWAP1 POP SWAP3 SWAP2 POP POP JUMP JUMPDEST PUSH32 0x6E6F74206120636F6E7472616374000000000000000000000000000000000000 PUSH1 0x0 DUP3 ADD MSTORE POP JUMP JUMPDEST PUSH1 0x0 PUSH2 0x69F PUSH1 0xE DUP4 PUSH2 0x658 JUMP JUMPDEST SWAP2 POP PUSH2 0x6AA DUP3 PUSH2 0x669 JUMP JUMPDEST PUSH1 0x20 DUP3 ADD SWAP1 POP SWAP2 SWAP1 POP JUMP JUMPDEST PUSH1 0x0 PUSH1 0x20 DUP3 ADD SWAP1 POP DUP2 DUP2 SUB PUSH1 0x0 DUP4 ADD MSTORE PUSH2 0x6CE DUP2 PUSH2 0x692 JUMP JUMPDEST SWAP1 POP SWAP2 SWAP1 POP JUMP JUMPDEST PUSH32 0x61646D696E206973207A65726F20616464726573730000000000000000000000 PUSH1 0x0 DUP3 ADD MSTORE POP JUMP JUMPDEST PUSH1 0x0 PUSH2 0x70B PUSH1 0x15 DUP4 PUSH2 0x658 JUMP JUMPDEST SWAP2 POP PUSH2 0x716 DUP3 PUSH2 0x6D5 JUMP JUMPDEST PUSH1 0x20 DUP3 ADD SWAP1 POP SWAP2 SWAP1 POP JUMP JUMPDEST PUSH1 0x0 PUSH1 0x20 DUP3 ADD SWAP1 POP DUP2 DUP2 SUB PUSH1 0x0 DUP4 ADD MSTORE PUSH2 0x73A DUP2 PUSH2 0x6FE JUMP JUMPDEST SWAP1 POP SWAP2 SWAP1 POP JUMP INVALID LOG2 PUSH5 0x6970667358 0x22 SLT KECCAK256 0xFC 0xD7 0xEA EXP 0x4F 0xF8 0x4D PUSH8 0x8E0B7563A8C9EC78 SWAP5 0xBE SWAP2 0x2F 0xAB PUSH28 0xF1FED39EB53DEDCA0ABE64736F6C6343000812003300000000000000 "
		},
		"gasEstimates": {
			"creation": {
				"codeDepositCost": "382200",
				"executionCost": "infinite",
				"totalCost": "infinite"
			},
			"external": {
				"": "infinite",
				"admin()": "infinite",
				"changeAdmin(address)": "infinite",
				"implementation()": "infinite",
				"upgradeTo(address)": "infinite"
			},
			"internal": {
				"_delegate(address)": "infinite",
				"_fallback()": "infinite",
				"getAdmin()": "infinite",
				"getImplementation()": "infinite",
				"setAdmin(address)": "infinite",
				"setImplementation(address)": "infinite"
			}
		},
		"methodIdentifiers": {
			"admin()": "f851a440",
			"changeAdmin(address)": "8f283970",
			"implementation()": "5c60da1b",
			"upgradeTo(address)": "3659cfe6"
		}
	},
	"abi": [
		{
			"inputs": [],
			"stateMutability": "nonpayable",
			"type": "constructor"
		},
		{
			"stateMutability": "payable",
			"type": "fallback"
		},
		{
			"inputs": [],
			"name": "admin",
			"outputs": [
				{
					"internalType": "address",
					"name": "",
					"type": "address"
				}
			],
			"stateMutability": "nonpayable",
			"type": "function"
		},
		{
			"inputs": [
				{
					"internalType": "address",
					"name": "_admin",
					"type": "address"
				}
			],
			"name": "changeAdmin",
			"outputs": [],
			"stateMutability": "nonpayable",
			"type": "function"
		},
		{
			"inputs": [],
			"name": "implementation",
			"outputs": [
				{
					"internalType": "address",
					"name": "",
					"type": "address"
				}
			],
			"stateMutability": "nonpayable",
			"type": "function"
		},
		{
			"inputs": [
				{
					"internalType": "address",
					"name": "_implementation",
					"type": "address"
				}
			],
			"name": "upgradeTo",
			"outputs": [],
			"stateMutability": "nonpayable",
			"type": "function"
		},
		{
			"stateMutability": "payable",
			"type": "receive"
		}
	]
}