{
	"data": {
		"bytecode": {
			"linkReferences": {},
			"object": "6080604052610407806100136000396000f3fe6080604052600436106100385760003560e01c806340429e651461004457806394c048f614610060578063c28efebc1461007c5761003f565b3661003f57005b600080fd5b61005e60048036038101906100599190610275565b610098565b005b61007a60048036038101906100759190610275565b610149565b005b61009660048036038101906100919190610275565b6101c7565b005b60008173ffffffffffffffffffffffffffffffffffffffff16607b6040516100bf906102d3565b60006040518083038185875af1925050503d80600081146100fc576040519150601f19603f3d011682016040523d82523d6000602084013e610101565b606091505b5050905080610145576040517f08c379a000000000000000000000000000000000000000000000000000000000815260040161013c90610345565b60405180910390fd5b5050565b60008173ffffffffffffffffffffffffffffffffffffffff166108fc607b9081150290604051600060405180830381858888f193505050509050806101c3576040517f08c379a00000000000000000000000000000000000000000000000000000000081526004016101ba906103b1565b60405180910390fd5b5050565b8073ffffffffffffffffffffffffffffffffffffffff166108fc607b9081150290604051600060405180830381858888f1935050505015801561020e573d6000803e3d6000fd5b5050565b600080fd5b600073ffffffffffffffffffffffffffffffffffffffff82169050919050565b600061024282610217565b9050919050565b61025281610237565b811461025d57600080fd5b50565b60008135905061026f81610249565b92915050565b60006020828403121561028b5761028a610212565b5b600061029984828501610260565b91505092915050565b600081905092915050565b50565b60006102bd6000836102a2565b91506102c8826102ad565b600082019050919050565b60006102de826102b0565b9150819050919050565b600082825260208201905092915050565b7f63616c6c206661696c6564000000000000000000000000000000000000000000600082015250565b600061032f600b836102e8565b915061033a826102f9565b602082019050919050565b6000602082019050818103600083015261035e81610322565b9050919050565b7f73656e64206661696c6564000000000000000000000000000000000000000000600082015250565b600061039b600b836102e8565b91506103a682610365565b602082019050919050565b600060208201905081810360008301526103ca8161038e565b905091905056fea26469706673582212208902375ad461957243397d7caab95376c79970eab7c67503f0c7b3e598f6d46464736f6c63430008120033",
			"opcodes": "PUSH1 0x80 PUSH1 0x40 MSTORE PUSH2 0x407 DUP1 PUSH2 0x13 PUSH1 0x0 CODECOPY PUSH1 0x0 RETURN INVALID PUSH1 0x80 PUSH1 0x40 MSTORE PUSH1 0x4 CALLDATASIZE LT PUSH2 0x38 JUMPI PUSH1 0x0 CALLDATALOAD PUSH1 0xE0 SHR DUP1 PUSH4 0x40429E65 EQ PUSH2 0x44 JUMPI DUP1 PUSH4 0x94C048F6 EQ PUSH2 0x60 JUMPI DUP1 PUSH4 0xC28EFEBC EQ PUSH2 0x7C JUMPI PUSH2 0x3F JUMP JUMPDEST CALLDATASIZE PUSH2 0x3F JUMPI STOP JUMPDEST PUSH1 0x0 DUP1 REVERT JUMPDEST PUSH2 0x5E PUSH1 0x4 DUP1 CALLDATASIZE SUB DUP2 ADD SWAP1 PUSH2 0x59 SWAP2 SWAP1 PUSH2 0x275 JUMP JUMPDEST PUSH2 0x98 JUMP JUMPDEST STOP JUMPDEST PUSH2 0x7A PUSH1 0x4 DUP1 CALLDATASIZE SUB DUP2 ADD SWAP1 PUSH2 0x75 SWAP2 SWAP1 PUSH2 0x275 JUMP JUMPDEST PUSH2 0x149 JUMP JUMPDEST STOP JUMPDEST PUSH2 0x96 PUSH1 0x4 DUP1 CALLDATASIZE SUB DUP2 ADD SWAP1 PUSH2 0x91 SWAP2 SWAP1 PUSH2 0x275 JUMP JUMPDEST PUSH2 0x1C7 JUMP JUMPDEST STOP JUMPDEST PUSH1 0x0 DUP2 PUSH20 0xFFFFFFFFFFFFFFFFFFFFFFFFFFFFFFFFFFFFFFFF AND PUSH1 0x7B PUSH1 0x40 MLOAD PUSH2 0xBF SWAP1 PUSH2 0x2D3 JUMP JUMPDEST PUSH1 0x0 PUSH1 0x40 MLOAD DUP1 DUP4 SUB DUP2 DUP6 DUP8 GAS CALL SWAP3 POP POP POP RETURNDATASIZE DUP1 PUSH1 0x0 DUP2 EQ PUSH2 0xFC JUMPI PUSH1 0x40 MLOAD SWAP2 POP PUSH1 0x1F NOT PUSH1 0x3F RETURNDATASIZE ADD AND DUP3 ADD PUSH1 0x40 MSTORE RETURNDATASIZE DUP3 MSTORE RETURNDATASIZE PUSH1 0x0 PUSH1 0x20 DUP5 ADD RETURNDATACOPY PUSH2 0x101 JUMP JUMPDEST PUSH1 0x60 SWAP2 POP JUMPDEST POP POP SWAP1 POP DUP1 PUSH2 0x145 JUMPI PUSH1 0x40 MLOAD PUSH32 0x8C379A000000000000000000000000000000000000000000000000000000000 DUP2 MSTORE PUSH1 0x4 ADD PUSH2 0x13C SWAP1 PUSH2 0x345 JUMP JUMPDEST PUSH1 0x40 MLOAD DUP1 SWAP2 SUB SWAP1 REVERT JUMPDEST POP POP JUMP JUMPDEST PUSH1 0x0 DUP2 PUSH20 0xFFFFFFFFFFFFFFFFFFFFFFFFFFFFFFFFFFFFFFFF AND PUSH2 0x8FC PUSH1 0x7B SWAP1 DUP2 ISZERO MUL SWAP1 PUSH1 0x40 MLOAD PUSH1 0x0 PUSH1 0x40 MLOAD DUP1 DUP4 SUB DUP2 DUP6 DUP9 DUP9 CALL SWAP4 POP POP POP POP SWAP1 POP DUP1 PUSH2 0x1C3 JUMPI PUSH1 0x40 MLOAD PUSH32 0x8C379A000000000000000000000000000000000000000000000000000000000 DUP2 MSTORE PUSH1 0x4 ADD PUSH2 0x1BA SWAP1 PUSH2 0x3B1 JUMP JUMPDEST PUSH1 0x40 MLOAD DUP1 SWAP2 SUB SWAP1 REVERT JUMPDEST POP POP JUMP JUMPDEST DUP1 PUSH20 0xFFFFFFFFFFFFFFFFFFFFFFFFFFFFFFFFFFFFFFFF AND PUSH2 0x8FC PUSH1 0x7B SWAP1 DUP2 ISZERO MUL SWAP1 PUSH1 0x40 MLOAD PUSH1 0x0 PUSH1 0x40 MLOAD DUP1 DUP4 SUB DUP2 DUP6 DUP9 DUP9 CALL SWAP4 POP POP POP POP ISZERO DUP1 ISZERO PUSH2 0x20E JUMPI RETURNDATASIZE PUSH1 0x0 DUP1 RETURNDATACOPY RETURNDATASIZE PUSH1 0x0 REVERT JUMPDEST POP POP JUMP JUMPDEST PUSH1 0x0 DUP1 REVERT JUMPDEST PUSH1 0x0 PUSH20 0xFFFFFFFFFFFFFFFFFFFFFFFFFFFFFFFFFFFFFFFF DUP3 AND SWAP1 POP SWAP2 SWAP1 POP JUMP JUMPDEST PUSH1 0x0 PUSH2 0x242 DUP3 PUSH2 0x217 JUMP JUMPDEST SWAP1 POP SWAP2 SWAP1 POP JUMP JUMPDEST PUSH2 0x252 DUP2 PUSH2 0x237 JUMP JUMPDEST DUP2 EQ PUSH2 0x25D JUMPI PUSH1 0x0 DUP1 REVERT JUMPDEST POP JUMP JUMPDEST PUSH1 0x0 DUP2 CALLDATALOAD SWAP1 POP PUSH2 0x26F DUP2 PUSH2 0x249 JUMP JUMPDEST SWAP3 SWAP2 POP POP JUMP JUMPDEST PUSH1 0x0 PUSH1 0x20 DUP3 DUP5 SUB SLT ISZERO PUSH2 0x28B JUMPI PUSH2 0x28A PUSH2 0x212 JUMP JUMPDEST JUMPDEST PUSH1 0x0 PUSH2 0x299 DUP5 DUP3 DUP6 ADD PUSH2 0x260 JUMP JUMPDEST SWAP2 POP POP SWAP3 SWAP2 POP POP JUMP JUMPDEST PUSH1 0x0 DUP2 SWAP1 POP SWAP3 SWAP2 POP POP JUMP JUMPDEST POP JUMP JUMPDEST PUSH1 0x0 PUSH2 0x2BD PUSH1 0x0 DUP4 PUSH2 0x2A2 JUMP JUMPDEST SWAP2 POP PUSH2 0x2C8 DUP3 PUSH2 0x2AD JUMP JUMPDEST PUSH1 0x0 DUP3 ADD SWAP1 POP SWAP2 SWAP1 POP JUMP JUMPDEST PUSH1 0x0 PUSH2 0x2DE DUP3 PUSH2 0x2B0 JUMP JUMPDEST SWAP2 POP DUP2 SWAP1 POP SWAP2 SWAP1 POP JUMP JUMPDEST PUSH1 0x0 DUP3 DUP3 MSTORE PUSH1 0x20 DUP3 ADD SWAP1 POP SWAP3 SWAP2 POP POP JUMP JUMPDEST PUSH32 0x63616C6C206661696C6564000000000000000000000000000000000000000000 PUSH1 0x0 DUP3 ADD MSTORE POP JUMP JUMPDEST PUSH1 0x0 PUSH2 0x32F PUSH1 0xB DUP4 PUSH2 0x2E8 JUMP JUMPDEST SWAP2 POP PUSH2 0x33A DUP3 PUSH2 0x2F9 JUMP JUMPDEST PUSH1 0x20 DUP3 ADD SWAP1 POP SWAP2 SWAP1 POP JUMP JUMPDEST PUSH1 0x0 PUSH1 0x20 DUP3 ADD SWAP1 POP DUP2 DUP2 SUB PUSH1 0x0 DUP4 ADD MSTORE PUSH2 0x35E DUP2 PUSH2 0x322 JUMP JUMPDEST SWAP1 POP SWAP2 SWAP1 POP JUMP JUMPDEST PUSH32 0x73656E64206661696C6564000000000000000000000000000000000000000000 PUSH1 0x0 DUP3 ADD MSTORE POP JUMP JUMPDEST PUSH1 0x0 PUSH2 0x39B PUSH1 0xB DUP4 PUSH2 0x2E8 JUMP JUMPDEST SWAP2 POP PUSH2 0x3A6 DUP3 PUSH2 0x365 JUMP JUMPDEST PUSH1 0x20 DUP3 ADD SWAP1 POP SWAP2 SWAP1 POP JUMP JUMPDEST PUSH1 0x0 PUSH1 0x20 DUP3 ADD SWAP1 POP DUP2 DUP2 SUB PUSH1 0x0 DUP4 ADD MSTORE PUSH2 0x3CA DUP2 PUSH2 0x38E JUMP JUMPDEST SWAP1 POP SWAP2 SWAP1 POP JUMP INVALID LOG2 PUSH5 0x6970667358 0x22 SLT KECCAK256 DUP10 MUL CALLDATACOPY GAS 0xD4 PUSH2 0x9572 NUMBER CODECOPY PUSH30 0x7CAAB95376C79970EAB7C67503F0C7B3E598F6D46464736F6C6343000812 STOP CALLER "
		},
		"gasEstimates": {
			"creation": {
				"codeDepositCost": "206200",
				"executionCost": "227",
				"totalCost": "206427"
			},
			"external": {
				"sendviaCall(address)": "infinite",
				"sendviaSend(address)": "infinite",
				"sendviaTransfer(address)": "infinite"
			}
		},
		"methodIdentifiers": {
			"sendviaCall(address)": "40429e65",
			"sendviaSend(address)": "94c048f6",
			"sendviaTransfer(address)": "c28efebc"
		}
	},
	"abi": [
		{
			"inputs": [],
			"stateMutability": "payable",
			"type": "constructor"
		},
		{
			"inputs": [
				{
					"internalType": "address payable",
					"name": "_to",
					"type": "address"
				}
			],
			"name": "sendviaCall",
			"outputs": [],
			"stateMutability": "payable",
			"type": "function"
		},
		{
			"inputs": [
				{
					"internalType": "address payable",
					"name": "_to",
					"type": "address"
				}
			],
			"name": "sendviaSend",
			"outputs": [],
			"stateMutability": "payable",
			"type": "function"
		},
		{
			"inputs": [
				{
					"internalType": "address payable",
					"name": "_to",
					"type": "address"
				}
			],
			"name": "sendviaTransfer",
			"outputs": [],
			"stateMutability": "payable",
			"type": "function"
		},
		{
			"stateMutability": "payable",
			"type": "receive"
		}
	]
}