{
	"data": {
		"bytecode": {
			"linkReferences": {},
			"object": "608060405234801561001057600080fd5b50336000806101000a81548173ffffffffffffffffffffffffffffffffffffffff021916908373ffffffffffffffffffffffffffffffffffffffff1602179055506110d8806100606000396000f3fe60806040526004361061008a5760003560e01c80638da5cb5b116100595780638da5cb5b146101645780639f81aed71461018f578063b0f8b142146101ba578063c1a287e2146101ea578063c4d252f51461021557610091565b8063228250c9146100965780634125ff90146100d35780634b9915a5146100fe5780638a1ce0b61461012757610091565b3661009157005b600080fd5b3480156100a257600080fd5b506100bd60048036038101906100b891906109ce565b61023e565b6040516100ca9190610a16565b60405180910390f35b3480156100df57600080fd5b506100e861025e565b6040516100f59190610a4a565b60405180910390f35b34801561010a57600080fd5b5061012560048036038101906101209190610baa565b610264565b005b34801561013357600080fd5b5061014e60048036038101906101499190610baa565b610457565b60405161015b9190610c75565b60405180910390f35b34801561017057600080fd5b50610179610499565b6040516101869190610c9f565b60405180910390f35b34801561019b57600080fd5b506101a46104bd565b6040516101b19190610a4a565b60405180910390f35b6101d460048036038101906101cf9190610baa565b6104c2565b6040516101e19190610d4a565b60405180910390f35b3480156101f657600080fd5b506101ff610845565b60405161020c9190610a4a565b60405180910390f35b34801561022157600080fd5b5061023c600480360381019061023791906109ce565b61084b565b005b60016020528060005260406000206000915054906101000a900460ff1681565b6103e881565b60008054906101000a900473ffffffffffffffffffffffffffffffffffffffff1673ffffffffffffffffffffffffffffffffffffffff163373ffffffffffffffffffffffffffffffffffffffff16146102e9576040517f74a2152700000000000000000000000000000000000000000000000000000000815260040160405180910390fd5b60006102fa88888888888888610457565b90506001600082815260200190815260200160002060009054906101000a900460ff161561035f57806040517f995042be0000000000000000000000000000000000000000000000000000000081526004016103569190610c75565b60405180910390fd5b600a4261036c9190610d9b565b82108061038557506103e8426103829190610d9b565b82115b156103c95742826040517f780935000000000000000000000000000000000000000000000000000000000081526004016103c0929190610dcf565b60405180910390fd5b600180600083815260200190815260200160002060006101000a81548160ff0219169083151502179055508773ffffffffffffffffffffffffffffffffffffffff16817f3c22f47140594040d205a5533cfedd86c9ab8622c39ead03affb2d97052c794c89898989898960405161044596959493929190610e72565b60405180910390a35050505050505050565b6000878787878787876040516020016104769796959493929190610ec9565b604051602081830303815290604052805190602001209050979650505050505050565b60008054906101000a900473ffffffffffffffffffffffffffffffffffffffff1681565b600a81565b606060008054906101000a900473ffffffffffffffffffffffffffffffffffffffff1673ffffffffffffffffffffffffffffffffffffffff163373ffffffffffffffffffffffffffffffffffffffff1614610549576040517f74a2152700000000000000000000000000000000000000000000000000000000815260040160405180910390fd5b600061055a89898989898989610457565b90506001600082815260200190815260200160002060009054906101000a900460ff166105be57806040517f0995c9d50000000000000000000000000000000000000000000000000000000081526004016105b59190610c75565b60405180910390fd5b824210156106055742836040517fcb6572b20000000000000000000000000000000000000000000000000000000081526004016105fc929190610dcf565b60405180910390fd5b6103e8836106139190610d9b565b42111561066657426103e8846106299190610d9b565b6040517f34a6744900000000000000000000000000000000000000000000000000000000815260040161065d929190610dcf565b60405180910390fd5b60006001600083815260200190815260200160002060006101000a81548160ff021916908315150217905550606060008888905011156106e25787876040516106b0929190610f5e565b604051809103902086866040516020016106cc93929190610fc4565b604051602081830303815290604052905061072a565b85858080601f016020809104026020016040519081016040528093929190818152602001838380828437600081840152601f19601f8201169050808301925050505050505090505b6000808b73ffffffffffffffffffffffffffffffffffffffff168b84604051610753919061101f565b60006040518083038185875af1925050503d8060008114610790576040519150601f19603f3d011682016040523d82523d6000602084013e610795565b606091505b5091509150816107da576040517f08c379a00000000000000000000000000000000000000000000000000000000081526004016107d190611082565b60405180910390fd5b8b73ffffffffffffffffffffffffffffffffffffffff16847fd1d5c3c892c18716bd88852091d1b63dc6849e9d7c37f69d566884bf954d4bd98d8d8d8d8d8d60405161082b96959493929190610e72565b60405180910390a380945050505050979650505050505050565b6103e881565b60008054906101000a900473ffffffffffffffffffffffffffffffffffffffff1673ffffffffffffffffffffffffffffffffffffffff163373ffffffffffffffffffffffffffffffffffffffff16146108d0576040517f74a2152700000000000000000000000000000000000000000000000000000000815260040160405180910390fd5b6001600082815260200190815260200160002060009054906101000a900460ff1661093257806040517f0995c9d50000000000000000000000000000000000000000000000000000000081526004016109299190610c75565b60405180910390fd5b60006001600083815260200190815260200160002060006101000a81548160ff021916908315150217905550807fe8d9861dbc9c663ed3accd261bbe2fe01e0d3d9e5f51fa38523b265c7757a93a60405160405180910390a250565b600080fd5b600080fd5b6000819050919050565b6109ab81610998565b81146109b657600080fd5b50565b6000813590506109c8816109a2565b92915050565b6000602082840312156109e4576109e361098e565b5b60006109f2848285016109b9565b91505092915050565b60008115159050919050565b610a10816109fb565b82525050565b6000602082019050610a2b6000830184610a07565b92915050565b6000819050919050565b610a4481610a31565b82525050565b6000602082019050610a5f6000830184610a3b565b92915050565b600073ffffffffffffffffffffffffffffffffffffffff82169050919050565b6000610a9082610a65565b9050919050565b610aa081610a85565b8114610aab57600080fd5b50565b600081359050610abd81610a97565b92915050565b610acc81610a31565b8114610ad757600080fd5b50565b600081359050610ae981610ac3565b92915050565b600080fd5b600080fd5b600080fd5b60008083601f840112610b1457610b13610aef565b5b8235905067ffffffffffffffff811115610b3157610b30610af4565b5b602083019150836001820283011115610b4d57610b4c610af9565b5b9250929050565b60008083601f840112610b6a57610b69610aef565b5b8235905067ffffffffffffffff811115610b8757610b86610af4565b5b602083019150836001820283011115610ba357610ba2610af9565b5b9250929050565b600080600080600080600060a0888a031215610bc957610bc861098e565b5b6000610bd78a828b01610aae565b9750506020610be88a828b01610ada565b965050604088013567ffffffffffffffff811115610c0957610c08610993565b5b610c158a828b01610afe565b9550955050606088013567ffffffffffffffff811115610c3857610c37610993565b5b610c448a828b01610b54565b93509350506080610c578a828b01610ada565b91505092959891949750929550565b610c6f81610998565b82525050565b6000602082019050610c8a6000830184610c66565b92915050565b610c9981610a85565b82525050565b6000602082019050610cb46000830184610c90565b92915050565b600081519050919050565b600082825260208201905092915050565b60005b83811015610cf4578082015181840152602081019050610cd9565b60008484015250505050565b6000601f19601f8301169050919050565b6000610d1c82610cba565b610d268185610cc5565b9350610d36818560208601610cd6565b610d3f81610d00565b840191505092915050565b60006020820190508181036000830152610d648184610d11565b905092915050565b7f4e487b7100000000000000000000000000000000000000000000000000000000600052601160045260246000fd5b6000610da682610a31565b9150610db183610a31565b9250828201905080821115610dc957610dc8610d6c565b5b92915050565b6000604082019050610de46000830185610a3b565b610df16020830184610a3b565b9392505050565b600082825260208201905092915050565b82818337600083830152505050565b6000610e248385610df8565b9350610e31838584610e09565b610e3a83610d00565b840190509392505050565b6000610e518385610cc5565b9350610e5e838584610e09565b610e6783610d00565b840190509392505050565b6000608082019050610e876000830189610a3b565b8181036020830152610e9a818789610e18565b90508181036040830152610eaf818587610e45565b9050610ebe6060830184610a3b565b979650505050505050565b600060a082019050610ede600083018a610c90565b610eeb6020830189610a3b565b8181036040830152610efe818789610e18565b90508181036060830152610f13818587610e45565b9050610f226080830184610a3b565b98975050505050505050565b600081905092915050565b6000610f458385610f2e565b9350610f52838584610e09565b82840190509392505050565b6000610f6b828486610f39565b91508190509392505050565b60007fffffffff0000000000000000000000000000000000000000000000000000000082169050919050565b6000819050919050565b610fbe610fb982610f77565b610fa3565b82525050565b6000610fd08286610fad565b600482019150610fe1828486610f39565b9150819050949350505050565b6000610ff982610cba565b6110038185610f2e565b9350611013818560208601610cd6565b80840191505092915050565b600061102b8284610fee565b915081905092915050565b7f73756363657373206661696c6564000000000000000000000000000000000000600082015250565b600061106c600e83610df8565b915061107782611036565b602082019050919050565b6000602082019050818103600083015261109b8161105f565b905091905056fea26469706673582212203311bd474a93450039688fd05ceb9d895e391044d1cf188fa5d76148677067f964736f6c63430008120033",
			"opcodes": "PUSH1 0x80 PUSH1 0x40 MSTORE CALLVALUE DUP1 ISZERO PUSH2 0x10 JUMPI PUSH1 0x0 DUP1 REVERT JUMPDEST POP CALLER PUSH1 0x0 DUP1 PUSH2 0x100 EXP DUP2 SLOAD DUP2 PUSH20 0xFFFFFFFFFFFFFFFFFFFFFFFFFFFFFFFFFFFFFFFF MUL NOT AND SWAP1 DUP4 PUSH20 0xFFFFFFFFFFFFFFFFFFFFFFFFFFFFFFFFFFFFFFFF AND MUL OR SWAP1 SSTORE POP PUSH2 0x10D8 DUP1 PUSH2 0x60 PUSH1 0x0 CODECOPY PUSH1 0x0 RETURN INVALID PUSH1 0x80 PUSH1 0x40 MSTORE PUSH1 0x4 CALLDATASIZE LT PUSH2 0x8A JUMPI PUSH1 0x0 CALLDATALOAD PUSH1 0xE0 SHR DUP1 PUSH4 0x8DA5CB5B GT PUSH2 0x59 JUMPI DUP1 PUSH4 0x8DA5CB5B EQ PUSH2 0x164 JUMPI DUP1 PUSH4 0x9F81AED7 EQ PUSH2 0x18F JUMPI DUP1 PUSH4 0xB0F8B142 EQ PUSH2 0x1BA JUMPI DUP1 PUSH4 0xC1A287E2 EQ PUSH2 0x1EA JUMPI DUP1 PUSH4 0xC4D252F5 EQ PUSH2 0x215 JUMPI PUSH2 0x91 JUMP JUMPDEST DUP1 PUSH4 0x228250C9 EQ PUSH2 0x96 JUMPI DUP1 PUSH4 0x4125FF90 EQ PUSH2 0xD3 JUMPI DUP1 PUSH4 0x4B9915A5 EQ PUSH2 0xFE JUMPI DUP1 PUSH4 0x8A1CE0B6 EQ PUSH2 0x127 JUMPI PUSH2 0x91 JUMP JUMPDEST CALLDATASIZE PUSH2 0x91 JUMPI STOP JUMPDEST PUSH1 0x0 DUP1 REVERT JUMPDEST CALLVALUE DUP1 ISZERO PUSH2 0xA2 JUMPI PUSH1 0x0 DUP1 REVERT JUMPDEST POP PUSH2 0xBD PUSH1 0x4 DUP1 CALLDATASIZE SUB DUP2 ADD SWAP1 PUSH2 0xB8 SWAP2 SWAP1 PUSH2 0x9CE JUMP JUMPDEST PUSH2 0x23E JUMP JUMPDEST PUSH1 0x40 MLOAD PUSH2 0xCA SWAP2 SWAP1 PUSH2 0xA16 JUMP JUMPDEST PUSH1 0x40 MLOAD DUP1 SWAP2 SUB SWAP1 RETURN JUMPDEST CALLVALUE DUP1 ISZERO PUSH2 0xDF JUMPI PUSH1 0x0 DUP1 REVERT JUMPDEST POP PUSH2 0xE8 PUSH2 0x25E JUMP JUMPDEST PUSH1 0x40 MLOAD PUSH2 0xF5 SWAP2 SWAP1 PUSH2 0xA4A JUMP JUMPDEST PUSH1 0x40 MLOAD DUP1 SWAP2 SUB SWAP1 RETURN JUMPDEST CALLVALUE DUP1 ISZERO PUSH2 0x10A JUMPI PUSH1 0x0 DUP1 REVERT JUMPDEST POP PUSH2 0x125 PUSH1 0x4 DUP1 CALLDATASIZE SUB DUP2 ADD SWAP1 PUSH2 0x120 SWAP2 SWAP1 PUSH2 0xBAA JUMP JUMPDEST PUSH2 0x264 JUMP JUMPDEST STOP JUMPDEST CALLVALUE DUP1 ISZERO PUSH2 0x133 JUMPI PUSH1 0x0 DUP1 REVERT JUMPDEST POP PUSH2 0x14E PUSH1 0x4 DUP1 CALLDATASIZE SUB DUP2 ADD SWAP1 PUSH2 0x149 SWAP2 SWAP1 PUSH2 0xBAA JUMP JUMPDEST PUSH2 0x457 JUMP JUMPDEST PUSH1 0x40 MLOAD PUSH2 0x15B SWAP2 SWAP1 PUSH2 0xC75 JUMP JUMPDEST PUSH1 0x40 MLOAD DUP1 SWAP2 SUB SWAP1 RETURN JUMPDEST CALLVALUE DUP1 ISZERO PUSH2 0x170 JUMPI PUSH1 0x0 DUP1 REVERT JUMPDEST POP PUSH2 0x179 PUSH2 0x499 JUMP JUMPDEST PUSH1 0x40 MLOAD PUSH2 0x186 SWAP2 SWAP1 PUSH2 0xC9F JUMP JUMPDEST PUSH1 0x40 MLOAD DUP1 SWAP2 SUB SWAP1 RETURN JUMPDEST CALLVALUE DUP1 ISZERO PUSH2 0x19B JUMPI PUSH1 0x0 DUP1 REVERT JUMPDEST POP PUSH2 0x1A4 PUSH2 0x4BD JUMP JUMPDEST PUSH1 0x40 MLOAD PUSH2 0x1B1 SWAP2 SWAP1 PUSH2 0xA4A JUMP JUMPDEST PUSH1 0x40 MLOAD DUP1 SWAP2 SUB SWAP1 RETURN JUMPDEST PUSH2 0x1D4 PUSH1 0x4 DUP1 CALLDATASIZE SUB DUP2 ADD SWAP1 PUSH2 0x1CF SWAP2 SWAP1 PUSH2 0xBAA JUMP JUMPDEST PUSH2 0x4C2 JUMP JUMPDEST PUSH1 0x40 MLOAD PUSH2 0x1E1 SWAP2 SWAP1 PUSH2 0xD4A JUMP JUMPDEST PUSH1 0x40 MLOAD DUP1 SWAP2 SUB SWAP1 RETURN JUMPDEST CALLVALUE DUP1 ISZERO PUSH2 0x1F6 JUMPI PUSH1 0x0 DUP1 REVERT JUMPDEST POP PUSH2 0x1FF PUSH2 0x845 JUMP JUMPDEST PUSH1 0x40 MLOAD PUSH2 0x20C SWAP2 SWAP1 PUSH2 0xA4A JUMP JUMPDEST PUSH1 0x40 MLOAD DUP1 SWAP2 SUB SWAP1 RETURN JUMPDEST CALLVALUE DUP1 ISZERO PUSH2 0x221 JUMPI PUSH1 0x0 DUP1 REVERT JUMPDEST POP PUSH2 0x23C PUSH1 0x4 DUP1 CALLDATASIZE SUB DUP2 ADD SWAP1 PUSH2 0x237 SWAP2 SWAP1 PUSH2 0x9CE JUMP JUMPDEST PUSH2 0x84B JUMP JUMPDEST STOP JUMPDEST PUSH1 0x1 PUSH1 0x20 MSTORE DUP1 PUSH1 0x0 MSTORE PUSH1 0x40 PUSH1 0x0 KECCAK256 PUSH1 0x0 SWAP2 POP SLOAD SWAP1 PUSH2 0x100 EXP SWAP1 DIV PUSH1 0xFF AND DUP2 JUMP JUMPDEST PUSH2 0x3E8 DUP2 JUMP JUMPDEST PUSH1 0x0 DUP1 SLOAD SWAP1 PUSH2 0x100 EXP SWAP1 DIV PUSH20 0xFFFFFFFFFFFFFFFFFFFFFFFFFFFFFFFFFFFFFFFF AND PUSH20 0xFFFFFFFFFFFFFFFFFFFFFFFFFFFFFFFFFFFFFFFF AND CALLER PUSH20 0xFFFFFFFFFFFFFFFFFFFFFFFFFFFFFFFFFFFFFFFF AND EQ PUSH2 0x2E9 JUMPI PUSH1 0x40 MLOAD PUSH32 0x74A2152700000000000000000000000000000000000000000000000000000000 DUP2 MSTORE PUSH1 0x4 ADD PUSH1 0x40 MLOAD DUP1 SWAP2 SUB SWAP1 REVERT JUMPDEST PUSH1 0x0 PUSH2 0x2FA DUP9 DUP9 DUP9 DUP9 DUP9 DUP9 DUP9 PUSH2 0x457 JUMP JUMPDEST SWAP1 POP PUSH1 0x1 PUSH1 0x0 DUP3 DUP2 MSTORE PUSH1 0x20 ADD SWAP1 DUP2 MSTORE PUSH1 0x20 ADD PUSH1 0x0 KECCAK256 PUSH1 0x0 SWAP1 SLOAD SWAP1 PUSH2 0x100 EXP SWAP1 DIV PUSH1 0xFF AND ISZERO PUSH2 0x35F JUMPI DUP1 PUSH1 0x40 MLOAD PUSH32 0x995042BE00000000000000000000000000000000000000000000000000000000 DUP2 MSTORE PUSH1 0x4 ADD PUSH2 0x356 SWAP2 SWAP1 PUSH2 0xC75 JUMP JUMPDEST PUSH1 0x40 MLOAD DUP1 SWAP2 SUB SWAP1 REVERT JUMPDEST PUSH1 0xA TIMESTAMP PUSH2 0x36C SWAP2 SWAP1 PUSH2 0xD9B JUMP JUMPDEST DUP3 LT DUP1 PUSH2 0x385 JUMPI POP PUSH2 0x3E8 TIMESTAMP PUSH2 0x382 SWAP2 SWAP1 PUSH2 0xD9B JUMP JUMPDEST DUP3 GT JUMPDEST ISZERO PUSH2 0x3C9 JUMPI TIMESTAMP DUP3 PUSH1 0x40 MLOAD PUSH32 0x7809350000000000000000000000000000000000000000000000000000000000 DUP2 MSTORE PUSH1 0x4 ADD PUSH2 0x3C0 SWAP3 SWAP2 SWAP1 PUSH2 0xDCF JUMP JUMPDEST PUSH1 0x40 MLOAD DUP1 SWAP2 SUB SWAP1 REVERT JUMPDEST PUSH1 0x1 DUP1 PUSH1 0x0 DUP4 DUP2 MSTORE PUSH1 0x20 ADD SWAP1 DUP2 MSTORE PUSH1 0x20 ADD PUSH1 0x0 KECCAK256 PUSH1 0x0 PUSH2 0x100 EXP DUP2 SLOAD DUP2 PUSH1 0xFF MUL NOT AND SWAP1 DUP4 ISZERO ISZERO MUL OR SWAP1 SSTORE POP DUP8 PUSH20 0xFFFFFFFFFFFFFFFFFFFFFFFFFFFFFFFFFFFFFFFF AND DUP2 PUSH32 0x3C22F47140594040D205A5533CFEDD86C9AB8622C39EAD03AFFB2D97052C794C DUP10 DUP10 DUP10 DUP10 DUP10 DUP10 PUSH1 0x40 MLOAD PUSH2 0x445 SWAP7 SWAP6 SWAP5 SWAP4 SWAP3 SWAP2 SWAP1 PUSH2 0xE72 JUMP JUMPDEST PUSH1 0x40 MLOAD DUP1 SWAP2 SUB SWAP1 LOG3 POP POP POP POP POP POP POP POP JUMP JUMPDEST PUSH1 0x0 DUP8 DUP8 DUP8 DUP8 DUP8 DUP8 DUP8 PUSH1 0x40 MLOAD PUSH1 0x20 ADD PUSH2 0x476 SWAP8 SWAP7 SWAP6 SWAP5 SWAP4 SWAP3 SWAP2 SWAP1 PUSH2 0xEC9 JUMP JUMPDEST PUSH1 0x40 MLOAD PUSH1 0x20 DUP2 DUP4 SUB SUB DUP2 MSTORE SWAP1 PUSH1 0x40 MSTORE DUP1 MLOAD SWAP1 PUSH1 0x20 ADD KECCAK256 SWAP1 POP SWAP8 SWAP7 POP POP POP POP POP POP POP JUMP JUMPDEST PUSH1 0x0 DUP1 SLOAD SWAP1 PUSH2 0x100 EXP SWAP1 DIV PUSH20 0xFFFFFFFFFFFFFFFFFFFFFFFFFFFFFFFFFFFFFFFF AND DUP2 JUMP JUMPDEST PUSH1 0xA DUP2 JUMP JUMPDEST PUSH1 0x60 PUSH1 0x0 DUP1 SLOAD SWAP1 PUSH2 0x100 EXP SWAP1 DIV PUSH20 0xFFFFFFFFFFFFFFFFFFFFFFFFFFFFFFFFFFFFFFFF AND PUSH20 0xFFFFFFFFFFFFFFFFFFFFFFFFFFFFFFFFFFFFFFFF AND CALLER PUSH20 0xFFFFFFFFFFFFFFFFFFFFFFFFFFFFFFFFFFFFFFFF AND EQ PUSH2 0x549 JUMPI PUSH1 0x40 MLOAD PUSH32 0x74A2152700000000000000000000000000000000000000000000000000000000 DUP2 MSTORE PUSH1 0x4 ADD PUSH1 0x40 MLOAD DUP1 SWAP2 SUB SWAP1 REVERT JUMPDEST PUSH1 0x0 PUSH2 0x55A DUP10 DUP10 DUP10 DUP10 DUP10 DUP10 DUP10 PUSH2 0x457 JUMP JUMPDEST SWAP1 POP PUSH1 0x1 PUSH1 0x0 DUP3 DUP2 MSTORE PUSH1 0x20 ADD SWAP1 DUP2 MSTORE PUSH1 0x20 ADD PUSH1 0x0 KECCAK256 PUSH1 0x0 SWAP1 SLOAD SWAP1 PUSH2 0x100 EXP SWAP1 DIV PUSH1 0xFF AND PUSH2 0x5BE JUMPI DUP1 PUSH1 0x40 MLOAD PUSH32 0x995C9D500000000000000000000000000000000000000000000000000000000 DUP2 MSTORE PUSH1 0x4 ADD PUSH2 0x5B5 SWAP2 SWAP1 PUSH2 0xC75 JUMP JUMPDEST PUSH1 0x40 MLOAD DUP1 SWAP2 SUB SWAP1 REVERT JUMPDEST DUP3 TIMESTAMP LT ISZERO PUSH2 0x605 JUMPI TIMESTAMP DUP4 PUSH1 0x40 MLOAD PUSH32 0xCB6572B200000000000000000000000000000000000000000000000000000000 DUP2 MSTORE PUSH1 0x4 ADD PUSH2 0x5FC SWAP3 SWAP2 SWAP1 PUSH2 0xDCF JUMP JUMPDEST PUSH1 0x40 MLOAD DUP1 SWAP2 SUB SWAP1 REVERT JUMPDEST PUSH2 0x3E8 DUP4 PUSH2 0x613 SWAP2 SWAP1 PUSH2 0xD9B JUMP JUMPDEST TIMESTAMP GT ISZERO PUSH2 0x666 JUMPI TIMESTAMP PUSH2 0x3E8 DUP5 PUSH2 0x629 SWAP2 SWAP1 PUSH2 0xD9B JUMP JUMPDEST PUSH1 0x40 MLOAD PUSH32 0x34A6744900000000000000000000000000000000000000000000000000000000 DUP2 MSTORE PUSH1 0x4 ADD PUSH2 0x65D SWAP3 SWAP2 SWAP1 PUSH2 0xDCF JUMP JUMPDEST PUSH1 0x40 MLOAD DUP1 SWAP2 SUB SWAP1 REVERT JUMPDEST PUSH1 0x0 PUSH1 0x1 PUSH1 0x0 DUP4 DUP2 MSTORE PUSH1 0x20 ADD SWAP1 DUP2 MSTORE PUSH1 0x20 ADD PUSH1 0x0 KECCAK256 PUSH1 0x0 PUSH2 0x100 EXP DUP2 SLOAD DUP2 PUSH1 0xFF MUL NOT AND SWAP1 DUP4 ISZERO ISZERO MUL OR SWAP1 SSTORE POP PUSH1 0x60 PUSH1 0x0 DUP9 DUP9 SWAP1 POP GT ISZERO PUSH2 0x6E2 JUMPI DUP8 DUP8 PUSH1 0x40 MLOAD PUSH2 0x6B0 SWAP3 SWAP2 SWAP1 PUSH2 0xF5E JUMP JUMPDEST PUSH1 0x40 MLOAD DUP1 SWAP2 SUB SWAP1 KECCAK256 DUP7 DUP7 PUSH1 0x40 MLOAD PUSH1 0x20 ADD PUSH2 0x6CC SWAP4 SWAP3 SWAP2 SWAP1 PUSH2 0xFC4 JUMP JUMPDEST PUSH1 0x40 MLOAD PUSH1 0x20 DUP2 DUP4 SUB SUB DUP2 MSTORE SWAP1 PUSH1 0x40 MSTORE SWAP1 POP PUSH2 0x72A JUMP JUMPDEST DUP6 DUP6 DUP1 DUP1 PUSH1 0x1F ADD PUSH1 0x20 DUP1 SWAP2 DIV MUL PUSH1 0x20 ADD PUSH1 0x40 MLOAD SWAP1 DUP2 ADD PUSH1 0x40 MSTORE DUP1 SWAP4 SWAP3 SWAP2 SWAP1 DUP2 DUP2 MSTORE PUSH1 0x20 ADD DUP4 DUP4 DUP1 DUP3 DUP5 CALLDATACOPY PUSH1 0x0 DUP2 DUP5 ADD MSTORE PUSH1 0x1F NOT PUSH1 0x1F DUP3 ADD AND SWAP1 POP DUP1 DUP4 ADD SWAP3 POP POP POP POP POP POP POP SWAP1 POP JUMPDEST PUSH1 0x0 DUP1 DUP12 PUSH20 0xFFFFFFFFFFFFFFFFFFFFFFFFFFFFFFFFFFFFFFFF AND DUP12 DUP5 PUSH1 0x40 MLOAD PUSH2 0x753 SWAP2 SWAP1 PUSH2 0x101F JUMP JUMPDEST PUSH1 0x0 PUSH1 0x40 MLOAD DUP1 DUP4 SUB DUP2 DUP6 DUP8 GAS CALL SWAP3 POP POP POP RETURNDATASIZE DUP1 PUSH1 0x0 DUP2 EQ PUSH2 0x790 JUMPI PUSH1 0x40 MLOAD SWAP2 POP PUSH1 0x1F NOT PUSH1 0x3F RETURNDATASIZE ADD AND DUP3 ADD PUSH1 0x40 MSTORE RETURNDATASIZE DUP3 MSTORE RETURNDATASIZE PUSH1 0x0 PUSH1 0x20 DUP5 ADD RETURNDATACOPY PUSH2 0x795 JUMP JUMPDEST PUSH1 0x60 SWAP2 POP JUMPDEST POP SWAP2 POP SWAP2 POP DUP2 PUSH2 0x7DA JUMPI PUSH1 0x40 MLOAD PUSH32 0x8C379A000000000000000000000000000000000000000000000000000000000 DUP2 MSTORE PUSH1 0x4 ADD PUSH2 0x7D1 SWAP1 PUSH2 0x1082 JUMP JUMPDEST PUSH1 0x40 MLOAD DUP1 SWAP2 SUB SWAP1 REVERT JUMPDEST DUP12 PUSH20 0xFFFFFFFFFFFFFFFFFFFFFFFFFFFFFFFFFFFFFFFF AND DUP5 PUSH32 0xD1D5C3C892C18716BD88852091D1B63DC6849E9D7C37F69D566884BF954D4BD9 DUP14 DUP14 DUP14 DUP14 DUP14 DUP14 PUSH1 0x40 MLOAD PUSH2 0x82B SWAP7 SWAP6 SWAP5 SWAP4 SWAP3 SWAP2 SWAP1 PUSH2 0xE72 JUMP JUMPDEST PUSH1 0x40 MLOAD DUP1 SWAP2 SUB SWAP1 LOG3 DUP1 SWAP5 POP POP POP POP POP SWAP8 SWAP7 POP POP POP POP POP POP POP JUMP JUMPDEST PUSH2 0x3E8 DUP2 JUMP JUMPDEST PUSH1 0x0 DUP1 SLOAD SWAP1 PUSH2 0x100 EXP SWAP1 DIV PUSH20 0xFFFFFFFFFFFFFFFFFFFFFFFFFFFFFFFFFFFFFFFF AND PUSH20 0xFFFFFFFFFFFFFFFFFFFFFFFFFFFFFFFFFFFFFFFF AND CALLER PUSH20 0xFFFFFFFFFFFFFFFFFFFFFFFFFFFFFFFFFFFFFFFF AND EQ PUSH2 0x8D0 JUMPI PUSH1 0x40 MLOAD PUSH32 0x74A2152700000000000000000000000000000000000000000000000000000000 DUP2 MSTORE PUSH1 0x4 ADD PUSH1 0x40 MLOAD DUP1 SWAP2 SUB SWAP1 REVERT JUMPDEST PUSH1 0x1 PUSH1 0x0 DUP3 DUP2 MSTORE PUSH1 0x20 ADD SWAP1 DUP2 MSTORE PUSH1 0x20 ADD PUSH1 0x0 KECCAK256 PUSH1 0x0 SWAP1 SLOAD SWAP1 PUSH2 0x100 EXP SWAP1 DIV PUSH1 0xFF AND PUSH2 0x932 JUMPI DUP1 PUSH1 0x40 MLOAD PUSH32 0x995C9D500000000000000000000000000000000000000000000000000000000 DUP2 MSTORE PUSH1 0x4 ADD PUSH2 0x929 SWAP2 SWAP1 PUSH2 0xC75 JUMP JUMPDEST PUSH1 0x40 MLOAD DUP1 SWAP2 SUB SWAP1 REVERT JUMPDEST PUSH1 0x0 PUSH1 0x1 PUSH1 0x0 DUP4 DUP2 MSTORE PUSH1 0x20 ADD SWAP1 DUP2 MSTORE PUSH1 0x20 ADD PUSH1 0x0 KECCAK256 PUSH1 0x0 PUSH2 0x100 EXP DUP2 SLOAD DUP2 PUSH1 0xFF MUL NOT AND SWAP1 DUP4 ISZERO ISZERO MUL OR SWAP1 SSTORE POP DUP1 PUSH32 0xE8D9861DBC9C663ED3ACCD261BBE2FE01E0D3D9E5F51FA38523B265C7757A93A PUSH1 0x40 MLOAD PUSH1 0x40 MLOAD DUP1 SWAP2 SUB SWAP1 LOG2 POP JUMP JUMPDEST PUSH1 0x0 DUP1 REVERT JUMPDEST PUSH1 0x0 DUP1 REVERT JUMPDEST PUSH1 0x0 DUP2 SWAP1 POP SWAP2 SWAP1 POP JUMP JUMPDEST PUSH2 0x9AB DUP2 PUSH2 0x998 JUMP JUMPDEST DUP2 EQ PUSH2 0x9B6 JUMPI PUSH1 0x0 DUP1 REVERT JUMPDEST POP JUMP JUMPDEST PUSH1 0x0 DUP2 CALLDATALOAD SWAP1 POP PUSH2 0x9C8 DUP2 PUSH2 0x9A2 JUMP JUMPDEST SWAP3 SWAP2 POP POP JUMP JUMPDEST PUSH1 0x0 PUSH1 0x20 DUP3 DUP5 SUB SLT ISZERO PUSH2 0x9E4 JUMPI PUSH2 0x9E3 PUSH2 0x98E JUMP JUMPDEST JUMPDEST PUSH1 0x0 PUSH2 0x9F2 DUP5 DUP3 DUP6 ADD PUSH2 0x9B9 JUMP JUMPDEST SWAP2 POP POP SWAP3 SWAP2 POP POP JUMP JUMPDEST PUSH1 0x0 DUP2 ISZERO ISZERO SWAP1 POP SWAP2 SWAP1 POP JUMP JUMPDEST PUSH2 0xA10 DUP2 PUSH2 0x9FB JUMP JUMPDEST DUP3 MSTORE POP POP JUMP JUMPDEST PUSH1 0x0 PUSH1 0x20 DUP3 ADD SWAP1 POP PUSH2 0xA2B PUSH1 0x0 DUP4 ADD DUP5 PUSH2 0xA07 JUMP JUMPDEST SWAP3 SWAP2 POP POP JUMP JUMPDEST PUSH1 0x0 DUP2 SWAP1 POP SWAP2 SWAP1 POP JUMP JUMPDEST PUSH2 0xA44 DUP2 PUSH2 0xA31 JUMP JUMPDEST DUP3 MSTORE POP POP JUMP JUMPDEST PUSH1 0x0 PUSH1 0x20 DUP3 ADD SWAP1 POP PUSH2 0xA5F PUSH1 0x0 DUP4 ADD DUP5 PUSH2 0xA3B JUMP JUMPDEST SWAP3 SWAP2 POP POP JUMP JUMPDEST PUSH1 0x0 PUSH20 0xFFFFFFFFFFFFFFFFFFFFFFFFFFFFFFFFFFFFFFFF DUP3 AND SWAP1 POP SWAP2 SWAP1 POP JUMP JUMPDEST PUSH1 0x0 PUSH2 0xA90 DUP3 PUSH2 0xA65 JUMP JUMPDEST SWAP1 POP SWAP2 SWAP1 POP JUMP JUMPDEST PUSH2 0xAA0 DUP2 PUSH2 0xA85 JUMP JUMPDEST DUP2 EQ PUSH2 0xAAB JUMPI PUSH1 0x0 DUP1 REVERT JUMPDEST POP JUMP JUMPDEST PUSH1 0x0 DUP2 CALLDATALOAD SWAP1 POP PUSH2 0xABD DUP2 PUSH2 0xA97 JUMP JUMPDEST SWAP3 SWAP2 POP POP JUMP JUMPDEST PUSH2 0xACC DUP2 PUSH2 0xA31 JUMP JUMPDEST DUP2 EQ PUSH2 0xAD7 JUMPI PUSH1 0x0 DUP1 REVERT JUMPDEST POP JUMP JUMPDEST PUSH1 0x0 DUP2 CALLDATALOAD SWAP1 POP PUSH2 0xAE9 DUP2 PUSH2 0xAC3 JUMP JUMPDEST SWAP3 SWAP2 POP POP JUMP JUMPDEST PUSH1 0x0 DUP1 REVERT JUMPDEST PUSH1 0x0 DUP1 REVERT JUMPDEST PUSH1 0x0 DUP1 REVERT JUMPDEST PUSH1 0x0 DUP1 DUP4 PUSH1 0x1F DUP5 ADD SLT PUSH2 0xB14 JUMPI PUSH2 0xB13 PUSH2 0xAEF JUMP JUMPDEST JUMPDEST DUP3 CALLDATALOAD SWAP1 POP PUSH8 0xFFFFFFFFFFFFFFFF DUP2 GT ISZERO PUSH2 0xB31 JUMPI PUSH2 0xB30 PUSH2 0xAF4 JUMP JUMPDEST JUMPDEST PUSH1 0x20 DUP4 ADD SWAP2 POP DUP4 PUSH1 0x1 DUP3 MUL DUP4 ADD GT ISZERO PUSH2 0xB4D JUMPI PUSH2 0xB4C PUSH2 0xAF9 JUMP JUMPDEST JUMPDEST SWAP3 POP SWAP3 SWAP1 POP JUMP JUMPDEST PUSH1 0x0 DUP1 DUP4 PUSH1 0x1F DUP5 ADD SLT PUSH2 0xB6A JUMPI PUSH2 0xB69 PUSH2 0xAEF JUMP JUMPDEST JUMPDEST DUP3 CALLDATALOAD SWAP1 POP PUSH8 0xFFFFFFFFFFFFFFFF DUP2 GT ISZERO PUSH2 0xB87 JUMPI PUSH2 0xB86 PUSH2 0xAF4 JUMP JUMPDEST JUMPDEST PUSH1 0x20 DUP4 ADD SWAP2 POP DUP4 PUSH1 0x1 DUP3 MUL DUP4 ADD GT ISZERO PUSH2 0xBA3 JUMPI PUSH2 0xBA2 PUSH2 0xAF9 JUMP JUMPDEST JUMPDEST SWAP3 POP SWAP3 SWAP1 POP JUMP JUMPDEST PUSH1 0x0 DUP1 PUSH1 0x0 DUP1 PUSH1 0x0 DUP1 PUSH1 0x0 PUSH1 0xA0 DUP9 DUP11 SUB SLT ISZERO PUSH2 0xBC9 JUMPI PUSH2 0xBC8 PUSH2 0x98E JUMP JUMPDEST JUMPDEST PUSH1 0x0 PUSH2 0xBD7 DUP11 DUP3 DUP12 ADD PUSH2 0xAAE JUMP JUMPDEST SWAP8 POP POP PUSH1 0x20 PUSH2 0xBE8 DUP11 DUP3 DUP12 ADD PUSH2 0xADA JUMP JUMPDEST SWAP7 POP POP PUSH1 0x40 DUP9 ADD CALLDATALOAD PUSH8 0xFFFFFFFFFFFFFFFF DUP2 GT ISZERO PUSH2 0xC09 JUMPI PUSH2 0xC08 PUSH2 0x993 JUMP JUMPDEST JUMPDEST PUSH2 0xC15 DUP11 DUP3 DUP12 ADD PUSH2 0xAFE JUMP JUMPDEST SWAP6 POP SWAP6 POP POP PUSH1 0x60 DUP9 ADD CALLDATALOAD PUSH8 0xFFFFFFFFFFFFFFFF DUP2 GT ISZERO PUSH2 0xC38 JUMPI PUSH2 0xC37 PUSH2 0x993 JUMP JUMPDEST JUMPDEST PUSH2 0xC44 DUP11 DUP3 DUP12 ADD PUSH2 0xB54 JUMP JUMPDEST SWAP4 POP SWAP4 POP POP PUSH1 0x80 PUSH2 0xC57 DUP11 DUP3 DUP12 ADD PUSH2 0xADA JUMP JUMPDEST SWAP2 POP POP SWAP3 SWAP6 SWAP9 SWAP2 SWAP5 SWAP8 POP SWAP3 SWAP6 POP JUMP JUMPDEST PUSH2 0xC6F DUP2 PUSH2 0x998 JUMP JUMPDEST DUP3 MSTORE POP POP JUMP JUMPDEST PUSH1 0x0 PUSH1 0x20 DUP3 ADD SWAP1 POP PUSH2 0xC8A PUSH1 0x0 DUP4 ADD DUP5 PUSH2 0xC66 JUMP JUMPDEST SWAP3 SWAP2 POP POP JUMP JUMPDEST PUSH2 0xC99 DUP2 PUSH2 0xA85 JUMP JUMPDEST DUP3 MSTORE POP POP JUMP JUMPDEST PUSH1 0x0 PUSH1 0x20 DUP3 ADD SWAP1 POP PUSH2 0xCB4 PUSH1 0x0 DUP4 ADD DUP5 PUSH2 0xC90 JUMP JUMPDEST SWAP3 SWAP2 POP POP JUMP JUMPDEST PUSH1 0x0 DUP2 MLOAD SWAP1 POP SWAP2 SWAP1 POP JUMP JUMPDEST PUSH1 0x0 DUP3 DUP3 MSTORE PUSH1 0x20 DUP3 ADD SWAP1 POP SWAP3 SWAP2 POP POP JUMP JUMPDEST PUSH1 0x0 JUMPDEST DUP4 DUP2 LT ISZERO PUSH2 0xCF4 JUMPI DUP1 DUP3 ADD MLOAD DUP2 DUP5 ADD MSTORE PUSH1 0x20 DUP2 ADD SWAP1 POP PUSH2 0xCD9 JUMP JUMPDEST PUSH1 0x0 DUP5 DUP5 ADD MSTORE POP POP POP POP JUMP JUMPDEST PUSH1 0x0 PUSH1 0x1F NOT PUSH1 0x1F DUP4 ADD AND SWAP1 POP SWAP2 SWAP1 POP JUMP JUMPDEST PUSH1 0x0 PUSH2 0xD1C DUP3 PUSH2 0xCBA JUMP JUMPDEST PUSH2 0xD26 DUP2 DUP6 PUSH2 0xCC5 JUMP JUMPDEST SWAP4 POP PUSH2 0xD36 DUP2 DUP6 PUSH1 0x20 DUP7 ADD PUSH2 0xCD6 JUMP JUMPDEST PUSH2 0xD3F DUP2 PUSH2 0xD00 JUMP JUMPDEST DUP5 ADD SWAP2 POP POP SWAP3 SWAP2 POP POP JUMP JUMPDEST PUSH1 0x0 PUSH1 0x20 DUP3 ADD SWAP1 POP DUP2 DUP2 SUB PUSH1 0x0 DUP4 ADD MSTORE PUSH2 0xD64 DUP2 DUP5 PUSH2 0xD11 JUMP JUMPDEST SWAP1 POP SWAP3 SWAP2 POP POP JUMP JUMPDEST PUSH32 0x4E487B7100000000000000000000000000000000000000000000000000000000 PUSH1 0x0 MSTORE PUSH1 0x11 PUSH1 0x4 MSTORE PUSH1 0x24 PUSH1 0x0 REVERT JUMPDEST PUSH1 0x0 PUSH2 0xDA6 DUP3 PUSH2 0xA31 JUMP JUMPDEST SWAP2 POP PUSH2 0xDB1 DUP4 PUSH2 0xA31 JUMP JUMPDEST SWAP3 POP DUP3 DUP3 ADD SWAP1 POP DUP1 DUP3 GT ISZERO PUSH2 0xDC9 JUMPI PUSH2 0xDC8 PUSH2 0xD6C JUMP JUMPDEST JUMPDEST SWAP3 SWAP2 POP POP JUMP JUMPDEST PUSH1 0x0 PUSH1 0x40 DUP3 ADD SWAP1 POP PUSH2 0xDE4 PUSH1 0x0 DUP4 ADD DUP6 PUSH2 0xA3B JUMP JUMPDEST PUSH2 0xDF1 PUSH1 0x20 DUP4 ADD DUP5 PUSH2 0xA3B JUMP JUMPDEST SWAP4 SWAP3 POP POP POP JUMP JUMPDEST PUSH1 0x0 DUP3 DUP3 MSTORE PUSH1 0x20 DUP3 ADD SWAP1 POP SWAP3 SWAP2 POP POP JUMP JUMPDEST DUP3 DUP2 DUP4 CALLDATACOPY PUSH1 0x0 DUP4 DUP4 ADD MSTORE POP POP POP JUMP JUMPDEST PUSH1 0x0 PUSH2 0xE24 DUP4 DUP6 PUSH2 0xDF8 JUMP JUMPDEST SWAP4 POP PUSH2 0xE31 DUP4 DUP6 DUP5 PUSH2 0xE09 JUMP JUMPDEST PUSH2 0xE3A DUP4 PUSH2 0xD00 JUMP JUMPDEST DUP5 ADD SWAP1 POP SWAP4 SWAP3 POP POP POP JUMP JUMPDEST PUSH1 0x0 PUSH2 0xE51 DUP4 DUP6 PUSH2 0xCC5 JUMP JUMPDEST SWAP4 POP PUSH2 0xE5E DUP4 DUP6 DUP5 PUSH2 0xE09 JUMP JUMPDEST PUSH2 0xE67 DUP4 PUSH2 0xD00 JUMP JUMPDEST DUP5 ADD SWAP1 POP SWAP4 SWAP3 POP POP POP JUMP JUMPDEST PUSH1 0x0 PUSH1 0x80 DUP3 ADD SWAP1 POP PUSH2 0xE87 PUSH1 0x0 DUP4 ADD DUP10 PUSH2 0xA3B JUMP JUMPDEST DUP2 DUP2 SUB PUSH1 0x20 DUP4 ADD MSTORE PUSH2 0xE9A DUP2 DUP8 DUP10 PUSH2 0xE18 JUMP JUMPDEST SWAP1 POP DUP2 DUP2 SUB PUSH1 0x40 DUP4 ADD MSTORE PUSH2 0xEAF DUP2 DUP6 DUP8 PUSH2 0xE45 JUMP JUMPDEST SWAP1 POP PUSH2 0xEBE PUSH1 0x60 DUP4 ADD DUP5 PUSH2 0xA3B JUMP JUMPDEST SWAP8 SWAP7 POP POP POP POP POP POP POP JUMP JUMPDEST PUSH1 0x0 PUSH1 0xA0 DUP3 ADD SWAP1 POP PUSH2 0xEDE PUSH1 0x0 DUP4 ADD DUP11 PUSH2 0xC90 JUMP JUMPDEST PUSH2 0xEEB PUSH1 0x20 DUP4 ADD DUP10 PUSH2 0xA3B JUMP JUMPDEST DUP2 DUP2 SUB PUSH1 0x40 DUP4 ADD MSTORE PUSH2 0xEFE DUP2 DUP8 DUP10 PUSH2 0xE18 JUMP JUMPDEST SWAP1 POP DUP2 DUP2 SUB PUSH1 0x60 DUP4 ADD MSTORE PUSH2 0xF13 DUP2 DUP6 DUP8 PUSH2 0xE45 JUMP JUMPDEST SWAP1 POP PUSH2 0xF22 PUSH1 0x80 DUP4 ADD DUP5 PUSH2 0xA3B JUMP JUMPDEST SWAP9 SWAP8 POP POP POP POP POP POP POP POP JUMP JUMPDEST PUSH1 0x0 DUP2 SWAP1 POP SWAP3 SWAP2 POP POP JUMP JUMPDEST PUSH1 0x0 PUSH2 0xF45 DUP4 DUP6 PUSH2 0xF2E JUMP JUMPDEST SWAP4 POP PUSH2 0xF52 DUP4 DUP6 DUP5 PUSH2 0xE09 JUMP JUMPDEST DUP3 DUP5 ADD SWAP1 POP SWAP4 SWAP3 POP POP POP JUMP JUMPDEST PUSH1 0x0 PUSH2 0xF6B DUP3 DUP5 DUP7 PUSH2 0xF39 JUMP JUMPDEST SWAP2 POP DUP2 SWAP1 POP SWAP4 SWAP3 POP POP POP JUMP JUMPDEST PUSH1 0x0 PUSH32 0xFFFFFFFF00000000000000000000000000000000000000000000000000000000 DUP3 AND SWAP1 POP SWAP2 SWAP1 POP JUMP JUMPDEST PUSH1 0x0 DUP2 SWAP1 POP SWAP2 SWAP1 POP JUMP JUMPDEST PUSH2 0xFBE PUSH2 0xFB9 DUP3 PUSH2 0xF77 JUMP JUMPDEST PUSH2 0xFA3 JUMP JUMPDEST DUP3 MSTORE POP POP JUMP JUMPDEST PUSH1 0x0 PUSH2 0xFD0 DUP3 DUP7 PUSH2 0xFAD JUMP JUMPDEST PUSH1 0x4 DUP3 ADD SWAP2 POP PUSH2 0xFE1 DUP3 DUP5 DUP7 PUSH2 0xF39 JUMP JUMPDEST SWAP2 POP DUP2 SWAP1 POP SWAP5 SWAP4 POP POP POP POP JUMP JUMPDEST PUSH1 0x0 PUSH2 0xFF9 DUP3 PUSH2 0xCBA JUMP JUMPDEST PUSH2 0x1003 DUP2 DUP6 PUSH2 0xF2E JUMP JUMPDEST SWAP4 POP PUSH2 0x1013 DUP2 DUP6 PUSH1 0x20 DUP7 ADD PUSH2 0xCD6 JUMP JUMPDEST DUP1 DUP5 ADD SWAP2 POP POP SWAP3 SWAP2 POP POP JUMP JUMPDEST PUSH1 0x0 PUSH2 0x102B DUP3 DUP5 PUSH2 0xFEE JUMP JUMPDEST SWAP2 POP DUP2 SWAP1 POP SWAP3 SWAP2 POP POP JUMP JUMPDEST PUSH32 0x73756363657373206661696C6564000000000000000000000000000000000000 PUSH1 0x0 DUP3 ADD MSTORE POP JUMP JUMPDEST PUSH1 0x0 PUSH2 0x106C PUSH1 0xE DUP4 PUSH2 0xDF8 JUMP JUMPDEST SWAP2 POP PUSH2 0x1077 DUP3 PUSH2 0x1036 JUMP JUMPDEST PUSH1 0x20 DUP3 ADD SWAP1 POP SWAP2 SWAP1 POP JUMP JUMPDEST PUSH1 0x0 PUSH1 0x20 DUP3 ADD SWAP1 POP DUP2 DUP2 SUB PUSH1 0x0 DUP4 ADD MSTORE PUSH2 0x109B DUP2 PUSH2 0x105F JUMP JUMPDEST SWAP1 POP SWAP2 SWAP1 POP JUMP INVALID LOG2 PUSH5 0x6970667358 0x22 SLT KECCAK256 CALLER GT 0xBD SELFBALANCE 0x4A SWAP4 GASLIMIT STOP CODECOPY PUSH9 0x8FD05CEB9D895E3910 PREVRANDAO 0xD1 0xCF XOR DUP16 0xA5 0xD7 PUSH2 0x4867 PUSH17 0x67F964736F6C6343000812003300000000 "
		},
		"gasEstimates": {
			"creation": {
				"codeDepositCost": "862400",
				"executionCost": "25162",
				"totalCost": "887562"
			},
			"external": {
				"GRACE_PERIOD()": "395",
				"MAX_DELAY()": "352",
				"MIN_DELAY()": "351",
				"cancel(bytes32)": "infinite",
				"execute(address,uint256,string,bytes,uint256)": "infinite",
				"getTxId(address,uint256,string,bytes,uint256)": "infinite",
				"owner()": "2511",
				"queue(address,uint256,string,bytes,uint256)": "infinite",
				"queued(bytes32)": "2797"
			}
		},
		"methodIdentifiers": {
			"GRACE_PERIOD()": "c1a287e2",
			"MAX_DELAY()": "4125ff90",
			"MIN_DELAY()": "9f81aed7",
			"cancel(bytes32)": "c4d252f5",
			"execute(address,uint256,string,bytes,uint256)": "b0f8b142",
			"getTxId(address,uint256,string,bytes,uint256)": "8a1ce0b6",
			"owner()": "8da5cb5b",
			"queue(address,uint256,string,bytes,uint256)": "4b9915a5",
			"queued(bytes32)": "228250c9"
		}
	},
	"abi": [
		{
			"inputs": [],
			"stateMutability": "nonpayable",
			"type": "constructor"
		},
		{
			"inputs": [
				{
					"internalType": "bytes32",
					"name": "txId",
					"type": "bytes32"
				}
			],
			"name": "AlreadyQueuedError",
			"type": "error"
		},
		{
			"inputs": [],
			"name": "NotOwnerError",
			"type": "error"
		},
		{
			"inputs": [
				{
					"internalType": "bytes32",
					"name": "txId",
					"type": "bytes32"
				}
			],
			"name": "NotQueuedError",
			"type": "error"
		},
		{
			"inputs": [
				{
					"internalType": "uint256",
					"name": "blocktimestamp",
					"type": "uint256"
				},
				{
					"internalType": "uint256",
					"name": "expiresAt",
					"type": "uint256"
				}
			],
			"name": "timestampExpiredError",
			"type": "error"
		},
		{
			"inputs": [
				{
					"internalType": "uint256",
					"name": "blocktimestamp",
					"type": "uint256"
				},
				{
					"internalType": "uint256",
					"name": "timestamp",
					"type": "uint256"
				}
			],
			"name": "timestampNotPassedError",
			"type": "error"
		},
		{
			"inputs": [
				{
					"internalType": "uint256",
					"name": "blocktimestamp",
					"type": "uint256"
				},
				{
					"internalType": "uint256",
					"name": "timestamp",
					"type": "uint256"
				}
			],
			"name": "timestampNotinRangeError",
			"type": "error"
		},
		{
			"anonymous": false,
			"inputs": [
				{
					"indexed": true,
					"internalType": "bytes32",
					"name": "txId",
					"type": "bytes32"
				}
			],
			"name": "Cancel",
			"type": "event"
		},
		{
			"anonymous": false,
			"inputs": [
				{
					"indexed": true,
					"internalType": "bytes32",
					"name": "txId",
					"type": "bytes32"
				},
				{
					"indexed": true,
					"internalType": "address",
					"name": "target",
					"type": "address"
				},
				{
					"indexed": false,
					"internalType": "uint256",
					"name": "value",
					"type": "uint256"
				},
				{
					"indexed": false,
					"internalType": "string",
					"name": "func",
					"type": "string"
				},
				{
					"indexed": false,
					"internalType": "bytes",
					"name": "data",
					"type": "bytes"
				},
				{
					"indexed": false,
					"internalType": "uint256",
					"name": "timestamp",
					"type": "uint256"
				}
			],
			"name": "Execute",
			"type": "event"
		},
		{
			"anonymous": false,
			"inputs": [
				{
					"indexed": true,
					"internalType": "bytes32",
					"name": "txId",
					"type": "bytes32"
				},
				{
					"indexed": true,
					"internalType": "address",
					"name": "target",
					"type": "address"
				},
				{
					"indexed": false,
					"internalType": "uint256",
					"name": "value",
					"type": "uint256"
				},
				{
					"indexed": false,
					"internalType": "string",
					"name": "func",
					"type": "string"
				},
				{
					"indexed": false,
					"internalType": "bytes",
					"name": "data",
					"type": "bytes"
				},
				{
					"indexed": false,
					"internalType": "uint256",
					"name": "timestamp",
					"type": "uint256"
				}
			],
			"name": "Queue",
			"type": "event"
		},
		{
			"inputs": [],
			"name": "GRACE_PERIOD",
			"outputs": [
				{
					"internalType": "uint256",
					"name": "",
					"type": "uint256"
				}
			],
			"stateMutability": "view",
			"type": "function"
		},
		{
			"inputs": [],
			"name": "MAX_DELAY",
			"outputs": [
				{
					"internalType": "uint256",
					"name": "",
					"type": "uint256"
				}
			],
			"stateMutability": "view",
			"type": "function"
		},
		{
			"inputs": [],
			"name": "MIN_DELAY",
			"outputs": [
				{
					"internalType": "uint256",
					"name": "",
					"type": "uint256"
				}
			],
			"stateMutability": "view",
			"type": "function"
		},
		{
			"inputs": [
				{
					"internalType": "bytes32",
					"name": "_txId",
					"type": "bytes32"
				}
			],
			"name": "cancel",
			"outputs": [],
			"stateMutability": "nonpayable",
			"type": "function"
		},
		{
			"inputs": [
				{
					"internalType": "address",
					"name": "_target",
					"type": "address"
				},
				{
					"internalType": "uint256",
					"name": "_value",
					"type": "uint256"
				},
				{
					"internalType": "string",
					"name": "_func",
					"type": "string"
				},
				{
					"internalType": "bytes",
					"name": "_data",
					"type": "bytes"
				},
				{
					"internalType": "uint256",
					"name": "_timestamp",
					"type": "uint256"
				}
			],
			"name": "execute",
			"outputs": [
				{
					"internalType": "bytes",
					"name": "",
					"type": "bytes"
				}
			],
			"stateMutability": "payable",
			"type": "function"
		},
		{
			"inputs": [
				{
					"internalType": "address",
					"name": "_target",
					"type": "address"
				},
				{
					"internalType": "uint256",
					"name": "_value",
					"type": "uint256"
				},
				{
					"internalType": "string",
					"name": "_func",
					"type": "string"
				},
				{
					"internalType": "bytes",
					"name": "_data",
					"type": "bytes"
				},
				{
					"internalType": "uint256",
					"name": "_timestamp",
					"type": "uint256"
				}
			],
			"name": "getTxId",
			"outputs": [
				{
					"internalType": "bytes32",
					"name": "txId",
					"type": "bytes32"
				}
			],
			"stateMutability": "pure",
			"type": "function"
		},
		{
			"inputs": [],
			"name": "owner",
			"outputs": [
				{
					"internalType": "address",
					"name": "",
					"type": "address"
				}
			],
			"stateMutability": "view",
			"type": "function"
		},
		{
			"inputs": [
				{
					"internalType": "address",
					"name": "_target",
					"type": "address"
				},
				{
					"internalType": "uint256",
					"name": "_value",
					"type": "uint256"
				},
				{
					"internalType": "string",
					"name": "_func",
					"type": "string"
				},
				{
					"internalType": "bytes",
					"name": "_data",
					"type": "bytes"
				},
				{
					"internalType": "uint256",
					"name": "_timestamp",
					"type": "uint256"
				}
			],
			"name": "queue",
			"outputs": [],
			"stateMutability": "nonpayable",
			"type": "function"
		},
		{
			"inputs": [
				{
					"internalType": "bytes32",
					"name": "",
					"type": "bytes32"
				}
			],
			"name": "queued",
			"outputs": [
				{
					"internalType": "bool",
					"name": "",
					"type": "bool"
				}
			],
			"stateMutability": "view",
			"type": "function"
		},
		{
			"stateMutability": "payable",
			"type": "receive"
		}
	]
}