{
	"data": {
		"bytecode": {
			"linkReferences": {},
			"object": "608060405260008055600180556002805534801561001c57600080fd5b506101e48061002c6000396000f3fe608060405234801561001057600080fd5b506004361061004c5760003560e01c806342b148aa146100515780634b73383f1461006f57806354353f2f1461008d578063c5d7802e14610097575b600080fd5b6100596100b5565b6040516100669190610130565b60405180910390f35b6100776100bf565b6040516100849190610130565b60405180910390f35b6100956100c8565b005b61009f610103565b6040516100ac9190610130565b60405180910390f35b600061012c905090565b600060c8905090565b6002546001546000546100db919061017a565b6100e5919061017a565b506100ee610109565b506100f761010e565b506101006100bf565b50565b60025481565b600090565b60006064905090565b6000819050919050565b61012a81610117565b82525050565b60006020820190506101456000830184610121565b92915050565b7f4e487b7100000000000000000000000000000000000000000000000000000000600052601160045260246000fd5b600061018582610117565b915061019083610117565b92508282019050808211156101a8576101a761014b565b5b9291505056fea2646970667358221220d47daf6058d4b86616ec16efe9a4d4e50932595bda32b16bd437f2412001a8af64736f6c63430008120033",
			"opcodes": "PUSH1 0x80 PUSH1 0x40 MSTORE PUSH1 0x0 DUP1 SSTORE PUSH1 0x1 DUP1 SSTORE PUSH1 0x2 DUP1 SSTORE CALLVALUE DUP1 ISZERO PUSH2 0x1C JUMPI PUSH1 0x0 DUP1 REVERT JUMPDEST POP PUSH2 0x1E4 DUP1 PUSH2 0x2C PUSH1 0x0 CODECOPY PUSH1 0x0 RETURN INVALID PUSH1 0x80 PUSH1 0x40 MSTORE CALLVALUE DUP1 ISZERO PUSH2 0x10 JUMPI PUSH1 0x0 DUP1 REVERT JUMPDEST POP PUSH1 0x4 CALLDATASIZE LT PUSH2 0x4C JUMPI PUSH1 0x0 CALLDATALOAD PUSH1 0xE0 SHR DUP1 PUSH4 0x42B148AA EQ PUSH2 0x51 JUMPI DUP1 PUSH4 0x4B73383F EQ PUSH2 0x6F JUMPI DUP1 PUSH4 0x54353F2F EQ PUSH2 0x8D JUMPI DUP1 PUSH4 0xC5D7802E EQ PUSH2 0x97 JUMPI JUMPDEST PUSH1 0x0 DUP1 REVERT JUMPDEST PUSH2 0x59 PUSH2 0xB5 JUMP JUMPDEST PUSH1 0x40 MLOAD PUSH2 0x66 SWAP2 SWAP1 PUSH2 0x130 JUMP JUMPDEST PUSH1 0x40 MLOAD DUP1 SWAP2 SUB SWAP1 RETURN JUMPDEST PUSH2 0x77 PUSH2 0xBF JUMP JUMPDEST PUSH1 0x40 MLOAD PUSH2 0x84 SWAP2 SWAP1 PUSH2 0x130 JUMP JUMPDEST PUSH1 0x40 MLOAD DUP1 SWAP2 SUB SWAP1 RETURN JUMPDEST PUSH2 0x95 PUSH2 0xC8 JUMP JUMPDEST STOP JUMPDEST PUSH2 0x9F PUSH2 0x103 JUMP JUMPDEST PUSH1 0x40 MLOAD PUSH2 0xAC SWAP2 SWAP1 PUSH2 0x130 JUMP JUMPDEST PUSH1 0x40 MLOAD DUP1 SWAP2 SUB SWAP1 RETURN JUMPDEST PUSH1 0x0 PUSH2 0x12C SWAP1 POP SWAP1 JUMP JUMPDEST PUSH1 0x0 PUSH1 0xC8 SWAP1 POP SWAP1 JUMP JUMPDEST PUSH1 0x2 SLOAD PUSH1 0x1 SLOAD PUSH1 0x0 SLOAD PUSH2 0xDB SWAP2 SWAP1 PUSH2 0x17A JUMP JUMPDEST PUSH2 0xE5 SWAP2 SWAP1 PUSH2 0x17A JUMP JUMPDEST POP PUSH2 0xEE PUSH2 0x109 JUMP JUMPDEST POP PUSH2 0xF7 PUSH2 0x10E JUMP JUMPDEST POP PUSH2 0x100 PUSH2 0xBF JUMP JUMPDEST POP JUMP JUMPDEST PUSH1 0x2 SLOAD DUP2 JUMP JUMPDEST PUSH1 0x0 SWAP1 JUMP JUMPDEST PUSH1 0x0 PUSH1 0x64 SWAP1 POP SWAP1 JUMP JUMPDEST PUSH1 0x0 DUP2 SWAP1 POP SWAP2 SWAP1 POP JUMP JUMPDEST PUSH2 0x12A DUP2 PUSH2 0x117 JUMP JUMPDEST DUP3 MSTORE POP POP JUMP JUMPDEST PUSH1 0x0 PUSH1 0x20 DUP3 ADD SWAP1 POP PUSH2 0x145 PUSH1 0x0 DUP4 ADD DUP5 PUSH2 0x121 JUMP JUMPDEST SWAP3 SWAP2 POP POP JUMP JUMPDEST PUSH32 0x4E487B7100000000000000000000000000000000000000000000000000000000 PUSH1 0x0 MSTORE PUSH1 0x11 PUSH1 0x4 MSTORE PUSH1 0x24 PUSH1 0x0 REVERT JUMPDEST PUSH1 0x0 PUSH2 0x185 DUP3 PUSH2 0x117 JUMP JUMPDEST SWAP2 POP PUSH2 0x190 DUP4 PUSH2 0x117 JUMP JUMPDEST SWAP3 POP DUP3 DUP3 ADD SWAP1 POP DUP1 DUP3 GT ISZERO PUSH2 0x1A8 JUMPI PUSH2 0x1A7 PUSH2 0x14B JUMP JUMPDEST JUMPDEST SWAP3 SWAP2 POP POP JUMP INVALID LOG2 PUSH5 0x6970667358 0x22 SLT KECCAK256 0xD4 PUSH30 0xAF6058D4B86616EC16EFE9A4D4E50932595BDA32B16BD437F2412001A8AF PUSH5 0x736F6C6343 STOP ADDMOD SLT STOP CALLER "
		},
		"gasEstimates": {
			"creation": {
				"codeDepositCost": "96800",
				"executionCost": "49365",
				"totalCost": "146165"
			},
			"external": {
				"example()": "infinite",
				"externalFunc()": "315",
				"publicFunc()": "337",
				"z()": "2473"
			},
			"internal": {
				"internalFunc()": "23",
				"privateFunc()": "15"
			}
		},
		"methodIdentifiers": {
			"example()": "54353f2f",
			"externalFunc()": "42b148aa",
			"publicFunc()": "4b73383f",
			"z()": "c5d7802e"
		}
	},
	"abi": [
		{
			"inputs": [],
			"name": "example",
			"outputs": [],
			"stateMutability": "view",
			"type": "function"
		},
		{
			"inputs": [],
			"name": "externalFunc",
			"outputs": [
				{
					"internalType": "uint256",
					"name": "",
					"type": "uint256"
				}
			],
			"stateMutability": "pure",
			"type": "function"
		},
		{
			"inputs": [],
			"name": "publicFunc",
			"outputs": [
				{
					"internalType": "uint256",
					"name": "",
					"type": "uint256"
				}
			],
			"stateMutability": "pure",
			"type": "function"
		},
		{
			"inputs": [],
			"name": "z",
			"outputs": [
				{
					"internalType": "uint256",
					"name": "",
					"type": "uint256"
				}
			],
			"stateMutability": "view",
			"type": "function"
		}
	]
}